:020000040800F2
:10000000382F0020E9BA0008797100087B710008D8
:100010007F710008837100088771000800000000EC
:100020000000000000000000000000008B710008CC
:100030008D710008000000008F71000891710008A8
:1000400003BB000803BB000803BB000803BB000898
:1000500003BB000803BB000803BB000803BB000888
:1000600003BB000803BB000803BB000803BB000878
:1000700003BB000803BB000803BB000803BB000868
:1000800003BB000803BB000803BB000803BB000858
:100090002575000803BB000803BB000803BB00086C
:1000A00003BB000803BB000803BB000803BB000838
:1000B00021B600085BB6000819B7000803BB0008AA
:1000C00003BB000803BB000803BB000803BB000818
:1000D00003BB000825B3000803BB000803BB0008EE
:1000E00003BB000803BB000803BB000803BB0008F8
:1000F00033B90008F5B9000803BB000803BB0008CA
:1001000003BB000803BB000803BB000803BB0008D7
:1001100003BB000803BB0008D9B7000803BB0008F5
:1001200003BB000803BB000803BB000803BB0008B7
:1001300003BB000803BB000803BB000803BB0008A7
:1001400003BB0008D576000803BB000803BB00080A
:1001500003BB000803BB000803BB000803BB000887
:1001600003BB000803BB000803BB000803BB000877
:1001700003BB000803BB000803BB000803BB000867
:1001800003BB000803BB000803BB000803BB000857
:1001900003BB000803BB000803BB000803BB000847
:1001A00003BB000803BB000803BB000800F002F813
:1001B00000F052F80AA090E8000C82448344AAF1AF
:1001C0000107DA4501D100F047F8AFF2090EBAE8AD
:1001D0000F0013F0010F18BFFB1A43F0010318477B
:1001E000040E0100240E0100103A24BF78C878C123
:1001F000FAD8520724BF30C830C144BF04680C602D
:10020000704700000023002400250026103A28BF74
:1002100078C1FBD8520728BF30C148BF0B60704778
:10022000662910F0AE8564290DF0428775290DF01E
:100230003F8778290DF07887002070471FB510F0B0
:1002400096FD0EF07DFA0400002000210FF0FEFF65
:10025000E0601FBD10B510BD0EF08EFB1146FFF71C
:10026000EDFF06F09BF90EF0ACFB03B4FFF7F2FFD5
:1002700003BC0AF0F7FF0000002070470020704721
:100280000020704700207047002070470020704712
:100290000020704700207047002070470020704702
:1002A00000207047002000BF1FE040F2E731884285
:1002B0000ED00021FE4A02F8301002EBC00251704D
:1002C000FB4A411C02EBC10102EBC00251600BE092
:1002D0000021F74A02F8301002EBC0025170F449D5
:1002E0000A4602EBC0025160401CB0F57A7FDCDBAD
:1002F000EF49F04A116011460968EF4A11607047F2
:100300002DE9F04F99B080460E460EB1642E03DD04
:10031000002019B0BDE8F08F45460024002700BF3B
:100320004CE0701E211D884234DA285D04F1010C76
:10033000B44502DB4FF0000C03E004F1010C15F8AA
:100340000CC0614604F1020CB44502DB4FF0000C16
:1003500003E004F1020C15F80CC0624604F1030C32
:10036000B44502DB4FF0000C03E004F1030C15F878
:100370000CC063464FEA006C4CEA014C4CEA022C7C
:100380004CEA030CBA4607F1010B1FFA8BF74DF844
:100390002AC015E0285D0106601C285C41EA004186
:1003A000A01C285C41EA0020E11C695C0843394636
:1003B0007A1C97B24DF82100201D84B2B442B0DB04
:1003C00000BF4FF000090DF00DFE002406E05DF8BF
:1003D00024000DF00BFE8146601C84B2BC42F6DBAB
:1003E000484696E710B52DED028BB0EE408A9FEDA2
:1003F000B30A28EE000ADFEDB20A80EE201AF0EE12
:10040000418AB0EE680A0FF02DF8AE4880ED000A80
:100410009FEDAA0A28EE000ADFEDA90A80EE201A55
:10042000F0EE418AB0EE680A0FF02AF9B1EE400A08
:10043000A44880ED010A9FEDA40A80ED020A9FED19
:100440009F0A28EE000ADFED9E0A80EE201AF0EEE9
:10045000418AB0EE680A0FF013F99A4880ED030A5A
:1004600090ED000A80ED040A9FED970A80ED050AE1
:100470009FED950A80ED060A9FED930A80ED070A2D
:10048000B7EE000A80ED080ABDEC028B10BD10B576
:100490002DED048BB0EE408AF0EE608A9FED870A66
:1004A00028EE000ADFED860A80EE201AB0EE419AAF
:1004B000B0EE490A0EF0D6FFF0EE409A9FED7F0AAB
:1004C00028EE800ADFED7E0A80EE201AB0EE419A17
:1004D000B0EE490A0EF0C6FF29EE800A7B4880ED97
:1004E000000A9FED760A28EE000ADFED750A80EE1D
:1004F000201AB0EE419AB0EE490A0EF0B3FFF1EEC9
:10050000409A9FED6E0A28EE800ADFED6D0A80EEBC
:10051000201AB0EE419AB0EE490A0FF0B1F829EE78
:10052000800A6A4880ED010A9FED640A28EE000AFD
:10053000DFED630A80EE201AB0EE419AB0EE490A70
:100540000FF09EF8B1EE400A604880ED020A9FED80
:100550005B0A28EE000ADFED5A0A80EE201AB0EEA0
:10056000419AB0EE490A0FF08BF8F0EE409A9FEDF9
:10057000530A28EE800ADFED520A80EE201AB0EE10
:10058000419AB0EE490A0EF06DFF29EE800A4F48FD
:1005900080ED030A9FED490A28EE000ADFED480AC4
:1005A00080EE201AB0EE419AB0EE490A0FF068F8DA
:1005B000F1EE409A9FED410A28EE800ADFED400AF5
:1005C00080EE201AB0EE419AB0EE490A0FF058F8CA
:1005D00029EE800A3D4880ED040A9FED380A28EE96
:1005E000000ADFED370A80EE201AB0EE419AB0EE35
:1005F000490A0EF037FF354880ED050A9FED2F0AB6
:1006000028EE800ADFED2E0A80EE201AB0EE419A25
:10061000B0EE490A0FF034F8B1EE400A2B4880EDF5
:10062000060A9FED260A28EE800ADFED250A80EEF5
:10063000201AB0EE419AB0EE490A0EF013FFB1EE67
:10064000400A224880ED070A9FED1F0A80ED080A44
:10065000BDEC048B10BD10B52DED068BB0EE408ABD
:10066000F0EE608AB0EE419A9FED140A28EE000A7F
:10067000DFED130A80EE201AF0EE419AB0EE690A1F
:100680000EF0F0FEB0EE40AA9FED0C0A69EE000AF3
:100690009FED0B1A80EE810A30EE280AF0EE409AA8
:1006A0000EF0E0FE2AEE000A094880ED000A11E093
:1006B000F00200202000002024000020DC0F494030
:1006C000000034439000002000000000B40000202F
:1006D000D80000201FED070A28EE000A5FED080A87
:1006E00080EE201AF0EE419AB0EE690A0EF0BAFEE2
:1006F000B1EE40AA1FED0F0A69EE000A1FED101AB5
:1007000080EE810A30EE280AF0EE409A0EF0B8FF33
:100710002AEE000AFE4880ED010A1FED180A28EEB5
:10072000000A5FED190A80EE201AF0EE419AB0EE51
:10073000690A0EF0A5FFB1EE400AF54880ED020A05
:100740001FED220A28EE000A5FED230A80EE201A30
:10075000F0EE419AB0EE690A0EF092FFB0EE40AAB8
:100760001FED2A0A69EE000A1FED2B1A80EE810A9E
:1007700030EE280AF0EE409A0EF074FE2AEE000ADF
:10078000E34880ED030A1FED330A28EE000A5FED0F
:10079000340A80EE201AF0EE419AB0EE690A0EF0AB
:1007A0006FFFB1EE40AA1FED3B0A69EE000A1FED94
:1007B0003C1A80EE810A30EE280AF0EE409A0EF0E4
:1007C0005FFF2AEE000AD24880ED040A1FED450AB9
:1007D00028EE000A5FED460A80EE201AF0EE419AFC
:1007E000B0EE690A0EF03EFEC94880ED050A1FED25
:1007F0004D0A69EE000A1FED4E1A80EE810A30EEB6
:10080000280AF0EE409A0EF03BFFB1EE400AC048D5
:1008100080ED060A1FED570A69EE000A1FED581A0F
:1008200080EE810A30EE280AF0EE409A0EF01AFEB1
:10083000B1EE400AB64880ED070A1FED5D0A80ED73
:10084000080ABDEC068B10BD10B52DED068BB0EE81
:10085000408AF0EE608AB0EE419AF0EE619A1FEDA8
:10086000690A28EE000A5FED6A0A80EE201AB0EEEF
:1008700041AAB0EE4A0A0EF0F5FDF0EE40AA1FEDD7
:10088000710A69EE800A1FED721A80EE810A78EE15
:10089000890A30EE200AB0EE40AA0EF0E3FD2AEEFF
:1008A000800A9C4880ED000A1FED7C0A28EE000AB1
:1008B0005FED7D0A80EE201AB0EE41AAB0EE4A0A42
:1008C0000EF0D0FDF1EE40AA1FED840A69EE800A19
:1008D0001FED851A80EE810A78EE890A30EE200A33
:1008E000B0EE40AA0EF0CCFE2AEE800A894880EDD8
:1008F000010A1FED8E0A28EE000A5FED8F0A80EED6
:10090000201AB0EE41AAB0EE4A0A0EF0B9FEB1EEDE
:10091000400A804880ED020A1FED980A28EE000A7E
:100920005FED990A80EE201AB0EE41AAB0EE4A0AB5
:100930000EF0A6FEF0EE40AA1FEDA00A69EE800AB6
:100940001FEDA11A80EE810A78EE890A30EE200AA6
:10095000B0EE40AA0EF086FD2AEE800A6D4880EDCA
:10096000030A1FEDAA0A28EE000A5FEDAB0A80EE2B
:10097000201AB0EE41AAB0EE4A0A0EF081FEF1EE66
:1009800040AA1FEDB20A69EE800A1FEDB31A80EE8D
:10099000810A78EE890A30EE200AB0EE40AA0EF005
:1009A0006FFE2AEE800A5B4880ED040A1FEDBD0A47
:1009B00028EE000A5FEDBE0A80EE201AB0EE41AAD2
:1009C000B0EE4A0A0EF04EFD524880ED050A1FEDCA
:1009D000C50A69EE800A1FEDC61A80EE810A78EE1C
:1009E000890A30EE200AB0EE40AA0EF049FEB1EEC0
:1009F000400A484880ED060A1FEDD00A69EE800AD9
:100A00001FEDD11A80EE810A78EE890A30EE200AB5
:100A1000B0EE40AA0EF026FDB1EE400A3D4880ED52
:100A2000070A1FEDD70A80ED080ABDEC068B10BD42
:100A30001FEDDB0A384880ED000A1FEDDD0A80ED6E
:100A4000010A1FEDDF0A80ED020A1FEDE10A3348BB
:100A500080ED000A9FED320A80ED010A1FEDE60AE3
:100A600080ED020A9FED2F0A2F4880ED000A1FED4E
:100A7000EA0A80ED010A1FEDEC0A80ED020A9FED03
:100A80002B0A2B4880ED000A1FEDF10A80ED010AC8
:100A9000BAEE030A80ED020A9FED260A264880ED91
:100AA000070A9FED260A80ED0D0A9FED250A80EDCD
:100AB000130A9FED240A80ED190ABFEE000A80EDAB
:100AC000060ABFEE000A80ED0C0AB7EE000A80EDC0
:100AD000120ABFEE000A80ED180A00201A490881A8
:100AE000AFF66B0019494860AFF66F008860AFF64B
:100AF0006F00C860AFF673000861AFF6730048611D
:100B0000AFF677008861AFF67700C86120E000009B
:100B1000D8000020FC000020200100202C01002033
:100B2000CDCCEE4200006B433801002033F3844308
:100B3000440100208126A2BE50010020DB8A7D41B5
:100B4000423E074286380EC0B002002050220020EC
:100B5000AFF6BF000862AFF6BF004862AFF6C30051
:100B60008862AFF6C300C8629FEDFE0AFE4880EDC2
:100B7000000A9FEDFC0A80ED010A9FEDFA0A80ED64
:100B8000020AB0EE080AF94880ED000AB0EE080A41
:100B900080ED010AB0EE080A80ED020A7047F0B558
:100BA0002DED108B85B0B0EE408AF0EE608AB0EE8D
:100BB000419A04460D4616469FEDED0A28EE000ABE
:100BC000DFEDEC0A80EE201AB0EE41AAB0EE4A0A40
:100BD0000EF048FC8DED040A38EE890A8DED030A0B
:100BE0009DED030ADFEDE20A20EE200ADFEDE10AC7
:100BF00080EE201AB0EE41AAB0EE4A0A0EF032FCA6
:100C0000F0EE409A9FEDDA0A28EE000ADFEDD90AED
:100C100080EE201AB0EE41AAB0EE4A0A0EF030FD86
:100C20008DED020A9FEDD20A28EE800ADFEDD10A8F
:100C300080EE201AB0EE41AAB0EE4A0A0EF012FC85
:100C40008DED010A38EE890A8DED000A9FEDC80A84
:100C500028EE000ADFEDC70A80EE201AB0EE41AAA6
:100C6000B0EE4A0A0EF0FEFB5FED500A20EE200ABD
:100C700060EE29AA9FEDBE0A28EE000ADFEDBD0A4C
:100C800080EE201AB0EE41AAB0EE4A0A0EF0F8FC4F
:100C9000FAEE030A40EEC0AA9FEDB50A28EE000A5C
:100CA000DFEDB40A80EE201AB0EE41AAB0EE4A0A97
:100CB0000EF0D8FB5FED650A20EE20BA9FEDAC0A7E
:100CC00028EE800ADFEDAB0A80EE201AB0EE41AAD2
:100CD000B0EE4A0A0EF0C6FB4BEE00AA9FEDA40A46
:100CE00028EE000ADFEDA30A80EE201AB0EE41AA3A
:100CF000B0EE4A0A0EF0C4FC5FED770A40EEC0AADF
:100D0000C4ED00AA9FED9A0A28EE000ADFED990AC9
:100D100080EE201AB0EE41AAB0EE4A0A0EF0B0FC06
:100D20005FED7E0A20EE200A60EE29AA9FED900A70
:100D300028EE000ADFED8F0A80EE201AB0EE41AAFD
:100D4000B0EE4A0A0EF08EFBFAEE030A40EE80AADD
:100D50009FED870A28EE000ADFED860A80EE201A52
:100D6000B0EE41AAB0EE4A0A0EF08AFC5FED930A9B
:100D700020EE20BA9FED7E0A28EE800ADFED7D0A84
:100D800080EE201AB0EE41AAB0EE4A0A0EF06AFBDD
:100D90004BEE00AA9FED760A28EE000ADFED750AF9
:100DA00080EE201AB0EE41AAB0EE4A0A0EF05AFBCD
:100DB0005FEDA50A40EE80AAC5ED00AA9FED6C0A82
:100DC00028EE800A10EE101A08460FF05FFF41EC83
:100DD0001E0B9FED690B53EC102B0FF03FFB41EC0A
:100DE0001D0BB0EE4D0AF0EE6D0A0EF0E5FBB0EE15
:100DF00040CAF0EE60CA9FED620B53EC102B51EC31
:100E00001C0B0FF019FD41EC1A0B9DED000ADFEDF4
:100E1000580A20EE200ADFED570A80EE201A11EE64
:100E2000107A38460FF032FF41EC1D0BB0EE4D0A40
:100E3000F0EE6D0A0EF0C0FBB0EE40CAF0EE60CAF4
:100E40009FED510B53EC102B51EC1C0B0FF0F4FCED
:100E500041EC1B0B53EC1A2B0FF02EFE41EC1F0B39
:100E60000FF016FA3060002005B0BDEC108BF0BD1D
:100E700070B52DED028B0446B0EE408A0D4600267B
:100E800000EE104AB8EE400A04EB4400404901EB82
:100E9000C00080ED050A04EB440001EBC00080EDCA
:100EA000028A3C48007818B10120BDEC028B70BD6D
:100EB0000CB1042C01D90220F7E7B7EE000AB4EE1A
:100EC000C08AF1EE10FA01DD0320EEE71DB1012D1D
:100ED00001D00420E9E7E0B206F0B0FD0646A6B175
:100EE0004DB9D6ED480A70EE880AB0EE600AE0B25D
:100EF00008F005F90BE0D6ED480A70EEC80AB0EE2E
:100F0000600AE0B208F0FBF801E00520CDE7002020
:100F1000CBE72DE9F04706460F4690469946002458
:100F20000025012476E0204606F088FD0546C5B17F
:100F3000012C06D0022C32D0032C42D0042C64D1D8
:100F400051E095ED480A1248D0ED070A30EE600AEC
:100F5000F2EE040A20EE200AD0ED060A80EE201AF6
:100F60001AE054E0CDCCCC3DA0220020AC220020E1
:100F7000DC0F494000003443000000000080664060
:100F80000000000000606D4000000060669E70C0C0
:100F9000500100200200002086ED001A36E095ED99
:100FA000480AFE48D0ED0D0A30EE600AF2EE040A5F
:100FB00020EE200AD0ED0C0A80EE201A87ED001AF0
:100FC00024E095ED480AF548D0ED130A30EE600AAA
:100FD000F2EE040A20EE200AD0ED120A80EE201A6A
:100FE00088ED001A12E095ED480AEC48D0ED190A98
:100FF00030EE600AF2EE040A20EE200AD0ED180A64
:1010000080EE201A89ED001A00E000BF00E003E046
:10101000601CC4B2052C86DB00BF052C02D0012069
:10102000BDE8F0870020FBE730B52DED028B85B0E1
:101030000024DB480078002879D00020D8490870C7
:1010400001240EE00021204606F011FD00B906E063
:1010500004F10A00C0B205B0BDEC028B30BD601CCB
:10106000C4B2052CEEDB01240BE00021204607F082
:101070005AFD00B903E004F11400C0B2EBE7601CB4
:10108000C4B2052CF1DB01AB02AA03A904A8FFF747
:1010900040FF05461DB1C3A00CF0CAFF59E00498FB
:1010A0000FF0F4FD21F000419FEDCA0B53EC102B23
:1010B0000FF086FB02D29FEDC90A01E09DED040A04
:1010C0008DED040A03980FF0E1FD21F000419FED42
:1010D000C10B53EC102B0FF073FB02D29FEDBF0A34
:1010E00001E09DED030A8DED030A02980FF0CEFD9D
:1010F00021F000419FEDB70B53EC102B0FF060FB7C
:1011000002D29FEDB60A01E09DED020A8DED020AC2
:1011100001980FF0BBFD21F000419FEDAE0B53ECA9
:10112000102B0FF04DFB03D29FEDAC0A02E011E053
:101130009DED010A8DED010AA94A111F081FDDED81
:10114000011A9DED021ADDED030A9DED040AFFF779
:1011500026FD00BF00207EE770B52DED028B044612
:10116000B0EE408AF0EE608A0025E0B206F066FC40
:101170000546002D48D000EE104AB8EE400A04EBB8
:101180004400864901EBC00080ED050A04EB4400F1
:1011900001EBC00080ED038A04EB440001EBC000CA
:1011A00090ED030ADFED8F0A80EE201A04EB440075
:1011B00001EBC00080ED021A04EB440001EBC0001B
:1011C000C0ED048A012C06D0022C09D0032C0CD0CF
:1011D000042C14D10EE0012183480CF0E7F90EE055
:1011E000012182480CF0E2F909E0012180480CF06D
:1011F000DDF904E001217F480CF0D8F900BF00BF01
:101200000020BDEC028B70BD6420FAE710B52DED17
:101210000C8BB0EE408AF0EE608AB0EE419AF0EEB0
:10122000619AB0EE42AAF0EE62AAB0EE43BAF0EED6
:1012300063BAB2EE040AC8EE000A584890ED061AE6
:1012400090ED070A00EE810AB0EE40CAB2EE040A41
:10125000C8EE800A90ED0C1A90ED0D0A00EE810A9E
:10126000F0EE40CAB2EE040AC9EE000A90ED121A7E
:1012700090ED130A00EE810AB0EE40DAB2EE040AF5
:10128000C9EE800A90ED181A90ED190A00EE810A55
:10129000F0EE40DAF0EE4C0AB0EE4A0A0120FFF719
:1012A0005BFFF0EE6C0AB0EE6A0A0220FFF754FF13
:1012B000F0EE4D0AB0EE4B0A0320FFF74DFFF0EEC3
:1012C0006D0AB0EE6B0A0420FFF746FF0020BDEC6C
:1012D0000C8B10BD2DE9F04F2DED108B9BB0F0EE77
:1012E00040AAB0EE608AF0EE41BA80460E4617463C
:1012F00099469FED3A0A8DED190A9FED380A8DED5A
:10130000180A9FED360A8DED170A9FED340A8DED10
:10131000160A16AB17AA18A919A8FFF7FAFD8346F3
:10132000BBF1000F08D034A00CF082FE01201BB0EE
:10133000BDEC108BBDE8F08F9FED380AF0EE408ACF
:101340006AEEAA0A48EE080A48EEE80AB0EE600A19
:101350000EF05EFAB0EE40CA2CEE080A08EEEA0A79
:101360006AEEAA0A48EE080A80EE201AF0EE41EA78
:101370001EEE900A0FF08AFC21F000419FED280B31
:1013800053EC102BCDE902019DED020B51EC100B3B
:101390000FF050FB48D20220C9E7000050010020A6
:1013A0007E000020206572726F72207768696C651C
:1013B00020696E2070726F63657373696E67207049
:1013C0006F736974696F6E20746F20616E676C65EE
:1013D0000A0000007B14AE47E17A843F0000000061
:1013E0003822002000007A44000400400008004039
:1013F000001C004000200040706F736974696F6EBC
:1014000020746F20616E676C652063616C63756C1E
:10141000617465206572726F720A0000CDCCDB4288
:10142000000000000000F03FB0EE6E0A0DF084FFF7
:10143000B0EE409AB0EE490ADFEDFE0A60EE200AF7
:101440009FEDFD1A80EE810ADFEDFA0AB4EEE00AA4
:10145000F1EE10FA04DD9FEDF90A39EE400A07E0DB
:101460009FEDF40A69EE000A9FEDF31A80EE810AFF
:101470008DED120A9FEDEF0A29EE000ADFEDEE0A6C
:1014800080EE201A9FEDEB0A30EE410ADFEDE90A0B
:10149000B4EEE00AF1EE10FA10DD9FEDE60A29EE57
:1014A000000ADFEDE50A80EE201A9FEDE20A30EE39
:1014B000410ADFEDE20A30EE600A0BE09FEDDD0A43
:1014C00069EE000A9FEDDC1A80EE810ADFEDD90A91
:1014D00030EEC00A8DED130AB1EE4C0AB0EE40CAF0
:1014E0002CEE080A08EEEA0A6AEEAA0A48EE080A92
:1014F00080EE201AF0EE41EAB0EE6E0A0DF01CFF0D
:10150000B0EE409A9FEDCB0A69EE000A9FEDCA1A31
:1015100080EE810ADFEDC70AB4EEE00AF1EE10FAC0
:1015200004DD9FEDC60A39EE400A07E09FEDC10ACF
:1015300069EE000A9FEDC01A80EE810A8DED140A53
:101540009FEDBC0A29EE000ADFEDBB0A80EE201AEF
:101550009FEDB80A30EE410ADFEDB60AB4EEE00ABC
:10156000F1EE10FA10DD9FEDB30A69EE000A9FED6F
:10157000B21A80EE810ADFEDAF0A30EEC00ADFED6D
:10158000AF0A30EE600A0BE09FEDAA0A29EE000ACE
:101590009FEDA91AC0EE010A9FEDA60A30EE600A7F
:1015A0008DED150A012401259FEDA5DA00BF3FE06E
:1015B0001DEE100A0FF06AFBCDE9020111A800EB45
:1015C000840090ED000ADDED190A30EEC00A10EE3D
:1015D000101A08460FF05AFB21F00041CDE9000136
:1015E0009DED020B53EC102B9DED000B51EC100BFD
:1015F0000FF0E6F81AD2254611A800EB840090ED12
:10160000000ADDED190A30EEC00A10EE101A084685
:101610000FF03CFB21F00041CDE902019DED020BF2
:1016200051EC100B0EF034FE0DEE100A601CC4B22B
:10163000052CBDDB11A800EB850090ED00FA2AEE29
:10164000AA0A08EE080A08EEE80AB5EEC00AF1EEAA
:1016500010FA01D203206AE6012D01D0022D0CD12F
:101660006AEEAA0A48EE080A48EEE80AB0EE600AF6
:101670000EF0CEF8B0EE40CA0DE06AEEAA0A48EECF
:10168000080A48EEE80AB0EE600A0EF0C1F8B1EEC2
:10169000400AB0EE40CA88ED00FA2AEEAA0A08EE27
:1016A000080A0BEEAB0A08EEE80ADFED660A30EE38
:1016B000600ADFED650A30EE600AB0EE001AC0EE97
:1016C000010A9FED621A80EE810A9FED611AC0EE59
:1016D000010A10EE90AA50460FF0D8FA21F000410E
:1016E0001FEDB10B53EC102BCDE902019DED020B68
:1016F00051EC100B0FF09EF901D2042017E62AEEF0
:10170000AA0A08EE080A0BEEAB0A08EEE80ADFEDBB
:101710004D0A30EE600ADFED4C0A70EE600AB0EE62
:10172000001A80EE810A9FED491AC0EE010A9FED72
:10173000480A80EE801AF0EE41FAB0EE6F0A0DF022
:101740006FFDB0EE40BAB0EE4B0ADFED3A0A20EE84
:10175000200ADFED390A80EE201A8DED0F1AB0EE67
:101760004B0ADFED340A60EE200A9FED331A80EE5B
:10177000810ADFED300A30EE200ADFED2E0AB4EEEA
:10178000E00AF1EE10FA0ADD9FED2A0A2BEE000ABC
:10179000DFED290A80EE201AB1EE410A0BE09FED41
:1017A000250A6BEE000A9FED241A80EE810ADFED18
:1017B000210A30EE200A8DED100ADDED100A9DEDB4
:1017C000170A30EE600A10EE101A08460FF05EFAA3
:1017D00021F00041CDE902019DED0F0ADDED170A70
:1017E00030EEC00A10EE101A08460FF04FFA21F042
:1017F0000041CDE900019DED020B53EC102B9DED56
:10180000000B51EC100B0EF0DBFF02D29DED0F0A26
:1018100001E09DED100AB0EE40BA87ED00BA9FEDF1
:10182000060A2BEE000ADFED030A80EE201A8DED8A
:10183000031A0FE000003443DC0F49400000B443BA
:101840000000B94300B9574767178A4700006B4348
:1018500033F384439DED030A0DF004FEDFEDFB0A34
:101860009FEDFB1A41EE000AF0EE60FAB0EE6F0A4F
:101870000DF0CEFFF0EE40CA8CEE2C0A10EE10AA4E
:1018800050460FF003FA21F000419FEDF20B53ECAC
:10189000102BCDE902019DED020B51EC100B0FF066
:1018A000C9F829D31FED1C0A2BEE000A5FED1F0AB1
:1018B00080EE201AF0EE41FAB0EE6F0A0DF0D2FD84
:1018C0005FED1E0A1FED1E1A41EE000A80EEAC0A03
:1018D00010EE10AA50460FF0D9F921F000419FED0B
:1018E000DD0B53EC102BCDE902019DED020B51EC09
:1018F000100B0FF09FF801D2052018E58CEE2C0A92
:10190000F0EE40FA0DF08CFCB0EE40AA1FED360A66
:101910002BEE000A5FED390A80EE201AF0EE41FA54
:10192000B0EE6F0A0DF09EFD5FED380A1FED381A1C
:1019300041EE000A80EEAC0A8DED030A9DED030A2C
:101940000DF06EFCF0EE409AB0EE690A3AEE400AF5
:101950005FED470AB4EEE00AF1EE10FA06DD3AEE6A
:10196000690ADFEDBE0A30EE600A01E03AEE690A6C
:101970008DED0A0A3AEE290A5FED510AB4EEE00A4B
:10198000F1EE10FA06DD3AEE290ADFEDB40A30EE88
:10199000600A01E03AEE290A8DED0B0AB1EE4A0A1F
:1019A00030EE690A5FED5C0AB4EEE00AF1EE10FA7F
:1019B00008DDB1EE4A0A30EE690ADFEDA80A30EE22
:1019C000600A03E0B1EE4A0A30EE690A8DED0C0AB6
:1019D000B1EE4A0A30EE290A5FED690AB4EEE00A78
:1019E000F1EE10FA08DDB1EE4A0A30EE290ADFED19
:1019F0009B0A30EE600A03E0B1EE4A0A30EE290A93
:101A00008DED0D0A5FED72DA01244FE01DEE900AB4
:101A10000FF03CF9CDE9020109A800EB840090ED3C
:101A2000000A5FED7C0A60EE200A1FED7D1A80EE51
:101A3000810ADDED180A30EEC00A10EE10AA5046F9
:101A40000FF024F921F00041CDE900019DED020BDA
:101A500053EC102B9DED000B51EC100B0EF0B0FE73
:101A600022D2254609A800EB840090ED000A5FED24
:101A70008F0A20EE201A5FED900A81EE200ADDED3C
:101A8000180A30EEC00A10EE10AA50460FF0FEF809
:101A900021F00041CDE902019DED020B51EC100B4C
:101AA0000EF0F6FB0DEE900A601CC4B2052CADDB07
:101AB00009A800EB850090ED000A5FEDA20A20EE78
:101AC000200A5FEDA30A80EE201A86ED001A96ED3B
:101AD000000ADFED630A30EEC00AD7ED000A30EEEF
:101AE000600A8DED050A96ED000A5FEDAE0A30EE54
:101AF000C00AD7ED000A30EE600A8DED060A96EDB9
:101B0000000A5FEDB20A30EEC00AD7ED000A30EEEF
:101B1000600A8DED070A1FEDB6EA01243FE01EEED4
:101B2000100A0FF0B3F8CDE9020104A800EB84001D
:101B300090ED000ADDED160A30EEC00A10EE101A24
:101B400008460FF0A3F821F00041CDE900019DED1A
:101B5000020B53EC102B9DED000B51EC100B0EF013
:101B60002FFE1AD2254604A800EB840090ED000A4F
:101B7000DDED160A30EEC00A10EE101A08460FF01E
:101B800085F821F00041CDE902019DED020B51ECF9
:101B9000100B0EF07DFB0EEE100A601CC4B2042C7C
:101BA000BDDB04A800EB850090ED000A89ED000A7A
:101BB00000BF00204FE52DE9F04792B02948408949
:101BC000052806D006287CD007287BD008287AD1A3
:101BD000CFE2342105A80CF005FBFF208DF814009E
:101BE0008DF8150000208DF816001E480079401F62
:101BF00000EB80000930C0B28DF817001948008949
:101C000000128DF818001748007A8DF81900052089
:101C10008DF81A000DF11B044FF000081148067BE7
:101C2000002505E006F0010008B1681CC5B2761079
:101C3000002EF7DC0B488088401FA84214D0AFF676
:101C40002C000CF0F5F912B0BDE8F087E7F3F5478A
:101C50008016F447000000000000F03FDC0FC94090
:101C600000000000B00200200025FD48067B04AB08
:101C700003AA02A901A8FFF74CF9A84654E007E01F
:101C800006F0010018B1681CC5B2761002E07610AB
:101C9000002EF5DC00BF04F8015B684600EB850010
:101CA00090ED000ADFEDEF0A20EE200ABDEEC00A3B
:101CB00010EE100A000E04F8010B684600EB8500D8
:101CC00002E058E02EE153E290ED000ADFEDE50A74
:101CD00020EE200ABDEEC00A10EE100A000C04F837
:101CE000010B684600EB850090ED000ADFEDDD0A90
:101CF00020EE200ABDEEC00A10EE100A000A04F819
:101D0000010B684600EB850090ED000ADFEDD50A77
:101D100020EE200ABDEEC00A10EE100A04F8010BF6
:101D200008F1010000F0FF08CD488088401F4045C1
:101D3000A5DCCB488088401F00EB8000401D81B2AD
:101D40000DF11600FEF7DCFA0746380E04F8010B19
:101D5000380C04F8010B380A04F8010B04F8017B75
:101D6000BF488088401F00EB80000B3081B205A87F
:101D700009F001FB94E2342105A80CF033FAFF20AE
:101D80008DF814008DF8150000208DF81600B44869
:101D90000079401F00EB80000930C0B28DF81700B9
:101DA000AF48008900128DF81800AD48007A8DF810
:101DB000190006208DF81A000DF11B044FF0000ADF
:101DC000A748067B002505E006F0010008B1681C65
:101DD000C5B27610002EF7DCA1488088401FA842CB
:101DE00004D0AFF6D0100CF023F92CE700259C4866
:101DF000067BA846A9464FF0010815E0404605F0CD
:101E00001DFE8146B9F1000F0AD099ED470AF1EEA7
:101E1000080A80EE201A684600EB880080ED001A60
:101E200008F1010000F0FF08B8F1050FE6DB4FF004
:101E3000000A50E007E006F0010018B1681CC5B2C6
:101E4000761002E07610002EF5DC00BF04F8015B8E
:101E5000684600EB850090ED000ADFED820A20EE77
:101E6000200ABDEEC00A10EE100A000E04F8010BA5
:101E7000684600EB850090ED000ADFED7A0A20EE5F
:101E8000200ABDEEC00A10EE100A000C04F8010B87
:101E9000684600EB850090ED000ADFED720A20EE47
:101EA000200ABDEEC00A10EE100A000A04F8010B69
:101EB000684600EB850090ED000ADFED6A0A20EE2F
:101EC000200ABDEEC00A10EE100A04F8010B0AF158
:101ED000010000F0FF0A62488088401F5045A9DCDD
:101EE0005F488088401F00EB8000401D81B20DF1EB
:101EF0001600FEF705FA0746380E04F8010B380CF9
:101F000004F8010B380A04F8010B04F8017B54486B
:101F10008088401F00EB80000B3081B205A809F0DB
:101F20002AFABDE1342105A80CF05CF9FF208DF8F8
:101F300014008DF8150000208DF8160021208DF872
:101F400017004748008900128DF818004448007AAD
:101F50008DF8190007208DF81A000DF11B041421CB
:101F600068460CF03FF904AB03AA02A901A8FEF7EA
:101F7000D0FF002004F8010B04F8010B04F8010B5A
:101F800004F8010B9DED020ADDED030A30EE200A94
:101F9000DDED040A30EE200ADFED320A20EE200AE1
:101FA000BDEEC00A10EE105A280E04F8010B280CE2
:101FB00004F8010B280A04F8010B04F8015B9DEDFD
:101FC000010ADFED280A20EE200ABDEEC00A10EE5D
:101FD000106A300E04F8010B300C04F8010B300AC3
:101FE00004F8010B04F8016B1F4890ED000ADFEDC7
:101FF0001F0A20EE200ABDEEC00A10EE100A000EE5
:1020000004F8010B184890ED000ADFED180A20EEE5
:10201000200ABDEEC00A10EE100A000C04F8010BF5
:10202000114890ED000ADFED110A20EE200ABDEE06
:10203000C00A10EE100A000A04F8010B0A4890EDDD
:10204000000ADFED0A0A20EE200ABDEEC00A10EEFB
:10205000100A04F8010B044890ED010A08E00000A2
:10206000B002002000401C46302200200000C84280
:102070005FED020A20EE200ABDEEC00A10EE100A43
:10208000000E04F8010BFE4890ED010A5FED090A0D
:1020900020EE200ABDEEC00A10EE100A000C04F873
:1020A000010BF74890ED010A5FED100A20EE200ABF
:1020B000BDEEC00A10EE100A000A04F8010BF04849
:1020C00090ED010A5FED170A20EE200ABDEEC00A6E
:1020D00010EE100A04F8010BE94890ED020A5FEDDA
:1020E0001D0A20EE200ABDEEC00A10EE100A000EF6
:1020F00004F8010BE24890ED020A5FED240A20EE9D
:10210000200ABDEEC00A10EE100A000C04F8010B04
:10211000DB4890ED020A5FED2B0A20EE200ABDEEAF
:10212000C00A10EE100A000A04F8010BD44890ED22
:10213000020A5FED320A20EE200ABDEEC00A10EE60
:10214000100A04F8010B1D210DF11600FEF7D8F856
:102150000746380E04F8010B380C04F8010B380A56
:1021600004F8010B04F8017B232105A809F003F909
:1021700096E0342105A80CF035F8FF208DF8140006
:102180008DF8150000208DF81600BE480079001D5E
:10219000C0B28DF81700BB48008900128DF81800F6
:1021A000B848007A8DF8190008208DF81A000DF152
:1021B0001B044FF0000AB348057B002705E005F03B
:1021C000010008B1781CC7B26D10002DF7DCAD48D6
:1021D0008088401FB84204D0AFF6C8500BF028FFEB
:1021E00031E50027A748057BB846B9464FF00108FE
:1021F00015E0404605F022FC8146B9F1000F0AD0F7
:10220000B9F8080100EE100AB8EE400A684600EB83
:10221000880080ED000A08F1010000F0FF08B8F125
:10222000050FE6DB4FF0000A1AE007E005F00100B9
:1022300018B1781CC7B26D1002E06D10002DF5DCEE
:1022400000BF684600EB870090ED000ABDEEC00AB3
:1022500010EE100A04F8010B0AF1010000F0FF0A69
:1022600088488088401F5045DFDC8648808881B2DE
:102270000DF11600FEF744F80646300E04F8010B87
:10228000300C04F8010B300A04F8010B04F8016B60
:102290007C488088801D81B205A809F06CF800BFD9
:1022A00000BF00BFCFE410B586B0142101A80BF029
:1022B00099FFFF208DF804008DF8050000208DF8AF
:1022C00006000B208DF807006E48008900128DF87B
:1022D00008006C48007A8DF809006A484088032895
:1022E00003D100208DF80A0003E06648807A8DF85B
:1022F0000A0001208DF80B0000208DF80C0007214A
:102300000DF10600FDF7FCFF0446200E8DF80D00D0
:10231000200C8DF80E00200A8DF80F00E0B28DF829
:1023200010000D2101A809F026F806B010BD00B577
:10233000BFB020E0544800680078FF2806D152481A
:10234000006840680078FF2800D115E04E4800681A
:102350004E490968884202D101203FB000BD0020EB
:102360004949096808704849096848704648006842
:10237000406845490860DDE700BF434800680078D1
:10238000FF287BD14048006840680078FF28F8D1DA
:1023900001203C490870002025903B4909680870DD
:1023A0003949096848703848006841683648016012
:1023B00000210068017000203349096848703248E4
:1023C000006840683049086015E000202190022034
:1023D00008F0E0FE2199481C219028290ADD002000
:1023E00029490968487028480068406826490860FB
:1023F0000220B2E700BF2448006840780028E4D0FB
:102400002148006802782598411CC9B2259126A967
:102410000A5400201C49096848701B48006840683D
:102420001949086015E000202190022008F0B2FE52
:102430002199481C219028290ADD002012490968A9
:1024400048701148006840680F490860022084E71E
:1024500000BF0D48006840780028E4D00A480068B2
:1024600002782598411CC9B2259126A90A5400205A
:102470000549096848700448006809E0F0E3000075
:1024800030220020B0020020200000202400002084
:102490004168FE4801609DF899009DF8981040EA57
:1024A00001202490249806280DDA0020F7490968B5
:1024B0004870F64800684168F4480160F4A00BF0E9
:1024C000B7FD032049E72EE00020219013E0022011
:1024D00008F060FE2198411C89B221913C280ADD58
:1024E0000020EA4909684870E84800684068E74900
:1024F0000860022031E7E548006840780028E6D00F
:10250000E2480068017826AA259811540021DF4886
:1025100000684170DD4800684068DC490860259823
:10252000401CC0B22590DDE924108842CCDB249801
:10253000001F80B20146219026A8FDF7E1FE2390FE
:10254000D8A023990BF074FD2498001F26A9085CDD
:1025500001062498C01E26AA105C41EA0041249876
:10256000801E105C41EA00212498401E105C084344
:102570002290DDE92210884204D0CEA00BF058FD55
:102580000420EAE60020CE4908702498001F81B29A
:10259000CB4881809DF89A0040EA0021C84801811B
:1025A0009DF89C00C649488108464089012803DB04
:1025B0000846408904280FDDC14840890A280BD00D
:1025C000BF4840890B2807D0BD4840890C2803D05C
:1025D000BB4840890D287DD1B948408901462190EA
:1025E000B8A00BF025FD0320B54948800020888164
:1025F000084640890E2848D2DFE810F04700020163
:102600003101F901790447004700470047004700BE
:102610000E0048007800C6000DF19D0021900020BA
:102620002090209024E021980078012819D1A44816
:102630008089012220998A401043A14988812098ED
:10264000401C04280DDC2098401CC0B21F9006F0EE
:1026500002FC2098401CC0B2012206211F9006F007
:10266000B4FC2198401C21902098401CC0B22090BE
:1026700093488088401F20998842D4DC9048808904
:102680000F2802DD98A00BF0D3FCFDE30DF19D00B7
:10269000219000202090FF208949888100202090EF
:1026A0001DE02198007888B985488089002220990A
:1026B0008A401040824988812098401C042805DC0B
:1026C0002098401CC0B21F9006F037FC2198401C97
:1026D000219000E0FDE32098401CC0B22090784893
:1026E0008088401F20998842DBDCCEE70DF19D00F9
:1026F000219000202090FF207149888100202090A7
:102700003BE02198007888BB6D48808900222099A1
:102710008A4010406A4988812098401C042825DCA2
:102720002098401CC0B29FED7E0A1F9007F027F949
:102730002098401CC0B2012206211F9006F045FCE3
:10274000002178480AF032FF774890ED000A5C4893
:1027500080ED080A744890ED010A594880ED090A95
:10276000714890ED020A564880ED0A0A2198401CF3
:1027700021902098401CC0B2209051488088401F72
:1027800020998842BDDC80E79DF89D00219021982A
:10279000042803DD65A00BF04BFC30E067A00BF0D4
:1027A00047FC002020909DF89E0000069DF89F1099
:1027B00040EA01409DF8A01040EA01209DF8A110D8
:1027C0000843209000201F90219805F037F91F90B2
:1027D0001F9898B19DED200AF8EEC00A9FED5D1A92
:1027E00080EE810A1F98D0ED480A30EE200A8DED68
:1027F0001E0A9DED1E0A219806F081FC00BF43E3EE
:102800009DF89D0021902198042803DD47A00BF03E
:102810000FFC23E050A00BF00BFC002020909DF853
:102820009E0001069DF89F0041EA00419DF8A0002E
:1028300041EA00209DF8A110084320909DED200A58
:10284000F8EEC00A9FED431A80EE810A8DED1F0A53
:102850009DED1F0A219806F052FC00BF14E343A02F
:102860000BF0E6FB002021909DF89E0000069DF8ED
:102870009F1040EA01419DF8A00041EA00209DF828
:10288000A110084321909DF89D0079E020000020D0
:1028900064617461206C656E677468206572726F24
:1028A000720A000043524320726573756C742020D5
:1028B00025780A00637263206572726F720A0000E5
:1028C000B0020020636F6E74726F6C206672616D6F
:1028D000652C2066756E6374696F6E20636F646526
:1028E000202025640A0000007761726E696E6720FF
:1028F000746F6F206D756368206D6F746F722C201C
:10290000656E61626C65203120746F2034206D6FBC
:10291000746F7220616C72656164790A0000000056
:102920000000000000100040302200206D6F746F26
:1029300072206964206572726F720A00616273208E
:10294000706F736974696F6E2C20636D6431330A24
:102950000000000000401C4661627320706F7369C4
:1029600074696F6E2C20636D64310A00636D64209E
:10297000322C20737065656420636D640A0000006A
:1029800020902098012831DB209804282EDC012299
:102990000221209806F019FB9DED210AF8EEC00AED
:1029A0001FED141A80EE810A8DED1F0A1F980EF09C
:1029B0006DF921F000419FEDFE0B53EC102BCDE99A
:1029C0001C019DED1C0B51EC100B0DF0F9FE0CD20F
:1029D0009DED1F0AF1EE080A20EE200A8DED1E0A79
:1029E0009DED1E0A209806F0CAFF00BF73E3F2A017
:1029F0000BF01EFB9DF89E0001069DF89F0041EA2A
:102A000000409DF8A01040EA01209DF8A110084365
:102A100021909DED210AF8EEC00A9FEDEF1A80EE9D
:102A2000810A8DED200A9DF89D001F901F980628B1
:102A30005DD2DFE800F0035DB7FCFBFA0021E74858
:102A40000AF0B4FDE64890ED000AE64880ED080A79
:102A500020980EF01BF921F00041CDE91A01E04861
:102A6000406817900EF012F9CDE918019DED1A0B90
:102A700053EC102B9DED180B51EC100B0DF03AFCA4
:102A8000CDE91C019DED1C0B51EC100B0DF000FC71
:102A9000D4494862D24890ED020A084680ED0A0AFD
:102AA000806A17900EF0F2F8CDE91C01CD48406A1B
:102AB00017900EF0EBF8CDE91A01CA48006A17909A
:102AC0000EF0E4F8CDE91801DDE91C01CDE90201C1
:102AD000DDE91A01CDE900019DED180B53EC102B37
:102AE000C1A00BF0A5FA0121BC480AF05FFDFCE192
:102AF0000021BA480AF05AFDB94890ED000AB948D9
:102B000080ED080A20980EF0C1F821F00041CDE9CF
:102B10001A01B348406817900EF0B8F8CDE91801D3
:102B20009DED1A0B53EC102B9DED180B51EC100B77
:102B30000DF0C2FFCDE91C019DED1C0B51EC100BFB
:102B40000DF0A6FBA7494862A54890ED020A084689
:102B500080ED0A0A806A17900EF098F8CDE91C0102
:102B6000A048406A17900EF091F8CDE91A019D48EF
:102B7000006A17900EF08AF8CDE91801DDE91C0112
:102B8000CDE90201DDE91A01CDE900019DED180B47
:102B900053EC102B94A00BF04BFA01218F480AF054
:102BA00005FDA2E100218D480AF000FD20980EF0FD
:102BB0006DF821F00041CDE91A01894800681790AD
:102BC0000EF064F8CDE918019DED1A0B53EC102BB3
:102BD0009DED180B51EC100B0DF06EFFCDE91C01B3
:102BE0009DED1C0B51EC100B0DF052FB7D49086262
:102BF0007B4890ED010A084680ED090A784890ED7F
:102C0000020A084680ED0A0A806A17900EF03EF824
:102C1000CDE91C017348406A17900EF037F8CDE9F2
:102C20001A017048006A179002E0FEE073E018E0B5
:102C30000EF02CF8CDE91801DDE91C01CDE9020107
:102C4000DDE91A01CDE900019DED180B53EC102BC5
:102C500065A00BF0EDF9012160480AF0A7FC44E102
:102C60008FE200215D480AF0A1FC20980EF00EF8DA
:102C700021F00041CDE91A015948006817900EF083
:102C800005F8CDE918019DED1A0B53EC102B9DEDC5
:102C9000180B51EC100B0DF02DFBCDE91C019DED37
:102CA0001C0B51EC100B0DF0F3FA4E4908624C4826
:102CB00090ED010A084680ED090A494890ED020AA4
:102CC000084680ED0A0A806A17900DF0DFFFCDE913
:102CD0001C014448406A17900DF0D8FFCDE91A0155
:102CE0004048006A17900DF0D1FFCDE91801DDE9E9
:102CF0001C01CDE90201DDE91A01CDE900019DEDDC
:102D0000180B53EC102B38A00BF092F9012133482B
:102D10000AF04CFCE9E0002130480AF047FC30485A
:102D200090ED000A2F4880ED080A2D4890ED010A29
:102D30002C4880ED090A20980DF0A8FF21F00041F1
:102D4000CDE91A012648806817900DF09FFFCDE964
:102D500018019DED1A0B53EC102B9DED180B51EC47
:102D6000100B0DF0C7FACDE91C019DED1C0B51ECC9
:102D7000100B0DF08DFA1B4988620846806A179087
:102D80000DF084FFCDE91C011648406A17900DF044
:102D90007DFFCDE91A011348006A17900DF076FF08
:102DA000CDE91801DDE91C01CDE902012CE00000AC
:102DB0000000000000002440636D6420332C20726A
:102DC000656C617469766520706F736974696F6E84
:102DD00020636D640A0000000000C842001000403B
:102DE00030220020B0020020746172676574207088
:102DF0006F736974696F6E2069732025662C2025B6
:102E0000662C2025660A0000DDE91A01CDE90001E3
:102E10009DED180B53EC102BAFF234000BF008F9BA
:102E20000121F1480AF0C2FB5FE00021EE480AF000
:102E3000BDFBEE4890ED000AED4880ED080AEB4836
:102E400090ED010AEA4880ED090A20980DF01EFF76
:102E500021F00041CDE91A01E448806817900DF097
:102E600015FFCDE918019DED1A0B53EC102B9DEDCC
:102E7000180B51EC100B0DF01FFECDE91C019DED60
:102E80001C0B51EC100B00E025E10DF001FAD849C4
:102E900088620846806A17900DF0F8FECDE91C01A3
:102EA000D348406A17900DF0F1FECDE91A01D048E1
:102EB000006A17900DF0EAFECDE91801DDE91C016A
:102EC000CDE90201DDE91A01CDE900019DED180B04
:102ED00000E001E153EC102BAFF2F4000BF0A8F886
:102EE0000121C1480AF062FB00BF00BFF3E0C1A0AE
:102EF0000BF09EF80021BC480AF058FB9DF89D009D
:102F000000069DF89E1040EA01409DF89F1040EA9F
:102F100001209DF8A010084321909DF8A100000613
:102F20009DF8A21040EA01409DF8A31040EA01205C
:102F30009DF8A410084320909DF8A50000069DF878
:102F4000A61040EA01409DF8A71040EA01209DF834
:102F5000A81008431F909DF8A90000069DF8AA102C
:102F600040EA01409DF8AB1040EA01209DF8AC100A
:102F700008431E909DF8AD0001069DF8AE0041EAA1
:102F800000409DF8AF1040EA01209DF8B0100843C2
:102F90001D909DF8B10001069DF8B20041EA004085
:102FA0009DF8B31040EA01209DF8B41008431C902E
:102FB0009DED210AF8EEC00A9FED941A80EE810A79
:102FC0008DED1B0A9DED200AF8EEC00A9FED8F1AC9
:102FD00080EE810A8DED1A0A9DED1F0AF8EEC00AF7
:102FE0009FED8A1A80EE810A8DED190A9DED1E0A69
:102FF000B8EEC01A5FED880A81EE200A8DED180A3E
:103000009DED1D0AF8EEC00A1FED8D1A80EE810AB3
:103010008DED170A9DED1C0AF8EEC00A1FED921AFD
:1030200080EE810A8DED160A9DED180A704880ED3C
:10303000080A9DED170A80ED090A9DED160A80ED3C
:103040000A0A9DED1B0A80ED050A9DED1A0A80ED26
:10305000060A9DED190A80ED070A16980DF016FE76
:10306000CDE9140117980DF011FECDE91201189861
:103070000DF00CFECDE9100119980DF007FECDE919
:103080000E011A980DF002FECDE90C011B980DF00F
:10309000FDFDCDE90A01DDE91401CDE90801DDE915
:1030A0001201CDE90601DDE91001CDE90401DDE9F8
:1030B0000E01CDE90201DDE90C01CDE900019DED34
:1030C0000A0B53EC102B52A00AF0B2FF0121464824
:1030D0000AF06CFA00BF00BF45484089052832DB82
:1030E0004348408908282EDC4148408901461F900A
:1030F0004DA00AF09DFF0DF19D0021900020209031
:1031000000213B4881810020209010E038488089D0
:1031100021990978491E01228A4010433449888147
:103120002198401C21902098401CC0B2209030482B
:103130008088401F20998842E8DC01202C49488083
:10314000FEF739FD00BF2A484089092809D12848DF
:103150004089014621903CA00AF06AFF02202449E0
:1031600048802498062809D12148408901462190A9
:103170003DA00AF05DFF00201D4948800020FFF7B8
:10318000ECB8002041490968087040490968487056
:103190003E48006840683D4908600020EFE710B5F0
:1031A0003BA00AF045FF43A00AF042FF4AA00AF004
:1031B0003FFF52A00AF03CFF5AA00AF039FF62A07C
:1031C0000AF036FF68A00AF033FF6FA00AF030FF64
:1031D00074A00AF02DFF10BD11B59DB01D983328C5
:1031E00083F0D681ECE00000001000403022002087
:1031F000B0020020636D64342C2061627320706F14
:10320000736974696F6E20636D640A0000401C4628
:1032100025662C2025662C2025662C2025662C2052
:1032200025662C2025660A0072656164206672613D
:103230006D652C2066756E6374696F6E20636F64B4
:1032400065202025640A0000736574206672616D34
:10325000652C2066756E6374696F6E20636F64659C
:10326000202025640A00000068656172746265614F
:1032700074206672616D652C2066756E6374696F6B
:103280006E20636F6465202025640A002000002002
:103290000D0ABBB6D3ADCAB9D3C320494E4E464F73
:1032A000532053434120C7FDB6AFB2E2CAD4A3A115
:1032B0000D0A0000CFEACFB8CDA8D0C5D0ADD2E975
:1032C000B2CEBCFB20494E4E464F532057494B4986
:1032D00020A3A10D0A000000B7A2CBCD203120C24F
:1032E000D6D1AFD7DCCFDFC9CFB5C4D6B4D0D0C626
:1032F000F7494420A3A10D0A00000000B7A2CBCDDE
:10330000203220CAB9D3C3C4ACC8CF4944B3F5CA2C
:10331000BCBBAF534341BFD8D6C6C6F720A3A10D4F
:103320000A000000B7A2CBCD203320BDF8C8EBCEF9
:10333000BBD6C3B9E9C1E3B2E2CAD4B3CCD0F22060
:10334000A3A10D0A00000000B7A2CBCD203420BD00
:10335000F8C8EBD5FDB7B4D7AAB2E2CAD4B3CCD083
:10336000F220A3A10D0A0000B7A2CBCD203520BDCD
:10337000F8C8EBB8DFB5CDCBD9B2E2CAD4B3CCD064
:10338000F220A3A10D0A0000B7A2CBCD203620BDAC
:10339000ABD6B4D0D0C6F7B9D8BBFA20A3A10D0ADA
:1033A00000000000B7A2CBCD203720CFD4CABEB0DA
:1033B000EFD6FAD0C5CFA220A3A10D0A00000000CD
:1033C000DFE810F0E61833003D004A0051005800D5
:1033D0005F00E618E618E618680074007A009200AC
:1033E000AA00AB00B200B900C000C700CE00D500F3
:1033F000DC00E300EB00F300060119012C013F01A2
:103400005201650178018B019E01B101C401920254
:10341000640368045505C4078909950B6C0D440FB6
:103420000B11F512CA14DD14E616D2A00AF000FE44
:1034300004F0BAF9D4A00AF0FBFD03F0ACB8D6A0B2
:103440000AF0F6FD04F0BCF94FF4FA7007F0EAFE5A
:10345000D5A00AF0EDFDF0E7D8A00AF0E9FDDDA067
:103460000AF0E6FDE9E7E1A00AF0E2FDE6A00AF0D5
:10347000DFFDE2E7EAA00AF0DBFDF0A00AF0D8FDEC
:10348000DBE7F4A00AF0D4FD05F08EFDF6A00AF00B
:10349000CFFDD2E7F9A00AF0CBFD04F085F904F0E6
:1034A0008FF94FF47A7007F0BDFEC6E7F6A00AF078
:1034B000BFFD05F079FDC0E7F6A00AF0B9FD0122D5
:1034C0000621104605F081FD01220621022005F0AB
:1034D0007CFD01220621032005F077FD0122062153
:1034E000042005F072FDA8E7F3A00AF0A1FD012277
:1034F0000321104605F069FD01220321022005F099
:1035000064FD01220321084605F05FFD012203212D
:10351000042005F05AFD90E78FE700219FEDEE0AA9
:103520000420FDF7A5FC88E701219FEDEB0A0420AC
:10353000FDF79EFC81E700219FEDE70A0320FDF7E0
:1035400097FC7AE701219FEDE40A0320FDF790FC48
:1035500073E700219FEDE00A0220FDF789FC6CE78C
:1035600001219FEDDD0A0220FDF782FC65E70021C5
:103570009FEDD90A0120FDF77BFC5EE701219FED5D
:10358000D60A0846FDF774FC57E7DFEDD40A9FED35
:10359000D40A0420FDF7E0FD4FE7DFEDD20A9FEDEE
:1035A000D00A0420FDF7D8FD47E7DFEDCE3A9FEDC6
:1035B000CD3ADFEDCC2AB2EE042ADFEDCA1A9FED38
:1035C000C91ADFEDC80AB2EE040AFDF71FFE34E7A0
:1035D000DFEDC43A9FEDC33ADFEDC22AB2EE042A12
:1035E000DFEDC01A9FEDBF1ADFEDBE0A9FEDBD0AE9
:1035F000FDF70CFE21E7DFEDBB3A9FEDBA3ADFEDB8
:10360000B92AB2EE042ADFEDB71A9FEDB61ADFED44
:10361000B50ABAEE040AFDF7F9FD0EE7DFEDB13A9F
:103620009FEDB03AF2EE042A9FEDAE2ADFEDAD1A1F
:103630009FEDAC1AF2EE040A9FEDAA0AFDF7E6FD33
:10364000FBE6DFEDA83A9FEDA73AF2EE042A9FEDE4
:10365000A52ADFEDA41A9FEDA31ADFEDA20A9FEDC4
:10366000A10AFDF7D3FDE8E6DFED9E3A9FED9D3A16
:10367000F2EE042A9FED9B2ADFED9A1A9FED991A2C
:10368000FAEE040A9FED970AFDF7C0FDD5E6DFEDDF
:10369000953AB2EE043ADFED932A9FED922ADFEDE0
:1036A000911AB2EE041ADFED8F0A9FED8E0AFDF734
:1036B000ADFDC2E6DFED8B3AB2EE043ADFED892ACA
:1036C0009FED882ADFED871A9FED861ADFED850AC8
:1036D0009FED840AFDF79AFDAFE6DFED823AB2EE88
:1036E000043ADFED802A9FED7F2ADFED7E1ABAEEE5
:1036F000041ADFED7C0A9FED7B0AFDF787FD9CE64F
:10370000F2EE043A9FED773ADFED762A9FED752AC7
:10371000F2EE041A9FED731ADFED720A9FED710A43
:10372000FDF774FD89E6F2EE043A9FED6E3ADFEDA7
:103730006D2A9FED6C2ADFED6B1A9FED6A1ADFEDA3
:10374000690A9FED680AFDF761FD76E6F2EE043A3C
:103750009FED643ADFED632A9FED622AFAEE041AC8
:103760009FED601ADFED5F0A9FED5E0AFDF74EFDEB
:1037700063E600000D0AD6B4D0D0C2D6D1AFB3CC28
:10378000D0F2A3A10D0A0000C2D6D1AFBDE1CAF8A4
:10379000A3A10D0A000000000D0A534341B3F5CA6E
:1037A000BCBBAFA3A10D0A00534341B3F5CABCBBD8
:1037B000AFBDE1CAF8A3A10D0A0000000D0ABDF8D3
:1037C000C8EBCEBBD6C3B9E9C1E3B2E2CAD4A3A168
:1037D0000D0A0000CEBBD6C3B9E9C1E3B2E2CAD438
:1037E000BDE1CAF8A3A10D0A000000000D0ABDF852
:1037F000C8EBD5FDB7B4D7AAC7D0BBBBB2E2CAD419
:10380000A3A10D0A00000000D5FDB7B4D7AAC7D008
:10381000BBBBB2E2CAD4BDE1CAF8A3A10D0A000045
:103820000D0ABDF8C8EBB8DFB5CDCBD9C7D0BBBB4F
:10383000B2E2CAD4A3A10D0A00000000B8DFB5CDE2
:10384000CBD9C7D0BBBBB2E2CAD4BDE1CAF8A3A1F1
:103850000D0A00000D0AD6B4D0D0C6F7B9D8BBFA0D
:10386000A3A10D0A00000000D6B4D0D0C6F7B9D885
:10387000BBFABDE1CAF8A3A10D0A0000737461721E
:103880007420616C6C200A00636C6F736520616C3E
:103890006C200A007772697465206D6F746F7220F6
:1038A000746F20706F736974696F6E2053206D6F31
:1038B0006465200A000000007772697465206D6FEE
:1038C000746F7220746F20706F736974696F6E20EB
:1038D0006D6F6465200A0000CDCCCC3D0000104225
:1038E0000000C8420000000018AB19AA1AA91BA8C2
:1038F000FDF70FFB1790179818B1EC480AF098FBEA
:10390000C3E01B980DF0C2F921F000419FEDE80BD8
:1039100053EC102BCDE912019DED120B51EC100B65
:103920000CF04EFF02D21FED110A01E09DED1B0AC3
:103930008DED1B0A1A980DF0A9F921F000419FEDB9
:10394000DC0B53EC102BCDE912019DED120B51EC69
:10395000100B0CF035FF02D21FED1E0A01E09DEDA9
:103960001A0A8DED1A0A19980DF090F921F000410C
:103970009FEDCF0B53EC102BCDE912019DED120BF7
:1039800051EC100B0CF01CFF02D21FED2A0A01E0D3
:103990009DED190A8DED190A18980DF077F921F0AF
:1039A00000419FEDC30B53EC102BCDE912019DEDAF
:1039B000120B51EC100B0CF003FF02D21FED370A73
:1039C00001E09DED180A8DED180A1FED3A0A8DED04
:1039D000160A1FED3C0A8DED150A1FED3E0A8DED0E
:1039E000140A18980DF052F9CDE9120119980DF04A
:1039F0004DF9CDE910011A980DF048F9CDE90E0105
:103A00001B980DF043F9CDE90C01DDE91201CDE978
:103A10000401DDE91001CDE90201DDE90E01CDE986
:103A200000019DED0C0B53EC102BA3A00AF000FB42
:103A300014AA15A916A8DDED181A9DED191ADDEDC9
:103A40001A0A9DED1B0AFDF7AAF814980DF01EF94D
:103A5000CDE9120115980DF019F9CDE9100116986C
:103A60000DF014F9CDE90E01DDE91201CDE90201F5
:103A7000DDE91001CDE900019DED0E0B53EC102B9B
:103A8000AFF668000AF0D4FA00BFD6E418AB19AA62
:103A90001AA91BA8FDF73DFA1790179818B183488B
:103AA0000AF0C6FAF5E01B980DF0F0F821F000419D
:103AB0009FED7F0B53EC102BCDE912019DED120B06
:103AC00051EC100B0CF07CFE02D21FED7A0A01E0E3
:103AD0009DED1B0A8DED1B0A1A980DF0D7F821F009
:103AE00000419FED730B53EC102BCDE912019DEDBE
:103AF000120B51EC100B0CF063FE02D21FED870A83
:103B000001E09DED1A0A8DED1A0A19980DF0BEF824
:103B100021F000419FED660B53EC102BCDE9120113
:103B20009DED120B51EC100B0CF04AFE02D21FED72
:103B3000930A01E09DED190A8DED190A18980DF010
:103B4000A5F821F000419FED5A0B53EC102BCDE965
:103B500012019DED120B51EC100B0CF031FE02D254
:103B60001FEDA00A01E09DED180A8DED180A1FED6A
:103B7000A30A8DED160A1FEDA50A8DED150A1FED9E
:103B8000A70A8DED140A14AA15A916A8DDED181AB6
:103B90009DED191ADDED1A0A9DED1B0AFCF7FFFFDA
:103BA00014980DF073F8CDE9120115980DF06EF828
:103BB000CDE9100116980DF069F8CDE90E01DDE9A7
:103BC0001201CDE90201DDE91001CDE900019DED11
:103BD0000E0B53EC102B3CA00AF02AFA18980DF0AB
:103BE00055F8CDE9120119980DF050F8CDE9100102
:103BF0001A980DF04BF8CDE90E011B980DF046F820
:103C0000CDE90C01DDE91201CDE90401DDE9100186
:103C1000CDE90201DDE90E01CDE900019DED0C0BBE
:103C200053EC102B30A00AF003FA18AB19AA1AA90A
:103C30001BA89DED141ADDED150A9DED160AFDF782
:103C400049FB18980DF022F8CDE9120119980DF0F2
:103C50001DF8CDE910011A980DF018F8CDE90E0104
:103C60001B980DF013F8CDE90C01DDE91201CDE947
:103C70000401DDE91001CDE90201DDE90E01CDE924
:103C800000019DED0C0B53EC102B22A00AF0D0F993
:103C900000BF0AE418AB19AA1AA91BA8FDF739F945
:103CA0001790179800B14BE04EE00000A4130008F5
:103CB0007B14AE47E17A843F25662C25662C256669
:103CC0002C25660A00000000706F736974696F6EBE
:103CD0002020203A202025662C20202025662C201C
:103CE00020202025660A000063757272656E7420BC
:103CF000616E676C652020202020203A20202566F8
:103D00002C20202025662C20202020256620202005
:103D100025660A007461726765742020616E676CA5
:103D2000652020202020203A202025662C202020DD
:103D300025662C20202020256620202025660A00CC
:103D4000F8A00AF075F991E01B980CF09FFF21F0A4
:103D500000411FED290B53EC102BCDE914019DED13
:103D6000140B51EC100B0CF02BFD02D29FEDFC0A52
:103D700001E09DED1B0A8DED1B0A1A980CF086FFE1
:103D800021F000411FED360B53EC102BCDE914014F
:103D90009DED140B51EC100B0CF012FD02D29FEDB7
:103DA000F00A01E09DED1A0A8DED1A0A19980CF03F
:103DB0006DFF21F000411FED420B53EC102BCDE9BC
:103DC00014019DED140B51EC100B0CF0F9FC02D218
:103DD0009FEDE30A01E09DED190A8DED190A18988F
:103DE0000CF054FF21F000411FED4F0B53EC102B52
:103DF000CDE914019DED140B51EC100B0CF0E0FC1F
:103E000002D29FEDD70A01E09DED180A8DED180A48
:103E1000D44AD549D548DDED181A9DED191ADDEDC6
:103E20001A0A9DED1B0AFCF7BAFECE4800680CF09A
:103E30002DFFCDE91401CC4800680CF027FFCDE937
:103E40001201CA4800680CF021FFCDE91001DDE93C
:103E50001401CDE90201DDE91201CDE900019DED7A
:103E6000100B53EC102BC2A00AF0E2F80EE418ABD2
:103E700019AA1AA91BA8FDF74CF81790179818B1A2
:103E8000C6480AF0D5F860E21B980CF0FFFE21F05E
:103E900000411FED790B53EC102BCDE910019DED86
:103EA000100B51EC100B0CF08BFC02D29FEDAC0A06
:103EB00001E09DED1B0A8DED1B0A1A980CF0E6FE41
:103EC00021F000411FED860B53EC102BCDE91001C2
:103ED0009DED100B51EC100B0CF072FC02D29FED1B
:103EE000A00A01E09DED1A0A8DED1A0A19980CF04E
:103EF000CDFE21F000411FED920B53EC102BCDE9CC
:103F000010019DED100B51EC100B0CF059FC02D27E
:103F10009FED930A01E09DED190A8DED190A18989D
:103F20000CF0B4FE21F000411FED9F0B53EC102B61
:103F3000CDE910019DED100B51EC100B0CF040FC85
:103F400002D29FED870A01E09DED180A8DED180A57
:103F5000864890ED000AF1EE040A30EE200A8DED5D
:103F6000110A13AB14AA15A916A87E4C94ED001AD9
:103F70007D4CD4ED000A9DED110AFDF7ABF91290CE
:103F8000129800287DD113980CF080FECDE90C0129
:103F900014980CF07BFECDE90A0115980CF076FE22
:103FA000CDE9080116980CF071FECDE90601DDE9B6
:103FB0000C01CDE90401DDE90A01CDE90201DDE9E9
:103FC0000801CDE900019DED060B53EC102BAFF27B
:103FD000E0200AF02DF89DED160ADDED1B0A30EE0B
:103FE000600A8DED090A09980CF050FE21F000419D
:103FF0009FED6B0B53EC102BCDE90A019DED0A0BE5
:1040000051EC100B0CF02AFACDE90C019DED0C0BD4
:1040100051EC100B0CF03CF911909DED150ADDED03
:104020001A0A30EE600A8DED090A09980CF02EFE8E
:1040300021F000419FED5A0B53EC102BCDE90A0102
:104040009DED0A0B51EC100B0CF008FACDE90C01B8
:104050009DED0C0B51EC100B0CF01AF910909DED2E
:10406000140ADDED190A30EE600A8DED090A09988F
:104070000CF00CFE21F000419FED490B53EC102B8E
:1040800000E05EE1CDE90A019DED0A0B51EC100B59
:104090000CF0E4F9CDE90C019DED0C0B51EC100B8B
:1040A0000CF0F6F80F909DED130ADDED180A30EED6
:1040B000600A8DED090A09980CF0E8FD21F0004135
:1040C0009FED370B53EC102BCDE90A019DED0A0B48
:1040D00051EC100B0CF0C2F9CDE90C019DED0C0B6D
:1040E00051EC100B0CF0D4F80E909DED110ADFEDA1
:1040F0002E0AB4EEE00AF1EE10FA02DD9FED2A0A74
:1041000001E09DED110A8DED110A9DED100ADFED24
:10411000260AB4EEE00AF1EE10FA47DD9FED220A1E
:1041200046E00000206572726F72207768696C65E6
:1041300020696E2070726F63657373696E6720709B
:104140006F736974696F6E20746F20616E676C6540
:1041500020696E20636F6D6D616E642033390A00D3
:104160000000000034000020300000202C0000205F
:10417000737461727420706F696E7420706F7369EC
:1041800074696F6E2020203A202025662C20202084
:1041900025662C2020202025660A0000A413000894
:1041A0009A9999999999B93F0000C8429DED100AD2
:1041B0008DED100A9DED0F0A5FED050AB4EEE00AE1
:1041C000F1EE10FA02DD1FED080A01E09DED0F0A85
:1041D0008DED0F0A9DED0E0A5FED0D0AB4EEE00ABB
:1041E000F1EE10FA02DD1FED100A01E09DED0E0A5E
:1041F0008DED0E0A16980CF049FD21F000411FEDDF
:10420000180B53EC102BCDE90C019DED0C0B51EC70
:10421000100B0CF0D5FA02D21FED2F0A01E09DED34
:10422000160A8DED160A15980CF030FD21F00041AC
:104230001FED250B53EC102BCDE90C019DED0C0B64
:1042400051EC100B0CF0BCFA02D21FED3B0A01E05E
:104250009DED150A8DED150A14980CF017FD21F04F
:1042600000411FED310B53EC102BCDE90C019DEDFE
:104270000C0B51EC100B0CF0A3FA02D21FED480A04
:1042800001E09DED140A8DED140A13980CF0FEFC6C
:1042900021F000411FED3E0B53EC102BCDE90C013A
:1042A0009DED0C0B51EC100B0CF08AFA02D21FEDB5
:1042B000540A01E09DED130A8DED130A0E980CF0DF
:1042C000E5FCCDE90C010F980CF0E0FCCDE90A010A
:1042D00010980CF0DBFCCDE9080111980CF0D6FC2D
:1042E000CDE90601DDE90C01CDE90401DDE90A01B2
:1042F000CDE90201DDE90801CDE900019DED060BE4
:1043000053EC102BFBA009F093FEDDED0E3A9DED72
:104310000F3ADDED102A9DED112ADDED131A9DED0A
:10432000141ADDED150A9DED160AFCF76FFFF8482B
:1043300090ED000AF7EE000A30EE200A80ED000A48
:1043400002E0F4A009F074FE00BFA2E418AB19AAC1
:104350001AA91BA8FCF7DDFD1790179818B1F448AF
:1043600009F066FEB6E11B980CF090FC21F00041CC
:104370009FEDF00B53EC102BCDE910019DED100BD0
:1043800051EC100B0CF01CFA02D21FED8B0A01E06D
:104390009DED1B0A8DED1B0A1A980CF077FC21F09D
:1043A00000419FEDE40B53EC102BCDE910019DED86
:1043B000100B51EC100B0CF003FA02D21FED980A0F
:1043C00001E09DED1A0A8DED1A0A19980CF05EFCB9
:1043D00021F000419FEDD70B53EC102BCDE91001DC
:1043E0009DED100B51EC100B0CF0EAF902D21FED11
:1043F000A40A01E09DED190A8DED190A18980CF038
:1044000045FC21F000419FEDCB0B53EC102BCDE987
:1044100010019DED100B51EC100B0CF0D1F902D2F4
:104420001FEDB10A01E09DED180A8DED180AB8489C
:1044300090ED000AF1EE040A30EE600A8DED110AEB
:1044400013AB14AA15A916A8BC4C94ED001ABC4CC9
:10445000D4ED000A9DED110AFCF73CFF1290129872
:1044600000287CD113980CF011FCCDE90C011498B4
:104470000CF00CFCCDE90A0115980CF007FCCDE915
:10448000080116980CF002FCCDE90601DDE90C01EB
:10449000CDE90401DDE90A01CDE90201DDE9080108
:1044A000CDE900019DED060B53EC102BA5A009F002
:1044B000BFFD9DED160ADDED1B0A30EE600A8DEDA5
:1044C000090A09980CF0E2FB21F000411FEDCC0B2A
:1044D00053EC102BCDE90A019DED0A0B51EC100BAA
:1044E0000BF0BCFFCDE90C019DED0C0B51EC100B5A
:1044F0000BF0CEFE11909DED150ADDED1A0A30EE9F
:10450000600A8DED090A09980CF0C0FB21F000410A
:104510001FEDDD0B53EC102BCDE90A019DED0A0BCD
:1045200051EC100B0BF09AFFCDE90C019DED0C0B3B
:1045300051EC100B0BF0ACFE10909DED140ADDED6C
:10454000190A30EE600A8DED090A09980CF09EFBFD
:1045500021F000411FEDEE0B53EC102B00E0B5E015
:10456000CDE90A019DED0A0B51EC100B0BF076FF23
:10457000CDE90C019DED0C0B51EC100B0BF088FEFE
:104580000F909DED130ADDED180A30EE600A8DEDF7
:10459000090A09980CF07AFB21F000419FED730B9A
:1045A00053EC102BCDE90A019DED0A0B51EC100BD9
:1045B0000BF054FFCDE90C019DED0C0B51EC100BF1
:1045C0000BF066FE0E909DED110ADFED6A0AB4EE67
:1045D000E00AF1EE10FA02DD9FED660A01E09DEDC2
:1045E000110A8DED110A9DED100ADFED620AB4EE9D
:1045F000E00AF1EE10FA02DD9FED5E0A01E09DEDAA
:10460000100A8DED100A9DED0F0ADFED5A0AB4EE87
:10461000E00AF1EE10FA02DD9FED560A01E09DED91
:104620000F0A8DED0F0A9DED0E0ADFED520AB4EE72
:10463000E00AF1EE10FA02DD9FED4E0A01E09DED79
:104640000E0A8DED0E0A0E980CF020FBCDE90C0140
:104650000F980CF01BFBCDE90A0110980CF016FB2B
:10466000CDE9080111980CF011FBCDE90601DDE957
:104670000C01CDE90401DDE90A01CDE90201DDE922
:104680000801CDE900019DED060B53EC102B19A09C
:1046900009F0CEFCDDED0E3A9DED0F3ADDED102A6E
:1046A0009DED112ADDED131A9DED141ADDED150AAD
:1046B0009DED160AFCF7AAFD154890ED000AF7EEED
:1046C000000A30EE600A80ED000A02E011A009F055
:1046D000AFFC00BF39E618AB19AA1AA91BA8FCF752
:1046E00018FC1790179818B1114809F0A1FCFDE1CA
:1046F00042E000007370656564202020202566205C
:1047000020202566202020256620202025660A00FE
:104710002C0000206E6F20696E7665727365206FC5
:104720007574206F662072616E67650A0000000074
:10473000A41300087B14AE47E17A843F34000020C4
:1047400030000020616E676C652020202020203A18
:10475000202025662C20202025662C2020202025A6
:10476000662020202025660A000000009A99999969
:104770009999B93F0000C8421B980CF087FA21F0C4
:1047800000411FED140B53EC102BCDE910019DEDF2
:10479000100B51EC100B0CF013F802D29FEDFE0A37
:1047A00001E09DED1B0A8DED1B0A1A980CF06EFAC4
:1047B00021F000411FED210B53EC102BCDE910012E
:1047C0009DED100B51EC100B0BF0FAFF02D29FED98
:1047D000F20A01E09DED1A0A8DED1A0A19980CF003
:1047E00055FA21F000411FED2D0B53EC102BCDE9B4
:1047F00010019DED100B51EC100B0BF0E1FF02D2FC
:104800009FEDE50A01E09DED190A8DED190A189852
:104810000CF03CFA21F000411FED3A0B53EC102B49
:10482000CDE910019DED100B51EC100B0BF0C8FF02
:1048300002D29FEDD90A01E09DED180A8DED180A0C
:10484000D64890ED000AF3EE0E0A30EE200A8DED08
:10485000110A13AB14AA15A916A8D14C94ED001A8D
:10486000D04CD4ED000A9DED110AFCF733FD1290F7
:10487000129800287DD113980CF008FACDE90C01AC
:1048800014980CF003FACDE90A0115980CF0FEF922
:10489000CDE9080116980CF0F9F9CDE90601DDE93A
:1048A0000C01CDE90401DDE90A01CDE90201DDE9F0
:1048B0000801CDE900019DED060B53EC102BAFF282
:1048C0007C1009F0B5FB9DED160ADDED1B0A30EEFC
:1048D000600A8DED090A09980CF0D8F921F0004121
:1048E0001FED5E0B53EC102BCDE90A019DED0A0B79
:1048F00051EC100B0BF0B2FDCDE90C019DED0C0B52
:1049000051EC100B0BF0C4FC11909DED150ADDED80
:104910001A0A30EE600A8DED090A09980CF0B6F912
:1049200021F000411FED6F0B53EC102BCDE90A0174
:104930009DED0A0B51EC100B0BF090FDCDE90C0135
:104940009DED0C0B51EC100B0BF0A2FC10909DEDAB
:10495000140ADDED190A30EE600A8DED090A099896
:104960000CF094F921F000411FED800B53EC102B5B
:1049700000E0B6E0CDE90A019DED0A0B51EC100B09
:104980000BF06CFDCDE90C019DED0C0B51EC100B07
:104990000BF07EFC0F909DED130ADDED180A30EE52
:1049A000600A8DED090A09980CF070F921F00041B8
:1049B0001FED920B53EC102BCDE90A019DED0A0B74
:1049C00051EC100B0BF04AFDCDE90C019DED0C0BE9
:1049D00051EC100B0BF05CFC0E909DED110AF3EE08
:1049E0000E0AB4EEE00AF1EE10FA02DDB3EE0E0AA2
:1049F00001E09DED110A8DED110A9DED100AF3EE17
:104A00000E0AB4EEE00AF1EE10FA02DDB3EE0E0A81
:104A100001E09DED100A8DED100A9DED0F0AF3EEF9
:104A20000E0AB4EEE00AF1EE10FA02DDB3EE0E0A61
:104A300001E09DED0F0A8DED0F0A9DED0E0A5FED71
:104A4000B30AB4EEE00AF1EE10FA02DD1FEDB70A88
:104A500001E09DED0E0A8DED0E0A0E980CF016F990
:104A6000CDE90C010F980CF011F9CDE90A0110986D
:104A70000CF00CF9CDE9080111980CF007F9CDE91B
:104A80000601DDE90C01CDE90401DDE90A01CDE90A
:104A90000201DDE90801CDE900019DED060B53ECB3
:104AA000102BAFF2B03009F0C3FADDED0E3A9DEDF8
:104AB0000F3ADDED102A9DED112ADDED131A9DED63
:104AC000141ADDED150A9DED160AFCF79FFB33481D
:104AD00090ED000AF3EE0E0A30EE200A80ED000A97
:104AE00003E0AFF2D03009F0A3FA00BF2DE418AB19
:104AF00019AA1AA91BA8FCF70CFA1790179818B155
:104B0000294809F095FAC8E11B980CF0BFF821F08C
:104B100000411FEDF80B53EC102BCDE910019DED7A
:104B2000100B51EC100B0BF04BFE02D29FED1A0A4A
:104B300001E09DED1B0A8DED1B0A1A980CF0A6F8FA
:104B400021F000419FED190B53EC102BCDE9100122
:104B50009DED100B51EC100B0BF032FE02D29FEDCD
:104B60000E0A01E09DED1A0A8DED1A0A19980CF053
:104B70008DF821F000419FED0D0B53EC102BCDE98A
:104B800010019DED100B51EC100B0BF019FE11D222
:104B90009FED010A10E00000000000002C00002042
:104BA0003400002030000020A41300087B14AE471E
:104BB000E17A843F9DED190A8DED190A18980CF0E1
:104BC00065F821F000411FED070B53EC102BCDE9E8
:104BD00010019DED100B51EC100B0BF0F1FD02D20A
:104BE0001FED130A01E09DED180A8DED180AFE482D
:104BF00090ED000AF3EE0E0A30EE600A8DED110A18
:104C000013AB14AA15A916A8F84C94ED001AF84C89
:104C1000D4ED000A9DED110AFCF75CFB129012988E
:104C200000287DD113980CF031F8CDE90C011498CF
:104C30000CF02CF8CDE90A0115980CF027F8CDE915
:104C4000080116980CF022F8CDE90601DDE90C0107
:104C5000CDE90401DDE90A01CDE90201DDE9080140
:104C6000CDE900019DED060B53EC102BAFF22C505B
:104C700009F0DEF99DED160ADDED1B0A30EE600A43
:104C80008DED090A09980CF001F821F000419FED23
:104C9000D90B53EC102BCDE90A019DED0A0B51EC19
:104CA000100B0BF0DBFBCDE90C019DED0C0B51EC77
:104CB000100B0BF0EDFA11909DED150ADDED1A0ABF
:104CC00030EE600A8DED090A09980BF0DFFF21F044
:104CD00000419FEDC80B53EC102BCDE90A019DED6F
:104CE0000A0B51EC100B0BF0B9FBCDE90C019DED5B
:104CF0000C0B51EC100B0BF0CBFA10909DED140A3D
:104D0000DDED190A30EE600A8DED090A09980BF005
:104D1000BDFF21F000419FEDB70B53EC102B00E0DD
:104D2000B6E0CDE90A019DED0A0B51EC100B0BF03A
:104D300095FBCDE90C019DED0C0B51EC100B0BF02C
:104D4000A7FA0F909DED130ADDED180A30EE600A08
:104D50008DED090A09980BF099FF21F000419FEDB4
:104D6000A50B53EC102BCDE90A019DED0A0B51EC7C
:104D7000100B0BF073FBCDE90C019DED0C0B51EC0E
:104D8000100B0BF085FA0E909DED110AF3EE0E0A52
:104D9000B4EEE00AF1EE10FA02DDB3EE0E0A01E025
:104DA0009DED110A8DED110A9DED100AF3EE0E0A2C
:104DB000B4EEE00AF1EE10FA02DDB3EE0E0A01E005
:104DC0009DED100A8DED100A9DED0F0AF3EE0E0A0F
:104DD000B4EEE00AF1EE10FA02DDB3EE0E0A01E0E5
:104DE0009DED0F0A8DED0F0A9DED0E0ADFED830A92
:104DF000B4EEE00AF1EE10FA02DD9FED800A01E068
:104E00009DED0E0A8DED0E0A0E980BF03FFFCDE9D9
:104E10000C010F980BF03AFFCDE90A0110980BF046
:104E200035FFCDE9080111980BF030FFCDE90601FF
:104E3000DDE90C01CDE90401DDE90A01CDE902015A
:104E4000DDE90801CDE900019DED060B53EC102BC7
:104E5000AFF2607009F0ECF8DDED0E3A9DED0F3A1F
:104E6000DDED102A9DED112ADDED131A9DED141ACA
:104E7000DDED150A9DED160AFCF7C8F95A4890EDCC
:104E8000000AF3EE0E0A30EE600A80ED000A03E03D
:104E9000AFF2807009F0CCF800BF1BE418AB19AA80
:104EA0001AA91BA8FCF735F81790179818B15448A1
:104EB00009F0BEF8C9E11B980BF0E8FE21F00041B3
:104EC0001FEDC60B53EC102BCDE910019DED100B1F
:104ED00051EC100B0BF074FC02D21FEDD10A01E073
:104EE0009DED1B0A8DED1B0A1A980BF0CFFE21F0E9
:104EF00000411FEDD20B53EC102BCDE910019DEDBD
:104F0000100B51EC100B0BF05BFC02D21FEDDE0A14
:104F100001E09DED1A0A8DED1A0A19980BF0B6FE04
:104F200021F000411FEDDF0B53EC102BCDE91001F8
:104F30009DED100B51EC100B0BF042FC02D21FED5B
:104F4000EA0A01E09DED190A8DED190A18980BF097
:104F50009DFE21F000411FEDEB0B53EC102BCDE932
:104F600010019DED100B51EC100B0BF029FC02D23F
:104F70001FEDF70A01E09DED180A8DED180A1C4897
:104F800090ED000AF3EE0E0A30EE200A8DED110AC4
:104F900013AB14AA15A916A8144C94ED001ADDED54
:104FA000110A114C94ED000AFCF794F91290129832
:104FB00000287CD113980BF069FECDE90C01149800
:104FC0000BF064FECDE90A0115980BF05FFECDE908
:104FD000080116980BF05AFECDE90601DDE90C0137
:104FE000CDE904010EE000002C0000203400002078
:104FF000300000209A9999999999B93F0000C842C8
:10500000A4130008DDE90A01CDE90201DDE9080188
:10501000CDE900019DED060B53EC102BAFF6DC0043
:1050200009F006F89DED160ADDED1B0A30EE600A68
:105030008DED090A09980BF029FE21F000411FEDC2
:10504000130B53EC102BCDE90A019DED0A0B51EC2B
:10505000100B0BF003FACDE90C019DED0C0B51EC9C
:10506000100B0BF015F911909DED150ADDED1A0AE4
:1050700030EE600A8DED090A09980BF007FE21F069
:1050800000411FED240B53EC102BCDE90A019DEDDF
:105090000A0B51EC100B0BF0E1F9CDE90C019DED81
:1050A0000C0B51EC100B0BF0F3F8109000E0C7E084
:1050B0009DED140ADDED190A30EE600A8DED090A46
:1050C00009980BF0E3FD21F000411FED360B53EC86
:1050D000102BCDE90A019DED0A0B51EC100B0BF0E2
:1050E000BDF9CDE90C019DED0C0B51EC100B0BF053
:1050F000CFF80F909DED130ADDED180A30EE600A2F
:105100008DED090A09980BF0C1FD21F000411FED5A
:10511000470B53EC102BCDE90A019DED0A0B51EC26
:10512000100B0BF09BF9CDE90C019DED0C0B51EC34
:10513000100B0BF0ADF80E909DED110AF3EE0E0A78
:10514000B4EEE00AF1EE10FA02DDB3EE0E0A01E071
:105150009DED110A8DED110A9DED100AF3EE0E0A78
:10516000B4EEE00AF1EE10FA02DDB3EE0E0A01E051
:105170009DED100A8DED100A9DED0F0AF3EE0E0A5B
:10518000B4EEE00AF1EE10FA02DDB3EE0E0A01E031
:105190009DED0F0A8DED0F0A9DED0E0A5FED690A78
:1051A000B4EEE00AF1EE10FA02DD1FED6C0A01E048
:1051B0009DED0E0A8DED0E0A0E980BF067FDCDE900
:1051C0000C010F980BF062FDCDE90A0110980BF06D
:1051D0005DFDCDE9080111980BF058FDCDE9060100
:1051E000DDE90C01CDE90401DDE90A01CDE90201A7
:1051F000DDE90801CDE900019DED060B53EC102B14
:10520000AFF6103008F014FFDDED0E3A9DED0F3AC9
:10521000DDED102A9DED112ADDED131A9DED141A16
:10522000DDED150A9DED160AFBF7F0FFFC4890ED49
:10523000000AF3EE0E0A30EE200A80ED000A03E0C9
:10524000AFF6303008F0F4FE00BF4FE418AB19AAF7
:105250001AA91BA8FBF75DFE1790179818B1F14823
:1052600008F0E6FEB8E11B980BF010FD21F00041BC
:105270009FEDED0B53EC102BCDE910019DED100BC4
:1052800051EC100B0BF09CFA02D29FEDE90A01E001
:105290009DED1B0A8DED1B0A1A980BF0F7FC21F00F
:1052A00000419FEDE10B53EC102BCDE910019DED7A
:1052B000100B51EC100B0BF083FA02D29FEDDC0ABD
:1052C00001E09DED1A0A8DED1A0A19980BF0DEFC2B
:1052D00021F000419FEDD40B53EC102BCDE91001D0
:1052E0009DED100B51EC100B0BF06AFA02D29FED02
:1052F000D00A01E09DED190A8DED190A18980BF0FE
:10530000C5FC21F000419FEDC80B53EC102BCDE9FB
:1053100010019DED100B51EC100B0BF051FA02D265
:105320009FEDC30A01E09DED180A8DED180ABC48F7
:1053300090ED000AF3EE0E0A30EE600A8DED110AD0
:1053400013AB14AA15A916A8BA4C94ED001ADDEDFA
:10535000110AB94C94ED000AFBF7BCFF12901298A9
:1053600000287DD113980BF091FCCDE90C01149825
:105370000BF08CFCCDE90A0115980BF087FCCDE908
:10538000080116980BF082FCCDE90601DDE90C015D
:10539000CDE90401DDE90A01CDE90201DDE90801F9
:1053A000CDE900019DED060B53EC102BAFF66C40E0
:1053B00008F03EFE9DED160ADDED1B0A30EE600A98
:1053C0008DED090A09980BF061FC21F000411FEDF9
:1053D000F70B53EC102BCDE90A019DED0A0B51ECB4
:1053E000100B0BF03BF8CDE90C019DED0C0B51ECD3
:1053F000100B0AF04DFF11909DED150ADDED1A0A14
:1054000030EE600A8DED090A09980BF03FFC21F09F
:1054100000419FED8A0B53EC102BCDE90A019DED65
:105420000A0B51EC100B0BF019F8CDE90C019DEDB6
:105430000C0B51EC100B0AF02BFF10909DED140A91
:10544000DDED190A30EE600A8DED090A09980BF0BE
:105450001DFC21F000419FED790B53EC102B00E077
:10546000B6E0CDE90A019DED0A0B51EC100B0AF0F4
:10547000F5FFCDE90C019DED0C0B51EC100B0AF082
:1054800007FF0F909DED130ADDED180A30EE600A5C
:105490008DED090A09980BF0F9FB21F000419FED11
:1054A000670B53EC102BCDE90A019DED0A0B51EC73
:1054B000100B0AF0D3FFCDE90C019DED0C0B51EC64
:1054C000100B0AF0E5FE0E909DED110AF3EE0E0AA8
:1054D000B4EEE00AF1EE10FA02DDB3EE0E0A01E0DE
:1054E0009DED110A8DED110A9DED100AF3EE0E0AE5
:1054F000B4EEE00AF1EE10FA02DDB3EE0E0A01E0BE
:105500009DED100A8DED100A9DED0F0AF3EE0E0AC7
:10551000B4EEE00AF1EE10FA02DDB3EE0E0A01E09D
:105520009DED0F0A8DED0F0A9DED0E0ADFED450A88
:10553000B4EEE00AF1EE10FA02DD9FED420A01E05E
:105540009DED0E0A8DED0E0A0E980BF09FFBCDE936
:105550000C010F980BF09AFBCDE90A0110980BF0A3
:1055600095FBCDE9080111980BF090FBCDE9060100
:10557000DDE90C01CDE90401DDE90A01CDE9020113
:10558000DDE90801CDE900019DED060B53EC102B80
:10559000AFF6A06008F04CFDDDED0E3A9DED0F3A40
:1055A000DDED102A9DED112ADDED131A9DED141A83
:1055B000DDED150A9DED160AFBF728FE184890ED63
:1055C000000AF3EE0E0A30EE600A80ED000A02E0F7
:1055D0001DA008F02DFD00BF5FE418AB19AA1AA9A1
:1055E0001BA8FBF796FC1790179818B10D4808F008
:1055F0001FFDDBE11B980BF049FB21F000419FED03
:105600000A0B53EC102BCDE910019DED100B51EC62
:10561000100B0BF0D5F825D29FED050A24E0000011
:1056200030000020A41300087B14AE47E17A843FC9
:1056300000000000340000202C0000209A99999965
:105640009999B93F0000C8426E6F20696E76657205
:105650007365206F7574206F662072616E676520B8
:105660000A0000009DED1B0A8DED1B0A1A980BF035
:105670000DFB21F000411FED140B53EC102BCDE975
:1056800010019DED100B51EC100B0BF099F802D2AC
:105690001FED190A01E09DED1A0A8DED1A0A1998FD
:1056A0000BF0F4FA21F000411FED210B53EC102B0D
:1056B000CDE910019DED100B51EC100B0BF080F8B3
:1056C00002D21FED250A01E09DED190A8DED190AA0
:1056D00018980BF0DBFA21F000411FED2D0B53EC75
:1056E000102BCDE910019DED100B51EC100B0BF0C0
:1056F00067F802D21FED320A01E09DED180A8DED28
:10570000180AFE4890ED000AF3EE0E0A30EE200A69
:105710008DED110A13AB14AA15A916A89DED111A47
:10572000F74CD4ED000AF74C94ED000AFBF7D2FDDC
:105730001290129800287CD113980BF0A7FACDE9AB
:105740000C0114980BF0A2FACDE90A0115980BF0A0
:105750009DFACDE9080116980BF098FACDE90601FB
:10576000DDE90C01CDE90401DDE90A01CDE9020121
:10577000DDE90801CDE900019DED060B53EC102B8E
:10578000E14808F055FC9DED160ADDED1B0A30EEF0
:10579000600A8DED090A09980BF078FA21F00041B2
:1057A0001FED5A0B53EC102BCDE90A019DED0A0BAE
:1057B00051EC100B0AF052FECDE90C019DED0C0BE3
:1057C00051EC100B0AF064FD11909DED150ADDED12
:1057D0001A0A30EE600A8DED090A09980BF056FAA4
:1057E00021F000411FED6B0B53EC102BCDE90A01AA
:1057F0009DED0A0B51EC100B0AF030FECDE90C01C7
:105800009DED0C0B51EC100B0AF042FD10909DED3C
:10581000140ADDED190A30EE600A8DED090A0998C7
:105820000BF034FA21F000411FED7C0B53EC102BF0
:1058300000E0B6E0CDE90A019DED0A0B51EC100B3A
:105840000AF00CFECDE90C019DED0C0B51EC100B98
:105850000AF01EFD0F909DED130ADDED180A30EEE3
:10586000600A8DED090A09980BF010FA21F0004149
:105870001FED8E0B53EC102BCDE90A019DED0A0BA9
:1058800051EC100B0AF0EAFDCDE90C019DED0C0B7B
:1058900051EC100B0AF0FCFC0E909DED110AF3EE9A
:1058A0000E0AB4EEE00AF1EE10FA02DDB3EE0E0AD3
:1058B00001E09DED110A8DED110A9DED100AF3EE48
:1058C0000E0AB4EEE00AF1EE10FA02DDB3EE0E0AB3
:1058D00001E09DED100A8DED100A9DED0F0AF3EE2B
:1058E0000E0AB4EEE00AF1EE10FA02DDB3EE0E0A93
:1058F00001E09DED0F0A8DED0F0A9DED0E0A5FEDA3
:10590000AF0AB4EEE00AF1EE10FA02DD1FEDB30AC1
:1059100001E09DED0E0A8DED0E0A0E980BF0B6F922
:10592000CDE90C010F980BF0B1F9CDE90A011098FF
:105930000BF0ACF9CDE9080111980BF0A7F9CDE90E
:105940000601DDE90C01CDE90401DDE90A01CDE93B
:105950000201DDE90801CDE900019DED060B53ECE4
:10596000102B6948503808F063FBDDED0E3A9DEDD1
:105970000F3ADDED102A9DED112ADDED131A9DED94
:10598000141ADDED150A9DED160AFBF73FFC5B4886
:1059900090ED000AF3EE0E0A30EE200A80ED000AC8
:1059A00003E05948303808F043FB00BF4DE418AB22
:1059B00019AA1AA91BA8FBF7ACFA1790179818B1E7
:1059C000524808F035FBC6E11B980BF05FF921F057
:1059D00000411FEDEB0B53EC102BCDE910019DEDB9
:1059E000100B51EC100B0AF0EBFE02D21FEDF00A87
:1059F00001E09DED1B0A8DED1B0A1A980BF046F98C
:105A000021F000411FEDF80B53EC102BCDE91001F4
:105A10009DED100B51EC100B0AF0D2FE02D21FEDDF
:105A2000FC0A01E09DED1A0A8DED1A0A19980BF097
:105A30002DF921F000419FED360B53EC102BCDE9F1
:105A400010019DED100B51EC100B0AF0B9FE02D2C3
:105A50009FED310A01E09DED190A8DED190A1898A4
:105A60000BF014F921F000419FED290B53EC102BA2
:105A7000CDE910019DED100B51EC100B0AF0A0FECA
:105A800002D29FED250A01E09DED180A8DED180A5E
:105A90001A4890ED000AF3EE0E0A30EE600A8DED22
:105AA000110A13AB14AA15A916A89DED111A144CCE
:105AB000D4ED000A134C94ED000AFBF70BFC129096
:105AC0001298D0B913980BF0E1F8CDE90C011498B5
:105AD0000BF0DCF8CDE90A0115980BF0D7F8CDE909
