:020000040800F2
:10000000B82E0020E99C00087D5400087F540008A9
:1000100083540008875400088B5400080000000037
:100020000000000000000000000000008F540008E5
:1000300091540008000000009354000895540008F3
:10004000039D0008039D0008039D0008039D000810
:10005000039D0008039D0008039D0008039D000800
:10006000039D0008039D0008039D0008039D0008F0
:10007000039D0008039D0008039D0008039D0008E0
:10008000039D0008039D0008039D0008039D0008D0
:1000900029580008039D0008039D0008039D0008DF
:1000A000039D0008039D0008039D0008039D0008B0
:1000B0002999000863990008219A0008039D000807
:1000C000039D0008039D0008039D0008039D000890
:1000D000039D00082F960008039D0008039D00085B
:1000E000039D0008039D0008039D0008039D000870
:1000F000F59A0008139C0008039D0008039D000862
:10010000039D0008039D0008039D0008039D00084F
:10011000039D0008039D0008E19A0008039D000864
:10012000039D0008039D0008039D0008039D00082F
:10013000039D0008039D0008039D0008039D00081F
:10014000039D0008D9590008039D0008039D00087D
:10015000039D0008039D0008039D0008039D0008FF
:10016000039D0008039D0008039D0008039D0008EF
:10017000039D0008039D0008039D0008039D0008DF
:10018000039D0008039D0008039D0008039D0008CF
:10019000039D0008039D0008039D0008039D0008BF
:1001A000039D0008039D0008039D000800F002F86D
:1001B00000F052F80AA090E8000C82448344AAF1AF
:1001C0000107DA4501D100F047F8AFF2090EBAE8AD
:1001D0000F0013F0010F18BFFB1A43F0010318477B
:1001E00004F0000024F00000103A24BF78C878C161
:1001F000FAD8520724BF30C830C144BF04680C602D
:10020000704700000023002400250026103A28BF74
:1002100078C1FBD8520728BF30C148BF0B60704778
:1002200066290EF0AE8664290CF0428075290CF028
:100230003F8078290CF07880002070471FB50EF0C1
:1002400096FE0CF07DFB0400002000210EF0FEF86D
:10025000E0601FBD10B510BD0CF08EFC1146FFF71D
:10026000EDFF05F050F80CF0ACFC03B4FFF7F2FF23
:1002700003BC09F079F90000002000BF1FE040F244
:10028000E73188420ED00021FE4A02F8301002EB1E
:10029000C0025170FB4A411C02EBC10102EBC002DB
:1002A00051600BE00021F74A02F8301002EBC00267
:1002B0005170F4490A4602EBC0025160401CB0F58F
:1002C0007A7FDCDBEF49F04A116011460968EF4A9A
:1002D000116070472DE9F04F99B080460E460EB17F
:1002E000642E03DD002019B0BDE8F08F45460024E0
:1002F000002700BF4CE0701E211D884234DA285DC3
:1003000004F1010CB44502DB4FF0000C03E004F1F2
:10031000010C15F80CC0614604F1020CB44502DB77
:100320004FF0000C03E004F1020C15F80CC062461B
:1003300004F1030CB44502DB4FF0000C03E004F1C0
:10034000030C15F80CC063464FEA006C4CEA014CF4
:100350004CEA022C4CEA030CBA4607F1010B1FFAD7
:100360008BF74DF82AC015E0285D0106601C285C5B
:1003700041EA0041A01C285C41EA0020E11C695CC4
:10038000084339467A1C97B24DF82100201D84B2EB
:10039000B442B0DB00BF4FF000090BF023FF002494
:1003A00006E05DF824000BF021FF8146601C84B25A
:1003B000BC42F6DB484696E710B52DED028BB0EE59
:1003C000408A9FEDB30A28EE000ADFEDB20A80EE04
:1003D000201AF0EE418AB0EE680A0DF043F9AE48FB
:1003E00080ED000A9FEDAA0A28EE000ADFEDA90AB7
:1003F00080EE201AF0EE418AB0EE680A0DF040FA65
:10040000B1EE400AA44880ED010A9FEDA40A80EDF8
:10041000020A9FED9F0A28EE000ADFED9E0A80EE99
:10042000201AF0EE418AB0EE680A0DF029FA9A48D7
:1004300080ED030A90ED000A80ED040A9FED970A13
:1004400080ED050A9FED950A80ED060A9FED930A5F
:1004500080ED070AB7EE000A80ED080ABDEC028BBA
:1004600010BD10B52DED048BB0EE408AF0EE608A21
:100470009FED870A28EE000ADFED860A80EE201A3B
:10048000B0EE419AB0EE490A0DF0ECF8F0EE409A69
:100490009FED7F0A28EE800ADFED7E0A80EE201AAB
:1004A000B0EE419AB0EE490A0DF0DCF829EE800A70
:1004B0007B4880ED000A9FED760A28EE000ADFED0A
:1004C000750A80EE201AB0EE419AB0EE490A0DF09E
:1004D000C9F8F1EE409A9FED6E0A28EE800ADFED32
:1004E0006D0A80EE201AB0EE419AB0EE490A0DF086
:1004F000C7F929EE800A6A4880ED010A9FED640A77
:1005000028EE000ADFED630A80EE201AB0EE419A71
:10051000B0EE490A0DF0B4F9B1EE400A604880ED42
:10052000020A9FED5B0A28EE000ADFED5A0A80EE10
:10053000201AB0EE419AB0EE490A0DF0A1F9F0EEA2
:10054000409A9FED530A28EE800ADFED520A80EEB2
:10055000201AB0EE419AB0EE490A0DF083F829EE68
:10056000800A4F4880ED030A9FED490A28EE000AF1
:10057000DFED480A80EE201AB0EE419AB0EE490A4B
:100580000DF07EF9F1EE409A9FED410A28EE800AC7
:10059000DFED400A80EE201AB0EE419AB0EE490A33
:1005A0000DF06EF929EE800A3D4880ED040A9FEDBA
:1005B000380A28EE000ADFED370A80EE201AB0EE86
:1005C000419AB0EE490A0DF04DF8354880ED050A24
:1005D0009FED2F0A28EE800ADFED2E0A80EE201A0A
:1005E000B0EE419AB0EE490A0DF04AF9B1EE400A78
:1005F0002B4880ED060A9FED260A28EE800ADFEDE3
:10060000250A80EE201AB0EE419AB0EE490A0DF0AC
:1006100029F8B1EE400A224880ED070A9FED1F0A33
:1006200080ED080ABDEC048B10BD10B52DED068BD6
:10063000B0EE408AF0EE608AB0EE419A9FED140A67
:1006400028EE000ADFED130A80EE201AF0EE419A40
:10065000B0EE690A0DF006F8B0EE40AA9FED0C0A64
:1006600069EE000A9FED0B1A80EE810A30EE280A2F
:10067000F0EE409A0CF0F6FF2AEE000A094880EDF1
:10068000000A11E0E40200202000002024000020E5
:10069000DC0F4940000034438400002000000000CB
:1006A000A8000020CC0000201FED070A28EE000A59
:1006B0005FED080A80EE201AF0EE419AB0EE690A6A
:1006C0000CF0D0FFB1EE40AA1FED0F0A69EE000A50
:1006D0001FED101A80EE810A30EE280AF0EE409AE3
:1006E0000DF0CEF82AEE000AFE4880ED010A1FED5B
:1006F000180A28EE000A5FED190A80EE201AF0EEC3
:10070000419AB0EE690A0DF0BBF8B1EE400AF54827
:1007100080ED020A1FED220A28EE000A5FED230A8F
:1007200080EE201AF0EE419AB0EE690A0DF0A8F8BA
:10073000B0EE40AA1FED2A0A69EE000A1FED2B1A3F
:1007400080EE810A30EE280AF0EE409A0CF08AFF23
:100750002AEE000AE34880ED030A1FED330A28EE73
:10076000000A5FED340A80EE201AF0EE419AB0EEF6
:10077000690A0DF085F8B1EE40AA1FED3B0A69EE5B
:10078000000A1FED3C1A80EE810A30EE280AF0EED6
:10079000409A0DF075F82AEE000AD24880ED040A5E
:1007A0001FED450A28EE000A5FED460A80EE201A8A
:1007B000F0EE419AB0EE690A0CF054FFC94880EDA2
:1007C000050A1FED4D0A69EE000A1FED4E1A80EE74
:1007D000810A30EE280AF0EE409A0DF051F8B1EEA1
:1007E000400AC04880ED060A1FED570A69EE000A6C
:1007F0001FED581A80EE810A30EE280AF0EE409A7A
:100800000CF030FFB1EE400AB64880ED070A1FED4C
:100810005D0A80ED080ABDEC068B10BD10B52DED0C
:10082000068BB0EE408AF0EE608AB0EE419AF0EEB0
:10083000619A1FED690A28EE000A5FED6A0A80EEF0
:10084000201AB0EE41AAB0EE4A0A0CF00BFFF0EE0F
:1008500040AA1FED710A69EE800A1FED721A80EE40
:10086000810A78EE890A30EE200AB0EE40AA0CF038
:10087000F9FE2AEE800A9C4880ED000A1FED7C0AF2
:1008800028EE000A5FED7D0A80EE201AB0EE41AA44
:10089000B0EE4A0A0CF0E6FEF1EE40AA1FED840A23
:1008A00069EE800A1FED851A80EE810A78EE890ACA
:1008B00030EE200AB0EE40AA0CF0E2FF2AEE800AE9
:1008C000894880ED010A1FED8E0A28EE000A5FEDCF
:1008D0008F0A80EE201AB0EE41AAB0EE4A0A0CF060
:1008E000CFFFB1EE400A804880ED020A1FED980A62
:1008F00028EE000A5FED990A80EE201AB0EE41AAB8
:10090000B0EE4A0A0CF0BCFFF0EE40AA1FEDA00AC0
:1009100069EE800A1FEDA11A80EE810A78EE890A3D
:1009200030EE200AB0EE40AA0CF09CFE2AEE800ABF
:100930006D4880ED030A1FEDAA0A28EE000A5FED5C
:10094000AB0A80EE201AB0EE41AAB0EE4A0A0CF0D3
:1009500097FFF1EE40AA1FEDB20A69EE800A1FED83
:10096000B31A80EE810A78EE890A30EE200AB0EEE2
:1009700040AA0CF085FF2AEE800A5B4880ED040A4D
:100980001FEDBD0A28EE000A5FEDBE0A80EE201AB8
:10099000B0EE41AAB0EE4A0A0CF064FE524880ED77
:1009A000050A1FEDC50A69EE800A1FEDC61A80EE22
:1009B000810A78EE890A30EE200AB0EE40AA0CF0E7
:1009C0005FFFB1EE400A484880ED060A1FEDD00AED
:1009D00069EE800A1FEDD11A80EE810A78EE890A4D
:1009E00030EE200AB0EE40AA0CF03CFEB1EE400A18
:1009F0003D4880ED070A1FEDD70A80ED080ABDECDF
:100A0000068B10BD1FEDDB0A384880ED000A1FED94
:100A1000DD0A80ED010A1FEDDF0A80ED020A1FEDFD
:100A2000E10A334880ED000A9FED320A80ED010AA9
:100A30001FEDE60A80ED020A9FED2F0A2F4880ED98
:100A4000000A1FEDEA0A80ED010A1FEDEC0A80EDB5
:100A5000020A9FED2B0A2B4880ED000A1FEDF10AD8
:100A600080ED010ABAEE030A80ED020A9FED260A24
:100A7000264880ED070A9FED260A80ED0D0A9FEDBE
:100A8000250A80ED130A9FED240A80ED190ABFEEB6
:100A9000000A80ED060ABFEE000A80ED0C0AB7EEF0
:100AA000000A80ED120ABFEE000A80ED180A00204D
:100AB0001A4908817047F0B52DED108B85B0B0EE66
:100AC000408AF0EE608AB0EE419A04460D46164622
:100AD0009FED130A28EE000ADFED120A80EE201ABD
:100AE00022E00000CC000020F000002014010020D3
:100AF00020010020CDCCEE4200006B432C010020F1
:100B000033F3844338010020D95F963E440100202E
:100B100013728041A8D70542A47071C1A4020020BD
:100B2000DC0F494000003443B0EE41AAB0EE4A0A5F
:100B30000CF098FD8DED040A38EE890A8DED030A5C
:100B40009DED030A5FED0A0A20EE200A5FED0B0A15
:100B500080EE201AB0EE41AAB0EE4A0A0CF082FDF7
:100B6000F0EE409A1FED120A28EE000A5FED130A1C
:100B700080EE201AB0EE41AAB0EE4A0A0CF080FED8
:100B80008DED020A1FED1A0A28EE800A5FED1B0A9E
:100B900080EE201AB0EE41AAB0EE4A0A0CF062FDD7
:100BA0008DED010A38EE890A8DED000A1FED240A49
:100BB00028EE000A5FED250A80EE201AB0EE41AA69
:100BC000B0EE4A0A0CF04EFD5FED330A20EE200A2B
:100BD00060EE29AA1FED2E0A28EE000A5FED2F0A0B
:100BE00080EE201AB0EE41AAB0EE4A0A0CF048FEA0
:100BF000FAEE030A40EEC0AA1FED370A28EE000AFB
:100C00005FED380A80EE201AB0EE41AAB0EE4A0A33
:100C10000CF028FD5FED480A20EE20BA1FED400AD7
:100C200028EE800A5FED410A80EE201AB0EE41AA5C
:100C3000B0EE4A0A0CF016FD4BEE00AA1FED480A72
:100C400028EE000A5FED490A80EE201AB0EE41AAB4
:100C5000B0EE4A0A0CF014FE5FED5A0A40EEC0AA4C
:100C6000C4ED00AA1FED520A28EE000A5FED530AF8
:100C700080EE201AB0EE41AAB0EE4A0A0CF000FE57
:100C80005FED610A20EE200A60EE29AA1FED5C0AE2
:100C900028EE000A5FED5D0A80EE201AB0EE41AA50
:100CA000B0EE4A0A0CF0DEFCFAEE030A40EE80AA2F
:100CB0001FED650A28EE000A5FED660A80EE201A35
:100CC000B0EE41AAB0EE4A0A0CF0DAFD5FED760A0A
:100CD00020EE20BA1FED6E0A28EE800A5FED6F0A43
:100CE00080EE201AB0EE41AAB0EE4A0A0CF0BAFC2F
:100CF0004BEE00AA1FED760A28EE000A5FED770A98
:100D000080EE201AB0EE41AAB0EE4A0A0CF0AAFC1E
:100D10005FED880A40EE80AAC5ED00AA1FED800AAB
:100D200028EE800A10EE101A08460EF0AFF841ECDB
:100D30001E0B9FEDFB0B53EC102B0DF08FFC41ECC9
:100D40001D0BB0EE4D0AF0EE6D0A0CF035FDB0EE65
:100D500040CAF0EE60CA9FEDF40B53EC102B51EC3F
:100D60001C0B0DF069FE41EC1A0B9DED000A5FEDC6
:100D7000940A20EE200A5FED950A80EE201A11EE0B
:100D8000107A38460EF082F841EC1D0BB0EE4D0A99
:100D9000F0EE6D0A0CF010FDB0EE40CAF0EE60CA45
:100DA0009FEDE30B53EC102B51EC1C0B0DF044FEAC
:100DB00041EC1B0B53EC1A2B0DF07EFF41EC1F0B8B
:100DC0000DF066FB3060002005B0BDEC108BF0BD6F
:100DD00070B52DED028B0446B0EE408A0D4600261C
:100DE00000EE104AB8EE400A04EB4400D24901EB91
:100DF000C00080ED050A04EB440001EBC00080ED6B
:100E0000028ACE48007818B10120BDEC028B70BD7B
:100E10000CB1042C01D90220F7E7B7EE000AB4EEBA
:100E2000C08AF1EE10FA01DD0320EEE71DB1012DBD
:100E300001D00420E9E7E0B204F082FF0646A6B143
:100E40004DB9D6ED480A70EE880AB0EE600AE0B2FD
:100E500006F0D7FA0BE0D6ED480A70EEC80AB0EEFD
:100E6000600AE0B206F0CDFA01E00520CDE70020EF
:100E7000CBE710B50024B248007810B30020B04989
:100E8000087001240BE00021204604F072FF00B935
:100E900003E004F10A00C0B210BD601CC4B2052C0E
:100EA000F1DB01240BE00021204605F0BEFF00B974
:100EB00003E004F11400C0B2EEE7601CC4B2052CDC
:100EC000F1DB0020E8E770B52DED028B0446B0EEB3
:100ED000408AF0EE608A0025E0B204F031FF05465A
:100EE000002D48D000EE104AB8EE400A04EB440052
:100EF000914901EBC00080ED050A04EB440001EBD1
:100F0000C00080ED038A04EB440001EBC00090EDCB
:100F1000030ADFED8C0A80EE201A04EB440001EB9B
:100F2000C00080ED021A04EB440001EBC000C0EDEC
:100F3000048A012C06D0022C09D0032C0CD0042CDE
:100F400014D10EE0012180480AF030FC0EE00121AE
:100F50007E480AF02BFC09E001217D480AF026FCBE
:100F600004E001217B480AF021FC00BF00BF002003
:100F7000BDEC028B70BD6420FAE710B52DED0C8B33
:100F8000B0EE408AF0EE608AB0EE419AF0EE619ADF
:100F9000B0EE42AAF0EE62AAB0EE43BAF0EE63BA47
:100FA000B2EE040AC8EE000A634890ED061A90ED0E
:100FB000070A00EE810AB0EE40CAB2EE040AC8EE9B
:100FC000800A90ED0C1A90ED0D0A00EE810AF0EE09
:100FD00040CAB2EE040AC9EE000A90ED121A90ED72
:100FE000130A00EE810AB0EE40DAB2EE040AC9EE4E
:100FF000800A90ED181A90ED190A00EE810AF0EEC1
:1010000040DAF0EE4C0AB0EE4A0A0120FFF75BFF2F
:10101000F0EE6C0AB0EE6A0A0220FFF754FFF0EE21
:101020004D0AB0EE4B0A0320FFF74DFFF0EE6D0ABC
:10103000B0EE6B0A0420FFF746FF0020BDEC0C8BDE
:1010400010BD2DE9F04706460F469046994600240C
:10105000002501245CE0204604F072FE0546E5B35D
:10106000012C06D0022C16D0032C26D0042C4AD1F9
:1010700037E095ED480A3048D0ED070A30EE600AB7
:10108000F2EE040A20EE200AD0ED060A80EE201AC5
:1010900086ED001A38E095ED480A2748D0ED0D0A94
:1010A00030EE600AF2EE040A20EE200AD0ED0C0ABF
:1010B00080EE201A87ED001A26E095ED480A1E48BA
:1010C000D0ED130A30EE600AF2EE040A20EE200A98
:1010D000D0ED120A80EE201A00E016E088ED001A2A
:1010E00012E095ED480A1448D0ED190A30EE600A76
:1010F000F2EE040A20EE200AD0ED180A80EE201A43
:1011000089ED001A00E000BF00E003E0601CC4B2FB
:10111000052CA0DB00BF052C1ED00120BDE8F08708
:1011200000000000008066400000000000606D408C
:1011300000000060669E70C0440100200200002094
:101140007200002000007A440004004000080040C3
:10115000001C0040002000400020BDE8F0872DE981
:10116000F04F2DED108BA5B0F0EE40AAB0EE608AE6
:10117000F0EE41BA81460E4617469A469FEDFE0AAA
:101180008DED230A9FEDFC0A8DED220A9FEDFA0AF0
:101190008DED210A9FEDF80A8DED200A20AB21AAE2
:1011A00022A923A8FFF74DFF1F901F9840B1F3A07D
:1011B0000BF03EF8012025B0BDEC108BBDE8F08FA0
:1011C0009FEDF70AF0EE408A00201E906AEEAA0A10
:1011D00048EE080A48EEE80AB0EE600A0CF018FC87
:1011E000B0EE40DA2DEE080A08EEEA0A6AEEAA0A24
:1011F00048EE080A80EE201AF0EE41FA1FEE900A3F
:101200000DF044FE21F000419FEDE60B53EC102B56
:101210000DF010FD01D20220CDE7B0EE6F0A0CF008
:101220008BF9B0EE409AB0EE490ADFEDE00A60EECD
:10123000200A9FEDDF1A80EE810ADFEDDC0AB4EEB2
:10124000E00AF1EE10FA04DD9FEDDA0A39EE400A09
:1012500007E09FEDD60A69EE000A9FEDD51A80EEF1
:10126000810A8DED1A0A9FEDD10A69EE000A9FED01
:10127000D01A80EE810ADFEDCD0A30EEC00ADFED34
:10128000CB0AB4EEE00AF1EE10FA10DD9FEDC70ACA
:1012900069EE000A9FEDC61A80EE810ADFEDC30AEF
:1012A00030EEC00ADFEDC30A30EE600A0BE09FEDBE
:1012B000BF0A29EE000ADFEDBE0A80EE201A9FED7C
:1012C000BB0A30EE410A8DED1B0AB1EE4D0AB0EEBD
:1012D00040DA2DEE080A08EEEA0A6AEEAA0A48EE9B
:1012E000080A80EE201AF0EE41FAB0EE6F0A0CF018
:1012F00023F9B0EE409A9FEDAD0A29EE000A9FED6A
:10130000AC1AC0EE010A9FEDA90AF4EEC00AF1EE94
:1013100010FA04DD9FEDA70A39EE400A07E09FEDC1
:10132000A30A69EE000A9FEDA21A80EE810A8DEDF4
:101330001C0A9FED9E0A69EE000A9FED9D1A80EE41
:10134000810ADFED9A0A30EEC00ADFED980AB4EEAA
:10135000E00AF1EE10FA10DD9FED940A69EE000A42
:101360009FED931A80EE810ADFED900A30EEC00AFD
:10137000DFED900A30EE600A0BE09FED8C0A69EE1B
:10138000000A9FED8B1A80EE810ADFED880A30EEAD
:10139000C00A8DED1D0A9DED1D0A10EE101A0846BB
:1013A0000DF074FD41EC1C0B9DED1C0A10EE101AA3
:1013B00008460DF06BFDCDE90A019DED1B0A10EE0C
:1013C000101A08460DF062FDCDE908019DED1A0ADC
:1013D00010EE101A08460DF059FDCDE906018DED0D
:1013E00004CB9DED0A0B8DED020B9DED080B8DEDF1
:1013F000000B9DED060B53EC102B6FA00AF018FFAD
:10140000012401259FED75EA00BF37E01EEE100AAA
:101410000DF03CFD41EC1C0B19A800EB840090ED95
:10142000000ADDED230A30EEC00A10EE101A08465D
:101430000DF02CFD21F0004153EC1C2BCDE90A01ED
:101440009DED0A0B51EC100B0DF0BAFA14D22546A3
:1014500019A800EB840090ED000ADDED230A30EEC0
:10146000C00A10EE101A08460DF010FD21F00041E0
:101470000DF00EF80EEE100A601CC4B2052CC5DB90
:1014800019A850F825802AEEAA0A08EE080A08EEE4
:10149000E80AB5EEC00AF1EE10FA01D203208AE69E
:1014A000012D01D0022D0ED101201E906AEEAA0A54
:1014B00048EE080A48EEE80AB0EE600A0CF0A8FA16
:1014C000B0EE40DA10E04FF0FF301E906AEEAA0A4C
:1014D00048EE080A48EEE80AB0EE600A0CF098FA06
:1014E000B1EE400AB0EE40DA40460DF0CFFC41ECE0
:1014F0001C0B53EC1C2B3AA00AF09AFEC9F8008092
:101500002AEEAA0A08EE080A0BEEAB0A08EEE80A71
:10151000DFED380A30EE600ADFED370A70EE600A60
:10152000B0EE001A80EE810A9FED341AC0EE010A77
:101530009FED330A80EE801A11EE10BA58460DF076
:10154000A5FC21F000419FED170B53EC102B0DF083
:1015500071FB01D204202EE62AEEAA0A08EE080A40
:101560000BEEAB0A08EEE80ADFED220A30EE600A65
:10157000DFED210A46E0000000000000706F736993
:1015800074696F6E20746F20616E676C6520636193
:101590006C63756C617465206572726F720A00000D
:1015A000CDCCDB42000000000000F03F00003443DF
:1015B000DC0F49400000B443746D7020743120206A
:1015C0002020256620202020202025662020202085
:1015D00025662020202025660A0000000000B9436F
:1015E0007468657461203120202020202020256629
:1015F0000A00000000B9574767178A4700006B438D
:1016000033F3844370EE600AB0EE001A80EE810A74
:101610001FED061AC0EE010A1FED070A80EE801AC0
:10162000B0EE41CAB0EE4C0A0BF0FAFEB0EE40BA92
:10163000B0EE4B0A5FED230A20EE200A5FED240A8C
:1016400080EE201A8DED171AB0EE4B0A5FED290AD5
:1016500020EE200A1FED2A1AC0EE010A1FED2D0A06
:1016600030EE800A5FED2F0AB4EEE00AF1EE10FAD8
:101670000ADD1FED320A2BEE000A5FED330A80EE21
:10168000201AB1EE410A0BE01FED380A2BEE000ADA
:101690001FED391AC0EE010A1FED3C0A30EE800A38
:1016A0008DED180A9DED180A10EE101A08460DF07F
:1016B000EDFB41EC1C0B9DED170A10EE101A0846CD
:1016C0000DF0E4FBCDE90A018DED00CB9DED0A0B99
:1016D00053EC102BFEA00AF0ABFD9DED180ADDEDDA
:1016E000210A30EEC00A10EE101A08460DF0CEFBAB
:1016F00021F0004141EC1C0B9DED170ADDED210AA4
:1017000030EEC00A10EE101A08460DF0BFFB21F0B3
:10171000004153EC1C2BCDE90A019DED0A0B51EC65
:10172000100B0DF04DF902D29DED170A01E09DED71
:10173000180AB0EE40BA1BEE100A0DF0A7FB41EC00
:101740001C0B53EC1C2BE7A00AF072FD87ED00BACE
:101750001FED690A2BEE000A5FED6C0A80EE201A7D
:10176000F0EE41CAB0EE6C0A0BF07CFFDFEDE20A4E
:101770009FEDE21A41EE000AB0EE60CAB0EE4C0AEC
:101780000CF046F9F0EE40DA8DEE2D0A10EE10BAAC
:1017900058460DF07BFB21F000411FED7E0B53EC12
:1017A000102B0DF047FA25D31FED7F0A2BEE000A10
:1017B0005FED820A80EE201A8DED0B1A9DED0B0A6B
:1017C0000BF050FFF0EE400A1FED740A1FED741A83
:1017D00001EE200AC0EE2D0A10EE90BA58460DF028
:1017E00055FB21F000411FED910B53EC102B0DF038
:1017F00021FA01D20520DEE48DEE2D0AB0EE40CABA
:101800000BF00EFEB0EE40AA1FED970A2BEE000A79
:101810005FED9A0A80EE201AF0EE41CAB0EE6C0A33
:101820000BF020FF5FED8B0A1FED8B1A41EE000AD3
:1018300080EEAD0AB0EE40CA0BF0F2FDF0EE409A39
:10184000B0EE690A3AEE400A5FEDA70AB4EEE00A8C
:10185000F1EE10FA06DD3AEE690ADFEDA90A30EE84
:10186000600A01E03AEE690A8DED120A3AEE290AA1
:101870005FEDB10AB4EEE00AF1EE10FA06DD3AEEE1
:10188000290ADFED9F0A30EE600A01E03AEE290AEC
:101890008DED130AB1EE4A0A30EE690A5FEDBC0A1B
:1018A000B4EEE00AF1EE10FA08DDB1EE4A0A30EECD
:1018B000690ADFED930A30EE600A03E0B1EE4A0AEE
:1018C00030EE690A8DED140AB1EE4A0A30EE290AAB
:1018D0005FEDC90AB4EEE00AF1EE10FA08DDB1EEF0
:1018E0004A0A30EE290ADFED860A30EE600A03E08C
:1018F000B1EE4A0A30EE290A8DED150A9DED150A62
:101900005FEDD60A20EE200A5FEDD70A80EE201A9E
:1019100011EE10BA58460DF0B9FA41EC1C0B9DEDD2
:10192000140A5FEDDE0A20EE200A5FEDDF0A80EE8A
:10193000201A11EE10BA58460DF0A8FACDE90A01A6
:101940009DED130A5FEDE70A20EE200A5FEDE80A3D
:1019500080EE201A11EE10BA58460DF097FACDE934
:1019600008019DED120A5FEDEF0A20EE200A5FEDFF
:10197000F00A80EE201A11EE10BA58460DF086FAE1
:10198000CDE906018DED04CB9DED0A0B8DED020B2B
:101990009DED080B8DED000B9DED060B53EC102B10
:1019A00058A00AF045FC5FEDF3EA012447E01EEE83
:1019B000900A0DF06BFA41EC1C0B11A800EB8400AF
:1019C000D0ED000A9FED550A60EE800A9FED541A93
:1019D00080EE810ADDED220A30EEC00A10EE10BA68
:1019E00058460DF053FA21F0004153EC1C2BCDE981
:1019F0000A019DED0A0B51EC100B0CF0E1FF1CD21B
:101A0000254611A800EB840090ED000ADFED430AA3
:101A100060EE200A9FED421A80EE810ADDED220A77
:101A200030EEC00A10EE10BA58460DF02FFA21F031
:101A300000410CF02DFD0EEE900A601CC4B2052C86
:101A4000B5DB11A800EB850090ED000ADFED330A4D
:101A500020EE200ADFED320A80EE201A11EE10BAD5
:101A600058460DF013FA41EC1C0B53EC1C2B2DA027
:101A70000AF0DEFB11A800EB850090ED000ADFED17
:101A8000270A20EE200ADFED260A80EE201A86EDD6
:101A9000001A96ED000ADFED260A30EEC00AD7EDF7
:101AA000000A30EE600A8DED0D0A96ED000ADFEDBA
:101AB0001B0A30EEC00AD7ED000A30EE600A8DED49
:101AC0000E0A96ED000ADFED1B0A30EEC00A33E085
:101AD0007468657461203320202025662C202566DB
:101AE0000A000000746865746120332020202020E3
:101AF000202025660A000000E7F3F5478016F4472A
:101B0000DC0FC94074322025662C20202025662059
:101B10002020256620202025660A0000000034438E
:101B2000DC0F4940743220697320202025660A00AA
:101B3000000000000000B443D7ED000A30EE600A58
:101B40008DED0F0A9FEDF1FA012437E01FEE100A28
:101B50000DF09CF941EC1C0B0CA800EB840090EDFF
:101B6000000ADDED200A30EEC00A10EE101A084619
:101B70000DF08CF921F0004153EC1C2BCDE90A014A
:101B80009DED0A0B51EC100B0CF01AFF14D22546F8
:101B90000CA800EB840090ED000ADDED200A30EE89
:101BA000C00A10EE101A08460DF070F921F000413D
:101BB0000CF06EFC0FEE100A601CC4B2042CC5DBE6
:101BC0000CA800EB850090ED000A10EE101A0846F4
:101BD0000DF05CF941EC1C0B53EC1C2BCCA00AF073
:101BE00027FB0CA800EB850090ED000A8AED000AA7
:101BF00000BF002053E42DE9F04399B0814621E075
:101C0000C64800680078FF2806D1C44800684068CC
:101C10000078FF2800D116E0C0480068C049096874
:101C2000884203D1012019B0BDE8F0830020BB49F0
:101C300009680870B94909684870B8480068406880
:101C4000B6490860DCE700BFB44800680078FF28A8
:101C50007DD1B248006840680078FF28F8D10120A3
:101C6000B049087000250020AC4909680870AB49EC
:101C700009684870A94800684068A84908600020C1
:101C800009680870A54909684870A4480068406858
:101C9000A249086015E04FF00008022007F0FCFBA5
:101CA000414608F1010828290ADD00209B490968FE
:101CB00048709A4800684068984908600220B2E776
:101CC00000BF9648006840780028E4D09348006838
:101CD00002782846691CCDB20DF8002000208F49FB
:101CE000096848708D48006840688C49086015E0B4
:101CF0004FF00008022007F0CFFB414608F1010831
:101D000028290ADD00208549096848708348006851
:101D1000406882490860022085E700BF7F4800686C
:101D200040780028E4D07D48006802782846691C85
:101D3000CDB20DF800200020784909684870774836
:101D400000684068754908609DF8010000E0ABE05C
:101D50009DF8001040EA0124062C0DDA00206F499E
:101D6000096848706D48006840686C4908606EA05A
:101D70000AF05EFA032056E72BE04FF0000813E06C
:101D8000022007F089FB4046411C1FFA81F82828F1
:101D90000ADD0020614909684870604800684068B1
:101DA0005E49086002203EE75C48006840780028F1
:101DB000E6D05A48006800780DF805000020574921
:101DC0000968487055480068406854490860681CB4
:101DD000C5B2A542D1DB201F81B26846FEF77AFA70
:101DE0000646314655A00AF023FA201F1DF80000D0
:101DF0000106E01E1DF8000041EA0041A01E1DF88A
:101E0000000041EA0020611E1DF8011040EA0107B0
:101E1000BE4204D04DA00AF00BFA042003E70020D4
:101E200040490870201F88809DF8020040EA002089
:101E300008819DF8040048810846408901280BDB91
:101E400008464089042807DC0846418942A00AF078
:101E5000EFF90320334948803248408905280BDBDD
:101E600030484089082807DC2E48418943A00AF001
:101E7000DFF901202B4948802A484089092807D1E9
:101E80002848418945A00AF0D3F902202549488015
:101E9000062C07D12348418948A00AF0C9F900203F
:101EA000204948800020BEE600201C4909680870CF
:101EB0001A4909684870194800684068174908605D
:101EC0000020B0E610B546A00AF0B2F94DA00AF025
:101ED000AFF955A00AF0ACF95CA00AF0A9F965A029
:101EE0000AF0A6F96CA00AF0A3F973A00AF0A0F911
:101EF00079A00AF09DF97FA00AF09AF910BD11B5FA
:101F00009DB01D98332883F0F88101E10000B943AA
:101F1000743420697320202025660A0020000020E8
:101F200024000020A402002064617461206C656EAE
:101F3000677468206572726F720A00004352432012
:101F4000726573756C74202025780A0063726320B3
:101F50006572726F720A0000636F6E74726F6C202C
:101F60006672616D652C2066756E6374696F6E2094
:101F7000636F6465202025640A0000007265616457
:101F8000206672616D652C2066756E6374696F6E74
:101F900020636F6465202025640A00007365742047
:101FA0006672616D652C2066756E6374696F6E2054
:101FB000636F6465202025640A0000006865617213
:101FC0007462656174206672616D652C2066756E41
:101FD0006374696F6E20636F6465202025640A0056
:101FE0000D0ABBB6D3ADCAB9D3C320494E4E464F36
:101FF000532053434120C7FDB6AFB2E2CAD4A3A1D8
:102000000D0A0000CFEACFB8CDA8D0C5D0ADD2E937
:10201000B2CEBCFB20494E4E464F532057494B4948
:1020200020A3A10D0A000000B7A2CBCD203120C211
:10203000D6D1AFD7DCCFDFC9CFB5C4D6B4D0D0C6E8
:10204000F7494420A3A10D0A00000000B7A2CBCDA0
:10205000203220CAB9D3C3C4ACC8CF4944B3F5CAEF
:10206000BCBBAF534341BFD8D6C6C6F720A3A10D12
:102070000A000000B7A2CBCD203320BDF8C8EBCEBC
:10208000BBD6C3B9E9C1E3B2E2CAD4B3CCD0F22023
:10209000A3A10D0A00000000B7A2CBCD203420BDC3
:1020A000F8C8EBD5FDB7B4D7AAB2E2CAD4B3CCD046
:1020B000F220A3A10D0A0000B7A2CBCD203520BD90
:1020C000F8C8EBB8DFB5CDCBD9B2E2CAD4B3CCD027
:1020D000F220A3A10D0A0000B7A2CBCD203620BD6F
:1020E000ABD6B4D0D0C6F7B9D8BBFA20A3A10D0A9D
:1020F00000000000B7A2CBCD203720CFD4CABEB09D
:10210000EFD6FAD0C5CFA220A3A10D0A000000008F
:10211000DFE810F0F31833003D004A00510058008A
:102120005F00F318F318F318680074007A00920047
:10213000AA00AB00B200B900C000C700CE00D500B5
:10214000DC00E300EB00F300060119012C013F0164
:102150005201650178018B019E01B101C401920217
:10216000630367048D05DC07E209B60B7F0D5A0F88
:1021700033111613F31406150B17D2A00AF058F8F2
:1021800003F094FCD4A00AF053F803F0B9B8D6A039
:102190000AF04EF803F096FC4FF4FA7007F0C4F919
:1021A000D5A00AF045F8F0E7D8A00AF041F8DDA084
:1021B0000AF03EF8E9E7E1A00AF03AF8E6A00AF0F2
:1021C00037F8E2E7EAA00AF033F8F0A00AF030F8B6
:1021D000DBE7F4A00AF02CF805F068F8F6A00AF0A6
:1021E00027F8D2E7F9A00AF023F803F05FFC03F028
:1021F00069FC4FF47A7007F097F9C6E7F6A00AF089
:1022000017F805F053F8C0E7F6A00AF011F801221C
:102210000621104605F05BF801220621022005F098
:1022200056F801220621032005F051F8012206216B
:10223000042005F04CF8A8E7F3A009F0F9FF01220B
:102240000321104605F043F801220321022005F086
:102250003EF801220321084605F039F80122032146
:10226000042005F034F890E78FE700219FEDEE0A97
:102270000420FEF7ADFD88E701219FEDEB0A042065
:10228000FEF7A6FD81E700219FEDE70A0320FEF798
:102290009FFD7AE701219FEDE40A0320FEF798FDF8
:1022A00073E700219FEDE00A0220FEF791FD6CE745
:1022B00001219FEDDD0A0220FEF78AFD65E700217E
:1022C0009FEDD90A0120FEF783FD5EE701219FED16
:1022D000D60A0846FEF77CFD57E7DFEDD40A9FEDEE
:1022E000D40A0420FEF7EFFD4FE7DFEDD20A9FEDA1
:1022F000D00A0420FEF7E7FD47E7DFEDCE3A9FED79
:10230000CD3ADFEDCC2AB2EE042ADFEDCA1A9FEDFA
:10231000C91ADFEDC80AB2EE040AFEF72EFE34E752
:10232000DFEDC43A9FEDC33ADFEDC22AB2EE042AD4
:10233000DFEDC01A9FEDBF1ADFEDBE0A9FEDBD0AAB
:10234000FEF71BFE21E7DFEDBB3A9FEDBA3ADFED6A
:10235000B92AB2EE042ADFEDB71A9FEDB61ADFED07
:10236000B50ABAEE040AFEF708FE0EE7DFEDB13A51
:102370009FEDB03AF2EE042A9FEDAE2ADFEDAD1AE2
:102380009FEDAC1AF2EE040A9FEDAA0AFEF7F5FDE6
:10239000FBE6DFEDA83A9FEDA73AF2EE042A9FEDA7
:1023A000A52ADFEDA41A9FEDA31ADFEDA20A9FED87
:1023B000A10AFEF7E2FDE8E6DFED9E3A9FED9D3AC9
:1023C000F2EE042A9FED9B2ADFED9A1A9FED991AEF
:1023D000FAEE040A9FED970AFEF7CFFDD5E6DFED92
:1023E000953AB2EE043ADFED932A9FED922ADFEDA3
:1023F000911AB2EE041ADFED8F0A9FED8E0AFEF7F6
:10240000BCFDC2E6DFED8B3AB2EE043ADFED892A7D
:102410009FED882ADFED871A9FED861ADFED850A8A
:102420009FED840AFEF7A9FDAFE6DFED823AB2EE3A
:10243000043ADFED802A9FED7F2ADFED7E1ABAEEA7
:10244000041ADFED7C0A9FED7B0AFEF796FD9CE601
:10245000F2EE043A9FED773ADFED762A9FED752A8A
:10246000F2EE041A9FED731ADFED720A9FED710A06
:10247000FEF783FD89E6F2EE043A9FED6E3ADFED5A
:102480006D2A9FED6C2ADFED6B1A9FED6A1ADFED66
:10249000690A9FED680AFEF770FD76E6F2EE043AEF
:1024A0009FED643ADFED632A9FED622AFAEE041A8B
:1024B0009FED601ADFED5F0A9FED5E0AFEF75DFD9E
:1024C00063E600000D0AD6B4D0D0C2D6D1AFB3CCEB
:1024D000D0F2A3A10D0A0000C2D6D1AFBDE1CAF867
:1024E000A3A10D0A000000000D0A534341B3F5CA31
:1024F000BCBBAFA3A10D0A00534341B3F5CABCBB9B
:10250000AFBDE1CAF8A3A10D0A0000000D0ABDF895
:10251000C8EBCEBBD6C3B9E9C1E3B2E2CAD4A3A12A
:102520000D0A0000CEBBD6C3B9E9C1E3B2E2CAD4FA
:10253000BDE1CAF8A3A10D0A000000000D0ABDF814
:10254000C8EBD5FDB7B4D7AAC7D0BBBBB2E2CAD4DB
:10255000A3A10D0A00000000D5FDB7B4D7AAC7D0CB
:10256000BBBBB2E2CAD4BDE1CAF8A3A10D0A000008
:102570000D0ABDF8C8EBB8DFB5CDCBD9C7D0BBBB12
:10258000B2E2CAD4A3A10D0A00000000B8DFB5CDA5
:10259000CBD9C7D0BBBBB2E2CAD4BDE1CAF8A3A1B4
:1025A0000D0A00000D0AD6B4D0D0C6F7B9D8BBFAD0
:1025B000A3A10D0A00000000D6B4D0D0C6F7B9D848
:1025C000BBFABDE1CAF8A3A10D0A000073746172E1
:1025D0007420616C6C200A00636C6F736520616C01
:1025E0006C200A007772697465206D6F746F7220B9
:1025F000746F20706F736974696F6E2053206D6FF4
:102600006465200A000000007772697465206D6FB0
:10261000746F7220746F20706F736974696F6E20AD
:102620006D6F6465200A0000CDCCCC3D00001042E7
:102630000000C8420000000018AB19AA1AA91BA884
:10264000FEF7FFFC1790179818B1F6A009F0F0FDFF
:10265000C2E01B980CF01AFC21F000419FEDFD0B2D
:1026600053EC102BCDE912019DED120B51EC100B28
:102670000CF0A6F902D21FED110A01E09DED1B0A34
:102680008DED1B0A1A980CF001FC21F000419FED22
:10269000F10B53EC102BCDE912019DED120B51EC17
:1026A000100B0CF08DF902D21FED1E0A01E09DED1A
:1026B0001A0A8DED1A0A19980CF0E8FB21F0004176
:1026C0009FEDE40B53EC102BCDE912019DED120BA5
:1026D00051EC100B0CF074F902D21FED2A0A01E044
:1026E0009DED190A8DED190A18980CF0CFFB21F019
:1026F00000419FEDD80B53EC102BCDE912019DED5D
:10270000120B51EC100B0CF05BF902D21FED370AE3
:1027100001E09DED180A8DED180A1FED3A0A8DEDC6
:10272000160A1FED3C0A8DED150A1FED3E0A8DEDD0
:10273000140A18980CF0AAFBCDE9120119980CF0B4
:10274000A5FBCDE910011A980CF0A0FBCDE90E0114
:102750001B980CF09BFBCDE90C01DDE91201CDE9E2
:102760000401DDE91001CDE90201DDE90E01CDE949
:1027700000019DED0C0B53EC102BB8A009F058FD97
:1027800014AA15A916A8DDED181A9DED191ADDED8C
:102790001A0A9DED1B0AFEF78EF914980CF076FBD1
:1027A000CDE9120115980CF071FBCDE910011698D6
:1027B0000CF06CFBCDE90E01DDE91201CDE902015F
:1027C000DDE91001CDE900019DED0E0B53EC102B5E
:1027D000A6A009F02DFD00BFD7E418AB19AA1AA9CD
:1027E0001BA8FEF72EFC1790179818B18DA009F0C2
:1027F0001FFDF5E01B980CF049FB21F000419FED17
:10280000950B53EC102BCDE912019DED120B51EC01
:10281000100B0CF0D5F802D21FED7A0A01E09DED05
:102820001B0A8DED1B0A1A980CF030FB21F00041B9
:102830009FED880B53EC102BCDE912019DED120B8F
:1028400051EC100B0CF0BCF802D21FED860A01E02F
:102850009DED1A0A8DED1A0A19980CF017FB21F05C
:1028600000419FED7C0B53EC102BCDE912019DED47
:10287000120B51EC100B0CF0A3F802D21FED930ACF
:1028800001E09DED190A8DED190A18980CF0FEFA79
:1028900021F000419FED6F0B53EC102BCDE912019D
:1028A0009DED120B51EC100B0CF08AF802D21FEDCB
:1028B0009F0A01E09DED180A8DED180A1FEDA30A8D
:1028C0008DED160A1FEDA50A8DED150A1FEDA70A5D
:1028D0008DED140A14AA15A916A8DDED181A9DEDA0
:1028E000191ADDED1A0A9DED1B0AFEF7E4F814989B
:1028F0000CF0CCFACDE9120115980CF0C7FACDE92D
:10290000100116980CF0C2FACDE90E01DDE91201B2
:10291000CDE90201DDE91001CDE900019DED0E0BCD
:1029200053EC102B54A009F083FC18980CF0AEFA6D
:10293000CDE9120119980CF0A9FACDE910011A9805
:102940000CF0A4FACDE90E011B980CF09FFACDE92A
:102950000C01DDE91201CDE90401DDE91001CDE949
:102960000201DDE90E01CDE900019DED0C0B53ECF8
:10297000102B49A009F05CFC18AB19AA1AA91BA8D6
:102980009DED141ADDED150A9DED160AFEF7E7FB25
:1029900018980CF07BFACDE9120119980CF076FA30
:1029A000CDE910011A980CF071FACDE90E011B98CF
:1029B0000CF06CFACDE90C01DDE91201CDE904015E
:1029C000DDE91001CDE90201DDE90E01CDE90001EB
:1029D0009DED0C0B53EC102B3AA009F029FC00BF25
:1029E0000BE418AB19AA1AA91BA8FEF72AFB17902B
:1029F000179818B13EA009F01BFC17E11B980CF0CA
:102A000045FA21F000419FED130B53EC102BCDE95B
:102A100014019DED140B51EC100B0BF0D1FF00D203
:102A200084E086E0206572726F72207768696C6559
:102A300020696E2070726F63657373696E672070B2
:102A40006F736974696F6E20746F20616E676C6557
:102A50000A0000007B14AE47E17A843F25662C25EE
:102A6000662C25662C25660A0000000025662C20B1
:102A700025662C2025660A00706F736974696F6E75
:102A80002020203A202025662C20202025662C207E
:102A900020202025660A000063757272656E74201E
:102AA000616E676C652020202020203A202025665A
:102AB0002C20202025662C20202020256620202068
:102AC00025660A007461726765742020616E676C08
:102AD000652020202020203A202025662C20202040
:102AE00025662C20202020256620202025660A002F
:102AF000206572726F72207768696C6520696E203C
:102B000070726F63657373696E6720706F73697439
:102B1000696F6E20746F20616E676C6520696E202E
:102B2000636F6D6D616E642033390A009FEDFD0A9D
:102B300001E09DED1B0A8DED1B0A1A980CF0A6F919
:102B400021F000411FED3D0B53EC102BCDE914019A
:102B50009DED140B51EC100B0BF032FF02D29FEDE8
:102B6000F10A01E09DED1A0A8DED1A0A19980CF090
:102B70008DF921F000411FED490B53EC102BCDE9ED
:102B800014019DED140B51EC100B0BF019FF02D248
:102B90009FEDE40A01E09DED190A8DED190A1898E0
:102BA0000CF074F921F000411FED560B53EC102B83
:102BB000CDE914019DED140B51EC100B0BF000FF4F
:102BC00002D29FEDD80A01E09DED180A8DED180A9A
:102BD000D54AD649D648DDED181A9DED191ADDED16
:102BE0001A0A9DED1B0AFDF766FFCF4800680CF03E
:102BF0004DF9CDE91401CD4800680CF047F9CDE955
:102C00001201CB4800680CF041F9CDE91001DDE973
:102C10001401CDE90201DDE91201CDE900019DEDCC
:102C2000100B53EC102BC3A009F002FB0FE418AB00
:102C300019AA1AA91BA8FEF704FA1790179820B131
:102C4000AFF2202009F0F4FA3FE21B980CF01EF9D5
:102C500021F000411FED810B53EC102BCDE9100149
:102C60009DED100B51EC100B0BF0AAFE02D29FED64
:102C7000AD0A01E09DED1B0A8DED1B0A1A980CF0C0
:102C800005F921F000411FED8D0B53EC102BCDE920
:102C900010019DED100B51EC100B0BF091FE02D2C8
:102CA0009FEDA00A01E09DED1A0A8DED1A0A199810
:102CB0000CF0ECF821F000411FED9A0B53EC102BB7
:102CC000CDE910019DED100B51EC100B0BF078FECF
:102CD00002D29FED940A01E09DED190A8DED190ACB
:102CE00018980CF0D3F821F000411FEDA60B53EC1F
:102CF000102BCDE910019DED100B51EC100B0BF0DA
:102D00005FFE02D29FED870A01E09DED180A8DED6E
:102D1000180A874890ED000AF7EE000A30EE200A04
:102D20008DED110A13AB14AA15A916A87E4C94EDCB
:102D3000001A7E4CD4ED000A9DED110AFEF70FFA41
:102D40001290129800287DD113980CF09FF8CDE9CD
:102D50000C0114980CF09AF8CDE90A0115980CF0C2
:102D600095F8CDE9080116980CF090F8CDE9060128
:102D7000DDE90C01CDE90401DDE90A01CDE902013B
:102D8000DDE90801CDE900019DED060B53EC102BA8
:102D9000AFF2F42009F04CFA9DED160ADDED1B0AA6
:102DA00030EE600A8DED090A09980CF06FF821F0F9
:102DB00000419FED6B0B53EC102BCDE90A019DED0B
:102DC0000A0B51EC100B0BF049FCCDE90C019DED09
:102DD0000C0B51EC100B0BF05BFB11909DED150AE9
:102DE000DDED1A0A30EE600A8DED090A09980CF043
:102DF0004DF821F000419FED5A0B53EC102BCDE91B
:102E00000A019DED0A0B51EC100B0BF027FCCDE9EC
:102E10000C019DED0C0B51EC100B0BF039FB1090DD
:102E20009DED140ADDED190A30EE600A8DED090AF8
:102E300009980CF02BF821F000419FED490B53EC61
:102E4000102B00E03DE1CDE90A019DED0A0B51ECAC
:102E5000100B0BF003FCCDE90C019DED0C0B51ECBC
:102E6000100B0BF015FB0F909DED130ADDED180A0A
:102E700030EE600A8DED090A09980CF007F821F090
:102E800000419FED370B53EC102BCDE90A019DED6E
:102E90000A0B51EC100B0BF0E1FBCDE90C019DEDA1
:102EA0000C0B51EC100B0BF0F3FA0E909DED110A88
:102EB000F3EE0E0AB4EEE00AF1EE10FA02DDB3EE24
:102EC0000E0A01E09DED110A8DED110A9DED100A2B
:102ED000F3EE0E0AB4EEE00AF1EE10FA02DDB3EE04
:102EE0000E0A01E09DED100A8DED100A9DED0F0A0E
:102EF000F3EE0E0AB4EEE00AF1EE10FA02DDB3EEE4
:102F00000E0A01E09DED0F0A8DED0F0A9DED0E0AF0
:102F1000DFED150AB4EEE00AF1EE10FA26DD9FEDC2
:102F2000120A25E0000000003400002030000020DC
:102F30002C000020737461727420706F696E7420AD
:102F4000706F736974696F6E2020203A20202566A7
:102F50002C20202025662C2020202025660A000019
:102F60009A9999999999A93F0000C8429DED0E0A36
:102F70008DED0E0A16980BF089FF21F000419FEDB0
:102F8000F80B53EC102BCDE90C019DED0C0B51EC23
:102F9000100B0BF015FD02D21FED1E0A01E09DED96
:102FA000160A8DED160A15980BF070FF21F00041FE
:102FB0009FEDEB0B53EC102BCDE90C019DED0C0BB1
:102FC00051EC100B0BF0FCFC02D21FED2A0A01E0C1
:102FD0009DED150A8DED150A14980BF057FF21F0A1
:102FE00000419FEDDF0B53EC102BCDE90C019DED63
:102FF0000C0B51EC100B0BF0E3FC02D21FED370A67
:1030000001E09DED140A8DED140A13980BF03EFFBC
:1030100021F000419FEDD20B53EC102BCDE90C01B8
:103020009DED0C0B51EC100B0BF0CAFC02D21FED06
:10303000430A01E09DED130A8DED130A0E980BF083
:1030400025FFCDE90C010F980BF020FFCDE90A0117
:1030500010980BF01BFFCDE9080111980BF016FF3B
:10306000CDE90601DDE90C01CDE90401DDE90A0144
:10307000CDE90201DDE90801CDE900019DED060B76
:1030800053EC102BB8A009F0D3F8DDED0E3A9DED0E
:103090000F3ADDED102A9DED112ADDED131A9DED9D
:1030A000141ADDED150A9DED160AFDF766FFB54809
:1030B00090ED000AF7EE000A30EE200A80ED000ADB
:1030C00002E0B1A009F0B4F800BF89E418AB19AA76
:1030D0001AA91BA8FDF7B5FF1790179820B1AFF2FA
:1030E000BC6009F0A5F8F6E11B980BF0CFFE21F0CB
:1030F00000419FEDAC0B53EC102BCDE910019DED81
:10310000100B51EC100B0BF05BFC02D21FED7B0A95
:1031100001E09DED1B0A8DED1B0A1A980BF0B6FE1F
:1031200021F000419FED9F0B53EC102BCDE91001D6
:103130009DED100B51EC100B0BF042FC02D21FED79
:10314000870A01E09DED1A0A8DED1A0A19980BF015
:103150009DFE21F000419FED930B53EC102BCDE928
:1031600010019DED100B51EC100B0BF029FC02D25D
:103170001FED940A01E09DED190A8DED190A1898CA
:103180000BF084FE21F000419FED860B53EC102BD9
:10319000CDE910019DED100B51EC100B0BF010FC64
:1031A00002D21FEDA00A01E09DED180A8DED180A6C
:1031B000744890ED000AF7EE000A30EE600A8DEDDB
:1031C000110A13AB14AA15A916A8784C94ED001A8D
:1031D000774CD4ED000A9DED110AFDF7C0FF129067
:1031E000129800287ED113980BF050FECDE90C0107
:1031F00014980BF04BFECDE90A0115980BF046FE32
:10320000CDE9080116980BF041FECDE90601DDE994
:103210000C01CDE90401DDE90A01CDE90201DDE996
:103220000801CDE900019DED060B53EC102B61A0C8
:1032300008F0FEFF9DED160ADDED1B0A30EE600A78
:103240008DED090A09980BF021FE21F000411FEDD8
:10325000BC0B53EC102BCDE90A019DED0A0B51EC90
:10326000100B0BF0FBF9CDE90C019DED0C0B51ECB3
:10327000100B0BF00DF911909DED150ADDED1A0AFA
:1032800030EE600A8DED090A09980BF0FFFD21F080
:1032900000411FEDCD0B53EC102BCDE90A019DED44
:1032A0000A0B51EC100B0BF0D9F9CDE90C019DED97
:1032B0000C0B51EC100B0BF0EBF810909DED140A79
:1032C000DDED190A30EE600A8DED090A09980BF060
:1032D000DDFD21F000411FEDDE0B53EC102BCDE99D
:1032E0000A0100E0F2E09DED0A0B51EC100B0BF02F
:1032F000B5F9CDE90C019DED0C0B51EC100B0BF069
:10330000C7F80F909DED130ADDED180A30EE600A44
:103310008DED090A09980BF0B9FD21F000411FED70
:10332000F00B53EC102BCDE90A019DED0A0B51EC8B
:10333000100B0BF093F9CDE90C019DED0C0B51EC4A
:10334000100B0BF0A5F80E909DED110AF3EE0E0A8E
:10335000B4EEE00AF1EE10FA40DDB3EE0E0A3FE003
:103360009A9999999999B93F73706565642020205D
:10337000202566202020256620202025662020206C
:1033800025660A002C0000206E6F20696E7665723B
:103390007365206F7574206F662072616E67650AB1
:1033A000000000007B14AE47E17A843F3400002027
:1033B00030000020616E676C652020202020203ABC
:1033C000202025662C20202025662C20202020254A
:1033D000662020202025660A000000009DED110ACD
:1033E0008DED110A9DED100AF3EE0E0AB4EEE00A1F
:1033F000F1EE10FA02DDB3EE0E0A01E09DED100AC7
:103400008DED100A9DED0F0AF3EE0E0AB4EEE00A00
:10341000F1EE10FA02DDB3EE0E0A01E09DED0F0AA7
:103420008DED0F0A9DED0E0ADFEDFE0AB4EEE00A07
:10343000F1EE10FA02DD9FEDFB0A01E09DED0E0AB0
:103440008DED0E0A0E980BF021FDCDE90C010F98C1
:103450000BF01CFDCDE90A0110980BF017FDCDE92A
:10346000080111980BF012FDCDE90601DDE90C0110
:10347000CDE90401DDE90A01CDE90201DDE9080138
:10348000CDE900019DED060B53EC102BAFF2281097
:1034900008F0CEFEDDED0E3A9DED0F3ADDED102A7F
:1034A0009DED112ADDED131A9DED141ADDED150ABF
:1034B0009DED160AFDF761FDDB4890ED000AF7EE81
:1034C000000A30EE600A80ED000A03E0AFF2481017
:1034D00008F0AEFE00BFF8E518AB19AA1AA91BA8A0
:1034E000FDF7AFFD1790179820B1AFF6C82008F090
:1034F0009FFEC4E11B980BF0C9FC21F000411FEDB9
:10350000570B53EC102BCDE910019DED100B51EC36
:10351000100B0BF055FA02D29FEDC40A01E09DEDAD
:103520001B0A8DED1B0A1A980BF0B0FC21F000412C
:103530001FED640B53EC102BCDE910019DED100B2A
:1035400051EC100B0BF03CFA02D29FEDB80A01E0EF
:103550009DED1A0A8DED1A0A19980BF097FC21F0CF
:1035600000411FED700B53EC102BCDE910019DEDC8
:10357000100B51EC100B0BF023FA02D29FEDAB0AAB
:1035800001E09DED190A8DED190A18980BF07EFCEB
:1035900021F000411FED7D0B53EC102BCDE9100104
:1035A0009DED100B51EC100B0BF00AFA02D29FEDBF
:1035B0009F0A01E09DED180A8DED180A9A4890EDDA
:1035C000000AF3EE0E0A30EE200A8DED110A13AB5D
:1035D00014AA15A916A8964C94ED001A954CD4ED92
:1035E000000A9DED110AFDF7BAFD1290129800280D
:1035F0007DD113980BF04AFCCDE90C0114980BF027
:1036000045FCCDE90A0115980BF040FCCDE9080115
:1036100016980BF03BFCCDE90601DDE90C01CDE984
:103620000401DDE90A01CDE90201DDE90801CDE986
:1036300000019DED060B53EC102BAFF2882008F033
:10364000F7FD9DED160ADDED1B0A30EE600A8DEDEB
:10365000090A09980BF01AFC21F000411FEDC00B7C
:1036600053EC102BCDE90A019DED0A0B51EC100B28
:103670000AF0F4FFCDE90C019DED0C0B51EC100BA1
:103680000AF006FF11909DED150ADDED1A0A30EEE5
:10369000600A8DED090A09980BF0F8FB21F0004152
:1036A0001FEDD10B53EC102BCDE90A019DED0A0B58
:1036B00051EC100B0AF0D2FFCDE90C019DED0C0B83
:1036C00051EC100B0AF0E4FE10909DED140ADDEDB4
:1036D000190A30EE600A8DED090A09980BF0D6FB45
:1036E00021F000411FEDE20B53EC102B00E0C1E094
:1036F000CDE90A019DED0A0B51EC100B0AF0AEFF6B
:10370000CDE90C019DED0C0B51EC100B0AF0C0FE45
:103710000F909DED130ADDED180A30EE600A8DED75
:10372000090A09980BF0B2FB21F000411FEDF40BE0
:1037300053EC102BCDE90A019DED0A0B51EC100B57
:103740000AF08CFFCDE90C019DED0C0B51EC100B38
:103750000AF09EFE0E909DED110AF3EE0E0AB4EEF5
:10376000E00AF1EE10FA02DDB3EE0E0A01E09DED83
:10377000110A8DED110A9DED100AF3EE0E0AB4EE5A
:10378000E00AF1EE10FA02DDB3EE0E0A01E09DED63
:10379000100A8DED100A9DED0F0AF3EE0E0AB4EE3D
:1037A000E00AF1EE10FA02DDB3EE0E0A01E09DED43
:1037B0000F0A8DED0F0A9DED0E0ADFED1A0AB4EE29
:1037C000E00AF1EE10FA02DD9FED160A01E09DED30
:1037D0000E0A8DED0E0A0E980BF058FBCDE90C0188
:1037E0000F980BF053FBCDE90A0110980BF04EFB3C
:1037F000CDE9080111980BF049FBCDE90601DDE99F
:103800000C01CDE90401DDE90A01CDE90201DDE9A0
:103810000801CDE900019DED060B53EC102BAFF232
:10382000B84009E00000C8422C0000200000000061
:10383000340000203000002008F0FAFCDDED0E3AE4
:103840009DED0F3ADDED102A9DED112ADDED131AE5
:103850009DED141ADDED150A9DED160AFDF78DFBA1
:10386000FD4890ED000AF3EE0E0A30EE200A80EDDE
:10387000000A03E0AFF2F04008F0DAFC00BF24E4F5
:1038800018AB19AA1AA91BA8FDF7DBFB179017980C
:1038900020B1AFF6706008F0CBFCB9E11B980BF0DB
:1038A000F5FA21F000419FEDED0B53EC102BCDE923
:1038B00010019DED100B51EC100B0BF081F802D2B2
:1038C0001FED260A01E09DED1B0A8DED1B0A1A98DB
:1038D0000BF0DCFA21F000419FEDE00B53EC102BD4
:1038E000CDE910019DED100B51EC100B0BF068F8B9
:1038F00002D21FED320A01E09DED1A0A8DED1A0A7F
:1039000019980BF0C3FA21F000419FEDD40B53EC52
:10391000102BCDE910019DED100B51EC100B0BF0AD
:103920004FF802D21FED3F0A01E09DED190A8DED1F
:10393000190A18980BF0AAFA21F000419FEDC70B65
:1039400053EC102BCDE910019DED100B51EC100B39
:103950000BF036F802D21FED4B0A01E09DED180A7C
:103960008DED180ABC4890ED000AF3EE0E0A30EE19
:10397000600A8DED110A13AB14AA15A916A8B94C4B
:1039800094ED001AB84CD4ED000A9DED110AFDF734
:10399000E6FB1290129800287DD113980BF076FA6E
:1039A000CDE90C0114980BF071FACDE90A011598D4
:1039B0000BF06CFACDE9080116980BF067FACDE927
:1039C0000601DDE90C01CDE90401DDE90A01CDE9DB
:1039D0000201DDE90801CDE900019DED060B53EC84
:1039E000102BAFF2306008F023FC9DED160ADDEDE0
:1039F0001B0A30EE600A8DED090A09980BF046FAB1
:103A000021F000419FED990B53EC102BCDE90A01F9
:103A10009DED0A0B51EC100B0AF020FECDE90C01D4
:103A20009DED0C0B51EC100B0AF032FD11909DED49
:103A3000150ADDED1A0A30EE600A8DED090A0998C3
:103A40000BF024FA21F000419FED880B53EC102B72
:103A5000CDE90A019DED0A0B51EC100B0AF0FEFDB9
:103A6000CDE90C019DED0C0B51EC100B0AF010FD93
:103A700010909DED140ADDED190A30EE600A8DED0F
:103A8000090A09980BF002FA21F000419FED770B2B
:103A900053EC102B00E0B6E0CDE90A019DED0A0BD6
:103AA00051EC100B0AF0DAFDCDE90C019DED0C0B89
:103AB00051EC100B0AF0ECFC0F909DED130ADDEDBC
:103AC000180A30EE600A8DED090A09980BF0DEF94C
:103AD00021F000419FED650B53EC102BCDE90A015D
:103AE0009DED0A0B51EC100B0AF0B8FDCDE90C016D
:103AF0009DED0C0B51EC100B0AF0CAFC0E909DEDE5
:103B0000110AF3EE0E0AB4EEE00AF1EE10FA02DD4D
:103B1000B3EE0E0A01E09DED110A8DED110A9DED47
:103B2000100AF3EE0E0AB4EEE00AF1EE10FA02DD2E
:103B3000B3EE0E0A01E09DED100A8DED100A9DED29
:103B40000F0AF3EE0E0AB4EEE00AF1EE10FA02DD0F
:103B5000B3EE0E0A01E09DED0F0A8DED0F0A9DED0B
:103B60000E0A5FEDD00AB4EEE00AF1EE10FA02DDC3
:103B70001FEDD40A01E09DED0E0A8DED0E0A0E98A0
:103B80000BF084F9CDE90C010F980BF07FF9CDE92A
:103B90000A0110980BF07AF9CDE9080111980BF0A1
:103BA00075F9CDE90601DDE90C01CDE90401DDE996
:103BB0000A01CDE90201DDE90801CDE900019DED31
:103BC000060B53EC102BAFF6600008F031FBDDED77
:103BD0000E3A9DED0F3ADDED102A9DED112ADDED37
:103BE000131A9DED141ADDED150A9DED160AFDF769
:103BF000C4F9194890ED000AF3EE0E0A30EE600A9F
:103C000080ED000A03E0AFF6800008F011FB00BF72
:103C100061E418AB19AA1AA91BA8FDF712FA1790AC
:103C2000179818B1134808F003FBCCE11B980BF070
:103C30002DF921F000419FED090B53EC102BCDE93C
:103C400010019DED100B51EC100B0AF0B9FE15D2CE
:103C50009FED090A14E000002C0000207B14AE4701
:103C6000E17A843F34000020300000209A9999992D
:103C70009999B93F242A0008000000009DED1B0A15
:103C80008DED1B0A1A980BF001F921F000411FED90
:103C90000D0B53EC102BCDE910019DED100B51ECE9
:103CA000100B0AF08DFE02D21FED0D0A01E09DED12
:103CB0001A0A8DED1A0A19980BF0E8F821F0004164
:103CC0001FED1A0B53EC102BCDE910019DED100BDD
:103CD00051EC100B0AF074FE02D21FED190A01E03C
:103CE0009DED190A8DED190A18980BF0CFF821F007
:103CF00000411FED260B53EC102BCDE910019DED7B
:103D0000100B51EC100B0AF05BFE02D21FED260ADD
:103D100001E09DED180A8DED180AFE4890ED000AAD
:103D2000F3EE0E0A30EE200A8DED110A13AB14AA41
:103D300015A916A8F84C94ED001ADDED110AF74C00
:103D400094ED000AFDF70BFA1290129800287DD12D
:103D500013980BF09BF8CDE90C0114980BF096F832
:103D6000CDE90A0115980BF091F8CDE908011698F4
:103D70000BF08CF8CDE90601DDE90C01CDE9040179
:103D8000DDE90A01CDE90201DDE90801CDE9000123
:103D90009DED060B53EC102BAFF6E81008F048FA37
:103DA0009DED160ADDED1B0A30EE600A8DED090A65
:103DB00009980BF06BF821F000411FED540B53EC08
:103DC000102BCDE90A019DED0A0B51EC100B0AF006
:103DD00045FCCDE90C019DED0C0B51EC100B0AF0EC
:103DE00057FB11909DED150ADDED1A0A30EE600AC1
:103DF0008DED090A09980BF049F821F000411FEDFB
:103E0000650B53EC102BCDE90A019DED0A0B51EC2B
:103E1000100B0AF023FCCDE90C019DED0C0B51ECCD
:103E2000100B0AF035FB10909DED140ADDED190A18
:103E300030EE600A8DED090A09980BF027F821F0A1
:103E400000411FED760B53EC102B00E0B6E0CDE9FE
:103E50000A019DED0A0B51EC100B0AF0FFFBCDE9B6
:103E60000C019DED0C0B51EC100B0AF011FB0F90A7
:103E70009DED130ADDED180A30EE600A8DED090A9A
:103E800009980BF003F821F000411FED880B53EC6B
:103E9000102BCDE90A019DED0A0B51EC100B0AF035
:103EA000DDFBCDE90C019DED0C0B51EC100B0AF084
:103EB000EFFA0E909DED110AF3EE0E0AB4EEE00A51
:103EC000F1EE10FA02DDB3EE0E0A01E09DED110AEB
:103ED0008DED110A9DED100AF3EE0E0AB4EEE00A24
:103EE000F1EE10FA02DDB3EE0E0A01E09DED100ACC
:103EF0008DED100A9DED0F0AF3EE0E0AB4EEE00A06
:103F0000F1EE10FA02DDB3EE0E0A01E09DED0F0AAC
:103F10008DED0F0A9DED0E0ADFED810AB4EEE00A89
:103F2000F1EE10FA02DD9FED7E0A01E09DED0E0A32
:103F30008DED0E0A0E980AF0A9FFCDE90C010F983D
:103F40000AF0A4FFCDE90A0110980AF09FFFCDE91D
:103F5000080111980AF09AFFCDE90601DDE90C018C
:103F6000CDE90401DDE90A01CDE90201DDE908013D
:103F7000CDE900019DED060B53EC102BAFF6184078
:103F800008F056F9DDED0E3A9DED0F3ADDED102A01
:103F90009DED112ADDED131A9DED141ADDED150AC4
:103FA0009DED160AFCF7E9FF5A4890ED000AF3EE82
:103FB0000E0A30EE200A80ED000A03E0AFF638402A
:103FC00008F036F900BF5AE418AB19AA1AA91BA8C1
:103FD000FDF737F81790179818B1524808F028F9EC
:103FE000CAE11B980AF052FF21F000411FEDE50BDA
:103FF00053EC102BCDE910019DED100B51EC100B83
:104000000AF0DEFC02D21FEDE40A01E09DED1B0A7E
:104010008DED1B0A1A980AF039FF21F000411FEDBF
:10402000F10B53EC102BCDE910019DED100B51EC71
:10403000100B0AF0C5FC02D21FEDF10A01E09DED64
:104040001A0A8DED1A0A19980AF020FF21F0004192
:104050009FED350B53EC102BCDE910019DED100BAE
:1040600051EC100B0AF0ACFC02D29FED310A01E0DA
:104070009DED190A8DED190A18980AF007FF21F035
:1040800000419FED290B53EC102BCDE910019DED64
:10409000100B51EC100B0AF093FC02D29FED240A96
:1040A00001E09DED180A8DED180A1A4890ED000AFE
:1040B000F3EE0E0A30EE600A8DED110A13AB14AA6E
:1040C00015A916A8144C94ED001ADDED110A134C35
:1040D00094ED000AFDF743F81290129800287DD164
:1040E00013980AF0D3FECDE90C0114980AF0CEFE25
:1040F000CDE90A0115980AF0C9FECDE90801169824
:104100000AF0C4FECDE90601DDE90C01CDE90401A8
:1041100010E0000030000020340000202C000020BF
:104120000000C842242A00087B14AE47E17A843F8D
:1041300000000000DDE90A01CDE90201DDE9080126
:10414000CDE900019DED060B53EC102BAFF69C5012
:1041500008F06EF89DED160ADDED1B0A30EE600AE0
:104160008DED090A09980AF091FE21F000419FEDBA
:10417000FE0B53EC102BCDE90A019DED0A0B51EC1F
:10418000100B0AF06BFACDE90C019DED0C0B51EC14
:10419000100B0AF07DF911909DED150ADDED1A0A5C
:1041A00030EE600A8DED090A09980AF06FFE21F0E1
:1041B00000419FEDED0B53EC102BCDE90A019DED75
:1041C0000A0B51EC100B0AF049FACDE90C019DEDF8
:1041D0000C0B51EC100B0AF05BF900E0C8E01090FA
:1041E0009DED140ADDED190A30EE600A8DED090A25
:1041F00009980AF04BFE21F000419FEDDB0B53ECD8
:10420000102BCDE90A019DED0A0B51EC100B0AF0C1
:1042100025FACDE90C019DED0C0B51EC100B0AF0C9
:1042200037F90F909DED130ADDED180A30EE600AA4
:104230008DED090A09980AF029FE21F000419FED51
:10424000CA0B53EC102BCDE90A019DED0A0B51EC82
:10425000100B0AF003FACDE90C019DED0C0B51ECAB
:10426000100B0AF015F90E909DED110AF3EE0E0AEF
:10427000B4EEE00AF1EE10FA02DDB3EE0E0A01E050
:104280009DED110A8DED110A9DED100AF3EE0E0A57
:10429000B4EEE00AF1EE10FA02DDB3EE0E0A01E030
:1042A0009DED100A8DED100A9DED0F0AF3EE0E0A3A
:1042B000B4EEE00AF1EE10FA02DDB3EE0E0A01E010
:1042C0009DED0F0A8DED0F0A9DED0E0A5FED6C0A54
:1042D000B4EEE00AF1EE10FA02DD1FED6F0A01E024
:1042E0009DED0E0A8DED0E0A0E980AF0CFFDCDE978
:1042F0000C010F980AF0CAFDCDE90A0110980AF0E6
:10430000C5FDCDE9080111980AF0C0FDCDE906010F
:10431000DDE90C01CDE90401DDE90A01CDE9020185
:10432000DDE90801CDE900019DED060B53EC102BF2
:10433000AFF6CC7007F07CFFDDED0E3A9DED0F3A45
:10434000DDED102A9DED112ADDED131A9DED141AF5
:10435000DDED150A9DED160AFCF70FFE844890ED81
:10436000000AF3EE0E0A30EE600A80ED000A02E069
:1043700080A007F05DFF00BF4AE418AB19AA1AA994
:104380001BA8FCF75EFE1790179818B1804807F03D
:104390004FFFD4E11B980AF079FD21F000411FED99
:1043A0009E0B53EC102BCDE910019DED100B51EC41
:1043B000100B0AF005FB02D21FEDA30A01E09DEDF0
:1043C0001B0A8DED1B0A1A980AF060FD21F00041CE
:1043D0001FEDAB0B53EC102BCDE910019DED100B35
:1043E00051EC100B0AF0ECFA02D21FEDAF0A01E01B
:1043F0009DED1A0A8DED1A0A19980AF047FD21F071
:1044000000411FEDB70B53EC102BCDE910019DEDD2
:10441000100B51EC100B0AF0D3FA02D21FEDBC0ABC
:1044200001E09DED190A8DED190A18980AF02EFD8C
:1044300021F000411FEDC40B53EC102BCDE910010E
:104440009DED100B51EC100B0AF0BAFA02D21FEDE1
:10445000C80A01E09DED180A8DED180A4D4890ED4F
:10446000000AF3EE0E0A30EE200A8DED110A13ABAE
:1044700014AA15A916A89DED111A3D4CD4ED000AF9
:10448000454C94ED000AFCF76AFE12901298002841
:1044900068D113980AF0FAFCCDE90C0114980AF0DF
:1044A000F5FCCDE90A0115980AF0F0FCCDE9080108
:1044B00016980AF0EBFCCDE90601DDE90C01CDE927
:1044C0000401DDE90A01CDE90201DDE90801CDE9D8
:1044D00000019DED060B53EC102B304807F0A8FEB1
:1044E0009DED160ADDED1B0A30EE600A8DED090A1E
:1044F00009980AF0CBFC21F000419FED1B0B53EC17
:10450000102BCDE90A019DED0A0B51EC100B0AF0BE
:10451000A5F8CDE90C019DED0C0B51EC100B09F049
:10452000B7FF11909DED150ADDED1A0A30EE600A15
:104530008DED090A09980AF0A9FC21F000419FEDD0
:104540000A0B53EC102BCDE90A019DED0A0B51EC3F
:10455000100B0AF083F8CDE90C019DED0C0B51EC2A
:10456000100B1DE0E6E000009A9999999999B93FDE
:10457000300000206E6F20696E7665727365206F63
:104580007574206F662072616E6765200A000000F6
:10459000242A0008340000202C000020B433000836
:1045A00009F076FF10909DED140ADDED190A30EE4A
:1045B000600A8DED090A09980AF068FC21F00041B3
:1045C0001FED170B53EC102BCDE90A019DED0A0BE3
:1045D00051EC100B0AF042F8CDE90C019DED0C0BEB
:1045E00051EC100B09F054FF0F909DED130ADDED17
:1045F000180A30EE600A8DED090A09980AF046FCA7
:1046000021F000411FED280B53EC102BCDE90A01DE
:104610009DED0A0B51EC100B0AF020F8CDE90C01CE
:104620009DED0C0B51EC100B09F032FF0E909DED3F
:10463000110AF3EE0E0AB4EEE00AF1EE10FA02DD12
:10464000B3EE0E0A01E09DED110A8DED110A9DED0C
:10465000100AF3EE0E0AB4EEE00AF1EE10FA02DDF3
:10466000B3EE0E0A01E09DED100A8DED100A9DEDEE
:104670000F0AF3EE0E0AB4EEE00AF1EE10FA02DDD4
:10468000B3EE0E0A01E09DED0F0A8DED0F0A9DEDD0
:104690000E0ADFEDFE0AB4EEE00AF1EE10FA02DDDA
:1046A0009FEDFA0A01E09DED0E0A8DED0E0A0E98BF
:1046B0000AF0ECFBCDE90C010F980AF0E7FBCDE91D
:1046C0000A0110980AF0E2FBCDE9080111980AF0FE
:1046D000DDFBCDE90601DDE90C01CDE90401DDE9F1
:1046E0000A01CDE90201DDE90801CDE900019DEDF6
:1046F000060B53EC102BE64807F09AFDDDED0E3A61
:104700009DED0F3ADDED102A9DED112ADDED131A16
:104710009DED141ADDED150A9DED160AFCF72DFC32
:10472000DC4890ED000AF3EE0E0A30EE200A80ED30
:10473000000A03E0D648203007F07AFD00BF42E4CB
:1047400018AB19AA1AA91BA8FCF77BFC179017989D
:1047500018B1D14807F06CFDCEE11B980AF096FB2A
:1047600021F000419FEDCD0B53EC102BCDE9100152
:104770009DED100B51EC100B0AF022F902D29FEDC7
:10478000C90A01E09DED1B0A8DED1B0A1A980AF07B
:104790007DFB21F000419FEDC10B53EC102BCDE9C7
:1047A00010019DED100B51EC100B0AF009F902D22B
:1047B0009FEDBC0A01E09DED1A0A8DED1A0A1998C9
:1047C0000AF064FB21F000419FEDB40B53EC102B79
:1047D000CDE910019DED100B51EC100B0AF0F0F833
:1047E00002D29FEDB00A01E09DED190A8DED190A84
:1047F00018980AF04BFB21F000419FEDA80B53ECF9
:10480000102BCDE910019DED100B51EC100B0AF0AF
:10481000D7F802D29FEDA30A01E09DED180A8DEDB5
:10482000180A9C4890ED000AF3EE0E0A30EE600A7A
:104830008DED110A13AB14AA15A916A89DED111A36
:10484000994CD4ED000A994C94ED000AFCF787FCD2
:1048500012901298E8BB13980AF018FBCDE90C01EE
:1048600014980AF013FBCDE90A0115980AF00EFB23
:10487000CDE9080116980AF009FBCDE90601DDE94A
:104880000C01CDE90401DDE90A01CDE90201DDE910
:104890000801CDE900019DED060B53EC102B7C487F
:1048A0004C3007F0C5FC9DED160ADDED1B0A30EE1D
:1048B000600A8DED090A09980AF0E8FA21F0004132
:1048C0001FEDD70B53EC102BCDE90A019DED0A0B20
:1048D00000E00DE151EC100B09F0C0FECDE90C0138
:1048E0009DED0C0B51EC100B09F0D2FD11909DEDDC
:1048F000150ADDED1A0A30EE600A8DED090A0998F5
:104900000AF0C4FA21F000411FEDE90B53EC102B23
:10491000CDE90A019DED0A0B51EC100B09F09EFE4A
:10492000CDE90C019DED0C0B51EC100B09F0B0FD25
:1049300010909DED140ADDED190A30EE600A8DED40
:10494000090A09980AF0A2FA21F000411FEDFA0BBA
:1049500053EC102BCDE90A019DED0A0B51EC100B25
:1049600009F07CFECDE90C019DED0C0B51EC100B18
:1049700009F08EFD0F909DED130ADDED180A30EE63
:10498000600A8DED090A09980AF080FA21F00041C9
:104990009FED470B53EC102BCDE90A019DED0A0B5F
:1049A00051EC100B09F05AFECDE90C019DED0C0BFA
:1049B00051EC100B09F06CFD0E909DED110AF3EE19
:1049C0000E0AB4EEE00AF1EE10FA02DDB3EE0E0AC2
:1049D00001E09DED110A8DED110A9DED100AF3EE37
:1049E0000E0AB4EEE00AF1EE10FA02DDB3EE0E0AA2
:1049F00001E09DED100A8DED100A9DED0F0AF3EE1A
:104A00000E0AB4EEE00AF1EE10FA02DDB3EE0E0A81
:104A100001E09DED0F0A8DED0F0A9DED0E0ADFED11
:104A20001B0AB4EEE00AF1EE10FA02DD9FED170A60
:104A300001E09DED0E0A8DED0E0A0E980AF026FAA1
:104A4000CDE90C010F980AF021FACDE90A0110987E
:104A50000AF01CFACDE9080111980AF017FACDE91D
:104A60000601DDE90C01CDE90401DDE90A01CDE92A
:104A70000201DDE90801CDE900019DED060B53ECD3
:104A8000102B034807F0D4FB16E000000000C842DA
:104A90006833000834000020242A00087B14AE4745
:104AA000E17A843F00000000300000202C0000204C
:104AB0009A9999999999B93FDDED0E3A9DED0F3A82
:104AC000DDED102A9DED112ADDED131A9DED141A6E
:104AD000DDED150A9DED160AFCF74FFAFD4890ED45
:104AE000000AF3EE0E0A30EE600A80ED000A02E0E2
:104AF000F9A007F09DFB00BF16E2DFEDFE3A9FED47
:104B0000FD3ADFEDFC2A9FEDFB2A5FED1A1A1FED3F
:104B10001B1A5FED1C0A1FED1D0AFCF72EFAEFE3CE
:104B200018AB19AA1AA91BA8FCF78BFA17901798AB
:104B300018B1F14807F07CFBF6E11B980AF0A6F9E2
:104B400021F000411FED2B0B53EC102BCDE9100190
:104B50009DED100B51EC100B09F032FF02D21FED4E
:104B60002F0A01E09DED1B0A8DED1B0A1A980AF031
:104B70008DF921F000411FED370B53EC102BCDE9DF
:104B800010019DED100B51EC100B09F019FF02D232
:104B90001FED3C0A01E09DED1A0A8DED1A0A1998E5
:104BA0000AF074F921F000411FED440B53EC102B77
:104BB000CDE910019DED100B51EC100B09F000FF39
:104BC00002D21FED480A01E09DED190A8DED190A88
:104BD00018980AF05BF921F000411FED500B53ECDF
:104BE000102BCDE910019DED100B51EC100B09F0CD
:104BF000E7FE02D21FED550A01E09DED180A8DED8A
:104C0000180AB44890ED000AF3EE0E0A30EE600A7E
:104C10008DED110AB94890ED000AF3EE040A30EE6A
:104C2000600A8DED100AB64890ED000ADFEDB50A76
:104C300030EE600A8DED0F0A13AB14AA15A916A861
:104C40009DED111ADDED100A9DED0F0AFCF787FAB4
:104C500012901298F0BB13980AF018F9CDE90C01E4
:104C600014980AF013F9CDE90A0115980AF00EF923
:104C7000CDE9080116980AF009F9CDE90601DDE948
:104C80000C01CDE90401DDE90A01CDE90201DDE90C
:104C90000801CDE900019DED060B53EC102B9A485D
:104CA00007F0C6FA9DED160ADDED1B0A30EE600A2C
:104CB0008DED090A09980AF0E9F821F000411FED8D
:104CC000840B53EC102BCDE90A019DED0A0B51EC3E
:104CD000100B00E023E109F0C1FCCDE90C019DEDD2
:104CE0000C0B51EC100B09F0D3FB11909DED150A44
:104CF000DDED1A0A30EE600A8DED090A09980AF016
:104D0000C5F821F000411FED960B53EC102BCDE9B7
:104D10000A019DED0A0B51EC100B09F09FFCCDE947
:104D20000C019DED0C0B51EC100B09F0B1FB109038
:104D30009DED140ADDED190A30EE600A8DED090AC9
:104D400009980AF0A3F821F000411FEDA70B53ECDE
:104D5000102BCDE90A019DED0A0B51EC100B09F067
:104D60007DFCCDE90C019DED0C0B51EC100B09F015
:104D70008FFB0F909DED130ADDED180A30EE600AEF
:104D80008DED090A09980AF081F821F000411FED24
:104D9000B80B53EC102BCDE90A019DED0A0B51EC39
:104DA000100B09F05BFCCDE90C019DED0C0B51ECF7
:104DB000100B09F06DFB0E909DED110AF3EE0E0A3B
:104DC000B4EEE00AF1EE10FA02DDB3EE0E0A01E0F5
:104DD0009DED110A8DED110A9DED100AF3EE0E0AFC
:104DE000B4EEE00AF1EE10FA02DDB3EE0E0A01E0D5
:104DF0009DED100A8DED100A9DED0F0AF3EE0E0ADF
:104E0000B4EEE00AF1EE10FA02DDB3EE0E0A01E0B4
:104E10009DED0F0A8DED0F0A9DED0E0A5FEDE50A7F
:104E2000B4EEE00AF1EE10FA02DD1FEDE80A01E04F
:104E30009DED0E0A8DED0E0A0E980AF027F8CDE9C9
:104E40000C010F980AF022F8CDE90A0110980AF037
:104E50001DF8CDE9080111980AF018F8CDE906010E
:104E6000DDE90C01CDE90401DDE90A01CDE902012A
:104E7000DDE90801CDE900019DED060B53EC102B97
:104E800021484C3807F0D4F9DDED0E3A9DED0F3A8C
:104E9000DDED102A9DED112ADDED131A9DED141A9A
:104EA000DDED150A9DED160AFCF767F8094890ED4F
:104EB000000AF3EE0E0A30EE600A80ED000A104898
:104EC00090ED000ADFED0F0A30EE600A80ED000A77
:104ED0000A481BE0340000206E6F20696E76657210
:104EE0007365202C206F7574206F662072616E6769
:104EF000650A000000004842242A00083000002013
:104F00002C00002000002042B433000890ED000A7D
:104F1000F3EE040A30EE600A80ED000A03E0AFF21F
:104F2000480007F085F900BFEAE118AB19AA1AA9F1
:104F30001BA8FCF786F81790179818B1FE4807F0E1
:104F400077F9D9E11B9809F0A1FF21F000419FED0D
:104F5000FB0B53EC102BCDE910019DED100B51EC28
:104F6000100B09F02DFD02D29FEDF60A01E09DED38
:104F70001B0A8DED1B0A1A9809F088FF21F00041E9
:104F80009FEDEE0B53EC102BCDE910019DED100BB6
:104F900051EC100B09F014FD02D29FEDEA0A01E07A
:104FA0009DED1A0A8DED1A0A199809F06FFF21F08C
:104FB00000419FEDE20B53EC102BCDE910019DED6C
:104FC000100B51EC100B09F0FBFC02D29FEDDD0A37
:104FD00001E09DED190A8DED190A189809F056FFA8
:104FE00021F000419FEDD50B53EC102BCDE91001C2
:104FF0009DED100B51EC100B09F0E2FC02D29FED7D
:10500000D10A01E09DED180A8DED180ACE4890ED09
:10501000000AF3EE0E0A30EE200A8DED110ACB489D
:1050200090ED000AF3EE040A30EE200A8DED100A2E
:10503000C74890ED000A5FED4D0A30EE200A8DED75
:105040000F0A13AB14AA15A916A89DED111ADDEDD0
:10505000100A9DED0F0AFCF782F812901298E0BB3F
:10506000139809F013FFCDE90C01149809F00EFF15
:10507000CDE90A01159809F009FFCDE90801169854
:1050800009F004FFCDE90601DDE90C01CDE90401D9
:10509000DDE90A01CDE90201DDE90801CDE9000100
:1050A0009DED060B53EC102BAA4807F0C1F89DEDBF
:1050B000160ADDED1B0A30EE600A8DED090A09982B
:1050C00009F0E4FE21F000419FEDA30B53EC102BFF
:1050D000CDE90A019DED0A0B00E008E151EC100B4F
:1050E00009F0BCFACDE90C019DED0C0B51EC100B55
:1050F00009F0CEF911909DED150ADDED1A0A30EE9A
:10510000600A8DED090A099809F0C0FE21F00041FE
:105110009FED910B53EC102BCDE90A019DED0A0B8D
:1051200051EC100B09F09AFACDE90C019DED0C0B36
:1051300051EC100B09F0ACF910909DED140ADDED67
:10514000190A30EE600A8DED090A099809F09EFEF1
:1051500021F000419FED800B53EC102BCDE90A01AB
:105160009DED0A0B51EC100B09F078FACDE90C011A
:105170009DED0C0B51EC100B09F08AF90F909DED91
:10518000130ADDED180A30EE600A8DED090A099860
:1051900009F07CFE21F000419FED6F0B53EC102BCA
:1051A000CDE90A019DED0A0B51EC100B09F056FAFE
:1051B000CDE90C019DED0C0B51EC100B09F068F9D9
:1051C0000E909DED110AF3EE0E0AB4EEE00AF1EE38
:1051D00010FA02DDB3EE0E0A01E09DED110A8DED2D
:1051E000110A9DED100AF3EE0E0AB4EEE00AF1EE9C
:1051F00010FA02DDB3EE0E0A01E09DED100A8DED0E
:10520000100A9DED0F0AF3EE0E0AB4EEE00AF1EE7D
:1052100010FA02DDB3EE0E0A01E09DED0F0A8DEDEE
:105220000F0A9DED0E0ADFED4E0AB4EEE00AF1EE34
:1052300010FA02DD9FED4A0A01E09DED0E0A8DEDA8
:105240000E0A0E9809F022FECDE90C010F9809F024
:105250001DFECDE90A01109809F018FECDE90801FC
:10526000119809F013FECDE90601DDE90C01CDE945
:105270000401DDE90A01CDE90201DDE90801CDE91A
:1052800000019DED060B53EC102B32484C3806F014
:10529000CFFFDDED0E3A9DED0F3ADDED102A9DEDCD
:1052A000112ADDED131A9DED141ADDED150A9DEDA1
:1052B000160AFBF762FE244890ED000AF3EE0E0A90
:1052C00030EE200A80ED000A214890ED000A5FEDE3
:1052D000F30A30EE200A80ED000A1C4890ED000A27
:1052E000F3EE040A30EE200A80ED000A03E0AFF28C
:1052F000184006F09DFF00BF02E0FCF7E3FD00BF91
:1053000000BF1EB010BD2DED028B00F003FA4FF46C
:10531000FA7004F009F90121080305F09CF8FCF784
:10532000D1FD42F22731632004F0D0F9032242F28A
:105330002731312016E00000242A00087B14AE47F4
:10534000E17A843F0000000034000020300000209B
:105350002C000020B43300089A9999999999B93F83
:105360000000C84204F0A7FA042242F2273131209B
:1053700004F0A1FA0D2242F22731312004F09BFA09
:105380000E2242F22731312004F095FA062242F231
:105390002731092004F08FFAFBF734FBFAF76CFF92
:1053A00046E02448007830B122480078FCF7A7FD99
:1053B00000202049087020490968204A1268881A8C
:1053C00009F0EAFA21F000419FED1D0B53EC102B80
:1053D00009F030FC0DD21C48FCF70DFC48B91B4805
:1053E0000088401C194908800846018818A006F06A
:1053F0001FFFFBF73EFD1E4908701E480078A0B154
:105400001D4800780A2802DD6420087010E01A4860
:105410000078401C1849087000F048FB00F052FB6F
:105420004FF47A7004F080F802E00020124908700E
:10543000B7E700000000002024000020200000202A
:105440000000000000002040A402002028000020EE
:10545000726563656976652031206672616D652CC1
:1054600020696E64657820202025750A0000000000
:10547000020000200300002004000020704700BF4D
:10548000FEE700BFFEE700BFFEE700BFFEE7704794
:1054900070477047704700000CB5002001900090E5
:1054A0008348006840F480308149086000BF80482C
:1054B000006800F4003000900198401C01900098B2
:1054C00018B90198B0F5A04FF1D17948006800F4FF
:1054D000003010B10120009001E000200090009801
:1054E000012860D172484030006840F08050704917
:1054F000403108606F48006840F440406D490860E2
:105500006B48083000686A4908310860084600683E
:1055100040F4004008600846006840F4A05008606D
:105520006548091F0860081F006840F08070091F67
:10553000086000BF5E48006800F000700028F9D0E5
:105540005C48006840F480305A49086000BF594800
:10555000406800F480300028F9D05648006840F4D4
:1055600000305449086000BF5248406800F40030E1
:105570000028F9D040F20570504908604C480830C6
:10558000006820F003004A490831086008460068B6
:1055900040F00200086000BF45480830006800F095
:1055A0000C000828F8D10CBD10B54548006840F43F
:1055B0007000434908603E48006840F001003C49E3
:1055C000086000203A4908310860394800683D49C0
:1055D0000840374908603C48091D0860081F0068FA
:1055E00020F48020091F0860002031490C31086038
:1055F000FFF752FF4FF0006031498039086010BD5D
:1056000070B500200022022300240221284D083515
:105610002D6805F00C0020B1042806D0082834D1EC
:1056200007E02A4D2A4E356033E02A4D284E35607A
:105630002FE01F4D2D1D2D68C5F380541C4D2D1DD1
:105640002D6805F03F0154B1224DB5FBF1F5184E20
:10565000361D3668C6F3881605FB06F209E01B4DB9
:10566000B5FBF1F5124E361D3668C6F3881605FBFC
:1056700006F20F4D2D1D2D68C5F301456D1C6B0005
:10568000B2FBF3F5124E356003E0104D104E35605D
:1056900000BF00BF064D08352D68C5F303150E4E3B
:1056A000705D0B4D2D68C540094E356070BD000022
:1056B0000038024000700040195A4007003C024088
:1056C00088ED00E0FFFFF6FE103000240024F40017
:1056D0003800002040787D013C0000201CB50121ED
:1056E000082004F0B8FE0C20009001208DF8040082
:1056F00000208DF8060003208DF8050001208DF8AC
:10570000070069460D4804F005FC0C210B4804F025
:105710007FFC1CBD10B54FF4A06004F005FBFFF743
:10572000DDFFB42003F09EFE4FF4E13003F029FFCB
:1057300000F006F800F0D9F810BD0000000C02409F
:1057400000B58BB00121480604F0CCFE01210846CB
:1057500004F081FE4FF4C050099002208DF828001B
:1057600000208DF82A0001208DF82B0003208DF8F1
:10577000290009A9C94804F0CDFB09220B21C7481B
:1057800004F053FC09220C21C44804F04EFC002014
:105790008DF81E008DF81F008DF8200001208DF877
:1057A000210000208DF822008DF823008DF81A00CA
:1057B0008DF81B0001208DF81C008DF81D000920BC
:1057C000ADF8180006A9B64805F0DBF900208DF801
:1057D00012008DF8130001208DF814000020ADF8A0
:1057E0000800ADF80A00ADF80C00ADF80E00ADF8F9
:1057F000100001208DF8150002A805F04CFA1420C5
:105800008DF8040000208DF805008DF806000120B9
:105810008DF8070001A804F08CFA01220221A048AB
:1058200005F038FD0BB000BD00B585B06A4600211B
:105830009B4805F014FC684603F025FD05B000BD4B
:105840002DE9F04186B006468846174600240196A9
:10585000029600208DF80C008DF80D008DF80E706A
:1058600000BF06E018F804100DF10F000155601C90
:1058700084B2BC42F6DB40F6FF7400BF01A9884841
:1058800005F0F8FA0546042D04D1201EA4F101010B
:105890008CB2F3D1042D03D1022006B0BDE8F08113
:1058A000002401E0601C84B229467D4805F07AFBA3
:1058B00018B940F6FF708442F4DB40F6FF70844272
:1058C00001DB0120E9E70020E7E710B504460021ED
:1058D000734805F047FC08B9002010BD224600219E
:1058E0006F4805F0BCFBA07AF7E700B58BB001214B
:1058F000880604F0F7FD0121022004F0ACFD6020D1
:10590000099002208DF8280000208DF82A0001203F
:105910008DF82B0003208DF8290009A9614804F0B7
:10592000F9FA092205215F4804F07FFB09220621CC
:105930005C4804F07AFB00208DF81E008DF81F00F3
:105940008DF8200001208DF8210000208DF8220024
:105950008DF823008DF81A008DF81B0001208DF8BA
:105960001C008DF81D000920ADF8180006A94E484E
:1059700005F007F90E2005F01FFA0E208DF8120031
:1059800000208DF8130001208DF814000020ADF8E0
:105990000800ADF80A00ADF80C00ADF80E000120CB
:1059A000ADF810008DF8150002A805F074F941203B
:1059B0008DF8040000208DF805008DF80600012008
:1059C0008DF8070001A804F0B4F90122102136482F
:1059D00005F060FC0BB000BD00B585B06A46012142
:1059E000314805F03CFB684603F04DFC05B000BDB6
:1059F0002DE9F04186B006468846174600240196F8
:105A0000029600208DF80C008DF80D008DF80E70B8
:105A100000BF06E018F804100DF10F000155601CDE
:105A200084B2BC42F6DB40F6FF7400BF01A91E48F9
:105A300005F020FA0546042D04D1201EA4F1010131
:105A40008CB2F3D1042D03D1022006B0BDE8F08161
:105A5000002401E0601C84B22946134805F0A2FA34
:105A600018B940F6FF708442F4DB40F6FF708442C0
:105A700001DB0120E9E70020E7E710B5044601213A
:105A8000094805F06FFB08B9002010BD224601212E
:105A9000054805F0E4FAA07AF7E7000000000240AC
:105AA00000640040000402400068004010B501207E
:105AB0009A4908700220487099484860084600F0EA
:105AC00087F910BD10B50120944908700220487074
:105AD00093484860012000F0ACF99049022000F0A2
