:020000040800F2
:10000000280E002035600008ED170008EF170008E3
:10001000F3170008F7170008FB170008000000009E
:10002000000000000000000000000000FF170008B2
:100030000118000800000000031800080518000857
:100040004F6000084F6000084F6000084F600008D4
:100050004F6000084F6000084F6000084F600008C4
:100060004F6000084F6000084F6000084F600008B4
:100070004F6000084F6000084F6000084F600008A4
:100080004F6000084F6000084F6000084F60000894
:10009000991B00084F6000084F6000084F6000087F
:1000A0004F6000084F6000084F6000084F60000874
:1000B000755C0008AF5C00086D5D00084F600008CB
:1000C0004F6000084F6000084F6000084F60000854
:1000D0004F6000089F5900084F6000084F600008FB
:1000E0004F6000084F6000084F6000084F60000834
:1000F000415E00085F5F00084F6000084F60000825
:100100004F6000084F6000084F6000084F60000813
:100110004F6000084F6000082D5E00084F60000827
:100120004F6000084F6000084F6000084F600008F3
:100130004F6000084F6000084F6000084F600008E3
:100140004F600008491D00084F6000084F6000081C
:100150004F6000084F6000084F6000084F600008C3
:100160004F6000084F6000084F6000084F600008B3
:100170004F6000084F6000084F6000084F600008A3
:100180004F6000084F6000084F6000084F60000893
:100190004F6000084F6000084F6000084F60000883
:1001A0004F6000084F6000084F60000800F002F840
:1001B00000F04CF80AA090E8000C82448344AAF1B5
:1001C0000107DA4501D100F041F8AFF2090EBAE8B3
:1001D0000F0013F0010F18BFFB1A43F0010318477B
:1001E000189D0000389D0000103A24BF78C878C1DF
:1001F000FAD8520724BF30C830C144BF04680C602D
:10020000704700000023002400250026103A28BF74
:1002100078C1FBD8520728BF30C148BF0B60704778
:10022000662909F0DD85642908F0C2810020704745
:100230001FB509F0D0FD08F0D7FC04000020002114
:1002400009F070FCE0601FBD10B510BD08F0E8FDBE
:100250001146FFF7EDFF01F03BFA08F006FE03B48C
:10026000FFF7F2FF03BC05F037FB000010B52DEDE2
:10027000028BB0EE408A9FEDFE0A28EE000ADFED09
:10028000FD0A80EE201AF0EE418AB0EE680A09F00D
:100290001BFAF94880ED000A9FEDF50A28EE000AE6
:1002A000DFEDF40A80EE201AF0EE418AB0EE680A23
:1002B00009F0B2FAB1EE400AEF4880ED010A9FED75
:1002C000EF0A80ED020A9FEDEA0A28EE000ADFED50
:1002D000E90A80EE201AF0EE418AB0EE680A09F0D1
:1002E0009BFAE54880ED030A90ED000A80ED040AD0
:1002F0009FEDE20A80ED050A9FEDE00A80ED060A17
:100300009FEDDE0A80ED070AB7EE000A80ED080ACD
:10031000BDEC028B10BD10B52DED048BB0EE408A04
:10032000F0EE608A9FEDD20A28EE000ADFEDD10AD6
:1003300080EE201AB0EE419AB0EE490A09F0C4F9F5
:10034000F0EE409A9FEDCA0A28EE800ADFEDC90A56
:1003500080EE201AB0EE419AB0EE490A09F0B4F9E5
:1003600029EE800AC64880ED000A9FEDC10A28EEFA
:10037000000ADFEDC00A80EE201AB0EE419AB0EE1E
:10038000490A09F0A1F9F1EE409A9FEDB90A28EE69
:10039000800ADFEDB80A80EE201AB0EE419AB0EE86
:1003A000490A09F039FA29EE800AB54880ED010AB8
:1003B0009FEDAF0A28EE000ADFEDAE0A80EE201AAC
:1003C000B0EE419AB0EE490A09F026FAB1EE400AC1
:1003D000AB4880ED020A9FEDA60A28EE000ADFED89
:1003E000A50A80EE201AB0EE419AB0EE490A09F053
:1003F00013FAF0EE409A9FED9E0A28EE800ADFED98
:100400009D0A80EE201AB0EE419AB0EE490A09F03A
:100410005BF929EE800A9A4880ED030A9FED940A61
:1004200028EE000ADFED930A80EE201AB0EE419A22
:10043000B0EE490A09F0F0F9F1EE409A9FED8C0A0E
:1004400028EE800ADFED8B0A80EE201AB0EE419A8A
:10045000B0EE490A09F0E0F929EE800A884880EDFB
:10046000040A9FED830A28EE000ADFED820A80EE7F
:10047000201AB0EE419AB0EE490A09F025F98048F9
:1004800080ED050A9FED7A0A28EE800ADFED790AF1
:1004900080EE201AB0EE419AB0EE490A09F0BCF99C
:1004A000B1EE400A764880ED060A9FED710A28EE0B
:1004B000800ADFED700A80EE201AB0EE419AB0EEAD
:1004C000490A09F001F9B1EE400A6D4880ED070ACA
:1004D0009FED6A0A80ED080ABDEC048B10BD10B5D3
:1004E0002DED068BB0EE408AF0EE608AB0EE419AB8
:1004F0009FED5F0A28EE000ADFED5E0A80EE201A0B
:10050000F0EE419AB0EE690A09F0DEF8B0EE40AACA
:100510009FED570A69EE000A9FED561A80EE810A98
:1005200030EE280AF0EE409A09F0CEF82AEE000AE2
:10053000544880ED000A9FED4E0A28EE000ADFEDD8
:100540004D0A80EE201AF0EE419AB0EE690A09F0E9
:10055000BBF8B1EE40AA9FED460A69EE000A9FED96
:10056000451A80EE810A30EE280AF0EE409A09F032
:1005700053F92AEE000A434880ED010A9FED3C0A38
:1005800028EE000ADFED3B0A80EE201AF0EE419AD9
:10059000B0EE690A09F040F9B1EE400A394880ED41
:1005A000020A9FED330A28EE000ADFED320A80EEE0
:1005B000201AF0EE419AB0EE690A09F02DF9B0EE7A
:1005C00040AA9FED2B0A69EE000A9FED2A1A80EEE1
:1005D000810A30EE280AF0EE409A09F075F82AEE0A
:1005E000000A284880ED030A9FED210A28EE000A40
:1005F000DFED200A80EE201AF0EE419AB0EE690A93
:1006000009F00AF9B1EE40AA9FED190A69EE000A55
:100610009FED181A80EE810A30EE280AF0EE409A1B
:1006200009F0FAF82AEE000A164880ED040A9FED58
:10063000100A28EE000ADFED0F0A80EE201AF0EE15
:10064000419AB0EE690A09F03FF80E4880ED050ABC
:100650009FED070A69EE000A9FED061A80EE810AF7
:1006600030EE280AF0EE409A09F0D6F80CE00000CF
:10067000DC0F4940000034436C0000200000000003
:1006800090000020B4000020B1EE400AFE4880ED4A
:10069000060A1FED090A69EE000A1FED0A1A80EE2C
:1006A000810A30EE280AF0EE409A09F00DF8B1EE1A
:1006B000400AF54880ED070A1FED100A80ED080A90
:1006C000BDEC068B10BD10B52DED068BB0EE408A4B
:1006D000F0EE608AB0EE419AF0EE619A1FED1C0ACE
:1006E00028EE000A5FED1D0A80EE201AB0EE41AA46
:1006F000B0EE4A0A08F0E8FFF0EE40AA1FED240A27
:1007000069EE800A1FED251A80EE810A78EE890ACB
:1007100030EE200AB0EE40AA08F0D6FF2AEE800A9A
:10072000DA4880ED000A1FED2E0A28EE000A5FED80
:100730002F0A80EE201AB0EE41AAB0EE4A0A08F065
:10074000C3FFF1EE40AA1FED360A69EE800A1FEDE5
:10075000371A80EE810A78EE890A30EE200AB0EE70
:1007600040AA09F059F82AEE800AC84880ED010A2B
:100770001FED410A28EE000A5FED420A80EE201AC2
:10078000B0EE41AAB0EE4A0A09F046F8B1EE400ACE
:10079000BE4880ED020A1FED4A0A28EE000A5FED0E
:1007A0004B0A80EE201AB0EE41AAB0EE4A0A09F0D8
:1007B00033F8F0EE40AA1FED520A69EE800A1FEDF1
:1007C000531A80EE810A78EE890A30EE200AB0EEE4
:1007D00040AA08F079FF2AEE800AAC4880ED030AAF
:1007E0001FED5D0A28EE000A5FED5E0A80EE201A1A
:1007F000B0EE41AAB0EE4A0A09F00EF8F1EE40AAB6
:100800001FED650A69EE800A1FED661A80EE810A07
:1008100078EE890A30EE200AB0EE40AA08F0FCFF1C
:100820002AEE800A994880ED040A1FED6F0A28EE2F
:10083000000A5FED700A80EE201AB0EE41AAB0EE19
:100840004A0A08F041FF914880ED050A1FED780A39
:1008500069EE800A1FED791A80EE810A78EE890A26
:1008600030EE200AB0EE40AA08F0D6FFB1EE400A02
:10087000864880ED060A1FED820A69EE800A1FEDA8
:10088000831A80EE810A78EE890A30EE200AB0EEF3
:1008900040AA08F019FFB1EE400A7C4880ED070A33
:1008A0001FED8A0A80ED080ABDEC068B10BD1FED16
:1008B0008D0A774880ED000A1FED900A80ED010A4D
:1008C0001FED920A80ED020A1FED940A714880ED37
:1008D000000A9FED710A80ED010A1FED980A80ED74
:1008E000020A9FED6E0A6E4880ED000A1FED9D0A18
:1008F00080ED010A1FED9F0A80ED020A9FED690A53
:10090000694880ED000A1FEDA30A80ED010ABAEEE6
:10091000030A80ED020A9FED650A654880ED070A2B
:100920009FED640A80ED0D0A9FED630A80ED130AC6
:100930009FED620A80ED190ABFEE000A80ED060AFB
:10094000BFEE000A80ED0C0AB7EE000A80ED120A35
:10095000BFEE000A80ED180A704770B52DED088BC8
:10096000B0EE408AF0EE608AB0EE419AB0EE61AA35
:1009700004460D4616461FEDC20A28EE000A5FED3A
:10098000C30A80EE201AF0EE419AB0EE690A08F030
:100990009BFEDFED440A60EE20AA1FEDCB0A69EE54
:1009A000000A1FEDCC1A80EE810A30EE280AF0EE24
:1009B000409A08F089FE6AEE80AA1FEDD30A28EE5D
:1009C000000A5FEDD40A80EE201AF0EE419AB0EEF4
:1009D000690A08F021FFFAEE030A40EEC0AA1FEDF3
:1009E000DC0A28EE000A5FEDDD0A80EE201AF0EE48
:1009F000419AB0EE690A08F067FEDFED280A20EEA2
:100A000020BA1FEDE50A28EE800A5FEDE60A80EEC7
:100A1000201AF0EE419AB0EE690A08F055FE4BEE4E
:100A200000AA1FEDED0A28EE000A5FEDEE0A80EE47
:100A3000201AF0EE419AB0EE690A08F0EDFEDFED03
:100A4000160A40EEC0AAC4ED00AA1FEDF70A28EE70
:100A5000000A5FEDF80A80EE201AF0EE419AB0EE3F
:100A6000690A08F0D9FEDFED0F0A60EE20AA9FEDBB
:100A7000140A69EE000A9FED131A80EE810A30EE27
:100A8000280AF0EE409A1FE0B4000020D8000020B1
:100A9000FC00002008010020CDCCEE4200006B439A
:100AA0001401002033F3844320010020D95F963ED7
:100AB0002C01002013728041A8D705427368613F62
:100AC000DC0F49400000344308F0FEFD6AEE80AAC6
:100AD0001FED050A28EE000A5FED060A80EE201AD7
:100AE000F0EE419AB0EE690A08F0EEFDFAEE030A64
:100AF00040EE80AA1FED0E0A28EE000A5FED0F0AF5
:100B000080EE201AF0EE419AB0EE690A08F084FEF9
:100B10005FED1E0A20EE20BA1FED170A28EE800AAC
:100B20005FED180A80EE201AF0EE419AB0EE690AE5
:100B300008F0CAFD4BEE00AA1FED1F0A28EE000ABE
:100B40005FED200A80EE201AF0EE419AB0EE690ABD
:100B500008F0BAFD5FED300A40EE80AAC5ED00AAAC
:100B60001FED290A69EE000A1FED2A1A80EE810A9C
:100B700030EE280AF0EE409A08F04EFEDFEDF50A5E
:100B800060EE20AA1FED320A28EE800A5FED330ADC
:100B900080EE201AF0EE419AB0EE690A08F03CFEB1
:100BA0005FED420A40EEC0AAC6ED00AA0020BDECEF
:100BB000088B70BD70B52DED028B0446B0EE408AF7
:100BC0000D46002600EE104AB8EE400A04EB440041
:100BD000E14901EBC00080ED050A04EB440001EBA4
:100BE000C00080ED028ADD48007818B10120BDEC1C
:100BF000028B70BD0CB1042C01D90220F7E7B7EECF
:100C0000000AB4EEC08AF1EE10FA01DD0320EEE72F
:100C10001DB1012D01D00420E9E7E0B201F048FA4E
:100C20000646A6B14DB9D6ED480A70EE880AB0EE78
:100C3000600AE0B202F09DFD0BE0D6ED480A70EECE
:100C4000C80AB0EE600AE0B202F093FD01E00520B0
:100C5000CDE70020CBE710B50024C148007810B3E1
:100C60000020BF49087001240BE00021204601F05C
:100C700038FA00B903E004F10A00C0B210BD601CEC
:100C8000C4B2052CF1DB01240BE00021204602F068
:100C900084FA00B903E004F11400C0B2EEE7601C6E
:100CA000C4B2052CF1DB0020E8E770B52DED028B16
:100CB0000446B0EE408AF0EE608A0025E0B201F012
:100CC000F7F90546002D48D000EE104AB8EE400A6C
:100CD00004EB4400A04901EBC00080ED050A04EBE1
:100CE000440001EBC00080ED038A04EB440001EBFB
:100CF000C00090ED030ADFED9B0A80EE201A04EBA2
:100D0000440001EBC00080ED021A04EB440001EB4B
:100D1000C000C0ED048A012C06D0022C09D0032C9F
:100D20000CD0042C14D10EE001218F4806F0E4FE13
:100D30000EE001218D4806F0DFFE09E001218C481C
:100D400006F0DAFE04E001218A4806F0D5FE00BF75
:100D500000BF0020BDEC028B70BD6420FAE710B527
:100D60002DED0C8BB0EE408AF0EE608AB0EE419A29
:100D7000F0EE619AB0EE42AAF0EE62AAB0EE43BA8B
:100D8000F0EE63BAB2EE040AC8EE000A724890EDC3
:100D9000061A90ED070A00EE810AB0EE40CAB2EEE4
:100DA000040AC8EE800A90ED0C1A90ED0D0A00EED0
:100DB000810AF0EE40CAB2EE040AC9EE000A90EDD4
:100DC000121A90ED130A00EE810AB0EE40DAB2EE8C
:100DD000040AC9EE800A90ED181A90ED190A00EE87
:100DE000810AF0EE40DAF0EE4C0AB0EE4A0A012039
:100DF000FFF75BFFF0EE6C0AB0EE6A0A0220FFF725
:100E000054FFF0EE4D0AB0EE4B0A0320FFF74DFF02
:100E1000F0EE6D0AB0EE6B0A0420FFF746FF0020EB
:100E2000BDEC0C8B10BD2DE9F04706460F469046F1
:100E300099460024002501245CE0204601F038F9A1
:100E40000546E5B3012C06D0022C16D0032C26D083
:100E5000042C4AD137E095ED480A3F48D0ED070A07
:100E600030EE600AF2EE040A20EE200AD0ED060A07
:100E700080EE201A86ED001A38E095ED480A3648D3
:100E8000D0ED0D0A30EE600AF2EE040A20EE200AE0
:100E9000D0ED0C0A80EE201A87ED001A26E095EDC1
:100EA000480A2D48D0ED130A30EE600AF2EE040A2B
:100EB00020EE200AD0ED120A80EE201A00E016E0A3
:100EC00088ED001A12E095ED480A2348D0ED190A82
:100ED00030EE600AF2EE040A20EE200AD0ED180A85
:100EE00080EE201A89ED001A00E000BF00E003E068
:100EF000601CC4B2052CA0DB00BF052C02D0012071
:100F0000BDE8F0870020FBE710B51BA007F010FB41
:100F100022A007F00DFB2AA007F00AFB31A007F082
:100F200007FB3AA007F004FB41A007F001FB48A033
:100F300007F0FEFA4EA007F0FBFA54A007F0F8FA0B
:100F400010BD30B52DED068B8BB00446262C00D29B
:100F5000AAE09CE133F384C32C01002002000020AE
:100F60005800002000007A440004004000080040BF
:100F7000001C0040002000400D0ABBB6D3ADCAB92A
:100F8000D3C320494E4E464F532053434120C7FD03
:100F9000B6AFB2E2CAD4A3A10D0A0000CFEACFB81F
:100FA000CDA8D0C5D0ADD2E9B2CEBCFB20494E4EC3
:100FB000464F532057494B4920A3A10D0A0000007A
:100FC000B7A2CBCD203120C2D6D1AFD7DCCFDFC97D
:100FD000CFB5C4D6B4D0D0C6F7494420A3A10D0ADA
:100FE00000000000B7A2CBCD203220CAB9D3C3C4C1
:100FF000ACC8CF4944B3F5CABCBBAF534341BFD81B
:10100000D6C6C6F720A3A10D0A000000B7A2CBCD1B
:10101000203320BDF8C8EBCEBBD6C3B9E9C1E3B2DB
:10102000E2CAD4B3CCD0F220A3A10D0A0000000084
:10103000B7A2CBCD203420BDF8C8EBD5FDB7B4D7CF
:10104000AAB2E2CAD4B3CCD0F220A3A10D0A000008
:10105000B7A2CBCD203520BDF8C8EBB8DFB5CDCBDE
:10106000D9B2E2CAD4B3CCD0F220A3A10D0A0000B9
:10107000B7A2CBCD203620BDABD6B4D0D0C6F7B901
:10108000D8BBFA20A3A10D0A00000000B7A2CBCD67
:10109000203720CFD4CABEB0EFD6FAD0C5CFA22019
:1010A000A3A10D0A00000000DFE804F0F1131C29E1
:1010B00030373EF1F1F147535971898A91989FA6D3
:1010C000ADB4BBC2CAD2F2EFEEEDECEBEAE9E8E771
:1010D000E6E5D6A007F02CFA00F0A0FED8A007F0B5
:1010E00027FAF0E2DAA007F023FA00F0A3FE4FF4AB
:1010F000FA7004F0D1FBDAA007F01AFAE3E2DDA0FF
:1011000007F016FAE1A007F013FADCE2E5A007F019
:101110000FFAEBA007F00CFAD5E2EFA007F008FAFF
:10112000F4A007F005FACEE2F8A007F001FA02F009
:1011300075FAFBA007F0FCF9C5E2FEA007F0F8F98C
:1011400000F06CFE00F076FE4FF47A7004F0A4FB21
:10115000B9E2FBA007F0ECF902F060FAB3E2FBA001
:1011600007F0E6F901220621104602F068FA012292
:101170000621022002F063FA01220621032002F078
:101180005EFA01220621042002F059FA9BE2F8A03F
:1011900007F0CEF901220321104602F050FA012295
:1011A0000321022002F04BFA01220321084602F03B
:1011B00046FA01220321042002F041FA83E282E28E
:1011C00000219FEDF30A0420FFF7F4FC7BE20121EC
:1011D0009FEDEF0A0420FFF7EDFC74E200219FED84
:1011E000EC0A0320FFF7E6FC6DE201219FEDE80A1F
:1011F0000320FFF7DFFC66E200219FEDE50A0220F5
:10120000FFF7D8FC5FE201219FEDE10A0220FFF722
:10121000D1FC58E200219FEDDE0A0120FFF7CAFC55
:1012200051E201219FEDDA0A0846FFF7C3FC4AE2CA
:10123000DFEDD80A9FEDD80A0420FFF736FD42E221
:10124000DFEDD60A9FEDD40A0420FFF72EFD3AE227
:10125000DFEDD23A9FEDD13ADFEDD02AB2EE042A8B
:10126000DFEDCE1A9FEDCD1ADFEDCC0AB2EE040A07
:10127000FFF775FD27E298E1C8E0B4E0A0E08CE05C
:1012800078E064E050E03CE028E014E000E017E2A1
:10129000DFEDC23A9FEDC13ADFEDC02AB2EE042A7B
:1012A000DFEDBE1A9FEDBD1ADFEDBC0A9FEDBB0A54
:1012B000FFF755FD07E2DFEDB93A9FEDB83ADFEDF4
:1012C000B72AB2EE042ADFEDB51A9FEDB41ADFEDAE
:1012D000B30ABAEE040AFFF742FDF4E1DFEDAF3ADC
:1012E0009FEDAE3AF2EE042A9FEDAC2ADFEDAB1A89
:1012F0009FEDAA1AF2EE040A9FEDA80AFFF72FFD50
:10130000E1E1DFEDA63A9FEDA53AF2EE042A9FED6A
:10131000A32ADFEDA21A9FEDA11ADFEDA00A9FED2F
:101320009F0AFFF71CFDCEE1DFED9C3A9FED9B3A53
:10133000F2EE042A9FED992ADFED981A9FED971A95
:10134000FAEE040A9FED950AFFF709FDBBE1DFED18
:10135000933AB2EE043ADFED912A9FED902ADFED49
:101360008F1AB2EE041ADFED8D0A9FED8C0AFFF79B
:10137000F6FCA8E1DFED893AB2EE043ADFED872A08
:101380009FED862ADFED851A9FED841ADFED830A33
:101390009FED820AFFF7E3FC95E1DFED803AB2EEC4
:1013A000043ADFED7E2A9FED7D2ADFED7C1ABAEE4E
:1013B000041ADFED7A0A9FED790AFFF7D0FC82E18B
:1013C000F2EE043A9FED753ADFED742A9FED732A31
:1013D000F2EE041A9FED711ADFED700A9FED6F0AAD
:1013E000FFF7BDFC6FE1F2EE043A9FED6C3ADFEDE2
:1013F0006B2A9FED6A2ADFED691A9FED681ADFED0F
:10140000670A9FED660AFFF7AAFC5CE1F2EE043A78
:101410009FED623ADFED612A9FED602AFAEE041A31
:101420009FED5E1ADFED5D0ABAE000000D0AD6B44A
:10143000D0D0C2D6D1AFB3CCD0F2A3A10D0A000058
:10144000C2D6D1AFBDE1CAF8A3A10D0A00000000C9
:101450000D0A534341B3F5CABCBBAFA3A10D0A00AB
:10146000534341B3F5CABCBBAFBDE1CAF8A3A10D5C
:101470000A0000000D0ABDF8C8EBCEBBD6C3B9E91F
:10148000C1E3B2E2CAD4A3A10D0A0000CEBBD6C309
:10149000B9E9C1E3B2E2CAD4BDE1CAF8A3A10D0A19
:1014A000000000000D0ABDF8C8EBD5FDB7B4D7AAFF
:1014B000C7D0BBBBB2E2CAD4A3A10D0A0000000092
:1014C000D5FDB7B4D7AAC7D0BBBBB2E2CAD4BDE181
:1014D000CAF8A3A10D0A00000D0ABDF8C8EBB8DFD9
:1014E000B5CDCBD9C7D0BBBBB2E2CAD4A3A10D0A3C
:1014F00000000000B8DFB5CDCBD9C7D0BBBBB2E28E
:10150000CAD4BDE1CAF8A3A10D0A00000D0AD6B4E1
:10151000D0D0C6F7B9D8BBFAA3A10D0A00000000CD
:10152000D6B4D0D0C6F7B9D8BBFABDE1CAF8A3A1EA
:101530000D0A0000737461727420616C6C200A00E3
:10154000636C6F736520616C6C200A00777269743C
:1015500065206D6F746F7220746F20706F73697483
:10156000696F6E2053206D6F6465200A00000000D3
:101570007772697465206D6F746F7220746F20705C
:101580006F736974696F6E206D6F6465200A000067
:10159000CDCCCC3D000010420000C842000000004D
:1015A0001FED020AFFF7DBFB8DE007AB08AA09A9D4
:1015B0000AA8FFF738FC05461DB175A006F0B8FF74
:1015C0007DE00A9808F096FB21F000419FED7C0B2E
:1015D00053EC102B08F0C8FA02D21FED100A01E0FC
:1015E0009DED0A0A8DED0A0A099808F083FB21F0A7
:1015F00000419FED730B53EC102B08F0B5FA02D2AB
:101600001FED1A0A01E09DED090A8DED090A0898FF
:1016100008F070FB21F000419FED690B53EC102B9B
:1016200008F0A2FA02D21FED230A01E09DED080A9C
:101630008DED080A079808F05DFB21F000419FED51
:10164000600B53EC102B08F08FFA02D21FED2D0A1D
:1016500001E09DED070A8DED070A1FED300A8DEDC3
:10166000060A1FED320A8DED050A1FED340A8DEDD5
:10167000040A04AA05A906A8DDED071A9DED081ABB
:10168000DDED090A9DED0A0AFFF767F9049808F0F5
:1016900031FB41EC180B059808F02CFB41EC190BC1
:1016A000069808F027FB41EC1A0B8DED028B8DEDAF
:1016B000009B53EC1A2B44A006F03AFF00BF02E057
:1016C000FFF722FC00BF00BF0BB0BDEC068B30BDA6
:1016D00000F0D8F94FF4FA7004F0DEF8FFF714FCCC
:1016E0009FED3C0A08F098F83B4880ED000A42F272
:1016F0002731632004F090F9032242F22731312090
:1017000004F07FFA042242F22731312004F079FA02
:101710000D2242F22731312004F073FA0E2242F2F8
:101720002731312004F06DFA062242F227310920D8
:1017300004F067FAFFF7BBF828E02848007830B1DA
:1017400026480078FFF7FDFB002024490870FFF7CA
:1017500082FA2349087023480078A0B12248007813
:101760000A2802DD6420087010E01F480078401C41
:101770001D49087000F052FB00F05CFB4FF47A70DA
:1017800004F08AF802E0002017490870D5E700004D
:10179000206572726F72207768696C6520696E20AF
:1017A00070726F63657373696E6720706F736974AD
:1017B000696F6E20746F20616E676C650A000000AF
:1017C0007B14AE47E17A843F25662C2025662C20C9
:1017D00025660A00920A063F1C0000200000002037
:1017E000020000200300002004000020704700BF1A
:1017F000FEE700BFFEE700BFFEE700BFFEE7704761
:1018000070477047704700000CB5002001900090B1
:101810008348006840F480308149086000BF8048F8
:10182000006800F4003000900198401C019000987E
:1018300018B90198B0F5A04FF1D17948006800F4CB
:10184000003010B10120009001E0002000900098CD
:10185000012860D172484030006840F080507049E3
:10186000403108606F48006840F440406D490860AE
:101870006B48083000686A4908310860084600680B
:1018800040F4004008600846006840F4A05008603A
:101890006548091F0860081F006840F08070091F34
:1018A000086000BF5E48006800F000700028F9D0B2
:1018B0005C48006840F480305A49086000BF5948CD
:1018C000406800F480300028F9D05648006840F4A1
:1018D00000305449086000BF5248406800F40030AE
:1018E0000028F9D040F20570504908604C48083093
:1018F000006820F003004A49083108600846006883
:1019000040F00200086000BF45480830006800F061
:101910000C000828F8D10CBD10B54548006840F40B
:101920007000434908603E48006840F001003C49AF
:10193000086000203A4908310860394800683D498C
:101940000840374908603C48091D0860081F0068C6
:1019500020F48020091F0860002031490C31086004
:10196000FFF752FF4FF0006031498039086010BD29
:1019700070B500200022022300240221284D0835E2
:101980002D6805F00C0020B1042806D0082834D1B9
:1019900007E02A4D2A4E356033E02A4D284E356047
:1019A0002FE01F4D2D1D2D68C5F380541C4D2D1D9E
:1019B0002D6805F03F0154B1224DB5FBF1F5184EED
:1019C000361D3668C6F3881605FB06F209E01B4D86
:1019D000B5FBF1F5124E361D3668C6F3881605FBC9
:1019E00006F20F4D2D1D2D68C5F301456D1C6B00D2
:1019F000B2FBF3F5124E356003E0104D104E35602A
:101A000000BF00BF064D08352D68C5F303150E4E07
:101A1000705D0B4D2D68C540094E356070BD0000EE
:101A20000038024000700040195A4007003C024054
:101A300088ED00E0FFFFF6FE103000240024F400E3
:101A40002000002040787D01240000201CB50121E9
:101A5000082004F0A6FE0C20009001208DF8040060
:101A600000208DF8060003208DF8050001208DF878
:101A7000070069460D4804F0F3FB0C210B4804F005
:101A80006DFC1CBD10B54FF4A06004F0F3FAFFF735
:101A9000DDFFB42003F09EFE4FF4E13003F029FF98
:101AA00000F006F800F0D9F810BD0000000C02406C
:101AB00000B58BB00121480604F0BAFE01210846AA
:101AC00004F06FFE4FF4C050099002208DF82800FA
:101AD00000208DF82A0001208DF82B0003208DF8BE
:101AE000290009A9C94804F0BBFB09220B21C748FA
:101AF00004F041FC09220C21C44804F03CFC002005
:101B00008DF81E008DF81F008DF8200001208DF843
:101B1000210000208DF822008DF823008DF81A0096
:101B20008DF81B0001208DF81C008DF81D00092088
:101B3000ADF8180006A9B64805F0C9F900208DF8DF
:101B400012008DF8130001208DF814000020ADF86C
:101B50000800ADF80A00ADF80C00ADF80E00ADF8C5
:101B6000100001208DF8150002A805F03AFA1420A3
:101B70008DF8040000208DF805008DF80600012086
:101B80008DF8070001A804F07AFA01220221A0488A
:101B900005F026FD0BB000BD00B585B06A460021FA
:101BA0009B4805F002FC684603F025FD05B000BD2A
:101BB0002DE9F04186B00646884617460024019676
:101BC000029600208DF80C008DF80D008DF80E7037
:101BD00000BF06E018F804100DF10F000155601C5D
:101BE00084B2BC42F6DB40F6FF7400BF01A988480E
:101BF00005F0E6FA0546042D04D1201EA4F10101EA
:101C00008CB2F3D1042D03D1022006B0BDE8F081DF
:101C1000002401E0601C84B229467D4805F068FB81
:101C200018B940F6FF708442F4DB40F6FF7084423E
:101C300001DB0120E9E70020E7E710B504460021B9
:101C4000734805F035FC08B9002010BD224600217C
:101C50006F4805F0AAFBA07AF7E700B58BB0012129
:101C6000880604F0E5FD0121022004F09AFD6020C1
:101C7000099002208DF8280000208DF82A0001200C
:101C80008DF82B0003208DF8290009A9614804F084
:101C9000E7FA092205215F4804F06DFB09220621BD
:101CA0005C4804F068FB00208DF81E008DF81F00D2
:101CB0008DF8200001208DF8210000208DF82200F1
:101CC0008DF823008DF81A008DF81B0001208DF887
:101CD0001C008DF81D000920ADF8180006A94E481B
:101CE00005F0F5F80E2005F00DFA0E208DF8120023
:101CF00000208DF8130001208DF814000020ADF8AD
:101D00000800ADF80A00ADF80C00ADF80E00012097
:101D1000ADF810008DF8150002A805F062F9412019
:101D20008DF8040000208DF805008DF806000120D4
:101D30008DF8070001A804F0A2F90122102136480D
:101D400005F04EFC0BB000BD00B585B06A46012120
:101D5000314805F02AFB684603F04DFC05B000BD94
:101D60002DE9F04186B006468846174600240196C4
:101D7000029600208DF80C008DF80D008DF80E7085
:101D800000BF06E018F804100DF10F000155601CAB
:101D900084B2BC42F6DB40F6FF7400BF01A91E48C6
:101DA00005F00EFA0546042D04D1201EA4F1010110
:101DB0008CB2F3D1042D03D1022006B0BDE8F0812E
:101DC000002401E0601C84B22946134805F090FA13
:101DD00018B940F6FF708442F4DB40F6FF7084428D
:101DE00001DB0120E9E70020E7E710B50446012107
:101DF000094805F05DFB08B9002010BD224601210D
:101E0000054805F0D2FAA07AF7E70000000002408A
:101E100000640040000402400068004010B501204A
:101E20009A4908700220487099484860084600F0B6
:101E300087F910BD10B50120944908700220487040
:101E400093484860012000F0ACF99049022000F06E
:101E5000A8F98E49032000F0A4F98C49042000F071
:101E6000A0F9012000F024F98A49086001F08EFBF6
:101E700010BD10B58748006890F8DA0000B910BDB1
:101E80008548006890F8DA0000B9F8E701220621D9
:101E9000104601F0D4FB01220621022001F0CFFB05
:101EA0009FED7E0A012001F064FC00BF00210120AB
:101EB00001F085FC642003F0EFFC7648006890EDAB
:101EC000480ADFED770AB4EEE00AF1EE10FAEDDC35
:101ED0007048006890ED480ADFED720AB4EEE00A3F
:101EE000F1EE10FAE2D39FED6D0A022001F041FC01
:101EF00000BF0021022001F062FC642003F0CCFC52
:101F00006548006890ED480ADFED650AB4EEE00A26
:101F1000F1EE10FAEDDC6048006890ED480ADFED64
:101F2000610AB4EEE00AF1EE10FAE2D300BFA6E7D0
:101F300010B55848006890F8DA0000B910BD56484E
:101F4000006890F8DA0000B9F8E7FFF792FFB0EE0A
:101F5000000A012001F00DFCB0EE000A4E480068B6
:101F600001F01EFC4FF47A7003F096FC9FED4B0AD3
:101F7000012001F0FEFB9FED490A4748006801F08F
:101F80000FFC4FF47A7003F087FCB0EE000A0120DA
:101F900001F0EFFBB0EE000A3F48006801F000FCE2
:101FA0004FF47A7003F078FC9FED3C0A012001F0B9
:101FB000E0FB9FED3A0A3848006801F0F1FB4FF46E
:101FC0007A7003F069FC00BFB8E710B531480068CB
:101FD00090F8DA0000B910BD2F48006890F8DA00D8
:101FE00000B9F8E701220721104601F028FB012281
:101FF0000721022001F023FB9FED2B0A012001F0B5
:10200000F8FF9FED290A2448006802F009F84FF410
:102010007A7003F041FC9FED250A012001F0E9FFF1
:102020009FED220A1C48006801F0FAFF4FF47A7015
:1020300003F032FC9FED1C0A012001F0DAFF9FED56
:102040001A0A1548006801F0EBFF4FF47A7003F0AC
:1020500023FC9FED160A012001F0CBFF9FED130A30
:102060000D48006801F0DCFF4FF47A7003F014FCB7
:102070009FED0A0A012001F0BCFF9FED080A064807
:10208000006801F0CDFF00BFA5E700003C00002084
:10209000B11B0008340000203800002000000000C0
:1020A000CDCCCC3DCDCCCCBD000096430000164439
:1020B0000246002111E001EB011000EB4110FB4B47
:1020C00013F83000904206D101EB011000EB4110F3
:1020D00003EBC0007047481CC1B20429EBDB0020B1
:1020E000F8E72DE9F04180460E4600274046FFF70D
:1020F000DFFF044614B90420BDE8F0810020A07180
:102100000021204602F0E4FD05460DB12846F3E724
:1021100026B9C82003F078FB2846EDE700BFA07978
:10212000012805D038467F1C4FF6FF718842F6D350
:102130004FF6FF70874201D30320DDE72846DBE737
:1021400070B5E2B0054600264FF4C472D749684620
:1021500006F06AFAD5488560012410E0D3490C7076
:10216000E0B20121FFF7BDFF38B9701CC6B22B7871
:1021700022464021CEA006F0DBF9601C84B2FF2C81
:10218000ECDDDB4806704FF4C4726946C74806F0C0
:102190004BFA2A7833464821D64806F0C9F962B08E
:1021A00070BDD54A1268042A00D37047D24A12681B
:1021B00002EB021303EB4212BC4B03F83200CE4A8F
:1021C000126802EB021303EB4212B84B03EBC2029C
:1021D0009160C94A1268521CC74B1A6000BFE4E7FD
:1021E0002DE9F041064600276EBB002428E004EBF1
:1021F000041000EB4410AD4911F8308004EB0410DA
:1022000000EB441001EBC000876804EB041101EB04
:102210004411A64A02EBC1004FF4C47106F036FA2D
:1022200004EB041000EB4410A04901F8308004EBEB
:10223000041000EB441001EBC0008760601CC4B2C6
:10224000042CD4DB0FE03046FFF732FF05460DB912
:10225000BDE8F081AF684FF4C471284606F016FA65
:102260002E70AF6000BF00BFF2E72DE9F04180465D
:102270000E46002700244046FFF71AFF044614B913
:102280000420BDE8F081002161762B21204602F078
:102290001FFD05460DB12846F3E726B9C82003F017
:1022A000B3FA2846EDE700BF607E012805D0384626
:1022B0007F1C4FF6FF718842F6D34FF6FF708742BE
:1022C00001D30320DDE72846DBE770B5064600248E
:1022D0003046FFF7EDFE04460CB9042070BDE579E9
:1022E0000020E0712846F9E72DE9F04180460E46CE
:1022F000002700244046FFF7DBFE044614B9042003
:10230000BDE8F081002184F83C106421204602F0F1
:10231000DFFC05460DB12846F2E726B9C82003F0D8
:1023200073FA2846ECE700BF94F83C00012805D07A
:1023300038467F1C4FF6FF718842F5D34FF6FF7089
:10234000874201D30320DBE72846D9E72DE9F04196
:1023500080460E46002700244046FFF7A9FE0446AB
:1023600014B90420BDE8F081002184F83B106221FB
:10237000204602F0ADFC05460DB12846F2E726B92D
:10238000C82003F041FA2846ECE700BF94F83B0070
:10239000012805D038467F1C4FF6FF718842F5D3DF
:1023A0004FF6FF70874201D30320DBE72846D9E7C9
:1023B0002DE9F04180460E46002700244046FFF7F5
:1023C00077FE044614B90420BDE8F081002184F8AA
:1023D0003E106E21204602F07BFC05460DB12846DA
:1023E000F2E726B9C82003F00FFA2846ECE700BF51
:1023F00094F83E00012805D038467F1C4FF6FF7147
:102400008842F5D34FF6FF70874201D30320DBE704
:102410002846D9E72DE9F04180460E4600270024E2
:102420004046FFF745FE044614B90420BDE8F0819C
:10243000002184F83B106C21204602F049FC05463F
:102440000DB12846F2E726B9C82003F0DDF9284689
:10245000ECE700BF94F83B00012805D038467F1C0C
:102460004FF6FF718842F5D34FF6FF70874201D3D4
:102470000320DBE72846D9E72DE9F04180460E46E8
:10248000002700244046FFF713FE044614B9042039
:10249000BDE8F081002184F842106021204602F05E
:1024A00017FC05460DB12846F2E727E0A4010020FD
:1024B00046494C453A202E2E5C5343415C534341E0
:1024C0005F4150492E632C204C494E453A202564EB
:1024D0003A20466F756E6420494420256420696E59
:1024E0002063616E506F72742025640D0A00000035
:1024F00001000020989E00084C00002026B9C8204A
:1025000003F082F92846C3E700BF94F8420001288F
:1025100005D038467F1C4FF6FF718842F5D34FF641
:10252000FF70874201D30320B2E72846B0E72DE9C8
:10253000F04180460E46002700244046FFF7B8FDD4
:10254000044614B90420BDE8F081002184F841104C
:102550005F21204602F0BCFB05460DB12846F2E79C
:1025600026B9C82003F050F92846ECE700BF94F8DC
:102570004100012805D038467F1C4FF6FF71884284
:10258000F5D34FF6FF70874201D30320DBE72846DF
:10259000D9E72DE9F04180460E4600270024404649
:1025A000FFF786FD044614B90420BDE8F081002140
:1025B00084F8CF107F21204602F08AFB05460DB13A
:1025C0002846F2E726B9C82003F01EF92846ECE7B2
:1025D00000BF94F8CF00012805D038467F1C4FF685
:1025E000FF718842F5D34FF6FF70874201D3032075
:1025F000DBE72846D9E72DE9F04180460E46002763
:1026000000244046FFF754FD044614B90420BDE8F9
:10261000F081002184F83F104521204602F058FB4C
:1026200005460DB12846F2E726B9C82003F0ECF8BC
:102630002846ECE700BF94F83F00012805D0384653
:102640007F1C4FF6FF718842F5D34FF6FF7087422B
:1026500001D30320DBE72846D9E72DE9F041804686
:102660000E46002700244046FFF722FD044614B919
:102670000420BDE8F081002184F8C91059212046CA
:1026800002F026FB05460DB12846F2E726B9C82020
:1026900003F0BAF82846ECE700BF94F8C900012817
:1026A00005D038467F1C4FF6FF718842F5D34FF6B0
:1026B000FF70874201D30320DBE72846D9E72DE9E5
:1026C000F04180460E46002700244046FFF7F0FC0C
:1026D000044614B90420BDE8F081002184F83810C4
:1026E0007321204602F0F4FA05460DB12846F2E7C0
:1026F00026B9C82003F088F82846ECE700BF94F814
:102700003800012805D038467F1C4FF6FF718842FB
:10271000F5D34FF6FF70874201D30320DBE728464D
:10272000D9E72DE9F04180460E46002700244046B7
:10273000FFF7BEFC044614B90420BDE8F081002177
:1027400061757121204602F0C3FA05460DB1284695
:10275000F3E726B9C82003F057F82846EDE700BF95
:10276000607D012805D038467F1C4FF6FF718842F6
:10277000F6D34FF6FF70874201D30320DDE72846EA
:10278000DBE72DE9F04180460E4600270024404655
:10279000FFF78EFC044614B90420BDE8F081002147
:1027A00084F8B8101621204602F092FA05460DB1C1
:1027B0002846F2E726B9C82003F026F82846ECE7B9
:1027C00000BF94F8B800012805D038467F1C4FF6AA
:1027D000FF718842F5D34FF6FF70874201D3032083
:1027E000DBE72846D9E72DE9F04180460E46002771
:1027F0000024002184F8B7104046FFF759FC044636
:1028000014B90420BDE8F0811521204602F060FAD9
:1028100005460DB12846F5E726B9C82002F0F4FFB9
:102820002846EFE700BF94F8B700012805D03846E6
:102830007F1C4FF6FF718842F5D34FF6FF70874239
:1028400001D30320DEE72846DCE72DE9F04180468E
:102850000E46002700244046FFF72AFC044614B920
:102860000420BDE8F081002184F8C0102221204618
:1028700002F02EFA05460DB12846F2E726B9C82027
:1028800002F0C2FF2846ECE700BF94F8C000012820
:1028900005D038467F1C4FF6FF718842F5D34FF6BE
:1028A000FF70874201D30320DBE72846D9E72DE9F3
:1028B000F04180460E46002700244046FFF7F8FB13
:1028C000044614B90420BDE8F081002184F8C21048
:1028D0002421204602F0FCF905460DB12846F2E716
:1028E00026B9C82002F090FF2846ECE700BF94F814
:1028F000C200012805D038467F1C4FF6FF71884280
:10290000F5D34FF6FF70874201D30320DBE728465B
:10291000D9E72DE9F04180460E46002700244046C5
:10292000FFF7C6FB044614B90420BDE8F08100217E
:1029300084F8C1102321204602F0CAF905460DB1E2
:102940002846F2E726B9C82002F05EFF2846ECE7E9
:1029500000BF94F8C100012805D038467F1C4FF60F
:10296000FF718842F5D34FF6FF70874201D30320F1
:10297000DBE72846D9E72DE9F04180460E460027DF
:1029800000244046FFF794FB044614B90420BDE838
:10299000F081002184F8CA105B21204602F098F9EA
:1029A00005460DB12846F2E726B9C82002F02CFFF3
:1029B0002846ECE700BF94F8CA00012805D0384645
:1029C0007F1C4FF6FF718842F5D34FF6FF708742A8
:1029D00001D30320DBE72846D9E72DE9F041804603
:1029E0000E46002700244046FFF762FB044614B958
:1029F0000420BDE8F081002184F8391077212046B9
:102A000002F066F905460DB12846F2E726B9C8205E
:102A100002F0FAFE2846ECE700BF94F839000128DE
:102A200005D038467F1C4FF6FF718842F5D34FF62C
:102A3000FF70874201D30320DBE72846D9E72DE961
:102A4000F04180460E46002700244046FFF730FB49
:102A5000044614B90420BDE8F0810021A175752158
:102A6000204602F035F905460DB12846F3E726B9B0
:102A7000C82002F0C9FE2846EDE700BFA07D01286E
:102A800005D038467F1C4FF6FF718842F6D34FF6CB
:102A9000FF70874201D30320DDE72846DBE72DE9FD
:102AA000F04180460E46002700244046FFF700FB19
:102AB000044614B90420BDE8F081002184F8C31055
:102AC0003621204602F004F905460DB12846F2E70A
:102AD00026B9C82002F098FE2846ECE700BF94F81B
:102AE000C300012805D038467F1C4FF6FF7188428D
:102AF000F5D34FF6FF70874201D30320DBE728466A
:102B0000D9E72DE9F04180460E46002700244046D3
:102B1000FFF7CEFA044614B90420BDE8F081002185
:102B200084F8C4103721204602F0D2F805460DB1D2
:102B30002846F2E726B9C82002F066FE2846ECE7F0
:102B400000BF94F8C400012805D038467F1C4FF61A
:102B5000FF718842F5D34FF6FF70874201D30320FF
:102B6000DBE72846D9E72DE9F04180460E460027ED
:102B700000244046FFF79CFA044614B90420BDE83F
:102B8000F081002184F8BA101821204602F0A0F844
:102B900005460DB12846F2E726B9C82002F034FEFA
:102BA0002846ECE700BF94F8BA00012805D0384663
:102BB0007F1C4FF6FF718842F5D34FF6FF708742B6
:102BC00001D30320DBE72846D9E72DE9F041804611
:102BD0000E46002700244046FFF76AFA044614B95F
:102BE0000420BDE8F081002184F8B91017212046A7
:102BF00002F06EF805460DB12846F2E726B9C82066
:102C000002F002FE2846ECE700BF94F8B900012864
:102C100005D038467F1C4FF6FF718842F5D34FF63A
:102C2000FF70874201D30320DBE72846D9E72DE96F
:102C3000F04180460E46002700244046FFF738FA50
:102C4000044614B90420BDE8F081002184F8BD10C9
:102C50001C21204602F03CF805460DB12846F2E75B
:102C600026B9C82002F0D0FD2846ECE700BF94F852
:102C7000BD00012805D038467F1C4FF6FF71884201
:102C8000F5D34FF6FF70874201D30320DBE72846D8
:102C9000D9E72DE9F04180460E4600270024404642
:102CA000FFF706FA044614B90420BDE8F0810021BC
:102CB00084F8BF101E21204602F00AF805460DB127
:102CC0002846F2E726B9C82002F09EFD2846ECE728
:102CD00000BF94F8BF00012805D038467F1C4FF68E
:102CE000FF718842F5D34FF6FF70874201D303206E
:102CF000DBE72846D9E72DE9F04180460E4600275C
:102D000000244046FFF7D4F9044614B90420BDE876
:102D1000F081002184F8BE101D21204601F0D8FF6B
:102D200005460DB12846F2E726B9C82002F06CFD31
:102D30002846ECE700BF94F8BE00012805D03846CD
:102D40007F1C4FF6FF718842F5D34FF6FF70874224
:102D500001D30320DBE72846D9E72DE9F04180467F
:102D60000E46002700244046FFF7A2F9044614B996
:102D70000420BDE8F081002184F83A107B21204630
:102D800001F0A6FF05460DB12846F2E726B9C82096
:102D900002F03AFD2846ECE700BF94F83A0001281B
:102DA00005D038467F1C4FF6FF718842F5D34FF6A9
:102DB000FF70874201D30320DBE72846D9E72DE9DE
:102DC000F04180460E46002700244046FFF770F988
:102DD000044614B90420BDE8F0810021E175792191
:102DE000204601F075FF05460DB12846F3E726B9E8
:102DF000C82002F009FD2846EDE700BFE07D01286C
:102E000005D038467F1C4FF6FF718842F6D34FF647
:102E1000FF70874201D30320DDE72846DBE72DE979
:102E2000F04180460E46002700244046FFF740F957
:102E3000044614B90420BDE8F081002121768B21DD
:102E4000204601F045FF05460DB12846F3E726B9B7
:102E5000C82002F0D9FC2846EDE700BF207E0128FB
:102E600005D038467F1C4FF6FF718842F6D34FF6E7
:102E7000FF70874201D30320DDE72846DBE72DE919
:102E8000F04180460E46002700244046FFF710F927
:102E9000044614B90420BDE8F081002184F8C8106C
:102EA0008621204601F014FF05460DB12846F2E7C1
:102EB00026B9C82002F0A8FC2846ECE700BF94F829
:102EC000C800012805D038467F1C4FF6FF718842A4
:102ED000F5D34FF6FF70874201D30320DBE7284686
:102EE000D9E72DE9F04180460E46002700244046F0
:102EF000FFF7DEF8044614B90420BDE8F081002194
:102F000084F8C7108521204601F0E2FE05460DB188
:102F10002846F2E726B9C82002F076FC2846ECE7FE
:102F200000BF94F8C700012805D038467F1C4FF633
:102F3000FF718842F5D34FF6FF70874201D303201B
:102F4000DBE72846D9E72DE9F04180460E46002709
:102F500000244046FFF7ACF8044614B90420BDE84D
:102F6000F081002184F8CC108A21204601F0B0FEC7
:102F700005460DB12846F2E726B9C82002F044FC08
:102F80002846ECE700BF94F8CC00012805D038466D
:102F90007F1C4FF6FF718842F5D34FF6FF708742D2
:102FA00001D30320DBE72846D9E72DE9F04180462D
:102FB0000E46002700244046FFF77AF8044614B96D
:102FC0000420BDE8F081002184F8C5103821204696
:102FD00001F07EFE05460DB12846F2E726B9C8206D
:102FE00002F012FC2846ECE700BF94F8C500012867
:102FF00005D038467F1C4FF6FF718842F5D34FF657
:10300000FF70874201D30320DBE72846D9E72DE98B
:10301000F04180460E46002700244046FFF748F85E
:10302000044614B90420BDE8F081002184F8C610DC
:103030003921204601F04CFE05460DB12846F2E745
:1030400026B9C82002F0E0FB2846ECE700BF94F860
:10305000C600012805D038467F1C4FF6FF71884214
:10306000F5D34FF6FF70874201D30320DBE72846F4
:10307000D9E72DE9F04180460E460027002440465E
:10308000FFF716F8044614B90420BDE8F0810021CA
:1030900084F8BC101A21204601F01AFE05460DB135
:1030A0002846F2E726B9C82002F0AEFB2846ECE736
:1030B00000BF94F8BC00012805D038467F1C4FF6AD
:1030C000FF718842F5D34FF6FF70874201D303208A
:1030D000DBE72846D9E72DE9F04180460E46002778
:1030E00000244046FEF7E4FF044614B90420BDE87E
:1030F000F081002184F8BB101921204601F0E8FD81
:1031000005460DB12846F2E726B9C82002F07CFB3F
:103110002846ECE700BF94F8BB00012805D03846EC
:103120007F1C4FF6FF718842F5D34FF6FF70874240
:1031300001D30320DBE72846D9E72DE9F04180469B
:103140000E46002700244046FEF7B2FF044614B99D
:103150000420BDE8F0810021E1745521204601F0F2
:10316000B7FD05460DB12846F3E726B9C82002F0A1
:103170004BFB2846EDE700BFE07C012805D0384630
:103180007F1C4FF6FF718842F6D34FF6FF708742DF
:1031900001D30320DDE72846DBE72DE9F041804637
:1031A0000E46002700244046FEF782FF044614B96D
:1031B0000420BDE8F081002184F8D010942120463D
:1031C00001F086FD05460DB12846F2E726B9C82074
:1031D00002F01AFB2846ECE700BF94F8D000012863
:1031E00005D038467F1C4FF6FF718842F5D34FF665
:1031F000FF70874201D30320DBE72846D9E72DE99A
:10320000F04180460E46002700244046FEF750FF5E
:10321000044614B90420BDE8F081002184F843106D
:10322000FF21204601F054FD05460DB12846F2E786
:1032300026B9C82002F0E8FA2846ECE700BF94F867
:103240004300012805D038467F1C4FF6FF718842A5
:10325000F5D34FF6FF70874201D30320DBE7284602
:10326000D9E770B504460D4629462046FFF7C7FF4B
:1032700029462046FFF791FF29462046FFF75DFFCC
:1032800029462046FFF727FF29462046FFF7F1FE93
:1032900029462046FFF7BBFE29462046FFF785FE5C
:1032A00029462046FFF74FFE29462046FFF719FE24
:1032B00029462046FFF7E3FD29462046FFF7AFFDEC
:1032C00029462046FFF77BFD29462046FFF745FDAE
:1032D00029462046FFF70FFD29462046FFF7D9FC77
:1032E00029462046FFF7A3FC29462046FFF76DFC40
:1032F00029462046FFF737FC29462046FFF701FC08
:1033000029462046FFF7CBFB29462046FFF797FBCF
:1033100029462046FFF761FB29462046FFF72BFB95
:1033200029462046FFF7F5FA29462046FFF7BFFA5F
:1033300029462046FFF789FA29462046FFF753FA27
:1033400029462046FFF71DFA29462046FFF7E9F9EE
:1033500029462046FFF7B3F929462046FFF77DF9B5
:1033600029462046FFF747F929462046FFF711F97D
:1033700029462046FFF7DBF829462046FFF77CF870
:1033800029462046FFF746F829462046FFF710F861
:1033900029462046FEF7DAFF29462046FEF7A4FF1D
:1033A00070BD2DE9F04180460E46002700244046BE
:1033B000FEF77EFE044614B90420BDE8F08100212A
:1033C00084F840105321204601F082FC05460DB1DF
:1033D0002846F2E726B9C82002F016FA2846ECE79C
:1033E00000BF94F84000012805D038467F1C4FF6F6
:1033F000FF718842F5D34FF6FF70874201D3032057
:10340000DBE72846D9E72DE9F04180460E46002744
:1034100000244046FEF74CFE044614B90420BDE8E3
:10342000F08100212175B021204601F051FC0546B4
:103430000DB12846F3E726B9C82002F0E5F9284681
:10344000EDE700BF207D012805D038467F1C4FF6F0
:10345000FF718842F6D34FF6FF70874201D30320F5
:10346000DDE72846DBE72DE9F04180460E460027E0
:1034700000244046FEF71CFE044614B90420BDE8B3
:10348000F081002184F8D1100221204601F020FCB7
:1034900005460DB12846F2E726B9C82002F0B4F976
:1034A0002846ECE700BF94F8D100012805D0384643
:1034B0007F1C4FF6FF718842F5D34FF6FF708742AD
:1034C00001D30320DBE72846D9E72DE9F041074681
:1034D000002600243846FEF7EBFD044614B904200C
:1034E000BDE8F08101213846FEF7BFFE05460DB16B
:1034F0002846F5E794F8DA00012800D11CE0012104
:10350000A17401222A21204601F03AFB05460DB1A3
:103510002846E5E700BF94F8DA00012805D03046D8
:10352000761C6FF07F418842F5D36FF07F40864272
:1035300001D30320D4E700BF0120A0710121384648
:10354000FFF791FF01213846FFF75DFF94F8D500A2
:1035500028B9227840F25D11EFA004F0E9FF0121C3
:103560003846FFF71EFF94ED380AB5EEC00AF1EEBB
:1035700010FA05D122784FF4B271F6A004F0D8FF0A
:1035800000213846FFF76DFE2846A9E710B5002454
:103590000AE004EB041101EB4411FD4A12F831007A
:1035A000FFF793FF601CC4B2042CF2DB10BD2DE9C1
:1035B000F0410746002600243846FEF779FD044610
:1035C00014B90420BDE8F08101213846FEF74DFE14
:1035D00005460DB12846F5E794F8DA0008B9002051
:1035E000F0E70021A17400222A21204601F0C8FA48
:1035F00005460DB12846E5E700BF94F8DA0028B18A
:103600003046761C6FF07F418842F6D36FF07F40E2
:10361000864201D30320D5E72846D3E710B500241E
:103620000AE004EB041101EB4411D94A12F831000D
:10363000FFF7BDFF601CC4B2042CF2DB10BD2DE906
:10364000F04781460C4617464FF0000800254846D3
:10365000FEF72EFD054615B90420BDE8F08795F864
:10366000D400A04201D10020F7E76C732246072165
:10367000284601F085FA06460EB13046EDE727B937
:10368000C82002F0C1F83046E7E700BF95F8D40043
:10369000A04206D0404608F101084FF6FF7188426B
:1036A000F4D34FF6FF70804501D30320D5E73046B1
:1036B000D3E72DE9F04107460D46002600243846A1
:1036C000FEF7F6FC044614B90420BDE8F081B4F816
:1036D000080108B90020F8E7FE21204601F0D4FADD
:1036E000804625B9C82002F08FF84046EDE700BFBC
:1036F000B4F8080128B13046761C4FF6FF718842B5
:10370000F6D34FF6FF70864201D30320DDE7404633
:10371000DBE72DE9F04180460E46002700244046B5
:10372000FEF7C6FC044614B90420BDE8F081002071
:1037300060710D21204601F0A7FA05460DB128461B
:10374000F3E726B9C82002F05FF82846EDE700BF8E
:103750006079012805D038467F1C4FF6FF718842FA
:10376000F6D36FF07F40874201D30320DDE7284680
:10377000DBE770B52DED028B0546B0EE408A0024E4
:103780002846FEF795FC04461CB90420BDEC028BCC
:1037900070BDB0EE480A0A21204601F021FAF5E793
:1037A00010B52DED028B0446B0EE408AB0EE480A0B
:1037B0000A21204601F014FABDEC028B10BD2DE960
:1037C000F04180460E46002700244046FEF770FC7C
:1037D000044614B90420BDE8F081002184F8B61035
:1037E0000621204601F074FA05460DB12846F2E79D
:1037F00026B9C82002F008F82846ECE700BF94F884
:10380000B600012805D038467F1C4FF6FF7188426C
:10381000F5D36FF07F40874201D30320DBE72846D2
:10382000D9E72DE9F04104460D460027002184F830
:10383000B6100621204601F04BFA064616B1304676
:10384000BDE8F08125B9C82001F0DEFF3046F7E77A
:1038500000BF94F8B600012805D038467F1C4FF60B
:10386000FF718842F5D36FF07F40874201D3032078
:10387000E6E73046E4E72DE9F0412DED028B804686
:10388000B0EE408A0E46002700244046FEF710FCAA
:10389000044624B90420BDEC028BBDE8F08184ED20
:1038A000188AB0EE480A1221204601F099F905461F
:1038B0000DB12846EFE726B9C82001F0A5FF28463C
:1038C000E9E700BF94ED4D0AB4EE480AF1EE10FAB4
:1038D00005D038467F1C4FF6FF718842F2D34FF671
:1038E000FF70874201D30320D5E72846D3E72DE9AF
:1038F000F0412DED028B8046B0EE408A0E46002747
:1039000000244046FEF7D4FB044624B90420BDEC55
:10391000028BBDE8F0813DE046494C453A202E2E11
:103920005C5343415C5343415F4150492E632C201B
:103930004C494E453A2025643A2049443A256420B2
:103940004C6173745F5374617465204572726F7259
:103950000D0A000046494C453A202E2E5C53434147
:103960005C5343415F4150492E632C204C494E45E6
:103970003A2025643A2049443A25642043757272FE
:10398000656E745F4D6178204572726F720D0A002A
:10399000A401002084ED198AB0EE480A13212046C4
:1039A00001F01EF9054625B12846BDEC028BBDE8A5
:1039B000F08126B9C82001F027FF2846F5E700BFAF
:1039C00094ED4E0AB4EE480AF1EE10FA05D03846EE
:1039D0007F1C4FF6FF718842F2D34FF6FF7087428B
:1039E00001D30320E1E72846DFE72DE9F0412DED83
:1039F000028B8046B0EE408A0E46002700244046E7
:103A0000FEF756FB044624B90420BDEC028BBDE84A
:103A1000F08184ED238AB0EE480A3321204601F07C
:103A2000DFF805460DB12846EFE726B9C82001F0BA
:103A3000EBFE2846E9E700BF94ED580AB4EE480AC9
:103A4000F1EE10FA05D038467F1C4FF6FF71884220
:103A5000F2D34FF6FF70874201D30320D5E7284603
:103A6000D3E72DE9F0412DED028B8046B0EE408A80
:103A70000E46002700244046FEF71AFB044624B9F0
:103A80000420BDEC028BBDE8F08184ED228AB0EE0B
:103A9000480A3221204601F0A3F805460DB1284618
:103AA000EFE726B9C82001F0AFFE2846E9E700BFDE
:103AB00094ED570AB4EE480AF1EE10FA05D03846F4
:103AC0007F1C4FF6FF718842F2D34FF6FF7087429A
:103AD00001D30320D5E72846D3E72DE9F0412DEDAA
:103AE000028B8046B0EE408A0E46002700244046F6
:103AF000FEF7DEFA044624B90420BDEC028BBDE8D3
:103B0000F08184ED298AB0EE480A8921204601F02F
:103B100067F805460DB12846EFE726B9C82001F041
:103B200073FE2846E9E700BF94ED5E0AB4EE480A4A
:103B3000F1EE10FA05D038467F1C4FF6FF7188422F
:103B4000F2D34FF6FF70874201D30320D5E7284612
:103B5000D3E72DE9F0412DED028B8046B0EE408A8F
:103B60000E46002700244046FEF7A2FA044624B978
:103B70000420BDEC028BBDE8F08184ED248AB0EE18
:103B8000480A8321204601F02BF805460DB128464E
:103B9000EFE726B9C82001F037FE2846E9E700BF65
:103BA00094ED590AB4EE480AF1EE10FA05D0384601
:103BB0007F1C4FF6FF718842F2D34FF6FF708742A9
:103BC00001D30320D5E72846D3E72DE9F0412DEDB9
:103BD000028B8046B0EE408A0E4600270024404605
:103BE000FEF766FA044624B90420BDEC028BBDE85A
:103BF000F08184ED258AB0EE480A8421204600F049
:103C0000EFFF05460DB12846EFE726B9C82001F0C1
:103C1000FBFD2846E9E700BF94ED5A0AB4EE480AD6
:103C2000F1EE10FA05D038467F1C4FF6FF7188423E
:103C3000F2D34FF6FF70874201D30320D5E7284621
:103C4000D3E72DE9F04781460C4617464FF00008B0
:103C500000254846FEF72CFA054615B90420BDE8B4
:103C6000F0876C7422468C21284600F089FF0646B6
:103C70000EB13046F3E727B9C82001F0C5FD304644
:103C8000EDE700BF95F8D900A04206D0404608F104
:103C900001084FF6FF718842F4D34FF6FF7080455C
:103CA00001D30320DBE73046D9E72DE9F0412DEDC4
:103CB000028B8046B0EE408A0E4600270024404624
:103CC000FEF7F6F9044624B90420BDEC028BBDE8EA
:103CD000F08184ED288AB0EE480A8721204600F062
:103CE0007FFF05460DB12846EFE726B9C82001F051
:103CF0008BFD2846E9E700BF94ED5D0AB4EE480A63
:103D0000F1EE10FA05D038467F1C4FF6FF7188425D
:103D1000F2D34FF6FF70874201D30320D5E7284640
:103D2000D3E72DE9F04781460C4617464FF00008CF
:103D300000254846FEF7BCF9054615B90420BDE844
:103D4000F0872C7422467821284600F019FF064699
:103D50000EB13046F3E727B9C82001F055FD3046D3
:103D6000EDE700BF95F8D800A04206D0404608F124
:103D700001084FF6FF718842F4D34FF6FF7080457B
:103D800001D30320DBE73046D9E72DE9F0412DEDE3
:103D9000028B8046B0EE408A0E4600270024404643
:103DA000FEF786F9044624B90420BDEC028BBDE879
:103DB000F08184ED098AB0EE480A7A21204600F0AD
:103DC000EDFE05460DB12846EFE726B9C82001F003
:103DD0001BFD2846E9E700BF94ED3B0AB4EE480A14
:103DE000F1EE10FA05D038467F1C4FF6FF7188427D
:103DF000F2D34FF6FF70874201D30320D5E7284660
:103E0000D3E72DE9F04180460E46002700244046C6
:103E1000FEF74EF9044614B90420BDE8F0810021F4
:103E200084F8D2108821204600F02EFF05460DB1FF
:103E30002846F2E726B9C82001F0E6FC2846ECE760
:103E400000BF94F8D200012805D038467F1C4FF6F9
:103E5000FF718842F5D34FF6FF70874201D30320EC
:103E6000DBE72846D9E72DE9F0412DED028B8046AE
:103E7000B0EE408A0E46002700244046FEF718F9AF
:103E8000044624B90420BDEC028BBDE8F08184ED2A
:103E90001B8A9FEDFD0AC8EE000AB0EE608AB0EE04
:103EA000480A2021204600F09BFE05460DB1284619
:103EB000E9E726B9C82001F0A7FC2846E3E700BFE0
:103EC00094ED500AB4EE480AF1EE10FA05D03846E7
:103ED0007F1C4FF6FF718842F2D34FF6FF70874286
:103EE00001D30320CFE72846CDE72DE9F0412DEDA2
:103EF000028B8046B0EE408A0E46002700244046E2
:103F0000FEF7D6F8044624B90420BDEC028BBDE8C8
:103F1000F08184ED1C8A9FEDDC0AC8EE000AB0EE49
:103F2000608AB0EE480A2121204600F059FE05467D
:103F30000DB12846E9E726B9C82001F065FC2846FE
:103F4000E3E700BF94ED510AB4EE480AF1EE10FA2F
:103F500005D038467F1C4FF6FF718842F2D34FF6EA
:103F6000FF70874201D30320CFE72846CDE72DE934
:103F7000F0412DED028B8046B0EE408A0E460027C0
:103F800000244046FEF794F8044624B90420BDEC12
:103F9000028BBDE8F08184ED1A8A9FEDBB0AC8EE62
:103FA000000AB0EE608AB0EE480A1F21204600F0F9
:103FB00017FE05460DB12846E9E726B9C82001F0ED
:103FC00023FC2846E3E700BF94ED4F0AB4EE480A0D
:103FD000F1EE10FA05D038467F1C4FF6FF7188428B
:103FE000F2D34FF6FF70874201D30320CFE7284674
:103FF000CDE770B52DED028B0546B0EE408A00246A
:104000002846FEF755F804461CB90420BDEC028B87
:1040100070BDB0EE480A0921204600F0E1FDF5E749
:1040200010B52DED028B0446B0EE408AB0EE480A82
:104030000921204600F0D4FDBDEC028B10BD2DE916
:10404000F04180460E46002700244046FEF730F837
:10405000044614B90420BDE8F081002184F8B510AD
:104060000521204600F034FE05460DB12846F2E752
:1040700026B9C82001F0C8FB2846ECE700BF94F839
:10408000B500012805D038467F1C4FF6FF718842E5
:10409000F5D34FF6FF70874201D30320DBE72846B4
:1040A000D9E72DE9F04104460D460027002184F8A8
:1040B000B5100521204600F00BFE064616B130462D
:1040C000BDE8F08125B9C82001F09EFB3046F7E736
:1040D00000BF94F8B500012805D038467F1C4FF684
:1040E000FF718842F5D34FF6FF70874201D303205A
:1040F000E6E73046E4E72DE9F0412DED028B8046FE
:10410000B0EE408A0E46002700244046FDF7D0FF5F
:10411000044624B90420BDEC028BBDE8F08184ED97
:10412000168AB0EE480A1021204600F059FD0546D7
:104130000DB12846EFE726B9C82001F065FB2846F7
:10414000E9E700BF94ED4B0AB4EE480AF1EE10FA2D
:1041500005D038467F1C4FF6FF718842F2D34FF6E8
:10416000FF70874201D30320D5E72846D3E72DE926
:10417000F0412DED028B8046B0EE408A0E460027BE
:1041800000244046FDF794FF044624B90420BDEC0A
:10419000028BBDE8F08184ED178AB0EE480A112148
:1041A000204600F01DFD05460DB12846EFE726B973
:1041B000C82001F029FB2846E9E700BF94ED4C0A2E
:1041C000B4EE480AF1EE10FA05D038467F1C4FF6DF
:1041D000FF718842F2D34FF6FF70874201D303206C
:1041E000D5E72846D3E72DE9F0412DED028B804637
:1041F000B0EE408A0E46002700244046FDF758FFE7
:10420000044624B90420BDEC028BBDE8F08184EDA6
:10421000218AB0EE480A3121204600F0E1FC054633
:104220000DB12846EFE726B9C82001F0EDFA28467F
:10423000E9E700BF94ED560AB4EE480AF1EE10FA31
:1042400005D038467F1C4FF6FF718842F2D34FF6F7
:10425000FF70874201D30320D5E72846D3E72DE935
:10426000F0412DED028B8046B0EE408A0E460027CD
:1042700000244046FDF71CFF04463CB90420BDEC79
:10428000028BBDE8F08100000000704484ED208ABC
:10429000B0EE480A3021204600F0A2FC05460DB1E0
:1042A0002846ECE726B9C82001F0AEFA2846E6E732
:1042B00000BF94ED550AB4EE480AF1EE10FA05D0AD
:1042C00038467F1C4FF6FF718842F2D34FF6FF70DD
:1042D000874201D30320D2E72846D0E79FEDFA0AB0
:1042E00070472DE9F04781460C4617464FF000080D
:1042F00000254846FDF7DCFE054615B90420BDE85B
:10430000F087EC7322467421284600F039FC0646FB
:104310000EB13046F3E727B9C82001F075FA3046F0
:10432000EDE700BF95F8D700A04206D0404608F15F
:1043300001084FF6FF718842F4D34FF6FF708045B5
:1043400001D30320DBE73046D9E72DE9F0412DED1D
:10435000028B8046B0EE408A0E460027002440467D
:10436000FDF7A6FE044624B90420BDEC028BBDE88F
:10437000F08184ED088AB0EE480A7621204600F0EC
:104380000DFC05460DB12846EFE726B9C82001F01F
:104390003BFA2846E9E700BF94ED3A0AB4EE480A32
:1043A000F1EE10FA05D038467F1C4FF6FF718842B7
:1043B000F2D34FF6FF70874201D30320D5E728469A
:1043C000D3E72DE9F0412DED028B8046B0EE408A17
:1043D0000E46002700244046FDF76AFE044624B935
:1043E0000420BDEC028BBDE8F08184ED278AB0EE9D
:1043F000480A5A21204600F0F3FB05460DB1284635
:10440000EFE726B9C82001F0FFF92846E9E700BF29
:1044100094ED5C0AB4EE480AF1EE10FA05D0384685
:104420007F1C4FF6FF718842F2D34FF6FF70874230
:1044300001D30320D5E72846D3E72DE9F0412DED40
:10444000028B8046B0EE408A0E460027002440468C
:10445000FDF72EFE044624B90420BDEC028BBDE816
:10446000F08184ED1E8A1FED780AC8EE000AB0EED6
:10447000608AB0EE480A2621204600F0B1FB0546CE
:104480000DB12846E9E726B9C82001F0BDF9284654
:10449000E3E700BF94ED530AB4EE480AF1EE10FAD8
:1044A00005D038467F1C4FF6FF718842F2D34FF695
:1044B000FF70874201D30320CFE72846CDE72DE9DF
:1044C000F0412DED028B8046B0EE408A0E4600276B
:1044D00000244046FDF7ECFD044624B90420BDEC61
:1044E000028BBDE8F08184ED1F8A1FED990AC8EEAA
:1044F000000AB0EE608AB0EE480A2721204600F09C
:104500006FFB05460DB12846E9E726B9C82001F042
:104510007BF92846E3E700BF94ED540AB4EE480A5D
:10452000F1EE10FA05D038467F1C4FF6FF71884235
:10453000F2D34FF6FF70874201D30320CFE728461E
:10454000CDE72DE9F0412DED028B8046B0EE408A9B
:104550000E46002700244046FDF7AAFD044624B974
:104560000420BDEC028BBDE8F08184ED1D8A1FEDB7
:10457000BA0AC8EE000AB0EE608AB0EE480A2521F9
:10458000204600F02DFB05460DB12846E9E726B987
:10459000C82001F039F92846E3E700BF94ED520A3C
:1045A000B4EE480AF1EE10FA05D038467F1C4FF6FB
:1045B000FF718842F2D34FF6FF70874201D3032088
:1045C000CFE72846CDE770B52DED028B0546B0EE5E
:1045D000408A00242846FDF76BFD04461CB90420E0
:1045E000BDEC028B70BDB0EE480A0821204600F0F9
:1045F000F7FAF5E710B52DED028B0446B0EE408AD0
:10460000B0EE480A0821204600F0EAFABDEC028B21
:1046100010BD2DE9F04180460E460027002440469B
:10462000FDF746FD044614B90420BDE8F0810021E1
:1046300084F8B4100421204600F04AFB05460DB171
:104640002846F2E726B9C82001F0DEF82846ECE754
:1046500000BF94F8B400012805D038467F1C4FF6FF
:10466000FF718842F5D34FF6FF70874201D30320D4
:10467000DBE72846D9E72DE9F04104460D4600273F
:10468000002184F8B4100421204600F021FB0646E6
:1046900016B13046BDE8F08125B9C82001F0B4F864
:1046A0003046F7E700BF94F8B400012805D038463B
:1046B0007F1C4FF6FF718842F5D34FF6FF7087429B
:1046C00004D30320E6E700000080BB453046E1E765
:1046D0002DE9F04781460C4617464FF000080025AB
:1046E0004846FDF7E5FC054615B90420BDE8F0870E
:1046F000AC7322467021284600F042FA06460EB1FD
:104700003046F3E727B9C82001F07EF83046EDE7E0
:1047100000BF95F8D600A04206D0404608F1010837
:104720004FF6FF718842F4D34FF6FF70804501D3F6
:104730000320DBE73046D9E72DE9F0412DED028B70
:104740008046B0EE408A0E46002700244046FDF722
:10475000AFFC044624B90420BDEC028BBDE8F08117
:1047600084ED078AB0EE480A7221204600F016FA5E
:1047700005460DB12846EFE726B9C82001F044F8F8
:104780002846E9E700BF94ED390AB4EE480AF1EE95
:1047900010FA05D038467F1C4FF6FF718842F2D3DD
:1047A0004FF6FF70874201D30320D5E72846D3E7B1
:1047B0002DE9F0412DED028B8046B0EE408A0E4689
:1047C000002700244046FDF773FC044624B904206A
:1047D000BDEC028BBDE8F08184ED268AB0EE480A7C
:1047E0005821204600F0FCF905460DB12846EFE7B8
:1047F00026B9C82001F008F82846E9E700BF94ED83
:104800005B0AB4EE480AF1EE10FA05D038467F1C78
:104810004FF6FF718842F2D34FF6FF70874201D303
:104820000320D5E72846D3E72DE9F0412DED028B93
:104830008046B0EE408A0E46002700244046FDF731
:1048400037FC044624B90420BDEC028BBDE8F0819E
:1048500084ED2C8AB0EE480A7E21204600F0C0F993
:1048600005460DB12846EFE726B9C82000F0CCFF79
:104870002846E9E700BF94ED610AB4EE480AF1EE7C
:1048800010FA05D038467F1C4FF6FF718842F2D3EC
:104890004FF6FF70874201D30320D5E72846D3E7C0
:1048A0002DE9F0412DED028B8046B0EE408A0E4698
:1048B000002700244046FDF7FBFB044624B90420F2
:1048C000BDEC028BBDE8F08184ED0C8AB0EE480AA5
:1048D0006B21204600F062F905460DB12846EFE74E
:1048E00026B9C82000F090FF2846E9E700BF94ED04
:1048F000400AB4EE480AF1EE10FA05D038467F1CA3
:104900004FF6FF718842F2D34FF6FF70874201D312
:104910000320D5E72846D3E72DE9F0412DED028BA2
:104920008046B0EE408A0E46002700244046FDF740
:10493000BFFB044624B90420BDEC028BBDE8F08126
:1049400084ED0D8AB0EE480A6D21204600F026F96C
:1049500005460DB12846EFE726B9C82000F054FF00
:104960002846E9E700BF94ED410AB4EE480AF1EEAB
:1049700010FA05D038467F1C4FF6FF718842F2D3FB
:104980004FF6FF70874201D30320D5E72846D3E7CF
:104990002DE9F0412DED028B8046B0EE408A0E46A7
:1049A000002700244046FDF783FB044624B9042079
:1049B000BDEC028BBDE8F08184ED0A8AB0EE480AB6
:1049C0006121204600F0EAF805460DB12846EFE7E0
:1049D00026B9C82000F018FF2846E9E700BF94ED8B
:1049E0003E0AB4EE480AF1EE10FA05D038467F1CB4
:1049F0004FF6FF718842F2D34FF6FF70874201D322
:104A00000320D5E72846D3E72DE9F0412DED028BB1
:104A10008046B0EE408A0E46002700244046FDF74F
:104A200047FB044624B90420BDEC028BBDE8F081AD
:104A300084ED0B8AB0EE480A6321204600F0AEF800
:104A400005460DB12846EFE726B9C82000F0DCFE88
:104A50002846E9E700BF94ED3F0AB4EE480AF1EEBC
:104A600010FA05D038467F1C4FF6FF718842F2D30A
:104A70004FF6FF70874201D30320D5E72846D3E7DE
:104A80002DE9F04781460C4617464FF000080025F7
:104A90002046FDF70DFB054615B10320BDE8F08764
:104AA0004846FDF705FB05460DB90420F6E72C73D3
:104AB00022463D21284600F0F1F806460EB1304668
:104AC000ECE727B9C82000F09FFE3046E6E700BFBC
:104AD0002878A04206D0404608F101084FF6FF7141
:104AE0008842F5D34FF6FF70804501D30320D5E708
:104AF0003046D3E72DE9F04104460D46002700215A
:104B000084F8D0109421204600F0E2F8064616B151
:104B10003046BDE8F08125B9C82000F075FE30466A
:104B2000F7E700BF94F8D000012805D038467F1C75
:104B30004FF6FF718842F5D34FF6FF70874201D3DD
:104B40000320E6E73046E4E72DE9F04104460E464F
:104B50001746002500E06D1C2078A1683A464B6896
:104B60003146984718B1A0684078A842F3D8A068A9
:104B70004078A84202D80220BDE8F0810020FBE77F
:104B8000F8B506460C4615468DF800408DF80150E4
:104B9000022269463046FFF7D7FFF8BD70B52DED0C
:104BA000028B82B006460C46B0EE408A9FEDF90AB1
:104BB00028EE000ABDEEC00A10EE100A05B28DF80C
:104BC0000440280A8DF80500E8B28DF8060003229B
:104BD00001A93046FFF7B8FF02B0BDEC028B70BDF3
:104BE00070B52DED028B82B006460D46B0EE408AC0
:104BF000092D01D05A2D0CD19FEDE70AC8EE000A0D
:104C00009FEDE60A20EE800ABDEEC00A10EE104AC3
:104C100023E0082D01D0582D0CD196ED380AC8EEAE
:104C2000000A9FEDDE0A20EE800ABDEEC00A10EEFB
:104C3000104A12E07E2D08D19FEDD90A28EE000A15
:104C4000BDEEC00A10EE104A07E09FEDD40A28EE30
:104C5000000ABDEEC00A10EE104A8DF80050200E7A
:104C60008DF80100200C8DF80200200A8DF8030059
:104C7000E0B28DF80400052269463046FFF764FF74
:104C800002B0BDEC028B70BD38B505460C460094F1
:104C9000012269462846FFF757FF38BD7CB5044618
:104CA0000D4616468DF8005060788DF80100A0780A
:104CB0008DF80200E0788DF8030020798DF804006B
:104CC0008DF80560062269462046FFF73DFF7CBD52
:104CD00038B505460C460094012269462846FFF780
:104CE00033FF38BDCA7A752A24D007DC6AB12B2A73
:104CF00032D0552A0CD0712A34D115E0792A1FD030
:104D00008B2A23D0B02A2DD108E00A7B82712AE0B9
:104D10000A7B80F8D4200123C37424E00A7B80F846
:104D2000D520012303751EE00A7B80F8D6200123DD
:104D3000437518E00A7B80F8D7200123837512E0C1
:104D40000A7B80F8D8200123C3750CE00A7B80F829
:104D5000D9200123037606E00A7B80F8DA200123BC
:104D6000437600E000BF00BF704790F8081101F0E3
:104D7000010121B101224FF485710A5403E00022A0
:104D80004FF485710A5490F8081101F0020121B125
:104D9000012240F20B110A5403E0002240F20B11F1
:104DA0000A5490F8081101F0040121B101224FF4D6
:104DB00086710A5403E000224FF486710A5490F879
:104DC000081101F0080121B1012240F20D110A542D
:104DD00003E0002240F20D110A5490F8081101F08E
:104DE000100121B101224FF487710A5403E000221F
:104DF0004FF487710A5490F8081101F0200121B195
:104E0000012240F20F110A5403E0002240F20F1178
:104E10000A5490F8081101F0400121B101224FF429
:104E200088710A5403E000224FF488710A5490F804
:104E3000081101F0800121B1012240F211110A5440
:104E400003E0002240F211110A54B0F8081101F4F5
:104E5000807121B101224FF489710A5403E00022CC
:104E60004FF489710A54B0F8081101F4007121B1AE
:104E7000012240F213110A5403E0002240F2131100
:104E80000A54B0F8081101F4806121B101224FF4F5
:104E90008A710A5403E000224FF48A710A54B0F870
:104EA000081101F4784121B1012240F215110A5490
:104EB00003E0002240F215110A54704730B5034652
:104EC0000D46287B000204B2687B0443E87A45283B
:104ED00008D100EE904AF8EEE00A9FED321A80EE1B
:104EE000810A07E000EE904AF8EEE00A9FED291AE9
:104EF00080EE810AE87A6C285CD00EDC60283DD018
:104F000006DC452816D053281AD05F286BD12FE035
:104F1000622839D0642866D146E077281CD004DCAA
:104F20006E284DD073285ED110E07B281AD0FF2860
:104F300059D14BE083ED370A012183F83F1053E04C
:104F400083ED380A012183F840104DE083ED390AE2
:104F5000012183F8381047E083ED3A0A012183F8F4
:104F6000391041E083ED3B0A012183F83A103BE020
:104F700083ED3C0A012183F8411035E083ED3D0AC1
:104F8000012183F842102FE083ED3E0A012183F8CE
:104F90003B1029E0000080430080BB450000804BAF
:104FA000337396420000804483ED3F0A012183F869
:104FB0003C1019E083ED400A012183F83D1013E015
:104FC00083ED410A012183F83E100DE0FCEEC00A9A
:104FD00010EE900AA3F808011846FFF7C6FE01215B
:104FE00083F8431000E000BF00BF30BD10B50B7B5D
:104FF0001A064B7B42EA03428B7B42EA0322CB7BBD
:105000001A43CB7A052B02D0CB7A5B2B0CD100EE66
:10501000902AB8EEE01A5FED1F1AC1EE210A1FEDCB
:10502000221A20EE810A26E0CB7A042B02D0CB7A1A
:10503000592B0CD100EE902AB8EEE01A5FED291A38
:10504000C1EE210A90ED381A20EE810A13E0CB7AE6
:105050007F2B08D100EE902AF8EEE00A1FED301AFF
:1050600080EE810A07E000EE902AF8EEE00A1FEDDC
:10507000351A80EE810ACB7A242B73D01DDC192BD4
:105080006AD010DC152B4FD006DC042B3AD0052B50
:105090003ED0062B67D141E0162B4BD0172B4FD0BB
:1050A000182BF7D152E01A3B0A2B5CD2DFE803F051
:1050B0005C62636D7BF5F5F58A945B2B6FD010DC39
:1050C000372B6DD006DC342B6BD0352B6AD0362BCA
:1050D000E0D199E0382B70D0392B6FD0592BD9D132
:1050E000AAE0862B6BD006DC7D2B69D07F2B68D0A5
:1050F000852BCFD1ADE08A2B78D0922B77D0932B14
:10510000C8D1BEE080ED460A012480F8B440C5E075
:1051100080ED470A012480F8B540BFE080ED480AE1
:10512000012480F8B640B9E080ED490A012480F8F6
:10513000B740B3E080ED4A0A012480F8B840ADE002
:1051400080ED4B0A012480F8B940A7E080ED4C0ABD
:10515000012480F8BA40A1E080ED4D0A012480F8D6
:10516000BB409BE044E098E080ED4E0A012480F8CB
:10517000BC4093E092E0DFEDF70A60EE200AC0ED5C
:105180004F0A012480F8BD4088E0DFEDF20A60EEAE
:10519000200AC0ED500A012480F8BE407EE051E0B4
:1051A00038E02FE02FE0DFEDEB0A60EE200AC0EDE3
:1051B000510A012480F8BF4070E031E036E04EE053
:1051C00046E064E0DFEDE30A60EE200AC0ED520A3B
:1051D000012480F8C04061E0DFEDDE0A60EE200AC5
:1051E000C0ED530A012480F8C14057E03DE042E0A1
:1051F000DFEDD80A60EE200AC0ED540A012480F8E1
:10520000C2404BE04AE049E080ED550A012480F8B5
:10521000C34043E080ED560A012480F8C4403DE0DD
:1052200080ED570A012480F8C54037E080ED580A28
:10523000012480F8C64031E080ED5B0A012480F84B
:10524000C9402BE080ED5C0A012480F8CA4025E0CB
:1052500024E080ED590A012480F8C7401EE080ED6B
:105260005A0A012480F8C84018E080ED5E0A012443
:1052700080F8CC4012E080ED5F0A012480F8CD4038
:105280000CE080ED600A012480F8CE4006E080ED5D
:10529000610A012480F8CF4000E000BF00BF10BDCC
:1052A00010B502460B7B18064B7B40EA03408B7B14
:1052B00040EA032000EE100AB8EEC00A5FEDC90A0A
:1052C00080EE201A82ED481ACB7B18060B7C40EA50
:1052D000034000EE100AF8EEC00A9FED9F1A80EE20
:1052E000810A5FEDD30A20EE200A82ED470A4B7C4B
:1052F00018068B7C40EA034000EE100AF8EEC00A64
:105300009FED951A80EE810AD2ED380A20EE200A30
:1053100082ED460A012482F8D04010BD0A7B42701B
:105320004B7B83708B7BC370CB7B0371012380F835
:10533000D130704710B503460C46207B01286ED152
:1053400000205871E07A33286AD01BDCA0F10700F6
:105350002C286ED2DFE800F05393989D6D6DF2A279
:10536000A9AEB6BBC1C66D6D6D6D6D6D6D6D6D6DAC
:10537000C7CCD16D6D6DD6DBE06D6D696D6D6DE582
:10538000E6E7ECF3782846D01CDC6B286BD00CDC0D
:105390005A2872D004DC3D2870D0582849D1DDE06D
:1053A000612856D06328F9D158E0722842D004DC35
:1053B0006D285DD07028F1D125E0742827D076289B
:1053C000ECD13CE088286ED00CDC83286CD004DC67
:1053D0007A2839D07E28E1D1E8E084286FD0872868
:1053E000DCD1CFE090286BD004DC892869D08C28F0
:1053F000D4D116E091286FD0FE28CFD1DBE0587BC6
:1054000083F8D400F5E0987B83F8D600F1E0D87BF0
:1054100083F8D700EDE0187C83F8D800E9E0E9E0F4
:1054200092E0587C83F8D900E3E0987C83F8DA00B6
:10543000DFE0DDE093ED070A83ED390AD9E093ED73
:10544000080A83ED3A0AD4E093ED090A83ED3B0A9A
:10545000CFE093ED0A0A83ED3E0ACAE093ED0B0A12
:1054600083ED3F0AC5E093ED0C0A83ED400AC0E0EE
:1054700093ED0D0A83ED410ABBE074E0B5E093EDD6
:10548000110A83ED460AB4E093ED120A83ED470A50
:10549000AFE093ED130A83ED480AAAE093ED140AF6
:1054A00083ED490AA5E08DE062E093ED150A83EDF6
:1054B0004A0A9EE093ED160A83ED4B0A99E05CE000
:1054C0006AE064E093ED170A83ED4C0A91E093EDF6
:1054D000180A83ED4D0A8CE063E093ED190A83ED21
:1054E0004E0A86E085E093ED1A0A83ED4F0A80E0CC
:1054F00093ED1B0A83ED500A7BE093ED1C0A83EDCC
:10550000510A76E093ED1D0A83ED520A71E093EDA6
:105510001E0A83ED530A6CE093ED1F0A83ED540AD3
:1055200067E066E065E093ED200A83ED550A60E0F0
:1055300093ED210A83ED560A5BE000E052E093ED23
:10554000220A83ED570A54E093ED230A83ED580AAB
:105550004FE00000000070440000804E93ED260AEA
:1055600083ED5B0A45E093ED270A83ED5C0A40E09A
:1055700093ED240A83ED590A3BE093ED250A83ED70
:105580005A0A36E093ED280A83ED5D0A31E093ED87
:10559000290A83ED5E0A2CE093ED2A0A83ED5F0A67
:1055A00027E093ED2B0A83ED600A22E093ED2C0AAD
:1055B00083ED610A1DE00020A3F808011846FFF7FB
:1055C000D4FB16E09FED800A83ED480A9FED7F0A29
:1055D00083ED590A9FED7E0A83ED5A0A012183F873
:1055E000D21006E00120587103E0187B187000BF4C
:1055F00000BF00BF10BD70B504462078FCF758FD11
:10560000054605B970BD0120E871E07A53286ED0D7
:105610003BDC1D286CD018DC16286AD00DDC052870
:1056200068D005DC80B3022872D0042871D195E0DF
:1056300006286FD01528F9D193E01738062868D2CC
:10564000DFE800F091929394959635286FD00EDCA8
:1056500024286DD006DC1E286BD022286AD023288F
:10566000E4D189E02B285DD03428DFD186E03828CA
:1056700071D004DC36286FD03728D7D181E03928A3
:105680006BD04528D2D156E045E0792848D01CDCC3
:10569000642858D00EDC5F2852D006DC55283BD059
:1056A000592871D05B2834D16FE0602849D0622836
:1056B0002FD147E06C380C287DD2DFE800F0457C24
:1056C000467C7C2F7C3E7C307C3F8B2829D012DCB2
:1056D00085285CD006DC7B2831D07D2856D07F28F9
:1056E00069D159E0862853D08A2864D151E023E05B
:1056F0003FE037E033E0942853D004DC922849D0CF
:10570000932858D147E0B02807D0FF2853D11DE097
:105710004CE050E024E000BF00BF00BF00BF00BF6E
:1057200000BF00BF21462846FFF7DCFA48E026E02C
:1057300023E01FE01FE000BF00BF00BF00BF00BFAD
:1057400000BF00BF00BF00BF00BF00BF214628460A
:10575000FFF7B4FB34E015E012E014E000BF00BF37
:1057600000BF00BF00BF00BF00BF00BF00BF00BF41
:1057700000BF00BF00BF00BF00BF00BF00BF00BF31
:1057800000BF00BF00BF00BF00BF00BF00BF00BF21
:1057900000BF00BF00BF00BF21462846FFF726FC20
:1057A0000EE021462846FFF77BFD09E0214628460A
:1057B000FFF7B4FD04E021462846FFF7BBFD00BF1C
:1057C00000BF00BF1EE70000000000000000FE4216
:1057D0000000FEC210B504466FF0040000F09CFC0F
:1057E000E11704EB5171C1F3C701394A117010463A
:1057F000007800EB4001C1EBC0104FF6FF7101EAE9
:10580000C0003449088010BD0146314A12784A432D
:105810004FF0E0235A6100229A611A46126942F061
:1058200001021A6100BF4FF0E022106900F001028E
:105830001AB100F48032002AF5D04FF0E02212694C
:1058400022F001024FF0E0231A6100229A617047B2
:105850000146204A12884A434FF0E0235A61002251
:105860009A611A46126942F001021A6100BF4FF0B4
:10587000E022106900F001021AB100F48032002A1F
:10588000F5D04FF0E022126922F001024FF0E02340
:105890001A6100229A61704770B504464FF4077090
:1058A00094FBF0F0C6B24FF4077094FBF0F100FBEC
:1058B000114085B205E04FF40770FFF7C9FF701E75
:1058C000C6B2002EF7D115B12846FFF7C1FF70BD53
:1058D000500000205200002000BF704700BF4B4A1C
:1058E000128802F04002002AF9D0C2B2474B9A80D7
:1058F000704710B588B004460121084600F051FFFA
:105900000121102000F0A5FF07220921404800F0E6
:1059100032FD07220A213E4800F02DFD4FF4C06001
:10592000069002208DF81C008DF81D0000208DF8D7
:105930001E0001208DF81F0006A9354800F090FCDC
:1059400002940020ADF80C00ADF80E00ADF8100088
:10595000ADF814000C20ADF8120002A92B4801F09C
:10596000DAF825208DF8040003208DF805008DF865
:10597000060001208DF8070001A800F080FB01223D
:1059800040F22551214801F004FA40211F4801F05E
:1059900032FA01211D4801F046F908B010BD10B5DA
:1059A00040F22551194801F02FFA30B1194800781A
:1059B00018B9164880881749087010BD00BF1349F0
:1059C000098801F040010029F9D01049888070470A
:1059D00000B502460B4603E01078FFF7EFFF521CBC
:1059E000181EA3F101018BB2F6D100BD10B5202124
:1059F000064801F0F3F938B12021044801F0FBF921
:105A000002488088C0B210BD0020FCE700100140B1
:105A100000000240000000207FB505460C46012131
:105A2000084600F005FF0295ADF804400020ADF8EF
:105A30000600ADF80C0001A94FF0804001F0D3FF43
:105A400001221146900702F06FFC0121880702F045
:105A500053F81C208DF8000001208DF80100032070
:105A60008DF8020001208DF80300684600F007FB66
:105A70007FBD7FB505460C460121022000F0D8FE0F
:105A80000295ADF804400020ADF80600ADF80C001A
:105A900001A9FD4801F0A7FF01221146FA4802F0D2
:105AA00043FC1D208DF8000000208DF8010003202C
:105AB0008DF8020001208DF80300684600F0DFFA3F
:105AC0007FBD7FB505460C460121042000F0B0FEE5
:105AD0000295ADF804400020ADF80600ADF80C00CA
