:020000040800F2
:10000000382F002051B10008E1670008E3670008BD
:10001000E7670008EB670008EF67000800000000D2
:10002000000000000000000000000000F36700086E
:10003000F567000800000000F7670008F96700088E
:100040006BB100086BB100086BB100086BB1000820
:100050006BB100086BB100086BB100086BB1000810
:100060006BB100086BB100086BB100086BB1000800
:100070006BB100086BB100086BB100086BB10008F0
:100080006BB100086BB100086BB100086BB10008E0
:100090008D6B00086BB100086BB100086BB10008F4
:1000A0006BB100086BB100086BB100086BB10008C0
:1000B0008DAC0008C7AC000885AD00086BB1000826
:1000C0006BB100086BB100086BB100086BB10008A0
:1000D0006BB1000893A900086BB100086BB1000870
:1000E0006BB100086BB100086BB100086BB1000880
:1000F0009BAF00085DB000086BB100086BB1000851
:100100006BB100086BB100086BB100086BB100085F
:100110006BB100086BB1000845AE00086BB1000878
:100120006BB100086BB100086BB100086BB100083F
:100130006BB100086BB100086BB100086BB100082F
:100140006BB100083D6D00086BB100086BB1000891
:100150006BB100086BB100086BB100086BB100080F
:100160006BB100086BB100086BB100086BB10008FF
:100170006BB100086BB100086BB100086BB10008EF
:100180006BB100086BB100086BB100086BB10008DF
:100190006BB100086BB100086BB100086BB10008CF
:1001A0006BB100086BB100086BB1000800F002F8F9
:1001B00000F052F80AA090E8000C82448344AAF1AF
:1001C0000107DA4501D100F047F8AFF2090EBAE8AD
:1001D0000F0013F0010F18BFFB1A43F0010318477B
:1001E0006C0401008C040100103A24BF78C878C167
:1001F000FAD8520724BF30C830C144BF04680C602D
:10020000704700000023002400250026103A28BF74
:1002100078C1FBD8520728BF30C148BF0B60704778
:10022000662910F0E28064290DF0768275290DF0C0
:10023000738278290DF0AC82002070471FB510F052
:10024000CAF80DF0B1FD0400002000210FF032FBD0
:10025000E0601FBD10B510BD0DF0C2FE1146FFF7E6
:10026000EDFF05F0CFFC0DF0E0FE03B4FFF7F2FF69
:1002700003BC0AF02BFB00000020704700207047F1
:100280000020704700207047002070470020704712
:100290000020704700207047002070470020704702
:1002A00000207047002000BF1FE040F2E731884285
:1002B0000ED00021FE4A02F8301002EBC00251704D
:1002C000FB4A411C02EBC10102EBC00251600BE092
:1002D0000021F74A02F8301002EBC0025170F449D5
:1002E0000A4602EBC0025160401CB0F57A7FDCDBAD
:1002F000EF49F04A116011460968EF4A11607047F2
:100300002DE9F04F99B080460E460EB1642E03DD04
:10031000002019B0BDE8F08F45460024002700BF3B
:100320004CE0701E211D884234DA285D04F1010C76
:10033000B44502DB4FF0000C03E004F1010C15F8AA
:100340000CC0614604F1020CB44502DB4FF0000C16
:1003500003E004F1020C15F80CC0624604F1030C32
:10036000B44502DB4FF0000C03E004F1030C15F878
:100370000CC063464FEA006C4CEA014C4CEA022C7C
:100380004CEA030CBA4607F1010B1FFA8BF74DF844
:100390002AC015E0285D0106601C285C41EA004186
:1003A000A01C285C41EA0020E11C695C0843394636
:1003B0007A1C97B24DF82100201D84B2B442B0DB04
:1003C00000BF4FF000090DF041F9002406E05DF890
:1003D00024000DF03FF98146601C84B2BC42F6DB7C
:1003E000484696E710B52DED028BB0EE408A9FEDA2
:1003F000B30A28EE000ADFEDB20A80EE201AF0EE12
:10040000418AB0EE680A0EF061FBAE4880ED000A4A
:100410009FEDAA0A28EE000ADFEDA90A80EE201A55
:10042000F0EE418AB0EE680A0EF05EFCB1EE400AD2
:10043000A44880ED010A9FEDA40A80ED020A9FED19
:100440009F0A28EE000ADFED9E0A80EE201AF0EEE9
:10045000418AB0EE680A0EF047FC9A4880ED030A24
:1004600090ED000A80ED040A9FED970A80ED050AE1
:100470009FED950A80ED060A9FED930A80ED070A2D
:10048000B7EE000A80ED080ABDEC028B10BD10B576
:100490002DED048BB0EE408AF0EE608A9FED870A66
:1004A00028EE000ADFED860A80EE201AB0EE419AAF
:1004B000B0EE490A0EF00AFBF0EE409A9FED7F0A7B
:1004C00028EE800ADFED7E0A80EE201AB0EE419A17
:1004D000B0EE490A0EF0FAFA29EE800A7B4880ED68
:1004E000000A9FED760A28EE000ADFED750A80EE1D
:1004F000201AB0EE419AB0EE490A0EF0E7FAF1EE9A
:10050000409A9FED6E0A28EE800ADFED6D0A80EEBC
:10051000201AB0EE419AB0EE490A0EF0E5FB29EE42
:10052000800A6A4880ED010A9FED640A28EE000AFD
:10053000DFED630A80EE201AB0EE419AB0EE490A70
:100540000EF0D2FBB1EE400A604880ED020A9FED4A
:100550005B0A28EE000ADFED5A0A80EE201AB0EEA0
:10056000419AB0EE490A0EF0BFFBF0EE409A9FEDC3
:10057000530A28EE800ADFED520A80EE201AB0EE10
:10058000419AB0EE490A0EF0A1FA29EE800A4F48CE
:1005900080ED030A9FED490A28EE000ADFED480AC4
:1005A00080EE201AB0EE419AB0EE490A0EF09CFBA4
:1005B000F1EE409A9FED410A28EE800ADFED400AF5
:1005C00080EE201AB0EE419AB0EE490A0EF08CFB94
:1005D00029EE800A3D4880ED040A9FED380A28EE96
:1005E000000ADFED370A80EE201AB0EE419AB0EE35
:1005F000490A0EF06BFA354880ED050A9FED2F0A87
:1006000028EE800ADFED2E0A80EE201AB0EE419A25
:10061000B0EE490A0EF068FBB1EE400A2B4880EDBF
:10062000060A9FED260A28EE800ADFED250A80EEF5
:10063000201AB0EE419AB0EE490A0EF047FAB1EE38
:10064000400A224880ED070A9FED1F0A80ED080A44
:10065000BDEC048B10BD10B52DED068BB0EE408ABD
:10066000F0EE608AB0EE419A9FED140A28EE000A7F
:10067000DFED130A80EE201AF0EE419AB0EE690A1F
:100680000EF024FAB0EE40AA9FED0C0A69EE000AC3
:100690009FED0B1A80EE810A30EE280AF0EE409AA8
:1006A0000EF014FA2AEE000A094880ED000A11E063
:1006B000F00200202000002024000020DC0F494030
:1006C000000034439000002000000000B40000202F
:1006D000D80000201FED070A28EE000A5FED080A87
:1006E00080EE201AF0EE419AB0EE690A0EF0EEF9B3
:1006F000B1EE40AA1FED0F0A69EE000A1FED101AB5
:1007000080EE810A30EE280AF0EE409A0EF0ECFA04
:100710002AEE000AFE4880ED010A1FED180A28EEB5
:10072000000A5FED190A80EE201AF0EE419AB0EE51
:10073000690A0EF0D9FAB1EE400AF54880ED020AD6
:100740001FED220A28EE000A5FED230A80EE201A30
:10075000F0EE419AB0EE690A0EF0C6FAB0EE40AA89
:100760001FED2A0A69EE000A1FED2B1A80EE810A9E
:1007700030EE280AF0EE409A0EF0A8F92AEE000AB0
:10078000E34880ED030A1FED330A28EE000A5FED0F
:10079000340A80EE201AF0EE419AB0EE690A0EF0AB
:1007A000A3FAB1EE40AA1FED3B0A69EE000A1FED65
:1007B0003C1A80EE810A30EE280AF0EE409A0EF0E4
:1007C00093FA2AEE000AD24880ED040A1FED450A8A
:1007D00028EE000A5FED460A80EE201AF0EE419AFC
:1007E000B0EE690A0EF072F9C94880ED050A1FEDF6
:1007F0004D0A69EE000A1FED4E1A80EE810A30EEB6
:10080000280AF0EE409A0EF06FFAB1EE400AC048A6
:1008100080ED060A1FED570A69EE000A1FED581A0F
:1008200080EE810A30EE280AF0EE409A0EF04EF982
:10083000B1EE400AB64880ED070A1FED5D0A80ED73
:10084000080ABDEC068B10BD10B52DED068BB0EE81
:10085000408AF0EE608AB0EE419AF0EE619A1FEDA8
:10086000690A28EE000A5FED6A0A80EE201AB0EEEF
:1008700041AAB0EE4A0A0EF029F9F0EE40AA1FEDA7
:10088000710A69EE800A1FED721A80EE810A78EE15
:10089000890A30EE200AB0EE40AA0EF017F92AEECF
:1008A000800A9C4880ED000A1FED7C0A28EE000AB1
:1008B0005FED7D0A80EE201AB0EE41AAB0EE4A0A42
:1008C0000EF004F9F1EE40AA1FED840A69EE800AE9
:1008D0001FED851A80EE810A78EE890A30EE200A33
:1008E000B0EE40AA0EF000FA2AEE800A894880EDA8
:1008F000010A1FED8E0A28EE000A5FED8F0A80EED6
:10090000201AB0EE41AAB0EE4A0A0EF0EDF9B1EEAF
:10091000400A804880ED020A1FED980A28EE000A7E
:100920005FED990A80EE201AB0EE41AAB0EE4A0AB5
:100930000EF0DAF9F0EE40AA1FEDA00A69EE800A87
:100940001FEDA11A80EE810A78EE890A30EE200AA6
:10095000B0EE40AA0EF0BAF82AEE800A6D4880ED9B
:10096000030A1FEDAA0A28EE000A5FEDAB0A80EE2B
:10097000201AB0EE41AAB0EE4A0A0EF0B5F9F1EE37
:1009800040AA1FEDB20A69EE800A1FEDB31A80EE8D
:10099000810A78EE890A30EE200AB0EE40AA0EF005
:1009A000A3F92AEE800A5B4880ED040A1FEDBD0A18
:1009B00028EE000A5FEDBE0A80EE201AB0EE41AAD2
:1009C000B0EE4A0A0EF082F8524880ED050A1FED9B
:1009D000C50A69EE800A1FEDC61A80EE810A78EE1C
:1009E000890A30EE200AB0EE40AA0EF07DF9B1EE91
:1009F000400A484880ED060A1FEDD00A69EE800AD9
:100A00001FEDD11A80EE810A78EE890A30EE200AB5
:100A1000B0EE40AA0EF05AF8B1EE400A3D4880ED23
:100A2000070A1FEDD70A80ED080ABDEC068B10BD42
:100A30001FEDDB0A384880ED000A1FEDDD0A80ED6E
:100A4000010A1FEDDF0A80ED020A1FEDE10A3348BB
:100A500080ED000A9FED320A80ED010A1FEDE60AE3
:100A600080ED020A9FED2F0A2F4880ED000A1FED4E
:100A7000EA0A80ED010A1FEDEC0A80ED020A9FED03
:100A80002B0A2B4880ED000A1FEDF10A80ED010AC8
:100A9000BAEE030A80ED020A9FED260A264880ED91
:100AA000070A9FED260A80ED0D0A9FED250A80EDCD
:100AB000130A9FED240A80ED190ABFEE000A80EDAB
:100AC000060ABFEE000A80ED0C0AB7EE000A80EDC0
:100AD000120ABFEE000A80ED180A00201A490881A8
:100AE000AFF66B0019494860AFF66F008860AFF64B
:100AF0006F00C860AFF673000861AFF6730048611D
:100B0000AFF677008861AFF67700C86120E000009B
:100B1000D8000020FC000020200100202C01002033
:100B2000CDCCEE4200006B433801002033F3844308
:100B3000440100208126A2BE50010020DB8A7D41B5
:100B4000423E074286380EC0B002002050220020EC
:100B5000AFF6BF000862AFF6BF004862AFF6C30051
:100B60008862AFF6C300C8629FEDFE0AFE4880EDC2
:100B7000000A9FEDFC0A80ED010A9FEDFA0A80ED64
:100B8000020AB0EE080AF94880ED000AB0EE080A41
:100B900080ED010AB0EE080A80ED020A7047F0B558
:100BA0002DED108B85B0B0EE408AF0EE608AB0EE8D
:100BB000419A04460D4616469FEDED0A28EE000ABE
:100BC000DFEDEC0A80EE201AB0EE41AAB0EE4A0A40
:100BD0000DF07CFF8DED040A38EE890A8DED030AD5
:100BE0009DED030ADFEDE20A20EE200ADFEDE10AC7
:100BF00080EE201AB0EE41AAB0EE4A0A0DF066FF70
:100C0000F0EE409A9FEDDA0A28EE000ADFEDD90AED
:100C100080EE201AB0EE41AAB0EE4A0A0EF064F857
:100C20008DED020A9FEDD20A28EE800ADFEDD10A8F
:100C300080EE201AB0EE41AAB0EE4A0A0DF046FF4F
:100C40008DED010A38EE890A8DED000A9FEDC80A84
:100C500028EE000ADFEDC70A80EE201AB0EE41AAA6
:100C6000B0EE4A0A0DF032FF5FED500A20EE200A86
:100C700060EE29AA9FEDBE0A28EE000ADFEDBD0A4C
:100C800080EE201AB0EE41AAB0EE4A0A0EF02CF81F
:100C9000FAEE030A40EEC0AA9FEDB50A28EE000A5C
:100CA000DFEDB40A80EE201AB0EE41AAB0EE4A0A97
:100CB0000DF00CFF5FED650A20EE20BA9FEDAC0A47
:100CC00028EE800ADFEDAB0A80EE201AB0EE41AAD2
:100CD000B0EE4A0A0DF0FAFE4BEE00AA9FEDA40A10
:100CE00028EE000ADFEDA30A80EE201AB0EE41AA3A
:100CF000B0EE4A0A0DF0F8FF5FED770A40EEC0AAA9
:100D0000C4ED00AA9FED9A0A28EE000ADFED990AC9
:100D100080EE201AB0EE41AAB0EE4A0A0DF0E4FFD0
:100D20005FED7E0A20EE200A60EE29AA9FED900A70
:100D300028EE000ADFED8F0A80EE201AB0EE41AAFD
:100D4000B0EE4A0A0DF0C2FEFAEE030A40EE80AAA7
:100D50009FED870A28EE000ADFED860A80EE201A52
:100D6000B0EE41AAB0EE4A0A0DF0BEFF5FED930A65
:100D700020EE20BA9FED7E0A28EE800ADFED7D0A84
:100D800080EE201AB0EE41AAB0EE4A0A0DF09EFEA7
:100D90004BEE00AA9FED760A28EE000ADFED750AF9
:100DA00080EE201AB0EE41AAB0EE4A0A0DF08EFE97
:100DB0005FEDA50A40EE80AAC5ED00AA9FED6C0A82
:100DC00028EE800A10EE101A08460FF093FA41EC54
:100DD0001E0B9FED690B53EC102B0EF073FE41ECD4
:100DE0001D0BB0EE4D0AF0EE6D0A0DF019FFB0EEDE
:100DF00040CAF0EE60CA9FED620B53EC102B51EC31
:100E00001C0B0FF04DF841EC1A0B9DED000ADFEDC5
:100E1000580A20EE200ADFED570A80EE201A11EE64
:100E2000107A38460FF066FA41EC1D0BB0EE4D0A11
:100E3000F0EE6D0A0DF0F4FEB0EE40CAF0EE60CABE
:100E40009FED510B53EC102B51EC1C0B0FF028F8BD
:100E500041EC1B0B53EC1A2B0FF062F941EC1F0B0A
:100E60000EF04AFD3060002005B0BDEC108BF0BDE7
:100E700070B52DED028B0446B0EE408A0D4600267B
:100E800000EE104AB8EE400A04EB4400404901EB82
:100E9000C00080ED050A04EB440001EBC00080EDCA
:100EA000028A3C48007818B10120BDEC028B70BD6D
:100EB0000CB1042C01D90220F7E7B7EE000AB4EE1A
:100EC000C08AF1EE10FA01DD0320EEE71DB1012D1D
:100ED00001D00420E9E7E0B206F0E4F80646A6B146
:100EE0004DB9D6ED480A70EE880AB0EE600AE0B25D
:100EF00007F039FC0BE0D6ED480A70EEC80AB0EEF8
:100F0000600AE0B207F02FFC01E00520CDE70020E9
:100F1000CBE72DE9F04706460F4690469946002458
:100F20000025012476E0204606F0BCF80546C5B150
:100F3000012C06D0022C32D0032C42D0042C64D1D8
:100F400051E095ED480A1248D0ED070A30EE600AEC
:100F5000F2EE040A20EE200AD0ED060A80EE201AF6
:100F60001AE054E0CDCCCC3DA0220020AC220020E1
:100F7000DC0F494000003443000000000080664060
:100F80000000000000606D4000000060669E70C0C0
:100F9000500100200200002086ED001A36E095ED99
:100FA000480AFE48D0ED0D0A30EE600AF2EE040A5F
:100FB00020EE200AD0ED0C0A80EE201A87ED001AF0
:100FC00024E095ED480AF548D0ED130A30EE600AAA
:100FD000F2EE040A20EE200AD0ED120A80EE201A6A
:100FE00088ED001A12E095ED480AEC48D0ED190A98
:100FF00030EE600AF2EE040A20EE200AD0ED180A64
:1010000080EE201A89ED001A00E000BF00E003E046
:10101000601CC4B2052C86DB00BF052C02D0012069
:10102000BDE8F0870020FBE730B52DED028B85B0E1
:101030000024DB480078002879D00020D8490870C7
:1010400001240EE00021204606F045F800B906E034
:1010500004F10A00C0B205B0BDEC028B30BD601CCB
:10106000C4B2052CEEDB01240BE00021204607F082
:101070008EF800B903E004F11400C0B2EBE7601C85
:10108000C4B2052CF1DB01AB02AA03A904A8FFF747
:1010900040FF05461DB1C3A00CF0FEFA59E00498CC
:1010A0000FF028F921F000419FEDCA0B53EC102BF3
:1010B0000EF0BAFE02D29FEDC90A01E09DED040ACE
:1010C0008DED040A03980FF015F921F000419FED12
:1010D000C10B53EC102B0EF0A7FE02D29FEDBF0AFE
:1010E00001E09DED030A8DED030A02980FF002F96D
:1010F00021F000419FEDB70B53EC102B0EF094FE46
:1011000002D29FEDB60A01E09DED020A8DED020AC2
:1011100001980FF0EFF821F000419FEDAE0B53EC7A
:10112000102B0EF081FE03D29FEDAC0A02E011E01D
:101130009DED010A8DED010AA94A111F081FDDED81
:10114000011A9DED021ADDED030A9DED040AFFF779
:1011500026FD00BF00207EE770B52DED028B044612
:10116000B0EE408AF0EE608A0025E0B205F09AFF0A
:101170000546002D48D000EE104AB8EE400A04EBB8
:101180004400864901EBC00080ED050A04EB4400F1
:1011900001EBC00080ED038A04EB440001EBC000CA
:1011A00090ED030ADFED8F0A80EE201A04EB440075
:1011B00001EBC00080ED021A04EB440001EBC0001B
:1011C000C0ED048A012C06D0022C09D0032C0CD0CF
:1011D000042C14D10EE0012183480BF01BFD0EE01E
:1011E000012182480BF016FD09E0012180480BF037
:1011F00011FD04E001217F480BF00CFD00BF00BF92
:101200000020BDEC028B70BD6420FAE710B52DED17
:101210000C8BB0EE408AF0EE608AB0EE419AF0EEB0
:10122000619AB0EE42AAF0EE62AAB0EE43BAF0EED6
:1012300063BAB2EE040AC8EE000A584890ED061AE6
:1012400090ED070A00EE810AB0EE40CAB2EE040A41
:10125000C8EE800A90ED0C1A90ED0D0A00EE810A9E
:10126000F0EE40CAB2EE040AC9EE000A90ED121A7E
:1012700090ED130A00EE810AB0EE40DAB2EE040AF5
:10128000C9EE800A90ED181A90ED190A00EE810A55
:10129000F0EE40DAF0EE4C0AB0EE4A0A0120FFF719
:1012A0005BFFF0EE6C0AB0EE6A0A0220FFF754FF13
:1012B000F0EE4D0AB0EE4B0A0320FFF74DFFF0EEC3
:1012C0006D0AB0EE6B0A0420FFF746FF0020BDEC6C
:1012D0000C8B10BD2DE9F04F2DED108B9BB0F0EE77
:1012E00040AAB0EE608AF0EE41BA80460E4617463C
:1012F00099469FED3A0A8DED190A9FED380A8DED5A
:10130000180A9FED360A8DED170A9FED340A8DED10
:10131000160A16AB17AA18A919A8FFF7FAFD8346F3
:10132000BBF1000F08D034A00CF0B6F901201BB0BF
:10133000BDEC108BBDE8F08F9FED380AF0EE408ACF
:101340006AEEAA0A48EE080A48EEE80AB0EE600A19
:101350000DF092FDB0EE40CA2CEE080A08EEEA0A43
:101360006AEEAA0A48EE080A80EE201AF0EE41EA78
:101370001EEE900A0EF0BEFF21F000419FED280BFB
:1013800053EC102BCDE902019DED020B51EC100B3B
:101390000EF084FE48D20220C9E700005001002070
:1013A0007E000020206572726F72207768696C651C
:1013B00020696E2070726F63657373696E67207049
:1013C0006F736974696F6E20746F20616E676C65EE
:1013D0000A0000007B14AE47E17A843F0000000061
:1013E0003822002000007A44000400400008004039
:1013F000001C004000200040706F736974696F6EBC
:1014000020746F20616E676C652063616C63756C1E
:10141000617465206572726F720A0000CDCCDB4288
:10142000000000000000F03FB0EE6E0A0DF0B8FAC8
:10143000B0EE409AB0EE490ADFEDFE0A60EE200AF7
:101440009FEDFD1A80EE810ADFEDFA0AB4EEE00AA4
:10145000F1EE10FA04DD9FEDF90A39EE400A07E0DB
:101460009FEDF40A69EE000A9FEDF31A80EE810AFF
:101470008DED120A9FEDEF0A29EE000ADFEDEE0A6C
:1014800080EE201A9FEDEB0A30EE410ADFEDE90A0B
:10149000B4EEE00AF1EE10FA10DD9FEDE60A29EE57
:1014A000000ADFEDE50A80EE201A9FEDE20A30EE39
:1014B000410ADFEDE20A30EE600A0BE09FEDDD0A43
:1014C00069EE000A9FEDDC1A80EE810ADFEDD90A91
:1014D00030EEC00A8DED130AB1EE4C0AB0EE40CAF0
:1014E0002CEE080A08EEEA0A6AEEAA0A48EE080A92
:1014F00080EE201AF0EE41EAB0EE6E0A0DF050FADE
:10150000B0EE409A9FEDCB0A69EE000A9FEDCA1A31
:1015100080EE810ADFEDC70AB4EEE00AF1EE10FAC0
:1015200004DD9FEDC60A39EE400A07E09FEDC10ACF
:1015300069EE000A9FEDC01A80EE810A8DED140A53
:101540009FEDBC0A29EE000ADFEDBB0A80EE201AEF
:101550009FEDB80A30EE410ADFEDB60AB4EEE00ABC
:10156000F1EE10FA10DD9FEDB30A69EE000A9FED6F
:10157000B21A80EE810ADFEDAF0A30EEC00ADFED6D
:10158000AF0A30EE600A0BE09FEDAA0A29EE000ACE
:101590009FEDA91AC0EE010A9FEDA60A30EE600A7F
:1015A0008DED150A012401259FEDA5DA00BF3FE06E
:1015B0001DEE100A0EF09EFECDE9020111A800EB0F
:1015C000840090ED000ADDED190A30EEC00A10EE3D
:1015D000101A08460EF08EFE21F00041CDE9000100
:1015E0009DED020B53EC102B9DED000B51EC100BFD
:1015F0000EF01AFC1AD2254611A800EB840090EDDB
:10160000000ADDED190A30EEC00A10EE101A084685
:101610000EF070FE21F00041CDE902019DED020BBC
:1016200051EC100B0EF068F90DEE100A601CC4B2FC
:10163000052CBDDB11A800EB850090ED00FA2AEE29
:10164000AA0A08EE080A08EEE80AB5EEC00AF1EEAA
:1016500010FA01D203206AE6012D01D0022D0CD12F
:101660006AEEAA0A48EE080A48EEE80AB0EE600AF6
:101670000DF002FCB0EE40CA0DE06AEEAA0A48EE98
:10168000080A48EEE80AB0EE600A0DF0F5FBB1EE8C
:10169000400AB0EE40CA88ED00FA2AEEAA0A08EE27
:1016A000080A0BEEAB0A08EEE80ADFED660A30EE38
:1016B000600ADFED650A30EE600AB0EE001AC0EE97
:1016C000010A9FED621A80EE810A9FED611AC0EE59
:1016D000010A10EE90AA50460EF00CFE21F00041D7
:1016E0001FEDB10B53EC102BCDE902019DED020B68
:1016F00051EC100B0EF0D2FC01D2042017E62AEEBA
:10170000AA0A08EE080A0BEEAB0A08EEE80ADFEDBB
:101710004D0A30EE600ADFED4C0A70EE600AB0EE62
:10172000001A80EE810A9FED491AC0EE010A9FED72
:10173000480A80EE801AF0EE41FAB0EE6F0A0DF022
:10174000A3F8B0EE40BAB0EE4B0ADFED3A0A20EE55
:10175000200ADFED390A80EE201A8DED0F1AB0EE67
:101760004B0ADFED340A60EE200A9FED331A80EE5B
:10177000810ADFED300A30EE200ADFED2E0AB4EEEA
:10178000E00AF1EE10FA0ADD9FED2A0A2BEE000ABC
:10179000DFED290A80EE201AB1EE410A0BE09FED41
:1017A000250A6BEE000A9FED241A80EE810ADFED18
:1017B000210A30EE200A8DED100ADDED100A9DEDB4
:1017C000170A30EE600A10EE101A08460EF092FD6D
:1017D00021F00041CDE902019DED0F0ADDED170A70
:1017E00030EEC00A10EE101A08460EF083FD21F00C
:1017F0000041CDE900019DED020B53EC102B9DED56
:10180000000B51EC100B0EF00FFB02D29DED0F0AF6
:1018100001E09DED100AB0EE40BA87ED00BA9FEDF1
:10182000060A2BEE000ADFED030A80EE201A8DED8A
:10183000031A0FE000003443DC0F49400000B443BA
:101840000000B94300B9574767178A4700006B4348
:1018500033F384439DED030A0DF038F9DFEDFE0A02
:101860009FEDFE1A41EE000AF0EE60FAB0EE6F0A4C
:101870000DF002FBF0EE40CA8CEE2C0A10EE10AA1E
:1018800050460EF037FD21F000419FEDF50B53EC73
:10189000102BCDE902019DED020B51EC100B0EF067
:1018A000FDFB29D31FED1C0A2BEE000A5FED1F0A7A
:1018B00080EE201AF0EE41FAB0EE6F0A0DF006F954
:1018C0005FED1E0A1FED1E1A41EE000A80EEAC0A03
:1018D00010EE10AA50460EF00DFD21F000419FEDD4
:1018E000E00B53EC102BCDE902019DED020B51EC06
:1018F000100B0EF0D3FB01D2052018E58CEE2C0A5C
:10190000F0EE40FA0CF0C0FFB0EE40AA1FED360A30
:101910002BEE000A5FED390A80EE201AF0EE41FA54
:10192000B0EE6F0A0DF0D2F85FED380A1FED381AED
:1019300041EE000A80EEAC0A8DED030A9DED030A2C
:101940000CF0A2FFF0EE409AB0EE690A3AEE400ABF
:101950005FED470AB4EEE00AF1EE10FA06DD3AEE6A
:10196000690ADFEDC10A30EE600A01E03AEE690A69
:101970008DED0A0A3AEE290A5FED510AB4EEE00A4B
:10198000F1EE10FA06DD3AEE290ADFEDB70A30EE85
:10199000600A01E03AEE290A8DED0B0AB1EE4A0A1F
:1019A00030EE690A5FED5C0AB4EEE00AF1EE10FA7F
:1019B00008DDB1EE4A0A30EE690ADFEDAB0A30EE1F
:1019C000600A03E0B1EE4A0A30EE690A8DED0C0AB6
:1019D000B1EE4A0A30EE290A5FED690AB4EEE00A78
:1019E000F1EE10FA08DDB1EE4A0A30EE290ADFED19
:1019F0009E0A30EE600A03E0B1EE4A0A30EE290A90
:101A00008DED0D0A5FED72DA01244FE01DEE900AB4
:101A10000EF070FCCDE9020109A800EB840090ED06
:101A2000000A5FED7C0A60EE200A1FED7D1A80EE51
:101A3000810ADDED180A30EEC00A10EE10AA5046F9
:101A40000EF058FC21F00041CDE900019DED020BA4
:101A500053EC102B9DED000B51EC100B0EF0E4F944
:101A600022D2254609A800EB840090ED000A5FED24
:101A70008F0A20EE201A5FED900A81EE200ADDED3C
:101A8000180A30EEC00A10EE10AA50460EF032FCD2
:101A900021F00041CDE902019DED020B51EC100B4C
:101AA0000DF02AFF0DEE900A601CC4B2052CADDBD0
:101AB00009A800EB850090ED000A5FEDA20A20EE78
:101AC000200A5FEDA30A80EE201A86ED001A96ED3B
:101AD000000ADFED660A30EEC00AD7ED000A30EEEC
:101AE000600A8DED050A96ED000A5FEDAE0A30EE54
:101AF000C00AD7ED000A30EE600A8DED060A96EDB9
:101B0000000A5FEDB20A30EEC00AD7ED000A30EEEF
:101B1000600A8DED070A1FEDB6EA01243FE01EEED4
:101B2000100A0EF0E7FBCDE9020104A800EB8400E7
:101B300090ED000ADDED160A30EEC00A10EE101A24
:101B400008460EF0D7FB21F00041CDE900019DEDE4
:101B5000020B53EC102B9DED000B51EC100B0EF013
:101B600063F91AD2254604A800EB840090ED000A20
:101B7000DDED160A30EEC00A10EE101A08460EF01F
:101B8000B9FB21F00041CDE902019DED020B51ECC2
:101B9000100B0DF0B1FE0EEE100A601CC4B2042C46
:101BA000BDDB04A800EB850090ED000A89ED000A7A
:101BB00000BF00204FE500B5BFB021E02C48006811
:101BC0000078FF2806D12A48006840680078FF287E
:101BD00000D116E02648006826490968884202D1EB
:101BE00001203FB000BD0020214909680870002194
:101BF0001F48006841701E48006840681C49086022
:101C0000DCE700BF1A4800680078FF287BD118483D
:101C1000006840680078FF28F8D101201649087054
:101C20000020259000211248006801700020104912
:101C3000096848700E48006840680D490860002136
:101C40000B4800680170002009490968487008487D
:101C500000684068064911E0E7F3F5478016F4474D
:101C6000000000000000F03FDC0FC9400000000051
:101C70002000002024000020B0020020086015E0B1
:101C800000202190022008F0B9FD2199481C2190E4
:101C900028290ADD0020FE4909684870FC480068D0
:101CA0004068FB49086002209BE700BFF8480068D5
:101CB00040780028E4D0F648006802782598411C56
:101CC000C9B2259126A90A540020F1490968487033
:101CD000EF4800684068EE49086016E00020219057
:101CE000022008F08BFD2199481C219028290BDD4A
:101CF0000020E74909684870E54800684068E44901
:101D0000086002206DE7FDE300BFE148006840780D
:101D10000028E3D0DE48006802782598411CC9B24B
:101D2000259126A90A540020D94909684870D84845
:101D300000684068D64908609DF899009DF89810A1
:101D400040EA01202490249806280DDA0021D0488A
:101D500000684170CE4800684068CD490860CDA059
:101D60000BF09AFC03203CE72EE00020219013E0CA
:101D7000022008F043FD2198411C89B221913C28A2
:101D80000ADD0020C24909684870C14800684068FF
:101D9000BF490860022024E7BD4800684078002859
:101DA000E6D0BB480068017826AA25981154002087
:101DB000B74909684870B64800684068B449086087
:101DC0002598401CC0B22590DDE924108842CCDB68
:101DD0002498001F80B20146219026A8FEF790FAB1
:101DE0002390B1A023990BF057FC2498001F26A93B
:101DF000085C01062498C01E26AA105C41EA004136
:101E00002498801E105C41EA00212498401E105C3A
:101E100008432290DDE92210884204D0A6A00BF0EE
:101E20003BFC0420DDE60020A64908702498001F32
:101E300088809DF89A0040EA002008819DF89C1057
:101E4000A04841814089012803DB9E48408904283D
:101E500007DD9C4840890A2803D09A4840890B280E
:101E60007DD1984840890146219097A00BF014FC41
:101E700003209449488000208881084640890C2826
:101E80003FD2DFE800F03E6D9CA0FC3E3E3E3E3E71
:101E9000063F0DF19D00219000202090209024E02D
:101EA00021980078012819D186488089012220993B
:101EB0008A401043834988812098401C04280DDC07
:101EC0002098401CC0B21F9006F0F9FA2098401CE0
:101ED000C0B2012206211F9006F0ABFB2198401CE6
:101EE00021902098401CC0B220907648818820988C
:101EF0008142D5DC734880890F2802DD7BA00BF07E
:101F0000CBFB30E30DF19D00219000202090FF20BD
:101F10006C498881002020901BE02198007888B9C6
:101F200068488089002220998A401040654988814C
:101F30002098401C042805DC2098401CC0B21F904B
:101F400006F02FFB2198401C21902098401CC0B225
:101F500020905C48818820988142DEDC03E3FDE329
:101F60009DF89D0021902198042803DD6DA00BF0C1
:101F700093FB23E06FA00BF08FFB002020909DF8D7
:101F80009E0001069DF89F0041EA00409DF8A010C8
:101F900040EA01209DF8A110084320909DED200A01
:101FA000F8EEC00A9FED681A80EE810A8DED1F0AD7
:101FB0009DED1F0A219806F0D6FB00BFEDE363A05C
:101FC0000BF06AFBE9E366A00BF066FB9DF89E0050
:101FD00000069DF89F1040EA01419DF8A00041EAEB
:101FE00000209DF8A110084321909DED210AF8EEF4
:101FF000C00A9FED631A80EE810A8DED200A9DF8DC
:102000009D001F901F98062840D2DFE800F003E0F3
:10201000FEFDFCFB00215B480AF0FCFD5A4890EDF8
:10202000000A284880ED080A20980EF063F921F094
:102030000041CDE91A015448406817900EF05AF952
:10204000CDE918019DED1A0B53EC102B9DED180BEB
:1020500051EC100B0DF082FCCDE91C019DED1C0B29
:1020600051EC100B0DF048FC16494862464890EDC3
:10207000020A084680ED0A0A806A179000E073E2BF
:102080000EF038F9CDE91C010E487FE00CE20000AB
:102090002000002064617461206C656E67746820A4
:1020A0006572726F720A0000435243207265737545
:1020B0006C74202025780A00637263206572726F49
:1020C000720A0000B0020020636F6E74726F6C20A1
:1020D0006672616D652C2066756E6374696F6E2023
:1020E000636F6465202025640A0000007761726ECA
:1020F000696E6720746F6F206D756368206D6F74F3
:102100006F722C20656E61626C65203120746F20C7
:1021100034206D6F746F7220616C72656164790A2E
:10212000000000006D6F746F722069642065727228
:102130006F720A0061627320706F736974696F6EE9
:102140002C20636D64310A0000401C46636D6420DE
:10215000322C20737065656420636D640A00000092
:10216000636D6420332C2072656C61746976652020
:10217000706F736974696F6E20636D640A0000008C
:102180000000C8420010004030220020406A179032
:102190000EF0B0F8CDE91A01FE48006A17900EF073
:1021A000A9F8CDE91801DDE91C01CDE90201DDE95D
:1021B0001A01CDE900019DED180B53EC102BF6A090
:1021C0000BF06AFA0121FC480AF024FDCAE1002163
:1021D000F9480AF01FFDF94890ED000AED4880ED3E
:1021E000080A20980EF086F821F00041CDE91A0186
:1021F000F248406817900EF07DF8CDE918019DED8A
:102200001A0B03E051E1F5E09AE03FE053EC102BAC
:102210009DED180B51EC100B0DF082FFCDE91C0168
:102220009DED1C0B51EC100B0DF066FBD94948627B
:10223000E24890ED020A084680ED0A0A806A17908B
:102240000EF058F8CDE91C01D248406A17900EF004
:1022500051F8CDE91A01CF48006A17900EF04AF8FC
:10226000CDE91801DDE91C01CDE90201DDE91A0122
:10227000CDE900019DED180B53EC102BC6A00BF01F
:102280000BFA0121CC480AF0C5FC6BE10021CA48D9
:102290000AF0C0FC20980EF02DF821F00041CDE9A5
:1022A0001A01C648006817900EF024F8CDE918010D
:1022B0009DED1A0B53EC102B9DED180B51EC100BF0
:1022C0000DF02EFFCDE91C019DED1C0B51EC100B08
:1022D0000DF012FBAF490862B84890ED010A0846BC
:1022E00080ED090AB54890ED020A084680ED0A0A19
:1022F000806A17900DF0FEFFCDE91C01A548406AE9
:1023000017900DF0F7FFCDE91A01A248006A179067
:102310000DF0F0FFCDE91801DDE91C01CDE9020166
:10232000DDE91A01CDE900019DED180B53EC102BEE
:1023300099A00BF0B1F901219F480AF06BFC11E163
:1023400000219D480AF066FC20980DF0D3FF21F093
:102350000041CDE91A019948006817900DF0CAFFB5
:10236000CDE918019DED1A0B53EC102B9DED180BC8
:1023700051EC100B0DF0F2FACDE91C019DED1C0B98
:1023800051EC100B0DF0B8FA824908628B4890EDC1
:10239000010A084680ED090A884890ED020A0846BD
:1023A00080ED0A0A806A17900DF0A4FFCDE91C01A8
:1023B0007848406A17900DF09DFFCDE91A017548E5
:1023C000006A17900DF096FFCDE91801DDE91C01B8
:1023D000CDE90201DDE91A01CDE900019DED180BFF
:1023E00053EC102B6CA00BF057F9012172480AF046
:1023F00011FCB7E0002170480AF00CFC6F4890ED2A
:10240000000A644880ED080A6C4890ED010A6148B2
:1024100080ED090A20980DF06DFF21F00041CDE913
:102420001A016648806817900DF064FFCDE9180125
:102430009DED1A0B53EC102B9DED180B51EC100B6E
:102440000DF08CFACDE91C019DED1C0B51EC100B2D
:102450000DF052FA4F4988620846806A17900DF0D5
:1024600049FFCDE91C014B48406A17900DF042FF2F
:10247000CDE91A014748006A17900DF03BFFCDE9FE
:102480001801DDE91C01CDE90201DDE91A01CDE900
:1024900000019DED180B53EC102B3FA00BF0FCF846
:1024A000012145480AF0B6FB5CE0002142480AF0F1
:1024B000B1FB424890ED000A364880ED080A3F48DB
:1024C00090ED010A334880ED090A20980DF012FFC3
:1024D00021F00041CDE91A013848806817900DF0CD
:1024E00009FFCDE918019DED1A0B53EC102B9DED62
:1024F000180B51EC100B0DF013FECDE91C019DEDF6
:102500001C0B00E07AE151EC100B0DF0F5F92149BC
:1025100088620846806A17900DF0ECFECDE91C0138
:102520001C48406A17900DF0E5FECDE91A011948E4
:10253000006A17900DF0DEFECDE91801DDE91C01FF
:10254000CDE90201DDE91A01CDE900019DED180B8D
:1025500053EC102B10A00BF09FF8012116480AF045
:1025600059FB00BF00BF18E115A00BF095F8002142
:1025700011480AF04FFB9DF89D0000069DF89E1043
:1025800040EA01419DF89F0041EA00209DF8A0101B
:10259000084321E0B0020020746172676574207006
:1025A0006F736974696F6E2069732025662C20250E
:1025B000662C2025660A0000001000403022002012
:1025C000636D64342C2061627320706F7369746969
:1025D0006F6E20636D640A0021909DF8A1000006D3
:1025E0009DF8A21040EA01409DF8A31040EA0120A6
:1025F0009DF8A410084320909DF8A50000069DF8C2
:10260000A61040EA01409DF8A71040EA01209DF87D
:10261000A81008431F909DF8A90001069DF8AA0084
:1026200041EA00409DF8AB1040EA01209DF8AC1053
:1026300008431E909DF8AD0000069DF8AE1040EADC
:1026400001419DF8AF0041EA00209DF8B010084319
:102650001D909DF8B10000069DF8B21040EA0141BE
:102660009DF8B30041EA00209DF8B41008431C9087
:102670009DED210AF8EEC00A9FEDF31A80EE810A63
:102680008DED1B0A9DED200AF8EEC00A9FEDEE1AB3
:1026900080EE810A8DED1A0A9DED1F0AF8EEC00A40
:1026A0009FEDE91A80EE810A8DED190A9DED1E0A53
:1026B000F8EEC00A9FEDE51A80EE810A8DED180A4A
:1026C0009DED1D0AF8EEC00A9FEDE01A80EE810A2A
:1026D0008DED170A9DED1C0AF8EEC00A9FEDDB1A7E
:1026E00080EE810A8DED160A9DED180AD84880ED1E
:1026F000080A9DED170A80ED090A9DED160A80ED86
:102700000A0A9DED1B0A80ED050A9DED1A0A80ED6F
:10271000060A9DED190A80ED070A16980DF0EAFDEC
:10272000CDE9140117980DF0E5FDCDE912011898D7
:102730000DF0E0FDCDE9100119980DF0DBFDCDE9BC
:102740000E011A980DF0D6FDCDE90C011B980DF085
:10275000D1FDCDE90A01DDE9140100E01EE0CDE97B
:102760000801DDE91201CDE90601DDE91001CDE93D
:102770000401DDE90E01CDE90201DDE90C01CDE93D
:1027800000019DED0A0B53EC102BB2A00AF084FF60
:102790000121B6480AF03EFA00BF00BFAC484089AC
:1027A00005280DDBAA484089082809DCA84840898B
:1027B00001462190AEA00AF06FFF0120A449488095
:1027C000A3484089092809D1A148408901462190A0
:1027D000AFA00AF061FF02209D4948802498062896
:1027E00009D19B48408901462190B1A00AF054FFCD
:1027F0000020974948800020FFF7F3B90020B54931
:1028000009680870B34909684870B24800684068B0
:10281000B04908600020EFE710B5AFA00AF03CFF18
:10282000B6A00AF039FFBEA00AF036FFC5A00AF034
:1028300033FFCEA00AF030FFD5A00AF02DFFDCA0B8
:102840000AF02AFFE2A00AF027FFE8A00AF024FF1E
:1028500010BD11B59DB01D98332883F0CD81DFE800
:1028600010F0CB1933003D004A00510058005F00C2
:10287000CB19CB19CB19680074007A009200AA001A
:10288000AB00B200B900C000C700CE00D500DC002C
:10289000E300EB008B029E02B102C402D702EA02FF
:1028A000FD0210032303360349035C036F03410455
:1028B00045053406A108AD0A750C4B0E2910F01120
:1028C000DA13AF15C215CB17CFA00AF0E5FE04F05E
:1028D0009FFAD2A00AF0E0FE03F091B9D3A00AF06B
:1028E000DBFE04F0A1FA4FF4FA7007F0CFFFD3A09B
:1028F0000AF0D2FEF0E7D6A00AF0CEFEDAA00AF087
:10290000CBFEE9E7DEA00AF0C7FEE4A00AF0C4FEB1
:10291000E2E7E8A00AF0C0FEEDA00AF0BDFEDBE7AA
:10292000F1A00AF0B9FE05F073FEF4A00AF0B4FEBF
:10293000D2E7F7A00AF0B0FE04F06AFA04F074FAE5
:102940004FF47A7007F0A2FFC6E7F4A00AF0A4FEE5
:1029500005F05EFEC0E7F4A00AF09EFE012206210B
:10296000104605F066FE01220621022005F061FEF8
:1029700001220621032005F05CFE0122062104202D
:1029800005F057FEA8E7F1A00AF086FE0122032118
:10299000104605F04EFE01220321022005F049FEFB
:1029A00001220321084605F044FE012203210420F0
:1029B00005F03FFE90E78FE700219FEDEC0A042031
:1029C000FEF756FA88E701219FEDE80A0420FEF79A
:1029D0004FFA81E700219FEDE50A0320FEF748FA50
:1029E0007AE701219FEDE10A0320FEF741FA73E740
:1029F00000219FEDDE0A0220FEF73AFA6CE7012182
:102A00009FEDDA0A0220FEF733FA65E700219FED19
:102A1000D70A0120FEF72CFA5EE701219FEDD30AC9
:102A20000846FEF725FA57E7DFEDD10A9FED070AC2
:102A30000420FEF791FB4FE7DFEDCE0A9FED030A7E
:102A40000420FEF789FB47E700401C460000C8420F
:102A5000B002002025662C2025662C2025662C201F
:102A600025662C2025662C2025660A0000100040D3
:102A700072656164206672616D652C2066756E6397
:102A800074696F6E20636F6465202025640A0000FE
:102A9000736574206672616D652C2066756E637453
:102AA000696F6E20636F6465202025640A00000052
:102AB000686561727462656174206672616D652C0F
:102AC0002066756E6374696F6E20636F6465202085
:102AD00025640A00200000200D0ABBB6D3ADCAB998
:102AE000D3C320494E4E464F532053434120C7FD88
:102AF000B6AFB2E2CAD4A3A10D0A0000CFEACFB8A4
:102B0000CDA8D0C5D0ADD2E9B2CEBCFB20494E4E47
:102B1000464F532057494B4920A3A10D0A000000FE
:102B2000B7A2CBCD203120C2D6D1AFD7DCCFDFC901
:102B3000CFB5C4D6B4D0D0C6F7494420A3A10D0A5E
:102B400000000000B7A2CBCD203220CAB9D3C3C445
:102B5000ACC8CF4944B3F5CABCBBAF534341BFD89F
:102B6000D6C6C6F720A3A10D0A000000B7A2CBCDA0
:102B7000203320BDF8C8EBCEBBD6C3B9E9C1E3B260
:102B8000E2CAD4B3CCD0F220A3A10D0A0000000009
:102B9000B7A2CBCD203420BDF8C8EBD5FDB7B4D754
:102BA000AAB2E2CAD4B3CCD0F220A3A10D0A00008D
:102BB000B7A2CBCD203520BDF8C8EBB8DFB5CDCB63
:102BC000D9B2E2CAD4B3CCD0F220A3A10D0A00003E
:102BD000B7A2CBCD203620BDABD6B4D0D0C6F7B986
:102BE000D8BBFA20A3A10D0A00000000B7A2CBCDEC
:102BF000203720CFD4CABEB0EFD6FAD0C5CFA2209E
:102C0000A3A10D0A000000000D0AD6B4D0D0C2D690
:102C1000D1AFB3CCD0F2A3A10D0A0000C2D6D1AF80
:102C2000BDE1CAF8A3A10D0A000000000D0A53433C
:102C300041B3F5CABCBBAFA3A10D0A00534341B3D6
:102C4000F5CABCBBAFBDE1CAF8A3A10D0A000000E4
:102C50000D0ABDF8C8EBCEBBD6C3B9E9C1E3B2E2F9
:102C6000CAD4A3A10D0A0000CEBBD6C3B9E9C1E303
:102C7000B2E2CAD4BDE1CAF8A3A10D0A0000000067
:102C80000D0ABDF8C8EBD5FDB7B4D7AAC7D0BBBBFA
:102C9000B2E2CAD4A3A10D0A00000000D5FDB7B46A
:102CA000D7AAC7D0BBBBB2E2CAD4BDE1CAF8A3A1C0
:102CB0000D0A00000D0ABDF8C8EBB8DFB5CDCBD9C1
:102CC000C7D0BBBBB2E2CAD4A3A10D0A000000006A
:102CD000B8DFB5CDCBD9C7D0BBBBB2E2CAD4BDE15A
:102CE000CAF8A3A10D0A00000D0AD6B4D0D0C6F7C9
:102CF000B9D8BBFAA3A10D0A00000000D6B4D0D009
:102D0000C6F7B9D8BBFABDE1CAF8A3A10D0A000005
:102D1000737461727420616C6C200A00636C6F7351
:102D20006520616C6C200A007772697465206D6F94
:102D3000746F7220746F20706F736974696F6E2086
:102D400053206D6F6465200A00000000777269747B
:102D500065206D6F746F7220746F20706F7369746B
:102D6000696F6E206D6F6465200A0000CDCCCC3D8C
:102D700000001042000000005FED023A1FED033A30
:102D80005FED042AB2EE042A5FED061A1FED071A62
:102D90005FED080AB2EE040AFEF738FA9CE55FED33
:102DA0000B3A1FED0C3A5FED0D2AB2EE042A5FEDEF
:102DB0000F1A1FED101A5FED110A1FED120AFEF730
:102DC00025FA89E55FED153A1FED163A5FED172AF2
:102DD000B2EE042A5FED191A1FED1A1A5FED1B0AF5
:102DE000BAEE040AFEF712FA76E55FED1E3A1FED21
:102DF0001F3AF2EE042A1FED212A5FED221A1FED81
:102E0000231AF2EE040A1FED250AFEF7FFF963E527
:102E10005FED283A1FED293AF2EE042A1FED2B2A26
:102E20005FED2C1A1FED2D1A5FED2E0A1FED2F0AF4
:102E3000FEF7ECF950E55FED313A1FED323AF2EE74
:102E4000042A1FED342A5FED351A1FED361AFAEE0B
:102E5000040A1FED380AFEF7D9F93DE55FED3B3A6C
:102E6000B2EE043A5FED3D2A1FED3E2A5FED3F1AB8
:102E7000B2EE041A5FED410A1FED420AFEF7C6F9F1
:102E80002AE55FED443AB2EE043A5FED462A1FEDC3
:102E9000472A5FED481A1FED491A5FED4A0A1FEDF8
:102EA0004B0AFEF7B3F917E55FED4E3AB2EE043A7E
:102EB0005FED502A1FED512A5FED521ABAEE041A47
:102EC0005FED540A1FED550AFEF7A0F904E5F2EE96
:102ED000043A1FED583A5FED592A1FED5A2AF2EED7
:102EE000041A1FED5C1A5FED5D0A1FED5E0AFEF726
:102EF0008DF9F1E4F2EE043A1FED623A5FED632AD8
:102F00001FED642A5FED651A1FED661A5FED670A13
:102F10001FED680AFEF77AF9DEE4F2EE043A1FEDDF
:102F20006B3A5FED6C2A1FED6D2AFAEE041A1FED65
:102F30006F1A5FED700A1FED710AFEF767F9CBE4B7
:102F400018AB19AA1AA91BA8FDF7E3FF1790179849
:102F500018B1EC480AF0A0FBC3E01B980DF0CAF9C9
:102F600021F000419FEDE80B53EC102BCDE912014D
:102F70009DED120B51EC100B0CF056FF02D21FED21
:102F8000830A01E09DED1B0A8DED1B0A1A980DF0D6
:102F9000B1F921F000419FEDDC0B53EC102BCDE992
:102FA00012019DED120B51EC100B0CF03DFF02D203
:102FB0001FED900A01E09DED1A0A8DED1A0A19988D
:102FC0000DF098F921F000419FEDCF0B53EC102B41
:102FD000CDE912019DED120B51EC100B0CF024FF0A
:102FE00002D21FED9C0A01E09DED190A8DED190A30
:102FF00018980DF07FF921F000419FEDC30B53ECC1
:10300000102BCDE912019DED120B51EC100B0CF0C1
:103010000BFF02D21FEDA90A01E09DED180A8DED0C
:10302000180A1FEDAC0A8DED160A1FEDAE0A8DEDE4
:10303000150A1FEDB00A8DED140A18980DF05AF913
:10304000CDE9120119980DF055F9CDE910011A9842
:103050000DF050F9CDE90E011B980DF04BF9CDE9BB
:103060000C01DDE91201CDE90401DDE91001CDE932
:103070000201DDE90E01CDE900019DED0C0B53ECE1
:10308000102BA3A00AF008FB14AA15A916A8DDEDC1
:10309000181A9DED191ADDED1A0A9DED1B0AFDF7B0
:1030A0007EFD14980DF026F9CDE9120115980DF06A
:1030B00021F9CDE9100116980DF01CF9CDE90E01AA
:1030C000DDE91201CDE90201DDE91001CDE90001E0
:1030D0009DED0E0B53EC102BAFF27C600AF0DCFA86
:1030E00000BF07E418AB19AA1AA91BA8FDF711FF26
:1030F0001790179818B183480AF0CEFAF5E01B989C
:103100000DF0F8F821F000419FED7F0B53EC102BF0
:10311000CDE912019DED120B51EC100B0CF084FE69
:1031200002D21FEDEC0A01E09DED1B0A8DED1B0A9A
:103130001A980DF0DFF821F000419FED730B53EC6E
:10314000102BCDE912019DED120B51EC100B0CF080
:103150006BFE02D21FEDF90A01E09DED1A0A8DED1A
:103160001A0A19980DF0C6F821F000419FED660B80
:1031700053EC102BCDE912019DED120B51EC100B0D
:103180000CF052FE02D29FED660A01E09DED190A95
:103190008DED190A18980DF0ADF821F000419FED62
:1031A0005A0B53EC102BCDE912019DED120B51EC93
:1031B000100B0CF039FE02D29FED590A01E09DED93
:1031C000180A8DED180A9FED560A8DED160A9FED2F
:1031D000540A8DED150A9FED520A8DED140A14AABA
:1031E00015A916A8DDED181A9DED191ADDED1A0ABC
:1031F0009DED1B0AFDF7D3FC14980DF07BF8CDE98B
:10320000120115980DF076F8CDE9100116980DF021
:1032100071F8CDE90E01DDE91201CDE90201DDE928
:103220001001CDE900019DED0E0B53EC102B3DA0DC
:103230000AF032FA18980DF05DF8CDE912011998EC
:103240000DF058F8CDE910011A980DF053F8CDE9BA
:103250000E011B980DF04EF8CDE90C01DDE91201CD
:10326000CDE90401DDE91001CDE90201DDE90E013E
:10327000CDE900019DED0C0B53EC102B31A00AF0B1
:103280000BFA18AB19AA1AA91BA89DED141ADDEDAB
:10329000150A9DED160AFEF71DF818980DF02AF88C
:1032A000CDE9120119980DF025F8CDE910011A9811
:1032B0000DF020F8CDE90E011B980DF01BF8CDE9BB
:1032C0000C01DDE91201CDE90401DDE91001CDE9D0
:1032D0000201DDE90E01CDE900019DED0C0B53EC7F
:1032E000102B23A00AF0D8F900BF57E518AB19AA94
:1032F0001AA91BA8FDF70DFE1790179800B14DE015
:1033000050E00000A41300087B14AE47E17A843F2C
:1033100025662C25662C25662C25660A00000000F3
:1033200000000000706F736974696F6E2020203A8E
:10333000202025662C20202025662C2020202025DA
:10334000660A000063757272656E7420616E676C48
:10335000652020202020203A202025662C202020B7
:1033600025662C20202020256620202025660A00A6
:103370007461726765742020616E676C652020201F
:103380002020203A202025662C20202025662C2075
:10339000202020256620202025660A00F8A00AF0BB
:1033A0007BF991E01B980CF0A5FF21F000411FED87
:1033B0002A0B53EC102BCDE914019DED140B51ECAD
:1033C000100B0CF031FD02D21FED2B0A01E09DED38
:1033D0001B0A8DED1B0A1A980CF08CFF21F000419E
:1033E0001FED370B53EC102BCDE914019DED140BA1
:1033F00051EC100B0CF018FD02D21FED370A01E062
:103400009DED1A0A8DED1A0A19980CF073FF21F040
:1034100000411FED430B53EC102BCDE914019DED42
:10342000140B51EC100B0CF0FFFC02D21FED440A00
:1034300001E09DED190A8DED190A18980CF05AFF5C
:1034400021F000411FED500B53EC102BCDE914017E
:103450009DED140B51EC100B0CF0E6FC02D21FEDAD
:10346000500A01E09DED180A8DED180AD34AD4499F
:10347000D448DDED181A9DED191ADDED1A0A9DEDFF
:103480001B0AFDF78CFBCD4800680CF033FFCDE93B
:103490001401CB4800680CF02DFFCDE91201C9489A
:1034A00000680CF027FFCDE91001DDE91401CDE93A
:1034B0000201DDE91201CDE900019DED100B53EC95
:1034C000102BC1A00AF0E8F868E418AB19AA1AA9F1
:1034D0001BA8FDF71EFD1790179818B1C5480AF0F4
:1034E000DBF85EE21B980CF005FF21F000411FEDB8
:1034F0007A0B53EC102BCDE910019DED100B51EC24
:10350000100B0CF091FC02D21FED7B0A01E09DED47
:103510001B0A8DED1B0A1A980CF0ECFE21F00041FD
:103520001FED870B53EC102BCDE910019DED100B17
:1035300051EC100B0CF078FC02D21FED870A01E071
:103540009DED1A0A8DED1A0A19980CF0D3FE21F0A0
:1035500000411FED930B53EC102BCDE910019DEDB5
:10356000100B51EC100B0CF05FFC02D21FED940A13
:1035700001E09DED190A8DED190A18980CF0BAFEBC
:1035800021F000411FEDA00B53EC102BCDE91001F1
:103590009DED100B51EC100B0CF046FC02D21FED10
:1035A000A00A01E09DED180A8DED180A854890EDFE
:1035B000000AF1EE040A30EE200A8DED110A13AB79
:1035C00014AA15A916A87D4C94ED001A7C4CD4EDD4
:1035D000000A9DED110AFDF77DFE12901298002859
:1035E0007DD113980CF086FECDE90C0114980CF0F7
:1035F00081FECDE90A0115980CF07CFECDE90801A9
:1036000016980CF077FECDE90601DDE90C01CDE955
:103610000401DDE90A01CDE90201DDE90801CDE996
:1036200000019DED060B53EC102BAFF2E0200AF0E9
:1036300033F89DED160ADDED1B0A30EE600A8DEDC4
:10364000090A09980CF056FE21F000419FED6A0B23
:1036500053EC102BCDE90A019DED0A0B51EC100B38
:103660000CF030FACDE90C019DED0C0B51EC100B78
:103670000CF042F911909DED150ADDED1A0A30EEBD
:10368000600A8DED090A09980CF034FE21F0004122
:103690009FED590B53EC102BCDE90A019DED0A0B60
:1036A00051EC100B0CF00EFACDE90C019DED0C0B5A
:1036B00051EC100B0CF020F910909DED140ADDED8B
:1036C000190A30EE600A8DED090A09980CF012FE15
:1036D00021F000419FED480B53EC102B00E05CE122
:1036E000CDE90A019DED0A0B51EC100B0CF0EAF943
:1036F000CDE90C019DED0C0B51EC100B0CF0FCF81E
:103700000F909DED130ADDED180A30EE600A8DED85
:10371000090A09980CF0EEFD21F000419FED360BEF
:1037200053EC102BCDE90A019DED0A0B51EC100B67
:103730000CF0C8F9CDE90C019DED0C0B51EC100B10
:103740000CF0DAF80E909DED110ADFED2D0AB4EEC3
:10375000E00AF1EE10FA02DD9FED290A01E09DED8D
:10376000110A8DED110A9DED100ADFED250AB4EE68
:10377000E00AF1EE10FA45DD9FED210A44E0000079
:10378000206572726F72207768696C6520696E209F
:1037900070726F63657373696E6720706F7369749D
:1037A000696F6E20746F20616E676C6520696E2092
:1037B000636F6D6D616E642033390A003400002040
:1037C000300000202C000020737461727420706F30
:1037D000696E7420706F736974696F6E2020203A6F
:1037E000202025662C20202025662C202020202526
:1037F000660A0000A41300089A9999999999B93F0B
:103800000000C8429DED100A8DED100A9DED0F0AD3
:103810005FED050AB4EEE00AF1EE10FA02DD1FEDED
:10382000080A01E09DED0F0A8DED0F0A9DED0E0ACD
:103830005FED0D0AB4EEE00AF1EE10FA02DD1FEDC5
:10384000100A01E09DED0E0A8DED0E0A16980CF09F
:1038500051FD21F000411FED180B53EC102BCDE969
:103860000C019DED0C0B51EC100B0CF0DDFA02D2AB
:103870009FEDF90A01E09DED160A8DED160A1598E7
:103880000CF038FD21F000411FED250B53EC102BFF
:10389000CDE90C019DED0C0B51EC100B0CF0C4FAB2
:1038A00002D29FEDED0A01E09DED150A8DED150A9E
:1038B00014980CF01FFD21F000411FED310B53EC6B
:1038C000102BCDE90C019DED0C0B51EC100B0CF005
:1038D000ABFA02D29FEDE00A01E09DED140A8DEDF6
:1038E000140A13980CF006FD21F000411FED3E0B69
:1038F00053EC102BCDE90C019DED0C0B51EC100B92
:103900000CF092FA02D29FEDD40A01E09DED130A69
:103910008DED130A0E980CF0EDFCCDE90C010F981B
:103920000CF0E8FCCDE90A0110980CF0E3FCCDE9BD
:10393000080111980CF0DEFCCDE90601DDE90C016F
:10394000CDE90401DDE90A01CDE90201DDE9080163
:10395000CDE900019DED060B53EC102BBFA009F043
:103960009BFEDDED0E3A9DED0F3ADDED102A9DED4B
:10397000112ADDED131A9DED141ADDED150A9DEDEA
:10398000160AFDF743FCBC4890ED000AF7EE000A6A
:1039900030EE200A80ED000A02E0B8A009F07CFEBB
:1039A00000BFA2E418AB19AA1AA91BA8FDF7B1FA27
:1039B0001790179818B1B84809F06EFEFDE11B98F2
:1039C0000CF098FC21F000419FEDB40B53EC102B50
:1039D000CDE910019DED100B51EC100B0CF024FA09
:1039E00002D29FED9D0A01E09DED1B0A8DED1B0AA1
:1039F0001A980CF07FFC21F000419FEDA80B53ECCE
:103A0000102BCDE910019DED100B51EC100B0CF0BB
:103A10000BFA02D29FED900A01E09DED1A0A8DED9E
:103A20001A0A19980CF066FC21F000419FED9B0BDF
:103A300053EC102BCDE910019DED100B51EC100B48
:103A40000CF0F2F902D29FED840A01E09DED190A13
:103A50008DED190A18980CF04DFC21F000419FEDF6
:103A60008F0B53EC102BCDE910019DED100B51EC99
:103A7000100B0CF0D9F902D29FED770A01E09DED11
:103A8000180A8DED180A7C4890ED000AF1EE040A40
:103A900030EE600A8DED110A13AB14AA15A916A811
:103AA000804C94ED001A804CD4ED000A9DED110A73
:103AB000FDF710FC1290129800287CD113980CF09E
:103AC00019FCCDE90C0114980CF014FCCDE90A01A5
:103AD00015980CF00FFCCDE9080116980CF00AFCC3
:103AE000CDE90601DDE90C01CDE90401DDE90A01BA
:103AF000CDE90201DDE90801CDE900019DED060BEC
:103B000053EC102B69A009F0C7FD9DED160ADDED01
:103B10001B0A30EE600A8DED090A09980CF0EAFBE9
:103B200021F000411FEDCC0B53EC102BCDE90A0125
:103B30009DED0A0B51EC100B0BF0C4FFCDE90C010D
:103B40009DED0C0B51EC100B0BF0D6FE11909DED82
:103B5000150ADDED1A0A30EE600A8DED090A0998A2
:103B60000CF0C8FB21F000411FEDDD0B53EC102BD6
:103B7000CDE90A019DED0A0B51EC100B0BF0A2FFF1
:103B8000CDE90C019DED0C0B51EC100B0BF0B4FECC
:103B900010909DED140ADDED190A30EE600A8DEDEE
:103BA000090A09980CF0A6FB21F000411FEDEE0B6D
:103BB00053EC102B00E0FBE0CDE90A019DED0A0B70
:103BC00051EC100B0BF07EFFCDE90C019DED0C0BC1
:103BD00051EC100B0BF090FE0F909DED130ADDEDF4
:103BE000180A30EE600A8DED090A09980CF082FB84
:103BF00021F000419FED370B53EC102BCDE90A016A
:103C00009DED0A0B51EC100B0BF05CFFCDE90C01A4
:103C10009DED0C0B51EC100B0BF06EFE0E909DED1C
:103C2000110ADFED2E0AB4EEE00AF1EE10FA02DD21
:103C30009FED2A0A01E09DED110A8DED110A9DED1F
:103C4000100ADFED260AB4EEE00AF1EE10FA47DDC5
:103C50009FED220A46E000000000000073706565D9
:103C60006420202020256620202025662020202575
:103C70006620202025660A002C0000206E6F206937
:103C80006E7665727365206F7574206F6620726141
:103C90006E67650A00000000A41300087B14AE479D
:103CA000E17A843F3400002030000020616E676CB0
:103CB000652020202020203A202025662C2020204E
:103CC00025662C2020202025662020202025660A1D
:103CD000000000009A9999999999B93F0000C8424B
:103CE0009DED100A8DED100A9DED0F0A5FED050A9E
:103CF000B4EEE00AF1EE10FA02DD1FED080A01E071
:103D00009DED0F0A8DED0F0A9DED0E0A5FED0D0A78
:103D1000B4EEE00AF1EE10FA02DD1FED100A01E048
:103D20009DED0E0A8DED0E0A0E980CF0E3FACDE92A
:103D30000C010F980CF0DEFACDE90A0110980CF096
:103D4000D9FACDE9080111980CF0D4FACDE90601B1
:103D5000DDE90C01CDE90401DDE90A01CDE902014B
:103D6000DDE90801CDE900019DED060B53EC102BB8
:103D7000AFF2181009F090FCDDED0E3A9DED0F3A10
:103D8000DDED102A9DED112ADDED131A9DED141ABB
:103D9000DDED150A9DED160AFDF738FAFC4890EDA9
:103DA000000AF7EE000A30EE600A80ED000A03E038
:103DB000AFF2381009F070FC00BFF2E518AB19AA99
:103DC0001AA91BA8FDF7A5F81790179818B1F14884
:103DD00009F062FCB9E11B980CF08CFA21F000416B
:103DE0001FED520B53EC102BCDE910019DED100B84
:103DF00051EC100B0CF018F802D21FED690A01E02B
:103E00009DED1B0A8DED1B0A1A980CF073FA21F038
:103E100000411FED5E0B53EC102BCDE910019DED21
:103E2000100B51EC100B0BF0FFFF02D21FED760AC6
:103E300001E09DED1A0A8DED1A0A19980CF05AFA54
:103E400021F000411FED6B0B53EC102BCDE910015D
:103E50009DED100B51EC100B0BF0E6FF02D21FEDA5
:103E6000820A01E09DED190A8DED190A18980CF0EF
:103E700041FA21F000411FED770B53EC102BCDE9F7
:103E800010019DED100B51EC100B0BF0CDFF02D289
:103E90001FED8F0A01E09DED180A8DED180ABC4850
:103EA00090ED000AF3EE0E0A30EE200A8DED110AB5
:103EB00013AB14AA15A916A8B74C94ED001AB74C69
:103EC000D4ED000A9DED110AFDF704FA1290129844
:103ED00000287DD113980CF00DFACDE90C0114984F
:103EE0000CF008FACDE90A0115980CF003FACDE9B7
:103EF000080116980CF0FEF9CDE90601DDE90C0188
:103F0000CDE90401DDE90A01CDE90201DDE908019D
:103F1000CDE900019DED060B53EC102BAFF27420A0
:103F200009F0BAFB9DED160ADDED1B0A30EE600AC2
:103F30008DED090A09980CF0DDF921F000411FED23
:103F40009B0B53EC102BCDE90A019DED0A0B51ECB4
:103F5000100B0BF0B7FDCDE90C019DED0C0B51ECF6
:103F6000100B0BF0C9FC11909DED150ADDED1A0A3E
:103F700030EE600A8DED090A09980CF0BBF921F0CA
:103F800000411FEDAC0B53EC102BCDE90A019DED68
:103F90000A0B51EC100B0BF095FDCDE90C019DEDDA
:103FA0000C0B51EC100B0BF0A7FC10909DED140ABC
:103FB000DDED190A30EE600A8DED090A09980CF062
:103FC00099F921F000411FEDBD0B53EC102B00E0DF
:103FD000B6E0CDE90A019DED0A0B51EC100B0BF098
:103FE00071FDCDE90C019DED0C0B51EC100B0BF0AC
:103FF00083FC0F909DED130ADDED180A30EE600A88
:104000008DED090A09980CF075F921F000411FEDBA
:10401000CF0B53EC102BCDE90A019DED0A0B51ECAF
:10402000100B0BF04FFDCDE90C019DED0C0B51EC8D
:10403000100B0BF061FC0E909DED110AF3EE0E0AD1
:10404000B4EEE00AF1EE10FA02DDB3EE0E0A01E082
:104050009DED110A8DED110A9DED100AF3EE0E0A89
:10406000B4EEE00AF1EE10FA02DDB3EE0E0A01E062
:104070009DED100A8DED100A9DED0F0AF3EE0E0A6C
:10408000B4EEE00AF1EE10FA02DDB3EE0E0A01E042
:104090009DED0F0A8DED0F0A9DED0E0A5FEDF10A01
:1040A000B4EEE00AF1EE10FA02DD1FEDF40A01E0D1
:1040B0009DED0E0A8DED0E0A0E980CF01BF9CDE960
:1040C0000C010F980CF016F9CDE90A0110980CF0CC
:1040D00011F9CDE9080111980CF00CF9CDE90601B0
:1040E000DDE90C01CDE90401DDE90A01CDE90201B8
:1040F000DDE90801CDE900019DED060B53EC102B25
:10410000AFF2A84009F0C8FADDED0E3A9DED0F3A86
:10411000DDED102A9DED112ADDED131A9DED141A27
:10412000DDED150A9DED160AFDF770F8184890EDC3
:10413000000AF3EE0E0A30EE200A80ED000A03E0DA
:10414000AFF2C84009F0A8FA00BF2AE418AB19AAD8
:104150001AA91BA8FCF7DDFE1790179818B10D4897
:1041600009F09AFAC7E11B980CF0C4F821F000415D
:104170009FED0B0B53EC102BCDE910019DED100BB7
:1041800051EC100B0BF050FE10D29FED070A0FE020
:104190002C000020A4130008340000203000002070
:1041A0007B14AE47E17A843F000000009DED1B0ABE
:1041B0008DED1B0A1A980CF09DF821F000411FEDBF
:1041C000080B53EC102BCDE910019DED100B51ECB9
:1041D000100B0BF029FE02D21FED0D0A01E09DED40
:1041E0001A0A8DED1A0A19980CF084F821F0004192
:1041F0001FED150B53EC102BCDE910019DED100BAD
:1042000051EC100B0BF010FE02D21FED190A01E069
:104210009DED190A8DED190A18980CF06BF821F034
:1042200000411FED210B53EC102BCDE910019DED4A
:10423000100B51EC100B0BF0F7FD02D21FED260A0C
:1042400001E09DED180A8DED180AFE4890ED000A78
:10425000F3EE0E0A30EE600A8DED110A13AB14AACC
:1042600015A916A8F84C94ED001AF84CD4ED000AE4
:104270009DED110AFDF72EF81290129800287DD1BD
:1042800013980CF037F8CDE90C0114980CF032F8C3
:10429000CDE90A0115980CF02DF8CDE90801169822
:1042A0000CF028F8CDE90601DDE90C01CDE90401A7
:1042B000DDE90A01CDE90201DDE90801CDE90001EE
:1042C0009DED060B53EC102BAFF2206009F0E4F9E2
:1042D0009DED160ADDED1B0A30EE600A8DED090A30
:1042E00009980CF007F821F000419FEDD90B53EC31
:1042F000102BCDE90A019DED0A0B51EC100B0BF0D0
:10430000E1FBCDE90C019DED0C0B51EC100B0BF01A
:10431000F3FA11909DED150ADDED1A0A30EE600AF0
:104320008DED090A09980BF0E5FF21F000419FEDA2
:10433000C80B53EC102BCDE90A019DED0A0B51EC93
:10434000100B0BF0BFFBCDE90C019DED0C0B51ECFC
:10435000100B0BF0D1FA10909DED140ADDED190A47
:1043600030EE600A8DED090A09980BF0C3FF21F0C9
:1043700000419FEDB70B53EC102B00E0B6E0CDE908
:104380000A019DED0A0B51EC100B0BF09BFBCDE9E4
:104390000C019DED0C0B51EC100B0BF0ADFA0F90D6
:1043A0009DED130ADDED180A30EE600A8DED090A65
:1043B00009980BF09FFF21F000419FEDA50B53ECF6
:1043C000102BCDE90A019DED0A0B51EC100B0BF0FF
:1043D00079FBCDE90C019DED0C0B51EC100B0BF0B2
:1043E0008BFA0E909DED110AF3EE0E0AB4EEE00A80
:1043F000F1EE10FA02DDB3EE0E0A01E09DED110AB6
:104400008DED110A9DED100AF3EE0E0AB4EEE00AEE
:10441000F1EE10FA02DDB3EE0E0A01E09DED100A96
:104420008DED100A9DED0F0AF3EE0E0AB4EEE00AD0
:10443000F1EE10FA02DDB3EE0E0A01E09DED0F0A77
:104440008DED0F0A9DED0E0ADFED830AB4EEE00A52
:10445000F1EE10FA02DD9FED800A01E09DED0E0AFB
:104460008DED0E0A0E980BF045FFCDE90C010F986B
:104470000BF040FFCDE90A0110980BF03BFFCDE9AE
:10448000080111980BF036FFCDE90601DDE90C01BA
:10449000CDE90401DDE90A01CDE90201DDE9080108
:1044A000CDE900019DED060B53EC102BAFF6540047
:1044B00009F0F2F8DDED0E3A9DED0F3ADDED102A30
:1044C0009DED112ADDED131A9DED141ADDED150A8F
:1044D0009DED160AFCF79AFE5A4890ED000AF3EE9D
:1044E0000E0A30EE600A80ED000A03E0AFF67400B9
:1044F00009F0D2F800BF60E418AB19AA1AA91BA8EA
:10450000FCF707FD1790179818B1544809F0C4F844
:10451000CFE11B980BF0EEFE21F000411FEDE00B08
:1045200053EC102BCDE910019DED100B51EC100B4D
:104530000BF07AFC02D21FEDE40A01E09DED1B0AAC
:104540008DED1B0A1A980BF0D5FE21F000411FEDEE
:10455000EC0B53EC102BCDE910019DED100B51EC41
:10456000100B0BF061FC02D21FEDF10A01E09DED92
:104570001A0A8DED1A0A19980BF0BCFE21F00041C1
:104580001FEDF90B53EC102BCDE910019DED100B35
:1045900051EC100B0BF048FC02D29FED310A01E008
:1045A0009DED190A8DED190A18980BF0A3FE21F064
:1045B00000419FED2C0B53EC102BCDE910019DED2C
:1045C000100B51EC100B0BF02FFC02D29FED240AC4
:1045D00001E09DED180A8DED180A1C4890ED000AC7
:1045E000F3EE0E0A30EE200A8DED110A13AB14AA79
:1045F00015A916A8144C94ED001ADDED110A114C02
:1046000094ED000AFCF766FE1290129800287DD106
:1046100013980BF06FFECDE90C0114980BF06AFEB5
:10462000CDE90A0115980BF065FECDE90801169851
:104630000BF060FECDE90601DDE90C01CDE90401D6
:1046400014E000002C000020340000203000002086
:104650009A9999999999B93F0000C842A413000802
:10466000000000007B14AE47E17A843FDDE90A01D7
:10467000CDE90201DDE90801CDE900019DED060B60
:1046800053EC102BAFF6DC1009F006F89DED160A7E
:10469000DDED1B0A30EE600A8DED090A09980BF07A
:1046A00029FE21F000411FED160B53EC102BCDE934
:1046B0000A019DED0A0B51EC100B0BF003FACDE94A
:1046C0000C019DED0C0B51EC100B0BF015F911903A
:1046D0009DED150ADDED1A0A30EE600A8DED090A2E
:1046E00009980BF007FE21F000411FED270B53EC5A
:1046F000102BCDE90A019DED0A0B51EC100B0BF0CC
:10470000E1F9CDE90C019DED0C0B00E0CCE051ECA2
:10471000100B0BF0F1F810909DED140ADDED190A65
:1047200030EE600A8DED090A09980BF0E3FD21F0E7
:1047300000411FED390B53EC102BCDE90A019DED23
:104740000A0B51EC100B0BF0BDF9CDE90C019DEDFE
:104750000C0B51EC100B0BF0CFF80F909DED130AE2
:10476000DDED180A30EE600A8DED090A09980BF0AC
:10477000C1FD21F000411FED4A0B53EC102BCDE998
:104780000A019DED0A0B51EC100B0BF09BF9CDE9E2
:104790000C019DED0C0B51EC100B0BF0ADF80E90D5
:1047A0009DED110AF3EE0E0AB4EEE00AF1EE10FAF6
:1047B00002DDB3EE0E0A01E09DED110A8DED110A46
:1047C0009DED100AF3EE0E0AB4EEE00AF1EE10FAD7
:1047D00002DDB3EE0E0A01E09DED100A8DED100A28
:1047E0009DED0F0AF3EE0E0AB4EEE00AF1EE10FAB8
:1047F00002DDB3EE0E0A01E09DED0F0A8DED0F0A0A
:104800009DED0E0A5FED6C0AB4EEE00AF1EE10FACF
:1048100002DD1FED6F0A01E09DED0E0A8DED0E0A1F
:104820000E980BF067FDCDE90C010F980BF062FDBF
:10483000CDE90A0110980BF05DFDCDE90801119852
:104840000BF058FDCDE90601DDE90C01CDE90401CD
:10485000DDE90A01CDE90201DDE90801CDE9000148
:104860009DED060B53EC102BAFF6104008F014FF33
:10487000DDED0E3A9DED0F3ADDED102A9DED112A8A
:10488000DDED131A9DED141ADDED150A9DED160AE6
:10489000FCF7BCFCFC4890ED000AF3EE0E0A30EE8B
:1048A000200A80ED000A03E0AFF6304008F0F4FE85
:1048B00000BF4AE418AB19AA1AA91BA8FCF729FBE8
:1048C0001790179818B1F14808F0E6FEB8E11B9868
:1048D0000BF010FD21F000411FED9E0B53EC102B4F
:1048E000CDE910019DED100B51EC100B0BF09CFA73
:1048F00002D21FEDA50A01E09DED1B0A8DED1B0AFA
:104900001A980BF0F7FC21F000411FEDAA0B53ECB5
:10491000102BCDE910019DED100B51EC100B0BF09D
:1049200083FA02D21FEDB20A01E09DED1A0A8DED65
:104930001A0A19980BF0DEFC21F000411FEDB70BAD
:1049400053EC102BCDE910019DED100B51EC100B29
:104950000BF06AFA02D21FEDBE0A01E09DED190AC2
:104960008DED190A18980BF0C5FC21F000411FEDE0
:10497000C30B53EC102BCDE910019DED100B51EC46
:10498000100B0BF051FA02D21FEDCB0A01E09DEDA6
:10499000180A8DED180ABC4890ED000AF3EE0E0AD5
:1049A00030EE600A8DED110A13AB14AA15A916A8F2
:1049B000B74C94ED001ADDED110AB64C94ED000AE7
:1049C000FCF788FC1290129800287DD113980BF008
:1049D00091FCCDE90C0114980BF08CFCCDE90A0197
:1049E00015980BF087FCCDE9080116980BF082FCB6
:1049F000CDE90601DDE90C01CDE90401DDE90A019B
:104A0000CDE90201DDE90801CDE900019DED060BCC
:104A100053EC102BAFF66C5008F03EFE9DED160ADD
:104A2000DDED1B0A30EE600A8DED090A09980BF0E6
:104A300061FC21F000411FEDFA0B53EC102BCDE986
:104A40000A019DED0A0B51EC100B0BF03BF8CDE980
:104A50000C019DED0C0B51EC100B0AF04DFF119069
:104A60009DED150ADDED1A0A30EE600A8DED090A9A
:104A700009980BF03FFC21F000419FED870B53ECB0
:104A8000102BCDE90A019DED0A0B51EC100B0BF038
:104A900019F8CDE90C019DED0C0B51EC100B0AF04F
:104AA0002BFF10909DED140ADDED190A30EE600A1F
:104AB0008DED090A09980BF01DFC21F000419FEDD6
:104AC000760B53EC102B00E0B6E0CDE90A019DED2A
:104AD0000A0B51EC100B0AF0F5FFCDE90C019DED2E
:104AE0000C0B51EC100B0AF007FF0F909DED130A11
:104AF000DDED180A30EE600A8DED090A09980BF019
:104B0000F9FB21F000419FED640B53EC102BCDE934
:104B10000A019DED0A0B51EC100B0AF0D3FFCDE911
:104B20000C019DED0C0B51EC100B0AF0E5FE0E9004
:104B30009DED110AF3EE0E0AB4EEE00AF1EE10FA62
:104B400002DDB3EE0E0A01E09DED110A8DED110AB2
:104B50009DED100AF3EE0E0AB4EEE00AF1EE10FA43
:104B600002DDB3EE0E0A01E09DED100A8DED100A94
:104B70009DED0F0AF3EE0E0AB4EEE00AF1EE10FA24
:104B800002DDB3EE0E0A01E09DED0F0A8DED0F0A76
:104B90009DED0E0ADFED420AB4EEE00AF1EE10FAE6
:104BA00002DD9FED3F0A01E09DED0E0A8DED0E0A3C
:104BB0000E980BF09FFBCDE90C010F980BF09AFBC0
:104BC000CDE90A0110980BF095FBCDE90801119889
:104BD0000BF090FBCDE90601DDE90C01CDE9040104
:104BE000DDE90A01CDE90201DDE90801CDE90001B5
:104BF0009DED060B53EC102BAFF6A07008F04CFDAA
:104C0000DDED0E3A9DED0F3ADDED102A9DED112AF6
:104C1000DDED131A9DED141ADDED150A9DED160A52
:104C2000FCF7F4FA184890ED000AF3EE0E0A30EEA5
:104C3000600A80ED000A02E01AA008F02DFD00BF16
:104C400059E418AB19AA1AA91BA8FCF762F9179026
:104C5000179818B10D4808F01FFDDBE11B980BF009
:104C600049FB21F000419FED160B53EC102BCDE9D1
:104C700010019DED100B51EC100B0BF0D5F825D267
:104C80009FED110A24E0000030000020A41300086A
:104C9000340000202C0000209A9999999999B93FE5
:104CA0000000C8426E6F20696E7665727365206F72
:104CB0007574206F662072616E6765200A000000BF
:104CC0007B14AE47E17A843F000000009DED1B0A93
:104CD0008DED1B0A1A980BF00DFB21F000411FED22
:104CE000080B53EC102BCDE910019DED100B51EC8E
:104CF000100B0BF099F802D21FED0D0A01E09DEDAB
:104D00001A0A8DED1A0A19980BF0F4FA21F00041F5
:104D10001FED150B53EC102BCDE910019DED100B81
:104D200051EC100B0BF080F802D21FED190A01E0D4
:104D30009DED190A8DED190A18980BF0DBFA21F098
:104D400000411FED210B53EC102BCDE910019DED1F
:104D5000100B51EC100B0BF067F802D21FED260A76
:104D600001E09DED180A8DED180AFE4890ED000A4D
:104D7000F3EE0E0A30EE200A8DED110A13AB14AAE1
:104D800015A916A89DED111AF74CD4ED000AF74CA1
:104D900094ED000AFCF79EFA1290129800287CD13C
:104DA00013980BF0A7FACDE90C0114980BF0A2FAB6
:104DB000CDE90A0115980BF09DFACDE90801169886
:104DC0000BF098FACDE90601DDE90C01CDE904010B
:104DD000DDE90A01CDE90201DDE90801CDE90001C3
:104DE0009DED060B53EC102BE14808F055FC9DEDB2
:104DF000160ADDED1B0A30EE600A8DED090A0998EE
:104E00000BF078FA21F000411FED5D0B53EC102BF5
:104E1000CDE90A019DED0A0B51EC100B0AF052FE90
:104E2000CDE90C019DED0C0B51EC100B0AF064FD6B
:104E300011909DED150ADDED1A0A30EE600A8DED38
:104E4000090A09980BF056FA21F000411FED6E0B8C
:104E500053EC102BCDE90A019DED0A0B51EC100B20
:104E60000AF030FECDE90C019DED0C0B51EC100B5E
:104E70000AF042FD10909DED140ADDED190A30EEA6
:104E8000600A8DED090A09980BF034FA21F000410F
:104E90001FED7F0B53EC102B00E0B6E0CDE90A01CB
:104EA0009DED0A0B51EC100B0AF00CFECDE90C0144
:104EB0009DED0C0B51EC100B0AF01EFD0F909DEDBB
:104EC000130ADDED180A30EE600A8DED090A099823
:104ED0000BF010FA21F000411FED910B53EC102B59
:104EE000CDE90A019DED0A0B51EC100B0AF0EAFD29
:104EF000CDE90C019DED0C0B51EC100B0AF0FCFC04
:104F00000E909DED110AF3EE0E0AB4EEE00AF1EEFA
:104F100010FA02DDB3EE0E0A01E09DED110A8DEDEF
:104F2000110A9DED100AF3EE0E0AB4EEE00AF1EE5E
:104F300010FA02DDB3EE0E0A01E09DED100A8DEDD0
:104F4000100A9DED0F0AF3EE0E0AB4EEE00AF1EE40
:104F500010FA02DDB3EE0E0A01E09DED0F0A8DEDB1
:104F60000F0A9DED0E0A5FEDB20AB4EEE00AF1EE13
:104F700010FA02DD1FEDB60A01E09DED0E0A8DED7F
:104F80000E0A0E980BF0B6F9CDE90C010F980BF054
:104F9000B1F9CDE90A0110980BF0ACF9CDE908019F
:104FA00011980BF0A7F9CDE90601DDE90C01CDE977
:104FB0000401DDE90A01CDE90201DDE90801CDE9DD
:104FC00000019DED060B53EC102B6948503808F09A
:104FD00063FBDDED0E3A9DED0F3ADDED102A9DED00
:104FE000112ADDED131A9DED141ADDED150A9DED64
:104FF000160AFCF70BF95B4890ED000AF3EE0E0A77
:1050000030EE200A80ED000A03E05948303808F0FD
:1050100043FB00BF4DE418AB19AA1AA91BA8FBF764
:1050200078FF1790179818B1524808F035FBC6E181
:105030001B980BF05FF921F000411FEDDF0B53ECE3
:10504000102BCDE910019DED100B51EC100B0AF067
:10505000EBFE02D21FEDE40A01E09DED1B0A8DED8F
:105060001B0A1A980BF046F921F000411FEDEC0BDA
:1050700053EC102BCDE910019DED100B51EC100BF2
:105080000AF0D2FE02D21FEDF00A01E09DED1A0AED
:105090008DED1A0A19980BF02DF921F000411FED42
:1050A000F80B53EC102BCDE910019DED100B51ECDA
:1050B000100B0AF0B9FE02D21FEDFD0A01E09DEDD2
:1050C000190A8DED190A18980BF014F921F0004116
:1050D0009FED290B53EC102BCDE910019DED100B2A
:1050E00051EC100B0AF0A0FE02D29FED250A01E060
:1050F0009DED180A8DED180A1A4890ED000AF3EE9E
:105100000E0A30EE600A8DED110A13AB14AA15A930
:1051100016A89DED111A144CD4ED000A134C94ED11
:10512000000AFCF7D7F812901298D0B913980BF038
:10513000E1F8CDE90C0114980BF0DCF8CDE90A0197
:1051400015980BF0D7F8CDE9080116980BF0D2F8B6
:10515000CDE90601DDE90C01CDE90401DDE90A0133
:1051600010E028E134000020300000202C00002056
:10517000AC3C0008A41300087B14AE47E17A843FDE
:1051800000000000CDE90201DDE90801CDE90001E0
:105190009DED060B53EC102BFB4808F07DFA9DEDBE
:1051A000160ADDED1B0A30EE600A8DED090A09983A
:1051B0000BF0A0F821F000419FEDF40B53EC102B05
:1051C000CDE90A019DED0A0B51EC100B0AF07AFCB7
:1051D000CDE90C019DED0C0B51EC100B0AF08CFB92
:1051E00011909DED150ADDED1A0A30EE600A8DED85
:1051F000090A09980BF07EF821F000419FEDE30BBE
:1052000053EC102BCDE90A019DED0A0B51EC100B6C
:105210000AF058FCCDE90C019DED0C0B51EC100B84
:105220000AF06AFB10909DED140ADDED190A30EECC
:10523000600A8DED090A09980BF05CF821F0004135
:105240009FEDD20B53EC102BCDE90A019DED0A0B1B
:1052500051EC100B0AF036FCCDE90C019DED0C0B66
:1052600051EC100B0AF048FB0F909DED130ADDED99
:10527000180A30EE600A8DED090A09980BF03AF829
:1052800021F000419FEDC10B53EC102BCDE90A0139
:105290009DED0A0B51EC100B0AF014FCCDE90C014A
:1052A0009DED0C0B51EC100B0AF026FB0E909DEDC2
:1052B000110AF3EE0E0AB4EEE00AF1EE10FA02DD86
:1052C000B3EE0E0A01E09DED110A8DED110A9DED80
:1052D000100AF3EE0E0AB4EEE00AF1EE10FA02DD67
:1052E000B3EE0E0A01E09DED100A8DED100A9DED62
:1052F0000F0AF3EE0E0AB4EEE00AF1EE10FA02DD48
:10530000B3EE0E0A01E09DED0F0A8DED0F0A9DED43
:105310000E0ADFEDA00AB4EEE00AF1EE10FA02DDAB
:105320009FED9C0A01E09DED0E0A8DED0E0A0E9890
:105330000AF0E0FFCDE90C010F980AF0DBFFCDE9A0
:105340000A0110980AF0D6FFCDE9080111980AF079
:10535000D1FFCDE90601DDE90C01CDE90401DDE96C
:105360000A01CDE90201DDE90801CDE900019DED69
:10537000060B53EC102B8448503808F08DF9DDED06
:105380000E3A9DED0F3ADDED102A9DED112ADDED6F
:10539000131A9DED141ADDED150A9DED160AFBF7A3
:1053A00035FF7D4890ED000AF3EE0E0A30EE600AFC
:1053B00080ED000A02E079A008F06EF900BF1AE261
:1053C000DFED7D3A9FED7C3ADFED7B2A9FED7A2A77
:1053D0005FED951A1FED961A5FED970A1FED980A7B
:1053E000FBF714FF07E218AB19AA1AA91BA8FBF7D1
:1053F00090FD1790179818B1704808F04DF9FAE130
:105400001B980AF077FF21F000411FEDA50B53EC2C
:10541000102BCDE910019DED100B51EC100B0AF093
:1054200003FD02D21FEDAA0A01E09DED1B0A8DEDDE
:105430001B0A1A980AF05EFF21F000411FEDB20B23
:1054400053EC102BCDE910019DED100B51EC100B1E
:105450000AF0EAFC02D21FEDB60A01E09DED1A0A3D
:105460008DED1A0A19980AF045FF21F000411FED51
:10547000BE0B53EC102BCDE910019DED100B51EC40
:10548000100B0AF0D1FC02D21FEDC30A01E09DED22
:10549000190A8DED190A18980AF02CFF21F0004125
:1054A0001FEDCB0B53EC102BCDE910019DED100B34
:1054B00051EC100B0AF0B8FC02D21FEDCF0A01E04C
:1054C0009DED180A8DED180A334890ED000AF3EEB1
:1054D0000E0A30EE600A8DED110A394890ED000A8F
:1054E000F3EE040A30EE600A8DED100A354890EDB7
:1054F000000ADFED350A30EE600A8DED0F0A13ABBE
:1055000014AA15A916A89DED111ADDED100A9DED3E
:105510000F0AFBF7DFFE12901298A0BB13980AF057
:10552000E9FECDE90C0114980AF0E4FECDE90A0188
:1055300015980AF0DFFECDE9080116980AF0DAFEA8
:10554000CDE90601DDE90C01CDE90401DDE90A013F
:10555000CDE90201DDE90801CDE900019DED060B71
:1055600053EC102B084808F097F89DED160ADDED76
:105570001B0A30EE600A8DED090A09980AF0BAFE9E
:1055800021F0004122E031E1AC3C00089A99999960
:105590009999B93F0000C842340000206E6F20691D
:1055A0006E7665727365202C206F7574206F66208F
:1055B00072616E67650A000000004842A41300088B
:1055C000300000202C000020000020421FED110BB5
:1055D00053EC102BCDE90A019DED0A0B51EC100B99
:1055E0000AF070FACDE90C019DED0C0B51EC100B9B
:1055F0000AF082F911909DED150ADDED1A0A30EEE0
:10560000600A8DED090A09980AF074FE21F0004144
:105610001FED220B53EC102BCDE90A019DED0A0B77
:1056200051EC100B0AF04EFACDE90C019DED0C0B7C
:1056300051EC100B0AF060F910909DED140ADDEDAD
:10564000190A30EE600A8DED090A09980AF052FE37
:1056500021F000411FED330B53EC102BCDE90A0173
:105660009DED0A0B51EC100B0AF02CFACDE90C0160
:105670009DED0C0B51EC100B0AF03EF90F909DEDD7
:10568000130ADDED180A30EE600A8DED090A09985B
:105690000AF030FE21F000411FED440B53EC102BBB
:1056A000CDE90A019DED0A0B51EC100B0AF00AFA44
:1056B000CDE90C019DED0C0B51EC100B0AF01CF91F
:1056C0000E909DED110AF3EE0E0AB4EEE00AF1EE33
:1056D00010FA02DDB3EE0E0A01E09DED110A8DED28
:1056E000110A9DED100AF3EE0E0AB4EEE00AF1EE97
:1056F00010FA02DDB3EE0E0A01E09DED100A8DED09
:10570000100A9DED0F0AF3EE0E0AB4EEE00AF1EE78
:1057100010FA02DDB3EE0E0A01E09DED0F0A8DEDE9
:105720000F0A9DED0E0A5FED650AB4EEE00AF1EE98
:1057300010FA02DD1FED690A01E09DED0E0A8DED04
:105740000E0A0E980AF0D6FDCDE90C010F980AF06A
:10575000D1FDCDE90A0110980AF0CCFDCDE9080190
:1057600011980AF0C7FDCDE90601DDE90C01CDE98C
:105770000401DDE90A01CDE90201DDE90801CDE915
:1057800000019DED060B53EC102BFE4807F084FF43
:10579000DDED0E3A9DED0F3ADDED102A9DED112A5B
:1057A000DDED131A9DED141ADDED150A9DED160AB7
:1057B000FBF72CFDF44890ED000AF3EE0E0A30EEF4
:1057C000600A80ED000AF14890ED000A5FED820A60
:1057D00030EE600A80ED000AED4890ED000AF3EE2D
:1057E000040A30EE600A80ED000A03E0AFF25420B4
:1057F00007F052FF00BF02E218AB19AA1AA91BA8B2
:10580000FBF787FB1790179818B1E24807F044FFA1
:10581000F1E11B980AF06EFD21F000419FEDDE0BD7
:1058200053EC102BCDE910019DED100B51EC100B3A
:105830000AF0FAFA02D29FEDDA0A01E09DED1B0AA6
:105840008DED1B0A1A980AF055FD21F000419FEDDD
:10585000D20B53EC102BCDE910019DED100B51EC48
:10586000100B0AF0E1FA02D29FEDCD0A01E09DEDA6
:105870001A0A8DED1A0A19980AF03CFD21F0004130
:105880009FEDC50B53EC102BCDE910019DED100BD6
:1058900051EC100B0AF0C8FA02D29FEDC10A01E0E8
:1058A0009DED190A8DED190A18980AF023FD21F0D3
:1058B00000419FEDB90B53EC102BCDE910019DED8C
:1058C000100B51EC100B0AF0AFFA02D29FEDB40AA4
:1058D00001E09DED180A8DED180AAB4890ED000A25
:1058E000F3EE0E0A30EE200A8DED110AA84890ED75
:1058F000000AF3EE040A30EE200A8DED100AA348E8
:1059000090ED000A5FEDD00A30EE200A8DED0F0A0F
:1059100013AB14AA15A916A89DED111ADDED100AF6
:105920009DED0F0AFBF7D6FC12901298E8BB139876
:105930000AF0E0FCCDE90C0114980AF0DBFCCDE99B
:105940000A0115980AF0D6FCCDE9080116980AF06C
:10595000D1FCCDE90601DDE90C01CDE90401DDE969
:105960000A01CDE90201DDE90801CDE900019DED63
:10597000060B53EC102B8348503007F08DFE9DED45
:10598000160ADDED1B0A30EE600A8DED090A099852
:105990000AF0B0FC21F000419FED820B53EC102B7C
:1059A000CDE90A019DED0A0B00E01FE151EC100B5F
:1059B0000AF088F8CDE90C019DED0C0B51EC100BB1
:1059C00009F09AFF11909DED150ADDED1A0A30EEEF
:1059D000600A8DED090A09980AF08CFC21F000415B
:1059E0009FED700B53EC102BCDE90A019DED0A0BD6
:1059F00051EC100B0AF066F8CDE90C019DED0C0B93
:105A000051EC100B09F078FF10909DED140ADDEDBC
:105A1000190A30EE600A8DED090A09980AF06AFC4D
:105A200021F000419FED5F0B53EC102BCDE90A01F3
:105A30009DED0A0B51EC100B0AF044F8CDE90C0176
:105A40009DED0C0B51EC100B09F056FF0F909DEDE6
:105A5000130ADDED180A30EE600A8DED090A099887
:105A60000AF048FC21F000419FED4E0B53EC102B47
:105A7000CDE90A019DED0A0B51EC100B0AF022F85A
:105A8000CDE90C019DED0C0B51EC100B09F034FF2E
:105A90000E909DED110AF3EE0E0AB4EEE00AF1EE5F
:105AA00010FA02DDB3EE0E0A01E09DED110A8DED54
:105AB000110A9DED100AF3EE0E0AB4EEE00AF1EEC3
:105AC00010FA02DDB3EE0E0A01E09DED100A8DED35
:105AD000100A9DED0F0AF3EE0E0AB4EEE00AF1EEA5
