:020000040800F2
:10000000A83500204DC70008797D00087B7D0008D9
:100010007F7D0008837D0008877D000800000000C8
:100020000000000000000000000000008B7D0008C0
:100030008D7D0008000000008F7D0008917D000884
:1000400067C7000867C7000867C7000867C70008D8
:1000500067C7000867C7000867C7000867C70008C8
:1000600067C7000867C7000867C7000867C70008B8
:1000700067C7000867C7000867C7000867C70008A8
:1000800067C7000867C7000867C7000867C7000898
:100090002581000867C7000867C7000867C7000810
:1000A00067C7000867C7000867C7000867C7000878
:1000B00021C200085BC200082DC3000867C7000802
:1000C00067C7000867C7000867C7000867C7000858
:1000D00067C7000825BF000867C7000867C7000892
:1000E00067C7000867C7000867C7000867C7000838
:1000F00069C500083DC6000867C7000867C7000853
:1001000067C7000867C7000867C7000867C7000817
:1001100067C7000867C7000801C4000867C7000870
:1001200067C7000867C7000867C7000867C70008F7
:1001300067C7000867C7000867C7000867C70008E7
:1001400067C70008D582000867C7000867C70008AE
:1001500067C7000867C7000867C7000867C70008C7
:1001600067C7000867C7000867C7000867C70008B7
:1001700067C7000867C7000867C7000867C70008A7
:1001800067C7000867C7000867C7000867C7000897
:1001900067C7000867C7000867C7000867C7000887
:1001A00067C7000867C7000867C7000800F002F8C3
:1001B00000F052F80AA090E8000C82448344AAF1AF
:1001C0000107DA4501D100F047F8AFF2090EBAE8AD
:1001D0000F0013F0010F18BFFB1A43F0010318477B
:1001E000641A0100841A0100103A24BF78C878C14B
:1001F000FAD8520724BF30C830C144BF04680C602D
:10020000704700000023002400250026103A28BF74
:1002100078C1FBD8520728BF30C148BF0B60704778
:10022000662911F0DE8364290EF0748575290EF0BD
:10023000718578290EF0AA85002070471FB511F04E
:10024000C6FB0FF0AFF804000020002110F02EFED6
:10025000E0601FBD10B510BD0FF0C0F91146FFF7EB
:10026000EDFF07F05FF90FF0DEF903B4FFF7F2FFDF
:1002700003BC0BF0F7FD0000002070470020704722
:100280000020704700207047002070470020704712
:100290000020704700207047002070470020704702
:1002A00000207047002000BF1FE040F2E731884285
:1002B0000ED00021FE4A02F8301002EBC00251704D
:1002C000FB4A411C02EBC10102EBC00251600BE092
:1002D0000021F74A02F8301002EBC0025170F449D5
:1002E0000A4602EBC0025160401CB0F57A7FDCDBAD
:1002F000EF49F04A116011460968EF4A11607047F2
:100300002DE9F04F99B080460E460EB1642E03DD04
:10031000002019B0BDE8F08F45460024002700BF3B
:100320004CE0701E211D884234DA285D04F1010C76
:10033000B44502DB4FF0000C03E004F1010C15F8AA
:100340000CC0614604F1020CB44502DB4FF0000C16
:1003500003E004F1020C15F80CC0624604F1030C32
:10036000B44502DB4FF0000C03E004F1030C15F878
:100370000CC063464FEA006C4CEA014C4CEA022C7C
:100380004CEA030CBA4607F1010B1FFA8BF74DF844
:100390002AC015E0285D0106601C285C41EA004186
:1003A000A01C285C41EA0020E11C695C0843394636
:1003B0007A1C97B24DF82100201D84B2B442B0DB04
:1003C00000BF4FF000090EF03FFC002406E05DF88E
:1003D00024000EF03DFC8146601C84B2BC42F6DB7A
:1003E000484696E710B52DED028BB0EE408A9FEDA2
:1003F000B30A28EE000ADFEDB20A80EE201AF0EE12
:10040000418AB0EE680A0FF05FFEAE4880ED000A48
:100410009FEDAA0A28EE000ADFEDA90A80EE201A55
:10042000F0EE418AB0EE680A0FF05AFFB1EE400AD2
:10043000A44880ED010A9FEDA40A80ED020A9FED19
:100440009F0A28EE000ADFED9E0A80EE201AF0EEE9
:10045000418AB0EE680A0FF043FF9A4880ED030A24
:1004600090ED000A80ED040A9FED970A80ED050AE1
:100470009FED950A80ED060A9FED930A80ED070A2D
:10048000B7EE000A80ED080ABDEC028B10BD10B576
:100490002DED048BB0EE408AF0EE608A9FED870A66
:1004A00028EE000ADFED860A80EE201AB0EE419AAF
:1004B000B0EE490A0FF008FEF0EE409A9FED7F0A79
:1004C00028EE800ADFED7E0A80EE201AB0EE419A17
:1004D000B0EE490A0FF0F8FD29EE800A7B4880ED66
:1004E000000A9FED760A28EE000ADFED750A80EE1D
:1004F000201AB0EE419AB0EE490A0FF0E5FDF1EE98
:10050000409A9FED6E0A28EE800ADFED6D0A80EEBC
:10051000201AB0EE419AB0EE490A0FF0E1FE29EE42
:10052000800A6A4880ED010A9FED640A28EE000AFD
:10053000DFED630A80EE201AB0EE419AB0EE490A70
:100540000FF0CEFEB1EE400A604880ED020A9FED4A
:100550005B0A28EE000ADFED5A0A80EE201AB0EEA0
:10056000419AB0EE490A0FF0BBFEF0EE409A9FEDC3
:10057000530A28EE800ADFED520A80EE201AB0EE10
:10058000419AB0EE490A0FF09FFD29EE800A4F48CC
:1005900080ED030A9FED490A28EE000ADFED480AC4
:1005A00080EE201AB0EE419AB0EE490A0FF098FEA4
:1005B000F1EE409A9FED410A28EE800ADFED400AF5
:1005C00080EE201AB0EE419AB0EE490A0FF088FE94
:1005D00029EE800A3D4880ED040A9FED380A28EE96
:1005E000000ADFED370A80EE201AB0EE419AB0EE35
:1005F000490A0FF069FD354880ED050A9FED2F0A85
:1006000028EE800ADFED2E0A80EE201AB0EE419A25
:10061000B0EE490A0FF064FEB1EE400A2B4880EDBF
:10062000060A9FED260A28EE800ADFED250A80EEF5
:10063000201AB0EE419AB0EE490A0FF045FDB1EE36
:10064000400A224880ED070A9FED1F0A80ED080A44
:10065000BDEC048B10BD10B52DED068BB0EE408ABD
:10066000F0EE608AB0EE419A9FED140A28EE000A7F
:10067000DFED130A80EE201AF0EE419AB0EE690A1F
:100680000FF022FDB0EE40AA9FED0C0A69EE000AC1
:100690009FED0B1A80EE810A30EE280AF0EE409AA8
:1006A0000FF012FD2AEE000A094880ED000A11E061
:1006B000200300203400002038000020DC0F4940D7
:1006C00000003443A400002000000000C800002007
:1006D000EC0000201FED070A28EE000A5FED080A73
:1006E00080EE201AF0EE419AB0EE690A0FF0ECFCB1
:1006F000B1EE40AA1FED0F0A69EE000A1FED101AB5
:1007000080EE810A30EE280AF0EE409A0FF0E8FD04
:100710002AEE000AFE4880ED010A1FED180A28EEB5
:10072000000A5FED190A80EE201AF0EE419AB0EE51
:10073000690A0FF0D5FDB1EE400AF54880ED020AD6
:100740001FED220A28EE000A5FED230A80EE201A30
:10075000F0EE419AB0EE690A0FF0C2FDB0EE40AA89
:100760001FED2A0A69EE000A1FED2B1A80EE810A9E
:1007700030EE280AF0EE409A0FF0A6FC2AEE000AAE
:10078000E34880ED030A1FED330A28EE000A5FED0F
:10079000340A80EE201AF0EE419AB0EE690A0FF0AA
:1007A0009FFDB1EE40AA1FED3B0A69EE000A1FED66
:1007B0003C1A80EE810A30EE280AF0EE409A0FF0E3
:1007C0008FFD2AEE000AD24880ED040A1FED450A8B
:1007D00028EE000A5FED460A80EE201AF0EE419AFC
:1007E000B0EE690A0FF070FCC94880ED050A1FEDF4
:1007F0004D0A69EE000A1FED4E1A80EE810A30EEB6
:10080000280AF0EE409A0FF06BFDB1EE400AC048A6
:1008100080ED060A1FED570A69EE000A1FED581A0F
:1008200080EE810A30EE280AF0EE409A0FF04CFC80
:10083000B1EE400AB64880ED070A1FED5D0A80ED73
:10084000080ABDEC068B10BD10B52DED068BB0EE81
:10085000408AF0EE608AB0EE419AF0EE619A1FEDA8
:10086000690A28EE000A5FED6A0A80EE201AB0EEEF
:1008700041AAB0EE4A0A0FF027FCF0EE40AA1FEDA5
:10088000710A69EE800A1FED721A80EE810A78EE15
:10089000890A30EE200AB0EE40AA0FF015FC2AEECD
:1008A000800A9C4880ED000A1FED7C0A28EE000AB1
:1008B0005FED7D0A80EE201AB0EE41AAB0EE4A0A42
:1008C0000FF002FCF1EE40AA1FED840A69EE800AE7
:1008D0001FED851A80EE810A78EE890A30EE200A33
:1008E000B0EE40AA0FF0FCFC2AEE800A894880EDA9
:1008F000010A1FED8E0A28EE000A5FED8F0A80EED6
:10090000201AB0EE41AAB0EE4A0A0FF0E9FCB1EEAF
:10091000400A804880ED020A1FED980A28EE000A7E
:100920005FED990A80EE201AB0EE41AAB0EE4A0AB5
:100930000FF0D6FCF0EE40AA1FEDA00A69EE800A87
:100940001FEDA11A80EE810A78EE890A30EE200AA6
:10095000B0EE40AA0FF0B8FB2AEE800A6D4880ED99
:10096000030A1FEDAA0A28EE000A5FEDAB0A80EE2B
:10097000201AB0EE41AAB0EE4A0A0FF0B1FCF1EE37
:1009800040AA1FEDB20A69EE800A1FEDB31A80EE8D
:10099000810A78EE890A30EE200AB0EE40AA0FF004
:1009A0009FFC2AEE800A5B4880ED040A1FEDBD0A19
:1009B00028EE000A5FEDBE0A80EE201AB0EE41AAD2
:1009C000B0EE4A0A0FF080FB524880ED050A1FED99
:1009D000C50A69EE800A1FEDC61A80EE810A78EE1C
:1009E000890A30EE200AB0EE40AA0FF079FCB1EE91
:1009F000400A484880ED060A1FEDD00A69EE800AD9
:100A00001FEDD11A80EE810A78EE890A30EE200AB5
:100A1000B0EE40AA0FF058FBB1EE400A3D4880ED21
:100A2000070A1FEDD70A80ED080ABDEC068B10BD42
:100A300010B51FEDDB0A384880ED000A1FEDDE0A15
:100A400080ED010A1FEDE00A80ED020A1FEDE20AC7
:100A5000324880ED000A9FED320A80ED010A1FED59
:100A6000E60A80ED020A9FED2F0A2F4880ED000A6A
:100A70001FEDEB0A80ED010A1FEDED0A80ED020A81
:100A80009FED2A0A2A4880ED000A1FEDF10A80ED49
:100A9000010ABAEE030A80ED020A9FED260A2648F3
:100AA00080ED070A9FED250A80ED0D0A9FED240ACF
:100AB00080ED130A9FED230A80ED190ABFEE000AAC
:100AC00080ED060ABFEE000A80ED0C0AB7EE000AC0
:100AD00080ED120ABFEE000A80ED180A00201A49C4
:100AE0004884AFF66B0019494860AFF66F00886024
:100AF000AFF67300C860AFF673000861AFF6770019
:100B00004861AFF677008861AFF67B00C8611FE0EF
:100B1000EC000020100100203401002040010020E2
:100B2000CDCCEE4200006B434C01002033F38443F4
:100B300058010020787AC5BE6401002001DEE7413B
:100B4000378902428FC2F540C40200208022002073
:100B5000AFF6BF000862AFF6BF004862AFF6C30051
:100B60008862AFF6C300C8629FEDFE0AFE4880EDC2
:100B7000000A9FEDFC0A80ED010A9FEDFA0A80ED64
:100B8000020AB0EE080AF94880ED000AB0EE080A41
:100B900080ED010AB0EE080A80ED020A0121B3EEF1
:100BA0000E0A08460AF0CAF80121B3EE0E0A022026
:100BB0000AF0C4F80121B3EE000A03200AF0BEF8DF
:100BC0000121B3EE000A04200AF0B8F810BDF0B518
:100BD0002DED108B85B0B0EE408AF0EE608AB0EE5D
:100BE000419A04460D4616469FEDE10A28EE000A9A
:100BF000DFEDE00A80EE201AB0EE41AAB0EE4A0A1C
:100C00000FF062FA8DED040A38EE890A8DED030AC1
:100C10009DED030ADFEDD60A20EE200ADFEDD50AAE
:100C200080EE201AB0EE41AAB0EE4A0A0FF04CFA5C
:100C3000F0EE409A9FEDCE0A28EE000ADFEDCD0AD5
:100C400080EE201AB0EE41AAB0EE4A0A0FF048FB3F
:100C50008DED020A9FEDC60A28EE800ADFEDC50A77
:100C600080EE201AB0EE41AAB0EE4A0A0FF02CFA3C
:100C70008DED010A38EE890A8DED000A9FEDBC0A60
:100C800028EE000ADFEDBB0A80EE201AB0EE41AA82
:100C9000B0EE4A0A0FF018FA5FED5C0A20EE200A67
:100CA00060EE29AA9FEDB20A28EE000ADFEDB10A34
:100CB00080EE201AB0EE41AAB0EE4A0A0FF010FB07
:100CC000FAEE030A40EEC0AA9FEDA90A28EE000A38
:100CD000DFEDA80A80EE201AB0EE41AAB0EE4A0A73
:100CE0000FF0F2F95FED710A20EE20BA9FEDA00A35
:100CF00028EE800ADFED9F0A80EE201AB0EE41AAAE
:100D0000B0EE4A0A0FF0E0F94BEE00AA9FED980A08
:100D100028EE000ADFED970A80EE201AB0EE41AA15
:100D2000B0EE4A0A0FF0DCFA5FED830A40EEC0AA8B
:100D3000C4ED00AA9FED8E0A28EE000ADFED8D0AB1
:100D400080EE201AB0EE41AAB0EE4A0A0FF0C8FABF
:100D50005FED8A0A20EE200A60EE29AA9FED840A40
:100D600028EE000ADFED830A80EE201AB0EE41AAD9
:100D7000B0EE4A0A0FF0A8F9FAEE030A40EE80AA94
:100D80009FED7B0A28EE000ADFED7A0A80EE201A3A
:100D9000B0EE41AAB0EE4A0A0FF0A2FA5FED9F0A48
:100DA00020EE20BA9FED720A28EE800ADFED710A6C
:100DB00080EE201AB0EE41AAB0EE4A0A0FF084F994
:100DC0004BEE00AA9FED6A0A28EE000ADFED690AE1
:100DD00080EE201AB0EE41AAB0EE4A0A0FF074F984
:100DE0005FEDB10A40EE80AAC5ED00AA9FED600A52
:100DF00028EE800A10EE101A084610F077FD41EC3C
:100E00001E0B9FED5D0B53EC102B10F057F941ECCE
:100E10001D0BB0EE4D0AF0EE6D0A0FF0FDF9B0EECD
:100E200040CAF0EE60CA9FED560B53EC102B51EC0C
:100E30001C0B10F031FB41EC1A0B9DED000ADFEDAD
:100E40004C0A20EE200ADFED4B0A80EE201A11EE4C
:100E5000107A384610F04AFD41EC1D0BB0EE4D0AF9
:100E6000F0EE6D0A0FF0D8F9B0EE40CAF0EE60CAAD
:100E70009FED450B53EC102B51EC1C0B10F00CFBB1
:100E800041EC1B0B53EC1A2B10F046FC41EC1F0BF2
:100E900010F02EF83060002005B0BDEC108BF0BDD6
:100EA00070B52DED028B0446B0EE408A0D4600264B
:100EB00000EE104AB8EE400A04EB4400344901EB5E
:100EC000C00080ED050A04EB440001EBC00080ED9A
:100ED000028A3048007818B10120BDEC028B70BD49
:100EE0000CB1042C01D90220F7E7B7EE000AB4EEEA
:100EF000C08AF1EE10FA01DD0320EEE71DB1012DED
:100F000001D00420E9E7E0B207F098FB0646A6B15D
:100F10004DB9D6ED480A70EE880AB0EE600AE0B22C
:100F200008F0EDFE0BE0D6ED480A70EEC80AB0EE10
:100F3000600AE0B208F0E3FE01E00520CDE7002002
:100F4000CBE710B586B0142101A80DF07DFFFF207E
:100F50008DF804008DF8050000208DF806000B20A8
:100F60001AE00000CDCCCC3DD0220020DC220020B5
:100F7000DC0F494000003443000000000080664060
:100F80000000000000606D4000000060669E70C0C0
:100F900064010020020000208DF80700FA48408C10
:100FA00000128DF80800F84890F822008DF809002A
:100FB000F548808B032803D100208DF80A0004E057
:100FC000F14890F824008DF80A0001208DF80B00FC
:100FD00000208DF80C0007210DF10600FFF790F9B5
:100FE0000446200E8DF80D00200C8DF80E00200A0E
:100FF0008DF80F00E0B28DF810000D2101A80AF065
:10100000BAFF0020E049487006B010BD2DE9F04756
:1010100006460F46904699460024002501245BE0D1
:10102000204607F00BFB0546F5B3012C06D0022C39
:1010300016D0032C26D0042C49D136E095ED480A71
:10104000D248D0ED070A30EE600AF2EE040A20EE34
:10105000200AD0ED060A80EE201A86ED001A37E04D
:1010600095ED480AC948D0ED0D0A30EE600AF2EE5F
:10107000040A20EE200AD0ED0C0A80EE201A87ED3B
:10108000001A25E095ED480AC048D0ED130A30EE6D
:10109000600AF2EE040A20EE200AD0ED120A80EE79
:1010A000201A88ED001A13E013E095ED480AB748BE
:1010B000D0ED190A30EE600AF2EE040A20EE200AA2
:1010C000D0ED180A80EE201A89ED001A00E000BF6A
:1010D00000E003E0601CC4B2052CA1DB00BF052CBE
:1010E00002D00120BDE8F0870020FBE7F0B52DED30
:1010F000028B85B00024A6480078002871D000201B
:10110000A349087001240EE00021204607F0AFFA41
:1011100000B906E004F10A00C0B205B0BDEC028BD4
:10112000F0BD601CC4B2052CEEDB01240BE00021F5
:10113000204608F0F8FA00B903E004F11400C0B248
:10114000EBE7601CC4B2052CF1DB012500BF2BE0EE
:101150008D48801C405D012824D10027284607F0D7
:101160006DFA0746EFB197ED480A8748083000EB63
:101170008500D0ED000A30EE600A10EE101A084625
:1011800010F0B4FB21F000419FED820B53EC102BCB
:1011900010F046F905D200217B48801C4155FFF72D
:1011A000D0FE00BF681CC5B2052DD1DB01AB02AA81
:1011B00003A904A8FFF72AFF06461EB177A00DF089
:1011C00069FD59E0049810F091FB21F000419FED7A
:1011D0007F0B53EC102B10F023F903D29FED7D0A07
:1011E00002E075E09DED040A8DED040A039810F00D
:1011F0007DFB21F000419FED750B53EC102B10F09F
:101200000FF902D29FED730A01E09DED030A8DED07
:10121000030A029810F06AFB21F000419FED6B0B6E
:1012200053EC102B10F0FCF802D29FED6A0A01E09B
:101230009DED020A8DED020A019810F057FB21F096
:1012400000419FED620B53EC102B10F0E9F802D235
:101250009FED600A01E09DED010A8DED010A5E4AF5
:10126000111F081FDDED011A9DED021ADDED030AC5
:101270009DED040AFFF7ABFC58480078012826D101
:101280005748006818BB5748006800BB56480068BC
:10129000E8B956480068D0B95548006801280BD015
:1012A00054480068012807D053480068012803D03B
:1012B0005248006801280AD10020504908604E4970
:1012C00008604C4908604A490860FFF73AFE00BFD1
:1012D000002022E770B52DED028B0446B0EE408A67
:1012E000F0EE608A0025E0B207F0A8F90546002D6F
:1012F00048D000EE104AB8EE400A04EB44002349FF
:1013000001EBC00080ED050A04EB440001EBC000D6
:1013100080ED038A04EB440001EBC00090ED030A6A
:10132000DFED370A80EE201A04EB440001EBC00029
:1013300080ED021A04EB440001EBC000C0ED048A0A
:10134000012C06D0022C09D0032C0CD0042C14D173
:101350000EE001212B480CF05BFF0EE001212A4832
:101360000CF056FF09E0012128480CF051FF04E081
:10137000012127480CF04CFF00BF00BF0020BDEC4E
:10138000028B70BD46E00000C40200206401002012
:10139000920000209A9999999999A93F20657272B3
:1013A0006F72207768696C6520696E2070726F6358
:1013B000657373696E6720706F736974696F6E20EF
:1013C000746F20616E676C650A0000007B14AE4785
:1013D000E17A843F000000006822002055000020D0
:1013E000080000200C00002014000020180000203D
:1013F000200000201C0000202400002028000020E5
:1014000000007A440004004000080040001C004036
:10141000002000406420BDEC028B70BD10B52DEDA6
:101420000C8BB0EE408AF0EE608AB0EE419AF0EE9E
:10143000619AB0EE42AAF0EE62AAB0EE43BAF0EEC4
:1014400063BAB2EE040AC8EE000AFE4890ED061A2E
:1014500090ED070A00EE810AB0EE40CAB2EE040A2F
:10146000C8EE800A90ED0C1A90ED0D0A00EE810A8C
:10147000F0EE40CAB2EE040AC9EE000A90ED121A6C
:1014800090ED130A00EE810AB0EE40DAB2EE040AE3
:10149000C9EE800A90ED181A90ED190A00EE810A43
:1014A000F0EE40DAF0EE4C0AB0EE4A0A0120FFF707
:1014B00011FFF0EE6C0AB0EE6A0A0220FFF70AFF95
:1014C000F0EE4D0AB0EE4B0A0320FFF703FFF0EEFB
:1014D0006D0AB0EE6B0A0420FFF7FCFE0020BDECA5
:1014E0000C8B10BD0FB52DED040BC3B01FED470ADB
:1014F0008DED420A1FED490A8DED410A1FED4B0AA1
:101500008DED400A1FED4D0A8DED3F0A3FAB40AA1D
:1015100041A942A8FFF77AFD3E903E9828B1CAA0A3
:101520000DF0B8FB01204BB000BD00203C903D9079
:101530009FEDCE0A8DED3B0A9DED430A20EE000A99
:10154000DDED440A00EEA00ADDED3B0A00EEE00A04
:101550008DED1B0A9DED1B0A0EF08AFF8DED3A0AF8
:101560009DED3A0ADDED440A60EE200A9DED3B0A4E
:101570009DED431A40EE410A9DED430A20EE001A0C
:101580009DED440A00EE001A80EE810A8DED340ACA
:10159000349810F0ABF921F000419FEDB50B53ECFE
:1015A000102BCDE91A019DED1A0B51EC100B10F028
:1015B00071F801D20220B6E79DED340A0EF0EEFC80
:1015C0008DED330A9DED330ADFEDAB0A20EE200AE4
:1015D000DFEDAA0A80EE201A9FEDA70AB4EEC01A2A
:1015E000F1EE10FA06DD9DED330ADFEDA50A30EECF
:1015F000600A09E09DED330ADFED9F0A60EE200AE4
:101600009FED9E1A80EE810A8DED360A9DED330A1C
:10161000DFED990A20EE200ADFED980A80EE201A0D
:101620009FED950A30EE410ADFED930AB4EEE00A31
:10163000F1EE10FA12DD9DED330ADFED8F0A20EE98
:10164000200ADFED8E0A80EE201A9FED8B0A30EE25
:10165000410ADFED8B0A30EE600A0DE09DED330AA2
:10166000DFED850A20EE200ADFED840A80EE201AE5
:101670009FED810A30EE410A8DED370A9DED3A0A61
:10168000B1EE400A8DED3A0A9DED3A0ADDED440ACD
:1016900060EE200A9DED3B0A9DED431A40EE410AA3
:1016A0009DED430A20EE001A9DED440A00EE001A5B
:1016B00080EE810A8DED340A9DED340A0EF06EFC49
:1016C0008DED330A9DED330ADFED6B0A20EE200A23
:1016D000DFED6A0A80EE201A9FED670AB4EEC01AA9
:1016E000F1EE10FA06DD9DED330ADFED650A30EE0E
:1016F000600A09E09DED330ADFED5F0A60EE200A23
:101700009FED5E1A80EE810A8DED380A9DED330A59
:10171000DFED590A60EE200A9FED581A80EE810A2B
:10172000DFED550A30EEC00ADFED530AB4EEE00AF1
:10173000F1EE10FA12DD9DED330ADFED4F0A20EED7
:10174000200ADFED4E0A80EE201A9FED4B0A30EEA4
:10175000410ADFED4B0A30EE600A0DE09DED330AE1
:10176000DFED450A20EE200ADFED440A80EE201A64
:101770009FED410A30EE410A8DED390A0120329089
:1017800031909FED400A8DED300A329042E0309862
:1017900010F0ACF8CDE91A0135A9329801EB8000C0
:1017A00090ED000ADDED420A30EEC00A8DED170A19
:1017B000179810F09BF821F00041CDE918019DED3C
:1017C0001A0B53EC102B9DED180B51EC100B0FF076
:1017D00027FE1BD23298319035A9329801EB800058
:1017E00090ED000ADDED420A30EEC00A8DED190AD7
:1017F000199810F07BF821F00041CDE91A019DED18
:101800001A0B51EC100B0FF073FB30903298401C08
:10181000C0B2329032980528B9DB35A9319801EB76
:10182000800090ED000A8DED2F0A9DF8F110012245
:10183000319882401143C8B28DF8F1009DED430A02
:1018400022E0000064010020706F736974696F6E9C
:1018500020746F20616E676C652063616C63756CCA
:10186000617465206572726F720A0000CDCCDB4234
:10187000000000000000F03F00003443DC0F49404E
:101880000000B4430000B94320EE000ADDED440A35
:1018900000EEA00ADDED3B0A00EEE00AB5EEC00A5C
:1018A000F1EE10FA01D203203DE63198012802D072
:1018B0003198022814D19DED430A20EE000ADDED97
:1018C000440A00EEA00ADDED3B0A00EEE00A8DEDD1
:1018D0001B0A9DED1B0A0EF0CBFD8DED3A0A15E0BB
:1018E0009DED430A20EE000ADDED440A00EEA00A59
:1018F000DDED3B0A00EEE00A8DED1B0A9DED1B0AB3
:101900000EF0B6FDB1EE400A8DED3A0A9DED2F0ABC
:10191000479880ED000A9DED430A20EE000ADDEDB8
:10192000440A00EEA00ADDED450A00EEA00ADDED56
:101930003B0A00EEE00ADFEDFC0A30EE600ADFED64
:10194000FB0A70EE600AB0EE001A80EE810A9FED8D
:10195000F81AC0EE010A9FEDF71A80EE810A8DEDAC
:10196000190A19980FF0C2FF21F000411FED400B3A
:1019700053EC102BCDE91A019DED1A0B51EC100B15
:101980000FF088FE01D20420CDE59DED430A20EE44
:10199000000ADDED440A00EEA00ADDED450A00EE86
:1019A000A00ADDED3B0A00EEE00ADFEDDF0A30EED3
:1019B000600ADFEDDE0A30EE601AF0EE000A81EE1A
:1019C000200A9FEDDB1AC0EE010A9FEDDA1A80EEC5
:1019D000810A8DED1B0A9DED1B0A0EF053FA8DED69
:1019E0002B0A9DED2B0A5FED5C0A60EE200A1FEDCD
:1019F0005D0A80EE801A8DED2D1A9DED2B0A5FEDAC
:101A0000620A20EE200A1FED631AC0EE010A1FEDE4
:101A1000660A70EE800A1FED680AF4EEC00AF1EE65
:101A200010FA0CDD9DED2B0A5FED6D0A20EE200A09
:101A30005FED6E0A80EE201AB1EE410A0DE09DEDD9
:101A40002B0A5FED730A60EE200A1FED741A80EE18
:101A5000810A5FED770A30EE200A8DED2E0A9DEDAA
:101A60002E0ADDED400A30EEC00A8DED170A1798F8
:101A70000FF03CFF21F00041CDE91A019DED2D0A48
:101A8000DDED400A30EEC00A8DED170A17980FF011
:101A90002DFF21F00041CDE918019DED1A0B53EC0B
:101AA000102B9DED180B51EC100B0FF0B9FC02D26E
:101AB0009DED2D0A01E09DED2E0A8DED2B0A9DED89
:101AC0002E0ADDED400A30EEC00A8DED170A179898
:101AD0000FF00CFF21F00041CDE91A01DDED2D0AD8
:101AE0009DED400A30EE600A8DED170A17980FF051
:101AF000FDFE21F00041CDE918019DED1A0B53ECDC
:101B0000102B9DED180B51EC100B0FF089FC06D239
:101B10009DF8F30040F002008DF8F30005E09DF819
:101B2000F30040F004008DF8F3009DED2B0A499876
:101B300080ED000A9DED2B0A5FEDB00A60EE200AF1
:101B40001FEDB31A80EE810A8DED1A0A9DED1A0A77
:101B50000EF0BAFAF0EE400A9FED770A9FED771A81
:101B600001EE200A8DED1B0A9DED1B0A0EF080FC94
:101B70008DED2A0ADDED3A0A9DED2A0A80EE801AE3
:101B80008DED191A19980FF0B1FE21F000411FEDEB
:101B9000C80B53EC102BCDE91A019DED1A0B51EC3B
:101BA000100B0FF077FD2FD39DED2B0A5FEDCD0AC3
:101BB00060EE200A1FEDD01A80EE810A8DED180A22
:101BC0009DED180A0EF080FAF0EE400A9FED580ADB
:101BD0009FED581A01EE200ADDED2A0A80EE201A48
:101BE0008DED191A19980FF081FE21F000411FEDBB
:101BF000E00B53EC102BCDE91A019DED1A0B51ECC3
:101C0000100B0FF047FD01D205208CE4DDED3A0A00
:101C10009DED2A0A80EE801A8DED1B1A9DED1B0AA0
:101C20000EF030F98DED240A9DED2B0A5FEDED0AE3
:101C300060EE200A1FEDF01A80EE810A8DED1A0A7F
:101C40009DED1A0A0EF040FAF0EE400A9FED380AB8
:101C50009FED381A01EE200ADDED2A0A80EE201AE7
:101C60008DED1B1A9DED1B0A0EF00CF98DED230A6C
:101C7000DDED240A9DED230A30EEC00ADFED300AC7
:101C8000B4EEE00AF1EE10FA0ADD9DED240ADDED76
:101C9000230A30EE600ADFED2B0A30EE600A05E021
:101CA0009DED240ADDED230A30EE600A8DED260A53
:101CB0009DED240ADDED230A30EE200ADFED200A37
:101CC000B4EEE00AF1EE10FA0ADD9DED240ADDED36
:101CD000230A30EE200ADFED1B0A30EE600A05E031
:101CE0009DED240ADDED230A30EE200A8DED270A52
:101CF0009DED240AF1EE400A9DED230A30EEC00A64
:101D0000DFED0F0AB4EEE00AF1EE10FA1CDD9DEDF6
:101D1000240AF1EE400A9DED230A30EEC00ADFED01
:101D2000090A30EE600A17E000B9574767178A477B
:101D300000006B4333F38443E7F3F5478016F44721
:101D4000DC0F4940DC0FC9409DED240AF1EE400A4A
:101D50009DED230A30EEC00A8DED280A9DED240A80
:101D6000F1EE400A9DED230A30EE800A5FED0C0A89
:101D7000B4EEE00AF1EE10FA0CDD9DED240AF1EE6E
:101D8000400A9DED230A30EE800A5FED120A30EE24
:101D9000600A07E09DED240AF1EE400A9DED230A5A
:101DA00030EE800A8DED290A9FEDFB0A8DED220AA7
:101DB0000120329052E022980FF098FDCDE91A01EF
:101DC00025A9329801EB800090ED000ADFEDF30ABF
:101DD00060EE200A1FED261A80EE810ADDED410A31
:101DE00030EEC00A8DED170A17980FF07FFD21F035
:101DF0000041CDE918019DED1A0B53EC102B9DED20
:101E0000180B51EC100B0FF00BFB23D232983190D2
:101E100025A9329801EB800090ED000ADFEDDF0A82
:101E200060EE200A1FED3A1A80EE810ADDED410ACC
:101E300030EEC00A8DED190A19980FF057FD21F008
:101E40000041CDE91A019DED1A0B51EC100B0FF07A
:101E50004FF822903298401CC0B232903298052838
:101E6000A9DB9DF8F200012231998A401043C0B2EB
:101E70008DF8F20025A9319801EB800090ED000A61
:101E8000DFEDC60A20EE200A5FED530A80EE201A2D
:101E9000489880ED001A489890ED000ADFEDC00ADE
:101EA00030EEC00A4998D0ED000A30EE600A8DEDA0
:101EB0001E0A489890ED000ADFEDB80A70EEC00ADD
:101EC000499890ED000A30EEC00A8DED1F0A48983F
:101ED00090ED000ADFEDB30A70EEC00A499890ED6C
:101EE000000A30EEC00A8DED200A4898D0ED000AB5
:101EF000AD4890ED000A70EE600A499890ED000A36
:101F000030EEC00A8DED200A9FEDA30A8DED1C0A6C
:101F10000120329042E01C980FF0E8FCCDE91A0154
:101F20001DA9329801EB800090ED000ADDED3F0A1B
:101F300030EEC00A8DED170A17980FF0D7FC21F08C
:101F40000041CDE918019DED1A0B53EC102B9DEDCE
:101F5000180B51EC100B0FF063FA1BD23298319032
:101F60001DA9329801EB800090ED000ADDED3F0ADB
:101F700030EEC00A8DED190A19980FF0B7FC21F068
:101F80000041CDE91A019DED1A0B51EC100B0EF03A
:101F9000AFFF1C903298401CC0B232903298042897
:101FA000B9DB1DA9319801EB800090ED000A4A9839
:101FB00080ED000A9DF8F400012231998A40104317
:101FC000C0B28DF8F4007948007801287ED14A9893
:101FD00090ED000A8DED160A499890ED000A8DEDFE
:101FE000150A489890ED000A8DED140A479890ED77
:101FF000000A8DED130A19AA1AA91BA8DDED161AFD
:102000009DED151ADDED140A9DED130AFEF7DFFDB7
:102010009DED430A20EE000ADDED440A00EEA00A21
:10202000DDED3B0A00EEE00A8DED160A9DED160A85
:102030000EF01EFA8DED180A002017909DED260A6D
:10204000DFED560A20EE200A5FEDC30A80EE201A6B
:102050008DED261A9DED270ADFED500A20EE201A9D
:102060001FEDC90AC1EE000ACDED270A9DED280A31
:10207000DFED4A0A20EE200A5FEDCF0A80EE201A3B
:102080008DED281A9DED290ADFED440A20EE200A85
:102090005FEDD50A80EE201A8DED291A01203290CD
:1020A0005CE135A9329801EB800090ED000A8DEDDE
:1020B000160A3298032802D03298042805D19DEDE3
:1020C000180AB1EE400A8DED180A00E07DE200200A
:1020D00015900120159039E12CA9159801EB80008D
:1020E00090ED000A8DED140A9DED140A5FEDEC0AE7
:1020F00060EE200A9FED291A80EE810A8DED110A0B
:102100009DED110A0DF0E0FFF0EE400A1FEDF60A1A
:102110001FEDF61A01EE200A8DED120A9DED120A4E
:102120000EF0A6F98DED2A0A9DED3A0ADDED2A0A98
:1021300080EE201A8DED121A9DED120A0DF0A2FE0E
:102140008DED240A9DED140ADFED190A60EE200AD8
:102150009FED121A80EE810A8DED110A9DED110A94
:102160000DF0B2FFF0EE400A9FED120A9FED121A39
:1021700001EE200ADDED2A0A80EE201A8DED121AFA
:102180009DED120A0DF07EFE8DED230A00201390C6
:1021900001201390D2E000000000B9430000344356
:1021A000000000000000B4432C0000205500002077
:1021B000DC0F494000006B4333F3844325A9139897
:1021C00001EB800090ED000A8DED120A9DED120AE0
:1021D0005FED0D0A70EEC00A9DED140A30EEC00AE4
:1021E0008DED1E0A9DED120A5FED140A70EEC00A15
:1021F0009DED140A30EEC00A8DED1F0A9DED120A06
:102200005FED180A70EEC00A9DED140A30EEC00AA8
:102210008DED200A01201190119087E01DA91198E1
:1022200001EB800090ED000A8DED100A19AA1AA9A1
:102230001BA8DDED101A9DED141ADDED120A9DEDBF
:10224000160AFEF7C4FCDDED1B0A9DED430A30EED5
:10225000C00A8DED0D0A0D980FF048FB21F00041EA
:102260009FEDF80B53EC102BCDE90E019DED0E0BFD
:1022700051EC100B0FF0D4F854D2DDED1A0A9DED9D
:10228000440A30EEC00A8DED0D0A0D980FF02EFBBA
:1022900021F000419FEDEB0B53EC102BCDE90E012B
:1022A0009DED0E0B51EC100B0FF0BAF83AD2DDEDAC
:1022B000190A9DED450A30EEC00A8DED0D0A0D9804
:1022C0000FF014FB21F000419FEDDE0B53EC102BBF
:1022D000CDE90E019DED0E0B51EC100B0FF0A0F8A7
:1022E00020D29DED160AD949179801EB001080ED18
:1022F000000A9DED120A179801EB001080ED010A0B
:102300009DED140A179801EB001080ED020A9DED77
:10231000100A179801EB001080ED030A1798401C73
:10232000C0B217901198401CC0B2119011980428A7
:10233000FFF674AF1398401CC0B213901398052891
:10234000FFF63CAF1598401CC0B2159015980328B5
:10235000FFF6C2AE3298401CC0B2329032980528C7
:10236000FFF69FAE179800287EDD002016909FEDA7
:10237000B80A8DED120A9FEDB60A8DED130A9FED96
:10238000B40A8DED140A9FEDB20A8DED150A169070
:10239000FDE09DED150ADDED3F0A30EEC00A8DED42
:1023A000090A09980FF0A2FA21F00041CDE90C01C9
:1023B000DDED140A9DED400A30EE600A8DED050A50
:1023C00005980FF093FA21F00041CDE908019DED49
:1023D000130ADDED410A30EEC00A8DED010A0198C5
:1023E0000FF084FA21F00041CDE904019DED120ABD
:1023F000DDED420A30EEC00A8DED010A01980FF0C2
:1024000075FA21F00041CDE902019DED040B53EC7A
:10241000102B9DED020B51EC100B0EF09BFDCDE946
:1024200006019DED080B53EC102B9DED060B51ECB6
:10243000100B0EF08FFDCDE90A019DED0C0B53EC56
:10244000102B9DED0A0B51EC100B0EF083FDCDE926
:1024500010017E49169801EB001090ED030ADDEDA6
:102460003F0A30EEC00A00E0ABE08DED090A0998A2
:102470000FF03CFA21F00041CDE90C0173491698A8
:1024800001EB001090ED020ADDED400A30EEC00ACB
:102490008DED050A05980FF029FA21F00041CDE9EC
:1024A00008016A49169801EB0010D0ED010A9DED74
:1024B000410A30EE600A8DED010A01980FF016FA1C
:1024C00021F00041CDE904016049169801EB0010AC
:1024D00090ED000ADDED420A30EEC00A8DED010AF2
:1024E00001980FF003FA21F00041CDE902019DEDC2
:1024F000040B53EC102B9DED020B51EC100B0EF066
:1025000029FDCDE906019DED080B53EC102B9DED47
:10251000060B51EC100B0EF01DFDCDE90A019DEDEF
:102520000C0B53EC102B9DED0A0B51EC100B0EF025
:1025300011FDCDE90E019DED100B53EC102B9DED1F
:102540000E0B51EC100B0EF06BFF1CD23F4916988E
:1025500001EB001090ED000A8DED120A169801EBC8
:10256000001090ED010A8DED130A169801EB001092
:1025700090ED020A8DED140A169801EB001090ED13
:10258000030A8DED150A1698401CC0B21690DDE9BD
:1025900016018842FFF6FDAE9DED120A479880EDC8
:1025A000000A9DED130A489880ED000A9DED140A7B
:1025B000499880ED000A9DED150A4A9880ED000AC1
:1025C00002E00820FEF7AFBF00BF00BF0020F9E720
:1025D0002DE9F04792B01F48808C052806D00628C8
:1025E0007ED007287DD008287CD1D6E2342105A8EA
:1025F0000CF02AFCFF208DF814008DF81500002047
:102600008DF816001348807F401F00EB80000930D2
:10261000C0B28DF817000F48408C00128DF81800DA
:102620000C4890F822008DF8190005208DF81A004A
:102630000DF11B044FF00008064890F826600025B5
:1026400010E000009A9999999999C93FE8220020D1
:1026500000007A44C402002006F0010008B1681CA2
:10266000C5B27610002EF7DCFE48C08B401FA84292
:1026700006D0AFF610600CF00DFB12B0BDE8F0878D
:102680000025F84890F8266004AB03AA02A901A827
:10269000FEF7BCFCA84656E009E006F0010018B1C0
:1026A000681CC5B2761004E0681CC5B27610002E16
:1026B000F3DC00BF04F8015B684600EB850090ED99
:1026C000000ADFEDE90A20EE200ABDEEC00A10EE96
:1026D000100A000E04F8010B684600EB850002E0CA
:1026E00058E033E158E290ED000ADFEDDF0A20EE1A
:1026F000200ABDEEC00A10EE100A000C04F8010B0F
:10270000684600EB850090ED000ADFEDD70A20EE69
:10271000200ABDEEC00A10EE100A000A04F8010BF0
:10272000684600EB850090ED000ADFEDCF0A20EE51
:10273000200ABDEEC00A10EE100A04F8010B08F1E1
:10274000010000F0FF08C748C08B401F4045A3DCD4
:10275000C448C08B401F00EB8000401D81B20DF1CA
:102760001600FDF7CDFD0746380E04F8010B380CB6
:1027700004F8010B380A04F8010B04F8017BB9488E
:10278000C08B401F00EB80000B3081B205A809F020
:10279000F2FB9DE2342105A80CF056FBFF208DF8DA
:1027A00014008DF8150000208DF81600AD48807FCC
:1027B000401F00EB80000930C0B28DF81700A94817
:1027C000408C00128DF81800A64890F822008DF871
:1027D000190006208DF81A000DF11B044FF0000AB5
:1027E000A04890F82660002505E006F0010008B139
:1027F000681CC5B27610002EF7DC9A48C08B401FCB
:10280000A84204D0AFF6A4700CF044FA35E70025D6
:10281000944890F82660A846A9464FF0010815E0B4
:10282000404605F00BFF8146B9F1000F0AD099ED43
:10283000470AF1EE080A80EE201A684600EB88008D
:1028400080ED001A08F1010000F0FF08B8F1050F53
:10285000E6DB4FF0000A52E009E006F0010018B193
:10286000681CC5B2761004E0681CC5B27610002E54
:10287000F3DC00BF04F8015B684600EB850090EDD7
:10288000000ADFED790A20EE200ABDEEC00A10EE44
:10289000100A000E04F8010B684600EB850090ED6D
:1028A000000ADFED710A20EE200ABDEEC00A10EE2C
:1028B000100A000C04F8010B684600EB850090ED4F
:1028C000000ADFED690A20EE200ABDEEC00A10EE14
:1028D000100A000A04F8010B684600EB850090ED31
:1028E000000ADFED610A20EE200ABDEEC00A10EEFC
:1028F000100A04F8010B0AF1010000F0FF0A594820
:10290000C08B401F5045A7DC5648C08B401F00EBD2
:102910008000401D81B20DF11600FDF7F1FC074665
:10292000380E04F8010B380C04F8010B380A04F8CF
:10293000010B04F8017B4B48C08B401F00EB80006B
:102940000B3081B205A809F016FBC1E1342105A8BE
:102950000CF07AFAFF208DF814008DF81500002095
:102960008DF8160021208DF817003E48408C00128B
:102970008DF818003B4890F822008DF819000720C8
:102980008DF81A000DF11B04142168460CF05CFA56
:1029900004AB03AA02A901A8FEF738FB002004F843
:1029A000010B04F8010B04F8010B04F8010B9DED79
:1029B000020ADDED030A30EE200ADDED040A30EEF6
:1029C000200ADFED290A20EE200ABDEEC00A10EE33
:1029D000105A280E04F8010B280C04F8010B280AE1
:1029E00004F8010B04F8015B9DED010ADFED1E0AFE
:1029F00020EE200ABDEEC00A10EE106A300E04F878
:102A0000010B300C04F8010B300A04F8010B04F838
:102A1000016B164890ED000ADFED150A20EE200A42
:102A2000BDEEC00A10EE100A000E04F8010B0F48AC
:102A300090ED000ADFED0E0A20EE200ABDEEC00A7E
:102A400010EE100A000C04F8010B084890ED000A83
:102A5000DFED070A20EE200ABDEEC00A10EE100AD4
:102A6000000A07E0C402002000401C46602200204B
:102A70000000C84204F8010BFA4890ED000A5FED2F
:102A8000040A20EE200ABDEEC00A10EE100A04F877
:102A9000010BF44890ED010A5FED0B0A20EE200ACD
:102AA000BDEEC00A10EE100A000E04F8010BED484E
:102AB00090ED010A5FED120A20EE200ABDEEC00A79
:102AC00010EE100A000C04F8010BE64890ED010A24
:102AD0005FED190A20EE200ABDEEC00A10EE100AC2
:102AE000000A04F8010BDF4890ED010A5FED200AAF
:102AF00020EE200ABDEEC00A10EE100A04F8010B09
:102B0000D84890ED020A5FED260A20EE200ABDEEBD
:102B1000C00A10EE100A000E04F8010BD14890ED27
:102B2000020A5FED2D0A20EE200ABDEEC00A10EE6B
:102B3000100A000C04F8010BCA4890ED020A5FED80
:102B4000340A20EE200ABDEEC00A10EE100A000A78
:102B500004F8010BC34890ED020A5FED3B0A20EE3A
:102B6000200ABDEEC00A10EE100A04F8010B1D2168
:102B70000DF11600FDF7C4FB0746380E04F8010BF3
:102B8000380C04F8010B380A04F8010B04F8017B37
:102B9000232105A809F0EFF99AE0342105A80CF0EB
:102BA00053F9FF208DF814008DF8150000208DF8E2
:102BB0001600AD48807F001DC0B28DF81700AA48EE
:102BC000408C00128DF81800A74890F822008DF86C
:102BD000190008208DF81A000DF11B044FF0000AAF
:102BE000A14890F82650002705E005F0010008B143
:102BF000781CC7B26D10002DF7DC9B48C08B401FBE
:102C0000B84203D099480CF045F836E500279648BD
:102C100090F82650B846B9464FF0010815E04046F6
:102C200005F00CFD8146B9F1000F0AD0B9F8080192
:102C300000EE100AB8EE400A684600EB880080ED0E
:102C4000000A08F1010000F0FF08B8F1050FE6DB0B
:102C50004FF0000A1CE009E005F0010018B1781CF3
:102C6000C7B26D1004E0781CC7B26D10002DF3DC04
:102C700000BF684600EB870090ED000ABDEEC00A79
:102C800010EE100A04F8010B0AF1010000F0FF0A2F
:102C90007548C08B401F5045DDDC7348C08B81B246
:102CA0000DF11600FDF72CFB0646300E04F8010B63
:102CB000300C04F8010B300A04F8010B04F8016B26
:102CC0006948C08B801D81B205A809F054F900BF86
:102CD00000BF00BFD1E47FB50546022D3CD0032DD7
:102CE00076D100200090019002900390FF208DF893
:102CF00000008DF8010000208DF802000B208DF8F7
:102D000003005948408C00128DF80400564890F892
:102D100022008DF8050000208DF806008DF80700D0
:102D20008DF8080007210DF10200FDF7E9FA0446CD
:102D3000200E8DF80900200C8DF80A00200A8DF86D
:102D40000B00E0B28DF80C000D21684609F013F974
:102D50000120454948703BE000200090019002901E
:102D60000390FF208DF800008DF8010000208DF801
:102D700002000B208DF803003B48408C00128DF8B8
:102D80000400394890F822008DF8050009208DF8DC
:102D9000060000208DF807008DF8080007210DF1CE
:102DA0000200FDF7ADFA0446200E8DF80900200C54
:102DB0008DF80A00200A8DF80B00E0B28DF80C00A7
:102DC0000D21684609F0D7F801202749487000BF57
:102DD00000BF7FBD10B586B0142101A80CF034F8F7
:102DE000FF208DF804008DF8050000208DF8060006
:102DF0000B208DF807001C48408C00128DF808004D
:102E0000194890F822008DF809001748808B032894
:102E100003D100208DF80A0004E0134890F8240044
:102E20008DF80A0001208DF80B008DF80C000721A9
:102E30000DF10600FDF764FA0446200E8DF80D0032
:102E4000200C8DF80E00200A8DF80F00E0B28DF8EE
:102E500010000D2101A809F08EF8002002494870E9
:102E600006B010BD60220020C402002064180008D3
:102E700000B5DDB020E0FD4800680078FF2806D1ED
:102E8000FA48006840680078FF2800D115E0F7484C
:102E90000068F7490968884202D101205DB000BD91
:102EA0000020F24909680870F04909684870EF4845
:102EB00000684068ED490860DDE700BFEB48006846
:102EC0000078FF2841F04181E848006840680078B8
:102ED000FF28F7D10120E749087000202990E34935
:102EE00009680870E14909684870E048006840686E
:102EF000DE490860002009680870DC4909684870EC
:102F0000DA4800684168D948016015E00020259042
:102F1000022008F03FFF2599481C259028290ADD4A
:102F20000020D24909684870D04800684068CF49FD
:102F300008600220B2E700BFCC4800684078002853
:102F4000E4D0CA48006802782998411CC9B2299186
:102F50002AA90A540020C54909684870C348006876
:102F60004168C248016015E000202590022008F069
:102F700011FF2599481C259028290ADD0020BB490E
:102F800009684870B94800684168B8480160022083
:102F900084E700BFB548006840780028E4D0B34813
:102FA000006802782998411CC9B229912AA90A54BB
:102FB0000021AE4800684170AC4800684068AB49E9
:102FC00008609DF8A9009DF8A81040EA012028900B
:102FD000289806280DDA0020A44909684870A348FB
:102FE00000684068A1490860A3A00BF053FE0320CD
:102FF00054E72EE00020259013E0022008F0CAFEDE
:103000002598411C89B225913C280ADD002097496A
:103010000968487095480068406894490860022033
:103020003CE79248006840780028E6D08F48006866
:1030300001782AAA2998115400218C48006841700F
:103040008A4800684068894908602998401CC0B2D5
:103050002990DDE928108842CCDB2898001F80B237
:10306000014625902AA8FDF74BF9279087A02799BC
:103070000BF010FE2898001F2AA9085C010628986A
:10308000C01E2AAA105C41EA00412898801E105CEC
:1030900041EA00212898401E105C08432690DDE993
:1030A0002610884204D07DA00BF0F4FD0420F5E644
:1030B0000020704908702898001F81B26D48C183B4
:1030C0009DF8AA0040EA00206A4948849DF8AC10A7
:1030D00068488184808C012803DB6648808C042842
:1030E00013DD6448808C0A280FD06248808C0B283E
:1030F0000BD06048808C0C2807D05E48808C0D284F
:1031000003D05C48808C0E287AD100206649087074
:103110005848808C0146259064A00BF0BBFD03202D
:103120005449888300215348C184808C0F2856D28B
:10313000DFE810F05500A701FD0152020D05550012
:1031400055005500550055000F0056008C004101F8
:1031500047064848007F2390FFF7BDFD0DF1AD0005
:1031600025900020249024902AE0259800780128BA
:103170001FD14048C08C012224998A4010433D4908
:10318000C8842498401C042813DC2498401CC0B236
:10319000239006F060FC02E00A2008F043FE249829
:1031A000401CC0B201220621239006F00EFD00282B
:1031B000F2D12598401C25902498401CC0B2249040
:1031C0002C48C08B401F24998842CEDC2948C08CF3
:1031D0000F2802DD3EA00BF05DFDFDF7B2FEF6E329
:1031E0002448007F2390FFF776FD0DF1AD00259078
:1031F00000202490FF201F49C884002024901CE058
:10320000FEE32598007888B91A48C08C00222499DA
:103210008A4010401749C8842498401C042805DCC3
:103220002498401CC0B2239006F087FC2598401CCF
:1032300025902498401CC0B224900E48C08B401F9B
:1032400024998842DDDCFDF77CFEC8E70948007F51
:103250002390FFF740FD0DF1AD0025900020249054
:10326000FF200449C884002024909BE03400002003
:1032700038000020C402002064617461206C656E17
:10328000677468206572726F720A000043524320AF
:10329000726573756C74202025780A006372632050
:1032A0006572726F720A000055000020636F6E74C1
:1032B000726F6C206672616D652C2066756E63742A
:1032C000696F6E20636F6465202025640A0000002A
:1032D0007761726E696E6720746F6F206D756368B9
:1032E000206D6F746F722C20656E61626C65203189
:1032F00020746F2034206D6F746F7220616C726562
:103300006164790A0000000025980078E8BBF9485C
:10331000C08C002224998A401040F649C884249821
:10332000401C042837DC2498401CC0B29FEDF20AF0
:10333000239007F024F92498401CC0B201220621F2
:10334000239006F042FC0021EC480AF061FF0021C6
:10335000EB480AF05DFF0021EA480AF059FF00211E
:10336000E9480AF055FF0021E8480AF051FFE84813
:1033700090ED000ADF4880ED0F0AE54890ED010A64
:10338000DC4880ED100AE24800E004E090ED020A1B
:10339000D84880ED110A2598401C25902498401C9F
:1033A000C0B22490D348C08B401F24998842ABDC24
:1033B000FDF7C7FD13E7CF48007F2490FFF78BFC94
:1033C0009DF8AD0025902598042803DDD1A00BF0D1
:1033D00061FC55E0D3A00BF05DFC002024909DF82B
:1033E000AE0000069DF8AF1040EA01419DF8B00024
:1033F00041EA00209DF8B11008432490002023905A
:10340000259805F01BF92390239890B30122B94821
:10341000801C259942549DED240AF8EEC00A9FEDC8
:10342000C71A80EE810A2398D0ED480A30EE200AB0
:10343000B0480830259900EB810080ED000A9DED31
:10344000240AB8EEC00A9FEDBD1AC0EE010A239807
:1034500090ED480A30EE800A8DED220A9DED220A99
:10346000259806F04CFC28B10022A248801C259922
:10347000425404E09F48007F2290FFF72CFC00BFDD
:10348000ADE69DF8AD0025902598042803DDA1A0A8
:103490000BF000FC4AE0AAA00BF0FCFB00202490FB
:1034A0009DF8AE0000069DF8AF1040EA01409DF87F
:1034B000B01040EA01209DF8B1100843249000208C
:1034C0002390259805F0BAF82390239838B3012269
:1034D0008848801C259942549DED240AB8EEC00A04
:1034E000DFED960A80EE201A801D259900EB810001
:1034F00080ED001A9DED240AF8EEC00A9FED8F1AA8
:1035000080EE810A8DED220A9DED220A259806F0B3
:10351000F6FB28B100227748801C2599425404E02C
:103520007448007F2290FFF7D6FB00BF57E689A0C2
:103530000BF0B0FB002025909DF8AE0001069DF831
:10354000AF0041EA00409DF8B01040EA01209DF82C
:10355000B110084325909DF8AD00249024980128CF
:1035600039DB2498042836DC01220221249806F055
:103570002CFB9DED250AF8EEC00A9FED701A80EE37
:10358000810A8DED230A23980EF0B0F921F0004155
:103590009FED750B53EC102BCDE920019DED200B19
:1035A00051EC100B0DF03CFF14D29DED230AF1EE0F
:1035B000080A20EE200A8DED220A9DED220A2498A9
:1035C00006F0DDFF30B94B48007F2290FFF783FB08
:1035D000FDF7B7FC00BF02E665A00BF05BFB22AB7A
:1035E00023AA24A925A8FDF711FD9DED240ADDEDF0
:1035F000230A30EE200ADDED220A30EE200A64486C
:1036000080ED000A9DF8AE0000069DF8AF1040EA7C
:1036100001409DF8B01040EA01209DF8B110084328
:1036200021909DED210AF8EEC00A9FED5A1A80EE16
:10363000810A8DED200A9DF8AD001F901F98062885
:1036400057D2DFE800F003B1FDFCFBFA00212B4864
:103650000AF0DEFD2E4890ED000A264880ED0F0AA4
:1036600020980EF043F921F00041CDE91A012848D5
:10367000406817900EF03AF9CDE918019DED1A0B4C
:1036800053EC102B9DED180B51EC100B0DF062FC60
:10369000CDE91C019DED1C0B51EC100B0DF028FC2D
:1036A000144908641A4890ED020A084680ED110A90
:1036B000406C17900EF01AF9CDE91C010D48006C12
:1036C00017900EF013F9CDE91A010A48C06B179054
:1036D0000EF00CF9CDE91801DDE91C01CDE902017C
:1036E000DDE91A01CDE900019DED180B53EC102B1B
:1036F00052E025E2C402002000000000001000405B
:103700000004004000080040001C00400020004071
:10371000602200206D6F746F722069642065727280
:103720006F720A0072656C20706F736974696F6ED6
:103730002C20636D6431330A0000000000401C46F9
:1037400061627320706F736974696F6E2C20636D92
:1037500064310A00636D6420322C207370656564E7
:1037600020636D640A000000000000000000244097
:10377000636D6420332C2072656C617469766520FA
:10378000706F736974696F6E20636D640A00000066
:103790002C0000200000C842F8A00BF07BFA0121A9
:1037A000FE480AF035FDCBE10021FC480AF030FD6F
:1037B000FB4890ED000AFB4880ED0F0A20980EF0C0
:1037C00095F821F00041CDE91A01F54840681790BD
:1037D0000EF08CF8CDE918019DED1A0B53EC102B6F
:1037E0009DED180B51EC100B0DF096FFCDE91C016F
:1037F0009DED1C0B51EC100B0DF07AFBE9490864B0
:10380000E74890ED020A084680ED110A406C1790D7
:103810000EF06CF8CDE91C01E248006C17900EF038
:1038200065F8CDE91A01DF48C06B17900EF05EF81D
:10383000CDE91801DDE91C0103E026E1C8E06CE0F8
:1038400011E0CDE90201DDE91A01CDE900019DEDAC
:10385000180B53EC102BC9A00BF01CFA0121CF4818
:103860000AF0D6FC6CE10021CC480AF0D1FC20988B
:103870000EF03CF821F00041CDE91A01C84800687B
:1038800017900EF033F8CDE918019DED1A0B53ECAB
:10389000102B9DED180B51EC100B0DF03DFFCDE9F9
:1038A0001C019DED1C0B51EC100B0DF021FBBD49D3
:1038B000C863BB4890ED010A084680ED100AB8487D
:1038C00090ED020A084680ED110A406C17900EF048
:1038D0000DF8CDE91C01B348006C17900EF006F806
:1038E000CDE91A01AF48C06B17900DF0FFFFCDE98D
:1038F0001801DDE91C01CDE90201DDE91A01CDE97C
:1039000000019DED180B53EC102B9CA00BF0C2F99D
:103910000121A2480AF07CFC12E100219F480AF034
:1039200077FC20980DF0E2FF21F00041CDE91A016B
:103930009B48006817900DF0D9FFCDE918019DED67
:103940001A0B53EC102B9DED180B51EC100B0DF0D6
:1039500001FBCDE91C019DED1C0B51EC100B0DF092
:10396000C7FA9049C8638E4890ED010A084680ED79
:10397000100A8B4890ED020A084680ED110A406C4F
:1039800017900DF0B3FFCDE91C018648006C17902D
:103990000DF0ACFFCDE91A018248C06B17900DF015
:1039A000A5FFCDE91801DDE91C01CDE90201DDE942
:1039B0001A01CDE900019DED180B53EC102B6FA0FF
:1039C0000BF068F9012175480AF022FCB8E031E3F8
:1039D000002172480AF01CFC714890ED000A714801
:1039E00080ED0F0A6E4890ED010A6E4880ED100AD6
:1039F00020980DF07BFF21F00041CDE91A0100E095
:103A000019E36748806817900DF070FFCDE9180141
:103A10009DED1A0B53EC102B9DED180B51EC100B78
:103A20000DF098FACDE91C019DED1C0B51EC100B2B
:103A30000DF05EFA5B4948640846406C17900DF043
:103A400055FFCDE91C015748006C17900DF04EFF53
:103A5000CDE91A015348C06B17900DF047FFCDE92F
:103A60001801DDE91C01CDE90201DDE91A01CDE90A
:103A700000019DED180B53EC102B40A00BF00AF940
:103A8000012146480AF0C4FB5AE0002143480AF0ED
:103A9000BFFB434890ED000A424880ED0F0A4048C2
:103AA00090ED010A3F4880ED100A20980DF01EFFAE
:103AB00021F00041CDE91A013948806817900DF0D6
:103AC00015FFCDE918019DED1A0B53EC102B9DED60
:103AD000180B51EC100B0DF01FFECDE91C019DEDF4
:103AE0001C0B51EC100B0DF003FA2E4948640846EC
:103AF000406C17900DF0FAFECDE91C012948006CCE
:103B000017900DF0F3FECDE91A012648C06B17900F
:103B10000DF0ECFECDE91801DDE91C01CDE9020153
:103B2000DDE91A01CDE900019DED180B53EC102BD6
:103B300012A00BF0AFF8012118480AF069FB00BF92
:103B400000BF1848007F1E90FFF7C5F872E216A06C
:103B50000BF0A0F822AB23AA24A925A8FDF756FA5A
:103B60009DED240ADDED230A30EE200ADDED220A68
:103B700030EE200A124880ED000A23E0746172677B
:103B8000657420706F736974696F6E206973202586
:103B9000662C2025662C2025660A000000100040B7
:103BA00060220020C4020020636D64342C20616216
:103BB0007320706F736974696F6E20636D640A009F
:103BC0002C0000200021FE480AF022FB9DF8AD00E9
:103BD00000069DF8AE1040EA01409DF8AF1040EAA3
:103BE00001209DF8B010084321909DF8B100000617
:103BF0009DF8B21040EA01409DF8B31040EA012060
:103C00009DF8B410084320909DF8B50001069DF87A
:103C1000B60041EA00409DF8B71040EA01209DF847
:103C2000B81008431F909DF8B90000069DF8BA101F
:103C300040EA01409DF8BB1040EA01209DF8BC100D
:103C400008431E909DF8BD0000069DF8BE1040EA96
:103C500001409DF8BF1040EA01209DF8C0100843C4
:103C60001D909DF8C10001069DF8C20041EA004088
:103C70009DF8C31040EA01209DF8C41008431C9031
:103C80009DED210AF8EEC00A9FEDCE1A80EE810A62
:103C90008DED1B0A9DED200AB8EEC01ADFEDC90AB2
:103CA00081EE200A8DED1A0A9DED1F0AF8EEC00A7A
:103CB0009FEDC41A80EE810A8DED190A9DED1E0A52
:103CC000F8EEC00A9FEDC01A80EE810A8DED180A49
:103CD0009DED1D0AF8EEC00A9FEDBB1A80EE810A29
:103CE0008DED170A9DED1C0AF8EEC00A9FEDB61A7D
:103CF00080EE810A8DED160A9DED180AB34880ED1D
:103D00000F0A9DED170A80ED100A9DED160A80ED51
:103D1000110A9DED1B0A80ED0C0A9DED1A0A80ED3B
:103D20000D0A9DED190A80ED0E0A16980DF0DEFDC4
:103D3000CDE9140117980DF0D9FDCDE912011898BD
:103D40000DF0D4FDCDE9100119980DF0CFFDCDE9AE
:103D50000E011A980DF0CAFDCDE90C011B980DF06B
:103D6000C5FDCDE90A01DDE91401CDE90801DDE970
:103D70001201CDE90601DDE91001CDE90401DDE91B
:103D80000E01CDE90201DDE90C01CDE900019DED57
:103D90000A0B53EC102B8EA00AF07CFF924800789F
:103DA00018B9012186480AF033FA8F4800780128B3
:103DB00001D18E4908708548007F1590FEF78BFF72
:103DC00038E18BA00AF066FF22AB23AA24A925A81C
:103DD000FDF71CF99DED240ADDED230A30EE200AE3
:103DE000DDED220A30EE200A884880ED000A00212D
:103DF00073480AF00DFA9DF8AD0000069DF8AE106C
:103E000040EA01409DF8AF1040EA01209DF8B01053
:103E1000084321909DF8B10001069DF8B20041EAE7
:103E200000419DF8B30041EA00209DF8B41008431A
:103E300020909DF8B50001069DF8B60041EA0040CB
:103E40009DF8B71040EA01209DF8B81008431F9074
:103E50009DF8B90001069DF8BA0041EA00419DF8BD
:103E6000BB0041EA00209DF8BC1008431E909DF85D
:103E7000BD0000069DF8BE1040EA01409DF8BF104D
:103E800040EA01209DF8C01008431D909DF8C10034
:103E900001069DF8C20041EA00419DF8C30041EAD5
:103EA00000209DF8C41008431C909DED210AF8EEF7
:103EB000C00A9FED441A80EE810A8DED1B0A9DED2C
:103EC000200AF8EEC00A9FED3F1A80EE810A8DEDC0
:103ED0001A0A9DED1F0AF8EEC00A9FED3A1A80EE0D
:103EE000810A8DED190A9DED1E0AF8EEC00A9FEDBC
:103EF000361A80EE810A8DED180A9DED1D0AF8EE46
:103F0000C00A9FED311A80EE810A8DED170A9DEDF2
:103F10001C0AF8EEC00A9FED2C1A80EE810A8DED86
:103F2000160A9DED180A294880ED0F0A9DED170A23
:103F300080ED100A9DED160A80ED110A9DED1B0A19
:103F400080ED0C0A9DED1A0A80ED0D0A9DED190A0F
:103F500080ED0E0A16980DF0C9FCCDE914011798F2
:103F60000DF0C4FCCDE9120118980DF0BFFCCDE9AD
:103F7000100119980DF0BAFCCDE90E011A980DF058
:103F8000B5FCCDE90C011B980DF0B0FCCDE90A01A0
:103F9000DDE91401CDE90801DDE91201CDE90601F1
:103FA000DDE91001CDE90401DDE90E01CDE90201F1
:103FB000DDE90C01CDE900019DED0A0B28E00000D0
:103FC0000010004000401C460000C842C40200200F
:103FD00025662C2025662C2025662C2025662C2085
:103FE00025662C2025660A0055000020540000207C
:103FF000636D6431342C2061627320706F73697457
:10400000696F6E20636D640A000000002C000020C0
:1040100053EC102BAFF248000AF03CFE0121E748B8
:1040200001700120E6490870E648007F1590FEF710
:1040300052FE00BF00BFE348808C052833DBE14817
:10404000808C08282FDCDF48808C01462390DEA07E
:104050000AF020FE0DF1AD002590002024900021F3
:10406000D848C1840020249011E0D648C08C2599FE
:104070000978491E01228A40104381B2D148C18487
:104080002598401C25902498401CC0B22490CD480F
:10409000C08B401F24998842E7DC0120C9498883EE
:1040A000FEF796FA00BFC748808C092813D1C5488F
:1040B000808C01462590CCA00AF0ECFD0221C1487D
:1040C0008183007F2590FEF706FE9DF8AD00BB4979
:1040D0000870FCF736FF2898062833D1B948808C41
:1040E00001462190C8A00AF0D5FD0021B548818382
:1040F0000020239024902590FF208DF88C008DF8CF
:104100008D0000208DF88E0006208DF88F00022192
:104110000DF18E00FCF7F4F822902298000E8DF835
:1041200090002298000C8DF891002298000A8DF8DA
:1041300092002298C0B28DF893000D2123A807F0B9
:104140001AFF00BF0020FEF7A9BE0020B74909688A
:104150000870B64909684870B44800684068B349B7
:1041600008600020EFE710B5B1A00AF093FDB9A0F8
:104170000AF090FDC0A00AF08DFDC8A00AF08AFDEB
:10418000D0A00AF087FDD8A00AF084FDDEA00AF0D6
:1041900081FDE5A00AF07EFDEAA00AF07BFD10BDDE
:1041A00011B59DB01D98332883F0B681DFE810F07B
:1041B000B41933003D004A00510058005F00B419A3
:1041C000B419B419680074007A009200AA00AB0018
:1041D000B200B900C000C700CE00D500DC00E3008B
:1041E000EB00F3009002A302B602C902DC02EF0268
:1041F0000203150328033B034E0361033304370511
:10420000420699089C0A640C410E1410ED11B41377
:104210009D15B015BC17D2A00AF03CFD04F0C4F8FF
:10422000D4A00AF037FD03F07AB9D6A00AF032FD27
:1042300004F0C6F84FF4FA7007F0F4FDD5A00AF0C8
:1042400029FDF0E7D8A00AF025FDDDA00AF022FD47
:10425000E9E7E1A00AF01EFDE6A00AF01BFDE2E797
:10426000EAA00AF017FDF0A00AF014FDDBE7F4A0C5
:104270000AF010FD05F098FCF6A00AF00BFDD2E75D
:10428000F9A00AF007FD04F08FF804F099F84FF454
:104290007A7007F0C7FDC6E7F6A00AF0FBFC05F050
:1042A00083FCC0E7F6A00AF0F5FC012206211046C7
:1042B00005F08BFC01220621022005F086FC01227C
:1042C0000621032005F081FC01220621042005F0CF
:1042D0007CFCA8E7F3A00AF0DDFC012203211046D4
:1042E00005F073FC01220321022005F06EFC01227F
:1042F0000321084605F069FC01220321042005F092
:1043000064FC90E78FE700219FEDEE0A0420FCF7A4
:10431000C7FD88E701219FEDEB0A0420FCF7C0FDF3
:1043200081E700219FEDE70A0320FCF7B9FD7AE75A
:1043300001219FEDE40A0320FCF7B2FD73E70021A1
:104340009FEDE00A0220FCF7ABFD6CE701219FED39
:10435000DD0A0220FCF7A4FD65E700219FEDD90AE4
:104360000120FCF79DFD5EE701219FEDD60A08467E
:10437000FCF796FD57E7DFEDD40A1FEDED0A0420A8
:10438000FCF7A8FF4FE7DFEDD10A1FEDF10A04208B
:10439000FCF7A0FF47E7DFEDCD3A9FEDCC3ADFED2C
:1043A000CB2AB2EE042ADFEDC91A9FEDC81ADFED61
:1043B000C70AB2EE040AFDF731F834E755000020D1
:1043C00054000020C402002072656164206672619E
:1043D0006D652C2066756E6374696F6E20636F6403
:1043E00065202025640A0000736574206672616D83
:1043F000652C2066756E6374696F6E20636F6465EB
:10440000202025640A00000068656172746265619D
:1044100074206672616D652C2066756E6374696FB9
:104420006E20636F6465202025640A00340000203C
:104430000D0ABBB6D3ADCAB9D3C320494E4E464FC1
:10444000532053434120C7FDB6AFB2E2CAD4A3A163
:104450000D0A0000CFEACFB8CDA8D0C5D0ADD2E9C3
:10446000B2CEBCFB20494E4E464F532057494B49D4
:1044700020A3A10D0A000000B7A2CBCD203120C29D
:10448000D6D1AFD7DCCFDFC9CFB5C4D6B4D0D0C674
:10449000F7494420A3A10D0A00000000B7A2CBCD2C
:1044A000203220CAB9D3C3C4ACC8CF4944B3F5CA7B
:1044B000BCBBAF534341BFD8D6C6C6F720A3A10D9E
:1044C0000A000000B7A2CBCD203320BDF8C8EBCE48
:1044D000BBD6C3B9E9C1E3B2E2CAD4B3CCD0F220AF
:1044E000A3A10D0A00000000B7A2CBCD203420BD4F
:1044F000F8C8EBD5FDB7B4D7AAB2E2CAD4B3CCD0D2
:10450000F220A3A10D0A0000B7A2CBCD203520BD1B
:10451000F8C8EBB8DFB5CDCBD9B2E2CAD4B3CCD0B2
:10452000F220A3A10D0A0000B7A2CBCD203620BDFA
:10453000ABD6B4D0D0C6F7B9D8BBFA20A3A10D0A28
:1045400000000000B7A2CBCD203720CFD4CABEB028
:10455000EFD6FAD0C5CFA220A3A10D0A000000001B
:104560000D0AD6B4D0D0C2D6D1AFB3CCD0F2A3A16D
:104570000D0A0000C2D6D1AFBDE1CAF8A3A10D0A51
:10458000000000000D0A534341B3F5CABCBBAFA302
:10459000A10D0A00534341B3F5CABCBBAFBDE1CA8C
:1045A000F8A3A10D0A0000000D0ABDF8C8EBCEBBB0
:1045B000D6C3B9E9C1E3B2E2CAD4A3A10D0A00008F
:1045C000CEBBD6C3B9E9C1E3B2E2CAD4BDE1CAF8F1
:1045D000A3A10D0A000000000D0ABDF8C8EBD5FD2F
:1045E000B7B4D7AAC7D0BBBBB2E2CAD4A3A10D0A45
:1045F00000000000D5FDB7B4D7AAC7D0BBBBB2E25C
:10460000CAD4BDE1CAF8A3A10D0A00000D0ABDF885
:10461000C8EBB8DFB5CDCBD9C7D0BBBBB2E2CAD4EB
:10462000A3A10D0A00000000B8DFB5CDCBD9C7D0DB
:10463000BBBBB2E2CAD4BDE1CAF8A3A10D0A000017
:104640000D0AD6B4D0D0C6F7B9D8BBFAA3A10D0ACB
:1046500000000000D6B4D0D0C6F7B9D8BBFABDE18F
:10466000CAF8A3A10D0A0000737461727420616C12
:104670006C200A00636C6F736520616C6C200A000B
:104680007772697465206D6F746F7220746F20701B
:104690006F736974696F6E2053206D6F6465200AB3
:1046A000000000007772697465206D6F746F72206E
:1046B000746F20706F736974696F6E206D6F6465BD
:1046C000200A0000CDCCCC3D0000104200000000CC
:1046D0005FED023A1FED033A5FED042AB2EE042AC1
:1046E0005FED061A1FED071A5FED080A1FED090AB4
:1046F000FCF794FE97E55FED0B3A1FED0C3A5FED8A
:104700000D2AB2EE042A5FED0F1A1FED101A5FEDAD
:10471000110ABAEE040AFCF781FE84E55FED153A52
:104720001FED163AF2EE042A1FED182A5FED191A52
:104730001FED1A1AF2EE040A1FED1C0AFCF76EFEBA
:1047400071E55FED1E3A1FED1F3AF2EE042A1FEDF0
:10475000212A5FED221A1FED231A5FED240A1FEDB7
:10476000250AFCF75BFE5EE55FED283A1FED293A6E
:10477000F2EE042A1FED2B2A5FED2C1A1FED2D1AE5
:10478000FAEE040A1FED2F0AFCF748FE4BE55FED39
:10479000313AB2EE043A5FED332A1FED342A5FED71
:1047A000351AB2EE041A5FED370A1FED380AFCF72E
:1047B00035FE38E55FED3B3AB2EE043A5FED3D2A57
:1047C0001FED3E2A5FED3F1A1FED401A5FED410AD3
:1047D0001FED420AFCF722FE25E55FED443AB2EEFA
:1047E000043A5FED462A1FED472A5FED481ABAEEFC
:1047F000041A5FED4A0A1FED4B0AFCF70FFE12E5A3
:10480000F2EE043A1FED4F3A5FED502A1FED512AA8
:10481000F2EE041A1FED531A5FED540A1FED550A0C
:10482000FCF7FCFDFFE4F2EE043A1FED583A5FEDB1
:10483000592A1FED5A2A5FED5B1A1FED5C1A5FEDD6
:104840005D0A1FED5E0AFCF7E9FDECE4F2EE043AC6
:104850001FED623A5FED632A1FED642AFAEE041A37
:104860001FED661A5FED670A1FED680AFCF7D6FDBB
:10487000D9E418AB19AA1AA91BA8FCF7C7FB179013
:10488000179818B1F7480AF005FAC3E01B980DF025
:104890002DF821F000419FEDF40B53EC102BCDE9E6
:1048A00012019DED120B51EC100B0CF0B9FD02D270
:1048B0001FED7A0A01E09DED1B0A8DED1B0A1A9887
:1048C0000DF014F821F000419FEDE70B53EC102B95
:1048D000CDE912019DED120B51EC100B0CF0A0FD77
:1048E00002D21FED860A01E09DED1A0A8DED1A0A2B
:1048F00019980CF0FBFF21F000419FEDDB0B53EC0E
:10490000102BCDE912019DED120B51EC100B0CF0A8
:1049100087FD02D21FED930A01E09DED190A8DED8E
:10492000190A18980CF0E2FF21F000419FEDCE0B20
:1049300053EC102BCDE912019DED120B51EC100B35
:104940000CF06EFD02D21FED9F0A01E09DED180AEA
:104950008DED180A1FEDA30A8DED160A1FEDA50AAD
:104960008DED150A1FEDA70A8DED140A18980CF0AD
:10497000BDFFCDE9120119980CF0B8FFCDE9100187
:104980001A980CF0B3FFCDE90E011B980CF0AEFFA6
:10499000CDE90C01DDE91201CDE90401DDE91001E9
:1049A000CDE90201DDE90E01CDE900019DED0C0B21
:1049B00053EC102BAEA00AF06DF914AA15A916A895
:1049C000DDED181A9DED191ADDED1A0A9DED1B0A91
:1049D000FCF7FDF814980CF089FFCDE91201159849
:1049E0000CF084FFCDE9100116980CF07FFFCDE9A3
:1049F0000E01DDE91201CDE90201DDE91001CDE989
:104A000000019DED0E0B53EC102BAFF630200AF099
:104A100041F900BF07E418AB19AA1AA91BA8FCF7B3
:104A2000F5FA1790179818B18E480AF033F9F5E0A7
:104A30001B980CF05BFF21F000419FED8B0B53ECBA
:104A4000102BCDE912019DED120B51EC100B0CF067
:104A5000E7FC02D21FEDE30A01E09DED1B0A8DED9C
:104A60001B0A1A980CF042FF21F000419FED7E0BCB
:104A700053EC102BCDE912019DED120B51EC100BF4
:104A80000CF0CEFC02D21FEDEF0A01E09DED1A0AF8
:104A90008DED1A0A19980CF029FF21F000419FEDC5
:104AA000720B53EC102BCDE912019DED120B51EC62
:104AB000100B0CF0B5FC02D21FEDFC0A01E09DEDDD
:104AC000190A8DED190A18980CF010FF21F0004119
:104AD0009FED650B53EC102BCDE912019DED120BF0
:104AE00051EC100B0CF09CFC02D29FED650A01E02A
:104AF0009DED180A8DED180A9FED610A8DED160ADD
:104B00009FED5F0A8DED150A9FED5D0A8DED140A8C
:104B100014AA15A916A8DDED181A9DED191ADDEDD8
:104B20001A0A9DED1B0AFCF752F814980CF0DEFEF1
:104B3000CDE9120115980CF0D9FECDE910011698B7
:104B40000CF0D4FECDE90E01DDE91201CDE9020140
:104B5000DDE91001CDE900019DED0E0B53EC102BAA
:104B600048A00AF097F818980CF0C0FECDE91201A1
:104B700019980CF0BBFECDE910011A980CF0B6FEA6
:104B8000CDE90E011B980CF0B1FECDE90C01DDE979
:104B90001201CDE90401DDE91001CDE90201DDE9F1
:104BA0000E01CDE900019DED0C0B53EC102B3DA047
:104BB0000AF070F818AB19AA1AA91BA89DED141ACF
:104BC000DDED150A9DED160AFCF78CFC18980CF02B
:104BD0008DFECDE9120119980CF088FECDE9100187
:104BE0001A980CF083FECDE90E011B980CF07EFEA6
:104BF000CDE90C01DDE91201CDE90401DDE9100187
:104C0000CDE90201DDE90E01CDE900019DED0C0BBE
:104C100053EC102B2EA00AF03DF800BF6AE518AB4C
:104C200019AA1AA91BA8FCF7F1F91790179818B13F
:104C300032A00AF02FF8FCE01B980CF057FE21F090
:104C400000419FED090B53EC102BCDE914019DEDB4
:104C5000140B51EC100B0CF0E3FB6DD29FED080A26
:104C60006CE069E09C1300087B14AE47E17A843F56
:104C700025662C25662C25662C25660A000000007A
:104C800000000000706F736974696F6E2020203A15
:104C9000202025662C20202025662C202020202561
:104CA000660A000063757272656E7420616E676CCF
:104CB000652020202020203A202025662C2020203E
:104CC00025662C20202020256620202025660A002D
:104CD0007461726765742020616E676C65202020A6
:104CE0002020203A202025662C20202025662C20FC
:104CF000202020256620202025660A00206572726B
:104D00006F72207768696C6520696E2070726F63BE
:104D1000657373696E6720706F736974696F6E2055
:104D2000746F20616E676C6520696E20636F6D6DB6
:104D3000616E642033390A009DED1B0A8DED1B0A5C
:104D40001A980CF0D3FD21F000411FED390B53EC04
:104D5000102BCDE914019DED140B51EC100B0CF050
:104D60005FFB02D21FED3A0A01E09DED1A0A8DEDBC
:104D70001A0A19980CF0BAFD21F000411FED460BFC
:104D800053EC102BCDE914019DED140B51EC100BDD
:104D90000CF046FB02D21FED460A01E09DED190A18
:104DA0008DED190A18980CF0A1FD21F000411FEDBE
:104DB000520B53EC102BCDE914019DED140B51EC6B
:104DC000100B0CF02DFB02D21FED530A01E09DEDFC
:104DD000180A8DED180AFA4AFA49FB48DDED181A4F
:104DE0009DED191ADDED1A0A9DED1B0AFBF7EFFE8A
:104DF000F34800680CF07AFDCDE91401F148006831
:104E00000CF074FDCDE91201EF4800680CF06EFD66
:104E1000CDE91001DDE91401CDE90201DDE912015E
:104E2000CDE900019DED100B53EC102BE7A009F02C
:104E300031FF5FE418AB19AA1AA91BA8FCF7E6F822
:104E40001790179818B1EC4809F024FF48E21B9816
:104E50000CF04CFD21F000411FED7D0B53EC102BAD
:104E6000CDE910019DED100B51EC100B0CF0D8FAB0
:104E700002D21FED7D0A01E09DED1B0A8DED1B0A9C
:104E80001A980CF033FD21F000411FED890B53EC13
:104E9000102BCDE910019DED100B51EC100B0CF017
:104EA000BFFA02D21FED8A0A01E09DED1A0A8DEDCC
:104EB0001A0A19980CF01AFD21F000411FED960B0B
:104EC00053EC102BCDE910019DED100B51EC100BA4
:104ED0000CF0A6FA02D21FED960A01E09DED190A28
:104EE0008DED190A18980CF001FD21F000411FED1D
:104EF000A20B53EC102BCDE910019DED100B51ECE2
:104F0000100B0CF08DFA02D21FEDA30A01E09DED0B
:104F1000180A8DED180AAC4890ED000AF1EE040A6B
:104F200030EE200A8DED110A13AB14AA15A916A8AC
:104F3000A34C94ED001AA34CD4ED000A9DED110A88
:104F4000FCF7D0FA1290129800287DD113980CF03B
:104F5000CDFCCDE90C0114980CF0C8FCCDE90A0198
:104F600015980CF0C3FCCDE9080116980CF0BEFCB6
:104F7000CDE90601DDE90C01CDE90401DDE90A0115
:104F8000CDE90201DDE90801CDE900019DED060B47
:104F900053EC102BAFF2EC2009F07CFE9DED160ACD
:104FA000DDED1B0A30EE600A8DED090A09980CF060
:104FB0009DFC21F000419FED910B53EC102BCDE9AE
:104FC0000A019DED0A0B51EC100B0CF077F8CDE9BE
:104FD0000C019DED0C0B51EC100B0BF089FF1190A7
:104FE0009DED150ADDED1A0A30EE600A8DED090A15
:104FF00009980CF07BFC21F000419FED800B53ECF5
:10500000102BCDE90A019DED0A0B51EC100B0CF0B1
:1050100055F8CDE90C019DED0C0B51EC100B0BF08C
:1050200067FF10909DED140ADDED190A30EE600A5D
:105030008DED090A09980CF059FC21F000419FED13
:105040006F0B53EC102B00E040E1CDE90A019DED20
:105050000A0B51EC100B0CF031F8CDE90C019DED71
:105060000C0B51EC100B0BF043FF0F909DED130A4E
:10507000DDED180A30EE600A8DED090A09980CF092
:1050800035FC21F000419FED5D0B53EC102BCDE979
:105090000A019DED0A0B51EC100B0CF00FF8CDE955
:1050A0000C019DED0C0B51EC100B0BF021FF0E9041
:1050B0009DED110ADFED530AB4EEE00AF1EE10FAAD
:1050C00002DD9FED500A01E09DED110A8DED110A00
:1050D0009DED100ADFED4B0AB4EEE00AF1EE10FA96
:1050E00002DD9FED480A01E09DED100A8DED100AEA
:1050F0009DED0F0ADFED430AB4EEE00AF1EE10FA7F
:1051000002DD9FED400A01E09DED0F0A8DED0F0AD3
:105110009DED0E0ADFED3B0AB4EEE00AF1EE10FA67
:1051200002DD9FED380A01E09DED0E0A8DED0E0ABD
:1051300016980CF0DBFB21F000419FED300B53EC97
:10514000102BCDE90C019DED0C0B51EC100B0CF06C
:1051500067F902D29FED2C0A01E09DED160A8DED54
:10516000160A15980CF0C2FB21F000419FED230BAD
:1051700053EC102BCDE90C019DED0C0B51EC100BF9
:105180000CF04EF902D29FED200A01E09DED150AC8
:105190008DED150A14980CF0A9FB21F000419FED4C
:1051A000170B53EC102BCDE90C019DED0C0B51ECC2
:1051B000100B0CF035F929D29FED130A28E00000FE
:1051C00048000020440000204000002073746172F9
:1051D0007420706F696E7420706F736974696F6E7C
:1051E0002020203A202025662C20202025662C20F7
:1051F00020202025660A00009C1300089A9999999E
:105200009999B93F0000C842000000009DED140AC2
:105210008DED140A13980CF069FB21F000411FED8D
:10522000090B53EC102BCDE90C019DED0C0B51EC4F
:10523000100B0CF0F5F802D21FED0D0A01E09DED08
:10524000130A8DED130A0E980CF050FBCDE90C01FA
:105250000F980CF04BFBCDE90A0110980CF046FBBF
:10526000CDE9080111980CF041FBCDE90601DDE91B
:105270000C01CDE90401DDE90A01CDE90201DDE916
:105280000801CDE900019DED060B53EC102BF7A0B2
:1052900009F000FDDDED0E3A9DED0F3ADDED102A2F
:1052A0009DED112ADDED131A9DED141ADDED150AA1
:1052B0009DED160AFCF7B2F8F34890ED000AF7EE00
:1052C000000A30EE200A80ED000A08E0EF4840783E
:1052D000012801D1FDF77EFDEDA009F0DBFC00BF48
:1052E0009CE418AB19AA1AA91BA8FBF78FFE17900C
:1052F000179818B1ED4809F0CDFCB6E11B980CF0F9
:10530000F5FA21F000419FEDEA0B53EC102BCDE9AB
:1053100010019DED100B51EC100B0CF081F802D236
:105320001FED470A01E09DED1B0A8DED1B0A1A983F
:105330000CF0DCFA21F000419FEDDD0B53EC102B5B
:10534000CDE910019DED100B51EC100B0CF068F83D
:1053500002D21FED530A01E09DED1A0A8DED1A0AE3
:1053600019980CF0C3FA21F000419FEDD10B53ECDA
:10537000102BCDE910019DED100B51EC100B0CF032
:105380004FF802D21FED600A01E09DED190A8DED84
:10539000190A18980CF0AAFA21F000419FEDC40BED
:1053A00053EC102BCDE910019DED100B51EC100BBF
:1053B0000CF036F802D21FED6C0A01E09DED180AE0
:1053C0008DED180AB04890ED000AF1EE040A30EEB7
:1053D000600A8DED110A13AB14AA15A916A8B64CD4
:1053E00094ED001AB54CD4ED000A9DED110AFCF7BE
:1053F00079F81290129800287ED113980CF076FA62
:10540000CDE90C0114980CF071FACDE90A01159858
:105410000CF06CFACDE9080116980CF067FACDE9AA
:105420000601DDE90C01CDE90401DDE90A01CDE960
:105430000201DDE90801CDE900019DED060B53EC09
:10544000102B9FA009F026FC9DED160ADDED1B0A2E
:1054500030EE600A8DED090A09980CF047FA21F048
:1054600000411FED9A0B53EC102BCDE90A019DED85
:105470000A0B51EC100B0BF021FECDE90C019DED58
:105480000C0B51EC100B0BF033FD11909DED150A38
:10549000DDED1A0A30EE600A8DED090A09980CF06C
:1054A00025FA21F000411FEDAB0B53EC102BCDE999
:1054B0000A019DED0A0B51EC100B0BF0FFFDCDE93D
:1054C0000C019DED0C0B51EC100B0BF011FD10902D
:1054D0009DED140ADDED190A30EE600A8DED090A22
:1054E00009980CF003FA21F000411FEDBC0B53ECBE
:1054F000102BCDE90A0100E0B3E09DED0A0B51EC61
:10550000100B0BF0DBFDCDE90C019DED0C0B51EC0C
:10551000100B0BF0EDFC0F909DED130ADDED180A5A
:1055200030EE600A8DED090A09980CF0DFF921F0E0
:1055300000411FEDCE0B53EC102BCDE90A019DED80
:105540000A0B51EC100B0BF0B9FDCDE90C019DEDF0
:105550000C0B51EC100B0BF0CBFC0E909DED110AD7
:105560005FEDD80AB4EEE00AF1EE10FA02DD1FEDAD
:10557000DB0A01E09DED110A8DED110A9DED100A87
:105580005FEDE00AB4EEE00AF1EE10FA02DD1FED85
:10559000E30A01E09DED100A8DED100A9DED0F0A62
:1055A0005FEDE80AB4EEE00AF1EE10FA02DD1FED5D
:1055B000EB0A01E09DED0F0A8DED0F0A9DED0E0A3D
:1055C0005FEDF00AB4EEE00AF1EE10FA02DD1FED35
:1055D000F30A01E09DED0E0A8DED0E0A0E980CF017
:1055E00085F9CDE90C010F980CF080F9CDE90A019D
:1055F00010980CF07BF9CDE9080111980CF076F9C0
:10560000CDE90601DDE90C01CDE90401DDE90A017E
:10561000CDE90201DDE90801CDE900019DED060BB0
:1056200053EC102B11A009F035FBDDED0E3A9DED8A
:105630000F3ADDED102A9DED112ADDED131A9DEDD7
:10564000141ADDED150A9DED160AFBF7E7FE0E486C
:1056500090ED000AF7EE000A30EE600A80ED000AD5
:1056600002E00BA009F016FB00BF39E67370656518
:10567000642020202025662020202566202020254B
:105680006620202025660A0040000020C402002079
:105690006E6F20696E7665727365206F7574206F0A
:1056A000662072616E67650A000000009C130008A6
:1056B0007B14AE47E17A843F48000020440000207C
:1056C000616E676C652020202020203A202025660E
:1056D0002C20202025662C2020202025662020201C
:1056E0002025660A0000000018AB19AA1AA91BA8F9
:1056F000FBF78CFC1790179818B1FD4809F0CAFA0F
:10570000B9E11B980CF0F2F821F000411FED180BE5
:1057100053EC102BCDE910019DED100B51EC100B4B
:105720000BF07EFE02D29FEDF30A01E09DED1B0A15
:105730008DED1B0A1A980CF0D9F821F000411FEDED
:10574000240B53EC102BCDE910019DED100B51EC07
:10575000100B0BF065FE02D29FEDE60A01E09DED15
:105760001A0A8DED1A0A19980CF0C0F821F00041C0
:105770001FED310B53EC102BCDE910019DED100BFB
:1057800051EC100B0BF04CFE02D29FEDDA0A01E057
:105790009DED190A8DED190A18980CF0A7F821F063
:1057A00000411FED3D0B53EC102BCDE910019DED99
:1057B000100B51EC100B0BF033FE02D29FEDCD0A13
:1057C00001E09DED180A8DED180ACB4890ED000A16
:1057D000F3EE0E0A30EE200A8DED110A13AB14AA77
:1057E00015A916A8C54C94ED001AC54CD4ED000AB5
:1057F0009DED110AFBF776FE1290129800287DD1DC
:1058000013980CF073F8CDE90C0114980CF06EF8B5
:10581000CDE90A0115980CF069F8CDE90801169850
:105820000CF064F8CDE90601DDE90C01CDE90401D5
:10583000DDE90A01CDE90201DDE90801CDE9000158
:105840009DED060B53EC102BAFF28C1009F022FAF1
:105850009DED160ADDED1B0A30EE600A8DED090A9A
:1058600009980CF043F821F000419FEDA60B53EC92
:10587000102BCDE90A019DED0A0B51EC100B0BF03A
:105880001DFCCDE90C019DED0C0B51EC100B0BF048
:105890002FFB11909DED150ADDED1A0A30EE600A1E
:1058A0008DED090A09980CF021F821F000419FEDD7
:1058B000950B53EC102BCDE90A019DED0A0B51EC31
:1058C000100B0BF0FBFBCDE90C019DED0C0B51EC2B
:1058D000100B0BF00DFB10909DED140ADDED190A75
:1058E00030EE600A8DED090A09980BF0FFFF21F0F8
:1058F00000419FED840B53EC102B00E0B6E0CDE9A6
:105900000A019DED0A0B51EC100B0BF0D7FBCDE912
:105910000C019DED0C0B51EC100B0BF0E9FA0F9004
:105920009DED130ADDED180A30EE600A8DED090ACF
:1059300009980BF0DBFF21F000419FED720B53EC57
:10594000102BCDE90A019DED0A0B51EC100B0BF069
:10595000B5FBCDE90C019DED0C0B51EC100B0BF0E0
:10596000C7FA0E909DED110AF3EE0E0AB4EEE00AAE
:10597000F1EE10FA02DDB3EE0E0A01E09DED110A20
:105980008DED110A9DED100AF3EE0E0AB4EEE00A59
:10599000F1EE10FA02DDB3EE0E0A01E09DED100A01
:1059A0008DED100A9DED0F0AF3EE0E0AB4EEE00A3B
:1059B000F1EE10FA02DDB3EE0E0A01E09DED0F0AE2
:1059C0008DED0F0A9DED0E0ADFED500AB4EEE00AF0
:1059D000F1EE10FA02DD9FED4D0A01E09DED0E0A99
:1059E0008DED0E0A0E980BF081FFCDE90C010F989A
:1059F0000BF07CFFCDE90A0110980BF077FFCDE9A1
:105A0000080111980BF072FFCDE90601DDE90C01E8
:105A1000CDE90401DDE90A01CDE90201DDE9080172
:105A2000CDE900019DED060B53EC102BAFF2C43015
:105A300009F030F9DDED0E3A9DED0F3ADDED102A5B
:105A40009DED112ADDED131A9DED141ADDED150AF9
:105A50009DED160AFBF7E2FC274890ED000AF3EEF5
:105A60000E0A30EE200A80ED000A03E0AFF2E030CB
:105A700009F010F900BF33E418AB19AA1AA91BA842
:105A8000FBF7C4FA1790179818B1194809F002F9F2
:105A9000CEE11B980BF02AFF21F000411FEDFC0B1B
:105AA00053EC102BCDE910019DED100B51EC100BB8
:105AB0000BF0B6FC02D29FED0F0A01E09DED1B0A30
:105AC0008DED1B0A1A980BF011FF21F000419FED9C
:105AD000100B53EC102BCDE910019DED100B51EC88
