:020000040800F2
:10000000582F0020D5B900086570000867700008F7
:100010006B7000086F70000873700008000000002B
:1000200000000000000000000000000077700008E1
:1000300079700008000000007B7000087D700008E7
:10004000EFB90008EFB90008EFB90008EFB90008F0
:10005000EFB90008EFB90008EFB90008EFB90008E0
:10006000EFB90008EFB90008EFB90008EFB90008D0
:10007000EFB90008EFB90008EFB90008EFB90008C0
:10008000EFB90008EFB90008EFB90008EFB90008B0
:1000900011740008EFB90008EFB90008EFB90008C3
:1000A000EFB90008EFB90008EFB90008EFB9000890
:1000B0000DB5000847B5000805B60008EFB90008FF
:1000C000EFB90008EFB90008EFB90008EFB9000870
:1000D000EFB9000811B20008EFB90008EFB9000845
:1000E000EFB90008EFB90008EFB90008EFB9000850
:1000F0001FB80008E1B80008EFB90008EFB9000820
:10010000EFB90008EFB90008EFB90008EFB900082F
:10011000EFB90008EFB90008C5B60008EFB900084C
:10012000EFB90008EFB90008EFB90008EFB900080F
:10013000EFB90008EFB90008EFB90008EFB90008FF
:10014000EFB90008C1750008EFB90008EFB9000861
:10015000EFB90008EFB90008EFB90008EFB90008DF
:10016000EFB90008EFB90008EFB90008EFB90008CF
:10017000EFB90008EFB90008EFB90008EFB90008BF
:10018000EFB90008EFB90008EFB90008EFB90008AF
:10019000EFB90008EFB90008EFB90008EFB900089F
:1001A000EFB90008EFB90008EFB9000800F002F855
:1001B00000F052F80AA090E8000C82448344AAF1AF
:1001C0000107DA4501D100F047F8AFF2090EBAE8AD
:1001D0000F0013F0010F18BFFB1A43F0010318477B
:1001E000EC0C01000C0D0100103A24BF78C878C156
:1001F000FAD8520724BF30C830C144BF04680C602D
:10020000704700000023002400250026103A28BF74
:1002100078C1FBD8520728BF30C148BF0B60704778
:10022000662910F0228564290DF0B88675290DF035
:10023000B58678290DF0EE86002070471FB510F0C6
:100240000AFD0EF0F3F90400002000210FF072FF08
:10025000E0601FBD10B510BD0EF004FB1146FFF7A6
:10026000EDFF06F0FFFA0EF022FB03B4FFF7F2FFFA
:1002700003BC0AF06DFF00000020704700207047AB
:100280000020704700207047002070470020704712
:100290000020704700207047002070470020704702
:1002A00000207047002000BF1FE040F2E731884285
:1002B0000ED00021FE4A02F8301002EBC00251704D
:1002C000FB4A411C02EBC10102EBC00251600BE092
:1002D0000021F74A02F8301002EBC0025170F449D5
:1002E0000A4602EBC0025160401CB0F57A7FDCDBAD
:1002F000EF49F04A116011460968EF4A11607047F2
:100300002DE9F04F99B080460E460EB1642E03DD04
:10031000002019B0BDE8F08F45460024002700BF3B
:100320004CE0701E211D884234DA285D04F1010C76
:10033000B44502DB4FF0000C03E004F1010C15F8AA
:100340000CC0614604F1020CB44502DB4FF0000C16
:1003500003E004F1020C15F80CC0624604F1030C32
:10036000B44502DB4FF0000C03E004F1030C15F878
:100370000CC063464FEA006C4CEA014C4CEA022C7C
:100380004CEA030CBA4607F1010B1FFA8BF74DF844
:100390002AC015E0285D0106601C285C41EA004186
:1003A000A01C285C41EA0020E11C695C0843394636
:1003B0007A1C97B24DF82100201D84B2B442B0DB04
:1003C00000BF4FF000090DF083FD002406E05DF84A
:1003D00024000DF081FD8146601C84B2BC42F6DB36
:1003E000484696E710B52DED028BB0EE408A9FEDA2
:1003F000B30A28EE000ADFEDB20A80EE201AF0EE12
:10040000418AB0EE680A0EF0A3FFAE4880ED000A04
:100410009FEDAA0A28EE000ADFEDA90A80EE201A55
:10042000F0EE418AB0EE680A0FF09EF8B1EE400A95
:10043000A44880ED010A9FEDA40A80ED020A9FED19
:100440009F0A28EE000ADFED9E0A80EE201AF0EEE9
:10045000418AB0EE680A0FF087F89A4880ED030AE7
:1004600090ED000A80ED040A9FED970A80ED050AE1
:100470009FED950A80ED060A9FED930A80ED070A2D
:10048000B7EE000A80ED080ABDEC028B10BD10B576
:100490002DED048BB0EE408AF0EE608A9FED870A66
:1004A00028EE000ADFED860A80EE201AB0EE419AAF
:1004B000B0EE490A0EF04CFFF0EE409A9FED7F0A35
:1004C00028EE800ADFED7E0A80EE201AB0EE419A17
:1004D000B0EE490A0EF03CFF29EE800A7B4880ED21
:1004E000000A9FED760A28EE000ADFED750A80EE1D
:1004F000201AB0EE419AB0EE490A0EF029FFF1EE53
:10050000409A9FED6E0A28EE800ADFED6D0A80EEBC
:10051000201AB0EE419AB0EE490A0FF025F829EE04
:10052000800A6A4880ED010A9FED640A28EE000AFD
:10053000DFED630A80EE201AB0EE419AB0EE490A70
:100540000FF012F8B1EE400A604880ED020A9FED0C
:100550005B0A28EE000ADFED5A0A80EE201AB0EEA0
:10056000419AB0EE490A0EF0FFFFF0EE409A9FED7F
:10057000530A28EE800ADFED520A80EE201AB0EE10
:10058000419AB0EE490A0EF0E3FE29EE800A4F4888
:1005900080ED030A9FED490A28EE000ADFED480AC4
:1005A00080EE201AB0EE419AB0EE490A0EF0DCFF60
:1005B000F1EE409A9FED410A28EE800ADFED400AF5
:1005C00080EE201AB0EE419AB0EE490A0EF0CCFF50
:1005D00029EE800A3D4880ED040A9FED380A28EE96
:1005E000000ADFED370A80EE201AB0EE419AB0EE35
:1005F000490A0EF0ADFE354880ED050A9FED2F0A41
:1006000028EE800ADFED2E0A80EE201AB0EE419A25
:10061000B0EE490A0EF0A8FFB1EE400A2B4880ED7B
:10062000060A9FED260A28EE800ADFED250A80EEF5
:10063000201AB0EE419AB0EE490A0EF089FEB1EEF2
:10064000400A224880ED070A9FED1F0A80ED080A44
:10065000BDEC048B10BD10B52DED068BB0EE408ABD
:10066000F0EE608AB0EE419A9FED140A28EE000A7F
:10067000DFED130A80EE201AF0EE419AB0EE690A1F
:100680000EF066FEB0EE40AA9FED0C0A69EE000A7D
:100690009FED0B1A80EE810A30EE280AF0EE409AA8
:1006A0000EF056FE2AEE000A094880ED000A11E01D
:1006B0000C0300202000002024000020DC0F494013
:1006C000000034439000002000000000B40000202F
:1006D000D80000201FED070A28EE000A5FED080A87
:1006E00080EE201AF0EE419AB0EE690A0EF030FE6C
:1006F000B1EE40AA1FED0F0A69EE000A1FED101AB5
:1007000080EE810A30EE280AF0EE409A0EF02CFFBF
:100710002AEE000AFE4880ED010A1FED180A28EEB5
:10072000000A5FED190A80EE201AF0EE419AB0EE51
:10073000690A0EF019FFB1EE400AF54880ED020A91
:100740001FED220A28EE000A5FED230A80EE201A30
:10075000F0EE419AB0EE690A0EF006FFB0EE40AA44
:100760001FED2A0A69EE000A1FED2B1A80EE810A9E
:1007700030EE280AF0EE409A0EF0EAFD2AEE000A6A
:10078000E34880ED030A1FED330A28EE000A5FED0F
:10079000340A80EE201AF0EE419AB0EE690A0EF0AB
:1007A000E3FEB1EE40AA1FED3B0A69EE000A1FED21
:1007B0003C1A80EE810A30EE280AF0EE409A0EF0E4
:1007C000D3FE2AEE000AD24880ED040A1FED450A46
:1007D00028EE000A5FED460A80EE201AF0EE419AFC
:1007E000B0EE690A0EF0B4FDC94880ED050A1FEDB0
:1007F0004D0A69EE000A1FED4E1A80EE810A30EEB6
:10080000280AF0EE409A0EF0AFFEB1EE400AC04862
:1008100080ED060A1FED570A69EE000A1FED581A0F
:1008200080EE810A30EE280AF0EE409A0EF090FD3C
:10083000B1EE400AB64880ED070A1FED5D0A80ED73
:10084000080ABDEC068B10BD10B52DED068BB0EE81
:10085000408AF0EE608AB0EE419AF0EE619A1FEDA8
:10086000690A28EE000A5FED6A0A80EE201AB0EEEF
:1008700041AAB0EE4A0A0EF06BFDF0EE40AA1FED61
:10088000710A69EE800A1FED721A80EE810A78EE15
:10089000890A30EE200AB0EE40AA0EF059FD2AEE89
:1008A000800A9C4880ED000A1FED7C0A28EE000AB1
:1008B0005FED7D0A80EE201AB0EE41AAB0EE4A0A42
:1008C0000EF046FDF1EE40AA1FED840A69EE800AA3
:1008D0001FED851A80EE810A78EE890A30EE200A33
:1008E000B0EE40AA0EF040FE2AEE800A894880ED64
:1008F000010A1FED8E0A28EE000A5FED8F0A80EED6
:10090000201AB0EE41AAB0EE4A0A0EF02DFEB1EE6A
:10091000400A804880ED020A1FED980A28EE000A7E
:100920005FED990A80EE201AB0EE41AAB0EE4A0AB5
:100930000EF01AFEF0EE40AA1FEDA00A69EE800A42
:100940001FEDA11A80EE810A78EE890A30EE200AA6
:10095000B0EE40AA0EF0FCFC2AEE800A6D4880ED55
:10096000030A1FEDAA0A28EE000A5FEDAB0A80EE2B
:10097000201AB0EE41AAB0EE4A0A0EF0F5FDF1EEF3
:1009800040AA1FEDB20A69EE800A1FEDB31A80EE8D
:10099000810A78EE890A30EE200AB0EE40AA0EF005
:1009A000E3FD2AEE800A5B4880ED040A1FEDBD0AD4
:1009B00028EE000A5FEDBE0A80EE201AB0EE41AAD2
:1009C000B0EE4A0A0EF0C4FC524880ED050A1FED55
:1009D000C50A69EE800A1FEDC61A80EE810A78EE1C
:1009E000890A30EE200AB0EE40AA0EF0BDFDB1EE4D
:1009F000400A484880ED060A1FEDD00A69EE800AD9
:100A00001FEDD11A80EE810A78EE890A30EE200AB5
:100A1000B0EE40AA0EF09CFCB1EE400A3D4880EDDD
:100A2000070A1FEDD70A80ED080ABDEC068B10BD42
:100A30001FEDDB0A384880ED000A1FEDDD0A80ED6E
:100A4000010A1FEDDF0A80ED020A1FEDE10A3348BB
:100A500080ED000A9FED320A80ED010A1FEDE60AE3
:100A600080ED020A9FED2F0A2F4880ED000A1FED4E
:100A7000EA0A80ED010A1FEDEC0A80ED020A9FED03
:100A80002B0A2B4880ED000A1FEDF10A80ED010AC8
:100A9000BAEE030A80ED020A9FED260A264880ED91
:100AA000070A9FED260A80ED0D0A9FED250A80EDCD
:100AB000130A9FED240A80ED190ABFEE000A80EDAB
:100AC000060ABFEE000A80ED0C0AB7EE000A80EDC0
:100AD000120ABFEE000A80ED180A00201A49488465
:100AE000AFF66B0019494860AFF66F008860AFF64B
:100AF0006F00C860AFF673000861AFF6730048611D
:100B0000AFF677008861AFF67700C86120E000009B
:100B1000D8000020FC000020200100202C01002033
:100B2000CDCCEE4200006B433801002033F3844308
:100B3000440100208126A2BE50010020DB8A7D41B5
:100B4000423E074286380EC0B00200206C220020D0
:100B5000AFF6BF000862AFF6BF004862AFF6C30051
:100B60008862AFF6C300C8629FEDFE0AFE4880EDC2
:100B7000000A9FEDFC0A80ED010A9FEDFA0A80ED64
:100B8000020AB0EE080AF94880ED000AB0EE080A41
:100B900080ED010AB0EE080A80ED020A7047F0B558
:100BA0002DED108B85B0B0EE408AF0EE608AB0EE8D
:100BB000419A04460D4616469FEDED0A28EE000ABE
:100BC000DFEDEC0A80EE201AB0EE41AAB0EE4A0A40
:100BD0000EF0BEFB8DED040A38EE890A8DED030A96
:100BE0009DED030ADFEDE20A20EE200ADFEDE10AC7
:100BF00080EE201AB0EE41AAB0EE4A0A0EF0A8FB31
:100C0000F0EE409A9FEDDA0A28EE000ADFEDD90AED
:100C100080EE201AB0EE41AAB0EE4A0A0EF0A4FC13
:100C20008DED020A9FEDD20A28EE800ADFEDD10A8F
:100C300080EE201AB0EE41AAB0EE4A0A0EF088FB10
:100C40008DED010A38EE890A8DED000A9FEDC80A84
:100C500028EE000ADFEDC70A80EE201AB0EE41AAA6
:100C6000B0EE4A0A0EF074FB5FED500A20EE200A47
:100C700060EE29AA9FEDBE0A28EE000ADFEDBD0A4C
:100C800080EE201AB0EE41AAB0EE4A0A0EF06CFCDB
:100C9000FAEE030A40EEC0AA9FEDB50A28EE000A5C
:100CA000DFEDB40A80EE201AB0EE41AAB0EE4A0A97
:100CB0000EF04EFB5FED650A20EE20BA9FEDAC0A08
:100CC00028EE800ADFEDAB0A80EE201AB0EE41AAD2
:100CD000B0EE4A0A0EF03CFB4BEE00AA9FEDA40AD0
:100CE00028EE000ADFEDA30A80EE201AB0EE41AA3A
:100CF000B0EE4A0A0EF038FC5FED770A40EEC0AA6B
:100D0000C4ED00AA9FED9A0A28EE000ADFED990AC9
:100D100080EE201AB0EE41AAB0EE4A0A0EF024FC92
:100D20005FED7E0A20EE200A60EE29AA9FED900A70
:100D300028EE000ADFED8F0A80EE201AB0EE41AAFD
:100D4000B0EE4A0A0EF004FBFAEE030A40EE80AA67
:100D50009FED870A28EE000ADFED860A80EE201A52
:100D6000B0EE41AAB0EE4A0A0EF0FEFB5FED930A28
:100D700020EE20BA9FED7E0A28EE800ADFED7D0A84
:100D800080EE201AB0EE41AAB0EE4A0A0EF0E0FA68
:100D90004BEE00AA9FED760A28EE000ADFED750AF9
:100DA00080EE201AB0EE41AAB0EE4A0A0EF0D0FA58
:100DB0005FEDA50A40EE80AAC5ED00AA9FED6C0A82
:100DC00028EE800A10EE101A08460FF0D3FE41EC10
:100DD0001E0B9FED690B53EC102B0FF0B3FA41EC97
:100DE0001D0BB0EE4D0AF0EE6D0A0EF059FBB0EEA1
:100DF00040CAF0EE60CA9FED620B53EC102B51EC31
:100E00001C0B0FF08DFC41EC1A0B9DED000ADFED81
:100E1000580A20EE200ADFED570A80EE201A11EE64
:100E2000107A38460FF0A6FE41EC1D0BB0EE4D0ACD
:100E3000F0EE6D0A0EF034FBB0EE40CAF0EE60CA80
:100E40009FED510B53EC102B51EC1C0B0FF068FC79
:100E500041EC1B0B53EC1A2B0FF0A2FD41EC1F0BC6
:100E60000FF08AF93060002005B0BDEC108BF0BDAA
:100E700070B52DED028B0446B0EE408A0D4600267B
:100E800000EE104AB8EE400A04EB4400404901EB82
:100E9000C00080ED050A04EB440001EBC00080EDCA
:100EA000028A3C48007818B10120BDEC028B70BD6D
:100EB0000CB1042C01D90220F7E7B7EE000AB4EE1A
:100EC000C08AF1EE10FA01DD0320EEE71DB1012D1D
:100ED00001D00420E9E7E0B206F026FD0646A6B1FF
:100EE0004DB9D6ED480A70EE880AB0EE600AE0B25D
:100EF00008F07BF80BE0D6ED480A70EEC80AB0EEB9
:100F0000600AE0B208F071F801E00520CDE70020AA
:100F1000CBE72DE9F04706460F4690469946002458
:100F20000025012476E0204606F0FEFC0546C5B10A
:100F3000012C06D0022C32D0032C42D0042C64D1D8
:100F400051E095ED480A1248D0ED070A30EE600AEC
:100F5000F2EE040A20EE200AD0ED060A80EE201AF6
:100F60001AE054E0CDCCCC3DBC220020C8220020A9
:100F7000DC0F494000003443000000000080664060
:100F80000000000000606D4000000060669E70C0C0
:100F9000500100200200002086ED001A36E095ED99
:100FA000480AFE48D0ED0D0A30EE600AF2EE040A5F
:100FB00020EE200AD0ED0C0A80EE201A87ED001AF0
:100FC00024E095ED480AF548D0ED130A30EE600AAA
:100FD000F2EE040A20EE200AD0ED120A80EE201A6A
:100FE00088ED001A12E095ED480AEC48D0ED190A98
:100FF00030EE600AF2EE040A20EE200AD0ED180A64
:1010000080EE201A89ED001A00E000BF00E003E046
:10101000601CC4B2052C86DB00BF052C02D0012069
:10102000BDE8F0870020FBE710B586B0142101A8C9
:101030000DF04EF8FF208DF804008DF8050000201B
:101040008DF806000B208DF80700D548408C001263
:101050008DF80800D24890F822008DF80900D04899
:10106000808B032803D100208DF80A0004E0CC48CF
:1010700090F824008DF80A0001208DF80B00002064
:101080008DF80C0007210DF10600FFF739F9044631
:10109000200E8DF80D00200C8DF80E00200A8DF822
:1010A0000F00E0B28DF810000D2101A80AF0D9F868
:1010B0000020BB49487006B010BDF0B52DED028B85
:1010C00085B00024B7480078002871D00020B549C9
:1010D000087001240EE00021204606F03EFC00B915
:1010E00006E004F10A00C0B205B0BDEC028BF0BD11
:1010F000601CC4B2052CEEDB01240BE0002120466D
:1011000007F087FC00B903E004F11400C0B2EBE77C
:10111000601CC4B2052CF1DB012500BF2BE0A04808
:10112000801C405D012824D10027284606F0FCFBE6
:101130000746EFB197ED480A9948083000EB850063
:10114000D0ED000A30EE600A10EE101A08460FF0DB
:1011500011FD21F000419FED940B53EC102B0FF08B
:10116000A3FA05D200218E48801C4155FFF75CFF91
:1011700000BF681CC5B2052DD1DB01AB02AA03A9D3
:1011800004A8FFF7C6FE06461EB189A00CF0C6FEF5
:1011900059E004980FF0EEFC21F000419FED900B18
:1011A00053EC102B0FF080FA03D29FED8F0A02E070
:1011B0004AE09DED040A8DED040A03980FF0DAFC75
:1011C00021F000419FED860B53EC102B0FF06CFAD1
:1011D00002D29FED850A01E09DED030A8DED030A21
:1011E00002980FF0C7FC21F000419FED7D0B53ECFE
:1011F000102B0FF059FA02D29FED7B0A01E09DED12
:10120000020A8DED020A01980FF0B4FC21F00041B2
:101210009FED730B53EC102B0FF046FA02D29FEDAB
:10122000720A01E09DED010A8DED010A6F4A111F5E
:10123000081FDDED011A9DED021ADDED030A9DED9B
:10124000040AFFF7ACFC00BF00204DE770B52DEDA0
:10125000028B0446B0EE408AF0EE608A0025E0B2D0
:1012600006F062FB0546002D48D000EE104AB8EEAD
:10127000400A04EB4400494901EBC00080ED050A37
:1012800004EB440001EBC00080ED038A04EB440052
:1012900001EBC00090ED030ADFED550A80EE201A45
:1012A00004EB440001EBC00080ED021A04EB4400A3
:1012B00001EBC000C0ED048A012C06D0022C09D03D
:1012C000032C0CD0042C14D10EE0012149480CF061
:1012D000E3F80EE0012148480CF0DEF809E00121B6
:1012E00046480CF0D9F804E0012145480CF0D4F848
:1012F00000BF00BF0020BDEC028B70BD6420FAE788
:1013000010B52DED0C8BB0EE408AF0EE608AB0EE99
:10131000419AF0EE619AB0EE42AAF0EE62AAB0EE07
:1013200043BAF0EE63BAB2EE040AC8EE000A1B48F4
:1013300090ED061A90ED070A00EE810AB0EE40CA61
:10134000B2EE040AC8EE800A90ED0C1A90ED0D0A78
:1013500000EE810AF0EE40CAB2EE040AC9EE000ABD
:1013600090ED121A90ED130A00EE810AB0EE40DA09
:10137000B2EE040AC9EE800A90ED181A90ED190A2F
:1013800000EE810AF0EE40DAF0EE4C0AB0EE4A0AC6
:101390000120FFF75BFFF0EE6C0A33E05001002004
:1013A000B00200207E0000209A9999999999A93F4E
:1013B000206572726F72207768696C6520696E2093
:1013C00070726F63657373696E6720706F73697491
:1013D000696F6E20746F20616E676C650A00000093
:1013E0007B14AE47E17A843F0000000054220020C5
:1013F00000007A440004004000080040001C004047
:1014000000200040B0EE6A0A0220FFF71FFFF0EE56
:101410004D0AB0EE4B0A0320FFF718FFF0EE6D0AFD
:10142000B0EE6B0A0420FFF711FF0020BDEC0C8B1F
:1014300010BD2DE9F04F2DED108B9BB0F0EE40AAC2
:10144000B0EE608AF0EE41BA80460E4617469946E5
:101450001FED1B0A8DED190A1FED1D0A8DED180AEF
:101460001FED1F0A8DED170A1FED210A8DED160ADB
:1014700016AB17AA18A919A8FFF74BFD8346BBF1B5
:10148000000F08D0F9A00CF049FD01201BB0BDEC05
:10149000108BBDE8F08F9FEDFE0AF0EE408A6AEEF9
:1014A000AA0A48EE080A48EEE80AB0EE600A0EF012
:1014B00023F9B0EE40CA2CEE080A08EEEA0A6AEEFA
:1014C000AA0A48EE080A80EE201AF0EE41EA1EEE63
:1014D000900A0FF04FFB21F000419FEDEE0B53EC13
:1014E000102BCDE902019DED020B51EC100B0FF01A
:1014F00015FA01D20220C9E7B0EE6E0A0DF092FE95
:10150000B0EE409AB0EE490ADFEDE40A60EE200A40
:101510009FEDE31A80EE810ADFEDE00AB4EEE00A07
:10152000F1EE10FA04DD9FEDDF0A39EE400A07E024
:101530009FEDDA0A69EE000A9FEDD91A80EE810A62
:101540008DED120A9FEDD50A29EE000ADFEDD40ACF
:1015500080EE201A9FEDD10A30EE410ADFEDCF0A6E
:10156000B4EEE00AF1EE10FA10DD9FEDCC0A29EEA0
:10157000000ADFEDCB0A80EE201A9FEDC80A30EE9C
:10158000410ADFEDC80A30EE600A0BE09FEDC30AA6
:1015900069EE000A9FEDC21A80EE810ADFEDBF0AF4
:1015A00030EEC00A8DED130AB1EE4C0AB0EE40CA1F
:1015B0002CEE080A08EEEA0A6AEEAA0A48EE080AC1
:1015C00080EE201AF0EE41EAB0EE6E0A0DF02AFE2F
:1015D000B0EE409A9FEDB10A69EE000A9FEDB01A95
:1015E00080EE810ADFEDAD0AB4EEE00AF1EE10FA0A
:1015F00004DD9FEDAC0A39EE400A07E09FEDA70A33
:1016000069EE000A9FEDA61A80EE810A8DED140A9C
:101610009FEDA20A29EE000ADFEDA10A80EE201A52
:101620009FED9E0A30EE410ADFED9C0AB4EEE00A1F
:10163000F1EE10FA10DD9FED990A69EE000A9FEDB8
:10164000981A80EE810ADFED950A30EEC00ADFEDD0
:10165000950A30EE600A0BE09FED900A29EE000A31
:101660009FED8F1AC0EE010A9FED8C0A30EE600AE2
:101670008DED150A012401259FED8BDA00BF3FE0B7
:101680001DEE100A0FF076FACDE9020111A800EB69
:10169000840090ED000ADDED190A30EEC00A10EE6C
:1016A000101A08460FF066FA21F00041CDE900015A
:1016B0009DED020B53EC102B9DED000B51EC100B2C
:1016C0000EF0F2FF1AD2254611A800EB840090ED2F
:1016D000000ADDED190A30EEC00A10EE101A0846B5
:1016E0000FF048FA21F00041CDE902019DED020B17
:1016F00051EC100B0EF040FD0DEE100A601CC4B250
:10170000052CBDDB11A800EB850090ED00FA2AEE58
:10171000AA0A08EE080A08EEE80AB5EEC00AF1EED9
:1017200010FA01D20320B1E6012D01D0022D0CD117
:101730006AEEAA0A48EE080A48EEE80AB0EE600A25
:101740000DF0DAFFB0EE40CA0DE06AEEAA0A48EEEC
:10175000080A48EEE80AB0EE600A0DF0CDFFB1EEDF
:10176000400AB0EE40CA88ED00FA2AEEAA0A08EE56
:10177000080A0BEEAB0A08EEE80ADFED4C0A30EE81
:10178000600ADFED4B0A30EE600AB0EE001AC0EEE0
:10179000010A9FED481A80EE810A9FED471AC0EEBC
:1017A000010A10EE90AA50460FF0E4F921F0004132
:1017B0009FED380B53EC102BCDE902019DED020B90
:1017C00051EC100B0FF0AAF801D204205EE62AEECD
:1017D000AA0A08EE080A0BEEAB0A08EEE80ADFEDEB
:1017E000330A30EE600ADFED320A70EE600AB0EEC6
:1017F000001A80EE810A9FED2F1AC0EE010A9FEDBC
:101800002E0A80EE801AF0EE41FAB0EE6F0A0DF06B
:101810007DFCB0EE40BAB0EE4B0ADFED200A20EEC0
:10182000200ADFED1F0A80EE201A8DED0F1AB0EEB0
:101830004B0ADFED1A0A60EE200A9FED191A80EEBE
:10184000810ADFED160A30EE200ADFED140AB4EE4D
:10185000E00AF1EE10FA34DD9FED100A2BEE000ADB
:10186000DFED0F0A80EE201A28E00000706F736928
:1018700074696F6E20746F20616E676C65206361A0
:101880006C63756C617465206572726F720A00001A
:10189000CDCCDB42000000000000F03F00003443EC
:1018A000DC0F49400000B4430000B94300B957477A
:1018B00067178A4700006B4333F38443B1EE410A54
:1018C0000BE01FED0A0A6BEE000A1FED0B1A80EE0B
:1018D000810A5FED0E0A30EE200A8DED100ADDED73
:1018E000100A9DED170A30EE600A10EE101A084635
:1018F0000FF040F921F00041CDE902019DED0F0A02
:10190000DDED170A30EEC00A10EE101A08460FF08F
:1019100031F921F00041CDE900019DED020B53ECBE
:10192000102B9DED000B51EC100B0EF0BDFE02D202
:101930009DED0F0A01E09DED100AB0EE40BA87ED73
:1019400000BA1FED290A2BEE000A5FED2C0A80EE8B
:10195000201A8DED031A9DED030A0DF0F9FCDFED61
:10196000FD0A9FEDFD1A41EE000AF0EE60FAB0EEBE
:101970006F0A0DF0C1FEF0EE40CA8CEE2C0A10EE9C
:1019800010AA50460FF0F6F821F000411FED3F0B72
:1019900053EC102BCDE902019DED020B51EC100B25
:1019A0000EF0BCFF29D31FED420A2BEE000A5FEDBB
:1019B000450A80EE201AF0EE41FAB0EE6F0A0DF003
:1019C000C7FC5FED440A1FED441A41EE000A80EEA9
:1019D000AC0A10EE10AA50460FF0CCF821F00041EE
:1019E0001FED540B53EC102BCDE902019DED020BC2
:1019F00051EC100B0EF092FF01D2052046E58CEE63
:101A00002C0AF0EE40FA0DF081FBB0EE40AA1FED7B
:101A10005C0A2BEE000A5FED5F0A80EE201AF0EE02
:101A200041FAB0EE6F0A0DF093FC5FED5E0A1FED18
:101A30005E1A41EE000A80EEAC0A8DED030A9DEDC0
:101A4000030A0DF063FBF0EE409AB0EE690A3AEE3D
:101A5000400A5FED6D0AB4EEE00AF1EE10FA06DD21
:101A60003AEE690ADFEDBD0A30EE600A01E03AEEB7
:101A7000690A8DED0A0A3AEE290A5FED770AB4EE9B
:101A8000E00AF1EE10FA06DD3AEE290ADFEDB30ABC
:101A900030EE600A01E03AEE290A8DED0B0AB1EE54
:101AA0004A0A30EE690A5FED820AB4EEE00AF1EE0E
:101AB00010FA08DDB1EE4A0A30EE690ADFEDA70A36
:101AC00030EE600A03E0B1EE4A0A30EE690A8DEDAD
:101AD0000C0AB1EE4A0A30EE290A5FED8F0AB4EE25
:101AE000E00AF1EE10FA08DDB1EE4A0A30EE290AFA
:101AF000DFED9A0A30EE600A03E0B1EE4A0A30EEFA
:101B0000290A8DED0D0A5FED98DA01244FE01DEEF4
:101B1000900A0FF02FF8CDE9020109A800EB84002C
:101B200090ED000A5FEDA30A60EE200A1FEDA41AF3
:101B300080EE810ADDED180A30EEC00A10EE10AA20
:101B400050460FF017F821F00041CDE900019DED5E
:101B5000020B53EC102B9DED000B51EC100B0EF013
:101B6000A3FD22D2254609A800EB840090ED000ACF
:101B70005FEDB60A20EE201A5FEDB70A81EE200A6B
:101B8000DDED180A30EEC00A10EE10AA50460EF035
:101B9000F1FF21F00041CDE902019DED020B51EC76
:101BA000100B0EF0E9FA0DEE900A601CC4B2052C81
:101BB000ADDB09A800EB850090ED000A5FEDC90AD6
:101BC00020EE200A5FEDCA0A80EE201A86ED001A88
:101BD00096ED000ADFED620A30EEC00AD7ED000A8A
:101BE00030EE600A8DED050A96ED000A5FEDD50A2C
:101BF00030EEC00AD7ED000A30EE600A8DED060A1D
:101C000096ED000A5FEDD90A30EEC00AD7ED000A62
:101C100030EE600A8DED070A1FEDDDEA01243FE09A
:101C20001EEE100A0EF0A6FFCDE9020104A800EB9B
:101C3000840090ED000ADDED160A30EEC00A10EEC9
:101C4000101A08460EF096FF21F00041CDE9000180
:101C50009DED020B53EC102B9DED000B51EC100B86
:101C60000EF022FD1AD2254604A800EB840090ED68
:101C7000000ADDED160A30EEC00A10EE101A084612
:101C80000EF078FF21F00041CDE902019DED020B3D
:101C900051EC100B0EF070FA0EEE100A601CC4B27C
:101CA000042CBDDB04A800EB850090ED000A89ED53
:101CB000000A00BF00201EE42DE9F04792B0294839
:101CC000808C052806D006287ED007287DD00828DD
:101CD0007CD1D7E2342105A80CF0FAF9FF208DF869
:101CE00014008DF8150000208DF816001D48807F27
:101CF000401F00EB80000930C0B28DF81700194872
:101D0000408C00128DF81800164890F822008DF8CB
:101D1000190005208DF81A000DF11B044FF0000882
:101D2000104890F82660002505E006F0010008B193
:101D3000681CC5B27610002EF7DC0A48C08B401F25
:101D4000A84211D0AFF2C0400CF0E8F812B0BDE8E4
:101D5000F0870000E7F3F5478016F447DC0FC94031
:101D600000000000B00200200025FE4890F8266028
:101D700004AB03AA02A901A8FFF7CBF8A84656E0D6
:101D800009E006F0010018B1681CC5B2761004E045
:101D9000681CC5B27610002EF3DC00BF04F8015BAE
:101DA000684600EB850090ED000ADFEDEF0A20EEBB
:101DB000200ABDEEC00A10EE100A000E04F8010B56
:101DC000684600EB850002E058E033E159E290ED0F
:101DD000000ADFEDE50A20EE200ABDEEC00A10EE93
:101DE000100A000C04F8010B684600EB850090ED2A
:101DF000000ADFEDDD0A20EE200ABDEEC00A10EE7B
:101E0000100A000A04F8010B684600EB850090ED0B
:101E1000000ADFEDD50A20EE200ABDEEC00A10EE62
:101E2000100A04F8010B08F1010000F0FF08CD488A
:101E3000C08B401F4045A3DCCA48C08B401F00EB4D
:101E40008000401D81B20DF11600FEF759FA0746D9
:101E5000380E04F8010B380C04F8010B380A04F8AA
:101E6000010B04F8017BBF48C08B401F00EB8000D2
:101E70000B3081B205A809F0F4F99FE2342105A8DE
:101E80000CF026F9FF208DF814008DF815000020C5
:101E90008DF81600B348807F401F00EB80000930AA
:101EA000C0B28DF81700AF48408C00128DF81800B2
:101EB000AC4890F822008DF8190006208DF81A0021
:101EC0000DF11B044FF0000AA64890F8266000258B
:101ED00005E006F0010008B1681CC5B27610002EBE
:101EE000F7DCA048C08B401FA84204D0AFF2686066
:101EF0000CF014F82AE700259A4890F82660A846C6
:101F0000A9464FF0010815E0404605F00DFD814659
:101F1000B9F1000F0AD099ED470AF1EE080A80EEF8
:101F2000201A684600EB880080ED001A08F10100D5
:101F300000F0FF08B8F1050FE6DB4FF0000A52E0B1
:101F400009E006F0010018B1681CC5B2761004E083
:101F5000681CC5B27610002EF3DC00BF04F8015BEC
:101F6000684600EB850090ED000ADFED7F0A20EE69
:101F7000200ABDEEC00A10EE100A000E04F8010B94
:101F8000684600EB850090ED000ADFED770A20EE51
:101F9000200ABDEEC00A10EE100A000C04F8010B76
:101FA000684600EB850090ED000ADFED6F0A20EE39
:101FB000200ABDEEC00A10EE100A000A04F8010B58
:101FC000684600EB850090ED000ADFED670A20EE21
:101FD000200ABDEEC00A10EE100A04F8010B0AF147
:101FE000010000F0FF0A5F48C08B401F5045A7DC8E
:101FF0005C48C08B401F00EB8000401D81B20DF19A
:102000001600FEF77DF90746380E04F8010B380C70
:1020100004F8010B380A04F8010B04F8017B51485D
:10202000C08B401F00EB80000B3081B205A809F087
:1020300018F9C3E1342105A80CF04AF8FF208DF807
:1020400014008DF8150000208DF8160021208DF861
:1020500017004448408C00128DF81800414890F851
:1020600022008DF8190007208DF81A000DF11B04CD
:10207000142168460CF02CF804AB03AA02A901A8AD
:10208000FEF747FF002004F8010B04F8010B04F8E9
:10209000010B04F8010B9DED020ADDED030A30EEA1
:1020A000200ADDED040A30EE200ADFED2F0A20EED3
:1020B000200ABDEEC00A10EE105A280E04F8010BDB
:1020C000280C04F8010B280A04F8010B04F8015B42
:1020D0009DED010ADFED240A20EE200ABDEEC00AC4
:1020E00010EE106A300E04F8010B300C04F8010BEE
:1020F000300A04F8010B04F8016B1C4890ED000A4B
:10210000DFED1B0A20EE200ABDEEC00A10EE100A19
:10211000000E04F8010B154890ED000ADFED140ADB
:1021200020EE200ABDEEC00A10EE100A000C04F8E2
:10213000010B0E4890ED000ADFED0D0A20EE200A9B
:10214000BDEEC00A10EE100A000A04F8010B0748A1
:1021500090ED000ADFED060A20EE200ABDEEC00A6F
:1021600008E00000B002002000401C464C22002085
:102170000000C84210EE100A04F8010BFC4890ED74
:10218000010A5FED050A20EE200ABDEEC00A10EE3E
:10219000100A000E04F8010BF54890ED010A5FEDFE
:1021A0000C0A20EE200ABDEEC00A10EE100A000C48
:1021B00004F8010BEE4890ED010A5FED130A20EEE2
:1021C000200ABDEEC00A10EE100A000A04F8010B46
:1021D000E74890ED010A5FED1A0A20EE200ABDEEF5
:1021E000C00A10EE100A04F8010BE14890ED020A53
:1021F0005FED210A20EE200ABDEEC00A10EE100AA3
:10220000000E04F8010BDA4890ED020A5FED280A8F
:1022100020EE200ABDEEC00A10EE100A000C04F8F1
:10222000010BD34890ED020A5FED2F0A20EE200A41
:10223000BDEEC00A10EE100A000A04F8010BCC48EB
:1022400090ED020A5FED360A20EE200ABDEEC00ACC
:1022500010EE100A04F8010B1D210DF11600FEF717
:102260004FF80746380E04F8010B380C04F8010B40
:10227000380A04F8010B04F8017B232105A808F0B3
:10228000F0FF9BE0342105A80BF022FFFF208DF822
:1022900014008DF8150000208DF81600B548807FD9
:1022A000001DC0B28DF81700B248408C00128DF8A6
:1022B0001800B04890F822008DF8190008208DF819
:1022C0001A000DF11B044FF0000AAA4890F826509E
:1022D000002705E005F0010008B1781CC7B26D10B9
:1022E000002DF7DCA348C08B401FB84204D0AFF6E6
:1022F00068200BF013FE29E500279E4890F8265031
:10230000B846B9464FF0010815E0404605F00CFB11
:102310008146B9F1000F0AD0B9F8080100EE100AA1
:10232000B8EE400A684600EB880080ED000A08F12C
:10233000010000F0FF08B8F1050FE6DB4FF0000ADE
:102340001CE009E005F0010018B1781CC7B26D105F
:1023500004E0781CC7B26D10002DF3DC00BF6846A6
:1023600000EB870090ED000ABDEEC00A10EE100AE7
:1023700004F8010B0AF1010000F0FF0A7D48C08B50
:10238000401F5045DDDC7B48C08B81B20DF116004B
:10239000FDF7B6FF0646300E04F8010B300C04F8CA
:1023A000010B300A04F8010B04F8016B7148C08B73
:1023B000801D81B205A808F054FF00BF00BF00BF18
:1023C000C4E47FB50546032D3AD10020009001906A
:1023D00002900390FF208DF800008DF8010000208E
:1023E0008DF802000B208DF803006248408C00122B
:1023F0008DF804005F4890F822008DF80500002059
:102400008DF806008DF807008DF8080007210DF102
:102410000200FDF775FF0446200E8DF80900200C20
:102420008DF80A00200A8DF80B00E0B28DF80C0040
:102430000D21684608F015FF01204E49487000BF85
:1024400000BF7FBD10B586B0142101A80BF040FE7F
:10245000FF208DF804008DF8050000208DF806009F
:102460000B208DF807004348408C00128DF80800BF
:10247000404890F822008DF809003E48808B0328E0
:1024800003D100208DF80A0004E03A4890F82400B7
:102490008DF80A0001208DF80B008DF80C00072143
:1024A0000DF10600FDF72CFF0446200E8DF80D00FF
:1024B000200C8DF80E00200A8DF80F00E0B28DF888
:1024C00010000D2101A808F0CCFE00202949487019
:1024D00006B010BD00B5BFB020E027480068007806
:1024E000FF2806D12448006840680078FF2800D102
:1024F00015E02148006821490968884202D101207D
:102500003FB000BD00201C49096808701A490968DD
:10251000487019480068416817480160DDE700BF4E
:10252000154800680078FF2840F0A387124800682B
:1025300040680078FF28F7D101200E49087000207C
:1025400025900D49096808700B49096848700A48C8
:10255000006840680849086000200968087006495A
:1025600009684870044800684068034908601DE035
:102570004C220020B0020020200000202400002077
:1025800000202190022008F07BFD2199481C219019
:1025900028290ADD0020FE4909684870FC480068C7
:1025A0004168FB4801600220AAE700BFF8480068C4
:1025B00040780028E4D0F648006802782598411C4D
:1025C000C9B2259126A90A540020F149096848702A
:1025D000EF4800684068EE49086015E0002021904F
:1025E000022008F04DFD2199481C219028290ADD80
:1025F0000020E74909684870E54800684068E449F8
:10260000086002207CE700BFE148006840780028AD
:10261000E4D0DF48006802782598411CC9B22591B2
:1026200026A90A540020DA4909684870D848006889
:102630004068D74908609DF899009DF8981040EAD5
:1026400001202490249806280DDA0021D048006843
:102650004170CF4800684068CD490860CDA00BF0BC
:102660005DFC03204CE72EE00020219013E00220C7
:1026700008F006FD2198411C89B221913C280ADD11
:102680000020C34909684870C14800684068C049D3
:102690000860022034E7BE48006840780028E6D091
:1026A000BB480068017826AA259811540021B84833
:1026B00000684170B64800684068B54908602598D0
:1026C000401CC0B22590DDE924108842CCDB249860
:1026D000001F80B20146219026A8FDF711FE23902D
:1026E000B1A023990BF01AFC2498001F26A9085CBE
:1026F00001062498C01E26AA105C41EA00412498D5
:10270000801E105C41EA00212498401E105C0843A2
:102710002290DDE92210884204D0A7A00BF0FEFB36
:102720000420EDE60020A74908702498001FC88304
:102730009DF89A0040EA002048849DF89C10A1482A
:102740008184808C012803DB9E48808C04280FDD67
:102750009C48808C0A280BD09A48808C0B2807D084
:102760009848808C0C2803D09648808C0D287DD109
:102770009448808C0146219093A00BF0CFFB03205E
:10278000904988830020C8840846808C0E284AD24D
:10279000DFE810F049009301E9013F02E30449003A
:1027A00049004900490049000E004A007C00CC0065
:1027B0000DF19D00219000202090209024E0219890
:1027C0000078012819D17F48C08C012220998A40C5
:1027D00010437C49C8842098401C04280DDC2098B4
:1027E000401CC0B21F9006F0ACFA2098401CC0B24A
:1027F000012206211F9006F05EFB2198401C2190CB
:102800002098401CC0B220906E48C08B401F209979
:102810008842D4DC6B48C08C0F2802DD73A00BF01B
:102820007DFBFEF701FCFCE30DF19D0021900020F3
:102830002090FF206349C884002020901DE021984B
:10284000007888B95F48C08C002220998A401040E7
:102850005C49C8842098401C042805DC2098401C52
:10286000C0B21F9006F0DFFA219800E0FEE3401CA2
:1028700021902098401CC0B220905248C08B401F2D
:1028800020998842DBDCFEF7CFFBCCE70DF19D0001
:10289000219000202090FF204A49C88400202090E9
:1028A0003BE02198007888BB4648C08C00222099E4
:1028B0008A4010404349C8842098401C042825DCE5
:1028C0002098401CC0B29FED570A1F9006F0CDFF24
:1028D0002098401CC0B2012206211F9006F0EBFA9E
:1028E000002151480AF0D8FD504890ED000A3548C3
:1028F00080ED0F0A4D4890ED010A324880ED100A34
:102900004A4890ED020A2F4880ED110A2198401C98
:1029100021902098401CC0B220902A48C08B401FB4
:1029200020998842BDDCFEF77FFB7CE79DF89D0087
:1029300021902198042803DD3DA00BF0EFFABBE0C5
:102940003FA00BF0EBFA002020909DF89E000006BF
:102950009DF89F1040EA01409DF8A01040EA012038
:102960009DF8A1100843209000201F90219804F0AA
:10297000DBFF1F901F9848B101221249891C219842
:102980000A549DED200AB8EEC00A65E093E000000D
:102990002000002064617461206C656E677468209B
:1029A0006572726F720A000043524320726573753C
:1029B0006C74202025780A00637263206572726F40
:1029C000720A0000B0020020636F6E74726F6C2098
:1029D0006672616D652C2066756E6374696F6E201A
:1029E000636F6465202025640A0000007761726EC1
:1029F000696E6720746F6F206D756368206D6F74EA
:102A00006F722C20656E61626C65203120746F20BE
:102A100034206D6F746F7220616C72656164790A25
:102A20000000000000000000001000404C220020C8
:102A30006D6F746F72206964206572726F720A0024
:102A400072656C20706F736974696F6E2C20636D92
:102A50006431330A000000009FEDFE1AC0EE010A47
:102A60001F9890ED480A30EE800A881D219900EBEE
:102A7000810080ED000A9DED200AF8EEC00A9FED6E
:102A8000F51A80EE810A1F98D0ED480A30EE200A30
:102A90008DED1E0A9DED1E0A219806F0A6FA20B1C2
:102AA0000022ED482199425405E0EB48801E007F4A
:102AB0001E90FFF786FC00BFB5E69DF89D002190B3
:102AC0002198042804DDAFF298000BF027FA49E0C2
:102AD000E2A00BF023FA002020909DF89E00000653
:102AE0009DF89F1040EA01409DF8A01040EA0120A7
:102AF0009DF8A1100843209000201F90219804F019
:102B000013FF1F901F9828B30122D34821994254E4
:102B10009DED200AB8EEC00ADFEDCE0A80EE201A45
:102B2000801D219900EB810080ED001A9DED200AA7
:102B3000F8EEC00A9FEDC71A80EE810A8DED1E0ADD
:102B40009DED1E0A219806F050FA20B10022C248DD
:102B50002199425405E0C048801E007F1E90FFF777
:102B600030FC00BF5DE2C2A00BF0D8F9002021903C
:102B70009DF89E0000069DF89F1040EA01409DF8D8
:102B8000A01040EA01209DF8A110084321909DF873
:102B90009D002090209801283ADB2098042837DCFB
:102BA00001220221209806F086F99DED210AF8EE17
:102BB000C00A9FEDA81A80EE810A8DED1F0A1F98AA
:102BC0000DF0D8FF21F000419FEDAE0B53EC102B20
:102BD000CDE91C019DED1C0B51EC100B0DF064FDBB
:102BE00015D29DED1F0AF1EE080A20EE200A8DEDA8
:102BF0001E0A9DED1E0A209806F037FE38B9964849
:102C0000801E007F1E90FFF7DCFBFEF70DFA00BF71
:102C1000B1E39EA00BF082F99DF89E0000069DF89E
:102C20009F1040EA01409DF8A01040EA01209DF865
:102C3000A110084321909DED210AF8EEC00A9FEDF6
:102C40009B1A80EE810A8DED200A9DF89D001F9051
:102C50001F98062861D2DFE800F00361BFFBFAF994
:102C6000002193480AF018FC924890ED000A7A4837
:102C7000801E80ED0F0A20980DF07CFF21F00041AE
:102C8000CDE91A018B48406817900DF073FFCDE92C
:102C900018019DED1A0B53EC102B9DED180B51EC08
:102CA000100B0DF09BFACDE91C019DED1C0B51ECB6
:102CB000100B0DF061FA6849891E08647D4890ED9B
:102CC000020A084680ED110A406C17900DF052FF81
:102CD000CDE91C016048801E006C17900DF04AFF82
:102CE000CDE91A015C48801EC06B17900DF042FFC1
:102CF000CDE91801DDE91C01CDE90201DDE91A0188
:102D0000CDE900019DED180B53EC102B6AA00BF0E0
:102D100005F9012166480AF0BFFB17E2002164486B
:102D20000AF0BAFB634890ED000A4B48801E80ED24
:102D30000F0A20980DF01EFF21F00041CDE91A0185
:102D40005C48406817900DF015FFCDE918019DED26
:102D50001A0B53EC102B9DED180B51EC100B0DF0D2
:102D60001FFECDE91C019DED1C0B51EC100B0DF06D
:102D700003FA3949891E08644E4890ED020A084654
:102D800080ED110A406C17900DF0F4FECDE91C01A6
:102D90003148801E006C17900DF0ECFECDE91A0151
:102DA0002D48801EC06B17900DF0E4FECDE9180190
:102DB000DDE91C01CDE90201DDE91A01CDE90001DF
:102DC0009DED180B53EC102B3BA00BF0A7F8012145
:102DD00037480AF061FBB9E1002135480AF05CFB95
:102DE00020980DF0C7FE21F00041CDE91A013148CD
:102DF000006817900DF0BEFECDE918019DED1A0B8D
:102E000053EC102B9DED180B51EC100B0DF0C8FD81
:102E1000CDE91C019DED1C0B51EC100B0DF0ACF934
:102E20000D49891EC863234890ED010A084680EDCC
:102E3000100A204890ED020A084680ED110A406C05
:102E400017900DF097FECDE91C0145E022E1C1E0AD
:102E500065E0000000401C46B20200206162732061
:102E6000706F736974696F6E2C20636D64310A0032
:102E7000636D6420322C20737065656420636D641B
:102E80000A0000000000000000002440636D642080
:102E9000332C2072656C617469766520706F73697C
:102EA00074696F6E20636D640A0000000000C84200
:102EB000001000404C22002074617267657420701D
:102EC0006F736974696F6E2069732025662C2025E5
:102ED000662C2025660A0000FE48006C17900DF055
:102EE00049FECDE91A01FB48C06B17900DF042FE78
:102EF000CDE91801DDE91C01CDE90201DDE91A0186
:102F0000CDE900019DED180B53EC102BAFF25800EA
:102F10000BF004F80121F0480AF0BEFA16E1002196
:102F2000ED480AF0B9FA20980DF024FE21F0004196
:102F3000CDE91A01E948006817900DF01BFECDE9B4
:102F400018019DED1A0B53EC102B9DED180B51EC55
:102F5000100B0DF043F9CDE91C019DED1C0B51EC5C
:102F6000100B0DF009F9DB49C863DC4890ED010A4C
:102F7000084680ED100AD94890ED020A084680ED17
:102F8000110A406C17900DF0F5FDCDE91C01D148F8
:102F9000006C17900DF0EEFDCDE91A01CD48C06B25
:102FA00017900DF0E7FDCDE91801DDE91C01CDE931
:102FB0000201DDE91A01CDE900019DED180B53EC8A
:102FC000102BAFF20C100AF0A9FF0121C2480AF041
:102FD00063FABBE00021C0480AF05EFABF4890EDFA
:102FE000000ABC4880ED0F0ABC4890ED010AB948C0
:102FF00080ED100A20980DF0BDFD21F00041CDE9D3
:103000001A01B648806817900DF0B4FDCDE918019B
:103010009DED1A0B53EC102B9DED180B51EC100B82
:1030200000E0A8E10DF0DAF8CDE91C019DED1C0BE4
:1030300051EC100B0DF0A0F8A64948640846406C0E
:1030400017900DF097FDCDE91C01A248006C179078
:103050000DF090FDCDE91A019E48C06B17900DF060
:1030600089FDCDE91801DDE91C0100E084E1CDE92D
:103070000201DDE91A01CDE900019DED180B53ECC9
:10308000102BAFF2CC100AF049FF012192480AF050
:1030900003FA5BE0002190480AF0FEF98F4890EDBA
:1030A000000A8C4880ED0F0A8C4890ED010A89488F
:1030B00080ED100A20980DF05DFD21F00041CDE972
:1030C0001A018648806817900DF054FDCDE918016B
:1030D0009DED1A0B53EC102B9DED180B51EC100BC2
:1030E0000DF05EFCCDE91C019DED1C0B51EC100BAD
:1030F0000DF042F8774948640846406C17900DF08F
:1031000039FDCDE91C017348006C17900DF032FDBC
:10311000CDE91A016F48C06B17900DF02BFDCDE97A
:103120001801DDE91C01CDE90201DDE91A01CDE953
:1031300000019DED180B53EC102BAFF284200AF028
:10314000EDFE012164480AF0A7F900BF00BF614805
:10315000007F1E90FFF735F90DE161A00AF0DEFE59
:1031600000215D480AF098F99DF89D0000069DF841
:103170009E1040EA01409DF89F1040EA01209DF812
:10318000A010084321909DF8A10000069DF8A21010
:1031900040EA01409DF8A31040EA01209DF8A410E8
:1031A000084320909DF8A50001069DF8A60041EA7D
:1031B00000409DF8A71040EA01209DF8A8100843A0
:1031C0001F909DF8A90001069DF8AA0041EA004061
:1031D0009DF8AB1040EA01209DF8AC1008431E900A
:1031E0009DF8AD0000069DF8AE1040EA01409DF844
:1031F000AF1040EA01209DF8B01008431D909DF8E3
:10320000B10001069DF8B20041EA00419DF8B3000B
:1032100041EA00209DF8B41008431C909DED210A5E
:10322000F8EEC00A1FEDF51A80EE810A8DED1B0A3B
:103230009DED200AF8EEC00A1FEDFA1A80EE810A11
:103240008DED1A0A9DED1F0AF8EEC00A9FED2A1AAD
:1032500080EE810A8DED190A9DED1E0AF8EEC00A76
:103260001FEDEE1A80EE810A8DED180A9DED1D0A04
:10327000F8EEC00A1FEDF31A80EE810A8DED170AF1
:103280009DED1C0AF8EEC00A1FEDF81A80EE810AC7
:103290008DED160A9DED180A0E4880ED0F0A9DED82
:1032A000170A80ED100A9DED160A80ED110A9DEDBA
:1032B0001B0A80ED0C0A9DED1A0A80ED0D0A9DEDAA
:1032C000190A80ED0E0A16980DF054FCCDE9140190
:1032D000179813E0B0020020001000404C2200209C
:1032E000636D64342C2061627320706F736974693C
:1032F0006F6E20636D640A0000401C460DF03AFCBE
:10330000CDE9120118980DF035FCCDE9100119989E
:103310000DF030FCCDE90E011A980DF02BFCCDE933
:103320000C011B980DF026FCCDE90A01DDE9140122
:10333000CDE90801DDE91201CDE90601DDE9100161
:10334000CDE90401DDE90E01CDE90201DDE90C0161
:10335000CDE900019DED0A0B53EC102BE1A00AF022
:10336000DDFD0121E5480AF097F8E548007F15905A
:10337000FFF727F800BF00BFE148808C052831DB4C
:10338000DF48808C08282DDCDD48808C01461F90AA
:10339000DCA00AF0C3FD0DF19D00219000202090DB
:1033A000D749C884209011E0D548C08C219909786C
:1033B000491E01228A40104381B2D148C18421981C
:1033C000401C21902098401CC0B22090CC48C08B5B
:1033D000401F20998842E7DC0120C9498883FEF715
:1033E0006BFC00BFC648808C092809D1C448808C7A
:1033F00001462190CBA00AF091FD0221C0488183B3
:103400002498062832D1BE48808C01461D90CDA05C
:103410000AF084FD0020BA4988831F9020902190F3
:10342000FF208DF87C008DF87D0000208DF87E0057
:1034300006208DF87F0002210DF17E00FCF760FF71
:103440001E901E98000E8DF880001E98000C8DF8BE
:1034500081001E98000A8DF882001E98C0B28DF877
:1034600083000D211FA807F0FCFE00BF0020FFF71E
:1034700047B80020BC4909680870BB490968487012
:10348000B94800684068B84908600020EFE710B507
:10349000B6A00AF043FDBEA00AF040FDC5A00AF0A8
:1034A0003DFDCDA00AF03AFDD5A00AF037FDDDA024
:1034B0000AF034FDE3A00AF031FDEAA00AF02EFD87
:1034C000EFA00AF02BFD10BD11B59DB01D9833285B
:1034D00083F0C281DFE810F0C01933003D004A00DC
:1034E000510058005F00C019C019C019680074006D
:1034F0007A009200AA00AB00B200B900C000C70079
:10350000CE00D500DC00E300EB00F3009C02AF022C
:10351000C202D502E802FB020E0321033403470373
:103520005A036D033F0443054E06A508A80A700C14
:103530004D0E2010F911C013A915BC15C817D7A03E
:103540000AF0ECFC04F0A6F8D9A00AF0E7FC03F0BE
:1035500086B9DBA00AF0E2FC04F0A8F84FF4FA7098
:1035600007F0D6FDDAA00AF0D9FCF0E7DDA00AF0FA
:10357000D5FCE2A00AF0D2FCE9E7E6A00AF0CEFC16
:10358000EBA00AF0CBFCE2E7EFA00AF0C7FCF5A045
:103590000AF0C4FCDBE7F9A00AF0C0FC05F07AFCF5
:1035A000FBA00AF0BBFCD2E7FEA00AF0B7FC04F0D7
:1035B00071F804F07BF84FF47A7007F0A9FDC6E7C4
:1035C000FBA00AF0ABFC05F065FCC0E7FBA00AF02D
:1035D000A5FC01220621104605F06DFC0122062102
:1035E000022005F068FC01220621032005F063FC9F
:1035F00001220621042005F05EFCA8E7F8A00AF0ED
:103600008DFC01220321104605F055FC0122032107
:10361000022005F050FC01220321084605F04BFC76
:1036200001220321042005F046FC90E78FE70021EA
:103630009FEDF30A0420FDF71BFC88E701219FEDB5
:10364000F00A0420FDF714FC81E700219FEDEC0A4D
:103650000320FDF70DFC7AE701219FEDE90A032025
:10366000FDF706FC73E700219FEDE50A0220FDF758
:10367000FFFB6CE701219FEDE20A0220FDF7F8FB5A
:1036800065E700219FEDDE0A0120FDF7F1FB5EE713
:1036900001219FEDDB0A0846FDF7EAFB57E7DFED66
:1036A000D90A9FEDD90A0420FDF7D0FD4FE7DFEDE1
:1036B000D70A9FEDD50A0420FDF7C8FD47E7DFEDE7
:1036C000D33A9FEDD23ADFEDD12AB2EE042ADFEDF4
:1036D000CF1A9FEDCE1ADFEDCD0AB2EE040AFDF748
:1036E0000FFE34E725662C2025662C2025662C202D
:1036F00025662C2025662C2025660A000010004037
:10370000B002002072656164206672616D652C20D4
:1037100066756E6374696F6E20636F646520202523
:10372000640A0000736574206672616D652C206602
:10373000756E6374696F6E20636F64652020256405
:103740000A000000686561727462656174206672C7
:10375000616D652C2066756E6374696F6E20636F92
:103760006465202025640A00200000200D0ABBB6F5
:10377000D3ADCAB9D3C320494E4E464F532053430D
:103780004120C7FDB6AFB2E2CAD4A3A10D0A000022
:10379000CFEACFB8CDA8D0C5D0ADD2E9B2CEBCFB70
:1037A00020494E4E464F532057494B4920A3A10D67
:1037B0000A000000B7A2CBCD203120C2D6D1AFD7AE
:1037C000DCCFDFC9CFB5C4D6B4D0D0C6F7494420CA
:1037D000A3A10D0A00000000B7A2CBCD203220CA61
:1037E000B9D3C3C4ACC8CF4944B3F5CABCBBAF530B
:1037F0004341BFD8D6C6C6F720A3A10D0A000000DA
:10380000B7A2CBCD203320BDF8C8EBCEBBD6C3B911
:10381000E9C1E3B2E2CAD4B3CCD0F220A3A10D0A2D
:1038200000000000B7A2CBCD203420BDF8C8EBD5F6
:10383000FDB7B4D7AAB2E2CAD4B3CCD0F220A3A1C8
:103840000D0A0000B7A2CBCD203520BDF8C8EBB8DB
:10385000DFB5CDCBD9B2E2CAD4B3CCD0F220A3A18C
:103860000D0A0000B7A2CBCD203620BDABD6B4D018
:10387000D0C6F7B9D8BBFA20A3A10D0A00000000FA
:10388000B7A2CBCD203720CFD4CABEB0EFD6FAD066
:10389000C5CFA220A3A10D0A000000000D0AD6B4D6
:1038A000D0D0C2D6D1AFB3CCD0F2A3A10D0A0000C4
:1038B000C2D6D1AFBDE1CAF8A3A10D0A0000000035
:1038C0000D0A534341B3F5CABCBBAFA3A10D0A0017
:1038D000534341B3F5CABCBBAFBDE1CAF8A3A10DC8
:1038E0000A0000000D0ABDF8C8EBCEBBD6C3B9E98B
:1038F000C1E3B2E2CAD4A3A10D0A0000CEBBD6C375
:10390000B9E9C1E3B2E2CAD4BDE1CAF8A3A10D0A84
:10391000000000000D0ABDF8C8EBD5FDB7B4D7AA6A
:10392000C7D0BBBBB2E2CAD4A3A10D0A00000000FD
:10393000D5FDB7B4D7AAC7D0BBBBB2E2CAD4BDE1EC
:10394000CAF8A3A10D0A00000D0ABDF8C8EBB8DF44
:10395000B5CDCBD9C7D0BBBBB2E2CAD4A3A10D0AA7
:1039600000000000B8DFB5CDCBD9C7D0BBBBB2E2F9
:10397000CAD4BDE1CAF8A3A10D0A00000D0AD6B44D
:10398000D0D0C6F7B9D8BBFAA3A10D0A0000000039
:10399000D6B4D0D0C6F7B9D8BBFABDE1CAF8A3A156
:1039A0000D0A0000737461727420616C6C200A004F
:1039B000636C6F736520616C6C200A0077726974A8
:1039C00065206D6F746F7220746F20706F736974EF
:1039D000696F6E2053206D6F6465200A000000003F
:1039E0007772697465206D6F746F7220746F2070C8
:1039F0006F736974696F6E206D6F6465200A0000D3
:103A0000CDCCCC3D000010420000C84200000000B8
:103A10005FED023A1FED033A5FED042AB2EE042A8D
:103A20005FED061A1FED071A5FED080A1FED090A80
:103A3000FDF766FC8BE55FED0B3A1FED0C3A5FED91
:103A40000D2AB2EE042A5FED0F1A1FED101A5FED7A
:103A5000110ABAEE040AFDF753FC78E55FED153A5A
:103A60001FED163AF2EE042A1FED182A5FED191A1F
:103A70001FED1A1AF2EE040A1FED1C0AFDF740FCB6
:103A800065E55FED1E3A1FED1F3AF2EE042A1FEDC9
:103A9000212A5FED221A1FED231A5FED240A1FED84
:103AA000250AFDF72DFC52E55FED283A1FED293A76
:103AB000F2EE042A1FED2B2A5FED2C1A1FED2D1AB2
:103AC000FAEE040A1FED2F0AFDF71AFC3FE55FED41
:103AD000313AB2EE043A5FED332A1FED342A5FED3E
:103AE000351AB2EE041A5FED370A1FED380AFDF7FA
:103AF00007FC2CE55FED3B3AB2EE043A5FED3D2A60
:103B00001FED3E2A5FED3F1A1FED401A5FED410A9F
:103B10001FED420AFDF7F4FB19E55FED443AB2EE02
:103B2000043A5FED462A1FED472A5FED481ABAEEC8
:103B3000041A5FED4A0A1FED4B0AFDF7E1FB06E5AB
:103B4000F2EE043A1FED4F3A5FED502A1FED512A75
:103B5000F2EE041A1FED531A5FED540A1FED550AD9
:103B6000FDF7CEFBF3E4F2EE043A1FED583A5FEDB9
:103B7000592A1FED5A2A5FED5B1A1FED5C1A5FEDA3
:103B80005D0A1FED5E0AFDF7BBFBE0E4F2EE043ACE
:103B90001FED623A5FED632A1FED642AFAEE041A04
:103BA0001FED661A5FED670A1FED680AFDF7A8FBB7
:103BB000CDE418AB19AA1AA91BA8FDF7AAF917900A
:103BC000179818B1F7480AF0A9F9C3E01B980CF050
:103BD000D1FF21F000419FEDF40B53EC102BCDE908
:103BE00012019DED120B51EC100B0CF05DFD02D299
:103BF0001FED7A0A01E09DED1B0A8DED1B0A1A9854
:103C00000CF0B8FF21F000419FEDE70B53EC102BB7
:103C1000CDE912019DED120B51EC100B0CF044FD9F
:103C200002D21FED860A01E09DED1A0A8DED1A0AF7
:103C300019980CF09FFF21F000419FEDDB0B53EC36
:103C4000102BCDE912019DED120B51EC100B0CF075
:103C50002BFD02D21FED930A01E09DED190A8DEDB7
:103C6000190A18980CF086FF21F000419FEDCE0B49
:103C700053EC102BCDE912019DED120B51EC100B02
:103C80000CF012FD02D21FED9F0A01E09DED180A13
:103C90008DED180A1FEDA30A8DED160A1FEDA50A7A
:103CA0008DED150A1FEDA70A8DED140A18980CF07A
:103CB00061FFCDE9120119980CF05CFFCDE910010C
:103CC0001A980CF057FFCDE90E011B980CF052FF2B
:103CD000CDE90C01DDE91201CDE90401DDE91001B6
:103CE000CDE90201DDE90E01CDE900019DED0C0BEE
:103CF00053EC102BAEA00AF011F914AA15A916A8BE
:103D0000DDED181A9DED191ADDED1A0A9DED1B0A5D
:103D1000FCF745FF14980CF02DFFCDE91201159822
:103D20000CF028FFCDE9100116980CF023FFCDE927
:103D30000E01DDE91201CDE90201DDE91001CDE955
:103D400000019DED0E0B53EC102BAFF25C600AF0FE
:103D5000E5F800BF09E418AB19AA1AA91BA8FDF7DA
:103D6000D8F81790179818B18E480AF0D7F8F5E0F0
:103D70001B980CF0FFFE21F000419FED8B0B53ECE4
:103D8000102BCDE912019DED120B51EC100B0CF034
:103D90008BFC02D21FEDE30A01E09DED1B0A8DEDC5
:103DA0001B0A1A980CF0E6FE21F000419FED7E0BF5
:103DB00053EC102BCDE912019DED120B51EC100BC1
:103DC0000CF072FC02D21FEDEF0A01E09DED1A0A21
:103DD0008DED1A0A19980CF0CDFE21F000419FEDEF
:103DE000720B53EC102BCDE912019DED120B51EC2F
:103DF000100B0CF059FC02D21FEDFC0A01E09DED06
:103E0000190A8DED190A18980CF0B4FE21F0004142
:103E10009FED650B53EC102BCDE912019DED120BBC
:103E200051EC100B0CF040FC02D29FED650A01E052
:103E30009DED180A8DED180A9FED610A8DED160AA9
:103E40009FED5F0A8DED150A9FED5D0A8DED140A59
:103E500014AA15A916A8DDED181A9DED191ADDEDA5
:103E60001A0A9DED1B0AFCF79AFE14980CF082FECC
:103E7000CDE9120115980CF07DFECDE910011698E0
:103E80000CF078FECDE90E01DDE91201CDE9020169
:103E9000DDE91001CDE900019DED0E0B53EC102B77
:103EA00048A00AF03BF818980CF064FECDE9120126
:103EB00019980CF05FFECDE910011A980CF05AFE2B
:103EC000CDE90E011B980CF055FECDE90C01DDE9A2
:103ED0001201CDE90401DDE91001CDE90201DDE9BE
:103EE0000E01CDE900019DED0C0B53EC102B3DA014
:103EF0000AF014F818AB19AA1AA91BA89DED141AF8
:103F0000DDED150A9DED160AFDF793FA18980CF0F1
:103F100031FECDE9120119980CF02CFECDE910010B
:103F20001A980CF027FECDE90E011B980CF022FE2A
:103F3000CDE90C01DDE91201CDE90401DDE9100153
:103F4000CDE90201DDE90E01CDE900019DED0C0B8B
:103F500053EC102B2EA009F0E1FF00BF6AE518AB6F
:103F600019AA1AA91BA8FCF7D4FF1790179818B123
:103F700032A009F0D3FFFCE01B980CF0FBFD21F010
:103F800000419FED090B53EC102BCDE914019DED81
:103F9000140B51EC100B0CF087FB6DD29FED080A4F
:103FA0006CE069E0B01300087B14AE47E17A843F0F
:103FB00025662C25662C25662C25660A0000000047
:103FC00000000000706F736974696F6E2020203AE2
:103FD000202025662C20202025662C20202020252E
:103FE000660A000063757272656E7420616E676C9C
:103FF000652020202020203A202025662C2020200B
:1040000025662C20202020256620202025660A00F9
:104010007461726765742020616E676C6520202072
:104020002020203A202025662C20202025662C20C8
:10403000202020256620202025660A002065727237
:104040006F72207768696C6520696E2070726F638B
:10405000657373696E6720706F736974696F6E2022
:10406000746F20616E676C6520696E20636F6D6D83
:10407000616E642033390A009DED1B0A8DED1B0A29
:104080001A980CF077FD21F000411FED390B53EC2D
:10409000102BCDE914019DED140B51EC100B0CF01D
:1040A00003FB02D21FED3A0A01E09DED1A0A8DEDE5
:1040B0001A0A19980CF05EFD21F000411FED460B25
:1040C00053EC102BCDE914019DED140B51EC100BAA
:1040D0000CF0EAFA02D21FED460A01E09DED190A42
:1040E0008DED190A18980CF045FD21F000411FEDE7
:1040F000520B53EC102BCDE914019DED140B51EC38
:10410000100B0CF0D1FA02D21FED530A01E09DED25
:10411000180A8DED180AFA4AFA49FB48DDED181A1B
:104120009DED191ADDED1A0A9DED1B0AFCF737FD0E
:10413000F34800680CF01EFDCDE91401F148006859
:104140000CF018FDCDE91201EF4800680CF012FDEB
:10415000CDE91001DDE91401CDE90201DDE912012B
:10416000CDE900019DED100B53EC102BE7A009F0F9
:10417000D5FE5FE418AB19AA1AA91BA8FCF7C9FE63
:104180001790179818B1EC4809F0C8FE48E21B9840
:104190000CF0F0FC21F000411FED7D0B53EC102BD7
:1041A000CDE910019DED100B51EC100B0CF07CFAD9
:1041B00002D21FED7D0A01E09DED1B0A8DED1B0A69
:1041C0001A980CF0D7FC21F000411FED890B53EC3D
:1041D000102BCDE910019DED100B51EC100B0CF0E4
:1041E00063FA02D21FED8A0A01E09DED1A0A8DEDF5
:1041F0001A0A19980CF0BEFC21F000411FED960B35
:1042000053EC102BCDE910019DED100B51EC100B70
:104210000CF04AFA02D21FED960A01E09DED190A50
:104220008DED190A18980CF0A5FC21F000411FED46
:10423000A20B53EC102BCDE910019DED100B51ECAE
:10424000100B0CF031FA02D21FEDA30A01E09DED34
:10425000180A8DED180AAC4890ED000AF1EE040A38
:1042600030EE200A8DED110A13AB14AA15A916A879
:10427000A34C94ED001AA34CD4ED000A9DED110A55
:10428000FDF7D7F81290129800287DD113980CF002
:1042900071FCCDE90C0114980CF06CFCCDE90A011D
:1042A00015980CF067FCCDE9080116980CF062FC3B
:1042B000CDE90601DDE90C01CDE90401DDE90A01E2
:1042C000CDE90201DDE90801CDE900019DED060B14
:1042D00053EC102BAFF2EC2009F020FE9DED160AF6
:1042E000DDED1B0A30EE600A8DED090A09980CF02D
:1042F00041FC21F000419FED910B53EC102BCDE9D7
:104300000A019DED0A0B51EC100B0CF01BF8CDE9E6
:104310000C019DED0C0B51EC100B0BF02DFF1190CF
:104320009DED150ADDED1A0A30EE600A8DED090AE1
:1043300009980CF01FFC21F000419FED800B53EC1D
:10434000102BCDE90A019DED0A0B51EC100B0BF07F
:10435000F9FFCDE90C019DED0C0B51EC100B0BF0AE
:104360000BFF10909DED140ADDED190A30EE600A86
:104370008DED090A09980CF0FDFB21F000419FED3D
:104380006F0B53EC102B00E040E1CDE90A019DEDED
:104390000A0B51EC100B0BF0D5FFCDE90C019DED94
:1043A0000C0B51EC100B0BF0E7FE0F909DED130A78
:1043B000DDED180A30EE600A8DED090A09980CF05F
:1043C000D9FB21F000419FED5D0B53EC102BCDE9A3
:1043D0000A019DED0A0B51EC100B0BF0B3FFCDE978
:1043E0000C019DED0C0B51EC100B0BF0C5FE0E906B
:1043F0009DED110ADFED530AB4EEE00AF1EE10FA7A
:1044000002DD9FED500A01E09DED110A8DED110ACC
:104410009DED100ADFED4B0AB4EEE00AF1EE10FA62
:1044200002DD9FED480A01E09DED100A8DED100AB6
:104430009DED0F0ADFED430AB4EEE00AF1EE10FA4B
:1044400002DD9FED400A01E09DED0F0A8DED0F0AA0
:104450009DED0E0ADFED3B0AB4EEE00AF1EE10FA34
:1044600002DD9FED380A01E09DED0E0A8DED0E0A8A
:1044700016980CF07FFB21F000419FED300B53ECC0
:10448000102BCDE90C019DED0C0B51EC100B0CF039
:104490000BF902D29FED2C0A01E09DED160A8DED7D
:1044A000160A15980CF066FB21F000419FED230BD6
:1044B00053EC102BCDE90C019DED0C0B51EC100BC6
:1044C0000CF0F2F802D29FED200A01E09DED150AF2
:1044D0008DED150A14980CF04DFB21F000419FED75
:1044E000170B53EC102BCDE90C019DED0C0B51EC8F
:1044F000100B0CF0D9F829D29FED130A28E0000028
:1045000034000020300000202C0000207374617201
:104510007420706F696E7420706F736974696F6E48
:104520002020203A202025662C20202025662C20C3
:1045300020202025660A0000B01300089A99999956
:104540009999B93F0000C842000000009DED140A8F
:104550008DED140A13980CF00DFB21F000411FEDB6
:10456000090B53EC102BCDE90C019DED0C0B51EC1C
:10457000100B0CF099F802D21FED0D0A01E09DED31
:10458000130A8DED130A0E980CF0F4FACDE90C0124
:104590000F980CF0EFFACDE90A0110980CF0EAFA46
:1045A000CDE9080111980CF0E5FACDE90601DDE945
:1045B0000C01CDE90401DDE90A01CDE90201DDE9E3
:1045C0000801CDE900019DED060B53EC102BF7A07F
:1045D00009F0A4FCDDED0E3A9DED0F3ADDED102A59
:1045E0009DED112ADDED131A9DED141ADDED150A6E
:1045F0009DED160AFCF784FEF34890ED000AF7EEF5
:10460000000A30EE200A80ED000A08E0EF4840780A
:10461000012801D1FDF716FFEDA009F07FFC00BFD6
:104620009CE418AB19AA1AA91BA8FCF772FC1790F6
:10463000179818B1ED4809F071FCB6E11B980CF021
:1046400099FA21F000419FEDEA0B53EC102BCDE9D4
:1046500010019DED100B51EC100B0CF025F802D25F
:104660001FED470A01E09DED1B0A8DED1B0A1A980C
:104670000CF080FA21F000419FEDDD0B53EC102B84
:10468000CDE910019DED100B51EC100B0CF00CF866
:1046900002D21FED530A01E09DED1A0A8DED1A0AB0
:1046A00019980CF067FA21F000419FEDD10B53EC03
:1046B000102BCDE910019DED100B51EC100B0BF000
:1046C000F3FF02D21FED600A01E09DED190A8DEDA6
:1046D000190A18980CF04EFA21F000419FEDC40B16
:1046E00053EC102BCDE910019DED100B51EC100B8C
:1046F0000BF0DAFF02D21FED6C0A01E09DED180A03
:104700008DED180AB04890ED000AF1EE040A30EE83
:10471000600A8DED110A13AB14AA15A916A8B64CA0
:1047200094ED001AB54CD4ED000A9DED110AFCF78A
:1047300080FE1290129800287ED113980CF01AFA7D
:10474000CDE90C0114980CF015FACDE90A01159881
:104750000CF010FACDE9080116980CF00BFACDE92F
:104760000601DDE90C01CDE90401DDE90A01CDE92D
:104770000201DDE90801CDE900019DED060B53ECD6
:10478000102B9FA009F0CAFB9DED160ADDED1B0A58
:1047900030EE600A8DED090A09980CF0EBF921F072
:1047A00000411FED9A0B53EC102BCDE90A019DED52
:1047B0000A0B51EC100B0BF0C5FDCDE90C019DED82
:1047C0000C0B51EC100B0BF0D7FC11909DED150A62
:1047D000DDED1A0A30EE600A8DED090A09980CF039
:1047E000C9F921F000411FEDAB0B53EC102BCDE9C3
:1047F0000A019DED0A0B51EC100B0BF0A3FDCDE966
:104800000C019DED0C0B51EC100B0BF0B5FC109056
:104810009DED140ADDED190A30EE600A8DED090AEE
:1048200009980CF0A7F921F000411FEDBC0B53ECE7
:10483000102BCDE90A0100E0B3E09DED0A0B51EC2D
:10484000100B0BF07FFDCDE90C019DED0C0B51EC35
:10485000100B0BF091FC0F909DED130ADDED180A83
:1048600030EE600A8DED090A09980CF083F921F009
:1048700000411FEDCE0B53EC102BCDE90A019DED4D
:104880000A0B51EC100B0BF05DFDCDE90C019DED19
:104890000C0B51EC100B0BF06FFC0E909DED110A00
:1048A0005FEDD80AB4EEE00AF1EE10FA02DD1FED7A
:1048B000DB0A01E09DED110A8DED110A9DED100A54
:1048C0005FEDE00AB4EEE00AF1EE10FA02DD1FED52
:1048D000E30A01E09DED100A8DED100A9DED0F0A2F
:1048E0005FEDE80AB4EEE00AF1EE10FA02DD1FED2A
:1048F000EB0A01E09DED0F0A8DED0F0A9DED0E0A0A
:104900005FEDF00AB4EEE00AF1EE10FA02DD1FED01
:10491000F30A01E09DED0E0A8DED0E0A0E980CF0E3
:1049200029F9CDE90C010F980CF024F9CDE90A0121
:1049300010980CF01FF9CDE9080111980CF01AF944
:10494000CDE90601DDE90C01CDE90401DDE90A014B
:10495000CDE90201DDE90801CDE900019DED060B7D
:1049600053EC102B11A009F0D9FADDED0E3A9DEDB4
:104970000F3ADDED102A9DED112ADDED131A9DEDA4
:10498000141ADDED150A9DED160AFCF7B9FC0E4868
:1049900090ED000AF7EE000A30EE600A80ED000AA2
:1049A00002E00BA009F0BAFA00BF39E67370656542
:1049B0006420202020256620202025662020202518
:1049C0006620202025660A002C000020B00200206E
:1049D0006E6F20696E7665727365206F7574206FD7
:1049E000662072616E67650A00000000B01300085F
:1049F0007B14AE47E17A843F340000203000002071
:104A0000616E676C652020202020203A20202566DA
:104A10002C20202025662C202020202566202020E8
:104A20002025660A0000000018AB19AA1AA91BA8C5
:104A3000FCF76FFA1790179818B1FD4809F06EFA55
:104A4000B9E11B980CF096F821F000411FED180B0E
:104A500053EC102BCDE910019DED100B51EC100B18
:104A60000BF022FE02D29FEDF30A01E09DED1B0A3E
:104A70008DED1B0A1A980CF07DF821F000411FED16
:104A8000240B53EC102BCDE910019DED100B51ECD4
:104A9000100B0BF009FE02D29FEDE60A01E09DED3E
:104AA0001A0A8DED1A0A19980CF064F821F00041E9
:104AB0001FED310B53EC102BCDE910019DED100BC8
:104AC00051EC100B0BF0F0FD02D29FEDDA0A01E081
:104AD0009DED190A8DED190A18980CF04BF821F08C
:104AE00000411FED3D0B53EC102BCDE910019DED66
:104AF000100B51EC100B0BF0D7FD02D29FEDCD0A3D
:104B000001E09DED180A8DED180ACB4890ED000AE2
:104B1000F3EE0E0A30EE200A8DED110A13AB14AA43
:104B200015A916A8C54C94ED001AC54CD4ED000A81
:104B30009DED110AFCF77DFC1290129800287DD1A2
:104B400013980CF017F8CDE90C0114980CF012F83A
:104B5000CDE90A0115980CF00DF8CDE90801169879
:104B60000CF008F8CDE90601DDE90C01CDE90401FE
:104B7000DDE90A01CDE90201DDE90801CDE9000125
:104B80009DED060B53EC102BAFF28C1009F0C6F91B
:104B90009DED160ADDED1B0A30EE600A8DED090A67
:104BA00009980BF0E7FF21F000419FEDA60B53ECB5
:104BB000102BCDE90A019DED0A0B51EC100B0BF007
:104BC000C1FBCDE90C019DED0C0B51EC100B0BF072
:104BD000D3FA11909DED150ADDED1A0A30EE600A48
:104BE0008DED090A09980BF0C5FF21F000419FEDFA
:104BF000950B53EC102BCDE90A019DED0A0B51ECFE
:104C0000100B0BF09FFBCDE90C019DED0C0B51EC53
:104C1000100B0BF0B1FA10909DED140ADDED190A9E
:104C200030EE600A8DED090A09980BF0A3FF21F020
:104C300000419FED840B53EC102B00E0B6E0CDE972
:104C40000A019DED0A0B51EC100B0BF07BFBCDE93B
:104C50000C019DED0C0B51EC100B0BF08DFA0F902D
:104C60009DED130ADDED180A30EE600A8DED090A9C
:104C700009980BF07FFF21F000419FED720B53EC80
:104C8000102BCDE90A019DED0A0B51EC100B0BF036
:104C900059FBCDE90C019DED0C0B51EC100B0BF009
:104CA0006BFA0E909DED110AF3EE0E0AB4EEE00AD7
:104CB000F1EE10FA02DDB3EE0E0A01E09DED110AED
:104CC0008DED110A9DED100AF3EE0E0AB4EEE00A26
:104CD000F1EE10FA02DDB3EE0E0A01E09DED100ACE
:104CE0008DED100A9DED0F0AF3EE0E0AB4EEE00A08
:104CF000F1EE10FA02DDB3EE0E0A01E09DED0F0AAF
:104D00008DED0F0A9DED0E0ADFED500AB4EEE00ABC
:104D1000F1EE10FA02DD9FED4D0A01E09DED0E0A65
:104D20008DED0E0A0E980BF025FFCDE90C010F98C2
:104D30000BF020FFCDE90A0110980BF01BFFCDE925
:104D4000080111980BF016FFCDE90601DDE90C0111
:104D5000CDE90401DDE90A01CDE90201DDE908013F
:104D6000CDE900019DED060B53EC102BAFF2C430E2
:104D700009F0D4F8DDED0E3A9DED0F3ADDED102A85
:104D80009DED112ADDED131A9DED141ADDED150AC6
:104D90009DED160AFCF7B4FA274890ED000AF3EEF1
:104DA0000E0A30EE200A80ED000A03E0AFF2E03098
:104DB00009F0B4F800BF33E418AB19AA1AA91BA86C
:104DC000FCF7A7F81790179818B1194809F0A6F83A
:104DD000CEE11B980BF0CEFE21F000411FEDFC0B45
:104DE00053EC102BCDE910019DED100B51EC100B85
:104DF0000BF05AFC02D29FED0F0A01E09DED1B0A59
:104E00008DED1B0A1A980BF0B5FE21F000419FEDC5
:104E1000100B53EC102BCDE910019DED100B51EC54
:104E2000100B0BF041FC17D29FED020A16E00000B8
:104E3000B0130008000000002C0000203400002007
:104E4000300000209A9999999999B93F0000C84279
:104E50007B14AE47E17A843F9DED1A0A8DED1A0A64
:104E600019980BF087FE21F000411FED070B53EC62
:104E7000102BCDE910019DED100B51EC100B0BF038
:104E800013FC02D21FED150A01E09DED190A8DED0C
:104E9000190A18980BF06EFE21F000411FED140B5B
:104EA00053EC102BCDE910019DED100B51EC100BC4
:104EB0000BF0FAFB02D21FED210A01E09DED180A6A
:104EC0008DED180AFE4890ED000AF3EE0E0A30EE62
:104ED000600A8DED110A13AB14AA15A916A8F94C96
:104EE00094ED001AF84CD4ED000A9DED110AFCF780
:104EF000A0FA1290129800287DD113980BF03AFE78
:104F0000CDE90C0114980BF035FECDE90A01159896
:104F10000BF030FECDE9080116980BF02BFECDE921
:104F20000601DDE90C01CDE90401DDE90A01CDE965
:104F30000201DDE90801CDE900019DED060B53EC0E
:104F4000102BAFF2445008F0E9FF9DED160ADDED9D
:104F50001B0A30EE600A8DED090A09980BF00AFE73
:104F600021F000411FED490B53EC102BCDE90A0154
:104F70009DED0A0B51EC100B0BF0E4F9CDE90C019F
:104F80009DED0C0B51EC100B0BF0F6F811909DED14
:104F9000150ADDED1A0A30EE600A8DED090A09984E
:104FA0000BF0E8FD21F000411FED5A0B53EC102BE4
:104FB000CDE90A019DED0A0B51EC100B0BF0C2F983
:104FC000CDE90C019DED0C0B51EC100B0BF0D4F85E
:104FD00010909DED140ADDED190A30EE600A8DED9A
:104FE000090A09980BF0C6FD21F000411FED6B0B7B
:104FF00053EC102B00E0B6E0CDE90A019DED0A0B61
:1050000051EC100B0BF09EF9CDE90C019DED0C0B52
:1050100051EC100B0BF0B0F80F909DED130ADDED85
:10502000180A30EE600A8DED090A09980BF0A2FD0E
:1050300021F000411FED7D0B53EC102BCDE90A014F
:105040009DED0A0B51EC100B0BF07CF9CDE90C0136
:105050009DED0C0B51EC100B0BF08EF80E909DEDAE
:10506000110AF3EE0E0AB4EEE00AF1EE10FA02DDD8
:10507000B3EE0E0A01E09DED110A8DED110A9DEDD2
:10508000100AF3EE0E0AB4EEE00AF1EE10FA02DDB9
:10509000B3EE0E0A01E09DED100A8DED100A9DEDB4
:1050A0000F0AF3EE0E0AB4EEE00AF1EE10FA02DD9A
:1050B000B3EE0E0A01E09DED0F0A8DED0F0A9DED96
:1050C0000E0A5FED9E0AB4EEE00AF1EE10FA02DD80
:1050D0001FEDA20A01E09DED0E0A8DED0E0A0E985D
:1050E0000BF048FDCDE90C010F980BF043FDCDE925
:1050F0000A0110980BF03EFDCDE9080111980BF064
:1051000039FDCDE90601DDE90C01CDE90401DDE958
:105110000A01CDE90201DDE90801CDE900019DEDBB
:10512000060B53EC102BAFF27C7008F0F7FEDDEDB0
:105130000E3A9DED0F3ADDED102A9DED112ADDEDC1
:10514000131A9DED141ADDED150A9DED160AFCF7F4
:10515000D7F85B4890ED000AF3EE0E0A30EE600AD5
:1051600080ED000A03E0AFF2987008F0D7FE00BFB0
:105170001BE418AB19AA1AA91BA8FBF7CAFE1790C3
:10518000179818B1514808F0C9FEC4E11B980BF0FC
:10519000F1FC21F000411FEDD20B53EC102BCDE9B7
:1051A00010019DED100B51EC100B0BF07DFA02D2AB
:1051B0001FEDE00A01E09DED1B0A8DED1B0A1A9818
:1051C0000BF0D8FC21F000411FEDDF0B53EC102B4E
:1051D000CDE910019DED100B51EC100B0BF064FAB2
:1051E00002D21FEDEC0A01E09DED1A0A8DED1A0ABC
:1051F00019980BF0BFFC21F000411FEDEB0B53ECB5
:10520000102BCDE910019DED100B51EC100B0BF0A4
:105210004BFA02D21FEDF90A01E09DED190A8DED5E
:10522000190A18980BF0A6FC21F000411FEDF80BAD
:1052300053EC102BCDE910019DED100B51EC100B30
:105240000BF032FA02D29FED220A01E09DED180A1E
:105250008DED180A1C4890ED000AF3EE0E0A30EEB0
:10526000200A8DED110A13AB14AA15A916A8154C26
:1052700094ED001ADDED110A114C94ED000AFCF7D3
:10528000D8F81290129800287DD113980BF072FC78
:10529000CDE90C0114980BF06DFCCDE90A011598CD
:1052A0000BF068FCCDE9080116980BF063FCCDE922
:1052B0000601DDE90C01CDE90401DDE90A0109E09F
:1052C0002C0000203400002030000020B013000823
:1052D00000000000CDE90201DDE90801CDE900018F
:1052E0009DED060B53EC102BAFF6EC0008F016FE0C
:1052F0009DED160ADDED1B0A30EE600A8DED090A00
:1053000009980BF037FC21F000419FEDFE0B53ECA8
:10531000102BCDE90A019DED0A0B51EC100B0BF09F
:1053200011F8CDE90C019DED0C0B51EC100B0AF0BE
:1053300023FF11909DED150ADDED1A0A30EE600A8B
:105340008DED090A09980BF015FC21F000419FED45
:10535000ED0B53EC102BCDE90A019DED0A0B51EC3E
:10536000100B0AF0EFFFCDE90C019DED0C0B51EC99
:10537000100B0AF001FF10909DED140ADDED190AE3
:1053800030EE600A00E0C1E08DED090A09980BF0EB
:10539000F1FB21F000419FEDDB0B53EC102BCDE92D
:1053A0000A019DED0A0B51EC100B0AF0CBFFCDE981
:1053B0000C019DED0C0B51EC100B0AF0DDFE0F9073
:1053C0009DED130ADDED180A30EE600A8DED090A35
:1053D00009980BF0CFFB21F000419FEDCA0B53EC75
:1053E000102BCDE90A019DED0A0B51EC100B0AF0D0
:1053F000A9FFCDE90C019DED0C0B51EC100B0AF04F
:10540000BBFE0E909DED110AF3EE0E0AB4EEE00A1B
:10541000F1EE10FA02DDB3EE0E0A01E09DED110A85
:105420008DED110A9DED100AF3EE0E0AB4EEE00ABE
:10543000F1EE10FA02DDB3EE0E0A01E09DED100A66
:105440008DED100A9DED0F0AF3EE0E0AB4EEE00AA0
:10545000F1EE10FA02DDB3EE0E0A01E09DED0F0A47
:105460008DED0F0A9DED0E0ADFEDA80AB4EEE00AFD
:10547000F1EE10FA02DD9FEDA50A01E09DED0E0AA6
:105480008DED0E0A0E980BF075FBCDE90C010F980F
:105490000BF070FBCDE90A0110980BF06BFBCDE926
:1054A000080111980BF066FBCDE90601DDE90C015E
:1054B000CDE90401DDE90A01CDE90201DDE90801D8
:1054C000CDE900019DED060B53EC102BAFF6243017
:1054D00008F024FDDDED0E3A9DED0F3ADDED102ACA
:1054E0009DED112ADDED131A9DED141ADDED150A5F
:1054F0009DED160AFBF704FF8548D0ED000AB3EED8
:105500000E0A30EE800A80ED000A03E0AFF640306C
:1055100008F004FD00BF4EE418AB19AA1AA91BA895
:10552000FBF7F7FC1790179818B17A4808F0F6FCCB
:10553000CAE11B980BF01EFB21F000419FED760B9A
:1055400053EC102BCDE910019DED100B51EC100B1D
:105550000BF0AAF802D21FEDA20A01E09DED1B0A92
:105560008DED1B0A1A980BF005FB21F000419FED11
:105570006A0B53EC102BCDE910019DED100B51EC93
:10558000100B0BF091F802D21FEDAF0A01E09DED78
:105590001A0A8DED1A0A19980BF0ECFA21F0004165
:1055A0009FED5D0B53EC102BCDE910019DED100B21
:1055B00051EC100B0BF078F802D21FEDBB0A01E0A2
:1055C0009DED190A8DED190A18980BF0D3FA21F008
:1055D00000419FED510B53EC102BCDE910019DEDD7
:1055E000100B51EC100B0BF05FF802D21FEDC80A44
:1055F00001E09DED180A8DED180A454890ED000A6E
:10560000F3EE0E0A30EE600A8DED110A13AB14AA08
:1056100015A916A8424C94ED001ADDED110A414C73
:1056200094ED000AFBF705FF1290129800287BD139
:1056300013980BF09FFACDE90C0114980BF09AFA2D
:10564000CDE90A0115980BF095FACDE908011698F5
:105650000BF090FACDE90601DDE90C01CDE904017A
:10566000DDE90A01CDE90201DDE90801CDE900012A
:105670009DED060B53EC102BAFF67C4008F04EFC72
:105680009DED160ADDED1B0A30EE600A8DED090A6C
:1056900009980BF06FFA21F000419FED1A0B53ECC3
:1056A000102BCDE90A019DED0A0B51EC100B0AF00D
:1056B00049FECDE90C019DED0C0B51EC100B0AF0ED
:1056C0005BFD11909DED150ADDED1A0A30EE600AC2
:1056D0008DED090A09980BF04DFA21F000419FED7C
:1056E000090B53EC102BCDE90A019DED0A0B51EC8F
:1056F000100B0AF027FECDE90C019DED0C0B51ECCF
:10570000100B12E09A9999999999B93F0000C842F3
:1057100030000020B01300087B14AE47E17A843FCC
:10572000340000202C000020CAE00AF025FD109073
:105730009DED140ADDED190A30EE600A8DED090ABF
:1057400009980BF017FA21F000411FED120B53ECF2
:10575000102BCDE90A019DED0A0B51EC100B0AF05C
:10576000F1FDCDE90C019DED0C0B51EC100B0AF095
:1057700003FD0F909DED130ADDED180A30EE600A6F
:105780008DED090A09980BF0F5F921F000411FEDA4
:10579000230B53EC102BCDE90A019DED0A0B51ECC4
:1057A000100B0AF0CFFDCDE90C019DED0C0B51EC77
:1057B000100B0AF0E1FC0E909DED110AF3EE0E0ABB
:1057C000B4EEE00AF1EE10FA02DDB3EE0E0A01E0EB
:1057D0009DED110A8DED110A9DED100AF3EE0E0AF2
:1057E000B4EEE00AF1EE10FA02DDB3EE0E0A01E0CB
:1057F0009DED100A8DED100A9DED0F0AF3EE0E0AD5
:10580000B4EEE00AF1EE10FA02DDB3EE0E0A01E0AA
:105810009DED0F0A8DED0F0A9DED0E0A5FED450A15
:10582000B4EEE00AF1EE10FA02DD1FED480A01E0E5
:105830009DED0E0A8DED0E0A0E980BF09BF9CDE949
:105840000C010F980BF096F9CDE90A0110980BF0B6
:1058500091F9CDE9080111980BF08CF9CDE9060119
:10586000DDE90C01CDE90401DDE90A01CDE9020120
:10587000DDE90801CDE900019DED060B53EC102B8D
:10588000AFF6D86008F04AFBDDED0E3A9DED0F3A19
:10589000DDED102A9DED112ADDED131A9DED141A90
:1058A000DDED150A9DED160AFBF72AFDFB4890ED8C
:1058B000000AF3EE0E0A30EE600A80ED000A02E004
:1058C000F7A008F02BFB00BF52E418AB19AA1AA9E5
:1058D0001BA8FBF71EFB1790179818B1F74808F0A4
:1058E0001DFBB8E11B980BF045F921F000411FEDBD
:1058F000760B53EC102BCDE910019DED100B51EC04
:10590000100B0AF0D1FE02D29FEDED0A01E09DEDF1
:105910001B0A8DED1B0A1A980BF02CF921F000419F
:105920001FED830B53EC102BCDE910019DED100BF7
:1059300051EC100B0AF0B8FE02D29FEDE10A01E033
:105940009DED1A0A8DED1A0A19980BF013F921F042
:1059500000411FED8F0B53EC102BCDE910019DED95
:10596000100B51EC100B0AF09FFE02D29FEDD40AEF
:1059700001E09DED190A8DED190A18980BF0FAF85F
:1059800021F000411FED9C0B53EC102BCDE91001D1
:105990009DED100B51EC100B0AF086FE02D29FED2C
:1059A000C80A01E09DED180A8DED180AC54890ED72
:1059B000000AF3EE0E0A30EE200A8DED110A13AB49
:1059C00014AA15A916A89DED111AB44CD4ED000A1D
:1059D000BD4C94ED000AFBF72CFD129012980028A4
:1059E0007ED113980BF0C6F8CDE90C0114980BF09A
:1059F000C1F8CDE90A0115980BF0BCF8CDE9080112
:105A000016980BF0B7F8CDE90601DDE90C01CDE9F8
:105A10000401DDE90A01CDE90201DDE90801CDE972
:105A200000019DED060B53EC102BA84808F076FA08
:105A30009DED160ADDED1B0A30EE600A8DED090AB8
:105A400009980BF097F821F000411FEDD20B53ECB1
:105A5000102BCDE90A019DED0A0B51EC100B0AF059
:105A600071FCCDE90C019DED0C0B51EC100B0AF013
:105A700083FB11909DED150ADDED1A0A30EE600AE8
:105A80008DED090A09980BF075F821F000411FED22
:105A9000E30B53EC102BCDE90A019DED0A0B51EC01
:105AA000100B0AF04FFCCDE90C019DED0C0B51ECF5
:105AB000100B0AF061FB10909DED140ADDED190A40
:105AC00030EE600A8DED090A09980BF053F821F0C9
:105AD00000411FEDF40B53EC102BCDE90A0100E05F
