:020000040800F2
:10000000582F0020E1C900087180000873800008A3
:10001000778000087B8000087F80000800000000D7
:1000200000000000000000000000000083800008C5
:100030008580000800000000878000088980000893
:10004000FBC90008FBC90008FBC90008FBC9000880
:10005000FBC90008FBC90008FBC90008FBC9000870
:10006000FBC90008FBC90008FBC90008FBC9000860
:10007000FBC90008FBC90008FBC90008FBC9000850
:10008000FBC90008FBC90008FBC90008FBC9000840
:100090001D840008FBC90008FBC90008FBC9000853
:1000A000FBC90008FBC90008FBC90008FBC9000820
:1000B00019C5000853C5000811C60008FBC900088F
:1000C000FBC90008FBC90008FBC90008FBC9000800
:1000D000FBC900081DC20008FBC90008FBC90008D5
:1000E000FBC90008FBC90008FBC90008FBC90008E0
:1000F0002BC80008EDC80008FBC90008FBC90008B0
:10010000FBC90008FBC90008FBC90008FBC90008BF
:10011000FBC90008FBC90008D1C60008FBC90008DC
:10012000FBC90008FBC90008FBC90008FBC900089F
:10013000FBC90008FBC90008FBC90008FBC900088F
:10014000FBC90008CD850008FBC90008FBC90008F1
:10015000FBC90008FBC90008FBC90008FBC900086F
:10016000FBC90008FBC90008FBC90008FBC900085F
:10017000FBC90008FBC90008FBC90008FBC900084F
:10018000FBC90008FBC90008FBC90008FBC900083F
:10019000FBC90008FBC90008FBC90008FBC900082F
:1001A000FBC90008FBC90008FBC9000800F002F801
:1001B00000F052F80AA090E8000C82448344AAF1AF
:1001C0000107DA4501D100F047F8AFF2090EBAE8AD
:1001D0000F0013F0010F18BFFB1A43F0010318477B
:1001E000FC1C01001C1D0100103A24BF78C878C116
:1001F000FAD8520724BF30C830C144BF04680C602D
:10020000704700000023002400250026103A28BF74
:1002100078C1FBD8520728BF30C148BF0B60704778
:10022000662911F02A8564290EF0BE8675290EF024
:10023000BB8678290EF0F486002070471FB511F0B8
:1002400012FD0FF0F9F904000020002110F07AFFF0
:10025000E0601FBD10B510BD0FF00AFB1146FFF79F
:10026000EDFF07F0D2FA0FF028FB03B4FFF7F2FF1F
:1002700003BC0BF073FF00000020704700207047A4
:100280000020704700207047002070470020704712
:100290000020704700207047002070470020704702
:1002A00000207047002000BF1FE040F2E731884285
:1002B0000ED00021FE4A02F8301002EBC00251704D
:1002C000FB4A411C02EBC10102EBC00251600BE092
:1002D0000021F74A02F8301002EBC0025170F449D5
:1002E0000A4602EBC0025160401CB0F57A7FDCDBAD
:1002F000EF49F04A116011460968EF4A11607047F2
:100300002DE9F04F99B080460E460EB1642E03DD04
:10031000002019B0BDE8F08F45460024002700BF3B
:100320004CE0701E211D884234DA285D04F1010C76
:10033000B44502DB4FF0000C03E004F1010C15F8AA
:100340000CC0614604F1020CB44502DB4FF0000C16
:1003500003E004F1020C15F80CC0624604F1030C32
:10036000B44502DB4FF0000C03E004F1030C15F878
:100370000CC063464FEA006C4CEA014C4CEA022C7C
:100380004CEA030CBA4607F1010B1FFA8BF74DF844
:100390002AC015E0285D0106601C285C41EA004186
:1003A000A01C285C41EA0020E11C695C0843394636
:1003B0007A1C97B24DF82100201D84B2B442B0DB04
:1003C00000BF4FF000090EF089FD002406E05DF843
:1003D00024000EF087FD8146601C84B2BC42F6DB2F
:1003E000484696E710B52DED028BB0EE408A9FEDA2
:1003F000B30A28EE000ADFEDB20A80EE201AF0EE12
:10040000418AB0EE680A0FF0A9FFAE4880ED000AFD
:100410009FEDAA0A28EE000ADFEDA90A80EE201A55
:10042000F0EE418AB0EE680A10F0A6F8B1EE400A8C
:10043000A44880ED010A9FEDA40A80ED020A9FED19
:100440009F0A28EE000ADFED9E0A80EE201AF0EEE9
:10045000418AB0EE680A10F08FF89A4880ED030ADE
:1004600090ED000A80ED040A9FED970A80ED050AE1
:100470009FED950A80ED060A9FED930A80ED070A2D
:10048000B7EE000A80ED080ABDEC028B10BD10B576
:100490002DED048BB0EE408AF0EE608A9FED870A66
:1004A00028EE000ADFED860A80EE201AB0EE419AAF
:1004B000B0EE490A0FF052FFF0EE409A9FED7F0A2E
:1004C00028EE800ADFED7E0A80EE201AB0EE419A17
:1004D000B0EE490A0FF042FF29EE800A7B4880ED1A
:1004E000000A9FED760A28EE000ADFED750A80EE1D
:1004F000201AB0EE419AB0EE490A0FF02FFFF1EE4C
:10050000409A9FED6E0A28EE800ADFED6D0A80EEBC
:10051000201AB0EE419AB0EE490A10F02DF829EEFB
:10052000800A6A4880ED010A9FED640A28EE000AFD
:10053000DFED630A80EE201AB0EE419AB0EE490A70
:1005400010F01AF8B1EE400A604880ED020A9FED03
:100550005B0A28EE000ADFED5A0A80EE201AB0EEA0
:10056000419AB0EE490A10F007F8F0EE409A9FED7C
:10057000530A28EE800ADFED520A80EE201AB0EE10
:10058000419AB0EE490A0FF0E9FE29EE800A4F4881
:1005900080ED030A9FED490A28EE000ADFED480AC4
:1005A00080EE201AB0EE419AB0EE490A0FF0E4FF57
:1005B000F1EE409A9FED410A28EE800ADFED400AF5
:1005C00080EE201AB0EE419AB0EE490A0FF0D4FF47
:1005D00029EE800A3D4880ED040A9FED380A28EE96
:1005E000000ADFED370A80EE201AB0EE419AB0EE35
:1005F000490A0FF0B3FE354880ED050A9FED2F0A3A
:1006000028EE800ADFED2E0A80EE201AB0EE419A25
:10061000B0EE490A0FF0B0FFB1EE400A2B4880ED72
:10062000060A9FED260A28EE800ADFED250A80EEF5
:10063000201AB0EE419AB0EE490A0FF08FFEB1EEEB
:10064000400A224880ED070A9FED1F0A80ED080A44
:10065000BDEC048B10BD10B52DED068BB0EE408ABD
:10066000F0EE608AB0EE419A9FED140A28EE000A7F
:10067000DFED130A80EE201AF0EE419AB0EE690A1F
:100680000FF06CFEB0EE40AA9FED0C0A69EE000A76
:100690009FED0B1A80EE810A30EE280AF0EE409AA8
:1006A0000FF05CFE2AEE000A094880ED000A11E016
:1006B000100300202400002028000020DC0F494007
:1006C000000034439400002000000000B800002027
:1006D000DC0000201FED070A28EE000A5FED080A83
:1006E00080EE201AF0EE419AB0EE690A0FF036FE65
:1006F000B1EE40AA1FED0F0A69EE000A1FED101AB5
:1007000080EE810A30EE280AF0EE409A0FF034FFB6
:100710002AEE000AFE4880ED010A1FED180A28EEB5
:10072000000A5FED190A80EE201AF0EE419AB0EE51
:10073000690A0FF021FFB1EE400AF54880ED020A88
:100740001FED220A28EE000A5FED230A80EE201A30
:10075000F0EE419AB0EE690A0FF00EFFB0EE40AA3B
:100760001FED2A0A69EE000A1FED2B1A80EE810A9E
:1007700030EE280AF0EE409A0FF0F0FD2AEE000A63
:10078000E34880ED030A1FED330A28EE000A5FED0F
:10079000340A80EE201AF0EE419AB0EE690A0FF0AA
:1007A000EBFEB1EE40AA1FED3B0A69EE000A1FED19
:1007B0003C1A80EE810A30EE280AF0EE409A0FF0E3
:1007C000DBFE2AEE000AD24880ED040A1FED450A3E
:1007D00028EE000A5FED460A80EE201AF0EE419AFC
:1007E000B0EE690A0FF0BAFDC94880ED050A1FEDA9
:1007F0004D0A69EE000A1FED4E1A80EE810A30EEB6
:10080000280AF0EE409A0FF0B7FEB1EE400AC04859
:1008100080ED060A1FED570A69EE000A1FED581A0F
:1008200080EE810A30EE280AF0EE409A0FF096FD35
:10083000B1EE400AB64880ED070A1FED5D0A80ED73
:10084000080ABDEC068B10BD10B52DED068BB0EE81
:10085000408AF0EE608AB0EE419AF0EE619A1FEDA8
:10086000690A28EE000A5FED6A0A80EE201AB0EEEF
:1008700041AAB0EE4A0A0FF071FDF0EE40AA1FED5A
:10088000710A69EE800A1FED721A80EE810A78EE15
:10089000890A30EE200AB0EE40AA0FF05FFD2AEE82
:1008A000800A9C4880ED000A1FED7C0A28EE000AB1
:1008B0005FED7D0A80EE201AB0EE41AAB0EE4A0A42
:1008C0000FF04CFDF1EE40AA1FED840A69EE800A9C
:1008D0001FED851A80EE810A78EE890A30EE200A33
:1008E000B0EE40AA0FF048FE2AEE800A894880ED5B
:1008F000010A1FED8E0A28EE000A5FED8F0A80EED6
:10090000201AB0EE41AAB0EE4A0A0FF035FEB1EE61
:10091000400A804880ED020A1FED980A28EE000A7E
:100920005FED990A80EE201AB0EE41AAB0EE4A0AB5
:100930000FF022FEF0EE40AA1FEDA00A69EE800A39
:100940001FEDA11A80EE810A78EE890A30EE200AA6
:10095000B0EE40AA0FF002FD2AEE800A6D4880ED4D
:10096000030A1FEDAA0A28EE000A5FEDAB0A80EE2B
:10097000201AB0EE41AAB0EE4A0A0FF0FDFDF1EEEA
:1009800040AA1FEDB20A69EE800A1FEDB31A80EE8D
:10099000810A78EE890A30EE200AB0EE40AA0FF004
:1009A000EBFD2AEE800A5B4880ED040A1FEDBD0ACC
:1009B00028EE000A5FEDBE0A80EE201AB0EE41AAD2
:1009C000B0EE4A0A0FF0CAFC524880ED050A1FED4E
:1009D000C50A69EE800A1FEDC61A80EE810A78EE1C
:1009E000890A30EE200AB0EE40AA0FF0C5FDB1EE44
:1009F000400A484880ED060A1FEDD00A69EE800AD9
:100A00001FEDD11A80EE810A78EE890A30EE200AB5
:100A1000B0EE40AA0FF0A2FCB1EE400A3D4880EDD6
:100A2000070A1FEDD70A80ED080ABDEC068B10BD42
:100A300010B51FEDDB0A384880ED000A1FEDDE0A15
:100A400080ED010A1FEDE00A80ED020A1FEDE20AC7
:100A5000324880ED000A9FED320A80ED010A1FED59
:100A6000E60A80ED020A9FED2F0A2F4880ED000A6A
:100A70001FEDEB0A80ED010A1FEDED0A80ED020A81
:100A80009FED2A0A2A4880ED000A1FEDF10A80ED49
:100A9000010ABAEE030A80ED020A9FED260A2648F3
:100AA00080ED070A9FED250A80ED0D0A9FED240ACF
:100AB00080ED130A9FED230A80ED190ABFEE000AAC
:100AC00080ED060ABFEE000A80ED0C0AB7EE000AC0
:100AD00080ED120ABFEE000A80ED180A00201A49C4
:100AE0004884AFF66B0019494860AFF66F00886024
:100AF000AFF67300C860AFF673000861AFF6770019
:100B00004861AFF677008861AFF67B00C8611FE0EF
:100B1000DC00002000010020240100203001002022
:100B2000CDCCEE4200006B433C01002033F3844304
:100B3000480100208126A2BE54010020DB8A7D41AD
:100B4000423E074286380EC0B402002070220020C8
:100B5000AFF6BF000862AFF6BF004862AFF6C30051
:100B60008862AFF6C300C8629FEDFB0AFB4880EDC8
:100B7000000A9FEDF90A80ED010A9FEDF70A80ED6A
:100B8000020AB0EE080AF64880ED000AB0EE080A44
:100B900080ED010AB0EE080A80ED020A0121B3EEF1
:100BA0000E0A08460AF046FA0121B3EE0E0A0220A8
:100BB0000AF040FA0121B3EE000A03200AF03AFAE3
:100BC0000121B3EE000A04200AF034FA10BDF0B59A
:100BD0002DED108B85B0B0EE408AF0EE608AB0EE5D
:100BE000419A04460D4616469FEDDE0A28EE000A9D
:100BF000DFEDDD0A80EE201AB0EE41AAB0EE4A0A1F
:100C00000FF0ACFB8DED040A38EE890A8DED030A76
:100C10009DED030ADFEDD30A20EE200ADFEDD20AB4
:100C200080EE201AB0EE41AAB0EE4A0A0FF096FB11
:100C3000F0EE409A9FEDCB0A28EE000ADFEDCA0ADB
:100C400080EE201AB0EE41AAB0EE4A0A0FF094FCF2
:100C50008DED020A9FEDC30A28EE800ADFEDC20A7D
:100C600080EE201AB0EE41AAB0EE4A0A0FF076FBF1
:100C70008DED010A38EE890A8DED000A9FEDB90A63
:100C800028EE000ADFEDB80A80EE201AB0EE41AA85
:100C9000B0EE4A0A0FF062FB5FED5C0A20EE200A1C
:100CA00060EE29AA9FEDAF0A28EE000ADFEDAE0A3A
:100CB00080EE201AB0EE41AAB0EE4A0A0FF05CFCBA
:100CC000FAEE030A40EEC0AA9FEDA60A28EE000A3B
:100CD000DFEDA50A80EE201AB0EE41AAB0EE4A0A76
:100CE0000FF03CFB5FED710A20EE20BA9FED9D0AEC
:100CF00028EE800ADFED9C0A80EE201AB0EE41AAB1
:100D0000B0EE4A0A0FF02AFB4BEE00AA9FED950ABF
:100D100028EE000ADFED940A80EE201AB0EE41AA18
:100D2000B0EE4A0A0FF028FC5FED830A40EEC0AA3D
:100D3000C4ED00AA9FED8B0A28EE000ADFED8A0AB7
:100D400080EE201AB0EE41AAB0EE4A0A0FF014FC71
:100D50005FED8A0A20EE200A60EE29AA9FED810A43
:100D600028EE000ADFED800A80EE201AB0EE41AADC
:100D7000B0EE4A0A0FF0F2FAFAEE030A40EE80AA49
:100D80009FED780A28EE000ADFED770A80EE201A40
:100D9000B0EE41AAB0EE4A0A0FF0EEFB5FED9F0AFB
:100DA00020EE20BA9FED6F0A28EE800ADFED6E0A72
:100DB00080EE201AB0EE41AAB0EE4A0A0FF0CEFA49
:100DC0004BEE00AA9FED670A28EE000ADFED660AE7
:100DD00080EE201AB0EE41AAB0EE4A0A0FF0BEFA39
:100DE0005FEDB10A40EE80AAC5ED00AA9FED5D0A55
:100DF00028EE800A10EE101A084610F0C3FE41ECEF
:100E00001E0B9FED5A0B53EC102B10F0A3FA41EC84
:100E10001D0BB0EE4D0AF0EE6D0A0FF049FBB0EE7F
:100E200040CAF0EE60CA9FED530B53EC102B51EC0F
:100E30001C0B10F07DFC41EC1A0B9DED000ADFED60
:100E4000490A20EE200ADFED480A80EE201A11EE52
:100E5000107A384610F096FE41EC1D0BB0EE4D0AAC
:100E6000F0EE6D0A0FF024FBB0EE40CAF0EE60CA5F
:100E70009FED420B53EC102B51EC1C0B10F058FC67
:100E800041EC1B0B53EC1A2B10F092FD41EC1F0BA5
:100E900010F07AF93060002005B0BDEC108BF0BD89
:100EA00070B52DED028B0446B0EE408A0D4600264B
:100EB00000EE104AB8EE400A04EB4400314901EB61
:100EC000C00080ED050A04EB440001EBC00080ED9A
:100ED000028A2D48007818B10120BDEC028B70BD4C
:100EE0000CB1042C01D90220F7E7B7EE000AB4EEEA
:100EF000C08AF1EE10FA01DD0320EEE71DB1012DED
:100F000001D00420E9E7E0B207F014FD0646A6B1DF
:100F10004DB9D6ED480A70EE880AB0EE600AE0B22C
:100F200009F069F80BE0D6ED480A70EEC80AB0EE99
:100F3000600AE0B209F05FF801E00520CDE700208B
:100F4000CBE72DE9F04706460F4690469946002428
:100F50000025012476E00000CDCCCC3DC02200204D
:100F6000CC220020DC0F4940000034430000000088
:100F7000008066400000000000606D4000000060DE
:100F8000669E70C05401002002000020204607F039
:100F9000D1FC0546F5B3012C06D0022C16D0032C4B
:100FA00026D0042C49D136E095ED480AFE48D0ED14
:100FB000070A30EE600AF2EE040A20EE200AD0EDB5
:100FC000060A80EE201A86ED001A37E095ED480AF1
:100FD000F548D0ED0D0A30EE600AF2EE040A20EE7C
:100FE000200AD0ED0C0A80EE201A87ED001A25E0C9
:100FF00095ED480AEC48D0ED130A30EE600AF2EEA7
:10100000040A20EE200AD0ED120A80EE201A88EDA4
:10101000001A13E013E095ED480AE348D0ED190AF1
:1010200030EE600AF2EE040A20EE200AD0ED180A33
:1010300080EE201A89ED001A00E000BF00E003E016
:10104000601CC4B2052CA1DB00BF052C02D001201E
:10105000BDE8F0870020FBE710B586B0142101A899
:101060000EF03CF8FF208DF804008DF805000020FC
:101070008DF806000B208DF80700CC48408C00123C
:101080008DF80800C94890F822008DF80900C7487B
:10109000808B032803D100208DF80A0004E0C348A8
:1010A00090F824008DF80A0001208DF80B00002034
:1010B0008DF80C0007210DF10600FFF721F9044619
:1010C000200E8DF80D00200C8DF80E00200A8DF8F2
:1010D0000F00E0B28DF810000D2101A80BF0C7F849
:1010E0000020B249487006B010BDF0B52DED028B5E
:1010F00085B00024AE480078002871D00020AC49AB
:10110000087001240EE00021204607F02CFC00B9F5
:1011100006E004F10A00C0B205B0BDEC028BF0BDE0
:10112000601CC4B2052CEEDB01240BE0002120463C
:1011300008F075FC00B903E004F11400C0B2EBE75D
:10114000601CC4B2052CF1DB012500BF2BE09748E1
:10115000801C405D012824D10027284607F0EAFBC7
:101160000746EFB197ED480A9048083000EB85003C
:10117000D0ED000A30EE600A10EE101A084610F0AA
:1011800001FD21F000419FED8B0B53EC102B10F073
:1011900093FA05D200218548801C4155FFF75CFF7A
:1011A00000BF681CC5B2052DD1DB01AB02AA03A9A3
:1011B00004A8FFF7C6FE06461EB180A00DF0B4FEDF
:1011C00059E0049810F0DEFC21F000419FED870B00
:1011D00053EC102B10F070FA03D29FED860A02E058
:1011E0004AE09DED040A8DED040A039810F0CAFC54
:1011F00021F000419FED7D0B53EC102B10F05CFAB9
:1012000002D29FED7C0A01E09DED030A8DED030AF9
:10121000029810F0B7FC21F000419FED740B53ECE5
:10122000102B10F049FA02D29FED720A01E09DEDF9
:10123000020A8DED020A019810F0A4FC21F0004191
:101240009FED6A0B53EC102B10F036FA02D29FED93
:10125000690A01E09DED010A8DED010A664A111F40
:10126000081FDDED011A9DED021ADDED030A9DED6B
:10127000040AFFF7ACFC00BF00204DE770B52DED70
:10128000028B0446B0EE408AF0EE608A0025E0B2A0
:1012900007F050FB0546002D48D000EE104AB8EE8E
:1012A000400A04EB4400404901EBC00080ED050A10
:1012B00004EB440001EBC00080ED038A04EB440022
:1012C00001EBC00090ED030ADFED4C0A80EE201A1E
:1012D00004EB440001EBC00080ED021A04EB440073
:1012E00001EBC000C0ED048A012C06D0022C09D00D
:1012F000032C0CD0042C14D10EE0012140480DF039
:10130000D1F80EE001213F480DF0CCF809E00121B1
:101310003D480DF0C7F804E001213C480DF0C2F84B
:1013200000BF00BF0020BDEC028B70BD6420FAE757
:1013300010B52DED0C8BB0EE408AF0EE608AB0EE69
:10134000419AF0EE619AB0EE42AAF0EE62AAB0EED7
:1013500043BAF0EE63BAB2EE040AC8EE000A1248CD
:1013600090ED061A90ED070A00EE810AB0EE40CA31
:10137000B2EE040AC8EE800A90ED0C1A90ED0D0A48
:1013800000EE810AF0EE40CAB2EE040AC9EE000A8D
:1013900090ED121A90ED130A00EE810AB0EE40DAD9
:1013A000B2EE040A34E0000054010020B402002030
:1013B000820000209A9999999999A93F20657272A3
:1013C0006F72207768696C6520696E2070726F6338
:1013D000657373696E6720706F736974696F6E20CF
:1013E000746F20616E676C650A0000007B14AE4765
:1013F000E17A843F000000005822002000007A4477
:101400000004004000080040001C00400020004094
:10141000C9EE800A90ED181A90ED190A00EE810AC3
:10142000F0EE40DAF0EE4C0AB0EE4A0A0120FFF787
:1014300025FFF0EE6C0AB0EE6A0A0220FFF71EFFED
:10144000F0EE4D0AB0EE4B0A0320FFF717FFF0EE67
:101450006D0AB0EE6B0A0420FFF710FF0020BDEC10
:101460000C8B10BD0FB52DED040BB1B01FED1F0A95
:101470008DED300A1FED210A8DED2F0A1FED230A95
:101480008DED2E0A1FED250A8DED2D0A2DAB2EAA0E
:101490002FA930A8FFF755FD2C902C9828B1FAA061
:1014A0000DF042FD012039B000BD00202A902B90A4
:1014B0009FEDFE0A8DED290A9DED310A20EE000A0E
:1014C000DDED320A00EEA00ADDED290A00EEE00AA9
:1014D0008DED090A9DED090A0FF016F98DED280A28
:1014E0009DED280ADDED320A60EE200A9DED290A05
:1014F0009DED311A40EE410A9DED310A20EE001AB1
:101500009DED320A00EE001A80EE810A8DED220A6E
:10151000229810F037FB21F000419FEDE50B53ECD2
:10152000102BCDE908019DED080B51EC100B10F0CC
:10153000FDF901D20220B6E79DED220A0EF078FEF9
:101540008DED210A9DED210ADFEDDB0A60EE200A18
:101550009FEDDA1A80EE810ADFEDD70AB4EEE00AD9
:10156000F1EE10FA06DD9DED210ADFEDD50A30EE31
:10157000600A09E09DED210ADFEDCF0A60EE200A46
:101580009FEDCE1A80EE810A8DED240A9DED210A91
:10159000DFEDC90A20EE200ADFEDC80A80EE201A2E
:1015A0009FEDC50A30EE410ADFEDC30AB4EEE00A52
:1015B000F1EE10FA12DD9DED210ADFEDBF0A20EEFB
:1015C000200ADFEDBE0A80EE201A9FEDBB0A30EE46
:1015D000410ADFEDBB0A30EE600A0DE09DED210A05
:1015E000DFEDB50A20EE200ADFEDB40A80EE201A06
:1015F0009FEDB10A30EE410A8DED250A9DED280AD6
:10160000B1EE400A8DED280A9DED280ADDED320A83
:1016100060EE200A9DED290A9DED311A40EE410A47
:101620009DED310A20EE001A9DED320A00EE001AFF
:1016300080EE810A8DED220A9DED220A0EF0F8FD62
:101640008DED210A9DED210ADFED9B0A20EE200A97
:10165000DFED9A0A80EE201A9FED970AB4EEC01AC9
:10166000F1EE10FA06DD9DED210ADFED950A30EE70
:10167000600A09E09DED210ADFED8F0A60EE200A85
:101680009FED8E1A80EE810A8DED260A9DED210ACE
:10169000DFED890A60EE200A9FED881A80EE810A4C
:1016A000DFED850A30EEC00ADFED830AB4EEE00A12
:1016B000F1EE10FA12DD9DED210ADFED7F0A20EE3A
:1016C000200ADFED7E0A80EE201A9FED7B0A30EEC5
:1016D000410ADFED7B0A30EE600A0DE09DED210A44
:1016E000DFED750A20EE200ADFED740A80EE201A85
:1016F0009FED710A30EE410A8DED270A01202090FE
:101700001F909FED700A8DED1E0A209042E01E98FA
:1017100010F038FACDE9080123A9209801EB8000E8
:1017200090ED000ADDED300A30EEC00A8DED050ABD
:10173000059810F027FA21F00041CDE906019DED52
:10174000080B53EC102B9DED060B51EC100B0FF01A
:10175000B3FF1BD220981F9023A9209801EB800093
:1017600090ED000ADDED300A30EEC00A8DED070A7B
:10177000079810F007FA21F00041CDE908019DED2E
:10178000080B51EC100B0FF0FFFC1E902098401C32
:10179000C0B2209020980528B9DB23A91F9801EB3F
:1017A000800090ED000A8DED1D0A9DF8A900012230
:1017B0001F998A401043C0B28DF8A9009DED310AEF
:1017C00020EE000ADDED320A00EEA00ADDED290A66
:1017D00000EEE00AB5EEC00AF1EE10FA01D20320E5
:1017E00061E61F98012802D01F98022814D19DEDB0
:1017F000310A20EE000ADDED320A00EEA00ADDED2E
:10180000290A00EEE00A8DED090A9DED090A0EF0A5
:101810007BFF8DED280A15E09DED310A20EE000AD0
:10182000DDED320A00EEA00ADDED290A00EEE00A45
:101830008DED090A9DED090A0EF066FFB1EE400A32
:101840008DED280A9DED1D0A359880ED000A9DED6D
:10185000310A20EE000ADDED320A00EEA00ADDEDCD
:10186000330A00EEA00ADDED290A00EEE00ADFED02
:10187000160A30EE600ADFED150A70EE600AB0EE6F
:10188000001A80EE810A23E0706F736974696F6ECD
:1018900020746F20616E676C652063616C63756C8A
:1018A000617465206572726F720A0000CDCCDB42F4
:1018B000000000000000F03F00003443DC0F49400E
:1018C0000000B4430000B94300B9574767178A477F
:1018D0009FEDFE1AC0EE010A9FEDFD1A80EE810A0F
:1018E0008DED070A079810F04DF921F000411FED2A
:1018F000100B53EC102BCDE908019DED080B51ECBA
:10190000100B10F013F801D20420CCE59DED310A44
:1019100020EE000ADDED320A00EEA00ADDED330A0A
:1019200000EEA00ADDED290A00EEE00A5FED1A0ADA
:1019300070EE600A1FED1B0A30EEC01AF0EE000ACE
:1019400081EE200A9FEDE11AC0EE010A9FEDE01A38
:1019500080EE810A8DED090A9DED090A0EF0DCFB8F
:101960008DED190A9DED190A5FED2D0A20EE200A72
:101970005FED2E0A80EE201A8DED1B1A9DED190ADF
:101980005FED330A20EE200A1FED341AC0EE010A83
:101990001FED370A70EE800A1FED390AF4EEC00A17
:1019A000F1EE10FA0CDD9DED190A5FED3D0A20EE17
:1019B000200A5FED3E0A80EE201AB1EE410A0DE0EA
:1019C0009DED190A5FED440A20EE200A1FED451A2D
:1019D000C0EE010A1FED480A30EE800A8DED1C0AA8
:1019E0009DED1C0ADDED2E0A30EEC00A8DED050AD4
:1019F000059810F0C7F821F00041CDE908019DEDF0
:101A00001B0ADDED2E0A30EEC00A8DED050A0598A1
:101A100010F0B8F821F00041CDE906019DED080B6A
:101A200053EC102B9DED060B51EC100B0FF044FE08
:101A300002D29DED1B0A01E09DED1C0A8DED190AF5
:101A40009DED1C0ADDED2E0A30EEC00A8DED050A73
:101A5000059810F097F821F00041CDE90801DDED7F
:101A60001B0A9DED2E0A30EE600A8DED050A0598E1
:101A700010F088F821F00041CDE906019DED080B3A
:101A800053EC102B9DED060B51EC100B0FF014FED8
:101A900006D29DF8AB0040F002008DF8AB0005E0E7
:101AA0009DF8AB0040F004008DF8AB009DED190AE5
:101AB000379880ED000A9DED190A5FED800A60EE0F
:101AC000200A1FED831A80EE810A8DED080A9DED34
:101AD000080A0EF043FCF0EE400A9FED7E0A9FEDEF
:101AE0007E1A01EE200A8DED090A9DED090A0EF01D
:101AF0000BFE8DED180ADDED280A9DED180A80EE2B
:101B0000801A8DED071A079810F03CF821F000417B
:101B10001FED990B53EC102BCDE908019DED080B3F
:101B200051EC100B0FF002FF2FD39DED190A5FED62
:101B30009D0A60EE200A1FEDA01A80EE810A8DED4D
:101B4000060A9DED060A0EF009FCF0EE400A9FED34
:101B50005F0A9FED5F1A01EE200ADDED180A80EEA4
:101B6000201A8DED071A079810F00CF821F00041AB
:101B70001FEDB10B53EC102BCDE908019DED080BC7
:101B800051EC100B0FF0D2FE01D205208BE49DED3D
:101B9000280ADDED180A80EE201A8DED091A9DED58
:101BA000090A0EF0B9FA8DED120A9DED190A5FEDE2
:101BB000BD0A60EE200A1FEDC01A80EE810A8DED8D
:101BC000080A9DED080A0EF0C9FBF0EE400A9FEDF1
:101BD0003F0A9FED3F1A01EE200ADDED180A80EE64
:101BE000201A8DED091A9DED090A0EF095FA8DED7A
:101BF000110ADDED120A9DED110A30EEC00A5FED0B
:101C0000D10AB4EEE00AF1EE10FA0ADD9DED120AF7
:101C1000DDED110A30EE600ADFED300A30EE600AC9
:101C200005E09DED120ADDED110A30EE600A8DED42
:101C3000140A9DED120ADDED110A30EE200A5FED67
:101C4000E10AB4EEE00AF1EE10FA0ADD9DED120AA7
:101C5000DDED110A30EE200ADFED200A30EE600AD9
:101C600005E09DED120ADDED110A30EE200A8DED42
:101C7000150A9DED120AF1EE400A9DED110A30EEB3
:101C8000C00A5FEDF20AB4EEE00AF1EE10FA0CDDE4
:101C90009DED120AF1EE400A9DED110A30EEC00AE8
:101CA000DFED0E0A30EE600A07E09DED120AF1EE5C
:101CB000400A9DED110A30EEC00A8DED160A9DED29
:101CC000120AF1EE400A9DED110A09E000006B4393
:101CD00033F38443E7F3F5478016F447DC0FC9403C
:101CE00030EE800ADFEDFE0AB4EEE00AF1EE10FA03
:101CF0000CDD9DED120AF1EE400A9DED110A30EE69
:101D0000800A5FED0A0A30EE600A07E09DED120AD4
:101D1000F1EE400A9DED110A30EE800A8DED170AB2
:101D20009FEDF00A8DED100A0120209052E01098EE
:101D30000FF028FFCDE9080113A9209801EB8000DE
:101D4000D0ED000A9FEDE80A20EE801A9FEDE40A2C
:101D5000C1EE000A9DED2F0A30EE600A8DED050AF6
:101D600005980FF00FFF21F00041CDE906019DED30
:101D7000080B53EC102B9DED060B51EC100B0FF0E4
:101D80009BFC23D220981F9013A9209801EB800080
:101D900090ED000ADFEDD40A20EE200A9FEDD01A64
:101DA000C0EE010A9DED2F0A30EE600A8DED070AA4
:101DB00007980FF0E7FE21F00041CDE908019DED05
:101DC000080B51EC100B0FF0DFF910902098401C1D
:101DD000C0B2209020980528A9DB9DF8AA00012216
:101DE0001F998A401043C0B28DF8AA0013A91F980A
:101DF00001EB800090ED000ADFEDBB0A20EE200A27
:101E0000DFEDB70A80EE201A369880ED001A36987A
:101E100090ED000ADFEDB50A30EEC00A3798D0ED3C
:101E2000000A30EE600A8DED0C0A3698D0ED000AFB
:101E30009FEDAD0A70EE600A379890ED000A30EE23
:101E4000C00A8DED0D0A369890ED000ADFEDA80A64
:101E500070EEC00A379890ED000A30EEC00A8DEDA2
:101E60000E0A3698D0ED000AA24890ED000A30EE36
:101E7000600A3798D0ED000A30EE600A8DED0E0A48
:101E80009FED980A8DED0A0A0120209042E00A9801
:101E90000FF078FECDE908010BA9209801EB800036
:101EA000D0ED000A9DED2D0A30EE600A8DED050A99
:101EB00005980FF067FE21F00041CDE906019DED88
:101EC000080B53EC102B9DED060B51EC100B0FF093
:101ED000F3FB1BD220981F900BA9209801EB8000E8
:101EE00090ED000ADDED2D0A30EEC00A8DED070AF7
:101EF00007980FF047FE21F00041CDE908019DED64
:101F0000080B51EC100B0FF03FF90A902098401C81
:101F1000C0B2209020980428B9DB0BA91F9801EBD0
:101F2000800090ED000A389880ED000A9DF8AC0022
:101F300001221F998A401043C0B28DF8AC006E4850
:101F4000007801287ED1389890ED000A8DED050AC1
:101F5000379890ED000A8DED040A369890ED000A4E
:101F60008DED030A359890ED000A8DED020A07AA5F
:101F700008A909A8DDED051A9DED041ADDED030A97
:101F80009DED020AFEF723FE00200690F0E306987E
:101F9000032813DD594890ED000A594880ED0F0AD7
:101FA000564890ED010A564880ED100A534890EDCE
:101FB000020A534880ED110A082011E49DED280A19
:101FC000DDED320A60EE200A9DED290A9DED311A01
:101FD00040EE410A9DED310A20EE001A9DED320AD5
:101FE00000EE001A80EE810A8DED220A22980FF091
:101FF000C9FD21F000419FED430B53EC102BCDE9BF
:1020000004019DED040B51EC100B0FF08FFC01D27D
:1020100002207AE49DED220A0EF00AF98DED210AE4
:102020009DED210ADFED300A60EE200A9FED2C1AAB
:1020300080EE810ADFED2C0AB4EEE00AF1EE10FA30
:1020400008DD00E0FEE39DED210ADFED290A30EE18
:10205000600A09E09DED210ADFED230A60EE200A07
:102060009FED1F1A80EE810A8DED240A9DED210A55
:10207000DFED1D0A60EE200A9FED191A80EE810A3D
:10208000DFED190A30EEC00ADFED170AB4EEE00A00
:10209000F1EE10FA12DD9DED210ADFED130A60EE7C
:1020A000200A9FED0F1A80EE810ADFED0F0A30EE55
:1020B000C00ADFED0F0A30EE600A0DE09DED210A47
:1020C000DFED090A60EE200A9FED051A80EE810A15
:1020D000DFED050A30EEC00A8DED250A16E000009E
:1020E000DC0F49400000B943000034430000000009
:1020F0000000B4431C0000204500002050220020B6
:10210000B4020020000000000000F03F9DED280A0E
:10211000B1EE400A8DED280A9DED280ADDED320A68
:1021200060EE200A9DED290A9DED311A40EE410A2C
:102130009DED310A20EE001A9DED320A00EE001AE4
:1021400080EE810A8DED220A9DED220A0EF070F8D4
:102150008DED210A9DED210A5FED1D0A20EE200A7A
:102160001FED211AC0EE010A1FED210AF4EEC00A8C
:10217000F1EE10FA06DD9DED210A5FED230A30EE47
:10218000600A09E09DED210A5FED290A60EE200A50
:102190001FED2D1A80EE810A8DED260A9DED210A94
:1021A0005FED2F0A60EE200A1FED331A80EE810AE0
:1021B0005FED330A30EEC00A5FED350AB4EEE00A97
:1021C000F1EE10FA12DD9DED210A5FED390A60EEA5
:1021D000200A1FED3D1A80EE810A5FED3D0A30EEC8
:1021E000C00A5FED3D0A30EE600A0DE09DED210A68
:1021F0005FED430A60EE200A1FED471A80EE810A68
:102200005FED470A30EEC00A8DED270A01202090CD
:102210001F901FED4C0A8DED1E0A209049E01E987C
:102220000FF0B0FCCDE9040123A9209801EB800058
:1022300090ED000ADDED300A30EEC00A8DED010AA6
:1022400001980FF09FFC21F00041CDE902019DEDC6
:10225000040B53EC102B9DED020B51EC100B0FF007
:102260002BFA22D29DF8A9000121209A9140084022
:10227000D8B920981F9023A9209801EB800090EDF9
:10228000000ADDED300A30EEC00A8DED030A039836
:102290000FF078FC21F00041CDE904019DED040B25
:1022A00051EC100B0EF070FF1E902098401CC0B235
:1022B000209020980528B2DB23A91F9801EB80000D
:1022C00090ED000A8DED1D0A9DED310A20EE000A09
:1022D000DDED320A00EEA00ADDED290A00EEE00A8B
:1022E000B5EEC00AF1EE10FA01D203204EE41F98B9
:1022F000012802D01F98022814D19DED310A20EE4A
:10230000000ADDED320A00EEA00ADDED290A00EE3A
:10231000E00A8DED050A9DED050A0EF0F5F98DED4B
:10232000280A15E09DED310A20EE000ADDED320AA3
:1023300000EEA00ADDED290A00EEE00A8DED050AA7
:102340009DED050A0EF0E0F9B1EE400A8DED280A88
:102350009DF8A90001211F9A91400843C0B28DF851
:10236000A9009DED1D0A359880ED000A9DED310A0A
:1023700020EE000ADDED320A00EEA00ADDED330AA0
:1023800000EEA00ADDED290A00EEE00ADFEDF90A11
:1023900030EE600ADFEDF80A70EE600AB0EE001A67
:1023A00080EE810A9FEDF51AC0EE010A9FEDF41A46
:1023B00080EE810A8DED030A03980FF0E3FB21F014
:1023C00000411FEDB00B53EC102BCDE904019DED46
:1023D000040B51EC100B0FF0A9FA01D20420ECE52C
:1023E0009DED310A20EE000ADDED320A00EEA00A72
:1023F000DDED330A00EEA00ADDED290A00EEE00A69
:10240000DFEDDC0A30EE600ADFEDDB0A70EE600A19
:10241000B0EE001A80EE810A9FEDD81AC0EE010AD4
:102420009FEDD71A80EE810A8DED050A9DED050A14
:102430000DF072FE8DED190A9DED190A5FEDD60AB9
:1024400020EE200A5FEDDA0A80EE201A8DED1B1ACD
:102450009DED190A5FEDDC0A60EE200A1FEDE01A1F
:1024600080EE810A5FEDE00A30EE200A5FEDE20ABD
:10247000B4EEE00AF1EE10FA0CDD9DED190A5FED05
:10248000E60A20EE200A5FEDEA0A80EE201AB1EE9D
:10249000410A0DE09DED190A5FEDED0A60EE200A9C
:1024A0001FEDF11A80EE810A5FEDF10A30EE200A8D
:1024B0008DED1C0A012020901F901FEDF60A8DED76
:1024C0001E0A209049E01E980FF05CFBCDE9040144
:1024D00023A9209801EB8000D0ED000A9DED2E0A83
:1024E00030EE600A8DED010A01980FF04BFB21F0F0
:1024F0000041CDE902019DED040B53EC102B9DED45
:10250000020B51EC100B0FF0D7F822D29DF8AB0064
:10251000012220998A401040D8B920981F9023A901
:10252000209801EB800090ED000ADDED2E0A30EEE0
:10253000C00A8DED030A03980FF024FB21F000413F
:10254000CDE904019DED040B51EC100B0EF01CFEC7
:102550001E902098401CC0B2209020980328B2DB27
:102560009DF8AB00012220998A401043C0B28DF83B
:10257000AB009DED190A379880ED000A9DED190A10
:10258000DFED800A60EE200A9FED7F1A80EE810A5F
:102590008DED040A9DED040A0DF0E0FEF0EE400A18
:1025A0009FED7A0A9FED7A1A01EE200A8DED050A59
:1025B0009DED050A0EF0A8F88DED180ADDED280A4C
:1025C0009DED180A80EE801A8DED031A03980FF026
:1025D000D9FA21F000419FED6F0B53EC102BCDE9A0
:1025E00004019DED040B51EC100B0FF09FF92FD35C
:1025F0009DED190ADFED630A60EE200A9FED621A75
:1026000080EE810A8DED020A9DED020A0DF0A6FE14
:10261000F0EE400A9FED590A9FED591A01EE200A8B
:102620009DED181AC0EE010ACDED030A03980FF0D4
:10263000A9FA21F000419FED570B53EC102BCDE987
:1026400004019DED040B51EC100B0FF06FF901D25A
:102650000520B2E49DED280A9DED181AC0EE010A8E
:10266000CDED050A9DED050A0DF056FD8DED120A22
:102670009DED190ADFED430A60EE200A9FED421A34
:1026800080EE810A8DED040A9DED040A0DF066FED0
:10269000F0EE400A9FED390A9FED391A01EE200A4B
:1026A0009DED181AC0EE010ACDED050A9DED050A53
:1026B0000DF032FD8DED110A9DED120ADDED110ACE
:1026C00030EE600ADFED2F0AB4EEE00AF1EE10FA08
:1026D0000ADD9DED120ADDED110A30EE600ADFED34
:1026E0002F0A30EE600A05E0DDED120A9DED110AB9
:1026F00030EEC00A8DED140A9DED120ADDED110ACF
:1027000030EE200ADFED1F0AB4EEE00AF1EE10FA17
:102710000ADD9DED120ADDED110A70EE200A9FED33
:102720001F0A30EEC00A05E09DED120ADDED110A28
:1027300030EE200A8DED150A9DED120AF1EE400AE9
:102740009DED110A30EEC00ADFED0E0AB4EEE00A8C
:10275000F1EE10FA24DD9DED120AF1EE400A9DED36
:10276000110A30EEC00ADFED0D0A30EE600A1FE0FC
:102770008AE1000000B9574767178A4700006B439A
:1027800033F38443DC0F494000003443E7F3F5475B
:102790008016F447000000000000F03FDC0FC94045
:1027A0009DED120AF1EE400A9DED110A30EEC00ACD
:1027B0008DED160A9DED120AF1EE400A9DED110A0B
:1027C00070EE800A1FED110AF4EEC00AF1EE10FA65
:1027D0000CDD9DED120AF1EE400A9DED110A30EE7E
:1027E000800A5FED120A30EE600A07E09DED120AE2
:1027F000F1EE400A9DED110A30EE800A8DED170AC8
:102800009FEDF70A8DED100A012020905BE01098F3
:102810000FF0B8F9CDE9040113A9209801EB80006D
:1028200090ED000A5FED280A20EE200A5FED2B0AEA
:1028300080EE201A9DED2F0A30EE410A8DED010A3F
:10284000019800E070E10FF09DF921F00041CDE921
:1028500002019DED040B53EC102B9DED020B51EC8E
:10286000100B0EF029FF2AD29DF8AA000122209910
:102870008A40104018BB20981F9013A9209801EBA4
:10288000800090ED000A5FED400A60EE200A1FED27
:10289000431A80EE810ADDED2F0A30EEC00A8DED7D
:1028A000030A03980FF06EF921F00041CDE904010D
:1028B0009DED040B51EC100B0EF066FC109020986F
:1028C000401CC0B2209020980528A0DB9DF8AA00EB
:1028D00001221F998A401043C0B28DF8AA0013A9A3
:1028E0001F9801EB800090ED000A5FED590A20EE81
:1028F000200A5FED5C0A80EE201A369880ED001AFF
:10290000369890ED000ADFEDB70A30EEC00A37982E
:10291000D0ED000A30EE600A8DED0C0A369890ED8D
:10292000000A5FED670A30EEC00A3798D0ED000A62
:1029300030EE600A8DED0D0A369890ED000ADFED5D
:10294000AA0A70EEC00A379890ED000A30EEC00A6D
:102950008DED0E0A3698D0ED000AA44890ED000ADD
:1029600070EE600A379890ED000A30EEC00A8DEDE7
:102970000E0A9FED9B0A8DED0A0A0120209049E086
:102980000A980FF0FFF8CDE904010BA9209801EB9C
:10299000800090ED000ADDED2D0A30EEC00A8DEDCD
:1029A000010A01980FF0EEF821F00041CDE9020193
:1029B0009DED040B53EC102B9DED020B51EC100B15
:1029C0000EF07AFE22D29DF8AC00012220998A40B6
:1029D0001040D8B920981F900BA9209801EB8000D7
:1029E00090ED000ADDED2D0A30EEC00A8DED030AF0
:1029F00003980FF0C7F821F00041CDE904019DEDE7
:102A0000040B51EC100B0EF0BFFB0A902098401CF9
:102A1000C0B2209020980428B2DB0BA91F9801EBCC
:102A2000800090ED000A389880ED000A9DF8AC0017
:102A300001221F998A401043C0B28DF8AC0038982B
:102A400090ED000A8DED050A379890ED000A8DEDA6
:102A5000040A369890ED000A8DED030A359890ED42
:102A6000000A8DED020A07AA08A909A8DDED051ADA
:102A70009DED041ADDED030A9DED020AFEF7A7F8AD
:102A80000698401CC0B20690DDED090A9DED310AA2
:102A900030EEC00A8DED030A03980FF073F821F0B1
:102AA00000419FED530B53EC102BCDE904019DED3C
:102AB000040B51EC100B0EF039FFFFF468AADDEDAA
:102AC000080A9DED320A30EEC00A8DED030A039824
:102AD0000FF058F821F000419FED450B53EC102BFF
:102AE000CDE904019DED040B51EC100B0EF01EFF1F
:102AF000E3D3DDED070A9DED330A30EEC00A8DED1C
:102B0000030A03980FF03EF821F000419FED380BC7
:102B100053EC102BCDE904019DED040B51EC100B8F
:102B20000EF004FFC9D300BF00BF002057E42DE919
:102B3000F04792B03048808C052806D006284ED049
:102B400007287CD008287BD1DBE2342105A80CF0D3
:102B5000C5FAFF208DF814008DF8150000208DF8BF
:102B600016002548807F401F00EB80000930C0B26E
:102B70008DF817002048408C00128DF818001E4870
:102B800090F822008DF8190005208DF81A000DF13B
:102B90001B044FF00008184890F82660002505E057
:102BA00006F0010008B1681CC5B27610002EF7DCF3
:102BB0001148C08B401FA84205D010480CF0B4F952
:102BC00012B0BDE8F08700250B4890F8266004ABF2
:102BD00003AA02A901A8FEF7B4F9A84666E08CE0B2
:102BE0000000B943000000000000B4431C000020B6
:102BF0009A9999999999C93FB4020020A41800089C
:102C000009E006F0010018B1681CC5B2761004E0B6
:102C1000681CC5B27610002EF3DC00BF04F8015B1F
:102C2000684600EB850090ED000ADFEDFE0A20EE1D
:102C3000200ABDEEC00A10EE100A000E01E037E1D6
:102C40005EE204F8010B684600EB850090ED000A97
:102C5000DFEDF40A20EE200ABDEEC00A10EE100AE5
:102C6000000C04F8010B684600EB850090ED000AAB
:102C7000DFEDEC0A20EE200ABDEEC00A10EE100ACD
:102C8000000A04F8010B684600EB850090ED000A8D
:102C9000DFEDE40A20EE200ABDEEC00A10EE100AB5
:102CA00004F8010B08F1010000F0FF08DE48C08BBA
:102CB000401F4045A4DCDC48C08B401F00EB800077
:102CC000401D81B20DF11600FDF71AFB0746380EC4
:102CD00004F8010B380C04F8010B380A04F8010B56
:102CE00004F8017BD048C08B401F00EB80000B3004
:102CF00081B205A809F0BBFA9EE2342105A80CF0C8
:102D0000EDF9FF208DF814008DF8150000208DF8E6
:102D10001600C548807F401F00EB80000930C0B21C
:102D20008DF81700C048408C00128DF81800BE487E
:102D300090F822008DF8190006208DF81A000DF188
:102D40001B044FF0000AB84890F82660002505E003
:102D500006F0010008B1681CC5B27610002EF7DC41
:102D6000B148C08B401FA84203D0B0480CF0DCF83B
:102D700026E70025AC4890F82660A846A9464FF003
:102D8000010815E0404605F0D5FD8146B9F1000F78
:102D90000AD099ED470AF1EE080A80EE201A68463B
:102DA00000EB880080ED001A08F1010000F0FF0838
:102DB000B8F1050FE6DB4FF0000A52E009E006F03B
:102DC000010018B1681CC5B2761004E0681CC5B2D9
:102DD0007610002EF3DC00BF04F8015B684600EBC0
:102DE000850090ED000ADFED8F0A20EE200ABDEE8F
:102DF000C00A10EE100A000E04F8010B684600EB42
:102E0000850090ED000ADFED870A20EE200ABDEE76
:102E1000C00A10EE100A000C04F8010B684600EB23
:102E2000850090ED000ADFED7F0A20EE200ABDEE5E
:102E3000C00A10EE100A000A04F8010B684600EB05
:102E4000850090ED000ADFED770A20EE200ABDEE46
:102E5000C00A10EE100A04F8010B0AF1010000F09C
:102E6000FF0A7148C08B401F5045A7DC6E48C08BDD
:102E7000401F00EB8000401D81B20DF11600FDF7F0
:102E80003FFA0746380E04F8010B380C04F8010B22
:102E9000380A04F8010B04F8017B6348C08B401F1B
:102EA00000EB80000B3081B205A809F0E0F9C3E126
:102EB000342105A80CF012F9FF208DF814008DF8CC
:102EC000150000208DF8160021208DF817005648B7
:102ED000408C00128DF81800534890F822008DF8AD
:102EE000190007208DF81A000DF11B041421684603
:102EF0000CF0F4F804AB03AA02A901A8FEF721F82C
:102F0000002004F8010B04F8010B04F8010B04F88D
:102F1000010B9DED020ADDED030A30EE200ADDED26
:102F2000040A30EE200ADFED3F0A20EE200ABDEE53
:102F3000C00A10EE105A280E04F8010B280C04F8F1
:102F4000010B280A04F8010B04F8015B9DED010A4E
:102F5000DFED340A20EE200ABDEEC00A10EE106A42
:102F6000300E04F8010B300C04F8010B300A04F8A1
:102F7000010B04F8016B2E4890ED000ADFED2D0ADD
:102F800020EE200ABDEEC00A10EE100A000E04F872
:102F9000010B274890ED000ADFED260A20EE200AFB
:102FA000BDEEC00A10EE100A000C04F8010B204818
:102FB00090ED000ADFED1F0A20EE200ABDEEC00AE8
:102FC00010EE100A000A04F8010B194890ED000AEF
:102FD000DFED180A20EE200ABDEEC00A10EE100A3E
:102FE00004F8010B124890ED010ADFED120A20EE01
:102FF000200ABDEEC00A10EE100A000E04F8010B04
:103000000B4890ED010ADFED0B0A20EE200ABDEE21
:10301000C00A10EE100A000C04F8010B044890EDF1
:10302000010A09E000401C46B4020020A418000870
:10303000502200200000C8425FED020A20EE200A64
:10304000BDEEC00A10EE100A000A04F8010BFE489B
:1030500090ED010A5FED090A20EE200ABDEEC00ADC
:1030600010EE100A04F8010BF74890ED020A5FED2C
:103070000F0A20EE200ABDEEC00A10EE100A000E64
:1030800004F8010BF04890ED020A5FED160A20EEFD
:10309000200ABDEEC00A10EE100A000C04F8010B65
:1030A000E94890ED020A5FED1D0A20EE200ABDEE10
:1030B000C00A10EE100A000A04F8010BE24890ED75
:1030C000020A5FED240A20EE200ABDEEC00A10EECF
:1030D000100A04F8010B1D210DF11600FDF710F97F
:1030E0000746380E04F8010B380C04F8010B380AB7
:1030F00004F8010B04F8017B232105A809F0B7F8B7
:103100009AE0342105A80BF0E9FFFF208DF81400A8
:103110008DF8150000208DF81600CC48807F001D2A
:10312000C0B28DF81700C948408C00128DF8180005
:10313000C64890F822008DF8190008208DF81A0072
:103140000DF11B044FF0000AC04890F826500027EC
:1031500005E005F0010008B1781CC7B26D10002D24
:10316000F7DCBA48C08B401FB84203D0B8480BF018
:10317000DBFE25E50027B54890F82650B846B9464D
:103180004FF0010815E0404605F0D4FB8146B9F147
:10319000000F0AD0B9F8080100EE100AB8EE400A94
:1031A000684600EB880080ED000A08F1010000F09D
:1031B000FF08B8F1050FE6DB4FF0000A1CE009E05C
:1031C00005F0010018B1781CC7B26D1004E0781C3E
:1031D000C7B26D10002DF3DC00BF684600EB87001E
:1031E00090ED000ABDEEC00A10EE100A04F8010BC3
:1031F0000AF1010000F0FF0A9448C08B401F5045BF
:10320000DDDC9248C08B81B20DF11600FDF778F835
:103210000646300E04F8010B300C04F8010B300A9E
:1032200004F8010B04F8016B8848C08B801D81B243
:1032300005A809F01CF800BF00BF00BFC0E47FB5BF
:103240000546022D3CD0032D76D100200090019040
:1032500002900390FF208DF800008DF801000020FF
:103260008DF802000B208DF803007848408C001286
:103270008DF80400754890F822008DF805000020B4
:103280008DF806008DF807008DF8080007210DF174
:103290000200FDF735F80446200E8DF80900200CD9
:1032A0008DF80A00200A8DF80B00E0B28DF80C00B2
:1032B0000D21684608F0DBFF0120644948703BE0BF
:1032C00000200090019002900390FF208DF80000F4
:1032D0008DF8010000208DF802000B208DF803000E
:1032E0005A48408C00128DF80400584890F822008B
:1032F0008DF8050009208DF8060000208DF80700E4
:103300008DF8080007210DF10200FCF7F9FF0446D3
:10331000200E8DF80900200C8DF80A00200A8DF887
:103320000B00E0B28DF80C000D21684608F09FFFFD
:1033300001204649487000BF00BF7FBD10B586B070
:10334000142101A80BF0CAFEFF208DF804008DF8AF
:10335000050000208DF806000B208DF807003B4883
:10336000408C00128DF80800384890F822008DF843
:1033700009003648808B032803D100208DF80A000D
:1033800004E0324890F824008DF80A0001208DF8FE
:103390000B008DF80C0007210DF10600FCF7B0FFC3
:1033A0000446200E8DF80D00200C8DF80E00200A2A
:1033B0008DF80F00E0B28DF810000D2101A808F083
:1033C00056FF00202149487006B010BD00B5DDB0A1
:1033D00020E0204800680078FF2806D11D480068DA
:1033E00040680078FF2800D115E01A4800681A49A3
:1033F0000968884202D101205DB000BD0020154956
:1034000009680870134909684870124800684068E4
:1034100010490860DDE700BF0E4800680078FF280B
:1034200040F0F6870B48006840680078FF28F7D125
:103430000120064908700020299006490968087093
:1034400004490968487009E050220020B4020020B5
:10345000A41800082400002028000020FE4800686E
:103460004068FD490860002009680870FA49096849
:103470004870F94800684068F749086015E0002086
:103480002590022008F002FE2599481C2590282945
:103490000ADD0021F04800684170EF48006840688C
:1034A000ED4908600220A7E700BFEB4800684078BC
:1034B0000028E4D0E848006802782998411CC9B285
:1034C00029912AA90A540020E34909684870E24872
:1034D00000684168E048016015E000202590022066
:1034E00008F0D4FD2599481C259028290ADD0020E4
:1034F000D94909684870D84800684168D6480160D1
:10350000022079E700BFD448006840780028E4D062
:10351000D148006802782998411CC9B229912AA98A
:103520000A540020CC4909684870CB4800684068BC
:10353000C94908609DF8A9009DF8A81040EA01203B
:103540002890289806280DDA0021C34800684170A9
:10355000C14800684068C0490860C0A00BF0E4FCA6
:10356000032049E72EE00020259013E0022008F018
:103570008DFD2598411C89B225913C280ADD00214A
:10358000B54800684170B44800684068B2490860B6
:10359000022031E7B048006840780028E6D0AE4805
:1035A000006801782AAA299811540021AA480068C5
:1035B0004170A94800684168A74801602998401CEB
:1035C000C0B22990DDE928108842CCDB2898001F82
:1035D00080B2014625902AA8FCF792FE2790A4A06D
:1035E00027990BF0A1FC2898001F2AA9085C010666
:1035F0002898C01E2AAA105C41EA00412898801E23
:10360000105C41EA00212898401E105C0843269077
:10361000DDE92610884204D099A00BF085FC042037
:10362000EAE60021994801702898001F9749C8834D
:103630009DF8AA0040EA0021944841849DF8AC100E
:103640008184808C012803DB9048808C04280FDD66
:103650008E48808C0A280BD08C48808C0B2807D091
:103660008A48808C0C2803D08848808C0D2877D11C
:103670008648808C0146259085A00BF055FC0320E0
:103680008249888300218148C184808C0E2856D2CB
:10369000DFE810F055009801EE01430207055500E0
:1036A00055005500550055000E0056008C003201A3
:1036B0007648007F2390FFF7C2FD0DF1AD00259005
:1036C0000020249024902BE025980078012820D118
:1036D0006E48C08C012224998A40104381B26B4805
:1036E000C1842498401C042813DC2498401CC0B2D8
:1036F000239006F02CFB02E00A2008F00FFD24982E
:10370000401CC0B201220621239006F0DAFB0028FB
:10371000F2D12598401C25902498401CC0B22490DA
:103720005A48C08B401F24998842CDDC5748C08C32
:103730000F2802DD5FA00BF0F7FBFDF78DFCEEE339
:103740005248007F2390FFF77AFD0DF1AD002590E0
:1037500000202490FF204D49C884002024901CE0C4
:10376000FDE32598007888B94848C08C0022249948
:103770008A4010404549C8842498401C042805DC30
:103780002498401CC0B2239006F053FB2598401C9F
:1037900025902498401CC0B224903C48C08B401F08
:1037A00024998842DDDCFDF757FCC8E73748007FE5
:1037B0002390FFF744FD0DF1AD00259000202490EB
:1037C000FF213248C184002024903BE025980078F6
:1037D00088BB2E48C08C002224998A4010402B4977
:1037E000C8842498401C042825DC2498401CC0B2BE
:1037F0009FED3E0A239007F03EF82498401CC0B28B
:1038000001220621239006F05CFB002138480AF0D3
:1038100049FE384890ED000A1C4880ED0F0A3548F3
:1038200090ED010A194880ED100A324890ED020A25
:10383000164880ED110A2598401C25902498401CBC
:10384000C0B224901148C08B401F24998842BDDC2F
:10385000FDF702FC73E7000024000020646174613E
:10386000206C656E677468206572726F720A000062
:1038700043524320726573756C74202025780A00CA
:10388000637263206572726F720A0000B4020020D6
:10389000636F6E74726F6C206672616D652C20664A
:1038A000756E6374696F6E20636F64652020256494
:1038B0000A0000007761726E696E6720746F6F2076
:1038C0006D756368206D6F746F722C20656E616218
:1038D0006C65203120746F2034206D6F746F7220FE
:1038E000616C72656164790A0000000000000000EC
:1038F0000010004050220020FE48007F2490FFF777
:103900009EFC9DF8AD0025902598042803DDFAA0C3
:103910000BF00AFB55E0FCA00BF006FB0020249006
:103920009DF8AE0000069DF8AF1040EA01419DF8F9
:10393000B00041EA00209DF8B11008432490002017
:103940002390259804F0F6FF2390239890B301224A
:10395000E848801C259942549DED240AB8EEC00A1F
:103960009FEDEF1AC0EE010A239890ED480A30EE61
:10397000800AE0480830259900EB810080ED000ABC
:103980009DED240AB8EEC00ADFEDE50A80EE201AAC
:10399000239890ED480A31EE000A8DED220A9DED44
:1039A000220A259806F027FB28B10022D148801C66
:1039B0002599425404E0CF48007F2290FFF73FFC56
:1039C00000BFBCE69DF8AD0025902598042803DDD6
:1039D000C9A00BF0A9FA4AE0D2A00BF0A5FA00208A
:1039E00024909DF8AE0000069DF8AF1040EA01411A
:1039F0009DF8B00041EA00209DF8B11008432490E2
:103A000000202390259804F095FF2390239838B345
:103A10000122B848801C259942549DED240AB8EE35
:103A2000C00ADFEDBF0A80EE201A801D259900EB49
:103A3000810080ED001A9DED240AF8EEC00A9FED8A
:103A4000B81A80EE810A8DED220A9DED220A259892
:103A500006F0D1FA28B10022A648801C25994254CC
:103A600004E0A448007F2290FFF7E9FB00BF56E284
:103A7000B1A00BF059FA002025909DF8AE00000689
:103A80009DF8AF1040EA01409DF8B01040EA0120D7
:103A90009DF8B110084325909DF8AD00249024981E
:103AA000012839DB2498042836DC012202212498DD
:103AB00006F007FA9DED250AF8EEC00A9FED981A68
:103AC00080EE810A8DED230A23980EF05BF821F039
:103AD00000419FED9E0B53EC102BCDE920019DED95
:103AE000200B51EC100B0DF0E7FD14D29DED230AD5
:103AF000F1EE080A20EE200A8DED220A9DED220A41
:103B0000249806F0B8FE30B97A48007F2290FFF77B
:103B100096FBFDF7A1FA00BFF0E38EA00BF004FACC
:103B200022AB23AA24A925A8FDF70BFA9DED240AB0
:103B3000DDED230A30EE200ADDED220A30EE200A08
:103B40008C4880ED000A9DF8AE0000069DF8AF108D
:103B500040EA01419DF8B00041EA00209DF8B11013
:103B6000084321909DED210AF8EEC00A9FED821ACC
:103B700080EE810A8DED200A9DF8AD001F901F9800
:103B800006285DD2DFE800F0035DB4B3B2B10021D6
:103B90007A480AF087FC7A4890ED000A554880ED93
:103BA0000F0A20980DF0EEFF21F00041CDE91A0137
:103BB0007348406817900DF0E5FFCDE918019DEDC1
:103BC0001A0B53EC102B9DED180B51EC100B0DF054
:103BD0000DFBCDE91C019DED1C0B51EC100B0DF004
:103BE000D3FA44490864664890ED020A084680ED1D
:103BF000110A406C17900DF0C5FFCDE91C013D483E
:103C0000006C17900DF0BEFFCDE91A013948C06B6A
:103C100017900DF0B7FFCDE91801DDE91C01CDE9E2
:103C20000201DDE91A01CDE900019DED180B53EC0D
:103C3000102B54A00BF078F9012150480AF032FC07
:103C400028E200214D480AF02DFC4D4890ED000A75
:103C5000284880ED0F0A20980DF094FF21F00041D4
:103C6000CDE91A014648406817900DF08BFFCDE969
:103C700018019DED1A0B53EC102B9DED180B51EC18
:103C8000100B0DF095FECDE91C019DED1C0B51ECC8
:103C9000100B0DF079FA17490864394890ED020AC3
:103CA000084680ED110A406C17900DF06BFFCDE9CE
:103CB0001C011048006C17900DF064FFCDE91A014B
:103CC0000C48C06B17900DF05DFFCDE91801DDE9E0
:103CD0001C01CDE90201DDE91A01CDE900019DEDEC
:103CE000180B53EC102B27A05CE077E118E1BBE048
:103CF0005FE00000B40200206D6F746F7220696491
:103D0000206572726F720A0072656C20706F736941
:103D100074696F6E2C20636D6431330A00000000FB
:103D200000401C4661627320706F736974696F6E26
:103D30002C20636D64310A00636D6420322C207383
:103D40007065656420636D640A0000000000000077
:103D500000002440636D6420332C2072656C617414
:103D600069766520706F736974696F6E20636D6426
:103D70000A0000001C0000200000C84200100040A3
:103D80005022002074617267657420706F736974CB
:103D9000696F6E2069732025662C2025662C2025EE
:103DA000660A00000BF0C0F80121FE480AF07AFB19
:103DB00070E10021FB480AF075FB20980DF0E2FE4F
:103DC00021F00041CDE91A01F748006817900DF085
:103DD000D9FECDE918019DED1A0B53EC102B9DED8A
:103DE000180B51EC100B0DF0E3FDCDE91C019DED1E
:103DF0001C0B51EC100B0DF0C7F9EC49C863EA48F5
:103E000090ED010A084680ED100AE74890ED020A9D
:103E1000084680ED110A406C17900DF0B3FECDE915
:103E20001C01E248006C17900DF0ACFECDE91A01C0
:103E3000DE48C06B17900DF0A5FECDE91801DDE955
:103E40001C01CDE90201DDE91A01CDE900019DED7A
:103E5000180B53EC102BAFF2D4000BF065F80121D6
:103E6000D0480AF01FFB15E10021CE480AF01AFBEA
:103E700020980DF087FE21F00041CDE91A01CA48D3
:103E8000006817900DF07EFECDE918019DED1A0B2C
:103E900053EC102B9DED180B51EC100B0DF0A6F907
:103EA000CDE91C019DED1C0B51EC100B0DF06CF9D4
:103EB000BE49C863BC4890ED010A084680ED100A6F
:103EC000B94890ED020A084680ED110A406C17903F
:103ED0000DF058FECDE91C01B448006C17900DF0B0
:103EE00051FECDE91A01B148C06B17900DF04AFEA2
:103EF000CDE91801DDE91C01CDE90201DDE91A0176
:103F0000CDE900019DED180B53EC102BAFF28C1096
:103F10000BF00AF80121A3480AF0C4FABAE0EDE177
:103F20000021A0480AF0BEFA9F4890ED000A9F4881
:103F300080ED0F0A9C4890ED010A9C4880ED100A24
:103F400020980DF01FFE21F00041CDE91A0196489E
:103F5000806817900DF016FECDE9180100E0CEE163
:103F60009DED1A0B53EC102B9DED180B51EC100B23
:103F70000DF03CF9CDE91C019DED1C0B51EC100B33
:103F80000DF002F9894948640846406C17900DF01D
:103F9000F9FDCDE91C018548006C17900DF0F2FD8C
:103FA000CDE91A018148C06B17900DF0EBFDCDE90A
:103FB0001801DDE91C01CDE90201DDE91A01CDE9B5
:103FC00000019DED180B53EC102BAFF248200AF0C6
:103FD000ABFF012173480AF065FA5BE000217148EC
:103FE0000AF060FA704890ED000A704880ED0F0A00
:103FF0006D4890ED010A6D4880ED100A20980DF093
:10400000C1FD21F00041CDE91A0167488068179091
:104010000DF0B8FDCDE918019DED1A0B53EC102BF6
:104020009DED180B51EC100B0DF0C2FCCDE91C01FD
:104030009DED1C0B51EC100B0DF0A6F85B4948648C
:104040000846406C17900DF09DFDCDE91C015748C6
:10405000006C17900DF096FDCDE91A015348C06B26
:1040600017900DF08FFDCDE91801DDE91C01CDE9B8
:104070000201DDE91A01CDE900019DED180B53ECB9
:10408000102BAFF200300AF04FFF012145480AF033
:1040900009FA00BF00BF4548007F1E90FFF7CFF828
:1040A0002CE143A00AF040FF22AB23AA24A925A8B3
:1040B000FCF747FF9DED240ADDED230A30EE200AD0
:1040C000DDED220A30EE200A3F4880ED000A002193
:1040D00034480AF0E7F99DF8AD0001069DF8AE00FE
:1040E00041EA00409DF8AF1040EA01209DF8B01071
:1040F000084321909DF8B10001069DF8B20041EA05
:1041000000409DF8B31040EA01209DF8B410084328
:1041100020909DF8B50000069DF8B61040EA0140D9
:104120009DF8B71040EA01209DF8B81008431F9091
:104130009DF8B90001069DF8BA0041EA00409DF8DB
:10414000BB1040EA01209DF8BC1008431E909DF86A
:10415000BD0001069DF8BE0041EA00409DF8BF1079
:1041600040EA01209DF8C01008431D909DF8C10051
:1041700001069DF8C20041EA00409DF8C31040EAE4
:1041800001209DF8C41008431C909DED210AF8EE13
:10419000C00A9FED0E1A80EE810A8DED1B0A9DED7F
:1041A000200A15E00010004050220020B402002038
:1041B000636D64342C2061627320706F736974695D
:1041C0006F6E20636D640A001C00002000401C46D6
:1041D000F8EEC00A1FED031A80EE810A8DED1A0A6F
:1041E0009DED1F0AF8EEC00A1FED081A80EE810A45
:1041F0008DED190A9DED1E0AF8EEC00A9FEDF71A23
:1042000080EE810A8DED180A9DED1D0AF8EEC00AB8
:104210009FEDF21A80EE810A8DED170A9DED1C0AC2
:10422000B8EEC01ADFEDED0A81EE200A8DED160A18
:104230009DED180AEA4880ED0F0A9DED170A80ED02
:10424000100A9DED160A80ED110A9DED1B0A80ED06
:104250000C0A9DED1A0A80ED0D0A9DED190A80EDFC
:104260000E0A16980DF08EFCCDE9140117980DF08A
:1042700089FCCDE9120118980DF084FCCDE91001FC
:1042800019980DF07FFCCDE90E011A980DF07AFC1B
:10429000CDE90C011B980DF075FCCDE90A01DDE9B3
:1042A0001401CDE90801DDE91201CDE90601DDE9DE
:1042B0001001CDE90401DDE90E01CDE90201DDE9DE
:1042C0000C01CDE900019DED0A0B53EC102BC5A0AC
:1042D0000AF02AFEC948007818B90121C8480AF036
:1042E000E1F8C6480078012802D10121C5480170D3
:1042F000BB48007F1590FEF7A2FF00BF00BFB84883
:10430000808C052831DBB648808C08282DDCB44829
:10431000808C01462390BCA00AF006FE0DF1AD0092
:10432000259000202490AE49C884249011E0AC4828
:10433000C08C25990978491E01228A40104381B218
:10434000A748C1842598401C25902498401CC0B2E1
:104350002490A348C08B401F24998842E7DC0120A9
:104360009F498883FEF7E3FB00BF9D48808C0928A6
:1043700014D19B48808C01462590ABA00AF0D4FD57
:104380000220974988830846007F2590FEF757FF53
:104390009DF8AD0099490870FCF75EFE2898062844
:1043A00033D18F48808C01462190A7A00AF0BCFD34
:1043B00000218B4881830020239024902590FF20AA
:1043C0008DF88C008DF88D0000208DF88E00062071
:1043D0008DF88F0002210DF18E00FBF791FF2290E6
:1043E0002298000E8DF890002298000C8DF8910014
:1043F0002298000A8DF892002298C0B28DF893009E
:104400000D2123A807F033FF00BF0020FEF7F4BF03
:1044100000209649096808709449096848709348D3
:1044200000684068914908600020EFE710B590A04F
:104430000AF07AFD97A00AF077FD9FA00AF074FDBC
:10444000A6A00AF071FDAFA00AF06EFDB6A00AF0BA
:104450006BFDBDA00AF068FDC3A00AF065FDC9A010
:104460000AF062FD10BD11B59DB01D98332883F090
:10447000C681DFE810F0C41933003D004A00510046
:1044800058005F00C419C419C419680074007A0088
:104490009200AA00AB004902500257025E02650278
:1044A0006C0273027A0282028A029D02B002C30287
:1044B000D602E902FC020F032203350348035B0323
:1044C0006E0340045805F805A308B00A780C510E95
:1044D0002D100412CB13AE15C115D317B0A00AF0DE
:1044E00023FD04F0DDF8B3A00AF01EFD03F08AB945
:1044F000B4A00AF019FD04F0DFF84FF4FA7007F0E9
:104500000DFEB4A00AF010FDF0E7B7A00AF00CFD14
:10451000BBA00AF009FDE9E7BFA00AF005FDC5A0B0
:104520000AF002FDE2E7C9A00AF0FEFCCEA00AF004
:10453000FBFCDBE7D2A00AF0F7FC05F0B1FCD5A04C
:104540000AF0F2FCD2E7D8A00AF0EEFC04F0A8F8DA
:1045500004F0B2F84FF47A7007F0E0FDC6E7D5A09A
:104560000AF0E2FC05F09CFCC0E7D5A00AF0DCFCF8
:1045700001220621104605F0A4FC0122062102209A
:1045800005F09FFC01220621032005F09AFC012280
:104590000621042005F095FCA8E7D2A00AF0C4FC8F
:1045A00001220321104605F08CFC01220321022088
:1045B00005F087FC01220321084605F082FC012258
:1045C0000321042005F07DFC90E78FE700219FED9B
:1045D000CD0A0420FCF764FC88E700000000C84214
:1045E000B402002025662C2025662C2025662C2070
:1045F00025662C2025662C2025660A004500002013
:104600000010004044000020726561642066726101
:104610006D652C2066756E6374696F6E20636F64C0
:1046200065202025640A0000736574206672616D40
:10463000652C2066756E6374696F6E20636F6465A8
:10464000202025640A00000068656172746265615B
:1046500074206672616D652C2066756E6374696F77
:104660006E20636F6465202025640A00240000200A
:104670000D0ABBB6D3ADCAB9D3C320494E4E464F7F
:10468000532053434120C7FDB6AFB2E2CAD4A3A121
:104690000D0A0000CFEACFB8CDA8D0C5D0ADD2E981
:1046A000B2CEBCFB20494E4E464F532057494B4992
:1046B00020A3A10D0A000000B7A2CBCD203120C25B
:1046C000D6D1AFD7DCCFDFC9CFB5C4D6B4D0D0C632
:1046D000F7494420A3A10D0A00000000B7A2CBCDEA
:1046E000203220CAB9D3C3C4ACC8CF4944B3F5CA39
:1046F000BCBBAF534341BFD8D6C6C6F720A3A10D5C
:104700000A000000B7A2CBCD203320BDF8C8EBCE05
:10471000BBD6C3B9E9C1E3B2E2CAD4B3CCD0F2206C
:10472000A3A10D0A00000000B7A2CBCD203420BD0C
:10473000F8C8EBD5FDB7B4D7AAB2E2CAD4B3CCD08F
:10474000F220A3A10D0A0000B7A2CBCD203520BDD9
:10475000F8C8EBB8DFB5CDCBD9B2E2CAD4B3CCD070
:10476000F220A3A10D0A0000B7A2CBCD203620BDB8
:10477000ABD6B4D0D0C6F7B9D8BBFA20A3A10D0AE6
:1047800000000000B7A2CBCD203720CFD4CABEB0E6
:10479000EFD6FAD0C5CFA220A3A10D0A00000000D9
:1047A0000D0AD6B4D0D0C2D6D1AFB3CCD0F2A3A12B
:1047B0000D0A0000C2D6D1AFBDE1CAF8A3A10D0A0F
:1047C000000000000D0A534341B3F5CABCBBAFA3C0
:1047D000A10D0A00534341B3F5CABCBBAFBDE1CA4A
:1047E000F8A3A10D0A0000000D0ABDF8C8EBCEBB6E
:1047F000D6C3B9E9C1E3B2E2CAD4A3A10D0A00004D
:10480000CEBBD6C3B9E9C1E3B2E2CAD4BDE1CAF8AE
:10481000A3A10D0A000000000D0ABDF8C8EBD5FDEC
:10482000B7B4D7AAC7D0BBBBB2E2CAD4A3A10D0A02
:1048300000000000D5FDB7B4D7AAC7D0BBBBB2E219
:10484000CAD4BDE1CAF8A3A10D0A00000D0ABDF843
:10485000C8EBB8DFB5CDCBD9C7D0BBBBB2E2CAD4A9
:10486000A3A10D0A00000000B8DFB5CDCBD9C7D099
:10487000BBBBB2E2CAD4BDE1CAF8A3A10D0A0000D5
:104880000D0AD6B4D0D0C6F7B9D8BBFAA3A10D0A89
:1048900000000000D6B4D0D0C6F7B9D8BBFABDE14D
:1048A000CAF8A3A10D0A0000737461727420616CD0
:1048B0006C200A00636C6F736520616C6C200A00C9
:1048C0007772697465206D6F746F7220746F2070D9
:1048D0006F736974696F6E2053206D6F6465200A71
:1048E000000000007772697465206D6F746F72202C
:1048F000746F20706F736974696F6E206D6F64657B
:10490000200A0000CDCCCC3D01211FED020A04207D
:10491000FCF7C6FAEAE500211FED060A0320FCF7C2
:10492000BFFAE3E501211FED090A0320FCF7B8FAFD
:10493000DCE500211FED0D0A0220FCF7B1FAD5E5F8
:1049400001211FED100A0220FCF7AAFACEE5002192
:104950001FED140A0120FCF7A3FAC7E501211FEDA2
:10496000170A0846FCF79CFAC0E5DFEDFE0A1FEDCA
:10497000E50A0420FCF782FCB8E5DFEDFB0A1FED39
:10498000E90A0420FCF77AFCB0E5DFEDF73A9FED89
:10499000F63ADFEDF52AB2EE042ADFEDF31A9FEDC9
:1049A000F21ADFEDF10AB2EE040AFCF7C1FC9DE554
:1049B000DFEDED3A9FEDEC3ADFEDEB2AB2EE042AA3
:1049C000DFEDE91A9FEDE81ADFEDE70A9FEDE60A51
:1049D000FCF7AEFC8AE5DFEDE43A9FEDE33ADFED6C
:1049E000E22AB2EE042ADFEDE01A9FEDDF1ADFEDD6
:1049F000DE0ABAEE040AFCF79BFC77E5DFEDDA3A53
:104A00009FEDD93AF2EE042A9FEDD72ADFEDD61AB0
:104A10009FEDD51AF2EE040A9FEDD30AFCF788FC4D
:104A200064E5DFEDD13A9FEDD03AF2EE042A9FED36
:104A3000CE2ADFEDCD1A9FEDCC1ADFEDCB0A9FED2C
:104A4000CA0AFCF775FC51E5DFEDC73A9FEDC63A9F
:104A5000F2EE042A9FEDC42ADFEDC31A9FEDC21ABD
:104A6000FAEE040A9FEDC00AFCF762FC3EE5DFEDBA
:104A7000BE3AB2EE043ADFEDBC2A9FEDBB2ADFED71
:104A8000BA1AB2EE041ADFEDB80A9FEDB70AFCF7C6
:104A90004FFC2BE5DFEDB43AB2EE043ADFEDB22A7B
:104AA0009FEDB12ADFEDB01A9FEDAF1ADFEDAE0A30
:104AB0009FEDAD0AFCF73CFC18E5DFEDAB3AB2EE3A
:104AC000043ADFEDA92A9FEDA82ADFEDA71ABAEE76
:104AD000041ADFEDA50A9FEDA40AFCF729FC05E501
:104AE000F2EE043A9FEDA03ADFED9F2A9FED9E2A59
:104AF000F2EE041A9FED9C1ADFED9B0A9FED9A0AD5
:104B0000FCF716FCF2E4F2EE043A9FED973ADFED83
:104B1000962A9FED952ADFED941A9FED931ADFED0B
:104B2000920A9FED910AFCF703FCDFE4F2EE043AEF
:104B30009FED8D3ADFED8C2A9FED8B2AFAEE041A59
:104B40009FED891ADFED880A9FED870AFCF7F0FBDD
:104B5000CCE418AB19AA1AA91BA8FCF7F2F9179014
:104B6000179818B181480AF0DFF9C3E01B980DF0DF
:104B700009F821F000419FED7E0B53EC102BCDE99D
:104B800012019DED120B51EC100B0CF095FD02D2B1
:104B90009FED750A01E09DED1B0A8DED1B0A1A9829
:104BA0000CF0F0FF21F000419FED710B53EC102B46
:104BB000CDE912019DED120B51EC100B0CF07CFDB8
:104BC00002D29FED690A01E09DED1A0A8DED1A0AE5
:104BD00019980CF0D7FF21F000419FED650B53ECC5
:104BE000102BCDE912019DED120B51EC100B0CF0C6
:104BF00063FD02D29FED5C0A01E09DED190A8DED87
:104C0000190A18980CF0BEFF21F000419FED580BD7
:104C100053EC102BCDE912019DED120B51EC100B52
:104C20000CF04AFD02D29FED500A01E09DED180AFA
:104C30008DED180A9FED4C0A8DED160A9FED4A0A7C
:104C40008DED150A9FED480A8DED140A18980CF0A9
:104C500099FFCDE9120119980CF094FFCDE91001EC
:104C60001A980CF08FFFCDE90E011B980CF08AFF0B
:104C7000CDE90C01DDE91201CDE90401DDE9100106
:104C8000CDE90201DDE90E01CDE900019DED0C0B3E
:104C900053EC102B38A00AF047F914AA15A916A84E
:104CA000DDED181A9DED191ADDED1A0A9DED1B0AAE
:104CB000FBF78DFF14980CF065FFCDE912011598F4
:104CC0000CF060FFCDE9100116980CF05BFFCDE908
:104CD0000E01DDE91201CDE90201DDE91001CDE9A6
:104CE00000019DED0E0B53EC102BAFF2FC600AF0AF
:104CF0001BF900BF08E418AB19AA1AA91BA8FCF7F6
:104D000020F91790179818B118480AF00DF909E121
:104D10001B980CF037FF21F000419FED150B53EC71
:104D2000102BCDE912019DED120B51EC100B0CF084
:104D3000C3FC02D29FED0C0A01E09DED1B0A8DED34
:104D40001B0A1A980CF01EFF21F000419FED080B82
:104D500053EC102BCDE912019DED120B51EC100B11
:104D600012E000000000104200000000BC13000828
:104D70007B14AE47E17A843F25662C25662C256698
:104D80002C25660A000000000CF096FC02D21FEDF4
:104D90000A0A01E09DED1A0A8DED1A0A19980CF025
:104DA000F1FE21F000411FED0E0B53EC102BCDE96D
:104DB00012019DED120B51EC100B0CF07DFC02D298
:104DC0001FED170A01E09DED190A8DED190A1898DB
:104DD0000CF0D8FE21F000411FED1B0B53EC102B03
:104DE000CDE912019DED120B51EC100B0CF064FC9F
:104DF00002D21FED230A01E09DED180A8DED180A7D
:104E00001FED270A8DED160A1FED290A8DED150AF3
:104E10001FED2B0A8DED140A14AA15A916A8DDEDB5
:104E2000181A9DED191ADDED1A0A9DED1B0AFBF704
:104E3000CEFE14980CF0A6FECDE9120115980CF0E8
:104E4000A1FECDE9100116980CF09CFECDE90E01F3
:104E5000DDE91201CDE90201DDE91001CDE9000132
:104E60009DED0E0B53EC102BFDA00AF05DF8189889
:104E70000CF088FECDE9120119980CF083FECDE903
:104E800010011A980CF07EFECDE90E011B980CF073
:104E900079FECDE90C01DDE91201CDE90401DDE97E
:104EA0001001CDE90201DDE90E01CDE900019DED22
:104EB0000C0B53EC102BF2A00AF036F818AB19AA21
:104EC0001AA91BA89DED141ADDED150A9DED160A11
:104ED000FCF7C8FA18980CF055FECDE912011998A4
:104EE0000CF050FECDE910011A980CF04BFECDE904
:104EF0000E011B980CF046FECDE90C01DDE9120114
:104F0000CDE90401DDE91001CDE90201DDE90E0181
:104F1000CDE900019DED0C0B53EC102BE3A00AF042
:104F200003F800BFF6E418AB19AA1AA91BA8FCF7EE
:104F300008F81790179818B1E7A009F0F5FF91E06D
:104F40001B980CF01FFE21F000411FED770B53EC76
:104F5000102BCDE914019DED140B51EC100B0CF04E
:104F6000ABFB02D21FED800A01E09DED1B0A8DED27
:104F70001B0A1A980CF006FE21F000411FED840B6D
:104F800053EC102BCDE914019DED140B51EC100BDB
:104F90000CF092FB02D21FED8C0A01E09DED1A0A83
:104FA0008DED1A0A19980CF0EDFD21F000411FED6E
:104FB000900B53EC102BCDE914019DED140B51EC2B
:104FC000100B0CF079FB02D21FED990A01E09DED68
:104FD000190A8DED190A18980CF0D4FD21F0004142
:104FE0001FED9D0B53EC102BCDE914019DED140B1F
:104FF00051EC100B0CF060FB02D21FEDA50A01E092
:105000009DED180A8DED180AC24AC349C348DDED6B
:10501000181A9DED191ADDED1A0A9DED1B0AFBF712
:10502000D6FDBC4800680CF0ADFDCDE91401BA48CE
:1050300000680CF0A7FDCDE91201B84800680CF03B
:10504000A1FDCDE91001DDE91401CDE90201DDE9A1
:105050001201CDE900019DED100B53EC102BB0A017
:1050600009F062FF56E418AB19AA1AA91BA8FBF7AE
:1050700068FF1790179818B1B44809F055FF9CE2E3
:105080001B980CF07FFD21F000411FEDC70B53EC86
:10509000102BCDE910019DED100B51EC100B0CF015
:1050A0000BFB02D21FEDD00A01E09DED1B0A8DED36
:1050B0001B0A1A980CF066FD21F000411FEDD40B7D
:1050C00053EC102BCDE910019DED100B51EC100BA2
:1050D0000CF0F2FA02D21FEDDC0A01E09DED1A0A93
:1050E0008DED1A0A19980CF04DFD21F000411FEDCD
:1050F000E00B53EC102BCDE910019DED100B51ECA2
:10510000100B0CF0D9FA02D21FEDE90A01E09DED77
:10511000190A8DED190A18980CF034FD21F00041A0
:105120001FEDED0B53EC102BCDE910019DED100B95
:1051300051EC100B0CF0C0FA02D21FEDF50A01E0A1
:105140009DED180A8DED180A744890ED000AF1EEF5
:10515000040A30EE200A8DED110A13AB14AA15A92A
:1051600016A86C4C94ED001A6B4CD4ED000A9DED22
:10517000110AFCF777F91290129800286FD1139852
:105180000CF000FDCDE90C0114980CF0FBFCCDE90E
:105190000A0115980CF0F6FCCDE9080116980CF000
:1051A000F1FCCDE90601DDE90C01CDE90401DDE901
:1051B0000A01CDE90201DDE90801CDE900019DED1B
:1051C000060B53EC102B30A009F0AEFE9DED160A35
:1051D000DDED1B0A30EE600A8DED090A09980CF02E
:1051E000D1FC21F000419FED5A0B53EC102BCDE97F
:1051F0000A019DED0A0B51EC100B0CF0ABF8CDE958
:105200000C019DED0C0B51EC100B0BF0BDFF119040
:105210009DED150ADDED1A0A30EE600A8DED090AE2
:1052200009980CF0AFFC21F000419FED490B53ECC5
:10523000102BCDE90A019DED0A0B51EC100B0CF07F
:1052400089F8CDE90C019DED0C0B51EC100B0BF026
:105250009BFF10909DED140ADDED190A7CE0A2E1A0
:10526000706F736974696F6E2020203A2020256664
:105270002C20202025662C2020202025660A0000D6
:1052800063757272656E7420616E676C6520202094
:105290002020203A202025662C20202025662C2046
:1052A000202020256620202025660A007461726770
:1052B00065742020616E676C652020202020203AD4
:1052C000202025662C20202025662C20202020252B
:1052D0006620202025660A00206572726F72207792
:1052E00068696C6520696E2070726F63657373699D
:1052F0006E6720706F736974696F6E20746F2061C0
:105300006E676C6520696E20636F6D6D616E6420E1
:1053100033390A003800002034000020300000201B
:10532000737461727420706F696E7420706F73692A
:1053300074696F6E2020203A202025662C202020C2
:1053400025662C2020202025660A0000BC130008BA
:105350009A9999999999B93F30EE600A8DED090AA9
:1053600009980CF00FFC21F000411FED070B53ECE6
:10537000102BCDE90A019DED0A0B51EC100B0BF03F
:10538000E9FFCDE90C019DED0C0B51EC100B0BF07E
:10539000FBFE0F909DED130ADDED180A30EE600A5A
:1053A0008DED090A09980CF0EDFB21F000411FED8D
:1053B000180B53EC102BCDE90A019DED0A0B51ECB3
:1053C000100B0BF0C7FFCDE90C019DED0C0B51EC60
:1053D000100B0BF0D9FE0E909DED110ADFEDFC0ACB
:1053E000B4EEE00AF1EE10FA02DD9FEDF90A01E0F9
:1053F0009DED110A8DED110A9DED100ADFEDF40A05
:10540000B4EEE00AF1EE10FA02DD9FEDF10A01E0E0
:105410009DED100A8DED100A9DED0F0ADFEDEC0AEF
:10542000B4EEE00AF1EE10FA02DD9FEDE90A01E0C8
:105430009DED0F0A8DED0F0A9DED0E0ADFEDE40ADA
:10544000B4EEE00AF1EE10FA02DD9FEDE10A01E0B0
:105450009DED0E0A8DED0E0A16980CF093FB21F0CF
:1054600000411FED450B53EC102BCDE90C019DEDD8
:105470000C0B51EC100B0CF01FF902D29FEDD50A6A
:1054800001E09DED160A8DED160A15980CF07AFBD9
:1054900021F000411FED520B53EC102BCDE90C0114
:1054A0009DED0C0B51EC100B0CF006F902D29FEDA8
:1054B000C90A01E09DED150A8DED150A14980CF04E
:1054C00061FB21F000411FED5E0B53EC102BCDE989
:1054D0000C019DED0C0B51EC100B0CF0EDF802D211
:1054E0009FEDBC0A01E09DED140A8DED140A13989E
:1054F0000CF048FB21F000411FED6B0B53EC102B1F
:10550000CDE90C019DED0C0B51EC100B0CF0D4F817
:1055100002D29FEDB00A01E09DED130A8DED130A52
:105520000E980CF02FFBCDE90C010F980CF02AFB24
:10553000CDE90A0110980CF025FBCDE9080111987E
:105540000CF020FBCDE90601DDE90C01CDE90401F9
:10555000DDE90A01CDE90201DDE90801CDE900013B
:105560009DED060B53EC102B9BA009F0DDFCDDED4F
:105570000E3A9DED0F3ADDED102A9DED112ADDED7D
:10558000131A9DED141ADDED150A9DED160AFBF7B1
:10559000CFFE984890ED000AF7EE000A30EE200AA0
:1055A00080ED000A08E094484078012801D1FDF719
:1055B000C5FE92A009F0B8FC00BFB3E418AB19AA6D
:1055C0001AA91BA8FBF7BDFC1790179818B19248B1
:1055D00009F0AAFCFEE11B980CF0D4FA21F000417E
:1055E0009FED8E0B53EC102BCDE910019DED100BB0
:1055F00051EC100B0CF060F802D29FED760A01E03E
:105600009DED1B0A8DED1B0A1A980CF0BBFA21F0D8
:1056100000419FED820B53EC102BCDE910019DED65
:10562000100B51EC100B0CF047F802D29FED690AF9
:1056300001E09DED1A0A8DED1A0A19980CF0A2FAF4
:1056400021F000419FED750B53EC102BCDE91001BB
:105650009DED100B51EC100B0CF02EF802D29FEDCB
:105660005D0A01E09DED190A8DED190A18980CF0FC
:1056700089FA21F000419FED690B53EC102BCDE925
:1056800010019DED100B51EC100B0CF015F802D22F
:105690009FED500A01E09DED180A8DED180A55485E
:1056A00090ED000AF1EE040A30EE600A8DED110A69
:1056B00013AB14AA15A916A85A4C94ED001A5A4C0B
:1056C000D4ED000A9DED110AFBF7CCFE1290129862
:1056D00000287CD113980CF055FACDE90C011498F0
:1056E0000CF050FACDE90A0115980CF04BFACDE90F
:1056F000080116980CF046FACDE90601DDE90C0127
:10570000CDE90401DDE90A01CDE90201DDE9080185
:10571000CDE900019DED060B53EC102B43A009F0E1
:1057200003FC9DED160ADDED1B0A30EE600A8DEDDF
:10573000090A09980CF026FA21F000411FEDFC0B34
:1057400053EC102BCDE90A019DED0A0B51EC100B27
:105750000BF000FECDE90C019DED0C0B51EC100B94
:105760000BF012FD11909DED150ADDED1A0A30EED9
:10577000600A8DED090A09980CF004FA21F0004145
:105780009FED340B53EC102BCDE90A019DED0A0B74
:1057900051EC100B0BF0DEFDCDE90C019DED0C0B77
:1057A00051EC100B0BF0F0FC10909DED140ADDEDA8
:1057B000190A30EE600A8DED090A09980CF0E2F939
:1057C00021F000419FED230B53EC102B46E0FCE051
:1057D0000000C8420000000073706565642020204E
:1057E00020256620202025662020202566202020D8
:1057F00025660A0030000020B40200206E6F206988
:105800006E7665727365206F7574206F66207261A5
:105810006E67650A00000000BC1300087B14AE47E9
:10582000E17A843F3800002034000020616E676C0C
:10583000652020202020203A202025662C202020B2
:1058400025662C2020202025662020202025660A81
:10585000000000009A9999999999B93FCDE90A01F8
:105860009DED0A0B51EC100B0BF074FDCDE90C0112
:105870009DED0C0B51EC100B0BF086FC0F909DED89
:10588000130ADDED180A30EE600A8DED090A099859
:105890000CF078F921F000411FED120B53EC102BA6
:1058A000CDE90A019DED0A0B51EC100B0BF052FDF6
:1058B000CDE90C019DED0C0B51EC100B0BF064FCD1
:1058C0000E909DED110A5FED3E0AB4EEE00AF1EE96
:1058D00010FA02DD1FED420A01E09DED110A8DED87
:1058E000110A9DED100A5FED460AB4EEE00AF1EEF2
:1058F00010FA02DD1FED4A0A01E09DED100A8DED60
:10590000100A9DED0F0A5FED4E0AB4EEE00AF1EECB
:1059100010FA02DD1FED520A01E09DED0F0A8DED38
:105920000F0A9DED0E0A5FED560AB4EEE00AF1EEA5
:1059300010FA02DD1FED5A0A01E09DED0E0A8DED11
:105940000E0A0E980CF01EF9CDE90C010F980CF020
:1059500019F9CDE90A0110980CF014F9CDE9080104
:1059600011980CF00FF9CDE90601DDE90C01CDE944
:105970000401DDE90A01CDE90201DDE90801CDE913
:1059800000019DED060B53EC102BAFF2B41009F0A3
:10599000CBFADDED0E3A9DED0F3ADDED102A9DEDCF
:1059A000112ADDED131A9DED141ADDED150A9DED9A
:1059B000160AFBF7BDFCFD4890ED000AF7EE000A61
:1059C00030EE600A80ED000A03E0AFF2D01009F07B
:1059D000ABFA00BFF1E518AB19AA1AA91BA8FBF78F
:1059E000B0FA1790179818B1F14809F09DFAB9E18B
:1059F0001B980CF0C7F821F000411FED780B53EC19
:105A0000102BCDE910019DED100B51EC100B0BF09C
:105A100053FE02D21FED910A01E09DED1B0A8DEDB0
:105A20001B0A1A980CF0AEF821F000411FED850B0F
:105A300053EC102BCDE910019DED100B51EC100B28
:105A40000BF03AFE02D21FED9D0A01E09DED1A0A0D
:105A50008DED1A0A19980CF095F821F000411FED10
:105A6000910B53EC102BCDE910019DED100B51EC77
:105A7000100B0BF021FE02D21FEDAA0A01E09DEDF2
:105A8000190A8DED190A18980CF07CF821F00041E4
:105A90001FED9E0B53EC102BCDE910019DED100B6B
:105AA00051EC100B0BF008FE02D21FEDB60A01E01C
:105AB0009DED180A8DED180ABC4890ED000AF3EE32
:105AC0000E0A30EE200A8DED110A13AB14AA15A9A7
:105AD00016A8B84C94ED001AB74CD4ED000A9DED11
