:020000040800F2
:10000000B03500204DC80008797E00087B7E0008CE
:100010007F7E0008837E0008877E000800000000C5
:100020000000000000000000000000008B7E0008BF
:100030008D7E0008000000008F7E0008917E000881
:1000400067C8000867C8000867C8000867C80008D4
:1000500067C8000867C8000867C8000867C80008C4
:1000600067C8000867C8000867C8000867C80008B4
:1000700067C8000867C8000867C8000867C80008A4
:1000800067C8000867C8000867C8000867C8000894
:100090002582000867C8000867C8000867C800080C
:1000A00067C8000867C8000867C8000867C8000874
:1000B00021C300085BC300082DC4000867C80008FE
:1000C00067C8000867C8000867C8000867C8000854
:1000D00067C8000825C0000867C8000867C800088E
:1000E00067C8000867C8000867C8000867C8000834
:1000F00069C600083DC7000867C8000867C800084F
:1001000067C8000867C8000867C8000867C8000813
:1001100067C8000867C8000801C5000867C800086C
:1001200067C8000867C8000867C8000867C80008F3
:1001300067C8000867C8000867C8000867C80008E3
:1001400067C80008D583000867C8000867C80008AA
:1001500067C8000867C8000867C8000867C80008C3
:1001600067C8000867C8000867C8000867C80008B3
:1001700067C8000867C8000867C8000867C80008A3
:1001800067C8000867C8000867C8000867C8000893
:1001900067C8000867C8000867C8000867C8000883
:1001A00067C8000867C8000867C8000800F002F8C0
:1001B00000F04FF80AA090E8000C82448344AAF1B2
:1001C0000107DA4501D100F044F8AFF2090EBAE8B0
:1001D0000F0013F0010F18BFFB1A43F0010318477B
:1001E000E41A0100041B0100103A24BF78C878C14A
:1001F000FAD8520724BF30C830C144BF04680C602D
:10020000704700000023002400250026103A28BF74
:1002100078C1FBD8520728BF30C148BF0B60704778
:10022000662911F0328464290EF0F48575290EF0E8
:10023000F185002070471FB511F01DFC0FF006F985
:1002400004000020002110F085FEE0601FBD10B505
:1002500010BD0FF017FA1146FFF7EDFF07F0E2F9B6
:100260000FF035FA03B4FFF7F2FF03BC0BF07AFE90
:100270000020704700207047002070470020704722
:100280000020704700207047002070470020704712
:10029000002070470020704700207047002000BFFA
:1002A0001FE040F2E73188420ED00021FE4A02F8FA
:1002B000301002EBC0025170FB4A411C02EBC1013D
:1002C00002EBC00251600BE00021F74A02F8301047
:1002D00002EBC0025170F4490A4602EBC0025160C1
:1002E000401CB0F57A7FDCDBEF49F04A1160114623
:1002F0000968EF4A116070472DE9F04F99B08046C8
:100300000E460EB1642E03DD002019B0BDE8F08F5B
:1003100045460024002700BF4CE0701E211D884286
:1003200034DA285D04F1010CB44502DB4FF0000C17
:1003300003E004F1010C15F80CC0614604F1020C55
:10034000B44502DB4FF0000C03E004F1020C15F899
:100350000CC0624604F1030CB44502DB4FF0000C04
:1003600003E004F1030C15F80CC063464FEA006C7F
:100370004CEA014C4CEA022C4CEA030CBA4607F159
:10038000010B1FFA8BF74DF82AC015E0285D010616
:10039000601C285C41EA0041A01C285C41EA002066
:1003A000E11C695C084339467A1C97B24DF821007C
:1003B000201D84B2B442B0DB00BF4FF000090EF044
:1003C000C3FC002406E05DF824000EF0C1FC814669
:1003D000601C84B2BC42F6DB484696E710B52DEDB2
:1003E000028BB0EE408A9FEDB30A28EE000ADFEDE3
:1003F000B20A80EE201AF0EE418AB0EE680A0FF0E1
:10040000B7FEAE4880ED000A9FEDAA0A28EE000A6A
:10041000DFEDA90A80EE201AF0EE418AB0EE680AFC
:100420000FF0B2FFB1EE400AA44880ED010A9FED43
:10043000A40A80ED020A9FED9F0A28EE000ADFED74
:100440009E0A80EE201AF0EE418AB0EE680A0FF0A4
:100450009BFF9A4880ED030A90ED000A80ED040AA4
:100460009FED970A80ED050A9FED950A80ED060A3B
:100470009FED930A80ED070AB7EE000A80ED080AA7
:10048000BDEC028B10BD10B52DED048BB0EE408A93
:10049000F0EE608A9FED870A28EE000ADFED860AFB
:1004A00080EE201AB0EE419AB0EE490A0FF060FEDD
:1004B000F0EE409A9FED7F0A28EE800ADFED7E0A7B
:1004C00080EE201AB0EE419AB0EE490A0FF050FECD
:1004D00029EE800A7B4880ED000A9FED760A28EE1F
:1004E000000ADFED750A80EE201AB0EE419AB0EEF8
:1004F000490A0FF03DFEF1EE409A9FED6E0A28EE9C
:10050000800ADFED6D0A80EE201AB0EE419AB0EE5F
:10051000490A0FF039FF29EE800A6A4880ED010A86
:100520009FED640A28EE000ADFED630A80EE201AD0
:10053000B0EE419AB0EE490A0FF026FFB1EE400A44
:10054000604880ED020A9FED5B0A28EE000ADFEDAD
:100550005A0A80EE201AB0EE419AB0EE490A0FF026
:1005600013FFF0EE409A9FED530A28EE800ADFED6C
:10057000520A80EE201AB0EE419AB0EE490A0FF00E
:10058000F7FD29EE800A4F4880ED030A9FED490AE6
:1005900028EE000ADFED480A80EE201AB0EE419AFC
:1005A000B0EE490A0FF0F0FEF1EE409A9FED410ADD
:1005B00028EE800ADFED400A80EE201AB0EE419A64
:1005C000B0EE490A0FF0E0FE29EE800A3D4880EDCA
:1005D000040A9FED380A28EE000ADFED370A80EEA4
:1005E000201AB0EE419AB0EE490A0FF0C1FD35482D
:1005F00080ED050A9FED2F0A28EE800ADFED2E0A16
:1006000080EE201AB0EE419AB0EE490A0FF0BCFE1F
:10061000B1EE400A2B4880ED060A9FED260A28EE2F
:10062000800ADFED250A80EE201AB0EE419AB0EE86
:10063000490A0FF09DFDB1EE400A224880ED070AFD
:100640009FED1F0A80ED080ABDEC048B10BD10B5AC
:100650002DED068BB0EE408AF0EE608AB0EE419A46
:100660009FED140A28EE000ADFED130A80EE201A2F
:10067000F0EE419AB0EE690A0FF07AFDB0EE40AAB2
:100680009FED0C0A69EE000A9FED0B1A80EE810ABD
:1006900030EE280AF0EE409A0FF06AFD2AEE000ACA
:1006A000094880ED000A11E02403002034000020F6
:1006B00038000020DC0F494000003443A80000202F
:1006C00000000000CC000020F00000201FED070A11
:1006D00028EE000A5FED080A80EE201AF0EE419A3B
:1006E000B0EE690A0FF044FDB1EE40AA1FED0F0A0B
:1006F00069EE000A1FED101A80EE810A30EE280A1A
:10070000F0EE409A0FF040FE2AEE000AFE4880ED1F
:10071000010A1FED180A28EE000A5FED190A80EEA3
:10072000201AF0EE419AB0EE690A0FF02DFEB1EEFC
:10073000400AF54880ED020A1FED220A28EE000A61
:100740005FED230A80EE201AF0EE419AB0EE690ABE
:100750000FF01AFEB0EE40AA1FED2A0A69EE000A59
:100760001FED2B1A80EE810A30EE280AF0EE409A37
:100770000FF0FEFC2AEE000AE34880ED030A1FEDAD
:10078000330A28EE000A5FED340A80EE201AF0EEFC
:10079000419AB0EE690A0FF0F7FDB1EE40AA1FEDE5
:1007A0003B0A69EE000A1FED3C1A80EE810A30EE2A
:1007B000280AF0EE409A0FF0E7FD2AEE000AD24830
:1007C00080ED040A1FED450A28EE000A5FED460A97
:1007D00080EE201AF0EE419AB0EE690A0FF0C8FCE4
:1007E000C94880ED050A1FED4D0A69EE000A1FEDAC
:1007F0004E1A80EE810A30EE280AF0EE409A0FF091
:10080000C3FDB1EE400AC04880ED060A1FED570A4D
:1008100069EE000A1FED581A80EE810A30EE280AB0
:10082000F0EE409A0FF0A4FCB1EE400AB64880ED1D
:10083000070A1FED5D0A80ED080ABDEC068B10BDAE
:1008400010B52DED068BB0EE408AF0EE608AB0EE6A
:10085000419AF0EE619A1FED690A28EE000A5FEDF9
:100860006A0A80EE201AB0EE41AAB0EE4A0A0FF0F2
:100870007FFCF0EE40AA1FED710A69EE800A1FEDC1
:10088000721A80EE810A78EE890A30EE200AB0EE04
:1008900040AA0FF06DFC2AEE800A9C4880ED000A09
:1008A0001FED7C0A28EE000A5FED7D0A80EE201A1B
:1008B000B0EE41AAB0EE4A0A0FF05AFCF1EE40AA9F
:1008C0001FED840A69EE800A1FED851A80EE810A09
:1008D00078EE890A30EE200AB0EE40AA0FF054FDFF
:1008E0002AEE800A894880ED010A1FED8E0A28EE63
:1008F000000A5FED8F0A80EE201AB0EE41AAB0EE3A
:100900004A0A0FF041FDB1EE400A804880ED020A2C
:100910001FED980A28EE000A5FED990A80EE201A72
:10092000B0EE41AAB0EE4A0A0FF02EFDF0EE40AA5A
:100930001FEDA00A69EE800A1FEDA11A80EE810A60
:1009400078EE890A30EE200AB0EE40AA0FF010FCD3
:100950002AEE800A6D4880ED030A1FEDAA0A28EEF0
:10096000000A5FEDAB0A80EE201AB0EE41AAB0EEAD
:100970004A0A0FF009FDF1EE40AA1FEDB20A69EE36
:10098000800A1FEDB31A80EE810A78EE890A30EEF4
:10099000200AB0EE40AA0FF0F7FC2AEE800A5B486E
:1009A00080ED040A1FEDBD0A28EE000A5FEDBE0AC5
:1009B00080EE201AB0EE41AAB0EE4A0A0FF0D8FB42
:1009C000524880ED050A1FEDC50A69EE800A1FED49
:1009D000C61A80EE810A78EE890A30EE200AB0EE5F
:1009E00040AA0FF0D1FCB1EE400A484880ED060A5B
:1009F0001FEDD00A69EE800A1FEDD11A80EE810A40
:100A000078EE890A30EE200AB0EE40AA0FF0B0FB73
:100A1000B1EE400A3D4880ED070A1FEDD70A80ED90
:100A2000080ABDEC068B10BD10B51FEDDB0A384877
:100A300080ED000A1FEDDE0A80ED010A1FEDE00ADD
:100A400080ED020A1FEDE20A324880ED000A9FEDB8
:100A5000320A80ED010A1FEDE60A80ED020A9FEDE1
:100A60002F0A2F4880ED000A1FEDEB0A80ED010AE6
:100A70001FEDED0A80ED020A9FED2A0A2A4880ED5B
:100A8000000A1FEDF10A80ED010ABAEE030A80EDBB
:100A9000020A9FED260A264880ED070AB3EE0C0AEB
:100AA00080ED0D0A9FED230A80ED130A9FED220AC7
:100AB00080ED190ABFEE000A80ED060ABFEE000ABB
:100AC00080ED0C0AB7EE000A80ED120ABFEE000AB4
:100AD00080ED180A002019494884AFF66B001849C8
:100AE0004860AFF66F008860AFF67300C860AFF67D
:100AF00073000861AFF677004861AFF67700886150
:100B0000AFF67B00C8611DE0F0000020140100205A
:100B10003801002044010020CDCCEE4200006B43A0
:100B20005001002033F384435C010020787AC5BE75
:100B3000680100201B9E02428FC2F540C8020020BF
:100B400084220020AFF6BB000862AFF6BB0048620B
:100B5000AFF6BF008862AFF6BF00C8629FEDF90A2A
:100B6000F94880ED000A9FEDF70A80ED010A9FED3C
:100B7000F50A80ED020AB0EE080AF44880ED000A9A
:100B8000B0EE080A80ED010AB0EE080A80ED020A14
:100B90000121B3EE0E0A08460AF050F90121B3EE26
:100BA0000E0A02200AF04AF90121B3EE000A0320DE
:100BB0000AF044F90121B3EE000A04200AF03EF9DC
:100BC00010BDF0B52DED108B85B0B0EE408AF0EE83
:100BD000608AB0EE419A04460D4616469FEDDC0A47
:100BE00028EE000ADFEDDB0A80EE201AB0EE41AA03
:100BF000B0EE4A0A0FF0BCFA8DED040A38EE890A0D
:100C00008DED030A9DED030ADFEDD10A20EE200AE7
:100C1000DFEDD00A80EE201AB0EE41AAB0EE4A0A0B
:100C20000FF0A6FAF0EE409A9FEDC90A28EE000AEE
:100C3000DFEDC80A80EE201AB0EE41AAB0EE4A0AF3
:100C40000FF0A2FB8DED020A9FEDC10A28EE800A8B
:100C5000DFEDC00A80EE201AB0EE41AAB0EE4A0ADB
:100C60000FF086FA8DED010A38EE890A8DED000A43
:100C70009FEDB70A28EE000ADFEDB60A80EE201AD3
:100C8000B0EE41AAB0EE4A0A0FF072FA5FED5B0ACD
:100C900020EE200A60EE29AA9FEDAD0A28EE000A98
:100CA000DFEDAC0A80EE201AB0EE41AAB0EE4A0A9F
:100CB0000FF06AFBFAEE030A40EEC0AA9FEDA40A09
:100CC00028EE000ADFEDA30A80EE201AB0EE41AA5A
:100CD000B0EE4A0A0FF04CFA5FED700A20EE20BA2F
:100CE0009FED9B0A28EE800ADFED9A0A80EE201A1B
:100CF000B0EE41AAB0EE4A0A0FF03AFA4BEE00AA63
:100D00009FED930A28EE000ADFED920A80EE201A8A
:100D1000B0EE41AAB0EE4A0A0FF036FB5FED820A50
:100D200040EEC0AAC4ED00AA9FED890A28EE000A91
:100D3000DFED880A80EE201AB0EE41AAB0EE4A0A32
:100D40000FF022FB5FED890A20EE200A60EE29AA4F
:100D50009FED7F0A28EE000ADFED7E0A80EE201A62
:100D6000B0EE41AAB0EE4A0A0FF002FAFAEE030A18
:100D700040EE80AA9FED760A28EE000ADFED750AA4
:100D800080EE201AB0EE41AAB0EE4A0A0FF0FCFA4B
:100D90005FED9E0A20EE20BA9FED6D0A28EE800AD4
:100DA000DFED6C0A80EE201AB0EE41AAB0EE4A0ADE
:100DB0000FF0DEF94BEE00AA9FED650A28EE000A5F
:100DC000DFED640A80EE201AB0EE41AAB0EE4A0AC6
:100DD0000FF0CEF95FEDB00A40EE80AAC5ED00AA93
:100DE0009FED5B0A28EE800A10EE101A084610F0FC
:100DF000D1FD41EC1E0B9FED580B53EC102B10F066
:100E0000B1F941EC1D0BB0EE4D0AF0EE6D0A0FF09A
:100E100057FAB0EE40CAF0EE60CA9FED510B53ECAA
:100E2000102B51EC1C0B10F08BFB41EC1A0B9DEDC1
:100E3000000ADFED470A20EE200ADFED460A80EEC9
:100E4000201A11EE107A384610F0A4FD41EC1D0B6B
:100E5000B0EE4D0AF0EE6D0A0FF032FAB0EE40CA75
:100E6000F0EE60CA9FED400B53EC102B51EC1C0BC5
:100E700010F066FB41EC1B0B53EC1A2B10F0A0FC9E
:100E800041EC1F0B10F088F83060002005B0BDEC7D
:100E9000108BF0BD70B52DED028B0446B0EE408A8C
:100EA0000D46002600EE104AB8EE400A04EB44005E
:100EB0002F4901EBC00080ED050A04EB440001EB73
:100EC000C00080ED028A04EB440001EBC00090ED0D
:100ED000020AF2EE040AB4EEE00AF1EE10FA07DDBF
:100EE000B2EE020A04EB440001EBC00080ED020AFE
:100EF0002048007818B10120BDEC028B70BD0CB108
:100F0000042C01D90220F7E7B7EE000AB4EEC08A3C
:100F1000F1EE10FA01DD0320EEE71DB1012D01D045
:100F20000420E9E7E0B207F009FC064676B31DBBF2
:100F3000D6ED480A70EE880AB0EE600AE0B208F01A
:100F40005EFF25E0CDCCCC3DD4220020E022002065
:100F5000DC0F494000003443000000000080664080
:100F60000000000000606D4000000060669E70C0E0
:100F70006801002002000020D6ED480A70EEC80A81
:100F8000B0EE600AE0B208F03AFF01E00520B3E7F6
:100F90000020B1E710B586B0142101A80DF0A8FF1C
:100FA000FF208DF804008DF8050000208DF8060064
:100FB0000B208DF80700FE48408C00128DF80800C9
:100FC000FB4890F822008DF80900F948808B03282F
:100FD00003D100208DF80A0004E0F54890F82400C1
:100FE0008DF80A0001208DF80B0000208DF80C0010
:100FF00007210DF10600FFF77FF90446200E8DF85A
:101000000D00200C8DF80E00200A8DF80F00E0B2C4
:101010008DF810000D2101A80BF02DF80020E449F7
:10102000487006B010BD2DE9F04706460F469046C1
:1010300099460024002501245CE0204607F07EFB51
:101040000546E5B3012C06D0022C16D0032C26D081
:10105000042C4AD137E095ED480AD648D0ED070A6E
:1010600030EE600AF2EE040A20EE200AD0ED060A05
:1010700080EE201A86ED001A38E095ED480ACD483A
:10108000D0ED0D0A30EE600AF2EE040A20EE200ADE
:10109000D0ED0C0A80EE201A87ED001A26E095EDBF
:1010A000480AC448D0ED130A30EE600AF2EE040A92
:1010B00020EE200AD0ED120A80EE201A00E016E0A1
:1010C00088ED001A12E095ED480ABA48D0ED190AE9
:1010D00030EE600AF2EE040A20EE200AD0ED180A83
:1010E00080EE201A89ED001A00E000BF00E003E066
:1010F000601CC4B2052CA0DB00BF052C02D001206F
:10110000BDE8F0870020FBE7F0B52DED028B85B040
:101110000024A948007800287DD00020A649087046
:10112000A6480088401CA5490880A5480088401CA6
:10113000A349088001240EE00021204607F017FB98
:1011400000B906E004F10A00C0B205B0BDEC028BA4
:10115000F0BD601CC4B2052CEEDB01240BE00021C5
:10116000204608F060FB00B903E004F11400C0B2AF
:10117000EBE7601CC4B2052CF1DB904800880A281C
:1011800012DD00208D49088001240BE0002120465B
:1011900008F07BFB00B903E004F12800C0B2D4E7FB
:1011A000601CC4B2052CF1DB85480088642812DD80
:1011B00000208349088001240BE00021204607F02D
:1011C00060FD00B903E004F12800C0B2BDE7601C77
:1011D000C4B2052CF1DB012500BF2DE07448801C52
:1011E000405D012826D10027284607F0A7FA0746C8
:1011F000FFB197ED480A6E48083000EB8500D0ED4E
:10120000000A30EE600A10EE101A084610F0C2FB19
:1012100021F0004100E0A2E09FED6A0B53EC102B9F
:1012200010F052F905D200216148801C4155FFF7AA
:10123000B1FE00BF681CC5B2052DCFDB01AB02AA11
:1012400003A904A8FFF7EFFE06461EB15FA00DF04C
:10125000A1FD58E0049810F09DFB21F000419FEDA6
:10126000670B53EC102B10F02FF902D29FED650A9B
:1012700001E09DED040A8DED040A039810F08AFB4D
:1012800021F000419FED5D0B53EC102B10F01CF989
:1012900002D29FED5C0A01E09DED030A8DED030A89
:1012A000029810F077FB21F000419FED540B53ECB6
:1012B000102B10F009F902D29FED520A01E09DEDCA
:1012C000020A8DED020A019810F064FB21F0004142
:1012D0009FED4A0B53EC102B10F0F6F802D29FED65
:1012E000490A01E09DED010A8DED010A464A111FF0
:1012F000081FDDED011A9DED021ADDED030A9DEDDB
:10130000040AFFF75EFC41480078012826D14048D6
:10131000006818BB3F48006800BB3F480068E8B958
:101320003E480068D0B93E48006801280BD03D48CF
:101330000068012807D03C480068012803D03B48DA
:10134000006801280AD10020384908603649086041
:101350003449086032490860FFF71CFE00BF0020D6
:10136000F3E670B52DED028B0446B0EE408AF0EE48
:10137000608A0025E0B207F0E1F90546002D7CD037
:1013800000EE104AB8EE400A04EB4400094901EBB4
:10139000C00080ED050A04EB440001EBC00080EDC5
:1013A000038A04EB440001EBC00090ED030A3FE028
:1013B000C80200206801002096000020560000208E
:1013C000580000209A9999999999A93F20657272BD
:1013D0006F72207768696C6520696E2070726F6328
:1013E000657373696E6720706F736974696F6E20BF
:1013F000746F20616E676C650A0000007B14AE4755
:10140000E17A843F000000006C220020550000209B
:10141000080000200C00002014000020180000200C
:10142000200000201C0000202400002028000020B4
:10143000F7EE000AB4EEE00AF1EE10FA07D2B7EECA
:10144000000A04EB440001EBC00080ED030A04EB4A
:101450004400FA4901EBC00090ED030ADFEDF80A01
:1014600080EE201A04EB440001EBC00080ED021A6C
:1014700004EB440001EBC00000E023E0C0ED048A6F
:10148000012C06D0022C09D0032C0CD0042C14D132
:101490000EE00121EB480CF03BFF0EE00121EA4891
:1014A0000CF036FF09E00121E8480CF031FF04E0C0
:1014B0000121E7480CF02CFF00BF00BF0020BDEC6D
:1014C000028B70BD6420FAE710B52DED0C8BB0EEE9
:1014D000408AF0EE608AB0EE419AF0EE619AB0EE8A
:1014E00042AAF0EE62AAB0EE43BAF0EE63BAB2EEF0
:1014F000040AC8EE000AD14890ED061A90ED070ADA
:1015000000EE810AB0EE40CAB2EE040AC8EE800ACC
:1015100090ED0C1A90ED0D0A00EE810AF0EE40CA33
:10152000B2EE040AC9EE000A90ED121A90ED130A09
:1015300000EE810AB0EE40DAB2EE040AC9EE800A8B
:1015400090ED181A90ED190A00EE810AF0EE40DADB
:10155000F0EE4C0AB0EE4A0A0120FFF702FFF0EE6F
:101560006C0AB0EE6A0A0220FFF7FBFEF0EE4D0AAD
:10157000B0EE4B0A0320FFF7F4FEF0EE6D0AB0EE7A
:101580006B0A0420FFF7EDFE0020BDEC0C8B10BDB4
:101590000FB52DED040BD1B01FED660A8DED4F0A8E
:1015A0001FED680A8DED4E0A1FED6A0A8DED4D0A9A
:1015B0001FED6C0A8DED4C0A4CAB4DAA4EA94FA8FD
:1015C000FFF731FD4B904B9828B1A2A00DF0E2FB44
:1015D000012059B000BD002049904A909FEDA60A15
:1015E0008DED480A9DED510A20EE000ADDED520A0C
:1015F00000EEA00ADDED480A00EEE00A8DED170AC4
:101600009DED170A0EF088FF8DED470A9DED470A04
:10161000DDED520A60EE200A9DED480A9DED511A5B
:1016200040EE410A9DED510A20EE001A9DED520A4E
:1016300000EE001A80EE810A8DED3C0A3C9810F015
:10164000A9F921F000419FED8D0B53EC102BCDE952
:1016500016019DED160B51EC100B10F06FF801D236
:101660000220B6E79DED3C0A0EF0ECFC8DED3B0A46
:101670009DED3B0ADFED830A20EE200ADFED820AB2
:1016800080EE201A9FED7F0AB4EEC01AF1EE10FA38
:1016900006DD9DED3B0ADFED7D0A30EE600A09E0D4
:1016A0009DED3B0ADFED770A60EE200A9FED761A8A
:1016B00080EE810A8DED3E0A9DED3B0ADFED710A59
:1016C00020EE200ADFED700A80EE201A9FED6D0AF1
:1016D00030EE410ADFED6B0AB4EEE00AF1EE10FAEB
:1016E00012DD9DED3B0ADFED670A20EE200ADFEDFB
:1016F000660A80EE201A9FED630A30EE410ADFEDA4
:10170000630A30EE600A0DE09DED3B0ADFED5D0AF5
:1017100020EE200ADFED5C0A80EE201A9FED590AC8
:1017200030EE410A8DED3F0A9DED470AB1EE400AC9
:101730008DED470A9DED470ADDED520A60EE200A65
:101740009DED480A9DED511A40EE410A9DED510A6A
:1017500020EE001A9DED520A00EE001A80EE810A7A
:101760008DED3C0A9DED3C0A0EF06CFC8DED3B0AC4
:101770009DED3B0ADFED430A20EE200ADFED420A31
:1017800080EE201A9FED3F0AB4EEC01AF1EE10FA77
:1017900006DD9DED3B0ADFED3D0A30EE600A09E013
:1017A0009DED3B0ADFED370A60EE200A9FED361A09
:1017B00080EE810A8DED400A9DED3B0ADFED310A96
:1017C00060EE200A9FED301A80EE810ADFED2D0ACF
:1017D00030EEC00ADFED2B0AB4EEE00AF1EE10FAAB
:1017E00012DD9DED3B0ADFED270A20EE200ADFED3A
:1017F000260A80EE201A9FED230A30EE410ADFED23
:10180000230A30EE600A0DE09DED3B0ADFED1D0A74
:1018100020EE200ADFED1C0A80EE201A9FED190A47
:1018200030EE410A8DED410A01203A9039909FED4A
:10183000180A8DED380A3A906FE000006801002028
:1018400000007A440004004000080040001C0040F2
:1018500000200040706F736974696F6E20746F2090
:10186000616E676C652063616C63756C6174652083
:101870006572726F720A0000CDCCDB42000000007E
:101880000000F03F00003443DC0F49400000B44347
:101890000000B943389810F07DF8CDE916013DA954
:1018A0003A9801EB800090ED000ADDED4F0A30EE32
:1018B000C00A8DED130A139810F06CF821F0004166
:1018C000CDE914019DED160B53EC102B9DED140B7F
:1018D00051EC100B0FF0F8FD1BD23A9839903DA94E
:1018E0003A9801EB800090ED000ADDED4F0A30EEF2
:1018F000C00A8DED150A159810F04CF821F0004142
:10190000CDE916019DED160B51EC100B0FF044FBC9
:1019100038903A98401CC0B23A903A980528B9DB02
:101920003DA9399801EB800090ED000A8DED370A52
:101930009DF825110122399882401143C8B28DF8D3
:1019400025019DED510A20EE000ADDED520A00EE60
:10195000A00ADDED480A00EEE00AB5EEC00AF1EE9D
:1019600010FA01D2032034E63998012802D03998C0
:10197000022814D19DED510A20EE000ADDED520A35
:1019800000EEA00ADDED480A00EEE00A8DED170A30
:101990009DED170A0EF0C0FD8DED470A15E09DED97
:1019A000510A20EE000ADDED520A00EEA00ADDED3C
:1019B000480A00EEE00A8DED170A9DED170A0EF0B9
:1019C000ABFDB1EE400A8DED470A9DED370A559803
:1019D00080ED000A9DED510A20EE000ADDED520A6D
:1019E00000EEA00ADDED530A00EEA00ADDED480A84
:1019F00000EEE00ADFEDFC0A30EE600ADFEDFB0AE4
:101A000070EE600AB0EE001A80EE810A9FEDF81ABF
:101A1000C0EE010A9FEDF71A80EE810A8DED150ADE
:101A200015980FF0B7FF21F000411FED6C0B53EC40
:101A3000102BCDE916019DED160B51EC100B0FF09C
:101A40007DFE01D20420C4E59DED510A20EE000A7E
:101A5000DDED520A00EEA00ADDED530A00EEA00A09
:101A6000DDED480A00EEE00ADFEDDF0A70EE600A05
:101A70009FEDDE0A30EEC01AF0EE000A81EE200A79
:101A80009FEDDB1AC0EE010A9FEDDA1A80EE810AA3
:101A90008DED170A9DED170A0EF048FA8DED2C0A10
:101AA0009DED2C0A5FED890A60EE200A1FED8A0A7F
:101AB00080EE801A8DED2E1A9DED2C0A5FED8F0AB7
:101AC00020EE200A5FED900A80EE201A1FED930AA7
:101AD00071EE000A1FED950AF4EEC00AF1EE10FA5D
:101AE0000CDD9DED2C0A5FED990A20EE200A5FEDDA
:101AF0009A0A80EE201AB1EE410A0DE09DED2C0A03
:101B00005FEDA00A60EE200A1FEDA11A80EE810AA7
:101B10005FEDA40A30EE200A8DED2F0A9DED2F0A0D
:101B2000DDED4D0A30EEC00A8DED130A13980FF06B
:101B300031FF21F00041CDE916019DED2E0ADDEDCA
:101B40004D0A30EEC00A8DED130A13980FF022FFF4
:101B500021F00041CDE914019DED160B53EC102B43
:101B60009DED140B51EC100B0FF0AEFC02D29DED6D
:101B70002E0A01E09DED2F0A8DED2C0A9DED2F0A16
:101B8000DDED4D0A30EEC00A8DED130A13980FF00B
:101B900001FF21F00041CDE91601DDED2E0A9DED9A
:101BA0004D0A30EE600A8DED130A13980FF0F2FE25
:101BB00021F00041CDE914019DED160B53EC102BE3
:101BC0009DED140B51EC100B0FF07EFC06D29DF82E
:101BD000270140F002008DF8270105E09DF827015C
:101BE00040F004008DF827019DED2C0A579880EDF8
:101BF000000A9DED2C0A5FEDDC0A60EE200A1FED65
:101C0000DF1A80EE810A8DED160A9DED160A0EF0A0
:101C1000AFFAF0EE400A9FED780A9FED781A01EED8
:101C2000200A8DED170A9DED170A0EF075FC8DED5B
:101C30002B0ADDED470A9DED2B0A80EE801A8DED13
:101C4000151A15980FF0A6FE21F000411FEDF50BB7
:101C500053EC102BCDE916019DED160B51EC100B3A
:101C60000FF06CFD2FD39DED2C0A5FEDF90A60EEAD
:101C7000200A1FEDFC1A80EE810A8DED140A9DEDFD
:101C8000140A0EF075FAF0EE400A9FED590A9FED26
:101C9000591A01EE200ADDED2B0A80EE201A8DED97
:101CA000151A15980FF076FE21F000419FED540BA8
:101CB00053EC102BCDE916019DED160B51EC100BDA
:101CC0000FF03CFD01D2052083E4DDED470A9DEDD8
:101CD0002B1A80EE810A8DED170A9DED170A0EF082
:101CE00025F98DED200A9DED2C0ADFED470A60EE07
:101CF000200A9FED461A80EE810A8DED160A9DEDB1
:101D0000160A0EF035FAF0EE400A9FED390A9FED03
:101D1000391A01EE200ADDED2B0A80EE201A8DED36
:101D2000171A9DED170A0EF001F98DED1F0ADDED72
:101D3000200A9DED1F0A30EEC00ADFED330AB4EE33
:101D4000E00AF1EE10FA0ADD9DED200ADDED1F0A32
:101D500030EE600ADFED2E0A30EE600A05E09DED00
:101D6000200ADDED1F0A30EE600A8DED220A9DED9E
:101D7000200ADDED1F0A30EE200ADFED230AB4EE63
:101D8000E00AF1EE10FA0ADD9DED200ADDED1F0AF2
:101D900030EE200ADFED1E0A30EE600A05E09DED10
:101DA000200ADDED1F0A30EE200A8DED230A9DED9D
:101DB000200AF1EE400A9DED1F0A30EEC00ADFED69
:101DC000120AB4EEE00AF1EE10FA23DD9DED200ACE
:101DD000F1EE400A9DED1F0A30EEC00ADFED0C0A5D
:101DE00030EE600A1EE0000000B9574767178A47C7
:101DF00000006B4333F38443E7F3F5478016F44761
:101E0000000000000000F03FDC0F494000003443B8
:101E1000DC0FC9409DED200AF1EE400A9DED1F0A3E
:101E200030EEC00A8DED240A9DED200AF1EE400A45
:101E30009DED1F0A30EE800A5FED0D0AB4EEE00A58
:101E4000F1EE10FA0CDD9DED200AF1EE400A9DED59
:101E50001F0A30EE800A5FED120A30EE600A07E0DA
:101E60009DED200AF1EE400A9DED1F0A30EE800A3A
:101E70008DED250A9FEDFE0A8DED1E0A01203A9098
:101E800052E01E980FF086FDCDE9160121A93A987F
:101E900001EB800090ED000A5FED240A60EE200A5D
:101EA0001FED271A80EE810ADDED4E0A30EEC00AE2
:101EB0008DED130A13980FF06DFD21F00041CDE96F
:101EC00014019DED160B53EC102B9DED140B51ECF2
:101ED000100B0FF0F9FA23D23A98399021A93A98C9
:101EE00001EB800090ED000A5FED380A60EE200AF9
:101EF0001FED3B1A80EE810ADDED4E0A30EEC00A7E
:101F00008DED150A15980FF045FD21F00041CDE942
:101F100016019DED160B51EC100B0FF03DF81E90C5
:101F20003A98401CC0B23A903A980528A9DB9DF82F
:101F30002601012239998A401043C0B28DF826014A
:101F400021A9399801EB800090ED000A5FED510A5C
:101F500020EE200A5FED540A80EE201A569880ED9C
:101F6000001A569890ED000ADFEDC20A70EEC00A22
:101F7000579890ED000A30EEC00A8DED1A0A569877
:101F8000D0ED000A1FED5F0A30EE600A5798D0EDE1
:101F9000000A30EE600A8DED1B0A569890ED000A9B
:101FA000DFEDB50A70EEC00A579890ED000A30EEEA
:101FB000C00A8DED1C0A5698D0ED000AAF4890ED8E
:101FC000000A30EE600A5798D0ED000A30EE600A41
:101FD0008DED1C0A9FEDA60A8DED180A01203A909E
:101FE00042E018980FF0D6FCCDE9160119A93A98ED
:101FF00001EB800090ED000ADDED4C0A30EEC00AE6
:102000008DED130A13980FF0C5FC21F00041CDE9C6
:1020100014019DED160B53EC102B9DED140B51ECA0
:10202000100B0FF051FA1BD23A98399019A93A982F
:1020300001EB800090ED000ADDED4C0A30EEC00AA5
:102040008DED150A15980FF0A5FC21F00041CDE9A2
:1020500016019DED160B51EC100B0EF09DFF189024
:102060003A98401CC0B23A903A980428B9DB19A9B2
:10207000399801EB800090ED000A589880ED000A35
:102080009DF828010121399A91400843C0B28DF88A
:1020900028017B48007801287DD1589890ED000AEE
:1020A0008DED120A579890ED000A8DED110A5698A1
:1020B00090ED000A8DED100A559890ED000A8DED17
:1020C0000F0A15AA16A917A8DDED121A9DED111A0F
:1020D000DDED100A9DED0F0AFEF773FD9DED510A2F
:1020E00020EE000ADDED520A00EEA00ADDED480AFE
:1020F00000EEE00A8DED120A9DED120A0EF00CFAC8
:102100008DED140A002013909DED220A5FEDC10AA7
:1021100020EE200A5FEDC40A80EE201A8DED221A0F
:102120009DED230A5FEDC70A20EE200A5FEDCA0A83
:1021300080EE201A8DED231A9DED240A5FEDCD0A65
:1021400020EE200A5FEDD00A80EE201A8DED241AD1
:102150009DED250A5FEDD30A20EE200A5FEDD60A39
:1021600080EE201A8DED251A9DED220AB5EEC00AEB
:10217000F1EE10FA13DD229908460D910FF00AFCDA
:102180009FED400B53EC102BCDE90E019DED0E0B96
:1021900051EC100B00E034E30FF006FB12E0229943
:1021A00008460D910FF0F6FB21F000419FED350B35
:1021B00053EC102BCDE90E019DED0E0B51EC100BE5
:1021C0000FF0FEFACDE910019DED100B51EC100B54
:1021D0000EF0E2FE26909DED230AB5EEC00AF1EE68
:1021E00010FA11DD239908460D910FF0D3FB9FEDF6
:1021F000250B53EC102BCDE90E019DED0E0B51EC90
:10220000100B0FF0D1FA12E0239908460D910FF050
:10221000C1FB21F000419FED1B0B53EC102BCDE9CE
:102220000E019DED0E0B51EC100B0FF0C9FACDE92C
:1022300010019DED100B51EC100B0EF0ADFE279030
:102240009DED240AB5EEC00AF1EE10FA21DD2499C5
:1022500008460D910FF09EFB9FED0A0B53EC102BDF
:10226000CDE90E019DED0E0B51EC100B0EE00000C0
:102270000000B943000000000000B4432C0000201F
:102280005500002000000000008066400FF08CFA2E
:1022900012E0249908460D910FF07CFB21F00041DB
:1022A0001FED080B53EC102BCDE90E019DED0E0B2D
:1022B00051EC100B0FF084FACDE910019DED100BDD
:1022C00051EC100B0EF068FE28909DED250AB5EE3E
:1022D000C00AF1EE10FA11DD259908460D910FF0B4
:1022E00059FB1FED180B53EC102BCDE90E019DEDA2
:1022F0000E0B51EC100B0FF057FA12E0259908461F
:102300000D910FF047FB21F000411FED220B53EC24
:10231000102BCDE90E019DED0E0B51EC100B0FF0C3
:102320004FFACDE910019DED100B51EC100B0EF0A2
:1023300033FE299001203A9045E13DA93A9801EBFE
:10234000800090ED000A8DED120A3A98032802D021
:102350003A98042805D19DED140AB1EE400A8DED9E
:10236000140A002011900120119024E12DA9119848
:1023700001EB800090ED000A8DED100A9DED100A32
:10238000DFEDFE0A60EE200A9FEDFD1A80EE810A65
:102390008DED0D0A9DED0D0A0DF0EAFEF0EE400AFE
:1023A0009FEDF80A9FEDF81A01EE200A8DED0E0A56
:1023B0009DED0E0A0EF0B0F88DED2B0A9DED470A4B
:1023C000DDED2B0A80EE201A8DED0E1A9DED0E0A22
:1023D0000DF0ACFD8DED200A9DED100ADFEDE70A52
:1023E00060EE200A9FEDE61A80EE810A8DED0D0A5F
:1023F0009DED0D0A0DF0BCFE9FEDE41ADFEDE40A41
:1024000000EE801A9DED2B0AC1EE000ACDED0E0AFA
:102410009DED0E0A0DF08AFD8DED1F0A00200F9034
:1024200001200F90BFE021A90F9801EB800090EDF3
:10243000000A8DED0E0A9DED0E0A5FED720A70EE38
:10244000C00A9DED100A30EEC00A8DED1A0A9DED0E
:102450000E0ADFEDCB0A70EEC00A9DED100A30EED9
:10246000C00A8DED1B0A9DED0E0A5FED7D0A70EE30
:10247000C00A9DED100A30EEC00A8DED1C0A012045
:102480000D900D9087E019A90D9801EB800090ED5B
:10249000000A8DED0C0A15AA16A917A8DDED0C1A75
:1024A0009DED101ADDED0E0A9DED120AFEF789FB77
:1024B000DDED170A9DED510A30EEC00A8DED090AD7
:1024C00009980FF067FA21F000419FEDB20B53EC31
:1024D000102BCDE90A019DED0A0B51EC100B0EF00B
:1024E000F3FF54D2DDED160A9DED520A30EEC00A1C
:1024F0008DED090A09980FF04DFA21F000419FED8A
:10250000A50B53EC102BCDE90A019DED0A0B51EC04
:10251000100B0EF0D9FF3AD2DDED150A9DED530AEE
:1025200030EEC00A8DED090A09980FF033FA21F058
:1025300000419FED980B53EC102BCDE90A019DED66
:102540000A0B51EC100B0EF0BFFF20D29DED120ACA
:102550009249139801EB001080ED000A9DED0E0AE0
:10256000139801EB001080ED010A9DED100A1398FD
:1025700001EB001080ED020A9DED0C0A139801EBAF
:10258000001080ED030A1398401CC0B213900D9800
:10259000401CC0B20D900D980428FFF674AF0F9840
:1025A000401CC0B20F900F980928FFF63CAF11985D
:1025B000401CC0B2119011980328FFF6D7AE3A988C
:1025C000401CC0B23A903A980528FFF6B6AE139870
:1025D00000287DDD002012909FED710A8DED0E0A1E
:1025E0009FED6F0A8DED0F0A9FED6D0A8DED100ABC
:1025F0009FED6B0A8DED110A1290D9E09DED100A46
:10260000DDED4D0A30EEC00A8DED050A05980FF09C
:10261000C1F921F00041CDE90801DDED0F0A9DED82
:102620004E0A30EE600A8DED010A01980FF0B2F902
:1026300021F00041CDE904019DED0E0ADDED4F0AC8
:1026400030EEC00A8DED010A01980FF0A3F921F0D8
:102650000041CDE902019DED040B53EC102B9DEDE3
:10266000020B51EC100B0EF0C9FCCDE906019DEDFB
:10267000080B53EC102B9DED060B51EC100B0EF0DC
:10268000BDFCCDE90C014549129801EB001090ED1D
:10269000020ADDED4D0A30EEC00A8DED050A0598FF
:1026A0000FF078F921F00041CDE908013B4912987B
:1026B00001EB001090ED010ADDED4E0A30EEC00A8C
:1026C0008DED010A01980FF065F921F0004100E05D
:1026D00093E0CDE904013149129801EB001090ED2F
:1026E000000ADDED4F0A30EEC00A8DED010A0198B7
:1026F0000FF050F921F00041CDE902019DED040BEE
:1027000053EC102B9DED020B51EC100B0EF076FCF0
:10271000CDE906019DED080B53EC102B9DED060B4A
:1027200051EC100B0EF06AFCCDE90A019DED0C0B8B
:1027300053EC102B9DED0A0B51EC100B0EF0C4FE68
:1027400032D21649129801EB001090ED000A8DED7F
:102750000E0A129801EB001090ED010A8DED0F0AA0
:10276000129801EB001090ED020A8DED100A1298FC
:1027700001EB001090ED030A14E00000DC0F49406B
:1027800000003443E7F3F5478016F44700006B433D
:1027900033F384439A9999999999C93FEC2200207F
:1027A00000007A448DED110A1298401CC0B21290BC
:1027B000DDE912018842FFF621AF9DED0E0A559822
:1027C00080ED000A9DED0F0A569880ED000A9DED00
:1027D000100A579880ED000A569890ED000AFE48BE
:1027E000D0ED000A30EEC00A5798D0ED000A30EE66
:1027F000600A589880ED000A02E00820FEF7E9BE62
:1028000000BF00BF0020F9E72DE9F04792B0F34880
:10281000808C052806D006287DD007287CD0082883
:102820007BD1CAE2342105A80CF062FBFF208DF8B1
:1028300014008DF8150000208DF81600E748807F01
:10284000401F00EB80000930C0B28DF81700E3484C
:10285000408C00128DF81800E04890F822008DF8A6
:10286000190005208DF81A000DF11B044FF0000827
:10287000DA4890F82660002505E006F0010008B16E
:10288000681CC5B27610002EF7DCD448C08B401F00
:10289000A84205D0D2480CF07DFA12B0BDE8F0870E
:1028A0000025CE4890F8266004AB03AA02A901A82F
:1028B000FEF7B9FBA84656E009E006F0010018B1A2
:1028C000681CC5B2761004E0681CC5B27610002EF4
:1028D000F3DC00BF04F8015B684600EB850090ED77
:1028E000000ADFEDC00A20EE200ABDEEC00A10EE9D
:1028F000100A000E04F8010B684600EB850090ED0D
:10290000000ADFEDB80A20EE200ABDEEC00A10EE84
:10291000100A000C02E04DE027E14DE204F8010B43
:10292000684600EB850090ED000ADFEDAE0A20EE70
:10293000200ABDEEC00A10EE100A000A04F8010BCE
:10294000684600EB850090ED000ADFEDA60A20EE58
:10295000200ABDEEC00A10EE100A04F8010B08F1BF
:10296000010000F0FF089D48C08B401F4045A3DCDC
:102970009A48C08B401F00EB8000401D81B20DF1D2
:102980001600FDF7B9FC0746380E04F8010B380CA9
:1029900004F8010B380A04F8010B04F8017B8F4896
:1029A000C08B401F00EB80000B3081B205A809F0FE
:1029B00062FB9DE2342105A80CF09AFAFF208DF805
:1029C00014008DF8150000208DF816008348807FD4
:1029D000401F00EB80000930C0B28DF817007F481F
:1029E000408C00128DF818007C4890F822008DF879
:1029F000190006208DF81A000DF11B044FF0000A93
:102A0000764890F82660002505E006F0010008B140
:102A1000681CC5B27610002EF7DC7048C08B401FD2
:102A2000A84203D06E480CF0B5F936E700256B4894
:102A300090F82660A846A9464FF0010815E04046E8
:102A400005F07CFE8146B9F1000F0AD099ED470AE6
:102A5000F1EE080A80EE201A684600EB880080ED4F
:102A6000001A08F1010000F0FF08B8F1050FE6DBDD
:102A70004FF0000A52E009E006F0010018B1681CAE
:102A8000C5B2761004E0681CC5B27610002EF3DCE7
:102A900000BF04F8015B684600EB850090ED000A7A
:102AA000DFED500A20EE200ABDEEC00A10EE100A3B
:102AB000000E04F8010B684600EB850090ED000A5B
:102AC000DFED480A20EE200ABDEEC00A10EE100A23
:102AD000000C04F8010B684600EB850090ED000A3D
:102AE000DFED400A20EE200ABDEEC00A10EE100A0B
:102AF000000A04F8010B684600EB850090ED000A1F
:102B0000DFED380A20EE200ABDEEC00A10EE100AF2
:102B100004F8010B0AF1010000F0FF0A2F48C08BF6
:102B2000401F5045A7DC2D48C08B401F00EB8000A4
:102B3000401D81B20DF11600FDF7DEFB0746380E91
:102B400004F8010B380C04F8010B380A04F8010BE7
:102B500004F8017B2148C08B401F00EB80000B3044
:102B600081B205A809F087FAC2E1342105A80CF06A
:102B7000BFF9FF208DF814008DF8150000208DF8A6
:102B8000160021208DF817001448408C00128DF893
:102B90001800124890F822008DF8190007208DF8CF
:102BA0001A000DF11B04142168460CF0A1F904ABC6
:102BB00003AA02A901A8FEF736FA002004F8010BC7
:102BC00004F8010B04F8010B04F8010B9DED020A57
:102BD000DDED030A08E000002C000020C802002000
:102BE0007018000800401C4630EE200ADDED040A93
:102BF00030EE200A5FED050A20EE200ABDEEC00A85
:102C000010EE105A280E04F8010B280C04F8010BE2
:102C1000280A04F8010B04F8015B9DED010A5FED41
:102C20000F0A20EE200ABDEEC00A10EE106A300E28
:102C300004F8010B300C04F8010B300A04F8010B06
:102C400004F8016BFD4890ED000ADFEDFD0A20EE6F
:102C5000200ABDEEC00A10EE100A000E04F8010BA7
:102C6000F64890ED000ADFEDF60A20EE200ABDEEF0
:102C7000C00A10EE100A000C04F8010BEF4890EDAA
:102C8000000ADFEDEF0A20EE200ABDEEC00A10EECA
:102C9000100A000A04F8010BE84890ED000ADFED85
:102CA000E80A20EE200ABDEEC00A10EE100A04F871
:102CB000010BE24890ED010ADFEDE10A20EE200A67
:102CC000BDEEC00A10EE100A000E04F8010BDB483E
:102CD00090ED010ADFEDDA0A20EE200ABDEEC00A0F
:102CE00010EE100A000C04F8010BD44890ED010A14
:102CF000DFEDD30A20EE200ABDEEC00A10EE100A66
:102D0000000A04F8010BCD4890ED010ADFEDCC0A72
:102D100020EE200ABDEEC00A10EE100A04F8010BE6
:102D2000C64890ED020ADFEDC60A20EE200ABDEE8D
:102D3000C00A10EE100A000E04F8010BBF4890ED17
:102D4000020ADFEDBF0A20EE200ABDEEC00A10EE37
:102D5000100A000C04F8010BB84890ED020ADFEDF0
:102D6000B80A20EE200ABDEEC00A10EE100A000AD2
:102D700004F8010BB14890ED020ADFEDB10A20EE34
:102D8000200ABDEEC00A10EE100A04F8010B1D2146
:102D90000DF11600FDF7B0FA0746380E04F8010BE6
:102DA000380C04F8010B380A04F8010B04F8017B15
:102DB000232105A809F05FF99AE0342105A80CF059
:102DC00097F8FF208DF814008DF8150000208DF87D
:102DD00016009C48807F001DC0B28DF817009948EE
:102DE000408C00128DF81800964890F822008DF85B
:102DF000190008208DF81A000DF11B044FF0000A8D
:102E0000904890F82650002705E005F0010008B131
:102E1000781CC7B26D10002DF7DC8A48C08B401FAC
:102E2000B84203D088480BF0B5FF36E50027854847
:102E300090F82650B846B9464FF0010815E04046D4
:102E400005F07CFC8146B9F1000F0AD0B9F8080101
:102E500000EE100AB8EE400A684600EB880080EDEC
:102E6000000A08F1010000F0FF08B8F1050FE6DBE9
:102E70004FF0000A1CE009E005F0010018B1781CD1
:102E8000C7B26D1004E0781CC7B26D10002DF3DCE2
:102E900000BF684600EB870090ED000ABDEEC00A57
:102EA00010EE100A04F8010B0AF1010000F0FF0A0D
:102EB0006448C08B401F5045DDDC6248C08B81B246
:102EC0000DF11600FDF718FA0646300E04F8010B56
:102ED000300C04F8010B300A04F8010B04F8016B04
:102EE0005848C08B801D81B205A809F0C4F800BF06
:102EF00000BF00BFD1E47FB50546022D3CD0032DB5
:102F000076D100200090019002900390FF208DF870
:102F100000008DF8010000208DF802000B208DF8D4
:102F200003004848408C00128DF80400454890F892
:102F300022008DF8050000208DF806008DF80700AE
:102F40008DF8080007210DF10200FDF7D5F90446C0
:102F5000200E8DF80900200C8DF80A00200A8DF84B
:102F60000B00E0B28DF80C000D21684609F083F8E3
:102F70000120344948703BE000200090019002900D
:102F80000390FF208DF800008DF8010000208DF8DF
:102F900002000B208DF803002A48408C00128DF8A7
:102FA0000400284890F822008DF8050009208DF8CB
:102FB000060000208DF807008DF8080007210DF1AC
:102FC0000200FDF799F90446200E8DF80900200C47
:102FD0008DF80A00200A8DF80B00E0B28DF80C0085
:102FE0000D21684609F047F801201649487000BFD6
:102FF00000BF7FBD10B586B0142101A80BF078FF8B
:10300000FF208DF804008DF8050000208DF80600E3
:103010000B208DF807000B48408C00128DF808003B
:10302000084890F822008DF809000648808B032894
:103030000CD100208DF80A000DE000006422002071
:103040000000C842C802002070180008FE4890F82E
:1030500024008DF80A0001208DF80B008DF80C007B
:1030600007210DF10600FDF747F90446200E8DF803
:103070000D00200C8DF80E00200A8DF80F00E0B234
:103080008DF810000D2101A808F0F5FF0020EE4991
:10309000487006B010BD00B5DDB020E0EB48006818
:1030A0000078FF2806D1E948006840680078FF28CA
:1030B00000D115E0E5480068E5490968884202D179
:1030C00001205DB000BD0020E04909680870DF49BB
:1030D00009684870DD4800684068DC490860DDE741
:1030E00000BFDA4800680078FF2841F0AD80D7487B
:1030F000006840680078FF28F7D10120D2490870A5
:1031000000202990D14909680870D04909684870A1
:10311000CE4800684068CD4908600021CB4800686F
:1031200001700020C94909684870C84800684168B2
:10313000C648016015E000202590022008F0AAFE94
:103140002599481C259028290ADD0021BF480068E0
:103150004170BE4800684068BC4908600220B0E782
:1031600000BFBA48006840780028E4D0B74800683B
:1031700002782998411CC9B229912AA90A54002031
:10318000B24909684870B14800684068AF490860B2
:1031900015E000202590022008F07CFE2599481CAF
:1031A000259028290ADD0020A84909684870A74809
:1031B00000684068A5490860022082E700BFA34874
:1031C000006840780028E4D0A04800680278299878
:1031D000411CC9B229912AA90A5400209B490968B7
:1031E00048709A4800684068984908609DF8A900AE
:1031F0009DF8A81040EA01202890289806280DDAAA
:1032000000209249096848709048006840688F49DA
:10321000086090A00BF0BEFD032052E72EE00020D6
:10322000259013E0022008F035FE2598411C89B254
:1032300025913C280ADD00218448006841708348BC
:10324000006840688149086002203AE77F480068CA
:1032500040780028E6D07D48006801782AAA29989D
:10326000115400217948006841707848006841682D
:10327000764801602998401CC0B22990DDE92810E9
:103280008842CCDB2898001F80B2014625902AA8EE
:10329000FDF732F827902898001F2AA9085C01063C
:1032A0002898C01E2AAA105C41EA00412898801E76
:1032B000105C41EA00212898401E105C08432690CB
:1032C000DDE92610884204D067A00BF063FD0420DE
:1032D000F7E600205C4908702898001FC8839DF815
:1032E000AA0040EA002048849DF8AC10564881842A
:1032F000808C012803DB5448808C042813DD52485D
:10330000808C0A280FD05048808C0B280BD04E4858
:10331000808C0C2807D04C48808C0D2803D04A485C
:10332000808C0E287ED10020524908700321464827
:10333000818300204449C8840846808C0F2850D2DD
:10334000DFE810F04F006601B501070287044F0067
:103350004F004F004F004F000F005000A00007012A
:10336000C2053948007F2390FFF7C5FD0DF1AD0080
:1033700025900020249024902BE0259800780128A7
:1033800020D13148C08C012224998A40104381B257
:103390002D48C1842498401C042813DC2498401C28
:1033A000C0B2239006F0D7FB02E00A2008F0BAFD75
:1033B0002498401CC0B201220621239006F085FC0F
:1033C0000028F2D12598401C25902498401CC0B2BA
:1033D00024901D48C08B401F24998842CDDCFDF706
:1033E000D9FDFDE31848007F2390FFF784FD0DF120
:1033F000AD00259000202490FF201349C8840020B0
:1034000024901DE02598007898B90F48C08C0022C0
:1034100024998A4010400C49C8842498401C0428F0
:1034200007DC00E0FDE32498401CC0B2239006F0C6
:1034300004FC2598401C25902498401CC0B2249080
:103440000148C08B401F17E0C80200203400002054
:103450003800002064617461206C656E67746820B8
:103460006572726F720A0000637263206572726F18
:10347000720A00005500002024998842C2DCFDF742
:1034800089FDAEE7F848007F2390FFF734FD0DF18A
:10349000AD00259000202490FF20F349C88400202F
:1034A00024904DE025980078E8BBEF48C08C0022BE
:1034B00024998A401040EC49C8842498401C042870
:1034C00037DC2498401CC0B29FEDE80A239007F037
:1034D000D6F82498401CC0B201220621239006F0A1
:1034E000F4FB0021E2480AF013FF0021E1480AF052
:1034F0000FFF0021E0480AF00BFF0021DF480AF02F
:1035000007FF0021DE480AF003FFDE4890ED000AC5
:10351000D54880ED0F0ADB4890ED010AD24880EDD6
:10352000100AD84800E004E090ED020ACE4880ED91
:10353000110A2598401C25902498401CC0B2249064
:10354000C948C08B401F24998842ABDCFDF722FD9F
:1035500047E7C548007F2490FFF7CDFC9DF8AD00FC
:1035600025902598042852DC002024909DF8AE0078
:1035700001069DF8AF0041EA00409DF8B01040EA16
:1035800001209DF8B1100843249000202390259835
:1035900005F0D4F82390239890B30122B248801C00
:1035A000259942549DED240AB8EEC00A9FEDB61A43
:1035B000C0EE010A239890ED480A30EE800AAA482E
:1035C0000830259900EB810080ED000A9DED240A6A
:1035D000B8EEC00ADFEDAC0A80EE201A239890ED19
:1035E000480A31EE000A8DED220A9DED220A259847
:1035F00006F005FC28B100229B48801C2599425406
:1036000004E09948007F2290FFF775FC00BFE8E6D0
:103610009DF8AD0025902598042847DC00202490D3
:103620009DF8AE0000069DF8AF1040EA01409DF8FD
:10363000B01040EA01209DF8B1100843249000200A
:103640002390259805F07AF82390239838B3012227
:103650008548801C259942549DED240AB8EEC00A85
:10366000DFED890A80EE201A801D259900EB81008C
:1036700080ED001A9DED240AF8EEC00A9FED821A33
:1036800080EE810A8DED220A9DED220A259806F032
:10369000B6FB28B100227448801C2599425404E0EE
:1036A0007148007F2290FFF726FC00BF99E60020BA
:1036B00025909DF8AE0001069DF8AF0041EA00415B
:1036C0009DF8B00041EA00209DF8B1100843259014
:1036D0009DF8AD0024902498012839DB2498042813
:1036E00036DC01220221249806F0EFFA9DED250A2E
:1036F000F8EEC00A9FED641A80EE810A8DED230A70
:1037000023980EF047F921F000419FED600B53EC38
:10371000102BCDE920019DED200B51EC100B0DF08D
:10372000D3FE14D29DED230AF1EE080A20EE200A02
:103730008DED220A9DED220A249806F0A0FF30B9F3
:103740004948007F2290FFF7D6FBFDF723FC00BF1E
:1037500047E622AB23AA24A925A8FDF764FC9DED2A
:10376000240ADDED230A30EE200ADDED220A30EED8
:10377000200A484880ED000A9DF8AE0000069DF83A
:10378000AF1040EA01409DF8B01040EA01209DF8DA
:10379000B110084321909DED210AF8EEC00A9FED7B
:1037A0003E1A80EE810A8DED200A9DF8AD001F9033
:1037B0001F98062857D2DFE800F00379D3FDFCFB01
:1037C00000212B480AF0A4FD2E4890ED000A26485F
:1037D00080ED0F0A20980EF0DDF821F00041CDE9D0
:1037E0001A012848406817900EF0D4F8CDE9180166
:1037F0009DED1A0B53EC102B9DED180B51EC100B9B
:103800000DF0FCFBCDE91C019DED1C0B51EC100BE8
:103810000DF0C2FB144908641A4890ED020A0846EC
:1038200080ED110A406C17900EF0B4F8CDE91C0140
:103830000D48006C17900EF0ADF8CDE91A010A485A
:10384000C06B17900EF0A6F8CDE91801DDE91C0158
:10385000CDE90201DDE91A01CDE900019DED180B6A
:1038600053EC102B1AE0EDE1C8020020000000002C
:10387000001000400004004000080040001C004010
:10388000002000406422002000401C460000000090
:10389000000024402C0000200000C842F8A00BF0DB
:1038A00079FA0121FE480AF033FDCBE10021FC4802
:1038B0000AF02EFDFB4890ED000AFB4880ED0F0A50
:1038C00020980EF067F821F00041CDE91A01F54883
:1038D000406817900EF05EF8CDE918019DED1A0BC7
:1038E00053EC102B9DED180B51EC100B0DF068FFF5
:1038F000CDE91C019DED1C0B51EC100B0DF04CFBA8
:10390000E9490864E74890ED020A084680ED110A8B
:10391000406C17900EF03EF8CDE91C01E248006CB7
:1039200017900EF037F8CDE91A01DF48C06B1790F9
:103930000EF030F8CDE91801DDE91C01CDE90201F6
:10394000DDE91A01CDE900019DED180B53EC102BB8
:10395000CBA00BF01FFA0121D1480AF0D9FC71E18C
:103960000021CF480AF0D4FC20980EF013F821F083
:103970000041CDE91A01CB48006817900EF00AF813
:10398000CDE918019DED1A0B53EC102B9DED180B92
:1039900051EC100B0DF014FFCDE91C019DED1C0B3B
:1039A00051EC100B0DF0F8FABF49C863BD4802E0B6
:1039B000E9E08DE032E090ED010A084680ED100A62
:1039C000B84890ED020A084680ED110A406C179045
:1039D0000DF0E0FFCDE91C01B348006C17900DF02D
:1039E000D9FFCDE91A01B048C06B17900DF0D2FF96
:1039F000CDE91801DDE91C01CDE90201DDE91A017B
:103A0000CDE900019DED180B53EC102B9CA00BF0A1
:103A1000C1F90121A2480AF07BFC13E10021A04872
:103A20000AF076FC20980DF0B5FF21F00041CDE9B9
:103A30001A019C48006817900DF0ACFFCDE9180101
:103A40009DED1A0B53EC102B9DED180B51EC100B48
:103A50000DF0D4FACDE91C019DED1C0B51EC100BBF
:103A60000DF09AFA9049C8638E4890ED010A084615
:103A700080ED100A8B4890ED020A084680ED110A8D
:103A8000406C17900DF086FFCDE91C018648006C54
:103A900017900DF07FFFCDE91A018348C06B179096
:103AA0000DF078FFCDE91801DDE91C01CDE9020137
:103AB000DDE91A01CDE900019DED180B53EC102B47
:103AC0006FA00BF067F9012175480AF021FCB9E0FD
:103AD000002173480AF01CFC724890ED000A7248FD
:103AE00080ED0F0A6F4890ED010A6F4880ED100AD3
:103AF00020980DF04FFF21F00041CDE91A016948EF
:103B0000806817900DF046FFCDE918019DED1A0B66
:103B100053EC102B9DED180B51EC100B0DF06EFAC1
:103B2000CDE91C019DED1C0B51EC100B0DF034FA8E
:103B30005D4948640846406C17900DF02BFFCDE9B5
:103B40001C015948006C17900DF024FFCDE91A01B3
:103B50005548C06B17900DF01DFFCDE91801DDE948
:103B60001C01CDE90201DDE91A01CDE900019DED5D
:103B7000180B53EC102B42A00BF00CF90121484814
:103B80000AF0C6FB5EE0002145480AF0C1FB45484B
:103B900090ED000A444880ED0F0A424890ED010A7A
:103BA000414880ED100A20980DF0F4FE21F000410C
:103BB000CDE91A013B48806817900DF0EBFECDE986
:103BC00018019DED1A0B53EC102B9DED180B51ECC9
:103BD000100B0DF0F5FDCDE91C019DED1C0B00E077
:103BE000A9E251EC100B0DF0D7F92F4948640846B3
:103BF000406C17900DF0CEFECDE91C012A48006CF8
:103C000017900DF0C7FECDE91A012748C06B179039
:103C10000DF0C0FECDE91801DDE91C01CDE902017E
:103C200000E089E2DDE91A01CDE900019DED180B04
:103C300053EC102B12A00BF0ADF8012118480AF03C
:103C400067FB00BF00BF1848007F1E90FFF753F9C5
:103C500071E216A00BF09EF822AB23AA24A925A896
:103C6000FDF7E1F99DED240ADDED230A30EE200A8F
:103C7000DDED220A30EE200A124880ED000A23E032
:103C800074617267657420706F736974696F6E20F8
:103C900069732025662C2025662C2025660A0000E5
:103CA0000010004064220020C8020020636D6434CC
:103CB0002C2061627320706F736974696F6E20636A
:103CC0006D640A002C0000200021FE480AF020FB51
:103CD0009DF8AD0000069DF8AE1040EA01409DF849
:103CE000AF1040EA01209DF8B010084321909DF8E4
:103CF000B10000069DF8B21040EA01409DF8B310F3
:103D000040EA01209DF8B410084320909DF8B500CA
:103D100000069DF8B61040EA01409DF8B71040EA51
:103D200001209DF8B81008431F909DF8B9000006C7
:103D30009DF8BA1040EA01419DF8BB0041EA00201D
:103D40009DF8BC1008431E909DF8BD0001069DF82B
:103D5000BE0041EA00409DF8BF1040EA01209DF8F6
:103D6000C01008431D909DF8C10001069DF8C200D7
:103D700041EA00419DF8C30041EA00209DF8C410CB
:103D800008431C909DED210AF8EEC00A9FEDCE1A63
:103D900080EE810A8DED1B0A9DED200AF8EEC00A27
:103DA0009FEDC91A80EE810A8DED1A0A9DED1F0A5A
:103DB000F8EEC00A9FEDC41A80EE810A8DED190A53
:103DC0009DED1E0AF8EEC00A9FEDC01A80EE810A32
:103DD0008DED180A9DED1D0AF8EEC00A9FEDBB1A85
:103DE00080EE810A8DED170A9DED1C0AB8EEC01A0F
:103DF000DFEDB60A81EE200A8DED160A9DED180A58
:103E0000B34880ED0F0A9DED170A80ED100A9DED75
:103E1000160A80ED110A9DED1B0A80ED0C0A9DED3E
:103E20001A0A80ED0D0A9DED190A80ED0E0A16980A
:103E30000DF0B0FDCDE9140117980DF0ABFDCDE903
:103E4000120118980DF0A6FDCDE9100119980DF09A
:103E5000A1FDCDE90E011A980DF09CFDCDE90C01F4
:103E60001B980DF097FDCDE90A01DDE91401CDE9BC
:103E70000801DDE91201CDE90601DDE91001CDE916
:103E80000401DDE90E01CDE90201DDE90C01CDE916
:103E900000019DED0A0B53EC102B8EA00AF07AFF67
:103EA0009248007818B9012186480AF031FA8F4803
:103EB0000078012802D101218D4801708448007FDB
:103EC0001590FFF718F836E18AA00AF063FF22ABDD
:103ED00023AA24A925A8FDF7A6F89DED240ADDED67
:103EE000230A30EE200ADDED220A30EE200A88484F
:103EF00080ED000A002173480AF00AFA9DF8AD002F
:103F000000069DF8AE1040EA01419DF8AF0041EA7D
:103F100000209DF8B010084321909DF8B1000006E4
:103F20009DF8B21040EA01419DF8B30041EA00203B
:103F30009DF8B410084320909DF8B50000069DF848
:103F4000B61040EA01419DF8B70041EA00209DF813
:103F5000B81008431F909DF8B90000069DF8BA10EC
:103F600040EA01409DF8BB1040EA01209DF8BC10DA
:103F700008431E909DF8BD0000069DF8BE1040EA63
:103F800001419DF8BF0041EA00209DF8C0100843A0
:103F90001D909DF8C10000069DF8C21040EA014046
:103FA0009DF8C31040EA01209DF8C41008431C90FE
:103FB0009DED210AF8EEC00A9FED431A80EE810ABA
:103FC0008DED1B0A9DED200AF8EEC00A9FED3E1A0A
:103FD00080EE810A8DED1A0A9DED1F0AF8EEC00AE7
:103FE0009FED391A80EE810A8DED190A9DED1E0AAA
:103FF000F8EEC00A9FED351A80EE810A8DED180AA1
:104000009DED1D0AF8EEC00A9FED301A80EE810A80
:104010008DED170A9DED1C0AB8EEC01ADFED2B0AD4
:1040200081EE200A8DED160A9DED180A284880EDD4
:104030000F0A9DED170A80ED100A9DED160A80ED1E
:10404000110A9DED1B0A80ED0C0A9DED1A0A80ED08
:104050000D0A9DED190A80ED0E0A16980DF09AFCD6
:10406000CDE9140117980DF095FCCDE912011898CF
:104070000DF090FCCDE9100119980DF08BFCCDE905
:104080000E011A980DF086FCCDE90C011B980DF07D
:1040900081FCCDE90A01DDE91401CDE90801DDE982
:1040A0001201CDE90601DDE91001CDE90401DDE9E8
:1040B0000E01CDE90201DDE90C01CDE900019DED24
:1040C0000A0B27E00010004000401C460000C842D8
:1040D000C802002025662C2025662C2025662C2071
:1040E00025662C2025662C2025660A005500002018
:1040F00054000020636D6431342C206162732070A1
:104100006F736974696F6E20636D640A000000004C
:104110002C00002053EC102BAFF248000AF03AFEBE
:104120000120E6490870E6490870E648007F1590CE
:10413000FEF7E1FE00BF00BFE248808C052831DBBE
:10414000E048808C08282DDCDE48808C01462390D6
:10415000DDA00AF01FFE0DF1AD0025900020249097
:10416000D849C884249011E0D648C08C2599097894
:10417000491E01228A40104381B2D248C184259849
:10418000401C25902498401CC0B22490CD48C08B80
:10419000401F24998842E7DC0120CA498883FEF742
:1041A00033FB00BFC748808C092814D1C548808CD8
:1041B00001462590CCA00AF0EDFD0220C14988837C
:1041C0000846007F2590FEF796FE9DF8AD10BB488F
:1041D0000170FCF7DFFE2898062832D1B948808CA0
:1041E00001462190C8A00AF0D5FD0020B54988837A
:1041F000239024902590FF208DF88C008DF88D0061
:1042000000208DF88E0006208DF88F0002210DF120
:104210008E00FCF771F822902298000E8DF8900025
:104220002298000C8DF891002298000A8DF89200D7
:104230002298C0B28DF893000D2123A807F01BFF30
:1042400000BF0020FEF73DBF0020B8490968087094
:10425000B64909684870B54800684068B3490860C5
:104260000020EFE710B5B2A00AF094FDB9A00AF063
:1042700091FDC1A00AF08EFDC8A00AF08BFDD1A06F
:104280000AF088FDD8A00AF085FDDFA00AF082FDC3
:10429000E5A00AF07FFDEBA00AF07CFD10BD11B592
:1042A0009DB01D98332883F0B781DFE810F0B51971
:1042B00033003D004A00510058005F00B519B519A0
:1042C000B519680074007A009200AA00AB00B20031
:1042D000B900C000C700CE00D500DC00E300EB0051
:1042E000F3009102A402B702CA02DD02F002030346
:1042F000160329033C034F036203340438054306C5
:104300009A089D0A650C420E1510EE11B5139E1504
:10431000B115BD17D2A00AF03DFD04F0C5F8D5A037
:104320000AF038FD03F07BB9D6A00AF033FD04F0A3
:10433000C7F84FF4FA7007F0F5FDD6A00AF02AFD91
:10434000F0E7D9A00AF026FDDDA00AF023FDE9E799
:10435000E1A00AF01FFDE7A00AF01CFDE2E7EBA0D8
:104360000AF018FDF0A00AF015FDDBE7F4A00AF052
:1043700011FD05F099FCF7A00AF00CFDD2E7FAA0B8
:104380000AF008FD04F090F804F09AF84FF47A70FF
:1043900007F0C8FDC6E7F7A00AF0FCFC05F084FCB6
:1043A000C0E7F7A00AF0F6FC01220621104605F04E
:1043B0008CFC01220621022005F087FC0122062147
:1043C000032005F082FC01220621042005F07DFC7B
:1043D000A8E7F4A00AF0DEFC01220321104605F054
:1043E00074FC01220321022005F06FFC012203214D
:1043F000084605F06AFC01220321042005F065FC53
:1044000090E78FE700219FEDEF0A0420FCF742FDC3
:1044100088E701219FEDEB0A0420FCF73BFD81E7D3
:1044200000219FEDE80A0320FCF734FD7AE7012123
:104430009FEDE40A0320FCF72DFD73E700219FEDBB
:10444000E10A0220FCF726FD6CE701219FEDDD0A61
:104450000220FCF71FFD65E700219FEDDA0A01202D
:10446000FCF718FD5EE701219FEDD60A0846FCF730
:1044700011FD57E7DFEDD40A1FEDEC0A0420FCF72D
:1044800070FF4FE7DFEDD10A1FEDF00A0420FCF7C3
:1044900068FF47E7DFEDCD3A9FEDCC3ADFEDCB2A61
:1044A000B2EE042ADFEDC91A9FEDC81ADFEDC70A84
:1044B000B2EE040AFDF708F834E7000055000020CA
:1044C00054000020C8020020726561642066726199
:1044D0006D652C2066756E6374696F6E20636F6402
:1044E00065202025640A0000736574206672616D82
:1044F000652C2066756E6374696F6E20636F6465EA
:10450000202025640A00000068656172746265619C
:1045100074206672616D652C2066756E6374696FB8
:104520006E20636F6465202025640A00340000203B
:104530000D0ABBB6D3ADCAB9D3C320494E4E464FC0
:10454000532053434120C7FDB6AFB2E2CAD4A3A162
:104550000D0A0000CFEACFB8CDA8D0C5D0ADD2E9C2
:10456000B2CEBCFB20494E4E464F532057494B49D3
:1045700020A3A10D0A000000B7A2CBCD203120C29C
:10458000D6D1AFD7DCCFDFC9CFB5C4D6B4D0D0C673
:10459000F7494420A3A10D0A00000000B7A2CBCD2B
:1045A000203220CAB9D3C3C4ACC8CF4944B3F5CA7A
:1045B000BCBBAF534341BFD8D6C6C6F720A3A10D9D
:1045C0000A000000B7A2CBCD203320BDF8C8EBCE47
:1045D000BBD6C3B9E9C1E3B2E2CAD4B3CCD0F220AE
:1045E000A3A10D0A00000000B7A2CBCD203420BD4E
:1045F000F8C8EBD5FDB7B4D7AAB2E2CAD4B3CCD0D1
:10460000F220A3A10D0A0000B7A2CBCD203520BD1A
:10461000F8C8EBB8DFB5CDCBD9B2E2CAD4B3CCD0B1
:10462000F220A3A10D0A0000B7A2CBCD203620BDF9
:10463000ABD6B4D0D0C6F7B9D8BBFA20A3A10D0A27
:1046400000000000B7A2CBCD203720CFD4CABEB027
:10465000EFD6FAD0C5CFA220A3A10D0A000000001A
:104660000D0AD6B4D0D0C2D6D1AFB3CCD0F2A3A16C
:104670000D0A0000C2D6D1AFBDE1CAF8A3A10D0A50
:10468000000000000D0A534341B3F5CABCBBAFA301
:10469000A10D0A00534341B3F5CABCBBAFBDE1CA8B
:1046A000F8A3A10D0A0000000D0ABDF8C8EBCEBBAF
:1046B000D6C3B9E9C1E3B2E2CAD4A3A10D0A00008E
:1046C000CEBBD6C3B9E9C1E3B2E2CAD4BDE1CAF8F0
:1046D000A3A10D0A000000000D0ABDF8C8EBD5FD2E
:1046E000B7B4D7AAC7D0BBBBB2E2CAD4A3A10D0A44
:1046F00000000000D5FDB7B4D7AAC7D0BBBBB2E25B
:10470000CAD4BDE1CAF8A3A10D0A00000D0ABDF884
:10471000C8EBB8DFB5CDCBD9C7D0BBBBB2E2CAD4EA
:10472000A3A10D0A00000000B8DFB5CDCBD9C7D0DA
:10473000BBBBB2E2CAD4BDE1CAF8A3A10D0A000016
:104740000D0AD6B4D0D0C6F7B9D8BBFAA3A10D0ACA
:1047500000000000D6B4D0D0C6F7B9D8BBFABDE18E
:10476000CAF8A3A10D0A0000737461727420616C11
:104770006C200A00636C6F736520616C6C200A000A
:104780007772697465206D6F746F7220746F20701A
:104790006F736974696F6E2053206D6F6465200AB2
:1047A000000000007772697465206D6F746F72206D
:1047B000746F20706F736974696F6E206D6F6465BC
:1047C000200A0000CDCCCC3D0000104200000000CB
:1047D0005FED023A1FED033A5FED042AB2EE042AC0
:1047E0005FED061A1FED071A5FED080A1FED090AB3
:1047F000FCF76AFE96E55FED0B3A1FED0C3A5FEDB4
:104800000D2AB2EE042A5FED0F1A1FED101A5FEDAC
:10481000110ABAEE040AFCF757FE83E55FED153A7C
:104820001FED163AF2EE042A1FED182A5FED191A51
:104830001FED1A1AF2EE040A1FED1C0AFCF744FEE3
:1048400070E55FED1E3A1FED1F3AF2EE042A1FEDF0
:10485000212A5FED221A1FED231A5FED240A1FEDB6
:10486000250AFCF731FE5DE55FED283A1FED293A98
:10487000F2EE042A1FED2B2A5FED2C1A1FED2D1AE4
:10488000FAEE040A1FED2F0AFCF71EFE4AE55FED63
:10489000313AB2EE043A5FED332A1FED342A5FED70
:1048A000351AB2EE041A5FED370A1FED380AFCF72D
:1048B0000BFE37E55FED3B3AB2EE043A5FED3D2A81
:1048C0001FED3E2A5FED3F1A1FED401A5FED410AD2
:1048D0001FED420AFCF7F8FD24E55FED443AB2EE25
:1048E000043A5FED462A1FED472A5FED481ABAEEFB
:1048F000041A5FED4A0A1FED4B0AFCF7E5FD11E5CE
:10490000F2EE043A1FED4F3A5FED502A1FED512AA7
:10491000F2EE041A1FED531A5FED540A1FED550A0B
:10492000FCF7D2FDFEE4F2EE043A1FED583A5FEDDB
:10493000592A1FED5A2A5FED5B1A1FED5C1A5FEDD5
:104940005D0A1FED5E0AFCF7BFFDEBE4F2EE043AF0
:104950001FED623A5FED632A1FED642AFAEE041A36
:104960001FED661A5FED670A1FED680AFCF7ACFDE4
:10497000D8E418AB19AA1AA91BA8FCF754FB179086
:10498000179818B1F7480AF005FAC3E01B980DF024
:1049900001F821F000419FEDF40B53EC102BCDE911
:1049A00012019DED120B51EC100B0CF08DFD02D29B
:1049B0001FED7A0A01E09DED1B0A8DED1B0A1A9886
:1049C0000CF0E8FF21F000419FEDE70B53EC102BBA
:1049D000CDE912019DED120B51EC100B0CF074FDA2
:1049E00002D21FED860A01E09DED1A0A8DED1A0A2A
:1049F00019980CF0CFFF21F000419FEDDB0B53EC39
:104A0000102BCDE912019DED120B51EC100B0CF0A7
:104A10005BFD02D21FED930A01E09DED190A8DEDB9
:104A2000190A18980CF0B6FF21F000419FEDCE0B4B
:104A300053EC102BCDE912019DED120B51EC100B34
:104A40000CF042FD02D21FED9F0A01E09DED180A15
:104A50008DED180A1FEDA30A8DED160A1FEDA50AAC
:104A60008DED150A1FEDA70A8DED140A18980CF0AC
:104A700091FFCDE9120119980CF08CFFCDE91001DE
:104A80001A980CF087FFCDE90E011B980CF082FFFD
:104A9000CDE90C01DDE91201CDE90401DDE91001E8
:104AA000CDE90201DDE90E01CDE900019DED0C0B20
:104AB00053EC102BAEA00AF06DF914AA15A916A894
:104AC000DDED181A9DED191ADDED1A0A9DED1B0A90
:104AD000FCF777F814980CF05DFFCDE912011598FA
:104AE0000CF058FFCDE9100116980CF053FFCDE9FA
:104AF0000E01DDE91201CDE90201DDE91001CDE988
:104B000000019DED0E0B53EC102BAFF62C200AF09C
:104B100041F900BF06E418AB19AA1AA91BA8FCF7B3
:104B200082FA1790179818B18E480AF033F9F5E019
:104B30001B980CF02FFF21F000419FED8B0B53ECE5
:104B4000102BCDE912019DED120B51EC100B0CF066
:104B5000BBFC02D21FEDE30A01E09DED1B0A8DEDC7
:104B60001B0A1A980CF016FF21F000419FED7E0BF6
:104B700053EC102BCDE912019DED120B51EC100BF3
:104B80000CF0A2FC02D21FEDEF0A01E09DED1A0A23
:104B90008DED1A0A19980CF0FDFE21F000419FEDF1
:104BA000720B53EC102BCDE912019DED120B51EC61
:104BB000100B0CF089FC02D21FEDFC0A01E09DED08
:104BC000190A8DED190A18980CF0E4FE21F0004145
:104BD0009FED650B53EC102BCDE912019DED120BEF
:104BE00051EC100B0CF070FC02D29FED650A01E055
:104BF0009DED180A8DED180A9FED610A8DED160ADC
:104C00009FED5F0A8DED150A9FED5D0A8DED140A8B
:104C100014AA15A916A8DDED181A9DED191ADDEDD7
:104C20001A0A9DED1B0AFBF7CCFF14980CF0B2FE9C
:104C3000CDE9120115980CF0ADFECDE910011698E2
:104C40000CF0A8FECDE90E01DDE91201CDE902016B
:104C5000DDE91001CDE900019DED0E0B53EC102BA9
:104C600048A00AF097F818980CF094FECDE91201CC
:104C700019980CF08FFECDE910011A980CF08AFEFD
:104C8000CDE90E011B980CF085FECDE90C01DDE9A4
:104C90001201CDE90401DDE91001CDE90201DDE9F0
:104CA0000E01CDE900019DED0C0B53EC102B3DA046
:104CB0000AF070F818AB19AA1AA91BA89DED141ACE
:104CC000DDED150A9DED160AFCF762FC18980CF054
:104CD00061FECDE9120119980CF05CFECDE91001DE
:104CE0001A980CF057FECDE90E011B980CF052FEFD
:104CF000CDE90C01DDE91201CDE90401DDE9100186
:104D0000CDE90201DDE90E01CDE900019DED0C0BBD
:104D100053EC102B2EA00AF03DF800BF6AE518AB4B
:104D200019AA1AA91BA8FCF77EF91790179818B1B1
:104D300032A00AF02FF8FCE01B980CF02BFE21F0BB
:104D400000419FED090B53EC102BCDE914019DEDB3
:104D5000140B51EC100B0CF0B7FB6DD29FED080A51
:104D60006CE069E0CC1300087B14AE47E17A843F25
:104D700025662C25662C25662C25660A0000000079
:104D800000000000706F736974696F6E2020203A14
:104D9000202025662C20202025662C202020202560
:104DA000660A000063757272656E7420616E676CCE
:104DB000652020202020203A202025662C2020203D
:104DC00025662C20202020256620202025660A002C
:104DD0007461726765742020616E676C65202020A5
:104DE0002020203A202025662C20202025662C20FB
:104DF000202020256620202025660A00206572726A
:104E00006F72207768696C6520696E2070726F63BD
:104E1000657373696E6720706F736974696F6E2054
:104E2000746F20616E676C6520696E20636F6D6DB5
:104E3000616E642033390A009DED1B0A8DED1B0A5B
:104E40001A980CF0A7FD21F000411FED390B53EC2F
:104E5000102BCDE914019DED140B51EC100B0CF04F
:104E600033FB02D21FED3A0A01E09DED1A0A8DEDE7
:104E70001A0A19980CF08EFD21F000411FED460B27
:104E800053EC102BCDE914019DED140B51EC100BDC
:104E90000CF01AFB02D21FED460A01E09DED190A43
:104EA0008DED190A18980CF075FD21F000411FEDE9
:104EB000520B53EC102BCDE914019DED140B51EC6A
:104EC000100B0CF001FB02D21FED530A01E09DED27
:104ED000180A8DED180AFA4AFA49FB48DDED181A4E
:104EE0009DED191ADDED1A0A9DED1B0AFBF769FE0F
:104EF000F34800680CF04EFDCDE91401F14800685C
:104F00000CF048FDCDE91201EF4800680CF042FDBD
:104F1000CDE91001DDE91401CDE90201DDE912015D
:104F2000CDE900019DED100B53EC102BE7A009F02B
:104F300031FF5FE418AB19AA1AA91BA8FCF773F894
:104F40001790179818B1EC4809F024FF48E21B9815
:104F50000CF020FD21F000411FED7D0B53EC102BD8
:104F6000CDE910019DED100B51EC100B0CF0ACFADB
:104F700002D21FED7D0A01E09DED1B0A8DED1B0A9B
:104F80001A980CF007FD21F000411FED890B53EC3E
:104F9000102BCDE910019DED100B51EC100B0CF016
:104FA00093FA02D21FED8A0A01E09DED1A0A8DEDF7
:104FB0001A0A19980CF0EEFC21F000411FED960B37
:104FC00053EC102BCDE910019DED100B51EC100BA3
:104FD0000CF07AFA02D21FED960A01E09DED190A53
:104FE0008DED190A18980CF0D5FC21F000411FED49
:104FF000A20B53EC102BCDE910019DED100B51ECE1
:10500000100B0CF061FA02D21FEDA30A01E09DED36
:10501000180A8DED180AAC4890ED000AF1EE040A6A
:1050200030EE200A8DED110A13AB14AA15A916A8AB
:10503000A34C94ED001AA34CD4ED000A9DED110A87
:10504000FCF7A6FA1290129800287DD113980CF064
:10505000A1FCCDE90C0114980CF09CFCCDE90A01EF
:1050600015980CF097FCCDE9080116980CF092FC0D
:10507000CDE90601DDE90C01CDE90401DDE90A0114
:10508000CDE90201DDE90801CDE900019DED060B46
:1050900053EC102BAFF2EC2009F07CFE9DED160ACC
:1050A000DDED1B0A30EE600A8DED090A09980CF05F
:1050B00071FC21F000419FED910B53EC102BCDE9D9
:1050C0000A019DED0A0B51EC100B0CF04BF8CDE9E9
:1050D0000C019DED0C0B51EC100B0BF05DFF1190D2
:1050E0009DED150ADDED1A0A30EE600A8DED090A14
:1050F00009980CF04FFC21F000419FED800B53EC20
:10510000102BCDE90A019DED0A0B51EC100B0CF0B0
:1051100029F8CDE90C019DED0C0B51EC100B0BF0B7
:105120003BFF10909DED140ADDED190A30EE600A88
:105130008DED090A09980CF02DFC21F000419FED3E
:105140006F0B53EC102B00E040E1CDE90A019DED1F
:105150000A0B51EC100B0CF005F8CDE90C019DED9C
:105160000C0B51EC100B0BF017FF0F909DED130A79
:10517000DDED180A30EE600A8DED090A09980CF091
:1051800009FC21F000419FED5D0B53EC102BCDE9A4
:105190000A019DED0A0B51EC100B0BF0E3FFCDE97A
:1051A0000C019DED0C0B51EC100B0BF0F5FE0E906D
:1051B0009DED110ADFED530AB4EEE00AF1EE10FAAC
:1051C00002DD9FED500A01E09DED110A8DED110AFF
:1051D0009DED100ADFED4B0AB4EEE00AF1EE10FA95
:1051E00002DD9FED480A01E09DED100A8DED100AE9
:1051F0009DED0F0ADFED430AB4EEE00AF1EE10FA7E
:1052000002DD9FED400A01E09DED0F0A8DED0F0AD2
:105210009DED0E0ADFED3B0AB4EEE00AF1EE10FA66
:1052200002DD9FED380A01E09DED0E0A8DED0E0ABC
:1052300016980CF0AFFB21F000419FED300B53ECC2
:10524000102BCDE90C019DED0C0B51EC100B0CF06B
:105250003BF902D29FED2C0A01E09DED160A8DED7F
:10526000160A15980CF096FB21F000419FED230BD8
:1052700053EC102BCDE90C019DED0C0B51EC100BF8
:105280000CF022F902D29FED200A01E09DED150AF3
:105290008DED150A14980CF07DFB21F000419FED77
:1052A000170B53EC102BCDE90C019DED0C0B51ECC1
:1052B000100B0CF009F929D29FED130A28E0000029
:1052C00048000020440000204000002073746172F8
:1052D0007420706F696E7420706F736974696F6E7B
:1052E0002020203A202025662C20202025662C20F6
:1052F00020202025660A0000CC1300089A9999996D
:105300009999B93F0000C842000000009DED140AC1
:105310008DED140A13980CF03DFB21F000411FEDB8
:10532000090B53EC102BCDE90C019DED0C0B51EC4E
:10533000100B0CF0C9F802D21FED0D0A01E09DED33
:10534000130A8DED130A0E980CF024FBCDE90C0125
:105350000F980CF01FFBCDE90A0110980CF01AFB16
:10536000CDE9080111980CF015FBCDE90601DDE946
:105370000C01CDE90401DDE90A01CDE90201DDE915
:105380000801CDE900019DED060B53EC102BF7A0B1
:1053900009F000FDDDED0E3A9DED0F3ADDED102A2E
:1053A0009DED112ADDED131A9DED141ADDED150AA0
:1053B0009DED160AFCF788F8F34890ED000AF7EE29
:1053C000000A30EE200A80ED000A08E0EF4840783D
:1053D000012801D1FDF70EFEEDA009F0DBFC00BFB6
:1053E0009CE418AB19AA1AA91BA8FBF71CFE17907E
:1053F000179818B1ED4809F0CDFCB6E11B980CF0F8
:10540000C9FA21F000419FEDEA0B53EC102BCDE9D6
:1054100010019DED100B51EC100B0CF055F802D261
:105420001FED470A01E09DED1B0A8DED1B0A1A983E
:105430000CF0B0FA21F000419FEDDD0B53EC102B86
:10544000CDE910019DED100B51EC100B0CF03CF868
:1054500002D21FED530A01E09DED1A0A8DED1A0AE2
:1054600019980CF097FA21F000419FEDD10B53EC05
:10547000102BCDE910019DED100B51EC100B0CF031
:1054800023F802D21FED600A01E09DED190A8DEDAF
:10549000190A18980CF07EFA21F000419FEDC40B18
:1054A00053EC102BCDE910019DED100B51EC100BBE
:1054B0000CF00AF802D21FED6C0A01E09DED180A0B
:1054C0008DED180AB04890ED000AF1EE040A30EEB6
:1054D000600A8DED110A13AB14AA15A916A8B64CD3
:1054E00094ED001AB54CD4ED000A9DED110AFCF7BD
:1054F0004FF81290129800287ED113980CF04AFAB7
:10550000CDE90C0114980CF045FACDE90A01159883
:105510000CF040FACDE9080116980CF03BFACDE901
:105520000601DDE90C01CDE90401DDE90A01CDE95F
:105530000201DDE90801CDE900019DED060B53EC08
:10554000102B9FA009F026FC9DED160ADDED1B0A2D
:1055500030EE600A8DED090A09980CF01BFA21F073
:1055600000411FED9A0B53EC102BCDE90A019DED84
:105570000A0B51EC100B0BF0F5FDCDE90C019DED84
:105580000C0B51EC100B0BF007FD11909DED150A63
:10559000DDED1A0A30EE600A8DED090A09980CF06B
:1055A000F9F921F000411FEDAB0B53EC102BCDE9C5
:1055B0000A019DED0A0B51EC100B0BF0D3FDCDE968
:1055C0000C019DED0C0B51EC100B0BF0E5FC109059
:1055D0009DED140ADDED190A30EE600A8DED090A21
:1055E00009980CF0D7F921F000411FEDBC0B53ECEA
:1055F000102BCDE90A0100E0B3E09DED0A0B51EC60
:10560000100B0BF0AFFDCDE90C019DED0C0B51EC37
:10561000100B0BF0C1FC0F909DED130ADDED180A85
:1056200030EE600A8DED090A09980CF0B3F921F00B
:1056300000411FEDCE0B53EC102BCDE90A019DED7F
:105640000A0B51EC100B0BF08DFDCDE90C019DED1B
:105650000C0B51EC100B0BF09FFC0E909DED110A02
:105660005FEDD80AB4EEE00AF1EE10FA02DD1FEDAC
:10567000DB0A01E09DED110A8DED110A9DED100A86
:105680005FEDE00AB4EEE00AF1EE10FA02DD1FED84
:10569000E30A01E09DED100A8DED100A9DED0F0A61
:1056A0005FEDE80AB4EEE00AF1EE10FA02DD1FED5C
:1056B000EB0A01E09DED0F0A8DED0F0A9DED0E0A3C
:1056C0005FEDF00AB4EEE00AF1EE10FA02DD1FED34
:1056D000F30A01E09DED0E0A8DED0E0A0E980CF016
:1056E00059F9CDE90C010F980CF054F9CDE90A01F4
:1056F00010980CF04FF9CDE9080111980CF04AF917
:10570000CDE90601DDE90C01CDE90401DDE90A017D
:10571000CDE90201DDE90801CDE900019DED060BAF
:1057200053EC102B11A009F035FBDDED0E3A9DED89
:105730000F3ADDED102A9DED112ADDED131A9DEDD6
:10574000141ADDED150A9DED160AFBF7BDFE0E4895
:1057500090ED000AF7EE000A30EE600A80ED000AD4
:1057600002E00BA009F016FB00BF39E67370656517
:10577000642020202025662020202566202020254A
:105780006620202025660A0040000020C802002074
:105790006E6F20696E7665727365206F7574206F09
:1057A000662072616E67650A00000000CC13000875
:1057B0007B14AE47E17A843F48000020440000207B
:1057C000616E676C652020202020203A202025660D
:1057D0002C20202025662C2020202025662020201B
:1057E0002025660A0000000018AB19AA1AA91BA8F8
:1057F000FBF719FC1790179818B1FD4809F0CAFA81
:10580000B9E11B980CF0C6F821F000411FED180B10
:1058100053EC102BCDE910019DED100B51EC100B4A
:105820000BF052FE02D29FEDF30A01E09DED1B0A40
:105830008DED1B0A1A980CF0ADF821F000411FED18
:10584000240B53EC102BCDE910019DED100B51EC06
:10585000100B0BF039FE02D29FEDE60A01E09DED40
:105860001A0A8DED1A0A19980CF094F821F00041EB
:105870001FED310B53EC102BCDE910019DED100BFA
:1058800051EC100B0BF020FE02D29FEDDA0A01E082
:105890009DED190A8DED190A18980CF07BF821F08E
:1058A00000411FED3D0B53EC102BCDE910019DED98
:1058B000100B51EC100B0BF007FE02D29FEDCD0A3E
:1058C00001E09DED180A8DED180ACB4890ED000A15
:1058D000F3EE0E0A30EE200A8DED110A13AB14AA76
:1058E00015A916A8C54C94ED001AC54CD4ED000AB4
:1058F0009DED110AFBF74CFE1290129800287DD105
:1059000013980CF047F8CDE90C0114980CF042F80C
:10591000CDE90A0115980CF03DF8CDE9080116987B
:105920000CF038F8CDE90601DDE90C01CDE9040100
:10593000DDE90A01CDE90201DDE90801CDE9000157
:105940009DED060B53EC102BAFF28C1009F022FAF0
:105950009DED160ADDED1B0A30EE600A8DED090A99
:1059600009980CF017F821F000419FEDA60B53ECBD
:10597000102BCDE90A019DED0A0B51EC100B0BF039
:10598000F1FBCDE90C019DED0C0B51EC100B0BF074
:1059900003FB11909DED150ADDED1A0A30EE600A49
:1059A0008DED090A09980BF0F5FF21F000419FEDFC
:1059B000950B53EC102BCDE90A019DED0A0B51EC30
:1059C000100B0BF0CFFBCDE90C019DED0C0B51EC56
:1059D000100B0BF0E1FA10909DED140ADDED190AA1
:1059E00030EE600A8DED090A09980BF0D3FF21F023
:1059F00000419FED840B53EC102B00E0B6E0CDE9A5
:105A00000A019DED0A0B51EC100B0BF0ABFBCDE93D
:105A10000C019DED0C0B51EC100B0BF0BDFA0F902F
:105A20009DED130ADDED180A30EE600A8DED090ACE
:105A300009980BF0AFFF21F000419FED720B53EC82
:105A4000102BCDE90A019DED0A0B51EC100B0BF068
:105A500089FBCDE90C019DED0C0B51EC100B0BF00B
:105A60009BFA0E909DED110AF3EE0E0AB4EEE00AD9
:105A7000F1EE10FA02DDB3EE0E0A01E09DED110A1F
:105A80008DED110A9DED100AF3EE0E0AB4EEE00A58
:105A9000F1EE10FA02DDB3EE0E0A01E09DED100A00
:105AA0008DED100A9DED0F0AF3EE0E0AB4EEE00A3A
:105AB000F1EE10FA02DDB3EE0E0A01E09DED0F0AE1
:105AC0008DED0F0A9DED0E0ADFED500AB4EEE00AEF
:105AD000F1EE10FA02DD9FED4D0A01E09DED0E0A98
