:020000040800F2
:10000000382F0020E1A900088560000887600008FB
:100010008B6000088F6000089360000800000000FB
:1000200000000000000000000000000097600008D1
:1000300099600008000000009B6000089D600008B7
:10004000FBA90008FBA90008FBA90008FBA9000800
:10005000FBA90008FBA90008FBA90008FBA90008F0
:10006000FBA90008FBA90008FBA90008FBA90008E0
:10007000FBA90008FBA90008FBA90008FBA90008D0
:10008000FBA90008FBA90008FBA90008FBA90008C0
:1000900031640008FBA90008FBA90008FBA90008BF
:1000A000FBA90008FBA90008FBA90008FBA90008A0
:1000B00031A500086BA5000829A60008FBA90008C7
:1000C000FBA90008FBA90008FBA90008FBA9000880
:1000D000FBA9000837A20008FBA90008FBA900083B
:1000E000FBA90008FBA90008FBA90008FBA9000860
:1000F00039A80008F9A80008FBA90008FBA9000816
:10010000FBA90008FBA90008FBA90008FBA900083F
:10011000FBA90008FBA90008E9A60008FBA9000844
:10012000FBA90008FBA90008FBA90008FBA900081F
:10013000FBA90008FBA90008FBA90008FBA900080F
:10014000FBA90008E1650008FBA90008FBA900085D
:10015000FBA90008FBA90008FBA90008FBA90008EF
:10016000FBA90008FBA90008FBA90008FBA90008DF
:10017000FBA90008FBA90008FBA90008FBA90008CF
:10018000FBA90008FBA90008FBA90008FBA90008BF
:10019000FBA90008FBA90008FBA90008FBA90008AF
:1001A000FBA90008FBA90008FBA9000800F002F861
:1001B00000F052F80AA090E8000C82448344AAF1AF
:1001C0000107DA4501D100F047F8AFF2090EBAE8AD
:1001D0000F0013F0010F18BFFB1A43F0010318477B
:1001E000FCFC00001CFD0000103A24BF78C878C158
:1001F000FAD8520724BF30C830C144BF04680C602D
:10020000704700000023002400250026103A28BF74
:1002100078C1FBD8520728BF30C148BF0B60704778
:1002200066290FF02A8564290CF0BE8675290CF02A
:10023000BB8678290CF0F486002070471FB50FF0BC
:1002400012FD0DF0F9F90400002000210EF07AFFF4
:10025000E0601FBD10B510BD0DF00AFB1146FFF7A1
:10026000EDFF05F09DF90DF028FB03B4FFF7F2FF59
:1002700003BC09F07DFF000000207047002070479C
:100280000020704700207047002070470020704712
:100290000020704700207047002070470020704702
:1002A00000207047002000BF1FE040F2E731884285
:1002B0000ED00021FE4A02F8301002EBC00251704D
:1002C000FB4A411C02EBC10102EBC00251600BE092
:1002D0000021F74A02F8301002EBC0025170F449D5
:1002E0000A4602EBC0025160401CB0F57A7FDCDBAD
:1002F000EF49F04A116011460968EF4A11607047F2
:100300002DE9F04F99B080460E460EB1642E03DD04
:10031000002019B0BDE8F08F45460024002700BF3B
:100320004CE0701E211D884234DA285D04F1010C76
:10033000B44502DB4FF0000C03E004F1010C15F8AA
:100340000CC0614604F1020CB44502DB4FF0000C16
:1003500003E004F1020C15F80CC0624604F1030C32
:10036000B44502DB4FF0000C03E004F1030C15F878
:100370000CC063464FEA006C4CEA014C4CEA022C7C
:100380004CEA030CBA4607F1010B1FFA8BF74DF844
:100390002AC015E0285D0106601C285C41EA004186
:1003A000A01C285C41EA0020E11C695C0843394636
:1003B0007A1C97B24DF82100201D84B2B442B0DB04
:1003C00000BF4FF000090CF089FD002406E05DF845
:1003D00024000CF087FD8146601C84B2BC42F6DB31
:1003E000484696E710B52DED028BB0EE408A9FEDA2
:1003F000B30A28EE000ADFEDB20A80EE201AF0EE12
:10040000418AB0EE680A0DF0A9FFAE4880ED000AFF
:100410009FEDAA0A28EE000ADFEDA90A80EE201A55
:10042000F0EE418AB0EE680A0EF0A6F8B1EE400A8E
:10043000A44880ED010A9FEDA40A80ED020A9FED19
:100440009F0A28EE000ADFED9E0A80EE201AF0EEE9
:10045000418AB0EE680A0EF08FF89A4880ED030AE0
:1004600090ED000A80ED040A9FED970A80ED050AE1
:100470009FED950A80ED060A9FED930A80ED070A2D
:10048000B7EE000A80ED080ABDEC028B10BD10B576
:100490002DED048BB0EE408AF0EE608A9FED870A66
:1004A00028EE000ADFED860A80EE201AB0EE419AAF
:1004B000B0EE490A0DF052FFF0EE409A9FED7F0A30
:1004C00028EE800ADFED7E0A80EE201AB0EE419A17
:1004D000B0EE490A0DF042FF29EE800A7B4880ED1C
:1004E000000A9FED760A28EE000ADFED750A80EE1D
:1004F000201AB0EE419AB0EE490A0DF02FFFF1EE4E
:10050000409A9FED6E0A28EE800ADFED6D0A80EEBC
:10051000201AB0EE419AB0EE490A0EF02DF829EEFD
:10052000800A6A4880ED010A9FED640A28EE000AFD
:10053000DFED630A80EE201AB0EE419AB0EE490A70
:100540000EF01AF8B1EE400A604880ED020A9FED05
:100550005B0A28EE000ADFED5A0A80EE201AB0EEA0
:10056000419AB0EE490A0EF007F8F0EE409A9FED7E
:10057000530A28EE800ADFED520A80EE201AB0EE10
:10058000419AB0EE490A0DF0E9FE29EE800A4F4883
:1005900080ED030A9FED490A28EE000ADFED480AC4
:1005A00080EE201AB0EE419AB0EE490A0DF0E4FF59
:1005B000F1EE409A9FED410A28EE800ADFED400AF5
:1005C00080EE201AB0EE419AB0EE490A0DF0D4FF49
:1005D00029EE800A3D4880ED040A9FED380A28EE96
:1005E000000ADFED370A80EE201AB0EE419AB0EE35
:1005F000490A0DF0B3FE354880ED050A9FED2F0A3C
:1006000028EE800ADFED2E0A80EE201AB0EE419A25
:10061000B0EE490A0DF0B0FFB1EE400A2B4880ED74
:10062000060A9FED260A28EE800ADFED250A80EEF5
:10063000201AB0EE419AB0EE490A0DF08FFEB1EEED
:10064000400A224880ED070A9FED1F0A80ED080A44
:10065000BDEC048B10BD10B52DED068BB0EE408ABD
:10066000F0EE608AB0EE419A9FED140A28EE000A7F
:10067000DFED130A80EE201AF0EE419AB0EE690A1F
:100680000DF06CFEB0EE40AA9FED0C0A69EE000A78
:100690009FED0B1A80EE810A30EE280AF0EE409AA8
:1006A0000DF05CFE2AEE000A094880ED000A11E018
:1006B000F00200202000002024000020DC0F494030
:1006C000000034439000002000000000B40000202F
:1006D000D80000201FED070A28EE000A5FED080A87
:1006E00080EE201AF0EE419AB0EE690A0DF036FE67
:1006F000B1EE40AA1FED0F0A69EE000A1FED101AB5
:1007000080EE810A30EE280AF0EE409A0DF034FFB8
:100710002AEE000AFE4880ED010A1FED180A28EEB5
:10072000000A5FED190A80EE201AF0EE419AB0EE51
:10073000690A0DF021FFB1EE400AF54880ED020A8A
:100740001FED220A28EE000A5FED230A80EE201A30
:10075000F0EE419AB0EE690A0DF00EFFB0EE40AA3D
:100760001FED2A0A69EE000A1FED2B1A80EE810A9E
:1007700030EE280AF0EE409A0DF0F0FD2AEE000A65
:10078000E34880ED030A1FED330A28EE000A5FED0F
:10079000340A80EE201AF0EE419AB0EE690A0DF0AC
:1007A000EBFEB1EE40AA1FED3B0A69EE000A1FED19
:1007B0003C1A80EE810A30EE280AF0EE409A0DF0E5
:1007C000DBFE2AEE000AD24880ED040A1FED450A3E
:1007D00028EE000A5FED460A80EE201AF0EE419AFC
:1007E000B0EE690A0DF0BAFDC94880ED050A1FEDAB
:1007F0004D0A69EE000A1FED4E1A80EE810A30EEB6
:10080000280AF0EE409A0DF0B7FEB1EE400AC0485B
:1008100080ED060A1FED570A69EE000A1FED581A0F
:1008200080EE810A30EE280AF0EE409A0DF096FD37
:10083000B1EE400AB64880ED070A1FED5D0A80ED73
:10084000080ABDEC068B10BD10B52DED068BB0EE81
:10085000408AF0EE608AB0EE419AF0EE619A1FEDA8
:10086000690A28EE000A5FED6A0A80EE201AB0EEEF
:1008700041AAB0EE4A0A0DF071FDF0EE40AA1FED5C
:10088000710A69EE800A1FED721A80EE810A78EE15
:10089000890A30EE200AB0EE40AA0DF05FFD2AEE84
:1008A000800A9C4880ED000A1FED7C0A28EE000AB1
:1008B0005FED7D0A80EE201AB0EE41AAB0EE4A0A42
:1008C0000DF04CFDF1EE40AA1FED840A69EE800A9E
:1008D0001FED851A80EE810A78EE890A30EE200A33
:1008E000B0EE40AA0DF048FE2AEE800A894880ED5D
:1008F000010A1FED8E0A28EE000A5FED8F0A80EED6
:10090000201AB0EE41AAB0EE4A0A0DF035FEB1EE63
:10091000400A804880ED020A1FED980A28EE000A7E
:100920005FED990A80EE201AB0EE41AAB0EE4A0AB5
:100930000DF022FEF0EE40AA1FEDA00A69EE800A3B
:100940001FEDA11A80EE810A78EE890A30EE200AA6
:10095000B0EE40AA0DF002FD2AEE800A6D4880ED4F
:10096000030A1FEDAA0A28EE000A5FEDAB0A80EE2B
:10097000201AB0EE41AAB0EE4A0A0DF0FDFDF1EEEC
:1009800040AA1FEDB20A69EE800A1FEDB31A80EE8D
:10099000810A78EE890A30EE200AB0EE40AA0DF006
:1009A000EBFD2AEE800A5B4880ED040A1FEDBD0ACC
:1009B00028EE000A5FEDBE0A80EE201AB0EE41AAD2
:1009C000B0EE4A0A0DF0CAFC524880ED050A1FED50
:1009D000C50A69EE800A1FEDC61A80EE810A78EE1C
:1009E000890A30EE200AB0EE40AA0DF0C5FDB1EE46
:1009F000400A484880ED060A1FEDD00A69EE800AD9
:100A00001FEDD11A80EE810A78EE890A30EE200AB5
:100A1000B0EE40AA0DF0A2FCB1EE400A3D4880EDD8
:100A2000070A1FEDD70A80ED080ABDEC068B10BD42
:100A30001FEDDB0A384880ED000A1FEDDD0A80ED6E
:100A4000010A1FEDDF0A80ED020A1FEDE10A3348BB
:100A500080ED000A9FED320A80ED010A1FEDE60AE3
:100A600080ED020A9FED2F0A2F4880ED000A1FED4E
:100A7000EA0A80ED010A1FEDEC0A80ED020A9FED03
:100A80002B0A2B4880ED000A1FEDF10A80ED010AC8
:100A9000BAEE030A80ED020A9FED260A264880ED91
:100AA000070A9FED260A80ED0D0A9FED250A80EDCD
:100AB000130A9FED240A80ED190ABFEE000A80EDAB
:100AC000060ABFEE000A80ED0C0AB7EE000A80EDC0
:100AD000120ABFEE000A80ED180A00201A490881A8
:100AE000AFF66B0019494860AFF66F008860AFF64B
:100AF0006F00C860AFF673000861AFF6730048611D
:100B0000AFF677008861AFF67700C86120E000009B
:100B1000D8000020FC000020200100202C01002033
:100B2000CDCCEE4200006B433801002033F3844308
:100B300044010020D95F963E50010020137280418D
:100B4000A8D70542A47071C1B00200205022002035
:100B5000AFF6BF000862AFF6BF004862AFF6C30051
:100B60008862AFF6C300C8629FEDFE0AFE4880EDC2
:100B7000000A9FEDFC0A80ED010A9FEDFA0A80ED64
:100B8000020AB0EE080AF94880ED000AB0EE080A41
:100B900080ED010AB0EE080A80ED020A7047F0B558
:100BA0002DED108B85B0B0EE408AF0EE608AB0EE8D
:100BB000419A04460D4616469FEDED0A28EE000ABE
:100BC000DFEDEC0A80EE201AB0EE41AAB0EE4A0A40
:100BD0000DF0C4FB8DED040A38EE890A8DED030A91
:100BE0009DED030ADFEDE20A20EE200ADFEDE10AC7
:100BF00080EE201AB0EE41AAB0EE4A0A0DF0AEFB2C
:100C0000F0EE409A9FEDDA0A28EE000ADFEDD90AED
:100C100080EE201AB0EE41AAB0EE4A0A0DF0ACFC0C
:100C20008DED020A9FEDD20A28EE800ADFEDD10A8F
:100C300080EE201AB0EE41AAB0EE4A0A0DF08EFB0B
:100C40008DED010A38EE890A8DED000A9FEDC80A84
:100C500028EE000ADFEDC70A80EE201AB0EE41AAA6
:100C6000B0EE4A0A0DF07AFB5FED500A20EE200A42
:100C700060EE29AA9FEDBE0A28EE000ADFEDBD0A4C
:100C800080EE201AB0EE41AAB0EE4A0A0DF074FCD4
:100C9000FAEE030A40EEC0AA9FEDB50A28EE000A5C
:100CA000DFEDB40A80EE201AB0EE41AAB0EE4A0A97
:100CB0000DF054FB5FED650A20EE20BA9FEDAC0A03
:100CC00028EE800ADFEDAB0A80EE201AB0EE41AAD2
:100CD000B0EE4A0A0DF042FB4BEE00AA9FEDA40ACB
:100CE00028EE000ADFEDA30A80EE201AB0EE41AA3A
:100CF000B0EE4A0A0DF040FC5FED770A40EEC0AA64
:100D0000C4ED00AA9FED9A0A28EE000ADFED990AC9
:100D100080EE201AB0EE41AAB0EE4A0A0DF02CFC8B
:100D20005FED7E0A20EE200A60EE29AA9FED900A70
:100D300028EE000ADFED8F0A80EE201AB0EE41AAFD
:100D4000B0EE4A0A0DF00AFBFAEE030A40EE80AA62
:100D50009FED870A28EE000ADFED860A80EE201A52
:100D6000B0EE41AAB0EE4A0A0DF006FC5FED930A20
:100D700020EE20BA9FED7E0A28EE800ADFED7D0A84
:100D800080EE201AB0EE41AAB0EE4A0A0DF0E6FA63
:100D90004BEE00AA9FED760A28EE000ADFED750AF9
:100DA00080EE201AB0EE41AAB0EE4A0A0DF0D6FA53
:100DB0005FEDA50A40EE80AAC5ED00AA9FED6C0A82
:100DC00028EE800A10EE101A08460EF0DBFE41EC09
:100DD0001E0B9FED690B53EC102B0EF0BBFA41EC90
:100DE0001D0BB0EE4D0AF0EE6D0A0DF061FBB0EE9A
:100DF00040CAF0EE60CA9FED620B53EC102B51EC31
:100E00001C0B0EF095FC41EC1A0B9DED000ADFED7A
:100E1000580A20EE200ADFED570A80EE201A11EE64
:100E2000107A38460EF0AEFE41EC1D0BB0EE4D0AC6
:100E3000F0EE6D0A0DF03CFBB0EE40CAF0EE60CA79
:100E40009FED510B53EC102B51EC1C0B0EF070FC72
:100E500041EC1B0B53EC1A2B0EF0AAFD41EC1F0BBF
:100E60000EF092F93060002005B0BDEC108BF0BDA3
:100E700070B52DED028B0446B0EE408A0D4600267B
:100E800000EE104AB8EE400A04EB4400404901EB82
:100E9000C00080ED050A04EB440001EBC00080EDCA
:100EA000028A3C48007818B10120BDEC028B70BD6D
:100EB0000CB1042C01D90220F7E7B7EE000AB4EE1A
:100EC000C08AF1EE10FA01DD0320EEE71DB1012D1D
:100ED00001D00420E9E7E0B205F036FD0646A6B1F0
:100EE0004DB9D6ED480A70EE880AB0EE600AE0B25D
:100EF00007F08BF80BE0D6ED480A70EEC80AB0EEAA
:100F0000600AE0B207F081F801E00520CDE700209B
:100F1000CBE72DE9F04706460F4690469946002458
:100F20000025012476E0204605F00EFD0546C5B1FA
:100F3000012C06D0022C32D0032C42D0042C64D1D8
:100F400051E095ED480A1248D0ED070A30EE600AEC
:100F5000F2EE040A20EE200AD0ED060A80EE201AF6
:100F60001AE054E0CDCCCC3DA0220020AC220020E1
:100F7000DC0F494000003443000000000080664060
:100F80000000000000606D4000000060669E70C0C0
:100F9000500100200200002086ED001A36E095ED99
:100FA000480AFA48D0ED0D0A30EE600AF2EE040A63
:100FB00020EE200AD0ED0C0A80EE201A87ED001AF0
:100FC00024E095ED480AF148D0ED130A30EE600AAE
:100FD000F2EE040A20EE200AD0ED120A80EE201A6A
:100FE00088ED001A12E095ED480AE848D0ED190A9C
:100FF00030EE600AF2EE040A20EE200AD0ED180A64
:1010000080EE201A89ED001A00E000BF00E003E046
:10101000601CC4B2052C86DB00BF052C02D0012069
:10102000BDE8F0870020FBE730B52DED028B85B0E1
:101030000024D7480078002879D00020D4490870CF
:1010400001240EE00021204605F097FC00B906E0DF
:1010500004F10A00C0B205B0BDEC028B30BD601CCB
:10106000C4B2052CEEDB01240BE00021204606F083
:10107000E0FC00B903E004F11400C0B2EBE7601C2F
:10108000C4B2052CF1DB01AB02AA03A904A8FFF747
:1010900040FF05461DB1BFA00BF046FF59E0049884
:1010A0000EF070FD21F000419FEDC60B53EC102BAC
:1010B0000EF002FB02D29FEDC50A01E09DED040A8D
:1010C0008DED040A03980EF05DFD21F000419FEDC7
:1010D000BD0B53EC102B0EF0EFFA02D29FEDBB0AC2
:1010E00001E09DED030A8DED030A02980EF04AFD22
:1010F00021F000419FEDB30B53EC102B0EF0DCFA06
:1011000002D29FEDB20A01E09DED020A8DED020AC6
:1011100001980EF037FD21F000419FEDAA0B53EC32
:10112000102B0EF0C9FA03D29FEDA80A02E011E0DD
:101130009DED010A8DED010AA54A111F081FDDED85
:10114000011A9DED021ADDED030A9DED040AFFF779
:1011500026FD00BF00207EE770B52DED028B044612
:10116000B0EE408AF0EE608A0025E0B205F0ECFBBC
:101170000546002D48D000EE104AB8EE400A04EBB8
:101180004400824901EBC00080ED050A04EB4400F5
:1011900001EBC00080ED038A04EB440001EBC000CA
:1011A00090ED030ADFED8B0A80EE201A04EB440079
:1011B00001EBC00080ED021A04EB440001EBC0001B
:1011C000C0ED048A012C06D0022C09D0032C0CD0CF
:1011D000042C14D10EE001217F480BF063F90EE0DE
:1011E00001217E480BF05EF909E001217C480BF0FB
:1011F00059F904E001217B480BF054F900BF00BF0E
:101200000020BDEC028B70BD6420FAE710B52DED17
:101210000C8BB0EE408AF0EE608AB0EE419AF0EEB0
:10122000619AB0EE42AAF0EE62AAB0EE43BAF0EED6
:1012300063BAB2EE040AC8EE000A544890ED061AEA
:1012400090ED070A00EE810AB0EE40CAB2EE040A41
:10125000C8EE800A90ED0C1A90ED0D0A00EE810A9E
:10126000F0EE40CAB2EE040AC9EE000A90ED121A7E
:1012700090ED130A00EE810AB0EE40DAB2EE040AF5
:10128000C9EE800A90ED181A90ED190A00EE810A55
:10129000F0EE40DAF0EE4C0AB0EE4A0A0120FFF719
:1012A0005BFFF0EE6C0AB0EE6A0A0220FFF754FF13
:1012B000F0EE4D0AB0EE4B0A0320FFF74DFFF0EEC3
:1012C0006D0AB0EE6B0A0420FFF746FF0020BDEC6C
:1012D0000C8B10BD2DE9F04F2DED108BA3B0F0EE6F
:1012E00040AAB0EE608AF0EE41BA81460E4617463B
:1012F0009A469FED360A8DED220A9FED340A8DED58
:10130000210A9FED320A8DED200A9FED300A8DED06
:101310001F0A1FAB20AA21A922A8FFF7FAFD1E90E1
:101320001E9840B130A00BF0FFFD012023B0BDECB2
:10133000108BBDE8F08F9FED350AF0EE408A6AEE23
:10134000AA0A48EE080A48EEE80AB0EE600A0DF074
:10135000DBF9B0EE40DA2DEE080A08EEEA0A6AEE92
:10136000AA0A48EE080A80EE201AF0EE41FA1FEEB3
:10137000900A0EF007FC21F000419FED250B53EC85
:10138000102B0EF0D3FA47D20220CFE750010020F5
:101390007E000020206572726F72207768696C652C
:1013A00020696E2070726F63657373696E67207059
:1013B0006F736974696F6E20746F20616E676C65FE
:1013C0000A0000007B14AE47E17A843F0000000071
:1013D0003822002000007A44000400400008004049
:1013E000001C004000200040706F736974696F6ECC
:1013F00020746F20616E676C652063616C63756C2F
:10140000617465206572726F720A0000CDCCDB4298
:10141000000000000000F03FB0EE6F0A0CF008FF83
:10142000B0EE409AB0EE490ADFEDFE0A20EE200A47
:101430009FEDFD1AC0EE010A9FEDFA0AF4EEC00A14
:10144000F1EE10FA04DD9FEDF90A39EE400A07E0EB
:101450009FEDF40A69EE000A9FEDF31A80EE810A0F
:101460008DED1A0A9FEDEF0A69EE000A9FEDEE1A64
:1014700080EE810ADFEDEB0A30EEC00ADFEDE90A0B
:10148000B4EEE00AF1EE10FA10DD9FEDE60A69EE27
:10149000000A9FEDE51A80EE810ADFEDE20A30EEE8
:1014A000C00ADFEDE20A30EE600A0BE09FEDDD0AD4
:1014B00029EE000A9FEDDC1AC0EE010A9FEDD90A61
:1014C00030EE600A8DED1B0AB1EE4D0AB0EE40DA47
:1014D0002DEE080A08EEEA0A6AEEAA0A48EE080AA1
:1014E00080EE201AF0EE41FAB0EE6F0A0CF0A0FE8A
:1014F000B0EE409A9FEDCB0A69EE000A9FEDCA1A42
:1015000080EE810ADFEDC70AB4EEE00AF1EE10FAD0
:1015100004DD9FEDC60A39EE400A07E09FEDC10ADF
:1015200069EE000A9FEDC01A80EE810A8DED1C0A5B
:101530009FEDBC0A69EE000A9FEDBB1A80EE810A9E
:10154000DFEDB80A30EEC00ADFEDB60AB4EEE00A0D
:10155000F1EE10FA10DD9FEDB30A29EE000ADFED7F
:10156000B20A80EE201A9FEDAF0A30EE410ADFED9D
:10157000AF0A30EE600A0BE09FEDAA0A69EE000A9E
:101580009FEDA91A80EE810ADFEDA60A30EEC00AAF
:101590008DED1D0A9DED1D0A10EE101A08460EF085
:1015A000F1FA41EC1C0B9DED1C0A10EE101A0846D6
:1015B0000EF0E8FACDE90A019DED1B0A10EE101AB3
:1015C00008460EF0DFFACDE908019DED1A0A10EE8B
:1015D000101A08460EF0D6FACDE906018DED04CBBF
:1015E0009DED0A0B8DED020B9DED080B8DED000BB3
:1015F0009DED060B53EC102B8DA00BF095FC0124F8
:1016000001259FED94EA00BF37E01EEE100A0EF0B0
:10161000B9FA41EC1C0B19A800EB840090ED000A0C
:10162000DDED220A30EEC00A10EE101A08460EF068
:10163000A9FA21F0004153EC1C2BCDE90A019DEDE4
:101640000A0B51EC100B0EF037F814D2254619A8EE
:1016500000EB840090ED000ADDED220A30EEC00AB6
:1016600010EE101A08460EF08DFA21F000410DF030
:101670008BFD0EEE100A601CC4B2052CC5DB19A848
:1016800050F825802AEEAA0A08EE080A08EEE80AB1
:10169000B5EEC00AF1EE10FA01D2032046E6012DA4
:1016A00001D0022D0CD16AEEAA0A48EE080A48EED3
:1016B000E80AB0EE600A0DF027F8B0EE40DA0DE06F
:1016C0006AEEAA0A48EE080A48EEE80AB0EE600A96
:1016D0000DF01AF8B1EE400AB0EE40DA40460EF0D6
:1016E00051FA41EC1C0B53EC1C2B5BA00BF01CFCC7
:1016F000C9F800802AEEAA0A08EE080A0BEEAB0A27
:1017000008EEE80ADFED590A30EE600ADFED580A0C
:1017100070EE600AB0EE001A80EE810A9FED551A55
:10172000C0EE010A9FED540A80EE801A11EE10BA45
:1017300058460EF027FA21F000411FEDCB0B53EC79
:10174000102B0EF0F3F801D20420EFE52AEEAA0ADE
:1017500008EE080A0BEEAB0A08EEE80ADFED430AD2
:1017600030EE600ADFED420A70EE600AB0EE001A59
:1017700080EE810A9FED3F1AC0EE010A9FED3E0AFE
:1017800080EE801AB0EE41CAB0EE4C0A0CF0C4FCF8
:10179000B0EE40BAB0EE4B0ADFED220A20EE200A8E
:1017A000DFED210A80EE201A8DED171AB0EE4B0AFC
:1017B000DFED1C0A60EE200A9FED1B1A80EE810A05
:1017C000DFED180A30EE200ADFED160AB4EEE00A6B
:1017D000F1EE10FA0ADD9FED130A2BEE000ADFEDA1
:1017E000120A80EE201AB1EE410A0BE09FED0D0ABD
:1017F0006BEE000A9FED0C1A80EE810ADFED090AFC
:1018000030EE200A8DED180A9DED180A10EE101A20
:1018100008460EF0B7F941EC1C0B9DED170A10EECF
:10182000101A2BE000003443DC0F49400000B443A1
:10183000746D702074312020202025662020202007
:1018400020202566202020202566202020202566B7
:101850000A0000000000B9437468657461203120FB
:1018600020202020202025660A00000000B95747CC
:1018700067178A4700006B4333F3844308460EF032
:1018800081F9CDE90A018DED00CB9DED0A0B53ECFA
:10189000102BFEA00BF048FB9DED180ADDED200A91
:1018A00030EEC00A10EE101A08460EF06BF921F067
:1018B000004141EC1C0B9DED170ADDED200A30EED6
:1018C000C00A10EE101A08460EF05CF921F0004133
:1018D00053EC1C2BCDE90A019DED0A0B51EC100BCA
:1018E0000DF0EAFE02D29DED170A01E09DED180A07
:1018F000B0EE40BA1BEE100A0EF044F941EC1C0B9E
:1019000053EC1C2BE6A00BF00FFB87ED00BA1FED8C
:101910003A0A2BEE000A5FED3D0A80EE201AF0EE47
:1019200041CAB0EE6C0A0CF019FDDFEDE20A9FED42
:10193000E21A41EE000AB0EE60CAB0EE4C0A0CF0BA
:10194000E3FEF0EE40DA8DEE2D0A10EE10BA5846A6
:101950000EF018F921F000419FEDD80B53EC102B3D
:101960000DF0E4FF23D31FED500A2BEE000A5FEDCC
:10197000530A80EE201A8DED0B1A9DED0B0A0CF028
:10198000EDFC5FED440A1FED441A41EE000A80EEC3
:10199000AD0A10EE10BA58460EF0F4F821F00041EE
:1019A0009FEDC60B53EC102B0DF0C0FF01D20520AC
:1019B000BCE48DEE2D0AB0EE40CA0CF0ADFBB0EEEB
:1019C00040AA1FED670A2BEE000A5FED6A0A80EE5F
:1019D000201AF0EE41CAB0EE6C0A0CF0BFFC5FEDCD
:1019E0005B0A1FED5B1A41EE000A80EEAD0AB0EE15
:1019F00040CA0CF091FBF0EE409AB0EE690A3AEE64
:101A0000400A5FED770AB4EEE00AF1EE10FA06DD67
:101A10003AEE690ADFEDAB0A30EE600A01E03AEE19
:101A2000690A8DED120A3AEE290A5FED810AB4EED9
:101A3000E00AF1EE10FA06DD3AEE290ADFEDA10A1E
:101A400030EE600A01E03AEE290A8DED130AB1EE9C
:101A50004A0A30EE690A5FED8C0AB4EEE00AF1EE54
:101A600010FA08DDB1EE4A0A30EE690ADFED950A98
:101A700030EE600A03E0B1EE4A0A30EE690A8DEDFD
:101A8000140AB1EE4A0A30EE290A5FED990AB4EE63
:101A9000E00AF1EE10FA08DDB1EE4A0A30EE290A4A
:101AA000DFED880A30EE600A03E0B1EE4A0A30EE5C
:101AB000290A8DED150A9DED150A5FEDA60A20EEA7
:101AC000200A5FEDA70A80EE201A11EE10BA5846E0
:101AD0000EF058F841EC1C0B9DED140A5FEDAF0AB7
:101AE00020EE200A5FEDB00A80EE201A11EE10BA47
:101AF00058460EF047F8CDE90A019DED130A5FED57
:101B0000B70A20EE200A5FEDB80A80EE201A11EE27
:101B100010BA58460EF036F8CDE908019DED120ACC
:101B20005FEDC00A20EE200A5FEDC10A80EE201AA8
:101B300011EE10BA58460EF025F8CDE906018DEDEC
:101B400004CB9DED0A0B8DED020B9DED080B8DED89
:101B5000000B9DED060B53EC102B5BA00BF0E4F992
:101B60005FEDC4EA012447E01EEE900A0EF00AF889
:101B700041EC1C0B11A800EB8400D0ED000A1FED16
:101B8000D70A60EE800A1FEDD81A80EE810ADDEDDB
:101B9000210A30EEC00A10EE10BA58460DF0F2FFDE
:101BA00021F0004153EC1C2BCDE90A019DED0A0BFD
:101BB00051EC100B0DF080FD1CD2254611A800EB56
:101BC000840090ED000A5FEDE90A60EE200A1FED47
:101BD000EA1A80EE810ADDED210A30EEC00A10EE2D
:101BE00010BA58460DF0CEFF21F000410DF0CCFAAE
:101BF0000EEE900A601CC4B2052CB5DB11A800EBF8
:101C0000850090ED000A5FEDF90A20EE200A5FEDF5
:101C1000FA0A80EE201A11EE10BA58460DF0B2FF03
:101C200041EC1C0B53EC1C2B2DA00BF07DF911A8E3
:101C300000EB850090ED000ADFED2C0A20EE200A73
:101C4000DFED2B0A80EE201A86ED001A96ED000AD1
:101C5000DFED280A30EEC00AD7ED000A30EE600A48
:101C60008DED0D0A96ED000ADFED200A30EEC00A78
:101C7000D7ED000A30EE600A8DED0E0A96ED000AEF
:101C8000DFED1D0A30EEC00A38E0000074686574AC
:101C900061203320202025662C2025660A000000C4
:101CA0007468657461203320202020202020256660
:101CB0000A000000E7F3F5478016F4470000000033
:101CC0000000F03FDC0FC94074322025662C202034
:101CD000202566202020256620202025660A000079
:101CE000743220697320202025660A0000003443E6
:101CF000DC0F4940000000000000B443D7ED000AAB
:101D000030EE600A8DED0F0A9FEDFCFA012437E0FA
:101D10001FEE100A0DF036FF41EC1C0B0CA800EB77
:101D2000840090ED000ADDED1F0A30EEC00A10EECF
:101D3000101A08460DF026FF21F0004153EC1C2B31
:101D4000CDE90A019DED0A0B51EC100B0DF0B4FC2E
:101D500014D225460CA800EB840090ED000ADDEDBE
:101D60001F0A30EEC00A10EE101A08460DF00AFFE6
:101D700021F000410DF008FA0FEE100A601CC4B209
:101D8000042CC5DB0CA800EB850090ED000A10EEDA
:101D9000101A08460DF0F6FE41EC1C0B53EC1C2B00
:101DA000D7A00BF0C1F80CA800EB850090ED000A5D
:101DB0008AED000A00BF002070E42DE9F0479AB0D8
:101DC000824621E0D14800680078FF2806D1CF483C
:101DD000006840680078FF2800D116E0CB48006812
:101DE000CB490968884203D101201AB0BDE8F087C9
:101DF0000020C64909680870C44909684870C3488A
:101E000000684068C1490860DCE700BFBF4800685F
:101E10000078FF287ED1BD48006840680078FF2820
:101E2000F8D10120BB49087000260020B749096895
:101E30000870B64909684870B44800684068B349FA
:101E40000860002009680870B04909684870AF4808
:101E500000684068AD49086013E00025022008F0E2
:101E60001FF929466D1C28290ADD0020A7490968A9
:101E70004870A64800684068A44908600220B4E79A
:101E800000BFA248006840780028E6D09F4800685C
:101E900002783046711CCEB201A90A5400209B4939
:101EA000096848709948006840689849086013E0DC
:101EB0000025022008F0F4F829466D1C28290ADDC7
:101EC00000209249096848709048006840688F492E
:101ED0000860022089E700BF8C480068407800282D
:101EE000E6D08A48006802783046711CCEB201A95B
:101EF0000A54002085490968487084480068406891
:101F0000824908609DF805009DF8041040EA01240C
:101F1000062C00E069E10DDA00207C490968487070
:101F20007A4800684068794908607BA00AF0FCFFA5
:101F300003205AE729E0002512E0022008F0B0F85B
:101F40002846691C8DB23C280ADD00206F490968CB
:101F500048706E48006840686C490860022044E799
:101F60006A48006840780028E7D068480068007830
:101F700001A98855002065490968487063480068D0
:101F8000406862490860701CC6B2A642D3DB201FBD
:101F900081B201A8FEF7B4F90746394663A00AF0FA
:101FA000C3FF201F01A9085C0106E01E01AA105C06
:101FB00041EA0041A01E105C41EA0020611E515C14
:101FC00040EA0108474504D05CA00AF0ADFF0420B8
:101FD0000BE700204F490870201F88809DF80600FD
:101FE00040EA002008819DF80800488108464089A1
:101FF000012803DB08464089042807DD454840895D
:102000000A2803D0434840890B2860D141484189C0
:102010004DA00AF089FF03203E49488000208881B6
:10202000084640890A2802D00B284FD12CE00DF138
:102030000909002500BF1BE099F80000012813D111
:10204000344880890121A940084332498881681CAD
:10205000042809DC691CC8B205F083FE691CC8B2FB
:102060000122032105F037FF09F10109681CC5B2FF
:1020700028488088A842DFDC264880890F2802DDB6
:102080003AA00AF051FF21E00DF109090025FF20D7
:102090002049888100BF14E099F8000068B91D4804
:1020A00080890021A94008401A498881681C0428B9
:1020B00003DC691CC8B205F0C6FE09F10109681C01
:1020C000C5B214488088A842E6DC00BF00BF1148B2
:1020D000408905280BDB0F484089082807DC0D489C
:1020E000418930A00AF020FF01200A4948800948B0
:1020F000408909286DD10748418964E00000B9434F
:10210000743420697320202025660A0020000020F6
:1021100024000020B002002064617461206C656EB0
:10212000677468206572726F720A00004352432020
:10213000726573756C74202025780A0063726320C1
:102140006572726F720A0000636F6E74726F6C203A
:102150006672616D652C2066756E6374696F6E20A2
:10216000636F6465202025640A0000007761726E49
:10217000696E6720746F6F206D756368206D6F7472
:102180006F722C20656E61626C65203120746F2047
:1021900034206D6F746F7220616C72656164790AAE
:1021A0000000000072656164206672616D652C201C
:1021B00066756E6374696F6E20636F646520202599
:1021C000640A000005E0AFA00AF0AEFE0220B549A7
:1021D0004880062C07D1B3484189B3A00AF0A4FE79
:1021E0000020B04948800020FFE50020B749096879
:1021F0000870B64909684870B44800684068B34937
:1022000008600020F1E510B5B1A00AF08DFEB9A07C
:102210000AF08AFEC0A00AF087FEC8A00AF084FE79
:10222000D0A00AF081FED8A00AF07EFEDEA00AF05F
:102230007BFEE5A00AF078FEEAA00AF075FE10BD6C
:1022400011B59DB01D98332883F0A481DFE810F00C
:10225000A21933003D004A00510058005F00A21946
:10226000A219A219680074007A009200AA00AB00BB
:10227000B200B900C000C700CE00D500DC00E3000A
:10228000EB00F30006019202A502B802CB02DE02C7
:10229000F102040317032A033D035003210425051B
:1022A000360687084C0A510C2F0E0010DB11A213C2
:1022B0008B159E15AA17D2A00AF036FE04F0FAF983
:1022C000D4A00AF031FE03F068B9D6A00AF02CFEC3
:1022D00004F0FCF94FF4FA7007F02AFFD5A00AF0D9
:1022E00023FEF0E7D8A00AF01FFEDDA00AF01CFED6
:1022F000E9E7E1A00AF018FEE6A00AF015FEE2E721
:10230000EAA00AF011FEF0A00AF00EFEDBE7F4A04E
:102310000AF00AFE05F0CEFDF6A00AF005FED2E7AF
:10232000F9A00AF001FE04F0C5F904F0CFF94FF46A
:102330007A7007F0FDFEC6E7F6A00AF0F5FD05F09D
:10234000B9FDC0E7F6A00AF0EFFD01220621104614
:1023500005F0C1FD01220621022005F0BCFD01228D
:102360000621032005F0B7FD01220621042005F017
:10237000B2FDA8E7F3A00AF0D7FD01220321104621
:1023800005F0A9FD01220321022005F0A4FD012290
:102390000321084605F09FFD01220321042005F0DA
:1023A0009AFD90E78FE700219FEDEE0A0420FEF7EB
:1023B0005FFD88E701219FEDEB0A0420FEF758FD41
:1023C00081E700219FEDE70A0320FEF751FD7AE740
:1023D00001219FEDE40A0320FEF74AFD73E7002187
:1023E0009FEDE00A0220FEF743FD6CE701219FED1F
:1023F000DD0A0220FEF73CFD65E700219FEDD90ACA
:102400000120FEF735FD5EE701219FEDD60A084663
:10241000FEF72EFD57E7DFEDD40A9FEDD40A042026
:10242000FEF79AFE4FE7DFEDD20A9FEDD00A0420B7
:10243000FEF792FE47E7DFEDCE3A9FEDCD3ADFEDB6
:10244000CC2AB2EE042ADFEDCA1A9FEDC91ADFEDDD
:10245000C80AB2EE040AFEF7D9FE34E7DFEDC43A4B
:102460009FEDC33ADFEDC22AB2EE042ADFEDC01AB7
:102470009FEDBF1ADFEDBE0A9FEDBD0AFEF7C6FE57
:1024800021E70000736574206672616D652C20661B
:10249000756E6374696F6E20636F646520202564B8
:1024A0000A000000B0020020686561727462656114
:1024B00074206672616D652C2066756E6374696F39
:1024C0006E20636F6465202025640A0020000020D0
:1024D0000D0ABBB6D3ADCAB9D3C320494E4E464F41
:1024E000532053434120C7FDB6AFB2E2CAD4A3A1E3
:1024F0000D0A0000CFEACFB8CDA8D0C5D0ADD2E943
:10250000B2CEBCFB20494E4E464F532057494B4953
:1025100020A3A10D0A000000B7A2CBCD203120C21C
:10252000D6D1AFD7DCCFDFC9CFB5C4D6B4D0D0C6F3
:10253000F7494420A3A10D0A00000000B7A2CBCDAB
:10254000203220CAB9D3C3C4ACC8CF4944B3F5CAFA
:10255000BCBBAF534341BFD8D6C6C6F720A3A10D1D
:102560000A000000B7A2CBCD203320BDF8C8EBCEC7
:10257000BBD6C3B9E9C1E3B2E2CAD4B3CCD0F2202E
:10258000A3A10D0A00000000B7A2CBCD203420BDCE
:10259000F8C8EBD5FDB7B4D7AAB2E2CAD4B3CCD051
:1025A000F220A3A10D0A0000B7A2CBCD203520BD9B
:1025B000F8C8EBB8DFB5CDCBD9B2E2CAD4B3CCD032
:1025C000F220A3A10D0A0000B7A2CBCD203620BD7A
:1025D000ABD6B4D0D0C6F7B9D8BBFA20A3A10D0AA8
:1025E00000000000B7A2CBCD203720CFD4CABEB0A8
:1025F000EFD6FAD0C5CFA220A3A10D0A000000009B
:102600000D0AD6B4D0D0C2D6D1AFB3CCD0F2A3A1EC
:102610000D0A0000C2D6D1AFBDE1CAF8A3A10D0AD0
:10262000000000000D0A534341B3F5CABCBBAFA381
:10263000A10D0A00534341B3F5CABCBBAFBDE1CA0B
:10264000F8A3A10D0A0000000D0ABDF8C8EBCEBB2F
:10265000D6C3B9E9C1E3B2E2CAD4A3A10D0A00000E
:10266000CEBBD6C3B9E9C1E3B2E2CAD4BDE1CAF870
:10267000A3A10D0A000000000D0ABDF8C8EBD5FDAE
:10268000B7B4D7AAC7D0BBBBB2E2CAD4A3A10D0AC4
:1026900000000000D5FDB7B4D7AAC7D0BBBBB2E2DB
:1026A000CAD4BDE1CAF8A3A10D0A00000D0ABDF805
:1026B000C8EBB8DFB5CDCBD9C7D0BBBBB2E2CAD46B
:1026C000A3A10D0A00000000B8DFB5CDCBD9C7D05B
:1026D000BBBBB2E2CAD4BDE1CAF8A3A10D0A000097
:1026E0000D0AD6B4D0D0C6F7B9D8BBFAA3A10D0A4B
:1026F00000000000D6B4D0D0C6F7B9D8BBFABDE10F
:10270000CAF8A3A10D0A0000737461727420616C91
:102710006C200A00636C6F736520616C6C200A008A
:102720007772697465206D6F746F7220746F20709A
:102730006F736974696F6E2053206D6F6465200A32
:10274000000000007772697465206D6F746F7220ED
:10275000746F20706F736974696F6E206D6F64653C
:10276000200A0000CDCCCC3D000010420000C84241
:10277000000000005FED023A1FED033A5FED042A0E
:10278000B2EE042A5FED061A1FED071A5FED080A84
:10279000BAEE040AFEF73AFD95E55FED0B3A1FED40
:1027A0000C3AF2EE042A1FED0E2A5FED0F1A1FED10
:1027B000101AF2EE040A1FED120AFEF727FD82E559
:1027C0005FED153A1FED163AF2EE042A1FED182AB6
:1027D0005FED191A1FED1A1A5FED1B0A1FED1C0A97
:1027E000FEF714FD6FE55FED1E3A1FED1F3AF2EEA6
:1027F000042A1FED212A5FED221A1FED231AFAEE9B
:10280000040A1FED250AFEF701FD5CE55FED283A9D
:10281000B2EE043A5FED2A2A1FED2B2A5FED2C1A47
:10282000B2EE041A5FED2E0A1FED2F0AFEF7EEFC42
:1028300049E55FED313AB2EE043A5FED332A1FED20
:10284000342A5FED351A1FED361A5FED370A1FED9A
:10285000380AFEF7DBFC36E55FED3B3AB2EE043AB0
:102860005FED3D2A1FED3E2A5FED3F1ABAEE041AD6
:102870005FED410A1FED420AFEF7C8FC23E5F2EEC8
:10288000043A1FED453A5FED462A1FED472AF2EE66
:10289000041A1FED491A5FED4A0A1FED4B0AFEF7B5
:1028A000B5FC10E5F2EE043A1FED4F3A5FED502A09
:1028B0001FED512A5FED521A1FED531A5FED540AB6
:1028C0001FED550AFEF7A2FCFDE4F2EE043A1FEDFF
:1028D000583A5FED592A1FED5A2AFAEE041A1FEDF5
:1028E0005C1A5FED5D0A1FED5E0AFEF78FFCEAE4FD
:1028F00018AB19AA1AA91BA8FEF70BFB179017987B
:1029000018B1F7480AF010FBC2E01B980DF03AF935
:1029100021F000419FEDF30B53EC102BCDE9120198
:102920009DED120B51EC100B0CF0C6FE02D21FED08
:10293000700A01E09DED1B0A8DED1B0A1A980DF03F
:1029400021F921F000419FEDE70B53EC102BCDE96D
:1029500012019DED120B51EC100B0CF0ADFE02D2EA
:102960001FED7D0A01E09DED1A0A8DED1A0A1998F6
:102970000DF008F921F000419FEDDA0B53EC102B1C
:10298000CDE912019DED120B51EC100B0CF094FEF1
:1029900002D21FED890A01E09DED190A8DED190A99
:1029A00018980DF0EFF821F000419FEDCE0B53EC9D
:1029B000102BCDE912019DED120B51EC100B0CF018
:1029C0007BFE02D21FED960A01E09DED180A8DED07
:1029D000180A1FED990A8DED160A1FED9B0A8DED61
:1029E000150A1FED9D0A8DED140A18980DF0CAF80E
:1029F000CDE9120119980DF0C5F8CDE910011A982A
:102A00000DF0C0F8CDE90E011B980DF0BBF8CDE933
:102A10000C01DDE91201CDE90401DDE91001CDE988
:102A20000201DDE90E01CDE900019DED0C0B53EC37
:102A3000102BAEA00AF078FA14AA15A916A8DDED9D
:102A4000181A9DED191ADDED1A0A9DED1B0AFEF705
:102A5000A6F814980DF096F8CDE9120115980DF02E
:102A600091F8CDE9100116980DF08CF8CDE90E0122
:102A7000DDE91201CDE90201DDE91001CDE9000136
:102A80009DED0E0B53EC102B9CA00AF04DFA00BFED
:102A900019E418AB19AA1AA91BA8FEF73AFA17905D
:102AA000179818B18E480AF03FFAF5E01B980DF020
:102AB00069F821F000419FED8B0B53EC102BCDE911
:102AC00012019DED120B51EC100B0CF0F5FD02D232
:102AD0001FEDD90A01E09DED1B0A8DED1B0A1A9826
:102AE0000DF050F821F000419FED7E0B53EC102BC0
:102AF000CDE912019DED120B51EC100B0CF0DCFD39
:102B000002D21FEDE50A01E09DED1A0A8DED1A0AC9
:102B100019980DF037F821F000419FED720B53EC3E
:102B2000102BCDE912019DED120B51EC100B0CF0A6
:102B3000C3FD02D21FEDF20A01E09DED190A8DEDF1
:102B4000190A18980DF01EF821F000419FED650B51
:102B500053EC102BCDE912019DED120B51EC100B33
:102B60000CF0AAFD02D29FED680A01E09DED180A63
:102B70008DED180A9FED640A8DED160A9FED620A2D
:102B80008DED150A9FED600A8DED140A14AA15A9A2
:102B900016A8DDED181A9DED191ADDED1A0A9DED46
:102BA0001B0AFDF7FCFF14980CF0ECFFCDE91201B5
:102BB00015980CF0E7FFCDE9100116980CF0E2FF34
:102BC000CDE90E01DDE91201CDE90201DDE91001D7
:102BD000CDE900019DED0E0B53EC102B4BA00AF03C
:102BE000A3F918980CF0CEFFCDE9120119980CF05A
:102BF000C9FFCDE910011A980CF0C4FFCDE90E0110
:102C00001B980CF0BFFFCDE90C01DDE91201CDE905
:102C10000401DDE91001CDE90201DDE90E01CDE994
:102C200000019DED0C0B53EC102B40A00AF07CF939
:102C300018AB19AA1AA91BA89DED141ADDED150AE7
:102C40009DED160AFEF746FB18980CF09BFFCDE9A8
:102C5000120119980CF096FFCDE910011A980CF0AA
:102C600091FFCDE90E011B980CF08CFFCDE90C0112
:102C7000DDE91201CDE90401DDE91001CDE9020130
:102C8000DDE90E01CDE900019DED0C0B53EC102B9D
:102C900031A00AF049F900BF7EE518AB19AA1AA9BC
:102CA0001BA8FEF736F91790179818B135A00AF04F
:102CB0003BF902E11B980CF065FF21F000419FED0C
:102CC000090B53EC102BCDE914019DED140B51ECC5
:102CD000100B0CF0F1FC73D29FED0B0A72E06FE069
:102CE000941300087B14AE47E17A843F25662C25B7
:102CF000662C25662C25660A0000000025662C201F
:102D000025662C2025660A0000000000706F73699C
:102D100074696F6E2020203A202025662C20202008
:102D200025662C2020202025660A0000637572721B
:102D3000656E7420616E676C652020202020203A2B
:102D4000202025662C20202025662C2020202025D0
:102D50006620202025660A00746172676574202051
:102D6000616E676C652020202020203A2020256697
:102D70002C20202025662C202020202566202020A5
:102D800025660A00206572726F72207768696C652B
:102D900020696E2070726F63657373696E6720704F
:102DA0006F736974696F6E20746F20616E676C65F4
:102DB00020696E20636F6D6D616E642033390A0087
:102DC0009DED1B0A8DED1B0A1A980CF0DBFE21F01D
:102DD00000411FED3C0B53EC102BCDE914019DED90
:102DE000140B51EC100B0CF067FC02D21FED3A0AE9
:102DF00001E09DED1A0A8DED1A0A19980CF0C2FE39
:102E000021F000411FED490B53EC102BCDE91401CB
:102E10009DED140B51EC100B0CF04EFC02D21FED8B
:102E2000460A01E09DED190A8DED190A18980CF07B
:102E3000A9FE21F000411FED550B53EC102BCDE9FD
:102E400014019DED140B51EC100B0CF035FC02D26B
:102E50001FED530A01E09DED180A8DED180AFA4A9C
:102E6000FA49FB48DDED181A9DED191ADDED1A0A35
:102E70009DED1B0AFDF793FEF34800680CF082FEFF
:102E8000CDE91401F14800680CF07CFECDE9120197
:102E9000EF4800680CF076FECDE91001DDE9140181
:102EA000CDE90201DDE91201CDE900019DED100B34
:102EB00053EC102BE7A00AF037F86DE418AB19AA11
:102EC0001AA91BA8FEF725F81790179818B1EC4817
:102ED0000AF02AF842E21B980CF054FE21F000415F
:102EE0001FED800B53EC102BCDE910019DED100B65
:102EF00051EC100B0CF0E0FB02D21FED7D0A01E05B
:102F00009DED1B0A8DED1B0A1A980CF03BFE21F07B
:102F100000411FED8C0B53EC102BCDE910019DED02
:102F2000100B51EC100B0CF0C7FB02D21FED8A0AFC
:102F300001E09DED1A0A8DED1A0A19980CF022FE97
:102F400021F000411FED990B53EC102BCDE910013E
:102F50009DED100B51EC100B0CF0AEFB02D21FEDEF
:102F6000960A01E09DED190A8DED190A18980CF0EA
:102F700009FE21F000411FEDA50B53EC102BCDE90C
:102F800010019DED100B51EC100B0CF095FB02D2D3
:102F90001FEDA30A01E09DED180A8DED180AAC485B
:102FA00090ED000AF1EE040A30EE200A8DED110AD0
:102FB00013AB14AA15A916A8A34C94ED001AA34CA0
:102FC000D4ED000A9DED110AFEF784F912901298D3
:102FD00000287DD113980CF0D5FDCDE90C01149893
:102FE0000CF0D0FDCDE90A0115980CF0CBFDCDE930
:102FF000080116980CF0C6FDCDE90601DDE90C01CB
:10300000CDE90401DDE90A01CDE90201DDE90801AC
:10301000CDE900019DED060B53EC102BAFF2EC2037
:1030200009F082FF9DED160ADDED1B0A30EE600A05
:103030008DED090A09980CF0A5FD21F000419FEDE6
:10304000910B53EC102BCDE90A019DED0A0B51ECCD
:10305000100B0CF07FF9CDE90C019DED0C0B51EC40
:10306000100B0CF091F811909DED150ADDED1A0A88
:1030700030EE600A8DED090A09980CF083FD21F00D
:1030800000419FED800B53EC102BCDE90A019DED23
:103090000A0B51EC100B0CF05DF9CDE90C019DED24
:1030A0000C0B51EC100B0CF06FF810909DED140A06
:1030B000DDED190A30EE600A8DED090A09980CF071
:1030C00061FD21F000419FED6F0B53EC102B00E0F0
:1030D00040E1CDE90A019DED0A0B51EC100B0CF01B
:1030E00039F9CDE90C019DED0C0B51EC100B0CF0F6
:1030F0004BF80F909DED130ADDED180A30EE600AD3
:103100008DED090A09980CF03DFD21F000419FED7D
:103110005D0B53EC102BCDE90A019DED0A0B51EC30
:10312000100B0CF017F9CDE90C019DED0C0B51ECD7
:10313000100B0CF029F80E909DED110ADFED530AEB
:10314000B4EEE00AF1EE10FA02DD9FED500A01E064
:103150009DED110A8DED110A9DED100ADFED4B0A70
:10316000B4EEE00AF1EE10FA02DD9FED480A01E04C
:103170009DED100A8DED100A9DED0F0ADFED430A5B
:10318000B4EEE00AF1EE10FA02DD9FED400A01E034
:103190009DED0F0A8DED0F0A9DED0E0ADFED3B0A46
:1031A000B4EEE00AF1EE10FA02DD9FED380A01E01C
:1031B0009DED0E0A8DED0E0A16980CF0E3FC21F041
:1031C00000419FED300B53EC102BCDE90C019DED30
:1031D0000C0B51EC100B0CF06FFA02D29FED2C0A85
:1031E00001E09DED160A8DED160A15980CF0CAFC4B
:1031F00021F000419FED230B53EC102BCDE90C0186
:103200009DED0C0B51EC100B0CF056FA02D29FED19
:10321000200A01E09DED150A8DED150A14980CF0B9
:10322000B1FC21F000419FED170B53EC102BCDE9C1
:103230000C019DED0C0B51EC100B0CF03DFA29D25A
:103240009FED130A28E00000340000203000002029
:103250002C000020737461727420706F696E74208A
:10326000706F736974696F6E2020203A2020256684
:103270002C20202025662C2020202025660A0000F6
:10328000941300089A9999999999B93F0000C842F6
:10329000000000009DED140A8DED140A13980CF047
:1032A00071FC21F000411FED090B53EC102BCDE90F
:1032B0000C019DED0C0B51EC100B0CF0FDF902D242
:1032C0001FED0D0A01E09DED130A8DED130A0E9816
:1032D0000CF058FCCDE90C010F980CF053FCCDE933
:1032E0000A0110980CF04EFCCDE9080111980CF081
:1032F00049FCCDE90601DDE90C01CDE90401DDE978
:103300000A01CDE90201DDE90801CDE900019DEDE9
:10331000060B53EC102BFBA009F006FEDDED0E3A78
:103320009DED0F3ADDED102A9DED112ADDED131A0A
:103330009DED141ADDED150A9DED160AFDF766FFE9
:10334000F74890ED000AF7EE000A30EE200A80ED13
:10335000000A02E0F3A009F0E7FD00BF9CE418AB0F
:1033600019AA1AA91BA8FDF7D4FD1790179818B130
:10337000F34809F0D9FDB6E11B980CF003FC21F0ED
:1033800000419FEDF00B53EC102BCDE910019DEDAA
:10339000100B51EC100B0CF08FF902D21FED440A08
:1033A00001E09DED1B0A8DED1B0A1A980CF0EAFB5B
:1033B00021F000419FEDE30B53EC102BCDE9100100
:1033C0009DED100B51EC100B0CF076F902D21FEDB5
:1033D000500A01E09DED1A0A8DED1A0A19980CF0B9
:1033E000D1FB21F000419FEDD70B53EC102BCDE921
:1033F00010019DED100B51EC100B0CF05DF902D299
:103400001FED5D0A01E09DED190A8DED190A18986E
:103410000CF0B8FB21F000419FEDCA0B53EC102BD0
:10342000CDE910019DED100B51EC100B0CF044F99F
:1034300002D21FED690A01E09DED180A8DED180A10
:10344000B74890ED000AF1EE040A30EE600A8DED07
:10345000110A13AB14AA15A916A8BC4C94ED001AB6
:10346000BB4CD4ED000A9DED110AFDF733FF12901D
:10347000129800287ED113980CF084FBCDE90C0142
:1034800014980CF07FFBCDE90A0115980CF07AFB3B
:10349000CDE9080116980CF075FBCDE90601DDE9D0
:1034A0000C01CDE90401DDE90A01CDE90201DDE904
:1034B0000801CDE900019DED060B53EC102BA5A0F2
:1034C00009F032FD9DED160ADDED1B0A30EE600AB3
:1034D0008DED090A09980CF055FB21F000411FED14
:1034E000970B53EC102BCDE90A019DED0A0B51EC23
:1034F000100B0BF02FFFCDE90C019DED0C0B51ECE7
:10350000100B0BF041FE11909DED150ADDED1A0A2E
:1035100030EE600A8DED090A09980CF033FB21F0BA
:1035200000411FEDA80B53EC102BCDE90A019DEDD6
:103530000A0B51EC100B0BF00DFFCDE90C019DEDCA
:103540000C0B51EC100B0BF01FFE10909DED140AAC
:10355000DDED190A30EE600A8DED090A09980CF0CC
:1035600011FB21F000411FEDB90B53EC102BCDE9FD
:103570000A0100E0B3E09DED0A0B51EC100B0BF0DB
:10358000E9FECDE90C019DED0C0B51EC100B0BF09D
:10359000FBFD0F909DED130ADDED180A30EE600A79
:1035A0008DED090A09980CF0EDFA21F000411FEDAC
:1035B000CB0B53EC102BCDE90A019DED0A0B51EC1E
:1035C000100B0BF0C7FECDE90C019DED0C0B51EC7F
:1035D000100B0BF0D9FD0E909DED110A5FEDD50A91
:1035E000B4EEE00AF1EE10FA02DD1FEDD80A01E0B8
:1035F0009DED110A8DED110A9DED100A5FEDDD0ABA
:10360000B4EEE00AF1EE10FA02DD1FEDE00A01E08F
:103610009DED100A8DED100A9DED0F0A5FEDE50A94
:10362000B4EEE00AF1EE10FA02DD1FEDE80A01E067
:103630009DED0F0A8DED0F0A9DED0E0A5FEDED0A6F
:10364000B4EEE00AF1EE10FA02DD1FEDF00A01E03F
:103650009DED0E0A8DED0E0A0E980CF093FACDE951
:103660000C010F980CF08EFACDE90A0110980CF0BD
:1036700089FACDE9080111980CF084FACDE9060128
:10368000DDE90C01CDE90401DDE90A01CDE9020122
:10369000DDE90801CDE900019DED060B53EC102B8F
:1036A00018A009F041FCDDED0E3A9DED0F3ADDED7D
:1036B000102A9DED112ADDED131A9DED141ADDED92
:1036C000150A9DED160AFDF7A1FD154890ED000ABB
:1036D000F7EE000A30EE600A80ED000A02E011A069
:1036E00009F022FC00BF39E618AB19AA1AA91BA8D9
:1036F000FDF70FFC1790179818B1114809F014FC4A
:10370000F6E13BE07370656564202020202566208B
:1037100020202566202020256620202025660A00FE
:103720002C0000206E6F20696E7665727365206FC5
:103730007574206F662072616E67650A0000000074
:10374000941300087B14AE47E17A843F34000020D4
:1037500030000020616E676C652020202020203A18
:10376000202025662C20202025662C2020202025A6
:10377000662020202025660A000000001B980CF01F
:1037800001FA21F000411FED110B53EC102BCDE994
:1037900010019DED100B51EC100B0BF08DFF02D2C0
:1037A0009FEDFD0A01E09DED1B0A8DED1B0A1A98A5
:1037B0000CF0E8F921F000411FED1E0B53EC102B2B
:1037C000CDE910019DED100B51EC100B0BF074FFC7
:1037D00002D29FEDF10A01E09DED1A0A8DED1A0A61
:1037E00019980CF0CFF921F000411FED2A0B53EC92
:1037F000102BCDE910019DED100B51EC100B0BF0CF
:103800005BFF02D29FEDE40A01E09DED190A8DED08
:10381000190A18980CF0B6F921F000411FED370B8A
:1038200053EC102BCDE910019DED100B51EC100B5A
:103830000BF042FF02D29FEDD80A01E09DED180A7D
:103840008DED180AD54890ED000AF3EE0E0A30EE21
:10385000200A8DED110A13AB14AA15A916A8D04C95
:1038600094ED001ACF4CD4ED000A9DED110AFDF73E
:1038700031FD1290129800287DD113980CF082F936
:10388000CDE90C0114980CF07DF9CDE90A011598E9
:103890000CF078F9CDE9080116980CF073F9CDE930
:1038A0000601DDE90C01CDE90401DDE90A01CDE9FC
:1038B0000201DDE90801CDE900019DED060B53ECA5
:1038C000102BAFF2701009F02FFB9DED160ADDED05
:1038D0001B0A30EE600A8DED090A09980CF052F9C6
:1038E00021F000419FEDB00B53EC102BCDE90A0104
:1038F0009DED0A0B51EC100B0BF02CFDCDE90C01EA
:103900009DED0C0B51EC100B0BF03EFC11909DED5E
:10391000150ADDED1A0A30EE600A8DED090A0998E4
:103920000CF030F921F000419FED9F0B53EC102B70
:10393000CDE90A019DED0A0B51EC100B0BF00AFDCD
:10394000CDE90C019DED0C0B51EC100B0BF01CFCA8
:1039500010909DED140ADDED190A30EE600A8DED30
:10396000090A09980CF00EF921F000419FED8E0B29
:1039700053EC102B00E0B6E0CDE90A019DED0A0BF7
:1039800051EC100B0BF0E6FCCDE90C019DED0C0B9E
:1039900051EC100B0BF0F8FB0F909DED130ADDEDD1
:1039A000180A30EE600A8DED090A09980CF0EAF861
:1039B00021F000419FED7C0B53EC102BCDE90A0167
:1039C0009DED0A0B51EC100B0BF0C4FCCDE90C0182
:1039D0009DED0C0B51EC100B0BF0D6FB0E909DEDFA
:1039E000110AF3EE0E0AB4EEE00AF1EE10FA02DD6F
:1039F000B3EE0E0A01E09DED110A8DED110A9DED69
:103A0000100AF3EE0E0AB4EEE00AF1EE10FA02DD4F
:103A1000B3EE0E0A01E09DED100A8DED100A9DED4A
:103A20000F0AF3EE0E0AB4EEE00AF1EE10FA02DD30
:103A3000B3EE0E0A01E09DED0F0A8DED0F0A9DED2C
:103A40000E0ADFED5B0AB4EEE00AF1EE10FA02DDD9
:103A50009FED570A01E09DED0E0A8DED0E0A0E98BE
:103A60000CF090F8CDE90C010F980CF08BF8CDE933
:103A70000A0110980CF086F8CDE9080111980CF0B5
:103A800081F8CDE90601DDE90C01CDE90401DDE9AC
:103A90000A01CDE90201DDE90801CDE900019DED52
:103AA000060B53EC102BAFF2A43009F03DFADDED1C
:103AB0000E3A9DED0F3ADDED102A9DED112ADDED58
:103AC000131A9DED141ADDED150A9DED160AFDF78A
:103AD0009DFB324890ED000AF3EE0E0A30EE200A0C
:103AE00080ED000A03E0AFF2C43009F01DFA00BF18
:103AF00034E418AB19AA1AA91BA8FDF70AFA179003
:103B0000179818B12B4809F00FFACFE11B980CF069
:103B100039F821F000411FEDF50B53EC102BCDE9E6
:103B200010019DED100B51EC100B0BF0C5FD02D2F6
:103B30009FED190A01E09DED1B0A8DED1B0A1A98F5
:103B40000CF020F821F000419FED1B0B53EC102BE3
:103B5000CDE910019DED100B51EC100B0BF0ACFDFD
:103B600002D29FED0D0A01E09DED1A0A8DED1A0AB1
:103B700019980CF007F821F000419FED0F0B53EC62
:103B8000102BCDE910019DED100B51EC100B0BF03B
:103B900093FD18D214E00000000000002C0000206B
:103BA00034000020300000209A9999999999B93FE2
:103BB0000000C842941300087B14AE47E17A843FAA
:103BC0001FED0B0A01E09DED190A8DED190A1898F9
:103BD0000BF0D8FF21F000411FED090B53EC102B27
:103BE000CDE910019DED100B51EC100B0BF064FDB5
:103BF00002D21FED170A01E09DED180A8DED180A9B
:103C0000FE4890ED000AF3EE0E0A30EE600A8DEDEC
:103C1000110A13AB14AA15A916A8F94C94ED001AB1
:103C2000F84CD4ED000A9DED110AFDF753FB1290FC
:103C3000129800287DD113980BF0A4FFCDE90C0158
:103C400014980BF09FFFCDE90A0115980BF09AFF2D
:103C5000CDE9080116980BF095FFCDE90601DDE9E5
:103C60000C01CDE90401DDE90A01CDE90201DDE93C
:103C70000801CDE900019DED060B53EC102BAFF2CE
:103C80002C5009F051F99DED160ADDED1B0A30EEBE
:103C9000600A8DED090A09980BF074FF21F00041CC
:103CA0001FED3F0B53EC102BCDE90A019DED0A0BE4
:103CB00051EC100B0BF04EFBCDE90C019DED0C0B04
:103CC00051EC100B0BF060FA11909DED150ADDED33
:103CD0001A0A30EE600A8DED090A09980BF052FFBE
:103CE00021F000411FED500B53EC102BCDE90A01E0
:103CF0009DED0A0B51EC100B0BF02CFBCDE90C01E8
:103D00009DED0C0B51EC100B0BF03EFA10909DED5D
:103D1000140ADDED190A30EE600A8DED090A0998E2
:103D20000BF030FF21F000411FED610B53EC102B25
:103D300000E0B6E0CDE90A019DED0A0B51EC100B55
:103D40000BF008FBCDE90C019DED0C0B51EC100BB9
:103D50000BF01AFA0F909DED130ADDED180A30EE04
:103D6000600A8DED090A09980BF00CFF21F0004163
:103D70001FED730B53EC102BCDE90A019DED0A0BDF
:103D800051EC100B0BF0E6FACDE90C019DED0C0B9C
:103D900051EC100B0BF0F8F90E909DED110AF3EEBB
:103DA0000E0AB4EEE00AF1EE10FA02DDB3EE0E0AEE
:103DB00001E09DED110A8DED110A9DED100AF3EE63
:103DC0000E0AB4EEE00AF1EE10FA02DDB3EE0E0ACE
:103DD00001E09DED100A8DED100A9DED0F0AF3EE46
:103DE0000E0AB4EEE00AF1EE10FA02DDB3EE0E0AAE
:103DF00001E09DED0F0A8DED0F0A9DED0E0A5FEDBE
:103E0000940AB4EEE00AF1EE10FA02DD1FED980A12
:103E100001E09DED0E0A8DED0E0A0E980BF0B2FE3C
:103E2000CDE90C010F980BF0ADFECDE90A01109819
:103E30000BF0A8FECDE9080111980BF0A3FECDE927
:103E40000601DDE90C01CDE90401DDE90A01CDE956
:103E50000201DDE90801CDE900019DED060B53ECFF
:103E6000102BAFF2607009F05FF8DDED0E3A9DEDBA
:103E70000F3ADDED102A9DED112ADDED131A9DEDAF
:103E8000141ADDED150A9DED160AFDF7BFF95B4822
:103E900090ED000AF3EE0E0A30EE600A80ED000AA3
:103EA00003E0AFF2807009F03FF800BF1BE418ABED
:103EB00019AA1AA91BA8FDF72CF81790179818B182
:103EC000514809F031F8C2E11B980BF05BFE21F07C
:103ED00000411FEDC70B53EC102BCDE910019DEDF8
:103EE000100B51EC100B0BF0E7FB02D21FEDD60AC2
:103EF00001E09DED1B0A8DED1B0A1A980BF042FEA6
:103F000021F000411FEDD40B53EC102BCDE9100133
:103F10009DED100B51EC100B0BF0CEFB02D21FED00
:103F2000E20A01E09DED1A0A8DED1A0A19980BF0CC
:103F300029FE21F000411FEDE00B53EC102BCDE9E1
:103F400010019DED100B51EC100B0BF0B5FB02D2E4
:103F50001FEDEF0A01E09DED190A8DED190A189881
:103F60000BF010FE21F000411FEDED0B53EC102B78
:103F7000CDE910019DED100B51EC100B0BF09CFBEB
:103F800002D21FEDFB0A01E09DED180A8DED180A23
:103F90001C4890ED000AF3EE0E0A30EE200A8DED7B
:103FA000110A13AB14AA15A916A8154C94ED001A02
:103FB000DDED110A114C94ED000AFDF78BF912901A
:103FC000129800287ED113980BF0DCFDCDE90C018E
:103FD00014980BF0D7FDCDE90A0115980BF0D2FD2E
:103FE000CDE9080116980BF0CDFDCDE90601DDE91C
:103FF0000C01CDE90401DDE90A0107E02C000020F5
:10400000340000203000002094130008CDE90201A4
:10401000DDE90801CDE900019DED060B53EC102B05
:10402000AFF6D00008F080FF9DED160ADDED1B0A0B
:1040300030EE600A8DED090A09980BF0A3FD21F01E
:1040400000419FEDFE0B53EC102BCDE90A019DEDD5
:104050000A0B51EC100B0BF07DF9CDE90C019DED35
:104060000C0B51EC100B0BF08FF811909DED150A15
:10407000DDED1A0A30EE600A8DED090A09980BF0A1
:1040800081FD21F000419FEDED0B53EC102BCDE9AC
:104090000A019DED0A0B51EC100B0BF05BF9CDE919
:1040A0000C019DED0C0B51EC100B0BF06DF810900A
:1040B0009DED140ADDED190A30EE600A8DED090A56
:1040C000099800E0BEE00BF05DFD21F000419FED9E
:1040D000DB0B53EC102BCDE90A019DED0A0B51ECE3
:1040E000100B0BF037F9CDE90C019DED0C0B51ECE9
:1040F000100B0BF049F80F909DED130ADDED180A37
:1041000030EE600A8DED090A09980BF03BFD21F0B5
:1041100000419FEDCA0B53EC102BCDE90A019DED38
:104120000A0B51EC100B0BF015F9CDE90C019DEDCC
:104130000C0B51EC100B0BF027F80E909DED110AB3
:10414000F3EE0E0AB4EEE00AF1EE10FA02DDB3EE81
:104150000E0A01E09DED110A8DED110A9DED100A88
:10416000F3EE0E0AB4EEE00AF1EE10FA02DDB3EE61
:104170000E0A01E09DED100A8DED100A9DED0F0A6B
:10418000F3EE0E0AB4EEE00AF1EE10FA02DDB3EE41
:104190000E0A01E09DED0F0A8DED0F0A9DED0E0A4E
:1041A000DFEDA80AB4EEE00AF1EE10FA02DD9FEDB1
:1041B000A50A01E09DED0E0A8DED0E0A0E980BF09A
:1041C000E1FCCDE90C010F980BF0DCFCCDE90A0114
:1041D00010980BF0D7FCCDE9080111980BF0D2FC38
:1041E000CDE90601DDE90C01CDE90401DDE90A01B3
:1041F000CDE90201DDE90801CDE900019DED060BE5
:1042000053EC102BAFF6043008F08EFEDDED0E3AC5
:104210009DED0F3ADDED102A9DED112ADDED131A0B
:104220009DED141ADDED150A9DED160AFCF7EEFF63
:10423000854890ED000AF3EE0E0A30EE200A80ED7C
:10424000000A03E0AFF6243008F06EFE00BF4FE432
:1042500018AB19AA1AA91BA8FCF75BFE17901798B0
:1042600018B17A4808F060FECCE11B980BF08AFC8C
:1042700021F000419FED760B53EC102BCDE910019E
:104280009DED100B51EC100B0BF016FA02D29FEDC6
:10429000720A01E09DED1B0A8DED1B0A1A980BF0C6
:1042A00071FC21F000419FED6A0B53EC102BCDE91E
:1042B00010019DED100B51EC100B0BF0FDF902D22B
:1042C0009FED650A01E09DED1A0A8DED1A0A199815
:1042D0000BF058FC21F000419FED5D0B53EC102BCF
:1042E000CDE910019DED100B51EC100B0BF0E4F932
:1042F00002D29FED590A01E09DED190A8DED190AD0
:1043000018980BF03FFC21F000419FED510B53EC4E
:10431000102BCDE910019DED100B51EC100B0BF0A3
:10432000CBF902D29FED4C0A01E09DED180A8DED0C
:10433000180A454890ED000AF3EE0E0A30EE600AC6
:104340008DED110A13AB14AA15A916A8434C94EDD0
:10435000001ADDED110A424C94ED000AFCF7BAFF99
:104360001290129800287DD113980BF00BFCCDE928
:104370000C0114980BF006FCCDE90A0115980BF01E
:1043800001FCCDE9080116980BF0FCFBCDE9060114
:10439000DDE90C01CDE90401DDE90A01CDE9020105
:1043A000DDE90801CDE900019DED060B53EC102B72
:1043B000AFF6604008F0B8FD9DED160ADDED1B0A72
:1043C00030EE600A8DED090A09980BF0DBFB21F055
:1043D00000419FED1A0B53EC102BCDE90A019DED26
:1043E0000A0B51EC100B0AF0B5FFCDE90C019DED65
:1043F0000C0B51EC100B0AF0C7FE11909DED150A45
:10440000DDED1A0A30EE600A8DED090A09980BF00D
:10441000B9FB21F000419FED090B53EC102BCDE9C6
:104420000A019DED0A0B51EC100B0AF093FFCDE948
:104430000C019DED0C0B51EC100B14E09A9999991D
:104440009999B93F0000C842300000209413000839
:104450007B14AE47E17A843F000000003400002066
:104460002C000020CAE00AF08FFE10909DED140A87
:10447000DDED190A30EE600A8DED090A09980BF09E
:1044800081FB21F000411FED130B53EC102BCDE904
:104490000A019DED0A0B51EC100B0AF05BFFCDE910
:1044A0000C019DED0C0B51EC100B0AF06DFE0F9002
:1044B0009DED130ADDED180A30EE600A8DED090A54
:1044C00009980BF05FFB21F000411FED240B53EC2A
:1044D000102BCDE90A019DED0A0B51EC100B0AF0EF
:1044E00039FFCDE90C019DED0C0B51EC100B0AF0DE
:1044F0004BFE0E909DED110AF3EE0E0AB4EEE00AAB
:10450000F1EE10FA02DDB3EE0E0A01E09DED110AA4
:104510008DED110A9DED100AF3EE0E0AB4EEE00ADD
:10452000F1EE10FA02DDB3EE0E0A01E09DED100A85
:104530008DED100A9DED0F0AF3EE0E0AB4EEE00ABF
:10454000F1EE10FA02DDB3EE0E0A01E09DED0F0A66
:104550008DED0F0A9DED0E0A5FED460AB4EEE00AFE
:10456000F1EE10FA02DD1FED490A01E09DED0E0AA1
:104570008DED0E0A0E980BF005FBCDE90C010F989E
:104580000BF000FBCDE90A0110980BF0FBFACDE926
:10459000080111980BF0F6FACDE90601DDE90C01EE
:1045A000CDE90401DDE90A01CDE90201DDE90801F7
:1045B000CDE900019DED060B53EC102BAFF6BC606E
:1045C00008F0B2FCDDED0E3A9DED0F3ADDED102A5C
:1045D0009DED112ADDED131A9DED141ADDED150A7E
:1045E0009DED160AFCF712FEFB4890ED000AF3EE73
:1045F0000E0A30EE600A80ED000A02E0F7A008F033
:1046000093FC00BF52E418AB19AA1AA91BA8FCF727
:1046100080FC1790179818B1F74808F085FCB8E1AE
:104620001B980BF0AFFA21F000411FED770B53EC14
:10463000102BCDE910019DED100B51EC100B0BF080
:104640003BF802D21FED7C0A01E09DED1B0A8DEDC7
:104650001B0A1A980BF096FA21F000411FED840B0B
:1046600053EC102BCDE910019DED100B51EC100B0C
:104670000BF022F802D21FED880A01E09DED1A0A24
:104680008DED1A0A19980BF07DFA21F000411FED0B
:10469000900B53EC102BCDE910019DED100B51EC5C
:1046A000100B0BF009F802D21FED950A01E09DED09
:1046B000190A8DED190A18980BF064FA21F00041DF
:1046C0001FED9D0B53EC102BCDE910019DED100B50
:1046D00051EC100B0AF0F0FF02D21FEDA10A01E02D
:1046E0009DED180A8DED180AC44890ED000AF3EE0E
:1046F0000E0A30EE200A8DED110A13AB14AA15A98B
:1047000016A89DED111AB44CD4ED000ABC4C94EDE2
:10471000000AFCF7DFFD1290129800287ED1139852
:104720000BF030FACDE90C0114980BF02BFACDE91F
:104730000A0115980BF026FACDE9080116980BF03E
:1047400021FACDE90601DDE90C01CDE90401DDE93D
:104750000A01CDE90201DDE90801CDE900019DED85
:10476000060B53EC102BA74808F0DEFB9DED160A54
:10477000DDED1B0A30EE600A8DED090A09980BF099
:1047800001FA21F000411FEDD30B53EC102BCDE9C2
:104790000A019DED0A0B51EC100B0AF0DBFDCDE98F
:1047A0000C019DED0C0B51EC100B0AF0EDFC11907F
:1047B0009DED150ADDED1A0A30EE600A8DED090A4D
:1047C00009980BF0DFF921F000411FEDE40B53ECE9
:1047D000102BCDE90A019DED0A0B51EC100B0AF0EC
:1047E000B9FDCDE90C019DED0C0B51EC100B0AF05D
:1047F000CBFC10909DED140ADDED190A30EE600A35
:104800008DED090A09980BF0BDF921F000411FED6B
:10481000F50B53EC102BCDE90A0100E0B4E09DED5F
:104820000A0B51EC100B0AF095FDCDE90C019DED42
:104830000C0B51EC100B0AF0A7FC0F909DED130A26
:10484000DDED180A30EE600A8DED090A09980BF0CB
:1048500099F921F000419FED6C0B53EC102BCDE941
:104860000A019DED0A0B51EC100B0AF073FDCDE926
:104870000C019DED0C0B51EC100B0AF085FC0E9019
:104880009DED110AF3EE0E0AB4EEE00AF1EE10FA15
:1048900002DDB3EE0E0A01E09DED110A8DED110A65
:1048A0009DED100AF3EE0E0AB4EEE00AF1EE10FAF6
:1048B00002DDB3EE0E0A01E09DED100A8DED100A47
:1048C0009DED0F0AF3EE0E0AB4EEE00AF1EE10FAD7
:1048D00002DDB3EE0E0A01E09DED0F0A8DED0F0A29
:1048E0009DED0E0ADFED4A0AB4EEE00AF1EE10FA91
:1048F00002DD9FED470A01E09DED0E0A8DED0E0AE7
:104900000E980BF03FF9CDE90C010F980BF03AF936
:10491000CDE90A0110980BF035F9CDE9080111989D
:104920000BF030F9CDE90601DDE90C01CDE9040118
:10493000DDE90A01CDE90201DDE90801CDE9000167
:104940009DED060B53EC102B2E48503808F0ECFA76
:10495000DDED0E3A9DED0F3ADDED102A9DED112AA9
:10496000DDED131A9DED141ADDED150A9DED160A05
:10497000FCF74CFC214890ED000AF3EE0E0A30EEF5
:10498000200A80ED000A03E01E48303808F0CCFA17
:1049900000BF5CE418AB19AA1AA91BA8FCF7B9FA66
:1049A0001790179818B1144808F0BEFADAE11B986E
:1049B0000BF0E8F821F000419FED160B53EC102BA3
:1049C000CDE910019DED100B51EC100B0AF074FEB7
:1049D00026D29FED120A25E0300000206E6F20697C
:1049E0006E7665727365206F7574206F66207261D4
:1049F0006E6765200A000000941300083400002050
:104A00002C000020543700089A9999999999B93F38
:104A10000000C8427B14AE47E17A843F00000000EA
:104A20009DED1B0A8DED1B0A1A980BF0ABF821F0D7
:104A300000411FED080B53EC102BCDE910019DED4B
:104A4000100B51EC100B0AF037FE02D21FED0D0ACD
:104A500001E09DED1A0A8DED1A0A19980BF092F8F3
:104A600021F000411FED150B53EC102BCDE9100187
:104A70009DED100B51EC100B0AF01EFE02D21FED43
:104A8000190A01E09DED190A8DED190A18980BF02D
:104A900079F821F000411FED210B53EC102BCDE9EB
:104AA00010019DED100B51EC100B0AF005FE02D227
:104AB0001FED260A01E09DED180A8DED180AFE484B
:104AC00090ED000AF3EE0E0A30EE600A8DED110A49
:104AD00013AB14AA15A916A89DED111AF74CD4ED25
:104AE000000AF74C94ED000AFCF7F4FB12901298C0
:104AF000F0BB13980BF046F8CDE90C0114980BF0BD
:104B000041F8CDE90A0115980BF03CF8CDE9080110
:104B100016980BF037F8CDE90601DDE90C01CDE977
:104B20000401DDE90A01CDE90201DDE90801CDE971
:104B300000019DED060B53EC102BE24808F0F4F950
:104B40009DED160ADDED1B0A30EE600A8DED090AB7
:104B500009980BF017F821F000411FED550B53ECAD
:104B6000102BCDE90A019DED0A0B51EC100B00E072
:104B7000F4E00AF0EFFBCDE90C019DED0C0B51ECDC
:104B8000100B0AF001FB11909DED150ADDED1A0ADC
:104B900030EE600A8DED090A09980AF0F3FF21F062
:104BA00000411FED670B53EC102BCDE90A019DED81
:104BB0000A0B51EC100B0AF0CDFBCDE90C019DED79
:104BC0000C0B51EC100B0AF0DFFA10909DED140A5B
:104BD000DDED190A30EE600A8DED090A09980AF038
:104BE000D1FF21F000411FED780B53EC102BCDE9E4
:104BF0000A019DED0A0B51EC100B0AF0ABFBCDE95D
:104C00000C019DED0C0B51EC100B0AF0BDFA0F904E
:104C10009DED130ADDED180A30EE600A8DED090AEC
:104C200009980AF0AFFF21F000411FED890B53EC0A
:104C3000102BCDE90A019DED0A0B51EC100B0AF087
:104C400089FBCDE90C019DED0C0B51EC100B0AF02A
:104C50009BFA0E909DED110AF3EE0E0AB4EEE00AF7
:104C6000F1EE10FA02DDB3EE0E0A01E09DED110A3D
:104C70008DED110A9DED100AF3EE0E0AB4EEE00A76
:104C8000F1EE10FA02DDB3EE0E0A01E09DED100A1E
:104C90008DED100A9DED0F0AF3EE0E0AB4EEE00A58
:104CA000F1EE10FA02DDB3EE0E0A01E09DED0F0AFF
:104CB0008DED0F0A9DED0E0A5FEDAB0AB4EEE00A32
:104CC000F1EE10FA02DD1FEDAE0A01E09DED0E0AD5
:104CD0008DED0E0A0E980AF055FFCDE90C010F98E4
:104CE0000AF050FFCDE90A0110980AF04BFFCDE918
:104CF000080111980AF046FFCDE90601DDE90C0133
:104D0000CDE90401DDE90A01CDE90201DDE908018F
:104D1000CDE900019DED060B53EC102B694850388E
:104D200008F002F9DDED0E3A9DED0F3ADDED102AA7
:104D30009DED112ADDED131A9DED141ADDED150A16
:104D40009DED160AFCF762FA5B4890ED000AF3EE5F
:104D50000E0A30EE600A80ED000A02E05AA008F068
:104D6000E3F800BF1DE2DFED5F3A9FED5E3ADFED55
:104D70005D2A9FED5C2A5FEDD71A1FEDD81A5FED13
:104D8000D90A1FEDDA0AFCF741FA0AE218AB19AAB0
:104D90001AA91BA8FCF7BDF81790179818B152482C
:104DA00008F0C2F8FDE11B980AF0ECFE21F000418A
:104DB0001FEDE80B53EC102BCDE910019DED100B0E
:104DC00051EC100B0AF078FC02D21FEDEC0A01E066
:104DD0009DED1B0A8DED1B0A1A980AF0D3FE21F0F7
:104DE00000411FEDF40B53EC102BCDE910019DEDAC
:104DF000100B51EC100B0AF05FFC02D21FEDF90A08
:104E000001E09DED1A0A8DED1A0A19980AF0BAFE12
:104E100021F000419FED350B53EC102BCDE9100133
:104E20009DED100B51EC100B0AF046FC02D29FEDE9
:104E3000310A01E09DED190A8DED190A18980AF062
:104E4000A1FE21F000419FED290B53EC102BCDE981
:104E500010019DED100B51EC100B0AF02DFC02D24D
:104E60009FED240A01E09DED180A8DED180A124805
:104E700090ED000AF3EE0E0A30EE600A8DED110A95
:104E80000E4890ED000AF3EE040A30EE600A8DED54
:104E9000100A0B4890ED000ADFED170A30EE600AA9
:104EA0008DED0F0A13AB14AA15A916A89DED111AC2
:104EB000DDED100A22E00000340000203000002068
:104EC0002C000020543700086E6F20696E766572E2
:104ED0007365202C206F7574206F662072616E6779
:104EE000650A000000004842941300087B14AE4796
:104EF000E17A843F00000000000020429DED0F0A8F
:104F0000FCF7E8F912901298F0BB13980AF03AFEF9
:104F1000CDE90C0114980AF035FECDE90A01159887
:104F20000AF030FECDE9080116980AF02BFECDE913
:104F30000601DDE90C01CDE90401DDE90A01CDE955
:104F40000201DDE90801CDE900019DED060B53ECFE
:104F5000102BFD4807F0E8FF9DED160ADDED1B0A5A
:104F600030EE600A8DED090A09980AF00BFE21F077
:104F700000419FEDF60B53EC102BCDE90A019DED9E
:104F80000A0B51EC100B00E006E10AF0E3F9CDE961
:104F90000C019DED0C0B51EC100B0AF0F5F8119083
:104FA0009DED150ADDED1A0A30EE600A8DED090A55
:104FB00009980AF0E7FD21F000419FEDE40B53EC66
:104FC000102BCDE90A019DED0A0B51EC100B0AF0F4
:104FD000C1F9CDE90C019DED0C0B51EC100B0AF061
:104FE000D3F810909DED140ADDED190A30EE600A39
:104FF0008DED090A09980AF0C5FD21F000419FEDE9
:10500000D30B53EC102BCDE90A019DED0A0B51ECAB
:10501000100B0AF09FF9CDE90C019DED0C0B51EC42
:10502000100B0AF0B1F80F909DED130ADDED180A90
:1050300030EE600A8DED090A09980AF0A3FD21F00F
:1050400000419FEDC20B53EC102BCDE90A019DED01
:105050000A0B51EC100B0AF07DF9CDE90C019DED26
:105060000C0B51EC100B0AF08FF80E909DED110A0D
:10507000F3EE0E0AB4EEE00AF1EE10FA02DDB3EE42
:105080000E0A01E09DED110A8DED110A9DED100A49
:10509000F3EE0E0AB4EEE00AF1EE10FA02DDB3EE22
:1050A0000E0A01E09DED100A8DED100A9DED0F0A2C
:1050B000F3EE0E0AB4EEE00AF1EE10FA02DDB3EE02
:1050C0000E0A01E09DED0F0A8DED0F0A9DED0E0A0F
:1050D000DFEDA00AB4EEE00AF1EE10FA02DD9FED7A
:1050E0009D0A01E09DED0E0A8DED0E0A0E980AF064
:1050F00049FDCDE90C010F980AF044FDCDE90A0104
:1051000010980AF03FFDCDE9080111980AF03AFD28
:10511000CDE90601DDE90C01CDE90401DDE90A0173
:10512000CDE90201DDE90801CDE900019DED060BA5
:1051300053EC102B8448503807F0F6FEDDED0E3AA4
:105140009DED0F3ADDED102A9DED112ADDED131ACC
:105150009DED141ADDED150A9DED160AFCF756F8C3
:105160007D4890ED000AF3EE0E0A30EE600A80ED05
:10517000000A7A4890ED000A5FEDA10A30EE600A5D
:1051800080ED000A764890ED000AF3EE040A30EE56
:10519000600A80ED000A03E0AFF2D42007F0C4FEFD
:1051A00000BFFAE118AB19AA1AA91BA8FBF7B1FEB8
:1051B0001790179818B16B4807F0B6FEE9E11B98F5
:1051C0000AF0E0FC21F000411FEDB80B53EC102B6E
:1051D000CDE910019DED100B51EC100B0AF06CFAAB
:1051E00002D21FEDBC0A01E09DED1B0A8DED1B0AEA
:1051F0001A980AF0C7FC21F000411FEDC40B53ECD4
:10520000102BCDE910019DED100B51EC100B0AF0A5
:1052100053FA02D21FEDC90A01E09DED1A0A8DED85
:105220001A0A19980AF0AEFC21F000411FEDD10BCB
:1052300053EC102BCDE910019DED100B51EC100B30
:105240000AF03AFA02D21FEDD50A01E09DED190AE3
:105250008DED190A18980AF095FC21F000411FED18
:10526000DD0B53EC102BCDE910019DED100B51EC33
:10527000100B0AF021FA02D21FEDE20A01E09DEDC7
:10528000180A8DED180A344890ED000AF3EE0E0A64
:1052900030EE200A8DED110A314890ED000AF3EE50
:1052A000040A30EE200A8DED100A2C4890ED000A19
:1052B0005FEDEF0A30EE200A8DED0F0A13AB14AA52
:1052C00015A916A89DED111ADDED100A9DED0F0A26
:1052D000FCF700F812901298A0BB13980AF052FC49
:1052E000CDE90C0114980AF04DFCCDE90A0115989E
:1052F0000AF048FCCDE9080116980AF043FCCDE914
:105300000601DDE90C01CDE90401DDE90A01CDE981
:105310000201DDE90801CDE900019DED060B53EC2A
:10532000102B094807F000FE9DED160ADDED1B0A63
:1053300030EE600A8DED090A09980AF023FC21F08D
:10534000004111E020E10000543700089A99999932
:105350009999B93F0000C842340000202C00002079
:1053600030000020941300081FED080B53EC102BA5
:10537000CDE90A019DED0A0B51EC100B09F0EAFF93
:10538000CDE90C019DED0C0B51EC100B09F0FCFE6E
:1053900011909DED150ADDED1A0A30EE600A8DEDD3
:1053A000090A09980AF0EEFB21F000411FED190BE4
:1053B00053EC102BCDE90A019DED0A0B51EC100BBB
:1053C00009F0C8FFCDE90C019DED0C0B51EC100B61
:1053D00009F0DAFE10909DED140ADDED190A30EEA9
:1053E000600A8DED090A09980AF0CCFB21F0004112
:1053F0001FED2A0B53EC102BCDE90A019DED0A0B92
:1054000051EC100B09F0A6FFCDE90C019DED0C0B42
:1054100051EC100B09F0B8FE0F909DED130ADDED75
:10542000180A30EE600A8DED090A09980AF0AAFB05
:1054300021F000411FED3B0B53EC102BCDE90A018D
:105440009DED0A0B51EC100B09F084FFCDE90C0126
:105450009DED0C0B51EC100B09F096FE0E909DED9E
:10546000110AF3EE0E0AB4EEE00AF1EE10FA02DDD4
:10547000B3EE0E0A01E09DED110A8DED110A9DEDCE
:10548000100AF3EE0E0AB4EEE00AF1EE10FA02DDB5
:10549000B3EE0E0A01E09DED100A8DED100A9DEDB0
:1054A0000F0AF3EE0E0AB4EEE00AF1EE10FA02DD96
:1054B000B3EE0E0A01E09DED0F0A8DED0F0A9DED92
:1054C0000E0A5FED5C0AB4EEE00AF1EE10FA02DDBE
:1054D0001FED600A01E09DED0E0A8DED0E0A0E989B
:1054E0000AF050FBCDE90C010F980AF04BFBCDE917
:1054F0000A0110980AF046FBCDE9080111980AF05C
:1055000041FBCDE90601DDE90C01CDE90401DDE94E
:105510000A01CDE90201DDE90801CDE900019DEDB7
:10552000060B53EC102BFE4807F0FEFCDDED0E3AA7
:105530009DED0F3ADDED102A9DED112ADDED131AD8
:105540009DED141ADDED150A9DED160AFBF75EFEC2
:10555000F44890ED000AF3EE0E0A30EE200A80EDDA
:10556000000AF14890ED000ADFEDF00A30EE200A63
:1055700080ED000AEE4890ED000AF3EE040A30EEEA
:10558000200A80ED000A03E0AFF2C46007F0CCFC13
:1055900000BF02E0FCF737FE00BF00BF1EB010BD29
:1055A00098B000F0BBFE4FF4FA7004F0C1FD012189
:1055B000080305F0CCFDFCF726FE42F227316320FC
:1055C00004F088FE032242F22731312004F077FFF5
:1055D000042242F22731312004F071FF0D2242F201
:1055E0002731312004F06BFF0E2242F227313120A7
:1055F00004F065FF062242F2273140F2572004F002
:105600005EFFFBF715FAFAF74DFEFCE3C948007898
:1056100030B1C8480078FCF713FE0020C549087077
:10562000C5480068C5490968401A15900AF030F865
:1056300021F000419FEDC20B53EC102BCDE9160178
:105640009DED160B51EC100B0AF070F90DD2BE480F
:10565000FCF7B3FB48B9BD480088401CBB49088033
:1056600008460188BAA007F05FFCFBF7DDFCC049E3
:105670000870C048007801287ED10020BD4908701C
:10568000BD4890ED000A8DED0F0A0F980AF07AFAE6
:10569000CDE91201B948D0ED000AAB4890ED080AF7
:1056A00030EEC00A8DED0F0A0F980AF06BFA21F068
:1056B0000041CDE910019DED120B53EC102B9DED37
:1056C000100B51EC100B09F0F7FF05D2AB4890ED31
:1056D000000A8DED170AF4E3A74890ED000AF2EEF8
:1056E000040A20EE200A8DED0B0A0B980AF04AFA04
:1056F000CDE90E01A14890ED000A9348D0ED080ACB
:1057000030EE600A8DED0B0A0B980AF03BFA21F09F
:105710000041CDE90C019DED0E0B53EC102B9DEDDE
:105720000C0B51EC100B0AF001F95ED2944890ED8D
:10573000000A8DED050A05980AF024FACDE9080162
:105740008E4890ED000A8048D0ED080A30EE600ADD
:105750008DED010A01980AF015FA21F00041CDE91A
:105760000401794890ED080A8448D0ED000A30EE33
:10577000600A8DED010A00E0FDE301980AF002FAEB
:10578000CDE902019DED040B53EC102B9DED020BB6
:1057900051EC100B09F0DEFDCDE906019DED080B83
:1057A00053EC102B9DED060B51EC100B09F0C0FFD4
:1057B000CDE90C017148006809900AF0E3F9CDE9E0
:1057C0000A019DED0C0B53EC102B9DED0A0B51ECD7
:1057D000100B09F00BFDCDE90E019DED0E0B51EC08
:1057E000100B09F0D1FC179051E0644890ED000ACD
:1057F0005548D0ED080A30EE600A8DED030A039893
:105800000AF0C0F921F00041CDE906014E4890EDC3
:10581000080A5A48D0ED000A30EE600A8DED030AFE
:1058200003980AF0AFF9CDE904019DED060B53ECA6
:10583000102B9DED040B51EC100B09F08BFD9FED2F
:10584000510B53EC102BCDE908019DED080B51ECE9
:10585000100B09F06DFFCDE90C0148480068099074
:105860000AF090F9CDE90A019DED0C0B53EC102BD9
:105870009DED0A0B51EC100B09F0B8FCCDE90E01BF
:105880009DED0E0B51EC100B09F07EFC17903A4881
:1058900090ED010AF2EE040A20EE200A8DED0B0ACB
:1058A0000B980AF06FF9CDE90E01344890ED010A2A
:1058B0002548D0ED090A30EE600A8DED0B0A0B98F1
:1058C0000AF060F921F00041CDE90C019DED0E0BCD
:1058D00053EC102B9DED0C0B51EC100B0AF026F83D
:1058E0007ED2274890ED010A8DED050A05980AF051
:1058F00049F9CDE90801214890ED010A1248D0ED9F
:10590000090A30EE600A8DED010A01980AF03AF9B1
:1059100021F00041CDE904010B48D0ED090A35E042
:1059200004370008340000202C0000200000204232
:105930003000002000000020240000202000002073
:105940000000000000002040B002002028000020DD
:10595000726563656976652031206672616D652CBC
:1059600020696E64657820202025750A00000000FB
:105970000200002040000020A02200203022002051
:10598000AC220020000000000000F03FFE4890ED37
:10599000010A30EEC00A8DED010A01980AF0F2F812
:1059A000CDE902019DED040B53EC102B9DED020B94
:1059B00051EC100B09F0CEFCCDE906019DED080B72
:1059C00053EC102B9DED060B51EC100B09F0B0FEC3
:1059D000CDE90C01EC48406809900AF0D3F800E0EA
:1059E00015E0CDE90A019DED0C0B53EC102B9DED5C
:1059F0000A0B51EC100B09F0F9FBCDE90E019DEDFE
:105A00000E0B51EC100B09F0BFFB169051E0DE4875
:105A100090ED010ADD48D0ED090A30EE600A8DED07
:105A2000030A03980AF0AEF821F00041CDE906011F
:105A3000D64890ED090AD448D0ED010A30EE600A4C
:105A40008DED030A03980AF09DF8CDE904019DED60
:105A5000060B53EC102B9DED040B51EC100B09F0D1
:105A600079FC1FED380B53EC102BCDE908019DEDAF
:105A7000080B51EC100B09F05BFECDE90C01C2489C
:105A8000406809900AF07EF8CDE90A019DED0C0B03
:105A900053EC102B9DED0A0B51EC100B09F0A6FBFB
:105AA000CDE90E019DED0E0B51EC100B09F06CFBD6
:105AB0001690B74890ED020AF2EE040A20EE200A92
:105AC0008DED0B0A0B980AF05DF8CDE90E01AE489A
:105AD00090ED020AAD48D0ED0A0A30EE600A8DED75
