:020000040800F2
:10000000B82E0020219D0008A1540008A354000828
:10001000A7540008AB540008AF54000800000000CB
:10002000000000000000000000000000B3540008C1
:10003000B554000800000000B7540008B954000887
:100040003B9D00083B9D00083B9D00083B9D000830
:100050003B9D00083B9D00083B9D00083B9D000820
:100060003B9D00083B9D00083B9D00083B9D000810
:100070003B9D00083B9D00083B9D00083B9D000800
:100080003B9D00083B9D00083B9D00083B9D0008F0
:100090004D5800083B9D00083B9D00083B9D000813
:1000A0003B9D00083B9D00083B9D00083B9D0008D0
:1000B000619900089B990008599A00083B9D000827
:1000C0003B9D00083B9D00083B9D00083B9D0008B0
:1000D0003B9D0008539600083B9D00083B9D00088F
:1000E0003B9D00083B9D00083B9D00083B9D000890
:1000F0002D9B00084B9C00083B9D00083B9D000881
:100100003B9D00083B9D00083B9D00083B9D00086F
:100110003B9D00083B9D0008199B00083B9D000883
:100120003B9D00083B9D00083B9D00083B9D00084F
:100130003B9D00083B9D00083B9D00083B9D00083F
:100140003B9D0008FD5900083B9D00083B9D0008B1
:100150003B9D00083B9D00083B9D00083B9D00081F
:100160003B9D00083B9D00083B9D00083B9D00080F
:100170003B9D00083B9D00083B9D00083B9D0008FF
:100180003B9D00083B9D00083B9D00083B9D0008EF
:100190003B9D00083B9D00083B9D00083B9D0008DF
:1001A0003B9D00083B9D00083B9D000800F002F8C5
:1001B00000F052F80AA090E8000C82448344AAF1AF
:1001C0000107DA4501D100F047F8AFF2090EBAE8AD
:1001D0000F0013F0010F18BFFB1A43F0010318477B
:1001E0003CF000005CF00000103A24BF78C878C1F1
:1001F000FAD8520724BF30C830C144BF04680C602D
:10020000704700000023002400250026103A28BF74
:1002100078C1FBD8520728BF30C148BF0B60704778
:1002200066290EF0CA8664290CF05E8075290CF0F0
:100230005B8078290CF09480002070471FB50EF089
:10024000B2FE0CF099FB0400002000210EF01AF918
:10025000E0601FBD10B510BD0CF0AAFC1146FFF701
:10026000EDFF05F073F80CF0C8FC03B4FFF7F2FFE4
:1002700003BC09F08BF90000002000BF1FE040F232
:10028000E73188420ED00021FE4A02F8301002EB1E
:10029000C0025170FB4A411C02EBC10102EBC002DB
:1002A00051600BE00021F74A02F8301002EBC00267
:1002B0005170F4490A4602EBC0025160401CB0F58F
:1002C0007A7FDCDBEF49F04A116011460968EF4A9A
:1002D000116070472DE9F04F99B080460E460EB17F
:1002E000642E03DD002019B0BDE8F08F45460024E0
:1002F000002700BF4CE0701E211D884234DA285DC3
:1003000004F1010CB44502DB4FF0000C03E004F1F2
:10031000010C15F80CC0614604F1020CB44502DB77
:100320004FF0000C03E004F1020C15F80CC062461B
:1003300004F1030CB44502DB4FF0000C03E004F1C0
:10034000030C15F80CC063464FEA006C4CEA014CF4
:100350004CEA022C4CEA030CBA4607F1010B1FFAD7
:100360008BF74DF82AC015E0285D0106601C285C5B
:1003700041EA0041A01C285C41EA0020E11C695CC4
:10038000084339467A1C97B24DF82100201D84B2EB
:10039000B442B0DB00BF4FF000090BF03FFF002478
:1003A00006E05DF824000BF03DFF8146601C84B23E
:1003B000BC42F6DB484696E710B52DED028BB0EE59
:1003C000408A9FEDB30A28EE000ADFEDB20A80EE04
:1003D000201AF0EE418AB0EE680A0DF05FF9AE48DF
:1003E00080ED000A9FEDAA0A28EE000ADFEDA90AB7
:1003F00080EE201AF0EE418AB0EE680A0DF05CFA49
:10040000B1EE400AA44880ED010A9FEDA40A80EDF8
:10041000020A9FED9F0A28EE000ADFED9E0A80EE99
:10042000201AF0EE418AB0EE680A0DF045FA9A48BB
:1004300080ED030A90ED000A80ED040A9FED970A13
:1004400080ED050A9FED950A80ED060A9FED930A5F
:1004500080ED070AB7EE000A80ED080ABDEC028BBA
:1004600010BD10B52DED048BB0EE408AF0EE608A21
:100470009FED870A28EE000ADFED860A80EE201A3B
:10048000B0EE419AB0EE490A0DF008F9F0EE409A4C
:100490009FED7F0A28EE800ADFED7E0A80EE201AAB
:1004A000B0EE419AB0EE490A0DF0F8F829EE800A54
:1004B0007B4880ED000A9FED760A28EE000ADFED0A
:1004C000750A80EE201AB0EE419AB0EE490A0DF09E
:1004D000E5F8F1EE409A9FED6E0A28EE800ADFED16
:1004E0006D0A80EE201AB0EE419AB0EE490A0DF086
:1004F000E3F929EE800A6A4880ED010A9FED640A5B
:1005000028EE000ADFED630A80EE201AB0EE419A71
:10051000B0EE490A0DF0D0F9B1EE400A604880ED26
:10052000020A9FED5B0A28EE000ADFED5A0A80EE10
:10053000201AB0EE419AB0EE490A0DF0BDF9F0EE86
:10054000409A9FED530A28EE800ADFED520A80EEB2
:10055000201AB0EE419AB0EE490A0DF09FF829EE4C
:10056000800A4F4880ED030A9FED490A28EE000AF1
:10057000DFED480A80EE201AB0EE419AB0EE490A4B
:100580000DF09AF9F1EE409A9FED410A28EE800AAB
:10059000DFED400A80EE201AB0EE419AB0EE490A33
:1005A0000DF08AF929EE800A3D4880ED040A9FED9E
:1005B000380A28EE000ADFED370A80EE201AB0EE86
:1005C000419AB0EE490A0DF069F8354880ED050A08
:1005D0009FED2F0A28EE800ADFED2E0A80EE201A0A
:1005E000B0EE419AB0EE490A0DF066F9B1EE400A5C
:1005F0002B4880ED060A9FED260A28EE800ADFEDE3
:10060000250A80EE201AB0EE419AB0EE490A0DF0AC
:1006100045F8B1EE400A224880ED070A9FED1F0A17
:1006200080ED080ABDEC048B10BD10B52DED068BD6
:10063000B0EE408AF0EE608AB0EE419A9FED140A67
:1006400028EE000ADFED130A80EE201AF0EE419A40
:10065000B0EE690A0DF022F8B0EE40AA9FED0C0A48
:1006600069EE000A9FED0B1A80EE810A30EE280A2F
:10067000F0EE409A0DF012F82AEE000A094880EDDB
:10068000000A11E0E40200202000002024000020E5
:10069000DC0F4940000034438400002000000000CB
:1006A000A8000020CC0000201FED070A28EE000A59
:1006B0005FED080A80EE201AF0EE419AB0EE690A6A
:1006C0000CF0ECFFB1EE40AA1FED0F0A69EE000A34
:1006D0001FED101A80EE810A30EE280AF0EE409AE3
:1006E0000DF0EAF82AEE000AFE4880ED010A1FED3F
:1006F000180A28EE000A5FED190A80EE201AF0EEC3
:10070000419AB0EE690A0DF0D7F8B1EE400AF5480B
:1007100080ED020A1FED220A28EE000A5FED230A8F
:1007200080EE201AF0EE419AB0EE690A0DF0C4F89E
:10073000B0EE40AA1FED2A0A69EE000A1FED2B1A3F
:1007400080EE810A30EE280AF0EE409A0CF0A6FF07
:100750002AEE000AE34880ED030A1FED330A28EE73
:10076000000A5FED340A80EE201AF0EE419AB0EEF6
:10077000690A0DF0A1F8B1EE40AA1FED3B0A69EE3F
:10078000000A1FED3C1A80EE810A30EE280AF0EED6
:10079000409A0DF091F82AEE000AD24880ED040A42
:1007A0001FED450A28EE000A5FED460A80EE201A8A
:1007B000F0EE419AB0EE690A0CF070FFC94880ED86
:1007C000050A1FED4D0A69EE000A1FED4E1A80EE74
:1007D000810A30EE280AF0EE409A0DF06DF8B1EE85
:1007E000400AC04880ED060A1FED570A69EE000A6C
:1007F0001FED581A80EE810A30EE280AF0EE409A7A
:100800000CF04CFFB1EE400AB64880ED070A1FED30
:100810005D0A80ED080ABDEC068B10BD10B52DED0C
:10082000068BB0EE408AF0EE608AB0EE419AF0EEB0
:10083000619A1FED690A28EE000A5FED6A0A80EEF0
:10084000201AB0EE41AAB0EE4A0A0CF027FFF0EEF3
:1008500040AA1FED710A69EE800A1FED721A80EE40
:10086000810A78EE890A30EE200AB0EE40AA0CF038
:1008700015FF2AEE800A9C4880ED000A1FED7C0AD5
:1008800028EE000A5FED7D0A80EE201AB0EE41AA44
:10089000B0EE4A0A0CF002FFF1EE40AA1FED840A06
:1008A00069EE800A1FED851A80EE810A78EE890ACA
:1008B00030EE200AB0EE40AA0CF0FEFF2AEE800ACD
:1008C000894880ED010A1FED8E0A28EE000A5FEDCF
:1008D0008F0A80EE201AB0EE41AAB0EE4A0A0CF060
:1008E000EBFFB1EE400A804880ED020A1FED980A46
:1008F00028EE000A5FED990A80EE201AB0EE41AAB8
:10090000B0EE4A0A0CF0D8FFF0EE40AA1FEDA00AA4
:1009100069EE800A1FEDA11A80EE810A78EE890A3D
:1009200030EE200AB0EE40AA0CF0B8FE2AEE800AA3
:100930006D4880ED030A1FEDAA0A28EE000A5FED5C
:10094000AB0A80EE201AB0EE41AAB0EE4A0A0CF0D3
:10095000B3FFF1EE40AA1FEDB20A69EE800A1FED67
:10096000B31A80EE810A78EE890A30EE200AB0EEE2
:1009700040AA0CF0A1FF2AEE800A5B4880ED040A31
:100980001FEDBD0A28EE000A5FEDBE0A80EE201AB8
:10099000B0EE41AAB0EE4A0A0CF080FE524880ED5B
:1009A000050A1FEDC50A69EE800A1FEDC61A80EE22
:1009B000810A78EE890A30EE200AB0EE40AA0CF0E7
:1009C0007BFFB1EE400A484880ED060A1FEDD00AD1
:1009D00069EE800A1FEDD11A80EE810A78EE890A4D
:1009E00030EE200AB0EE40AA0CF058FEB1EE400AFC
:1009F0003D4880ED070A1FEDD70A80ED080ABDECDF
:100A0000068B10BD1FEDDB0A384880ED000A1FED94
:100A1000DD0A80ED010A1FEDDF0A80ED020A1FEDFD
:100A2000E10A334880ED000A9FED320A80ED010AA9
:100A30001FEDE60A80ED020A9FED2F0A2F4880ED98
:100A4000000A1FEDEA0A80ED010A1FEDEC0A80EDB5
:100A5000020A9FED2B0A2B4880ED000A1FEDF10AD8
:100A600080ED010ABAEE030A80ED020A9FED260A24
:100A7000264880ED070A9FED260A80ED0D0A9FEDBE
:100A8000250A80ED130A9FED240A80ED190ABFEEB6
:100A9000000A80ED060ABFEE000A80ED0C0AB7EEF0
:100AA000000A80ED120ABFEE000A80ED180A00204D
:100AB0001A4908817047F0B52DED108B85B0B0EE66
:100AC000408AF0EE608AB0EE419A04460D46164622
:100AD0009FED130A28EE000ADFED120A80EE201ABD
:100AE00022E00000CC000020F000002014010020D3
:100AF00020010020CDCCEE4200006B432C010020F1
:100B000033F3844338010020D95F963E440100202E
:100B100013728041A8D70542A47071C1A4020020BD
:100B2000DC0F494000003443B0EE41AAB0EE4A0A5F
:100B30000CF0B4FD8DED040A38EE890A8DED030A40
:100B40009DED030A5FED0A0A20EE200A5FED0B0A15
:100B500080EE201AB0EE41AAB0EE4A0A0CF09EFDDB
:100B6000F0EE409A1FED120A28EE000A5FED130A1C
:100B700080EE201AB0EE41AAB0EE4A0A0CF09CFEBC
:100B80008DED020A1FED1A0A28EE800A5FED1B0A9E
:100B900080EE201AB0EE41AAB0EE4A0A0CF07EFDBB
:100BA0008DED010A38EE890A8DED000A1FED240A49
:100BB00028EE000A5FED250A80EE201AB0EE41AA69
:100BC000B0EE4A0A0CF06AFD5FED330A20EE200A0F
:100BD00060EE29AA1FED2E0A28EE000A5FED2F0A0B
:100BE00080EE201AB0EE41AAB0EE4A0A0CF064FE84
:100BF000FAEE030A40EEC0AA1FED370A28EE000AFB
:100C00005FED380A80EE201AB0EE41AAB0EE4A0A33
:100C10000CF044FD5FED480A20EE20BA1FED400ABB
:100C200028EE800A5FED410A80EE201AB0EE41AA5C
:100C3000B0EE4A0A0CF032FD4BEE00AA1FED480A56
:100C400028EE000A5FED490A80EE201AB0EE41AAB4
:100C5000B0EE4A0A0CF030FE5FED5A0A40EEC0AA30
:100C6000C4ED00AA1FED520A28EE000A5FED530AF8
:100C700080EE201AB0EE41AAB0EE4A0A0CF01CFE3B
:100C80005FED610A20EE200A60EE29AA1FED5C0AE2
:100C900028EE000A5FED5D0A80EE201AB0EE41AA50
:100CA000B0EE4A0A0CF0FAFCFAEE030A40EE80AA13
:100CB0001FED650A28EE000A5FED660A80EE201A35
:100CC000B0EE41AAB0EE4A0A0CF0F6FD5FED760AEE
:100CD00020EE20BA1FED6E0A28EE800A5FED6F0A43
:100CE00080EE201AB0EE41AAB0EE4A0A0CF0D6FC13
:100CF0004BEE00AA1FED760A28EE000A5FED770A98
:100D000080EE201AB0EE41AAB0EE4A0A0CF0C6FC02
:100D10005FED880A40EE80AAC5ED00AA1FED800AAB
:100D200028EE800A10EE101A08460EF0CBF841ECBF
:100D30001E0B9FEDFB0B53EC102B0DF0ABFC41ECAD
:100D40001D0BB0EE4D0AF0EE6D0A0CF051FDB0EE49
:100D500040CAF0EE60CA9FEDF40B53EC102B51EC3F
:100D60001C0B0DF085FE41EC1A0B9DED000A5FEDAA
:100D7000940A20EE200A5FED950A80EE201A11EE0B
:100D8000107A38460EF09EF841EC1D0BB0EE4D0A7D
:100D9000F0EE6D0A0CF02CFDB0EE40CAF0EE60CA29
:100DA0009FEDE30B53EC102B51EC1C0B0DF060FE90
:100DB00041EC1B0B53EC1A2B0DF09AFF41EC1F0B6F
:100DC0000DF082FB3060002005B0BDEC108BF0BD53
:100DD00070B52DED028B0446B0EE408A0D4600261C
:100DE00000EE104AB8EE400A04EB4400D24901EB91
:100DF000C00080ED050A04EB440001EBC00080ED6B
:100E0000028ACE48007818B10120BDEC028B70BD7B
:100E10000CB1042C01D90220F7E7B7EE000AB4EEBA
:100E2000C08AF1EE10FA01DD0320EEE71DB1012DBD
:100E300001D00420E9E7E0B204F094FF0646A6B131
:100E40004DB9D6ED480A70EE880AB0EE600AE0B2FD
:100E500006F0E9FA0BE0D6ED480A70EEC80AB0EEEB
:100E6000600AE0B206F0DFFA01E00520CDE70020DD
:100E7000CBE710B50024B248007810B30020B04989
:100E8000087001240BE00021204604F084FF00B923
:100E900003E004F10A00C0B210BD601CC4B2052C0E
:100EA000F1DB01240BE00021204605F0D0FF00B962
:100EB00003E004F11400C0B2EEE7601CC4B2052CDC
:100EC000F1DB0020E8E770B52DED028B0446B0EEB3
:100ED000408AF0EE608A0025E0B204F043FF054648
:100EE000002D48D000EE104AB8EE400A04EB440052
:100EF000914901EBC00080ED050A04EB440001EBD1
:100F0000C00080ED038A04EB440001EBC00090EDCB
:100F1000030ADFED8C0A80EE201A04EB440001EB9B
:100F2000C00080ED021A04EB440001EBC000C0EDEC
:100F3000048A012C06D0022C09D0032C0CD0042CDE
:100F400014D10EE0012180480AF04CFC0EE0012192
:100F50007E480AF047FC09E001217D480AF042FC86
:100F600004E001217B480AF03DFC00BF00BF0020E7
:100F7000BDEC028B70BD6420FAE710B52DED0C8B33
:100F8000B0EE408AF0EE608AB0EE419AF0EE619ADF
:100F9000B0EE42AAF0EE62AAB0EE43BAF0EE63BA47
:100FA000B2EE040AC8EE000A634890ED061A90ED0E
:100FB000070A00EE810AB0EE40CAB2EE040AC8EE9B
:100FC000800A90ED0C1A90ED0D0A00EE810AF0EE09
:100FD00040CAB2EE040AC9EE000A90ED121A90ED72
:100FE000130A00EE810AB0EE40DAB2EE040AC9EE4E
:100FF000800A90ED181A90ED190A00EE810AF0EEC1
:1010000040DAF0EE4C0AB0EE4A0A0120FFF75BFF2F
:10101000F0EE6C0AB0EE6A0A0220FFF754FFF0EE21
:101020004D0AB0EE4B0A0320FFF74DFFF0EE6D0ABC
:10103000B0EE6B0A0420FFF746FF0020BDEC0C8BDE
:1010400010BD2DE9F04706460F469046994600240C
:10105000002501245CE0204604F084FE0546E5B34B
:10106000012C06D0022C16D0032C26D0042C4AD1F9
:1010700037E095ED480A3048D0ED070A30EE600AB7
:10108000F2EE040A20EE200AD0ED060A80EE201AC5
:1010900086ED001A38E095ED480A2748D0ED0D0A94
:1010A00030EE600AF2EE040A20EE200AD0ED0C0ABF
:1010B00080EE201A87ED001A26E095ED480A1E48BA
:1010C000D0ED130A30EE600AF2EE040A20EE200A98
:1010D000D0ED120A80EE201A00E016E088ED001A2A
:1010E00012E095ED480A1448D0ED190A30EE600A76
:1010F000F2EE040A20EE200AD0ED180A80EE201A43
:1011000089ED001A00E000BF00E003E0601CC4B2FB
:10111000052CA0DB00BF052C1ED00120BDE8F08708
:1011200000000000008066400000000000606D408C
:1011300000000060669E70C0440100200200002094
:101140007200002000007A440004004000080040C3
:10115000001C0040002000400020BDE8F0872DE981
:10116000F04F2DED108BA5B0F0EE40AAB0EE608AE6
:10117000F0EE41BA81460E4617469A469FEDFE0AAA
:101180008DED230A9FEDFC0A8DED220A9FEDFA0AF0
:101190008DED210A9FEDF80A8DED200A20AB21AAE2
:1011A00022A923A8FFF74DFF1F901F9840B1F3A07D
:1011B0000BF05AF8012025B0BDEC108BBDE8F08F84
:1011C0009FEDF70AF0EE408A00201E906AEEAA0A10
:1011D00048EE080A48EEE80AB0EE600A0CF034FC6B
:1011E000B0EE40DA2DEE080A08EEEA0A6AEEAA0A24
:1011F00048EE080A80EE201AF0EE41FA1FEE900A3F
:101200000DF060FE21F000419FEDE60B53EC102B3A
:101210000DF02CFD01D20220CDE7B0EE6F0A0CF0EC
:10122000A7F9B0EE409AB0EE490ADFEDE00A60EEB1
:10123000200A9FEDDF1A80EE810ADFEDDC0AB4EEB2
:10124000E00AF1EE10FA04DD9FEDDA0A39EE400A09
:1012500007E09FEDD60A69EE000A9FEDD51A80EEF1
:10126000810A8DED1A0A9FEDD10A69EE000A9FED01
:10127000D01A80EE810ADFEDCD0A30EEC00ADFED34
:10128000CB0AB4EEE00AF1EE10FA10DD9FEDC70ACA
:1012900069EE000A9FEDC61A80EE810ADFEDC30AEF
:1012A00030EEC00ADFEDC30A30EE600A0BE09FEDBE
:1012B000BF0A29EE000ADFEDBE0A80EE201A9FED7C
:1012C000BB0A30EE410A8DED1B0AB1EE4D0AB0EEBD
:1012D00040DA2DEE080A08EEEA0A6AEEAA0A48EE9B
:1012E000080A80EE201AF0EE41FAB0EE6F0A0CF018
:1012F0003FF9B0EE409A9FEDAD0A29EE000A9FED4E
:10130000AC1AC0EE010A9FEDA90AF4EEC00AF1EE94
:1013100010FA04DD9FEDA70A39EE400A07E09FEDC1
:10132000A30A69EE000A9FEDA21A80EE810A8DEDF4
:101330001C0A9FED9E0A69EE000A9FED9D1A80EE41
:10134000810ADFED9A0A30EEC00ADFED980AB4EEAA
:10135000E00AF1EE10FA10DD9FED940A69EE000A42
:101360009FED931A80EE810ADFED900A30EEC00AFD
:10137000DFED900A30EE600A0BE09FED8C0A69EE1B
:10138000000A9FED8B1A80EE810ADFED880A30EEAD
:10139000C00A8DED1D0A9DED1D0A10EE101A0846BB
:1013A0000DF090FD41EC1C0B9DED1C0A10EE101A87
:1013B00008460DF087FDCDE90A019DED1B0A10EEF0
:1013C000101A08460DF07EFDCDE908019DED1A0AC0
:1013D00010EE101A08460DF075FDCDE906018DEDF1
:1013E00004CB9DED0A0B8DED020B9DED080B8DEDF1
:1013F000000B9DED060B53EC102B6FA00AF034FF91
:10140000012401259FED75EA00BF37E01EEE100AAA
:101410000DF058FD41EC1C0B19A800EB840090ED79
:10142000000ADDED230A30EEC00A10EE101A08465D
:101430000DF048FD21F0004153EC1C2BCDE90A01D1
:101440009DED0A0B51EC100B0DF0D6FA14D2254687
:1014500019A800EB840090ED000ADDED230A30EEC0
:10146000C00A10EE101A08460DF02CFD21F00041C4
:101470000DF02AF80EEE100A601CC4B2052CC5DB74
:1014800019A850F825802AEEAA0A08EE080A08EEE4
:10149000E80AB5EEC00AF1EE10FA01D203208AE69E
:1014A000012D01D0022D0ED101201E906AEEAA0A54
:1014B00048EE080A48EEE80AB0EE600A0CF0C4FAFA
:1014C000B0EE40DA10E04FF0FF301E906AEEAA0A4C
:1014D00048EE080A48EEE80AB0EE600A0CF0B4FAEA
:1014E000B1EE400AB0EE40DA40460DF0EBFC41ECC4
:1014F0001C0B53EC1C2B3AA00AF0B6FEC9F8008076
:101500002AEEAA0A08EE080A0BEEAB0A08EEE80A71
:10151000DFED380A30EE600ADFED370A70EE600A60
:10152000B0EE001A80EE810A9FED341AC0EE010A77
:101530009FED330A80EE801A11EE10BA58460DF076
:10154000C1FC21F000419FED170B53EC102B0DF067
:101550008DFB01D204202EE62AEEAA0A08EE080A24
:101560000BEEAB0A08EEE80ADFED220A30EE600A65
:10157000DFED210A46E0000000000000706F736993
:1015800074696F6E20746F20616E676C6520636193
:101590006C63756C617465206572726F720A00000D
:1015A000CDCCDB42000000000000F03F00003443DF
:1015B000DC0F49400000B443746D7020743120206A
:1015C0002020256620202020202025662020202085
:1015D00025662020202025660A0000000000B9436F
:1015E0007468657461203120202020202020256629
:1015F0000A00000000B9574767178A4700006B438D
:1016000033F3844370EE600AB0EE001A80EE810A74
:101610001FED061AC0EE010A1FED070A80EE801AC0
:10162000B0EE41CAB0EE4C0A0BF016FFB0EE40BA75
:10163000B0EE4B0A5FED230A20EE200A5FED240A8C
:1016400080EE201A8DED171AB0EE4B0A5FED290AD5
:1016500020EE200A1FED2A1AC0EE010A1FED2D0A06
:1016600030EE800A5FED2F0AB4EEE00AF1EE10FAD8
:101670000ADD1FED320A2BEE000A5FED330A80EE21
:10168000201AB1EE410A0BE01FED380A2BEE000ADA
:101690001FED391AC0EE010A1FED3C0A30EE800A38
:1016A0008DED180A9DED180A10EE101A08460DF07F
:1016B00009FC41EC1C0B9DED170A10EE101A0846B0
:1016C0000DF000FCCDE90A018DED00CB9DED0A0B7C
:1016D00053EC102BFEA00AF0C7FD9DED180ADDEDBE
:1016E000210A30EEC00A10EE101A08460DF0EAFB8F
:1016F00021F0004141EC1C0B9DED170ADDED210AA4
:1017000030EEC00A10EE101A08460DF0DBFB21F097
:10171000004153EC1C2BCDE90A019DED0A0B51EC65
:10172000100B0DF069F902D29DED170A01E09DED55
:10173000180AB0EE40BA1BEE100A0DF0C3FB41ECE4
:101740001C0B53EC1C2BE7A00AF08EFD87ED00BAB2
:101750001FED690A2BEE000A5FED6C0A80EE201A7D
:10176000F0EE41CAB0EE6C0A0BF098FFDFEDE20A32
:101770009FEDE21A41EE000AB0EE60CAB0EE4C0AEC
:101780000CF062F9F0EE40DA8DEE2D0A10EE10BA90
:1017900058460DF097FB21F000411FED7E0B53ECF6
:1017A000102B0DF063FA25D31FED7F0A2BEE000AF4
:1017B0005FED820A80EE201A8DED0B1A9DED0B0A6B
:1017C0000BF06CFFF0EE400A1FED740A1FED741A67
:1017D00001EE200AC0EE2D0A10EE90BA58460DF028
:1017E00071FB21F000411FED910B53EC102B0DF01C
:1017F0003DFA01D20520DEE48DEE2D0AB0EE40CA9E
:101800000BF02AFEB0EE40AA1FED970A2BEE000A5D
:101810005FED9A0A80EE201AF0EE41CAB0EE6C0A33
:101820000BF03CFF5FED8B0A1FED8B1A41EE000AB7
:1018300080EEAD0AB0EE40CA0BF00EFEF0EE409A1C
:10184000B0EE690A3AEE400A5FEDA70AB4EEE00A8C
:10185000F1EE10FA06DD3AEE690ADFEDA90A30EE84
:10186000600A01E03AEE690A8DED120A3AEE290AA1
:101870005FEDB10AB4EEE00AF1EE10FA06DD3AEEE1
:10188000290ADFED9F0A30EE600A01E03AEE290AEC
:101890008DED130AB1EE4A0A30EE690A5FEDBC0A1B
:1018A000B4EEE00AF1EE10FA08DDB1EE4A0A30EECD
:1018B000690ADFED930A30EE600A03E0B1EE4A0AEE
:1018C00030EE690A8DED140AB1EE4A0A30EE290AAB
:1018D0005FEDC90AB4EEE00AF1EE10FA08DDB1EEF0
:1018E0004A0A30EE290ADFED860A30EE600A03E08C
:1018F000B1EE4A0A30EE290A8DED150A9DED150A62
:101900005FEDD60A20EE200A5FEDD70A80EE201A9E
:1019100011EE10BA58460DF0D5FA41EC1C0B9DEDB6
:10192000140A5FEDDE0A20EE200A5FEDDF0A80EE8A
:10193000201A11EE10BA58460DF0C4FACDE90A018A
:101940009DED130A5FEDE70A20EE200A5FEDE80A3D
:1019500080EE201A11EE10BA58460DF0B3FACDE918
:1019600008019DED120A5FEDEF0A20EE200A5FEDFF
:10197000F00A80EE201A11EE10BA58460DF0A2FAC5
:10198000CDE906018DED04CB9DED0A0B8DED020B2B
:101990009DED080B8DED000B9DED060B53EC102B10
:1019A00058A00AF061FC5FEDF3EA012447E01EEE67
:1019B000900A0DF087FA41EC1C0B11A800EB840093
:1019C000D0ED000A9FED550A60EE800A9FED541A93
:1019D00080EE810ADDED220A30EEC00A10EE10BA68
:1019E00058460DF06FFA21F0004153EC1C2BCDE965
:1019F0000A019DED0A0B51EC100B0CF0FDFF1CD2FF
:101A0000254611A800EB840090ED000ADFED430AA3
:101A100060EE200A9FED421A80EE810ADDED220A77
:101A200030EEC00A10EE10BA58460DF04BFA21F015
:101A300000410CF049FD0EEE900A601CC4B2052C6A
:101A4000B5DB11A800EB850090ED000ADFED330A4D
:101A500020EE200ADFED320A80EE201A11EE10BAD5
:101A600058460DF02FFA41EC1C0B53EC1C2B2DA00B
:101A70000AF0FAFB11A800EB850090ED000ADFEDFB
:101A8000270A20EE200ADFED260A80EE201A86EDD6
:101A9000001A96ED000ADFED260A30EEC00AD7EDF7
:101AA000000A30EE600A8DED0D0A96ED000ADFEDBA
:101AB0001B0A30EEC00AD7ED000A30EE600A8DED49
:101AC0000E0A96ED000ADFED1B0A30EEC00A33E085
:101AD0007468657461203320202025662C202566DB
:101AE0000A000000746865746120332020202020E3
:101AF000202025660A000000E7F3F5478016F4472A
:101B0000DC0FC94074322025662C20202025662059
:101B10002020256620202025660A0000000034438E
:101B2000DC0F4940743220697320202025660A00AA
:101B3000000000000000B443D7ED000A30EE600A58
:101B40008DED0F0A9FEDF1FA012437E01FEE100A28
:101B50000DF0B8F941EC1C0B0CA800EB840090EDE3
:101B6000000ADDED200A30EEC00A10EE101A084619
:101B70000DF0A8F921F0004153EC1C2BCDE90A012E
:101B80009DED0A0B51EC100B0CF036FF14D22546DC
:101B90000CA800EB840090ED000ADDED200A30EE89
:101BA000C00A10EE101A08460DF08CF921F0004121
:101BB0000CF08AFC0FEE100A601CC4B2042CC5DBCA
:101BC0000CA800EB850090ED000A10EE101A0846F4
:101BD0000DF078F941EC1C0B53EC1C2BCCA00AF057
:101BE00043FB0CA800EB850090ED000A8AED000A8B
:101BF00000BF002053E42DE9F04399B0814621E075
:101C0000C64800680078FF2806D1C44800684068CC
:101C10000078FF2800D116E0C0480068C049096874
:101C2000884203D1012019B0BDE8F0830020BB49F0
:101C300009680870B94909684870B8480068406880
:101C4000B6490860DCE700BFB44800680078FF28A8
:101C50007DD1B248006840680078FF28F8D10120A3
:101C6000B049087000250020AC4909680870AB49EC
:101C700009684870A94800684068A84908600020C1
:101C800009680870A54909684870A4480068406858
:101C9000A249086015E04FF00008022007F00EFC92
:101CA000414608F1010828290ADD00209B490968FE
:101CB00048709A4800684068984908600220B2E776
:101CC00000BF9648006840780028E4D09348006838
:101CD00002782846691CCDB20DF8002000208F49FB
:101CE000096848708D48006840688C49086015E0B4
:101CF0004FF00008022007F0E1FB414608F101081F
:101D000028290ADD00208549096848708348006851
:101D1000406882490860022085E700BF7F4800686C
:101D200040780028E4D07D48006802782846691C85
:101D3000CDB20DF800200020784909684870774836
:101D400000684068754908609DF8010000E0ABE05C
:101D50009DF8001040EA0124062C0DDA00206F499E
:101D6000096848706D48006840686C4908606EA05A
:101D70000AF07AFA032056E72BE04FF0000813E050
:101D8000022007F09BFB4046411C1FFA81F82828DF
:101D90000ADD0020614909684870604800684068B1
:101DA0005E49086002203EE75C48006840780028F1
:101DB000E6D05A48006800780DF805000020574921
:101DC0000968487055480068406854490860681CB4
:101DD000C5B2A542D1DB201F81B26846FEF77AFA70
:101DE0000646314655A00AF03FFA201F1DF80000B4
:101DF0000106E01E1DF8000041EA0041A01E1DF88A
:101E0000000041EA0020611E1DF8011040EA0107B0
:101E1000BE4204D04DA00AF027FA042003E70020B8
:101E200040490870201F88809DF8020040EA002089
:101E300008819DF8040048810846408901280BDB91
:101E400008464089042807DC0846418942A00AF078
:101E50000BFA0320334948803248408905280BDBC0
:101E600030484089082807DC2E48418943A00AF001
:101E7000FBF901202B4948802A484089092807D1CD
:101E80002848418945A00AF0EFF9022025494880F9
:101E9000062C07D12348418948A00AF0E5F9002023
:101EA000204948800020BEE600201C4909680870CF
:101EB0001A4909684870194800684068174908605D
:101EC0000020B0E610B546A00AF0CEF94DA00AF009
:101ED000CBF955A00AF0C8F95CA00AF0C5F965A0D5
:101EE0000AF0C2F96CA00AF0BFF973A00AF0BCF9BD
:101EF00079A00AF0B9F97FA00AF0B6F910BD11B5C2
:101F00009DB01D98332883F01B8201E10000B94386
:101F1000743420697320202025660A0020000020E8
:101F200024000020A402002064617461206C656EAE
:101F3000677468206572726F720A00004352432012
:101F4000726573756C74202025780A0063726320B3
:101F50006572726F720A0000636F6E74726F6C202C
:101F60006672616D652C2066756E6374696F6E2094
:101F7000636F6465202025640A0000007265616457
:101F8000206672616D652C2066756E6374696F6E74
:101F900020636F6465202025640A00007365742047
:101FA0006672616D652C2066756E6374696F6E2054
:101FB000636F6465202025640A0000006865617213
:101FC0007462656174206672616D652C2066756E41
:101FD0006374696F6E20636F6465202025640A0056
:101FE0000D0ABBB6D3ADCAB9D3C320494E4E464F36
:101FF000532053434120C7FDB6AFB2E2CAD4A3A1D8
:102000000D0A0000CFEACFB8CDA8D0C5D0ADD2E937
:10201000B2CEBCFB20494E4E464F532057494B4948
:1020200020A3A10D0A000000B7A2CBCD203120C211
:10203000D6D1AFD7DCCFDFC9CFB5C4D6B4D0D0C6E8
:10204000F7494420A3A10D0A00000000B7A2CBCDA0
:10205000203220CAB9D3C3C4ACC8CF4944B3F5CAEF
:10206000BCBBAF534341BFD8D6C6C6F720A3A10D12
:102070000A000000B7A2CBCD203320BDF8C8EBCEBC
:10208000BBD6C3B9E9C1E3B2E2CAD4B3CCD0F22023
:10209000A3A10D0A00000000B7A2CBCD203420BDC3
:1020A000F8C8EBD5FDB7B4D7AAB2E2CAD4B3CCD046
:1020B000F220A3A10D0A0000B7A2CBCD203520BD90
:1020C000F8C8EBB8DFB5CDCBD9B2E2CAD4B3CCD027
:1020D000F220A3A10D0A0000B7A2CBCD203620BD6F
:1020E000ABD6B4D0D0C6F7B9D8BBFA20A3A10D0A9D
:1020F00000000000B7A2CBCD203720CFD4CABEB09D
:10210000EFD6FAD0C5CFA220A3A10D0A000000008F
:10211000DFE810F0161933003D004A005100580066
:102120005F00161916191619680074007A009200DB
:10213000AA00AB00B200B900C000C700CE00D500B5
:10214000DC00E300EB00F300060119012C013F0164
:102150005201650178018B019E01B101C401920217
:10216000630367048D05EA07FE09C70B9D0D740F15
:102170003B112513FA140D151617D2A00AF074F8A6
:1021800003F0A6FCD4A00AF06FF803F0DCB8D6A0E8
:102190000AF06AF803F0A8FC4FF4FA7007F0D6F9D9
:1021A000D5A00AF061F8F0E7D8A00AF05DF8DDA04C
:1021B0000AF05AF8E9E7E1A00AF056F8E6A00AF0BA
:1021C00053F8E2E7EAA00AF04FF8F0A00AF04CF862
:1021D000DBE7F4A00AF048F805F07AF8F6A00AF078
:1021E00043F8D2E7F9A00AF03FF803F071FC03F0DE
:1021F0007BFC4FF47A7007F0A9F9C6E7F6A00AF065
:1022000033F805F065F8C0E7F6A00AF02DF80122D2
:102210000621104605F06DF801220621022005F086
:1022200068F801220621032005F063F80122062147
:10223000042005F05EF8A8E7F3A00AF015F80122E3
:102240000321104605F055F801220321022005F074
:1022500050F801220321084605F04BF80122032122
:10226000042005F046F890E78FE700219FEDEE0A85
:102270000420FEF7ADFD88E701219FEDEB0A042065
:10228000FEF7A6FD81E700219FEDE70A0320FEF798
:102290009FFD7AE701219FEDE40A0320FEF798FDF8
:1022A00073E700219FEDE00A0220FEF791FD6CE745
:1022B00001219FEDDD0A0220FEF78AFD65E700217E
:1022C0009FEDD90A0120FEF783FD5EE701219FED16
:1022D000D60A0846FEF77CFD57E7DFEDD40A9FEDEE
:1022E000D40A0420FEF7EFFD4FE7DFEDD20A9FEDA1
:1022F000D00A0420FEF7E7FD47E7DFEDCE3A9FED79
:10230000CD3ADFEDCC2AB2EE042ADFEDCA1A9FEDFA
:10231000C91ADFEDC80AB2EE040AFEF72EFE34E752
:10232000DFEDC43A9FEDC33ADFEDC22AB2EE042AD4
:10233000DFEDC01A9FEDBF1ADFEDBE0A9FEDBD0AAB
:10234000FEF71BFE21E7DFEDBB3A9FEDBA3ADFED6A
:10235000B92AB2EE042ADFEDB71A9FEDB61ADFED07
:10236000B50ABAEE040AFEF708FE0EE7DFEDB13A51
:102370009FEDB03AF2EE042A9FEDAE2ADFEDAD1AE2
:102380009FEDAC1AF2EE040A9FEDAA0AFEF7F5FDE6
:10239000FBE6DFEDA83A9FEDA73AF2EE042A9FEDA7
:1023A000A52ADFEDA41A9FEDA31ADFEDA20A9FED87
:1023B000A10AFEF7E2FDE8E6DFED9E3A9FED9D3AC9
:1023C000F2EE042A9FED9B2ADFED9A1A9FED991AEF
:1023D000FAEE040A9FED970AFEF7CFFDD5E6DFED92
:1023E000953AB2EE043ADFED932A9FED922ADFEDA3
:1023F000911AB2EE041ADFED8F0A9FED8E0AFEF7F6
:10240000BCFDC2E6DFED8B3AB2EE043ADFED892A7D
:102410009FED882ADFED871A9FED861ADFED850A8A
:102420009FED840AFEF7A9FDAFE6DFED823AB2EE3A
:10243000043ADFED802A9FED7F2ADFED7E1ABAEEA7
:10244000041ADFED7C0A9FED7B0AFEF796FD9CE601
:10245000F2EE043A9FED773ADFED762A9FED752A8A
:10246000F2EE041A9FED731ADFED720A9FED710A06
:10247000FEF783FD89E6F2EE043A9FED6E3ADFED5A
:102480006D2A9FED6C2ADFED6B1A9FED6A1ADFED66
:10249000690A9FED680AFEF770FD76E6F2EE043AEF
:1024A0009FED643ADFED632A9FED622AFAEE041A8B
:1024B0009FED601ADFED5F0A9FED5E0AFEF75DFD9E
:1024C00063E600000D0AD6B4D0D0C2D6D1AFB3CCEB
:1024D000D0F2A3A10D0A0000C2D6D1AFBDE1CAF867
:1024E000A3A10D0A000000000D0A534341B3F5CA31
:1024F000BCBBAFA3A10D0A00534341B3F5CABCBB9B
:10250000AFBDE1CAF8A3A10D0A0000000D0ABDF895
:10251000C8EBCEBBD6C3B9E9C1E3B2E2CAD4A3A12A
:102520000D0A0000CEBBD6C3B9E9C1E3B2E2CAD4FA
:10253000BDE1CAF8A3A10D0A000000000D0ABDF814
:10254000C8EBD5FDB7B4D7AAC7D0BBBBB2E2CAD4DB
:10255000A3A10D0A00000000D5FDB7B4D7AAC7D0CB
:10256000BBBBB2E2CAD4BDE1CAF8A3A10D0A000008
:102570000D0ABDF8C8EBB8DFB5CDCBD9C7D0BBBB12
:10258000B2E2CAD4A3A10D0A00000000B8DFB5CDA5
:10259000CBD9C7D0BBBBB2E2CAD4BDE1CAF8A3A1B4
:1025A0000D0A00000D0AD6B4D0D0C6F7B9D8BBFAD0
:1025B000A3A10D0A00000000D6B4D0D0C6F7B9D848
:1025C000BBFABDE1CAF8A3A10D0A000073746172E1
:1025D0007420616C6C200A00636C6F736520616C01
:1025E0006C200A007772697465206D6F746F7220B9
:1025F000746F20706F736974696F6E2053206D6FF4
:102600006465200A000000007772697465206D6FB0
:10261000746F7220746F20706F736974696F6E20AD
:102620006D6F6465200A0000CDCCCC3D00001042E7
:102630000000C8420000000018AB19AA1AA91BA884
:10264000FEF7FFFC1790179818B1F6A009F00CFEE2
:10265000C2E01B980CF036FC21F000419FEDFD0B11
:1026600053EC102BCDE912019DED120B51EC100B28
:102670000CF0C2F902D21FED110A01E09DED1B0A18
:102680008DED1B0A1A980CF01DFC21F000419FED06
:10269000F10B53EC102BCDE912019DED120B51EC17
:1026A000100B0CF0A9F902D21FED1E0A01E09DEDFE
:1026B0001A0A8DED1A0A19980CF004FC21F0004159
:1026C0009FEDE40B53EC102BCDE912019DED120BA5
:1026D00051EC100B0CF090F902D21FED2A0A01E028
:1026E0009DED190A8DED190A18980CF0EBFB21F0FD
:1026F00000419FEDD80B53EC102BCDE912019DED5D
:10270000120B51EC100B0CF077F902D21FED370AC7
:1027100001E09DED180A8DED180A1FED3A0A8DEDC6
:10272000160A1FED3C0A8DED150A1FED3E0A8DEDD0
:10273000140A18980CF0C6FBCDE9120119980CF098
:10274000C1FBCDE910011A980CF0BCFBCDE90E01DC
:102750001B980CF0B7FBCDE90C01DDE91201CDE9C6
:102760000401DDE91001CDE90201DDE90E01CDE949
:1027700000019DED0C0B53EC102BB8A009F074FD7B
:1027800014AA15A916A8DDED181A9DED191ADDED8C
:102790001A0A9DED1B0AFEF78EF914980CF092FBB5
:1027A000CDE9120115980CF08DFBCDE910011698BA
:1027B0000CF088FBCDE90E01DDE91201CDE9020143
:1027C000DDE91001CDE900019DED0E0B53EC102B5E
:1027D000A6A009F049FD00BFD7E418AB19AA1AA9B1
:1027E0001BA8FEF72EFC1790179818B18DA009F0C2
:1027F0003BFDF5E01B980CF065FB21F000419FEDDF
:10280000950B53EC102BCDE912019DED120B51EC01
:10281000100B0CF0F1F802D21FED7A0A01E09DEDE9
:102820001B0A8DED1B0A1A980CF04CFB21F000419D
:102830009FED880B53EC102BCDE912019DED120B8F
:1028400051EC100B0CF0D8F802D21FED860A01E013
:102850009DED1A0A8DED1A0A19980CF033FB21F040
:1028600000419FED7C0B53EC102BCDE912019DED47
:10287000120B51EC100B0CF0BFF802D21FED930AB3
:1028800001E09DED190A8DED190A18980CF01AFB5C
:1028900021F000419FED6F0B53EC102BCDE912019D
:1028A0009DED120B51EC100B0CF0A6F802D21FEDAF
:1028B0009F0A01E09DED180A8DED180A1FEDA30A8D
:1028C0008DED160A1FEDA50A8DED150A1FEDA70A5D
:1028D0008DED140A14AA15A916A8DDED181A9DEDA0
:1028E000191ADDED1A0A9DED1B0AFEF7E4F814989B
:1028F0000CF0E8FACDE9120115980CF0E3FACDE9F5
:10290000100116980CF0DEFACDE90E01DDE9120196
:10291000CDE90201DDE91001CDE900019DED0E0BCD
:1029200053EC102B54A009F09FFC18980CF0CAFA35
:10293000CDE9120119980CF0C5FACDE910011A98E9
:102940000CF0C0FACDE90E011B980CF0BBFACDE9F2
:102950000C01DDE91201CDE90401DDE91001CDE949
:102960000201DDE90E01CDE900019DED0C0B53ECF8
:10297000102B49A009F078FC18AB19AA1AA91BA8BA
:102980009DED141ADDED150A9DED160AFEF7E7FB25
:1029900018980CF097FACDE9120119980CF092FAF8
:1029A000CDE910011A980CF08DFACDE90E011B98B3
:1029B0000CF088FACDE90C01DDE91201CDE9040142
:1029C000DDE91001CDE90201DDE90E01CDE90001EB
:1029D0009DED0C0B53EC102B3AA009F045FC00BF09
:1029E0000BE418AB19AA1AA91BA8FEF72AFB17902B
:1029F000179818B13EA009F037FC17E11B980CF0AE
:102A000061FA21F000419FED130B53EC102BCDE93F
:102A100014019DED140B51EC100B0BF0EDFF00D2E7
:102A200084E086E0206572726F72207768696C6559
:102A300020696E2070726F63657373696E672070B2
:102A40006F736974696F6E20746F20616E676C6557
:102A50000A0000007B14AE47E17A843F25662C25EE
:102A6000662C25662C25660A0000000025662C20B1
:102A700025662C2025660A00706F736974696F6E75
:102A80002020203A202025662C20202025662C207E
:102A900020202025660A000063757272656E74201E
:102AA000616E676C652020202020203A202025665A
:102AB0002C20202025662C20202020256620202068
:102AC00025660A007461726765742020616E676C08
:102AD000652020202020203A202025662C20202040
:102AE00025662C20202020256620202025660A002F
:102AF000206572726F72207768696C6520696E203C
:102B000070726F63657373696E6720706F73697439
:102B1000696F6E20746F20616E676C6520696E202E
:102B2000636F6D6D616E642033390A009FEDFC0A9E
:102B300001E09DED1B0A8DED1B0A1A980CF0C2F9FD
:102B400021F000411FED3D0B53EC102BCDE914019A
:102B50009DED140B51EC100B0BF04EFF02D29FEDCC
:102B6000F00A01E09DED1A0A8DED1A0A19980CF091
:102B7000A9F921F000411FED490B53EC102BCDE9D1
:102B800014019DED140B51EC100B0BF035FF02D22C
:102B90009FEDE30A01E09DED190A8DED190A1898E1
:102BA0000CF090F921F000411FED560B53EC102B67
:102BB000CDE914019DED140B51EC100B0BF01CFF33
:102BC00002D29FEDD70A01E09DED180A8DED180A9B
:102BD000D44AD549D548DDED181A9DED191ADDED19
:102BE0001A0A9DED1B0AFDF766FFCE4800680CF03F
:102BF00069F9CDE91401CC4800680CF063F9CDE91E
:102C00001201CA4800680CF05DF9CDE91001DDE958
:102C10001401CDE90201DDE91201CDE900019DEDCC
:102C2000100B53EC102BC2A009F01EFB0FE418ABE5
:102C300019AA1AA91BA8FEF704FA1790179820B131
:102C4000AFF2202009F010FB4DE21B980CF03AF98E
:102C500021F000411FED810B53EC102BCDE9100149
:102C60009DED100B51EC100B0BF0C6FE02D29FED48
:102C7000AC0A01E09DED1B0A8DED1B0A1A980CF0C1
:102C800021F921F000411FED8D0B53EC102BCDE904
:102C900010019DED100B51EC100B0BF0ADFE02D2AC
:102CA0009FED9F0A01E09DED1A0A8DED1A0A199811
:102CB0000CF008F921F000411FED9A0B53EC102B9A
:102CC000CDE910019DED100B51EC100B0BF094FEB3
:102CD00002D29FED930A01E09DED190A8DED190ACC
:102CE00018980CF0EFF821F000411FEDA60B53EC03
:102CF000102BCDE910019DED100B51EC100B0BF0DA
:102D00007BFE02D29FED860A01E09DED180A8DED53
:102D1000180A844A84498548DDED181A9DED191A70
:102D2000DDED1A0A9DED1B0AFDF7C5FE7F4890ED0B
:102D3000000AF1EE040A30EE200A8DED110A13AB01
:102D400014AA15A916A8774C94ED001A764CD4ED68
:102D5000000A9DED110AFEF702FA1290129800285F
:102D60007DD113980CF0AEF8CDE90C0114980CF05D
:102D7000A9F8CDE90A0115980CF0A4F8CDE90801ED
:102D800016980CF09FF8CDE90601DDE90C01CDE9BC
:102D90000401DDE90A01CDE90201DDE90801CDE91F
:102DA00000019DED060B53EC102BAFF20C3009F037
:102DB0005BFA9DED160ADDED1B0A30EE600A8DED23
:102DC000090A09980CF07EF821F000419FED630B91
:102DD00053EC102BCDE90A019DED0A0B51EC100BC1
:102DE0000BF058FCCDE90C019DED0C0B51EC100BD8
:102DF0000BF06AFB11909DED150ADDED1A0A30EE1D
:102E0000600A8DED090A09980CF05CF821F0004188
:102E10009FED520B53EC102BCDE90A019DED0A0BEF
:102E200051EC100B0BF036FCCDE90C019DED0C0BB9
:102E300051EC100B0BF048FB10909DED140ADDEDEA
:102E4000190A30EE600A8DED090A09980CF03AF87B
:102E500021F000419FED410B53EC102B00E03EE1CF
:102E6000CDE90A019DED0A0B51EC100B0BF012FCA1
:102E7000CDE90C019DED0C0B51EC100B0BF024FB7C
:102E80000F909DED130ADDED180A30EE600A8DED0E
:102E9000090A09980CF016F821F000419FED2F0B5C
:102EA00053EC102BCDE90A019DED0A0B51EC100BF0
:102EB0000BF0F0FBCDE90C019DED0C0B51EC100B70
:102EC0000BF002FB0E909DED110ADFED260AB4EE29
:102ED000E00AF1EE10FA02DD9FED220A01E09DED1D
:102EE000110A8DED110A9DED100ADFED1E0AB4EEF8
:102EF000E00AF1EE10FA02DD9FED1A0A01E09DED05
:102F0000100A8DED100A9DED0F0ADFED160AB4EEE2
:102F1000E00AF1EE10FA27DD9FED120A26E000002C
:102F20000000000034000020300000202C000020B1
:102F3000737461727420706F696E7420706F73693E
:102F400074696F6E2020203A202025662C202020D6
:102F500025662C2020202025660A00009A99999940
:102F60009999B93F0000C8429DED0F0A8DED0F0AF7
:102F70009DED0E0A5FED050AB4EEE00AF1EE10FADF
:102F800002DD1FED080A01E09DED0E0A8DED0E0A2F
:102F900016980BF097FF21F000411FED100B53EC3A
:102FA000102BCDE90C019DED0C0B51EC100B0BF02F
:102FB00023FD02D21FED260A01E09DED160A8DEDDC
:102FC000160A15980BF07EFF21F000411FED1D0B36
:102FD00053EC102BCDE90C019DED0C0B51EC100BBB
:102FE0000BF00AFD02D21FED320A01E09DED150A39
:102FF0008DED150A14980BF065FF21F000411FEDCF
:10300000290B53EC102BCDE90C019DED0C0B51EC71
:10301000100B0BF0F1FC02D21FED3F0A01E09DED19
:10302000140A8DED140A13980BF04CFF21F00041A7
:103030001FED360B53EC102BCDE90C019DED0C0B65
:1030400051EC100B0BF0D8FC02D21FED4B0A01E043
:103050009DED130A8DED130A0E980BF033FFCDE9A9
:103060000C010F980BF02EFFCDE90A0110980BF020
:1030700029FFCDE9080111980BF024FFCDE90601E5
:10308000DDE90C01CDE90401DDE90A01CDE9020128
:10309000DDE90801CDE900019DED060B53EC102B95
:1030A000F8A009F0E1F8DDED0E3A9DED0F3ADDED07
:1030B000102A9DED112ADDED131A9DED141ADDED98
:1030C000150A9DED160AFDF758FFF54890ED000A28
:1030D000F7EE000A30EE200A80ED000A02E0F1A0CF
:1030E00009F0C2F800BF7BE418AB19AA1AA91BA803
:1030F000FDF7A7FF1790179820B1AFF2D86009F03D
:10310000B3F804E21B980BF0DDFE21F000419FEDC7
:10311000EC0B53EC102BCDE910019DED100B51EC95
:10312000100B0BF069FC02D21FED830A01E09DED4C
:103130001B0A8DED1B0A1A980BF0C4FE21F000410A
:103140009FEDDF0B53EC102BCDE910019DED100B23
:1031500051EC100B0BF050FC02D21FED8F0A01E076
:103160009DED1A0A8DED1A0A19980BF0ABFE21F0AD
:1031700000419FEDD30B53EC102BCDE910019DEDD9
:10318000100B51EC100B0BF037FC02D21FED9C0A18
:1031900001E09DED190A8DED190A18980BF092FEC9
:1031A00021F000419FEDC60B53EC102BCDE910012F
:1031B0009DED100B51EC100B0BF01EFC02D21FED1D
:1031C000A80A01E09DED180A8DED180ABE4ABF4914
:1031D000B348DDED181A9DED191ADDED1A0A9DEDC3
:1031E0001B0AFDF768FCAE4890ED000AF1EE040AF8
:1031F00030EE600A8DED110A13AB14AA15A916A8BA
:10320000B14C94ED001AB14CD4ED000A9DED110AB9
:10321000FDF7A5FF1290129800287CD113980BF0AF
:1032200051FECDE90C0114980BF04CFECDE90A01DA
:1032300015980BF047FECDE9080116980BF042FEF9
:10324000CDE90601DDE90C01CDE90401DDE90A0162
:10325000CDE90201DDE90801CDE900019DED060B94
:1032600053EC102B9AA008F0FFFF9DED160ADDED40
:103270001B0A30EE600A8DED090A09980BF022FE58
:1032800021F000411FEDCB0B53EC102BCDE90A01CF
:103290009DED0A0B51EC100B0BF0FCF9CDE90C0184
:1032A0009DED0C0B51EC100B0BF00EF911909DEDF8
:1032B000150ADDED1A0A30EE600A8DED090A09984B
:1032C0000BF000FE21F000411FEDDC0B53EC102B46
:1032D000CDE90A019DED0A0B51EC100B0BF0DAF968
:1032E000CDE90C019DED0C0B51EC100B0BF0ECF843
:1032F00010909DED140ADDED190A30EE600A8DED97
:10330000090A09980BF0DEFD21F000411FEDED0BDD
:1033100053EC102B00E0F5E0CDE90A019DED0A0B1E
:1033200051EC100B0BF0B6F9CDE90C019DED0C0B37
:1033300051EC100B0BF0C8F80F909DED130ADDED6A
:10334000180A30EE600A8DED090A09980BF0BAFDF3
:1033500021F000419FED680B53EC102BCDE90A01E1
:103360009DED0A0B51EC100B0BF094F9CDE90C011B
:103370009DED0C0B51EC100B0BF0A6F80E909DED93
:10338000110ADFED5F0AB4EEE00AF1EE10FA02DD99
:103390009FED5B0A01E09DED110A8DED110A9DED97
:1033A000100ADFED570AB4EEE00AF1EE10FA02DD82
:1033B0009FED530A01E09DED100A8DED100A9DED81
:1033C0000F0ADFED4F0AB4EEE00AF1EE10FA02DD6B
:1033D0009FED4B0A01E09DED0F0A8DED0F0A9DED6B
:1033E0000E0ADFED470AB4EEE00AF1EE10FA02DD54
:1033F0009FED430A01E09DED0E0A8DED0E0A0E9839
:103400000BF060FDCDE90C010F980BF05BFDCDE9F1
:103410000A0110980BF056FDCDE9080111980BF048
:1034200051FDCDE90601DDE90C01CDE90401DDE93D
:103430000A01CDE90201DDE90801CDE900019DEDB8
:10344000060B53EC102B0FA008F00EFFDDED0E3A2B
:103450009DED0F3ADDED102A9DED112ADDED131AD9
:103460009DED141ADDED150A9DED160AFDF785FD9B
:103470000B4890ED000AF7EE000A30EE600A80ED8E
:10348000000A43E0737065656420202020256620D3
:1034900020202566202020256620202025660A0081
:1034A0002C0000206E6F20696E7665727365206F48
:1034B0007574206F662072616E67650A00000000F7
:1034C0007B14AE47E17A843F3400002030000020B6
:1034D000616E676C652020202020203A2020256620
:1034E0002C20202025662C2020202025662020202E
:1034F0002025660A000000009A9999999999B93F88
:103500000000C842AFF2640008F0AEFE00BFEAE57A
:1035100018AB19AA1AA91BA8FDF793FD17901798C5
:1035200020B1AFF6003008F09FFEB9E11B980BF018
:10353000C9FC21F000411FED1E0B53EC102BCDE90F
:1035400010019DED100B51EC100B0BF055FA02D24F
:103550009FEDFD0A01E09DED1B0A8DED1B0A1A98F7
:103560000BF0B0FC21F000411FED2B0B53EC102BA6
:10357000CDE910019DED100B51EC100B0BF03CFA56
:1035800002D29FEDF10A01E09DED1A0A8DED1A0AB3
:1035900019980BF097FC21F000411FED370B53EC0D
:1035A000102BCDE910019DED100B51EC100B0BF021
:1035B00023FA02D29FEDE40A01E09DED190A8DED98
:1035C000190A18980BF07EFC21F000411FED440B06
:1035D00053EC102BCDE910019DED100B51EC100BAD
:1035E0000BF00AFA02D29FEDD80A01E09DED180A0D
:1035F0008DED180AD54890ED000AF3EE0E0A30EE74
:10360000200A8DED110A13AB14AA15A916A8D04CE7
:1036100094ED001ACF4CD4ED000A9DED110AFDF790
:103620009EFD1290129800287DD113980BF04AFC51
:10363000CDE90C0114980BF045FCCDE90A01159871
:103640000BF040FCCDE9080116980BF03BFCCDE9EE
:103650000601DDE90C01CDE90401DDE90A01CDE94E
:103660000201DDE90801CDE900019DED060B53ECF7
:10367000102BAFF2A41008F0F7FD9DED160ADDED5A
:103680001B0A30EE600A8DED090A09980BF01AFC4E
:1036900021F000411FED680B53EC102BCDE90A011E
:1036A0009DED0A0B51EC100B0AF0F4FFCDE90C0173
:1036B0009DED0C0B51EC100B0AF006FF11909DEDE7
:1036C000150ADDED1A0A30EE600A8DED090A099837
:1036D0000BF0F8FB21F000411FED790B53EC102BA0
:1036E000CDE90A019DED0A0B51EC100B0AF0D2FF57
:1036F000CDE90C019DED0C0B51EC100B0AF0E4FE32
:1037000010909DED140ADDED190A30EE600A8DED82
:10371000090A09980BF0D6FB21F000411FED8A0B36
:1037200053EC102B00E0B6E0CDE90A019DED0A0B49
:1037300051EC100B0AF0AEFFCDE90C019DED0C0B26
:1037400051EC100B0AF0C0FE0F909DED130ADDED59
:10375000180A30EE600A8DED090A09980BF0B2FBE9
:1037600021F000411FED9C0B53EC102BCDE90A0119
:103770009DED0A0B51EC100B0AF08CFFCDE90C010A
:103780009DED0C0B51EC100B0AF09EFE0E909DED82
:10379000110AF3EE0E0AB4EEE00AF1EE10FA02DDC1
:1037A000B3EE0E0A01E09DED110A8DED110A9DEDBB
:1037B000100AF3EE0E0AB4EEE00AF1EE10FA02DDA2
:1037C000B3EE0E0A01E09DED100A8DED100A9DED9D
:1037D0000F0AF3EE0E0AB4EEE00AF1EE10FA02DD83
:1037E000B3EE0E0A01E09DED0F0A8DED0F0A9DED7F
:1037F0000E0A5FEDBD0AB4EEE00AF1EE10FA02DD4A
:103800001FEDC10A01E09DED0E0A8DED0E0A0E9826
:103810000BF058FBCDE90C010F980BF053FBCDE9F1
:103820000A0110980BF04EFBCDE9080111980BF03E
:1038300049FBCDE90601DDE90C01CDE90401DDE933
:103840000A01CDE90201DDE90801CDE900019DEDA4
:10385000060B53EC102BAFF2D43008F005FDDDED74
:103860000E3A9DED0F3ADDED102A9DED112ADDEDAA
:10387000131A9DED141ADDED150A9DED160AFDF7DC
:103880007CFB324890ED000AF3EE0E0A30EE200A7F
:1038900080ED000A03E0AFF2F43008F0E5FC00BF71
:1038A00021E418AB19AA1AA91BA8FDF7CAFB1790A7
:1038B000179820B1AFF6946008F0D6FCC6E11B98CB
:1038C0000BF000FB21F000419FED230B53EC102B7C
:1038D000CDE910019DED100B51EC100B0BF08CF8A5
:1038E00002D29FED190A01E09DED1B0A8DED1B0A26
:1038F0001A980BF0E7FA21F000419FED170B53ECFB
:10390000102BCDE910019DED100B51EC100B0BF0BD
:1039100073F802D29FED0C0A01E09DED1A0A8DEDBD
:103920001A0A19980BF0CEFA21F000419FED0A0B0C
:1039300053EC102BCDE910019DED100B51EC100B49
:103940000BF05AF80FD20BE0000000002C00002012
:1039500034000020300000207B14AE47E17A843F21
:103960001FED070A01E09DED190A8DED190A18985F
:103970000BF0A8FA21F000411FED090B53EC102BBE
:10398000CDE910019DED100B51EC100B0BF034F84C
:1039900002D21FED130A01E09DED180A8DED180A01
:1039A000FE4890ED000AF3EE0E0A30EE600A8DED4F
:1039B000110A13AB14AA15A916A8F94C94ED001A14
:1039C000F84CD4ED000A9DED110AFDF7C8FB1290EA
:1039D000129800287DD113980BF074FACDE90C01F0
:1039E00014980BF06FFACDE90A0115980BF06AFAFA
:1039F000CDE9080116980BF065FACDE90601DDE97D
:103A00000C01CDE90401DDE90A01CDE90201DDE99E
:103A10000801CDE900019DED060B53EC102BAFF230
:103A2000505008F021FC9DED160ADDED1B0A30EE2A
:103A3000600A8DED090A09980BF044FA21F0004163
:103A40009FEDD90B53EC102BCDE90A019DED0A0B2C
:103A500051EC100B0AF01EFECDE90C019DED0C0B94
:103A600051EC100B0AF030FD11909DED150ADDEDC3
:103A70001A0A30EE600A8DED090A09980BF022FA55
:103A800021F000419FEDC80B53EC102BCDE90A014A
:103A90009DED0A0B51EC100B0AF0FCFDCDE90C0179
:103AA0009DED0C0B51EC100B0AF00EFD10909DEDEE
:103AB000140ADDED190A30EE600A8DED090A099845
:103AC0000BF000FA21F000419FEDB70B53EC102BE7
:103AD00000E0B6E0CDE90A019DED0A0B51EC100BB8
:103AE0000AF0D8FDCDE90C019DED0C0B51EC100B4B
:103AF0000AF0EAFC0F909DED130ADDED180A30EE96
:103B0000600A8DED090A09980BF0DCF921F00041FB
:103B10009FEDA50B53EC102BCDE90A019DED0A0B8F
:103B200051EC100B0AF0B6FDCDE90C019DED0C0B2C
:103B300051EC100B0AF0C8FC0E909DED110AF3EE4B
:103B40000E0AB4EEE00AF1EE10FA02DDB3EE0E0A50
:103B500001E09DED110A8DED110A9DED100AF3EEC5
:103B60000E0AB4EEE00AF1EE10FA02DDB3EE0E0A30
:103B700001E09DED100A8DED100A9DED0F0AF3EEA8
:103B80000E0AB4EEE00AF1EE10FA02DDB3EE0E0A10
:103B900001E09DED0F0A8DED0F0A9DED0E0ADFEDA0
:103BA000840AB4EEE00AF1EE10FA02DD9FED800A1D
:103BB00001E09DED0E0A8DED0E0A0E980BF082F9D4
:103BC000CDE90C010F980BF07DF9CDE90A011098B1
:103BD0000BF078F9CDE9080111980BF073F9CDE9F4
:103BE0000601DDE90C01CDE90401DDE90A01CDE9B9
:103BF0000201DDE90801CDE900019DED060B53EC62
:103C0000102BAFF2807008F02FFBDDED0E3A9DED2A
:103C10000F3ADDED102A9DED112ADDED131A9DED11
:103C2000141ADDED150A9DED160AFDF7A6F95B489D
:103C300090ED000AF3EE0E0A30EE600A80ED000A05
:103C400003E0AFF2A07008F00FFB00BF5FE418AB19
:103C500019AA1AA91BA8FDF7F4F91790179818B11B
:103C6000544808F001FBC8E11B980BF02BF921F038
:103C700000411FEDC70B53EC102BCDE910019DED5A
:103C8000100B51EC100B0AF0B7FE02D21FEDD20A56
:103C900001E09DED1B0A8DED1B0A1A980BF012F93D
:103CA00021F000411FEDD40B53EC102BCDE9100196
:103CB0009DED100B51EC100B0AF09EFE02D21FED91
:103CC000DE0A01E09DED1A0A8DED1A0A19980BF033
:103CD000F9F821F000411FEDE00B53EC102BCDE97A
:103CE00010019DED100B51EC100B0AF085FE02D275
:103CF0001FEDEB0A01E09DED190A8DED190A1898E8
:103D00000BF0E0F821F000411FEDED0B53EC102B10
:103D1000CDE910019DED100B51EC100B0AF06CFE7B
:103D200002D21FEDF70A01E09DED180A8DED180A89
:103D30001C4890ED000AF3EE0E0A30EE200A8DEDDD
:103D4000110A13AB14AA15A916A8154C94ED001A64
:103D5000DDED110A114C94ED000AFDF700FA129006
:103D6000129800287DD113980BF0ACF8CDE90C0126
:103D700014980BF0A7F8CDE90A0115980BF0A2F8FA
:103D8000CDE9080116980BF09DF8CDE90601DDE9B3
:103D90000C01CDE90401DDE90A010DE02C00002051
:103DA00034000020300000209A9999999999B93FE0
:103DB0000000C842242A0008CDE90201DDE908011B
:103DC000CDE900019DED060B53EC102BAFF6001072
:103DD00008F04AFA9DED160ADDED1B0A30EE600A86
:103DE0008DED090A09980BF06DF821F000411FEDE7
:103DF000120B53EC102BCDE90A019DED0A0B51EC8F
:103E0000100B0AF047FCCDE90C019DED0C0B51ECB9
:103E1000100B0AF059FB11909DED150ADDED1A0A01
:103E200030EE600A8DED090A09980BF04BF821F08D
:103E300000411FED230B53EC102BCDE90A019DED42
:103E40000A0B51EC100B0AF025FCCDE90C019DED9D
:103E50000C0B51EC100B0AF037FB10909DED140A7F
:103E600000E0C5E0DDED190A30EE600A8DED090ACB
:103E700009980BF027F821F000411FED350B53ECAA
:103E8000102BCDE90A019DED0A0B51EC100B0AF045
:103E900001FCCDE90C019DED0C0B51EC100B0AF06F
:103EA00013FB0F909DED130ADDED180A30EE600A4A
:103EB0008DED090A09980BF005F821F000411FED7E
:103EC000460B53EC102BCDE90A019DED0A0B51EC8A
:103ED000100B0AF0DFFBCDE90C019DED0C0B51EC52
:103EE000100B0AF0F1FA0E909DED110AF3EE0E0A96
:103EF000B4EEE00AF1EE10FA02DDB3EE0E0A01E0D4
:103F00009DED110A8DED110A9DED100AF3EE0E0ADA
:103F1000B4EEE00AF1EE10FA02DDB3EE0E0A01E0B3
:103F20009DED100A8DED100A9DED0F0AF3EE0E0ABD
:103F3000B4EEE00AF1EE10FA02DDB3EE0E0A01E093
:103F40009DED0F0A8DED0F0A9DED0E0A5FED680ADB
:103F5000B4EEE00AF1EE10FA02DD1FED6B0A01E0AB
:103F60009DED0E0A8DED0E0A0E980AF0ABFFCDE91D
:103F70000C010F980AF0A6FFCDE90A0110980AF08B
:103F8000A1FFCDE9080111980AF09CFFCDE90601D7
:103F9000DDE90C01CDE90401DDE90A01CDE9020109
:103FA000DDE90801CDE900019DED060B53EC102B76
:103FB000AFF6303008F058F9DDED0E3A9DED0F3ACE
:103FC000DDED102A9DED112ADDED131A9DED141A79
:103FD000DDED150A9DED160AFCF7CFFFFC4890EDCC
:103FE000000AF3EE0E0A30EE200A80ED000A03E02C
:103FF000AFF6503008F038F900BF51E418AB19AAF9
:104000001AA91BA8FDF71DF81790179818B1F148C9
:1040100008F02AF9B8E11B980AF054FF21F000419A
:104020009FEDED0B53EC102BCDE910019DED100B26
:1040300051EC100B0AF0E0FC02D29FEDE90A01E01E
:104040009DED1B0A8DED1B0A1A980AF03BFF21F02B
:1040500000419FEDE10B53EC102BCDE910019DEDDC
:10406000100B51EC100B0AF0C7FC02D29FEDDC0ADA
:1040700001E09DED1A0A8DED1A0A19980AF022FF47
:1040800021F000419FEDD40B53EC102BCDE9100132
:104090009DED100B51EC100B0AF0AEFC02D29FED1F
:1040A000D00A01E09DED190A8DED190A18980AF061
:1040B00009FF21F000419FEDC80B53EC102BCDE917
:1040C00010019DED100B51EC100B0AF095FC02D283
:1040D0009FEDC30A01E09DED180A8DED180ABC485A
:1040E00090ED000AF3EE0E0A30EE600A8DED110A33
:1040F00013AB14AA15A916A8BA4C94ED001ADDED5D
:10410000110AB94C94ED000AFDF729F812901298A3
:1041100000287DD113980AF0D5FECDE90C01149842
:104120000AF0D0FECDE90A0115980AF0CBFECDE9E0
:10413000080116980AF0C6FECDE90601DDE90C017A
:10414000CDE90401DDE90A01CDE90201DDE908015B
:10415000CDE900019DED060B53EC102BAFF690401E
:1041600008F082F89DED160ADDED1B0A30EE600ABC
:104170008DED090A09980AF0A5FE21F000411FED16
:10418000F60B53EC102BCDE90A019DED0A0B51EC17
:10419000100B0AF07FFACDE90C019DED0C0B51ECF0
:1041A000100B0AF091F911909DED150ADDED1A0A38
:1041B00030EE600A8DED090A09980AF083FE21F0BD
:1041C00000419FED8A0B53EC102BCDE90A019DEDC8
:1041D0000A0B51EC100B0AF05DFACDE90C019DEDD4
:1041E0000C0B51EC100B0AF06FF910909DED140AB6
:1041F000DDED190A30EE600A8DED090A09980AF022
:1042000061FE21F000419FED790B53EC102B00E093
:10421000B6E0CDE90A019DED0A0B51EC100B0AF056
:1042200039FACDE90C019DED0C0B51EC100B0AF0A5
:104230004BF90F909DED130ADDED180A30EE600A80
:104240008DED090A09980AF03DFE21F000419FED2D
:10425000670B53EC102BCDE90A019DED0A0B51ECD5
:10426000100B0AF017FACDE90C019DED0C0B51EC87
:10427000100B0AF029F90E909DED110AF3EE0E0ACB
:10428000B4EEE00AF1EE10FA02DDB3EE0E0A01E040
:104290009DED110A8DED110A9DED100AF3EE0E0A47
:1042A000B4EEE00AF1EE10FA02DDB3EE0E0A01E020
:1042B0009DED100A8DED100A9DED0F0AF3EE0E0A2A
:1042C000B4EEE00AF1EE10FA02DDB3EE0E0A01E000
:1042D0009DED0F0A8DED0F0A9DED0E0ADFED450AEB
:1042E000B4EEE00AF1EE10FA02DD9FED420A01E0C1
:1042F0009DED0E0A8DED0E0A0E980AF0E3FDCDE954
:104300000C010F980AF0DEFDCDE90A0110980AF0C1
:10431000D9FDCDE9080111980AF0D4FDCDE90601D7
:10432000DDE90C01CDE90401DDE90A01CDE9020175
:10433000DDE90801CDE900019DED060B53EC102BE2
:10434000AFF6C06007F090FFDDED0E3A9DED0F3A3D
:10435000DDED102A9DED112ADDED131A9DED141AE5
:10436000DDED150A9DED160AFCF707FE184890EDE5
:10437000000AF3EE0E0A30EE600A80ED000A02E059
:104380001DA007F071FF00BF60E418AB19AA1AA9BD
:104390001BA8FCF756FE1790179818B10D4807F0A8
:1043A00063FFDBE11B980AF08DFD21F000419FEDDA
:1043B0000A0B53EC102BCDE910019DED100B51ECC5
:1043C000100B0AF019FB25D29FED050A24E000002E
:1043D00030000020242A00087B14AE47E17A843F95
:1043E00000000000340000202C0000209A999999C8
:1043F0009999B93F0000C8426E6F20696E76657268
:104400007365206F7574206F662072616E6765201A
:104410000A0000009DED1B0A8DED1B0A1A980AF098
:1044200051FD21F000411FED140B53EC102BCDE991
:1044300010019DED100B51EC100B0AF0DDFA02D2C9
:104440001FED190A01E09DED1A0A8DED1A0A19985F
:104450000AF038FD21F000411FED210B53EC102B29
:10446000CDE910019DED100B51EC100B0AF0C4FAD0
:1044700002D21FED250A01E09DED190A8DED190A02
:1044800018980AF01FFD21F000411FED2D0B53EC91
:10449000102BCDE910019DED100B51EC100B0AF023
:1044A000ABFA02D21FED320A01E09DED180A8DED44
:1044B000180AFE4890ED000AF3EE0E0A30EE200ACC
:1044C0008DED110A13AB14AA15A916A89DED111AAA
:1044D000F74CD4ED000AF74C94ED000AFCF73FFED0
:1044E0001290129800287CD113980AF0EBFCCDE9C9
:1044F0000C0114980AF0E6FCCDE90A0115980AF0BF
:10450000E1FCCDE9080116980AF0DCFCCDE90601D2
:10451000DDE90C01CDE90401DDE90A01CDE9020183
:10452000DDE90801CDE900019DED060B53EC102BF0
:10453000E14807F099FE9DED160ADDED1B0A30EE0D
:10454000600A8DED090A09980AF0BCFC21F00041CF
:104550001FED5A0B53EC102BCDE90A019DED0A0B10
:1045600051EC100B0AF096F8CDE90C019DED0C0B07
:1045700051EC100B09F0A8FF11909DED150ADDED2F
:104580001A0A30EE600A8DED090A09980AF09AFCC1
:1045900021F000411FED6B0B53EC102BCDE90A010C
:1045A0009DED0A0B51EC100B0AF074F8CDE90C01EB
:1045B0009DED0C0B51EC100B09F086FF10909DED5A
:1045C000140ADDED190A30EE600A8DED090A09982A
:1045D0000AF078FC21F000411FED7C0B53EC102B0E
:1045E00000E0B6E0CDE90A019DED0A0B51EC100B9D
:1045F0000AF050F8CDE90C019DED0C0B51EC100BBD
:1046000009F062FF0F909DED130ADDED180A30EE00
:10461000600A8DED090A09980AF054FC21F0004166
:104620001FED8E0B53EC102BCDE90A019DED0A0B0B
:1046300051EC100B0AF02EF8CDE90C019DED0C0B9E
:1046400051EC100B09F040FF0E909DED110AF3EEB6
:104650000E0AB4EEE00AF1EE10FA02DDB3EE0E0A35
:1046600001E09DED110A8DED110A9DED100AF3EEAA
:104670000E0AB4EEE00AF1EE10FA02DDB3EE0E0A15
:1046800001E09DED100A8DED100A9DED0F0AF3EE8D
:104690000E0AB4EEE00AF1EE10FA02DDB3EE0E0AF5
:1046A00001E09DED0F0A8DED0F0A9DED0E0A5FED05
:1046B000AF0AB4EEE00AF1EE10FA02DD1FEDB30A24
:1046C00001E09DED0E0A8DED0E0A0E980AF0FAFB40
:1046D000CDE90C010F980AF0F5FBCDE90A0110981D
:1046E0000AF0F0FBCDE9080111980AF0EBFBCDE9E7
:1046F0000601DDE90C01CDE90401DDE90A01CDE99E
:104700000201DDE90801CDE900019DED060B53EC46
:10471000102B69484C3807F0A7FDDDED0E3A9DEDF2
:104720000F3ADDED102A9DED112ADDED131A9DEDF6
:10473000141ADDED150A9DED160AFCF71EFC5B4808
:1047400090ED000AF3EE0E0A30EE200A80ED000A2A
:1047500003E059482C3807F087FD00BF4DE418AB43
:1047600019AA1AA91BA8FCF76CFC1790179818B186
:10477000524807F079FDC6E11B980AF0A3FB21F02F
:1047800000411FEDEB0B53EC102BCDE910019DED1B
:10479000100B51EC100B0AF02FF902D21FEDF00AAA
:1047A00001E09DED1B0A8DED1B0A1A980AF08AFBA9
:1047B00021F000411FEDF80B53EC102BCDE9100157
:1047C0009DED100B51EC100B0AF016F902D21FED03
:1047D000FC0A01E09DED1A0A8DED1A0A19980AF0FB
:1047E00071FB21F000419FED360B53EC102BCDE90E
:1047F00010019DED100B51EC100B0AF0FDF802D2E8
:104800009FED310A01E09DED190A8DED190A189806
:104810000AF058FB21F000419FED290B53EC102BBF
:10482000CDE910019DED100B51EC100B0AF0E4F8EE
:1048300002D29FED250A01E09DED180A8DED180AC0
:104840001A4890ED000AF3EE0E0A30EE600A8DED84
:10485000110A13AB14AA15A916A89DED111A144C30
:10486000D4ED000A134C94ED000AFCF778FC12908A
:104870001298D0B913980AF025FBCDE90C011498D1
:104880000AF020FBCDE90A0115980AF01BFBCDE9DF
:10489000080116980AF016FBCDE90601DDE90C01C6
:1048A000CDE90401DDE90A0110E028E1340000202F
:1048B000300000202C000020D0340008242A0008FA
:1048C0007B14AE47E17A843F00000000CDE902018D
:1048D000DDE90801CDE900019DED060B53EC102B3D
:1048E000FB4807F0C1FC9DED160ADDED1B0A30EE1A
:1048F000600A8DED090A09980AF0E4FA21F00041F6
:104900009FEDF40B53EC102BCDE90A019DED0A0B42
:1049100051EC100B09F0BEFECDE90C019DED0C0B26
:1049200051EC100B09F0D0FD11909DED150ADDED55
:104930001A0A30EE600A8DED090A09980AF0C2FAE7
:1049400021F000419FEDE30B53EC102BCDE90A0160
:104950009DED0A0B51EC100B09F09CFECDE90C010A
:104960009DED0C0B51EC100B09F0AEFD10909DED80
:10497000140ADDED190A30EE600A8DED090A099876
:104980000AF0A0FA21F000419FEDD20B53EC102B5E
:10499000CDE90A019DED0A0B51EC100B09F07AFEEE
:1049A000CDE90C019DED0C0B51EC100B09F08CFDC9
:1049B0000F909DED130ADDED180A30EE600A8DEDC3
:1049C000090A09980AF07EFA21F000419FEDC10B17
:1049D00053EC102BCDE90A019DED0A0B51EC100BA5
:1049E00009F058FECDE90C019DED0C0B51EC100BBC
:1049F00009F06AFD0E909DED110AF3EE0E0AB4EE79
:104A0000E00AF1EE10FA02DDB3EE0E0A01E09DEDD0
:104A1000110A8DED110A9DED100AF3EE0E0AB4EEA7
:104A2000E00AF1EE10FA02DDB3EE0E0A01E09DEDB0
:104A3000100A8DED100A9DED0F0AF3EE0E0AB4EE8A
:104A4000E00AF1EE10FA02DDB3EE0E0A01E09DED90
:104A50000F0A8DED0F0A9DED0E0ADFEDA00AB4EEF0
:104A6000E00AF1EE10FA02DD9FED9C0A01E09DEDF7
:104A70000E0A8DED0E0A0E980AF024FACDE90C010B
:104A80000F980AF01FFACDE90A0110980AF01AFAF5
:104A9000CDE9080111980AF015FACDE90601DDE922
:104AA0000C01CDE90401DDE90A01CDE90201DDE9EE
:104AB0000801CDE900019DED060B53EC102B844855
:104AC0004C3807F0D1FBDDED0E3A9DED0F3ADDEDF0
:104AD000102A9DED112ADDED131A9DED141ADDED5E
:104AE000150A9DED160AFCF748FA7D4890ED000A7C
:104AF000F3EE0E0A30EE600A80ED000A02E079A0C3
:104B000007F0B2FB00BF1AE2DFED7D3A9FED7C3A81
:104B1000DFED7B2A9FED7A2A5FED951A1FED961A3D
:104B20005FED970A1FED980AFCF727FA07E218AB2A
:104B300019AA1AA91BA8FCF784FA1790179818B19C
:104B4000704807F091FBFAE11B980AF0BBF921F0DD
:104B500000411FEDA50B53EC102BCDE910019DED8D
:104B6000100B51EC100B09F047FF02D21FEDAA0AFF
:104B700001E09DED1B0A8DED1B0A1A980AF0A2F9BF
:104B800021F000411FEDB20B53EC102BCDE91001C9
:104B90009DED100B51EC100B09F02EFF02D21FED12
:104BA000B60A01E09DED1A0A8DED1A0A19980AF06D
:104BB00089F921F000411FEDBE0B53EC102BCDE91C
:104BC00010019DED100B51EC100B09F015FF02D2F6
:104BD0001FEDC30A01E09DED190A8DED190A189821
:104BE0000AF070F921F000411FEDCB0B53EC102BB4
:104BF000CDE910019DED100B51EC100B09F0FCFEFE
:104C000002D21FEDCF0A01E09DED180A8DED180AC2
:104C1000334890ED000AF3EE0E0A30EE600A8DED97
:104C2000110A394890ED000AF3EE040A30EE600AEA
:104C30008DED100A354890ED000ADFED350A30EEB3
:104C4000600A8DED0F0A13AB14AA15A916A89DEDE5
:104C5000111ADDED100A9DED0F0AFCF780FA129093
:104C60001298A0BB13980AF02DF9CDE90C01149805
:104C70000AF028F9CDE90A0115980AF023F9CDE9DF
:104C8000080116980AF01EF9CDE90601DDE90C01CC
:104C9000CDE90401DDE90A01CDE90201DDE9080100
:104CA000CDE900019DED060B53EC102B084807F0F1
:104CB000DBFA9DED160ADDED1B0A30EE600A8DED84
:104CC000090A09980AF0FEF821F0004122E031E1DA
:104CD000D03400089A9999999999B93F0000C8422F
:104CE000340000206E6F20696E7665727365202C2B
:104CF000206F7574206F662072616E67650A000010
:104D000000004842242A0008300000202C00002027
:104D1000000020421FED110B53EC102BCDE90A01CE
:104D20009DED0A0B51EC100B09F0B4FCCDE90C0120
:104D30009DED0C0B51EC100B09F0C6FB11909DED95
:104D4000150ADDED1A0A30EE600A8DED090A0998A0
:104D50000AF0B8F821F000411FED220B53EC102BA4
:104D6000CDE90A019DED0A0B51EC100B09F092FC04
:104D7000CDE90C019DED0C0B51EC100B09F0A4FBDF
:104D800010909DED140ADDED190A30EE600A8DEDEC
:104D9000090A09980AF096F821F000411FED330B3B
:104DA00053EC102BCDE90A019DED0A0B51EC100BD1
:104DB00009F070FCCDE90C019DED0C0B51EC100BD2
:104DC00009F082FB0F909DED130ADDED180A30EE1D
:104DD000600A8DED090A09980AF074F821F0004183
:104DE0001FED440B53EC102BCDE90A019DED0A0B8E
:104DF00051EC100B09F04EFCCDE90C019DED0C0BB4
:104E000051EC100B09F060FB0E909DED110AF3EED2
:104E10000E0AB4EEE00AF1EE10FA02DDB3EE0E0A6D
:104E200001E09DED110A8DED110A9DED100AF3EEE2
:104E30000E0AB4EEE00AF1EE10FA02DDB3EE0E0A4D
:104E400001E09DED100A8DED100A9DED0F0AF3EEC5
:104E50000E0AB4EEE00AF1EE10FA02DDB3EE0E0A2D
:104E600001E09DED0F0A8DED0F0A9DED0E0A5FED3D
:104E7000650AB4EEE00AF1EE10FA02DD1FED690AF0
:104E800001E09DED0E0A8DED0E0A0E980AF01AF85B
:104E9000CDE90C010F980AF015F8CDE90A01109838
:104EA0000AF010F8CDE9080111980AF00BF8CDE9E5
:104EB0000601DDE90C01CDE90401DDE90A01CDE9D6
:104EC0000201DDE90801CDE900019DED060B53EC7F
:104ED000102BFE4807F0C8F9DDED0E3A9DED0F3AB4
:104EE000DDED102A9DED112ADDED131A9DED141A4A
:104EF000DDED150A9DED160AFCF73FF8F44890ED3C
:104F0000000AF3EE0E0A30EE600A80ED000AF14866
:104F100090ED000A5FED820A30EE600A80ED000A33
:104F2000ED4890ED000AF3EE040A30EE600A80EDE1
:104F3000000A03E0AFF2542007F096F900BF02E246
:104F400018AB19AA1AA91BA8FCF77BF81790179899
:104F500018B1E24807F088F9F1E11B9809F0B2FFB7
:104F600021F000419FEDDE0B53EC102BCDE9100139
:104F70009DED100B51EC100B09F03EFD02D29FEDA0
:104F8000DA0A01E09DED1B0A8DED1B0A1A9809F063
:104F900099FF21F000419FEDD20B53EC102BCDE98E
:104FA00010019DED100B51EC100B09F025FD02D204
:104FB0009FEDCD0A01E09DED1A0A8DED1A0A1998B0
:104FC00009F080FF21F000419FEDC50B53EC102B41
:104FD000CDE910019DED100B51EC100B09F00CFD0B
:104FE00002D29FEDC10A01E09DED190A8DED190A6B
:104FF000189809F067FF21F000419FEDB90B53ECC1
:10500000102BCDE910019DED100B51EC100B09F0A8
:10501000F3FC02D29FEDB40A01E09DED180A8DED7C
:10502000180AAB4890ED000AF3EE0E0A30EE200AA3
:105030008DED110AA84890ED000AF3EE040A30EE57
:10504000200A8DED100AA34890ED000A5FEDD00A0A
:1050500030EE200A8DED0F0A13AB14AA15A916A87D
:105060009DED111ADDED100A9DED0F0AFCF777F8A2
:1050700012901298E8BB139809F024FFCDE90C01B7
:10508000149809F01FFFCDE90A01159809F01AFFDD
:10509000CDE90801169809F015FFCDE90601DDE913
:1050A0000C01CDE90401DDE90A01CDE90201DDE9E8
:1050B0000801CDE900019DED060B53EC102B834850
:1050C0004C3007F0D1F89DED160ADDED1B0A30EEED
:1050D000600A8DED090A099809F0F4FE21F00041FB
:1050E0009FED820B53EC102BCDE90A019DED0A0BCD
:1050F00000E01FE151EC100B09F0CCFACDE90C01F6
:105100009DED0C0B51EC100B09F0DEF911909DEDAB
:10511000150ADDED1A0A30EE600A8DED090A0998CC
:1051200009F0D0FE21F000419FED700B53EC102BE5
:10513000CDE90A019DED0A0B51EC100B09F0AAFA1A
:10514000CDE90C019DED0C0B51EC100B09F0BCF9F5
:1051500010909DED140ADDED190A30EE600A8DED18
:10516000090A099809F0AEFE21F000419FED5F0B9E
:1051700053EC102BCDE90A019DED0A0B51EC100BFD
:1051800009F088FACDE90C019DED0C0B51EC100BE8
:1051900009F09AF90F909DED130ADDED180A30EE33
:1051A000600A8DED090A099809F08CFE21F0004192
:1051B0009FED4E0B53EC102BCDE90A019DED0A0B30
:1051C00051EC100B09F066FACDE90C019DED0C0BCA
:1051D00051EC100B09F078F90E909DED110AF3EEE9
:1051E0000E0AB4EEE00AF1EE10FA02DDB3EE0E0A9A
:1051F00001E09DED110A8DED110A9DED100AF3EE0F
:105200000E0AB4EEE00AF1EE10FA02DDB3EE0E0A79
:1052100001E09DED100A8DED100A9DED0F0AF3EEF1
:105220000E0AB4EEE00AF1EE10FA02DDB3EE0E0A59
:1052300001E09DED0F0A8DED0F0A9DED0E0ADFEDE9
:105240002D0AB4EEE00AF1EE10FA02DD9FED290A14
:1052500001E09DED0E0A8DED0E0A0E9809F032FE6A
:10526000CDE90C010F9809F02DFECDE90A01109847
:1052700009F028FECDE90801119809F023FECDE9D7
:105280000601DDE90C01CDE90401DDE90A01CDE902
:105290000201DDE90801CDE900019DED060B53ECAB
:1052A000102B0A4806F0E0FFDDED0E3A9DED0F3AB7
:1052B000DDED102A9DED112ADDED131A9DED141A76
:1052C000DDED150A9DED160A16E000008434000895
:1052D000340000202C00002030000020242A000888
:1052E0007B14AE47E17A843F000000009A999999B7
:1052F0009999B93F0000C842FBF73FFE524890ED34
:10530000000AF3EE0E0A30EE200A80ED000A4F4844
:1053100090ED000ADFED4E0A30EE200A80ED000A23
:105320004C4890ED000AF3EE040A30EE200A80EDBE
:10533000000A03E0AFF2546006F096FF00BF02E0FF
:10534000FCF7C0FD00BF00BF1EB010BD2DED028BED
:1053500000F0F2F94FF4FA7004F0F8F801210803B4
:1053600005F095F8FCF7AEFD42F22731632004F01A
:10537000C9F9032242F22731312004F0B8FA04229D
:1053800042F22731312004F0B2FA0D2242F22731E5
:10539000312004F0ACFA0E2242F22731312004F021
:1053A000A6FA062242F22731092004F0A0FAFBF700
:1053B00029FBFAF761FF46E02748007830B126481C
:1053C0000078FCF79CFD00202349087023490968F8
:1053D000234A1268881A09F0FBFA21F000419FED78
:1053E000210B53EC102B09F041FC0DD21F48FCF7A8
:1053F00002FC48B91E480088401C1D490880084628
:1054000001881CA006F030FFFBF733FD214908702E
:1054100021480078A0B1214800780A2802DD6420E4
:10542000087010E01D480078401C1C49087000F00E
:105430004FFB00F059FB4FF47A7004F087F802E05C
:10544000002016490870B7E7340000202C00002027
:105450000000204230000020000000202400002036
:10546000200000200000000000002040A4020020D6
:1054700028000020726563656976652031206672B8
:10548000616D652C20696E64657820202025750A81
:1054900000000000020000200300002004000020A3
:1054A000704700BFFEE700BFFEE700BFFEE700BF9A
:1054B000FEE7704770477047704700000CB500204A
:1054C000019000908348006840F480308149086072
:1054D00000BF8048006800F4003000900198401C34
:1054E0000190009818B90198B0F5A04FF1D1794812
:1054F000006800F4003010B10120009001E00020AD
:1055000000900098012860D172484030006840F057
:1055100080507049403108606F48006840F4404056
:105520006D4908606B48083000686A4908310860B6
:105530000846006840F4004008600846006840F4EF
:10554000A05008606548091F0860081F006840F007
:105550008070091F086000BF5E48006800F000709E
:105560000028F9D05C48006840F480305A4908604F
:1055700000BF5948406800F480300028F9D05648F0
:10558000006840F400305449086000BF5248406849
:1055900000F400300028F9D040F20570504908604E
:1055A0004C480830006820F003004A490831086080
:1055B0000846006840F00200086000BF4548083017
:1055C000006800F00C000828F8D10CBD10B5454863
:1055D000006840F47000434908603E48006840F0AD
:1055E00001003C49086000203A4908310860394808
:1055F00000683D490840374908603C48091D08607B
:10560000081F006820F48020091F0860002031492D
:105610000C310860FFF752FF4FF0006031498039CC
:10562000086010BD70B50020002202230024022172
:10563000284D08352D6805F00C0020B1042806D04F
:10564000082834D107E02A4D2A4E356033E02A4D30
:10565000284E35602FE01F4D2D1D2D68C5F3805459
:105660001C4D2D1D2D6805F03F0154B1224DB5FB99
:10567000F1F5184E361D3668C6F3881605FB06F29E
:1056800009E01B4DB5FBF1F5124E361D3668C6F329
:10569000881605FB06F20F4D2D1D2D68C5F301453B
:1056A0006D1C6B00B2FBF3F5124E356003E0104D3C
:1056B000104E356000BF00BF064D08352D68C5F39C
:1056C00003150E4E705D0B4D2D68C540094E3560BB
:1056D00070BD00000038024000700040195A4007B9
:1056E000003C024088ED00E0FFFFF6FE1030002491
:1056F0000024F4003800002040787D013C000020A8
:105700001CB50121082004F0C2FE0C2000900120ED
:105710008DF8040000208DF8060003208DF80500A8
:1057200001208DF8070069460D4804F00FFC0C219C
:105730000B4804F089FC1CBD10B54FF4A06004F0C8
:105740000FFBFFF7DDFFB42003F09EFE4FF4E130C6
:1057500003F029FF00F006F800F0D9F810BD0000B2
:10576000000C024000B58BB00121480604F0D6FEC3
:105770000121084604F08BFE4FF4C050099002202E
:105780008DF8280000208DF82A0001208DF82B00CC
:1057900003208DF8290009A9C94804F0D7FB092284
:1057A0000B21C74804F05DFC09220C21C44804F019
:1057B00058FC00208DF81E008DF81F008DF8200089
:1057C00001208DF8210000208DF822008DF82300A3
:1057D0008DF81A008DF81B0001208DF81C008DF843
:1057E0001D000920ADF8180006A9B64805F0E5F936
:1057F00000208DF812008DF8130001208DF81400A0
:105800000020ADF80800ADF80A00ADF80C00ADF8C6
:105810000E00ADF8100001208DF8150002A805F06B
:1058200056FA14208DF8040000208DF805008DF83C
:10583000060001208DF8070001A804F096FA012265
:105840000221A04805F042FD0BB000BD00B585B0B7
:105850006A4600219B4805F01EFC684603F025FDC2
:1058600005B000BD2DE9F04186B0064688461746D2
:1058700000240196029600208DF80C008DF80D0092
:105880008DF80E7000BF06E018F804100DF10F003F
:105890000155601C84B2BC42F6DB40F6FF7400BFC9
:1058A00001A9884805F002FB0546042D04D1201EFD
:1058B000A4F101018CB2F3D1042D03D1022006B072
:1058C000BDE8F081002401E0601C84B229467D48D7
:1058D00005F084FB18B940F6FF708442F4DB40F613
:1058E000FF70844201DB0120E9E70020E7E710B503
:1058F00004460021734805F051FC08B9002010BD92
:10590000224600216F4805F0C6FBA07AF7E700B5F4
:105910008BB00121880604F001FE0121022004F071
:10592000B6FD6020099002208DF8280000208DF837
:105930002A0001208DF82B0003208DF8290009A9E9
:10594000614804F003FB092205215F4804F089FB4C
:10595000092206215C4804F084FB00208DF81E001B
:105960008DF81F008DF8200001208DF82100002007
:105970008DF822008DF823008DF81A008DF81B0099
:1059800001208DF81C008DF81D000920ADF81800CD
:1059900006A94E4805F011F90E2005F029FA0E204F
:1059A0008DF8120000208DF8130001208DF81400EE
:1059B0000020ADF80800ADF80A00ADF80C00ADF815
:1059C0000E000120ADF810008DF8150002A805F0BA
:1059D0007EF941208DF8040000208DF805008DF837
:1059E000060001208DF8070001A804F0BEF901228D
:1059F0001021364805F06AFC0BB000BD00B585B03B
:105A00006A460121314805F046FB684603F04DFC2B
:105A100005B000BD2DE9F04186B006468846174620
:105A200000240196029600208DF80C008DF80D00E0
:105A30008DF80E7000BF06E018F804100DF10F008D
:105A40000155601C84B2BC42F6DB40F6FF7400BF17
:105A500001A91E4805F02AFA0546042D04D1201E8E
:105A6000A4F101018CB2F3D1042D03D1022006B0C0
:105A7000BDE8F081002401E0601C84B2294613488F
:105A800005F0ACFA18B940F6FF708442F4DB40F63A
:105A9000FF70844201DB0120E9E70020E7E710B551
:105AA00004460121094805F079FB08B9002010BD22
:105AB00022460121054805F0EEFAA07AF7E700003A
:105AC0000000024000640040000402400068004002
:105AD00010B501209A490870022048709948486022
