:020000040800F2
:10000000D00C0020614B0008490800084B0800088C
:100010004F080008530800085708000800000000B7
:100020000000000000000000000000005B08000865
:100030005D080008000000005F0800086108000873
:100040007B4B00087B4B00087B4B00087B4B000878
:100050007B4B00087B4B00087B4B00087B4B000868
:100060007B4B00087B4B00087B4B00087B4B000858
:100070007B4B00087B4B00087B4B00087B4B000848
:100080007B4B00087B4B00087B4B00087B4B000838
:10009000F50B00087B4B00087B4B00087B4B0008EE
:1000A0007B4B00087B4B00087B4B00087B4B000818
:1000B000FF4A00087B4B00087B4B00087B4B000885
:1000C0007B4B00087B4B00087B4B00087B4B0008F8
:1000D0007B4B0008FB4900087B4B00087B4B00086A
:1000E0007B4B00087B4B00087B4B00087B4B0008D8
:1000F0007B4B00087B4B00087B4B00087B4B0008C8
:100100007B4B00087B4B00087B4B00087B4B0008B7
:100110007B4B00087B4B00087B4B00087B4B0008A7
:100120007B4B00087B4B00087B4B00087B4B000897
:100130007B4B00087B4B00087B4B00087B4B000887
:100140007B4B0008A50D00087B4B00087B4B00088B
:100150007B4B00087B4B00087B4B00087B4B000867
:100160007B4B00087B4B00087B4B00087B4B000857
:100170007B4B00087B4B00087B4B00087B4B000847
:100180007B4B00087B4B00087B4B00087B4B000837
:100190007B4B00087B4B00087B4B00087B4B000827
:1001A0007B4B00087B4B00087B4B000800F002F8FB
:1001B00000F041F80AA090E8000C82448344AAF1C0
:1001C0000107DA4501D100F036F8AFF2090EBAE8BE
:1001D0000F0013F0010F18BFFB1A43F0010318477B
:1001E0002478000044780000103A24BF78C878C111
:1001F000FAD8520724BF30C830C144BF04680C602D
:10020000704700000023002400250026103A28BF74
:1002100078C1FBD8520728BF30C148BF0B60704778
:10022000642906F05B87002070471FB507F0AFFB1D
:100230001FBD10B510BD07F071F81146FFF7F5FFAF
:1002400000F085F907F08FF803B4FFF7F2FF03BC65
:1002500004F070FB70B52DED048B0446B0EE408ABF
:100260000D460026CA48007818B10120BDEC048B69
:1002700070BD0CB1042C01D90220F7E718EE100A6A
:1002800007F014FB41EC190B9FEDC20B53EC102B44
:1002900007F0ECF901D20320E8E71DB1012D01D0F0
:1002A0000420E3E7E0B200F031FF0646C6B15DB9D5
:1002B00096ED480A30EE080AF0EE408AE0B2B0EE61
:1002C000680A02F084FA0DE096ED480A30EE480A1A
:1002D000F0EE408AE0B2B0EE680A02F078FA01E08F
:1002E0000520C3E70020C1E710B50024AB48007823
:1002F00010B30020A949087001240BE0002120461A
:1003000000F01DFF00B903E004F10A00C0B210BD07
:10031000601CC4B2052CF1DB01240BE00021204657
:1003200002F07BFA00B903E004F11400C0B2EEE77A
:10033000601CC4B2052CF1DB0020E8E710B598A0E2
:1003400006F08CFE9FA006F089FEA7A006F086FEB0
:10035000AEA006F083FEB7A006F080FEBEA006F0B9
:100360007DFEC5A006F07AFECBA006F077FED1A0F8
:1003700006F074FE10BD70B52DED068B0446172CEB
:1003800079D2DFE804F0DD0C15222B343DDDDDDD14
:100390004652586079A5ACB3BAC1C8CFD600CCA03C
:1003A00006F05CFE00F068FDCEA006F057FECAE045
:1003B000D0A006F053FE00F06BFD4FF4FA7004F08D
:1003C00099FAD0A006F04AFEBDE0D3A006F046FEA2
:1003D00000F07DFDD6A006F041FEB4E0DAA006F004
:1003E0003DFE00F0D3FDDFA006F038FEABE0E3A059
:1003F00006F034FE00F017FEE7A006F02FFEA2E0A4
:10040000EBA006F02BFE02F037F9EEA006F026FE78
:1004100099E0F1A006F022FE00F02EFD00F038FD7C
:100420004FF47A7004F066FA8DE0EEA006F016FE46
:1004300002F022F987E0EEA006F010FE0121084646
:1004400001F0A9FE7FE0EFA006F008FE01220321E3
:10045000104602F022F901220321022002F01DF9C8
:1004600001220321084602F018F901220321042089
:1004700002F013F967E063E00025EBA006F0EEFD63
:100480000121084602F0C9F90A2004F033FA0120DC
:1004900000F03CFE0546D5B195ED480A10EE101A65
:1004A000084607F003FA41EC1A0B9FED3A0B53ECA8
:1004B000102B06F097FF41EC190B06F061FF08EED8
:1004C000100AB0EE480A012002F081F900BF3AE0BC
:1004D00000219FEDDB0A0420FFF7BCFE33E0012181
:1004E0009FEDD70A0420FFF7B5FE2CE000219FED19
:1004F000D40A0320FFF7AEFE25E001219FEDD00ACC
:100500000320FFF7A7FE1EE000219FEDCD0A022089
:10051000FFF7A0FE17E001219FEDC90A0220FFF7B7
:1005200099FE10E000219FEDC60A0120FFF792FE20
:1005300009E001219FEDC20A0846FFF78BFE02E0A9
:10054000FFF7FCFE00BF00BFBDEC068B70BD00F0E6
:10055000C7FA4FF4FA7004F0CDF9FFF7EFFE42F25C
:100560002731632004F086FA11E0B648007838B1EC
:10057000B4480078FFF7FFFE0020B249087002E09F
:100580000A2004F0B7F9FFF7AFFE01490870ECE765
:10059000020000209A9999999999B93F3C0000204E
:1005A0000D0ABBB6D3ADCAB9D3C320494E4E464F90
:1005B000532053434120C7FDB6AFB2E2CAD4A3A132
:1005C0000D0A0000CFEACFB8CDA8D0C5D0ADD2E992
:1005D000B2CEBCFB20494E4E464F532057494B49A3
:1005E00020A3A10D0A000000B7A2CBCD203120C26C
:1005F000D6D1AFD7DCCFDFC9CFB5C4D6B4D0D0C643
:10060000F7494420A3A10D0A00000000B7A2CBCDFA
:10061000203220CAB9D3C3C4ACC8CF4944B3F5CA49
:10062000BCBBAF534341BFD8D6C6C6F720A3A10D6C
:100630000A000000B7A2CBCD203320BDF8C8EBCE16
:10064000BBD6C3B9E9C1E3B2E2CAD4B3CCD0F2207D
:10065000A3A10D0A00000000B7A2CBCD203420BD1D
:10066000F8C8EBD5FDB7B4D7AAB2E2CAD4B3CCD0A0
:10067000F220A3A10D0A0000B7A2CBCD203520BDEA
:10068000F8C8EBB8DFB5CDCBD9B2E2CAD4B3CCD081
:10069000F220A3A10D0A0000B7A2CBCD203620BDC9
:1006A000ABD6B4D0D0C6F7B9D8BBFA20A3A10D0AF7
:1006B00000000000B7A2CBCD203720CFD4CABEB0F7
:1006C000EFD6FAD0C5CFA220A3A10D0A00000000EA
:1006D0000D0AD6B4D0D0C2D6D1AFB3CCD0F2A3A13C
:1006E0000D0A0000C2D6D1AFBDE1CAF8A3A10D0A20
:1006F000000000000D0A534341B3F5CABCBBAFA3D1
:10070000A10D0A00534341B3F5CABCBBAFBDE1CA5A
:10071000F8A3A10D0A0000000D0ABDF8C8EBCEBB7E
:10072000D6C3B9E9C1E3B2E2CAD4A3A10D0A00005D
:10073000CEBBD6C3B9E9C1E3B2E2CAD4BDE1CAF8BF
:10074000A3A10D0A000000000D0ABDF8C8EBD5FDFD
:10075000B7B4D7AAC7D0BBBBB2E2CAD4A3A10D0A13
:1007600000000000D5FDB7B4D7AAC7D0BBBBB2E22A
:10077000CAD4BDE1CAF8A3A10D0A00000D0ABDF854
:10078000C8EBB8DFB5CDCBD9C7D0BBBBB2E2CAD4BA
:10079000A3A10D0A00000000B8DFB5CDCBD9C7D0AA
:1007A000BBBBB2E2CAD4BDE1CAF8A3A10D0A0000E6
:1007B0000D0AD6B4D0D0C6F7B9D8BBFAA3A10D0A9A
:1007C00000000000D6B4D0D0C6F7B9D8BBFABDE15E
:1007D000CAF8A3A10D0A0000737461727420616CE1
:1007E0006C200A00636C6F736520616C6C200A00DA
:1007F000726561642031206D6F746F72206D6F645B
:1008000065200A0077726974652031206D6F746FFE
:100810007220746F20706F736974696F6E206D6FD2
:100820006465200A00000000206D6F746F72203133
:1008300020726F7461746520302E312052200A00BE
:100840000AD7A33B00000020704700BFFEE700BFAF
:10085000FEE700BFFEE700BFFEE770477047704746
:10086000704700000CB5002001900090834800689C
:1008700040F480308149086000BF8048006800F47F
:10088000003000900198401C0190009818B9019820
:10089000B0F5A04FF1D17948006800F4003010B1F4
:1008A0000120009001E0002000900098012860D114
:1008B00072484030006840F0805070494031086014
:1008C0006F48006840F440406D4908606B4808304C
:1008D00000686A49083108600846006840F4004032
:1008E00008600846006840F4A05008606548091F89
:1008F0000860081F006840F08070091F086000BF92
:100900005E48006800F000700028F9D05C4800687C
:1009100040F480305A49086000BF5948406800F4EC
:1009200080300028F9D05648006840F4003054491F
:10093000086000BF5248406800F400300028F9D039
:1009400040F20570504908604C480830006820F0BB
:1009500003004A49083108600846006840F0020078
:10096000086000BF45480830006800F00C00082807
:10097000F8D10CBD10B54548006840F470004349FB
:1009800008603E48006840F001003C4908600020D3
:100990003A4908310860394800683D4908403749FC
:1009A00008603C48091D0860081F006820F480208A
:1009B000091F0860002031490C310860FFF752FF21
:1009C0004FF0006031498039086010BD70B50020DB
:1009D0000022022300240221284D08352D6805F04D
:1009E0000C0020B1042806D0082834D107E02A4D95
:1009F0002A4E356033E02A4D284E35602FE01F4DDA
:100A00002D1D2D68C5F380541C4D2D1D2D6805F03E
:100A10003F0154B1224DB5FBF1F5184E361D366835
:100A2000C6F3881605FB06F209E01B4DB5FBF1F590
:100A3000124E361D3668C6F3881605FB06F20F4DBA
:100A40002D1D2D68C5F301456D1C6B00B2FBF3F540
:100A5000124E356003E0104D104E356000BF00BFF0
:100A6000064D08352D68C5F303150E4E705D0B4D10
:100A70002D68C540094E356070BD00000038024049
:100A800000700040195A4007003C024088ED00E029
:100A9000FFFFF6FE103000240024F40004000020C4
:100AA00040787D01080000201CB50121082004F0D9
:100AB0000EFC0C20009001208DF8040000208DF821
:100AC000060003208DF8050001208DF80700694617
:100AD0000D4804F05BF90C210B4804F0D5F91CBD5E
:100AE00010B54FF4A06004F05BF8FFF7DDFFB42011
:100AF00003F09EFE4FF4E13003F029FF00F006F80A
:100B000000F0D9F810BD0000000C024000B58BB019
:100B10000121480604F022FC0121084604F0D7FB1D
:100B20004FF4C050099002208DF8280000208DF865
:100B30002A0001208DF82B0003208DF8290009A937
:100B4000C94804F023F909220B21C74804F0A9F988
:100B500009220C21C44804F0A4F900208DF81E00DD
:100B60008DF81F008DF8200001208DF82100002055
:100B70008DF822008DF823008DF81A008DF81B00E7
:100B800001208DF81C008DF81D000920ADF818001B
:100B900006A9B64804F031FF00208DF812008DF848
:100BA000130001208DF814000020ADF80800ADF806
:100BB0000A00ADF80C00ADF80E00ADF810000120F1
:100BC0008DF8150002A804F0A2FF14208DF804008F
:100BD00000208DF805008DF8060001208DF8070033
:100BE00001A803F0E2FF01220221A04805F08EFADD
:100BF0000BB000BD00B585B06A4600219B4805F0EA
:100C00006AF9684603F025FD05B000BD2DE9F04105
:100C100086B00646884617460024019602960020B4
:100C20008DF80C008DF80D008DF80E7000BF06E0F9
:100C300018F804100DF10F000155601C84B2BC427D
:100C4000F6DB40F6FF7400BF01A9884805F04EF8B6
:100C50000546042D04D1201EA4F101018CB2F3D16C
:100C6000042D03D1022006B0BDE8F081002401E08C
:100C7000601C84B229467D4805F0D0F818B940F6CA
:100C8000FF708442F4DB40F6FF70844201DB0120F8
:100C9000E9E70020E7E710B504460021734805F0B6
:100CA0009DF908B9002010BD224600216F4805F0CB
:100CB00012F9A07AF7E700B58BB00121880604F09D
:100CC0004DFB0121022004F002FB6020099002206C
:100CD0008DF8280000208DF82A0001208DF82B00C7
:100CE00003208DF8290009A9614804F04FF8092272
:100CF00005215F4804F0D5F8092206215C4804F07C
:100D0000D0F800208DF81E008DF81F008DF820000F
:100D100001208DF8210000208DF822008DF823009D
:100D20008DF81A008DF81B0001208DF81C008DF83D
:100D30001D000920ADF8180006A94E4804F05DFE1C
:100D40000E2004F075FF0E208DF8120000208DF8A3
:100D5000130001208DF814000020ADF80800ADF854
:100D60000A00ADF80C00ADF80E000120ADF810003F
:100D70008DF8150002A804F0CAFE41208DF8040089
:100D800000208DF805008DF8060001208DF8070081
:100D900001A803F00AFF01221021364805F0B6F938
:100DA0000BB000BD00B585B06A460121314805F0A1
:100DB00092F8684603F04DFC05B000BD2DE9F04106
:100DC00086B0064688461746002401960296002003
:100DD0008DF80C008DF80D008DF80E7000BF06E048
:100DE00018F804100DF10F000155601C84B2BC42CC
:100DF000F6DB40F6FF7400BF01A91E4804F076FF41
:100E00000546042D04D1201EA4F101018CB2F3D1BA
:100E1000042D03D1022006B0BDE8F081002401E0DA
:100E2000601C84B22946134804F0F8FF18B940F654
:100E3000FF708442F4DB40F6FF70844201DB012046
:100E4000E9E70020E7E710B504460121094805F06D
:100E5000C5F808B9002010BD22460121054805F05B
:100E60003AF8A07AF7E70000000002400064004072
:100E7000000402400068004010B501209A49087043
:100E80000220487099484860084600F087F910BD74
:100E900010B50120944908700220487093484860BA
:100EA000012000F0ACF99049022000F0A8F98E4929
:100EB000032000F0A4F98C49042000F0A0F90120DF
:100EC00000F024F98A49086001F08EFB10BD10B5CE
:100ED0008748006890F8DA0000B910BD85480068BE
:100EE00090F8DA0000B9F8E701220621104601F077
:100EF000D4FB01220621022001F0CFFB9FED7E0AE8
:100F0000012001F064FC00BF0021012001F085FCFC
:100F1000642003F0EFFC7648006890ED480ADFEDAE
:100F2000770AB4EEE00AF1EE10FAEDDC70480068E2
:100F300090ED480ADFED720AB4EEE00AF1EE10FA25
:100F4000E2D39FED6D0A022001F041FC00BF0021B9
:100F5000022001F062FC642003F0CCFC65480068CC
:100F600090ED480ADFED650AB4EEE00AF1EE10FA02
:100F7000EDDC6048006890ED480ADFED610AB4EEF0
:100F8000E00AF1EE10FAE2D300BFA6E710B5584828
:100F9000006890F8DA0000B910BD5648006890F873
:100FA000DA0000B9F8E7FFF792FFB0EE000A01207F
:100FB00001F00DFCB0EE000A4E48006801F01EFC86
:100FC0004FF47A7003F096FC9FED4B0A012001F07C
:100FD000FEFB9FED490A4748006801F00FFC4FF403
:100FE0007A7003F087FCB0EE000A012001F0EFFBFD
:100FF000B0EE000A3F48006801F000FC4FF47A7040
:1010000003F078FC9FED3C0A012001F0E0FB9FED2E
:101010003A0A3848006801F0F1FB4FF47A7003F0A7
:1010200069FC00BFB8E710B53148006890F8DA00F5
:1010300000B910BD2F48006890F8DA0000B9F8E751
:1010400001220721104601F028FB0122072102207E
:1010500001F023FB9FED2B0A012001F0F8FF9FED2B
:10106000290A2448006802F009F84FF47A7003F066
:1010700041FC9FED250A012001F0E9FF9FED220AC6
:101080001C48006801F0FAFF4FF47A7003F032FC5C
:101090009FED1C0A012001F0DAFF9FED1A0A1548A6
:1010A000006801F0EBFF4FF47A7003F023FC9FED32
:1010B000160A012001F0CBFF9FED130A0D480068CE
:1010C00001F0DCFF4FF47A7003F014FC9FED0A0A84
:1010D000012001F0BCFF9FED080A0648006801F0FE
:1010E000CDFF00BFA5E70000200000200D0C000888
:1010F000180000201C00002000000000CDCCCC3DDA
:10110000CDCCCCBD00009643000016440246002121
:1011100011E001EB011000EB4110FB4B13F8300024
:10112000904206D101EB011000EB411003EBC0002F
:101130007047481CC1B20429EBDB0020F8E72DE919
:10114000F04180460E4600274046FFF7DFFF044689
:1011500014B90420BDE8F0810020A07100212046D0
:1011600002F0E4FD05460DB12846F3E726B9C82094
:1011700003F078FB2846EDE700BFA079012805D0F1
:1011800038467F1C4FF6FF718842F6D34FF6FF704A
:10119000874201D30320DDE72846DBE770B5E2B0E4
:1011A000054600264FF4C472D749684605F0D2FFC1
:1011B000D5488560012410E0D3490C70E0B20121CC
:1011C000FFF7BDFF38B9701CC6B22B78224640210C
:1011D000CEA005F043FF601C84B2FF2CECDDDB48A1
:1011E00006704FF4C4726946C74805F0B3FF2A7809
:1011F00033464821D64805F031FF62B070BDD54A6C
:101200001268042A00D37047D24A126802EB021314
:1012100003EB4212BC4B03F83200CE4A126802EBD9
:10122000021303EB4212B84B03EBC2029160C94AAE
:101230001268521CC74B1A6000BFE4E72DE9F04169
:10124000064600276EBB002428E004EB041000EBE8
:101250004410AD4911F8308004EB041000EB441049
:1012600001EBC000876804EB041101EB4411A64AAE
:1012700002EBC1004FF4C47105F09EFF04EB0410B3
:1012800000EB4410A04901F8308004EB041000EB9F
:10129000441001EBC0008760601CC4B2042CD4DB96
:1012A0000FE03046FFF732FF05460DB9BDE8F0818B
:1012B000AF684FF4C471284605F07EFF2E70AF6012
:1012C00000BF00BFF2E72DE9F04180460E4600273F
:1012D00000244046FFF71AFF044614B90420BDE875
:1012E000F081002161762B21204602F01FFD05468A
:1012F0000DB12846F3E726B9C82003F0B3FA284613
:10130000EDE700BF607E012805D038467F1C4FF610
:10131000FF718842F6D34FF6FF70874201D3032056
:10132000DDE72846DBE770B5064600243046FFF7C8
:10133000EDFE04460CB9042070BDE5790020E07193
:101340002846F9E72DE9F04180460E4600270024A3
:101350004046FFF7DBFE044614B90420BDE8F081E7
:10136000002184F83C106421204602F0DFFC054691
:101370000DB12846F2E726B9C82003F073FA2846D3
:10138000ECE700BF94F83C00012805D038467F1CEC
:101390004FF6FF718842F5D34FF6FF70874201D3B5
:1013A0000320DBE72846D9E72DE9F04180460E46C9
:1013B000002700244046FFF7A9FE044614B9042084
:1013C000BDE8F081002184F83B106221204602F044
:1013D000ADFC05460DB12846F2E726B9C82003F05A
:1013E00041FA2846ECE700BF94F83B00012805D0FD
:1013F00038467F1C4FF6FF718842F5D34FF6FF70D9
:10140000874201D30320DBE72846D9E72DE9F041E5
:1014100080460E46002700244046FFF777FE04462C
:1014200014B90420BDE8F081002184F83E106E213B
:10143000204602F07BFC05460DB12846F2E726B9AE
:10144000C82003F00FFA2846ECE700BF94F83E00EE
:10145000012805D038467F1C4FF6FF718842F5D32E
:101460004FF6FF70874201D30320DBE72846D9E718
:101470002DE9F04180460E46002700244046FFF744
:1014800045FE044614B90420BDE8F081002184F82B
:101490003B106C21204602F049FC05460DB1284660
:1014A000F2E726B9C82003F0DDF92846ECE700BFD3
:1014B00094F83B00012805D038467F1C4FF6FF7199
:1014C0008842F5D34FF6FF70874201D30320DBE754
:1014D0002846D9E72DE9F04180460E460027002432
:1014E0004046FFF713FE044614B90420BDE8F0811E
:1014F000002184F842106021204602F017FC0546C6
:101500000DB12846F2E727E05000002046494C453F
:101510003A202E2E5C5343415C5343415F41504976
:101520002E632C204C494E453A2025643A20466FC4
:10153000756E6420494420256420696E2063616EC5
:10154000506F72742025640D0A0000000100002015
:10155000A47900083000002026B9C82003F082F9E1
:101560002846C3E700BF94F84200012805D038465A
:101570007F1C4FF6FF718842F5D34FF6FF7087420C
:1015800001D30320B2E72846B0E72DE9F0418046B9
:101590000E46002700244046FFF7B8FD044614B964
:1015A0000420BDE8F081002184F841105F2120462D
:1015B00002F0BCFB05460DB12846F2E726B9C8206B
:1015C00003F050F92846ECE700BF94F841000128E9
:1015D00005D038467F1C4FF6FF718842F5D34FF691
:1015E000FF70874201D30320DBE72846D9E72DE9C6
:1015F000F04180460E46002700244046FFF786FD56
:10160000044614B90420BDE8F081002184F8CF100D
:101610007F21204602F08AFB05460DB12846F2E7FD
:1016200026B9C82003F01EF92846ECE700BF94F85D
:10163000CF00012805D038467F1C4FF6FF71884245
:10164000F5D34FF6FF70874201D30320DBE728462E
:10165000D9E72DE9F04180460E4600270024404698
:10166000FFF754FD044614B90420BDE8F0810021C1
:1016700084F83F104521204602F058FB05460DB185
:101680002846F2E726B9C82003F0ECF82846ECE734
:1016900000BF94F83F00012805D038467F1C4FF664
:1016A000FF718842F5D34FF6FF70874201D30320C4
:1016B000DBE72846D9E72DE9F04180460E460027B2
:1016C00000244046FFF722FD044614B90420BDE87B
:1016D000F081002184F8C9105921204602F026FB30
:1016E00005460DB12846F2E726B9C82003F0BAF83E
:1016F0002846ECE700BF94F8C900012805D0384619
:101700007F1C4FF6FF718842F5D34FF6FF7087427A
:1017100001D30320DBE72846D9E72DE9F0418046D5
:101720000E46002700244046FFF7F0FC044614B99B
:101730000420BDE8F081002184F838107321204690
:1017400002F0F4FA05460DB12846F2E726B9C820A2
:1017500003F088F82846ECE700BF94F83800012829
:1017600005D038467F1C4FF6FF718842F5D34FF6FF
:10177000FF70874201D30320DBE72846D9E72DE934
:10178000F04180460E46002700244046FFF7BEFC8D
:10179000044614B90420BDE8F0810021617571216F
:1017A000204602F0C3FA05460DB12846F3E726B9F4
:1017B000C82003F057F82846EDE700BF607D0128F8
:1017C00005D038467F1C4FF6FF718842F6D34FF69E
:1017D000FF70874201D30320DDE72846DBE72DE9D0
:1017E000F04180460E46002700244046FFF78EFC5D
:1017F000044614B90420BDE8F081002184F8B81033
:101800001621204602F092FA05460DB12846F2E76D
:1018100026B9C82003F026F82846ECE700BF94F864
:10182000B800012805D038467F1C4FF6FF7188426A
:10183000F5D34FF6FF70874201D30320DBE728463C
:10184000D9E72DE9F04180460E460027002400210B
:1018500084F8B7104046FFF759FC044614B9042039
:10186000BDE8F0811521204602F060FA05460DB171
:101870002846F5E726B9C82002F0F4FF2846EFE72E
:1018800000BF94F8B700012805D038467F1C4FF6FA
:10189000FF718842F5D34FF6FF70874201D30320D2
:1018A000DEE72846DCE72DE9F04180460E460027BA
:1018B00000244046FFF72AFC044614B90420BDE882
:1018C000F081002184F8C0102221204602F02EFA77
:1018D00005460DB12846F2E726B9C82002F0C2FF3E
:1018E0002846ECE700BF94F8C000012805D0384630
:1018F0007F1C4FF6FF718842F5D34FF6FF70874289
:1019000001D30320DBE72846D9E72DE9F0418046E3
:101910000E46002700244046FFF7F8FB044614B9A2
:101920000420BDE8F081002184F8C2102421204663
:1019300002F0FCF905460DB12846F2E726B9C820A9
:1019400002F090FF2846ECE700BF94F8C20001289F
:1019500005D038467F1C4FF6FF718842F5D34FF60D
:10196000FF70874201D30320DBE72846D9E72DE942
:10197000F04180460E46002700244046FFF7C6FB94
:10198000044614B90420BDE8F081002184F8C11098
:101990002321204602F0CAF905460DB12846F2E798
:1019A00026B9C82002F05EFF2846ECE700BF94F895
:1019B000C100012805D038467F1C4FF6FF718842D0
:1019C000F5D34FF6FF70874201D30320DBE72846AB
:1019D000D9E72DE9F04180460E4600270024404615
:1019E000FFF794FB044614B90420BDE8F081002100
:1019F00084F8CA105B21204602F098F905460DB123
:101A00002846F2E726B9C82002F02CFF2846ECE76A
:101A100000BF94F8CA00012805D038467F1C4FF655
:101A2000FF718842F5D34FF6FF70874201D3032040
:101A3000DBE72846D9E72DE9F04180460E4600272E
:101A400000244046FFF762FB044614B90420BDE8B9
:101A5000F081002184F839107721204602F066F9E0
:101A600005460DB12846F2E726B9C82002F0FAFE75
:101A70002846ECE700BF94F83900012805D0384625
:101A80007F1C4FF6FF718842F5D34FF6FF708742F7
:101A900001D30320DBE72846D9E72DE9F041804652
:101AA0000E46002700244046FFF730FB044614B9D9
:101AB0000420BDE8F0810021A1757521204602F0C7
:101AC00035F905460DB12846F3E726B9C82002F0DE
:101AD000C9FE2846EDE700BFA07D012805D03846A5
:101AE0007F1C4FF6FF718842F6D34FF6FF70874296
:101AF00001D30320DDE72846DBE72DE9F0418046EE
:101B00000E46002700244046FFF700FB044614B9A8
:101B10000420BDE8F081002184F8C310362120465E
:101B200002F004F905460DB12846F2E726B9C820AF
:101B300002F098FE2846ECE700BF94F8C3000128A5
:101B400005D038467F1C4FF6FF718842F5D34FF61B
:101B5000FF70874201D30320DBE72846D9E72DE950
:101B6000F04180460E46002700244046FFF7CEFA9B
:101B7000044614B90420BDE8F081002184F8C410A3
:101B80003721204602F0D2F805460DB12846F2E78B
:101B900026B9C82002F066FE2846ECE700BF94F89C
:101BA000C400012805D038467F1C4FF6FF718842DB
:101BB000F5D34FF6FF70874201D30320DBE72846B9
:101BC000D9E72DE9F04180460E4600270024404623
:101BD000FFF79CFA044614B90420BDE8F081002107
:101BE00084F8BA101821204602F0A0F805460DB17D
:101BF0002846F2E726B9C82002F034FE2846ECE772
:101C000000BF94F8BA00012805D038467F1C4FF673
:101C1000FF718842F5D34FF6FF70874201D303204E
:101C2000DBE72846D9E72DE9F04180460E4600273C
:101C300000244046FFF76AFA044614B90420BDE8C0
:101C4000F081002184F8B9101721204602F06EF8C7
:101C500005460DB12846F2E726B9C82002F002FE7B
:101C60002846ECE700BF94F8B900012805D03846B3
:101C70007F1C4FF6FF718842F5D34FF6FF70874205
:101C800001D30320DBE72846D9E72DE9F041804660
:101C90000E46002700244046FFF738FA044614B9E0
:101CA0000420BDE8F081002184F8BD101C212046ED
:101CB00002F03CF805460DB12846F2E726B9C820E7
:101CC00002F0D0FD2846ECE700BF94F8BD000128E3
:101CD00005D038467F1C4FF6FF718842F5D34FF68A
:101CE000FF70874201D30320DBE72846D9E72DE9BF
:101CF000F04180460E46002700244046FFF706FAD2
:101D0000044614B90420BDE8F081002184F8BF1016
:101D10001E21204602F00AF805460DB12846F2E7DA
:101D200026B9C82002F09EFD2846ECE700BF94F8D3
:101D3000BF00012805D038467F1C4FF6FF7188424E
:101D4000F5D34FF6FF70874201D30320DBE7284627
:101D5000D9E72DE9F04180460E4600270024404691
:101D6000FFF7D4F9044614B90420BDE8F08100213E
:101D700084F8BE101D21204601F0D8FF05460DB1A4
:101D80002846F2E726B9C82002F06CFD2846ECE7A9
:101D900000BF94F8BE00012805D038467F1C4FF6DE
:101DA000FF718842F5D34FF6FF70874201D30320BD
:101DB000DBE72846D9E72DE9F04180460E460027AB
:101DC00000244046FFF7A2F9044614B90420BDE8F8
:101DD000F081002184F83A107B21204601F0A6FF13
:101DE00005460DB12846F2E726B9C82002F03AFDB3
:101DF0002846ECE700BF94F83A00012805D03846A1
:101E00007F1C4FF6FF718842F5D34FF6FF70874273
:101E100001D30320DBE72846D9E72DE9F0418046CE
:101E20000E46002700244046FFF770F9044614B917
:101E30000420BDE8F0810021E1757921204601F000
:101E400075FF05460DB12846F3E726B9C82002F014
:101E500009FD2846EDE700BFE07D012805D03846A2
:101E60007F1C4FF6FF718842F6D34FF6FF70874212
:101E700001D30320DDE72846DBE72DE9F04180466A
:101E80000E46002700244046FFF740F9044614B9E7
:101E90000420BDE8F081002121768B21204601F04D
:101EA00045FF05460DB12846F3E726B9C82002F0E4
:101EB000D9FC2846EDE700BF207E012805D0384632
:101EC0007F1C4FF6FF718842F6D34FF6FF708742B2
:101ED00001D30320DDE72846DBE72DE9F04180460A
:101EE0000E46002700244046FFF710F9044614B9B7
:101EF0000420BDE8F081002184F8C8108621204626
:101F000001F014FF05460DB12846F2E726B9C820B6
:101F100002F0A8FC2846ECE700BF94F8C8000128AE
:101F200005D038467F1C4FF6FF718842F5D34FF637
:101F3000FF70874201D30320DBE72846D9E72DE96C
:101F4000F04180460E46002700244046FFF7DEF8A9
:101F5000044614B90420BDE8F081002184F8C710BC
:101F60008521204601F0E2FE05460DB12846F2E744
:101F700026B9C82002F076FC2846ECE700BF94F8AA
:101F8000C700012805D038467F1C4FF6FF718842F4
:101F9000F5D34FF6FF70874201D30320DBE72846D5
:101FA000D9E72DE9F04180460E460027002440463F
:101FB000FFF7ACF8044614B90420BDE8F081002115
:101FC00084F8CC108A21204601F0B0FE05460DB100
:101FD0002846F2E726B9C82002F044FC2846ECE780
:101FE00000BF94F8CC00012805D038467F1C4FF67E
:101FF000FF718842F5D34FF6FF70874201D303206B
:10200000DBE72846D9E72DE9F04180460E46002758
:1020100000244046FFF77AF8044614B90420BDE8CE
:10202000F081002184F8C5103821204601F07EFEA1
:1020300005460DB12846F2E726B9C82002F012FC89
:102040002846ECE700BF94F8C500012805D03846C3
:102050007F1C4FF6FF718842F5D34FF6FF70874221
:1020600001D30320DBE72846D9E72DE9F04180467C
:102070000E46002700244046FFF748F8044614B9EE
:102080000420BDE8F081002184F8C61039212046E3
:1020900001F04CFE05460DB12846F2E726B9C820EE
:1020A00002F0E0FB2846ECE700BF94F8C6000128E8
:1020B00005D038467F1C4FF6FF718842F5D34FF6A6
:1020C000FF70874201D30320DBE72846D9E72DE9DB
:1020D000F04180460E46002700244046FFF716F8E0
:1020E000044614B90420BDE8F081002184F8BC1036
:1020F0001A21204601F01AFE05460DB12846F2E7E6
:1021000026B9C82002F0AEFB2846ECE700BF94F8E1
:10211000BC00012805D038467F1C4FF6FF7188426D
:10212000F5D34FF6FF70874201D30320DBE7284643
:10213000D9E72DE9F04180460E46002700244046AD
:10214000FEF7E4FF044614B90420BDE8F081002145
:1021500084F8BB101921204601F0E8FD05460DB1B9
:102160002846F2E726B9C82002F07CFB2846ECE7B7
:1021700000BF94F8BB00012805D038467F1C4FF6FD
:10218000FF718842F5D34FF6FF70874201D30320D9
:10219000DBE72846D9E72DE9F04180460E460027C7
:1021A00000244046FEF7B2FF044614B90420BDE8FF
:1021B000F0810021E1745521204601F0B7FD05466C
:1021C0000DB12846F3E726B9C82002F04BFB28469C
:1021D000EDE700BFE07C012805D038467F1C4FF6B4
:1021E000FF718842F6D34FF6FF70874201D3032078
:1021F000DDE72846DBE72DE9F04180460E46002763
:1022000000244046FEF782FF044614B90420BDE8CE
:10221000F081002184F8D0109421204601F086FD41
:1022200005460DB12846F2E726B9C82002F01AFB90
:102230002846ECE700BF94F8D000012805D03846C6
:102240007F1C4FF6FF718842F5D34FF6FF7087422F
:1022500001D30320DBE72846D9E72DE9F04180468A
:102260000E46002700244046FEF750FF044614B9EE
:102270000420BDE8F081002184F84310FF212046AE
:1022800001F054FD05460DB12846F2E726B9C820F5
:1022900002F0E8FA2846ECE700BF94F84300012872
:1022A00005D038467F1C4FF6FF718842F5D34FF6B4
:1022B000FF70874201D30320DBE72846D9E770B5DA
:1022C00004460D4629462046FFF7C7FF294620460B
:1022D000FFF791FF29462046FFF75DFF294620467C
:1022E000FFF727FF29462046FFF7F1FE2946204643
:1022F000FFF7BBFE29462046FFF785FE294620460C
:10230000FFF74FFE29462046FFF719FE29462046D3
:10231000FFF7E3FD29462046FFF7AFFD294620469B
:10232000FFF77BFD29462046FFF745FD294620465D
:10233000FFF70FFD29462046FFF7D9FC2946204626
:10234000FFF7A3FC29462046FFF76DFC29462046EF
:10235000FFF737FC29462046FFF701FC29462046B7
:10236000FFF7CBFB29462046FFF797FB294620467F
:10237000FFF761FB29462046FFF72BFB2946204645
:10238000FFF7F5FA29462046FFF7BFFA294620460F
:10239000FFF789FA29462046FFF753FA29462046D7
:1023A000FFF71DFA29462046FFF7E9F9294620469E
:1023B000FFF7B3F929462046FFF77DF92946204665
:1023C000FFF747F929462046FFF711F9294620462D
:1023D000FFF7DBF829462046FFF77CF82946204620
:1023E000FFF746F829462046FFF710F82946204611
:1023F000FEF7DAFF29462046FEF7A4FF70BD2DE95F
:10240000F04180460E46002700244046FEF77EFE3F
:10241000044614B90420BDE8F081002184F840107E
:102420005321204601F082FC05460DB12846F2E713
:1024300026B9C82002F016FA2846ECE700BF94F847
:102440004000012805D038467F1C4FF6FF718842B6
:10245000F5D34FF6FF70874201D30320DBE7284610
:10246000D9E72DE9F04180460E460027002440467A
:10247000FEF74CFE044614B90420BDE8F0810021AB
:102480002175B021204601F051FC05460DB12846CA
:10249000F3E726B9C82002F0E5F92846EDE700BFCA
:1024A000207D012805D038467F1C4FF6FF718842F9
:1024B000F6D34FF6FF70874201D30320DDE72846AD
:1024C000DBE72DE9F04180460E4600270024404618
:1024D000FEF71CFE044614B90420BDE8F08100217B
:1024E00084F8D1100221204601F020FC05460DB1F0
:1024F0002846F2E726B9C82002F0B4F92846ECE7EE
:1025000000BF94F8D100012805D038467F1C4FF653
:10251000FF718842F5D34FF6FF70874201D3032045
:10252000DBE72846D9E72DE9F041074600260024DD
:102530003846FEF7EBFD044614B90420BDE8F081EF
:1025400001213846FEF7BFFE05460DB12846F5E7E6
:1025500094F8DA00012800D11CE00121A1740122C5
:102560002A21204601F03AFB05460DB12846E5E751
:1025700000BF94F8DA00012805D03046761C6FF0D1
:102580007F418842F5D36FF07F40864201D303201C
:10259000D4E700BF0120A07101213846FFF791FF69
:1025A00001213846FFF75DFF94F8D50028B922785D
:1025B00040F25D11EFA004F051FD01213846FFF714
:1025C0001EFF94ED380AB5EEC00AF1EE10FA05D1FF
:1025D00022784FF4B271F6A004F040FD0021384695
:1025E000FFF76DFE2846A9E710B500240AE004EBCA
:1025F000041101EB4411FD4A12F83100FFF793FF7B
:10260000601CC4B2042CF2DB10BD2DE9F04107467A
:10261000002600243846FEF779FD044614B904204C
:10262000BDE8F08101213846FEF74DFE05460DB1AB
:102630002846F5E794F8DA0008B90020F0E7002111
:10264000A17400222A21204601F0C8FA05460DB1E6
:102650002846E5E700BF94F8DA0028B13046761C3A
:102660006FF07F418842F6D36FF07F40864201D3FE
:102670000320D5E72846D3E710B500240AE004EB91
:10268000041101EB4411D94A12F83100FFF7BDFFE4
:10269000601CC4B2042CF2DB10BD2DE9F04781466A
:1026A0000C4617464FF0000800254846FEF72EFD61
:1026B000054615B90420BDE8F08795F8D400A0427E
:1026C00001D10020F7E76C7322460721284601F06C
:1026D00085FA06460EB13046EDE727B9C82002F06C
:1026E000C1F83046E7E700BF95F8D400A04206D015
:1026F000404608F101084FF6FF718842F4D34FF6C7
:10270000FF70804501D30320D5E73046D3E72DE99C
:10271000F04107460D46002600243846FEF7F6FC39
:10272000044614B90420BDE8F081B4F8080108B9E2
:102730000020F8E7FE21204601F0D4FA804625B9B2
:10274000C82002F08FF84046EDE700BFB4F808015A
:1027500028B13046761C4FF6FF718842F6D34FF60B
:10276000FF70864201D30320DDE74046DBE72DE919
:10277000F04180460E46002700244046FEF7C6FC86
:10278000044614B90420BDE8F081002060710D21D9
:10279000204601F0A7FA05460DB12846F3E726B911
:1027A000C82002F05FF82846EDE700BF60790128F5
:1027B00005D038467F1C4FF6FF718842F6D36FF084
:1027C0007F40874201D30320DDE72846DBE770B571
:1027D0002DED028B0546B0EE408A00242846FEF718
:1027E00095FC04461CB90420BDEC028B70BDB0EE14
:1027F000480A0A21204601F021FAF5E710B52DED2F
:10280000028B0446B0EE408AB0EE480A0A21204608
:1028100001F014FABDEC028B10BD2DE9F0418046A9
:102820000E46002700244046FEF770FC044614B90B
:102830000420BDE8F081002184F8B610062120466E
:1028400001F074FA05460DB12846F2E726B9C82012
:1028500002F008F82846ECE700BF94F8B60001281B
:1028600005D038467F1C4FF6FF718842F5D36FF0D4
:102870007F40874201D30320DBE72846D9E72DE9D3
:10288000F04104460D460027002184F8B6100621C9
:10289000204601F04BFA064616B13046BDE8F081FD
:1028A00025B9C82001F0DEFF3046F7E700BF94F8F5
:1028B000B600012805D038467F1C4FF6FF718842CC
:1028C000F5D36FF07F40874201D30320E6E730461F
:1028D000E4E72DE9F0412DED028B8046B0EE408A11
:1028E0000E46002700244046FEF710FC044624B99B
:1028F0000420BDEC028BBDE8F08184ED188AB0EEB7
:10290000480A1221204601F099F905460DB12846E2
:10291000EFE726B9C82001F0A5FF2846E9E700BF88
:1029200094ED4D0AB4EE480AF1EE10FA05D038469F
:102930007F1C4FF6FF718842F2D34FF6FF7087423B
:1029400001D30320D5E72846D3E72DE9F0412DED4B
:10295000028B8046B0EE408A0E4600270024404697
:10296000FEF7D4FB044624B90420BDEC028BBDE87D
:10297000F0813DE046494C453A202E2E5C534341C0
:102980005C5343415F4150492E632C204C494E45D6
:102990003A2025643A2049443A2564204C617374F6
:1029A0005F5374617465204572726F720D0A000086
:1029B00046494C453A202E2E5C5343415C534341DB
:1029C0005F4150492E632C204C494E453A202564E6
:1029D0003A2049443A25642043757272656E745FEB
:1029E0004D6178204572726F720D0A005000002010
:1029F00084ED198AB0EE480A1321204601F01EF931
:102A0000054625B12846BDEC028BBDE8F08126B90C
:102A1000C82001F027FF2846F5E700BF94ED4E0AD5
:102A2000B4EE480AF1EE10FA05D038467F1C4FF696
:102A3000FF718842F2D34FF6FF70874201D3032023
:102A4000E1E72846DFE72DE9F0412DED028B8046D6
:102A5000B0EE408A0E46002700244046FEF756FBA3
:102A6000044624B90420BDEC028BBDE8F08184ED5E
:102A7000238AB0EE480A3321204601F0DFF80546EC
:102A80000DB12846EFE726B9C82001F0EBFE284635
:102A9000E9E700BF94ED580AB4EE480AF1EE10FAE7
:102AA00005D038467F1C4FF6FF718842F2D34FF6AF
:102AB000FF70874201D30320D5E72846D3E72DE9ED
:102AC000F0412DED028B8046B0EE408A0E46002785
:102AD00000244046FEF71AFB044624B90420BDEC4E
:102AE000028BBDE8F08184ED228AB0EE480A3221E3
:102AF000204601F0A3F805460DB12846EFE726B9B8
:102B0000C82001F0AFFE2846E9E700BF94ED570A60
:102B1000B4EE480AF1EE10FA05D038467F1C4FF6A5
:102B2000FF718842F2D34FF6FF70874201D3032032
:102B3000D5E72846D3E72DE9F0412DED028B8046FD
:102B4000B0EE408A0E46002700244046FEF7DEFA2B
:102B5000044624B90420BDEC028BBDE8F08184ED6D
:102B6000298AB0EE480A8921204601F067F8054617
:102B70000DB12846EFE726B9C82001F073FE2846BC
:102B8000E9E700BF94ED5E0AB4EE480AF1EE10FAF0
:102B900005D038467F1C4FF6FF718842F2D34FF6BE
:102BA000FF70874201D30320D5E72846D3E72DE9FC
:102BB000F0412DED028B8046B0EE408A0E46002794
:102BC00000244046FEF7A2FA044624B90420BDECD6
:102BD000028BBDE8F08184ED248AB0EE480A83219F
:102BE000204601F02BF805460DB12846EFE726B93F
:102BF000C82001F037FE2846E9E700BF94ED590AE6
:102C0000B4EE480AF1EE10FA05D038467F1C4FF6B4
:102C1000FF718842F2D34FF6FF70874201D3032041
:102C2000D5E72846D3E72DE9F0412DED028B80460C
:102C3000B0EE408A0E46002700244046FEF766FAB2
:102C4000044624B90420BDEC028BBDE8F08184ED7C
:102C5000258AB0EE480A8421204600F0EFFF0546A1
:102C60000DB12846EFE726B9C82001F0FBFD284644
:102C7000E9E700BF94ED5A0AB4EE480AF1EE10FA03
:102C800005D038467F1C4FF6FF718842F2D34FF6CD
:102C9000FF70874201D30320D5E72846D3E72DE90B
:102CA000F04781460C4617464FF00008002548467D
:102CB000FEF72CFA054615B90420BDE8F0876C74C0
:102CC00022468C21284600F089FF06460EB1304688
:102CD000F3E727B9C82001F0C5FD3046EDE700BF96
:102CE00095F8D900A04206D0404608F101084FF6F9
:102CF000FF718842F4D34FF6FF70804501D3032063
:102D0000DBE73046D9E72DE9F0412DED028B804617
:102D1000B0EE408A0E46002700244046FEF7F6F942
:102D2000044624B90420BDEC028BBDE8F08184ED9B
:102D3000288AB0EE480A8721204600F07FFF05462A
:102D40000DB12846EFE726B9C82001F08BFD2846D3
:102D5000E9E700BF94ED5D0AB4EE480AF1EE10FA1F
:102D600005D038467F1C4FF6FF718842F2D34FF6EC
:102D7000FF70874201D30320D5E72846D3E72DE92A
:102D8000F04781460C4617464FF00008002548469C
:102D9000FEF7BCF9054615B90420BDE8F0872C7490
:102DA00022467821284600F019FF06460EB130462B
:102DB000F3E727B9C82001F055FD3046EDE700BF25
:102DC00095F8D800A04206D0404608F101084FF619
:102DD000FF718842F4D34FF6FF70804501D3032082
:102DE000DBE73046D9E72DE9F0412DED028B804637
:102DF000B0EE408A0E46002700244046FEF786F9D2
:102E0000044624B90420BDEC028BBDE8F08184EDBA
:102E1000098AB0EE480A7A21204600F0EDFE054608
:102E20000DB12846EFE726B9C82001F01BFD284662
:102E3000E9E700BF94ED3B0AB4EE480AF1EE10FA60
:102E400005D038467F1C4FF6FF718842F2D34FF60B
:102E5000FF70874201D30320D5E72846D3E72DE949
:102E6000F04180460E46002700244046FEF74EF90A
:102E7000044614B90420BDE8F081002184F8D21082
:102E80008821204600F02EFF05460DB12846F2E7C6
:102E900026B9C82001F0E6FC2846ECE700BF94F80C
:102EA000D200012805D038467F1C4FF6FF718842BA
:102EB000F5D34FF6FF70874201D30320DBE72846A6
:102EC000D9E72DE9F0412DED028B8046B0EE408A26
:102ED0000E46002700244046FEF718F9044624B9A0
:102EE0000420BDEC028BBDE8F08184ED1B8A9FEDD0
:102EF000FD0AC8EE000AB0EE608AB0EE480A202152
:102F0000204600F09BFE05460DB12846E9E726B9AC
:102F1000C82001F0A7FC2846E3E700BF94ED500A63
:102F2000B4EE480AF1EE10FA05D038467F1C4FF691
:102F3000FF718842F2D34FF6FF70874201D303201E
:102F4000CFE72846CDE72DE9F0412DED028B8046F5
:102F5000B0EE408A0E46002700244046FEF7D6F821
:102F6000044624B90420BDEC028BBDE8F08184ED59
:102F70001C8A9FEDDC0AC8EE000AB0EE608AB0EE53
:102F8000480A2121204600F059FE05460DB1284689
:102F9000E9E726B9C82001F065FC2846E3E700BF51
:102FA00094ED510AB4EE480AF1EE10FA05D0384615
:102FB0007F1C4FF6FF718842F2D34FF6FF708742B5
:102FC00001D30320CFE72846CDE72DE9F0412DEDD1
:102FD000028B8046B0EE408A0E4600270024404611
:102FE000FEF794F8044624B90420BDEC028BBDE83A
:102FF000F08184ED1A8A9FEDBB0AC8EE000AB0EE9C
:10300000608AB0EE480A1F21204600F017FE0546F0
:103010000DB12846E9E726B9C82001F023FC28466F
:10302000E3E700BF94ED4F0AB4EE480AF1EE10FA60
:1030300005D038467F1C4FF6FF718842F2D34FF619
:10304000FF70874201D30320CFE72846CDE770B554
:103050002DED028B0546B0EE408A00242846FEF78F
:1030600055F804461CB90420BDEC028B70BDB0EECF
:10307000480A0921204600F0E1FDF5E710B52DEDE5
:10308000028B0446B0EE408AB0EE480A0921204681
:1030900000F0D4FDBDEC028B10BD2DE9F04180465F
:1030A0000E46002700244046FEF730F8044614B9C7
:1030B0000420BDE8F081002184F8B51005212046E8
:1030C00000F034FE05460DB12846F2E726B9C820C7
:1030D00001F0C8FB2846ECE700BF94F8B5000128D2
:1030E00005D038467F1C4FF6FF718842F5D34FF666
:1030F000FF70874201D30320DBE72846D9E72DE99B
:10310000F04104460D460027002184F8B510052142
:10311000204600F00BFE064616B13046BDE8F081B1
:1031200025B9C82001F09EFB3046F7E700BF94F8B0
:10313000B500012805D038467F1C4FF6FF71884244
:10314000F5D34FF6FF70874201D30320E6E7304600
:10315000E4E72DE9F0412DED028B8046B0EE408A88
:103160000E46002700244046FDF7D0FF044624B950
:103170000420BDEC028BBDE8F08184ED168AB0EE30
:10318000480A1021204600F059FD05460DB1284699
:10319000EFE726B9C82001F065FB2846E9E700BF44
:1031A00094ED4B0AB4EE480AF1EE10FA05D0384619
:1031B0007F1C4FF6FF718842F2D34FF6FF708742B3
:1031C00001D30320D5E72846D3E72DE9F0412DEDC3
:1031D000028B8046B0EE408A0E460027002440460F
:1031E000FDF794FF044624B90420BDEC028BBDE832
:1031F000F08184ED178AB0EE480A1121204600F0D4
:103200001DFD05460DB12846EFE726B9C82001F09F
:1032100029FB2846E9E700BF94ED4C0AB4EE480AC2
:10322000F1EE10FA05D038467F1C4FF6FF71884248
:10323000F2D34FF6FF70874201D30320D5E728462B
:10324000D3E72DE9F0412DED028B8046B0EE408AA8
:103250000E46002700244046FDF758FF044624B9D7
:103260000420BDEC028BBDE8F08184ED218AB0EE34
:10327000480A3121204600F0E1FC05460DB1284600
:10328000EFE726B9C82001F0EDFA2846E9E700BFCC
:1032900094ED560AB4EE480AF1EE10FA05D038461D
:1032A0007F1C4FF6FF718842F2D34FF6FF708742C2
:1032B00001D30320D5E72846D3E72DE9F0412DEDD2
:1032C000028B8046B0EE408A0E460027002440461E
:1032D000FDF71CFF04463CB90420BDEC028BBDE8A1
:1032E000F08100000000704484ED208AB0EE480AAE
:1032F0003021204600F0A2FC05460DB12846ECE73F
:1033000026B9C82001F0AEFA2846E6E700BF94EDE2
:10331000550AB4EE480AF1EE10FA05D038467F1C83
:103320004FF6FF718842F2D34FF6FF70874201D308
:103330000320D2E72846D0E79FEDFA0A70472DE92F
:10334000F04781460C4617464FF0000800254846D6
:10335000FDF7DCFE054615B90420BDE8F087EC73E7
:1033600022467421284600F039FC06460EB130464C
:10337000F3E727B9C82001F075FA3046EDE700BF42
:1033800095F8D700A04206D0404608F101084FF654
:10339000FF718842F4D34FF6FF70804501D30320BC
:1033A000DBE73046D9E72DE9F0412DED028B804671
:1033B000B0EE408A0E46002700244046FDF7A6FEE8
:1033C000044624B90420BDEC028BBDE8F08184EDF5
:1033D000088AB0EE480A7621204600F00DFC05462A
:1033E0000DB12846EFE726B9C82001F03BFA284680
:1033F000E9E700BF94ED3A0AB4EE480AF1EE10FA9C
:1034000005D038467F1C4FF6FF718842F2D34FF645
:10341000FF70874201D30320D5E72846D3E72DE983
:10342000F0412DED028B8046B0EE408A0E4600271B
:1034300000244046FDF76AFE044624B90420BDEC92
:10344000028BBDE8F08184ED278AB0EE480A5A214C
:10345000204600F0F3FB05460DB12846EFE726B9FC
:10346000C82001F0FFF92846E9E700BF94ED5C0AA7
:10347000B4EE480AF1EE10FA05D038467F1C4FF63C
:10348000FF718842F2D34FF6FF70874201D30320C9
:10349000D5E72846D3E72DE9F0412DED028B804694
:1034A000B0EE408A0E46002700244046FDF72EFE6F
:1034B000044624B90420BDEC028BBDE8F08184ED04
:1034C0001E8A1FED780AC8EE000AB0EE608AB0EEE0
:1034D000480A2621204600F0B1FB05460DB12846DA
:1034E000E9E726B9C82001F0BDF92846E3E700BFA7
:1034F00094ED530AB4EE480AF1EE10FA05D03846BE
:103500007F1C4FF6FF718842F2D34FF6FF7087425F
:1035100001D30320CFE72846CDE72DE9F0412DED7B
:10352000028B8046B0EE408A0E46002700244046BB
:10353000FDF7ECFD044624B90420BDEC028BBDE888
:10354000F08184ED1F8A1FED990AC8EE000AB0EEE3
:10355000608AB0EE480A2721204600F06FFB05463E
:103560000DB12846E9E726B9C82001F07BF92846C5
:10357000E3E700BF94ED540AB4EE480AF1EE10FA06
:1035800005D038467F1C4FF6FF718842F2D34FF6C4
:10359000FF70874201D30320CFE72846CDE72DE90E
:1035A000F0412DED028B8046B0EE408A0E4600279A
:1035B00000244046FDF7AAFD044624B90420BDECD2
:1035C000028BBDE8F08184ED1D8A1FEDBA0AC8EEBA
:1035D000000AB0EE608AB0EE480A2521204600F0CD
:1035E0002DFB05460DB12846E9E726B9C82001F0B4
:1035F00039F92846E3E700BF94ED520AB4EE480AD1
:10360000F1EE10FA05D038467F1C4FF6FF71884264
:10361000F2D34FF6FF70874201D30320CFE728464D
:10362000CDE770B52DED028B0546B0EE408A002443
:103630002846FDF76BFD04461CB90420BDEC028B47
:1036400070BDB0EE480A0821204600F0F7FAF5E711
:1036500010B52DED028B0446B0EE408AB0EE480A5C
:103660000821204600F0EAFABDEC028B10BD2DE9DE
:10367000F04180460E46002700244046FDF746FDF7
:10368000044614B90420BDE8F081002184F8B41088
:103690000421204600F04AFB05460DB12846F2E71A
:1036A00026B9C82001F0DEF82846ECE700BF94F800
:1036B000B400012805D038467F1C4FF6FF718842C0
:1036C000F5D34FF6FF70874201D30320DBE728468E
:1036D000D9E72DE9F04104460D460027002184F882
:1036E000B4100421204600F021FB064616B13046F6
:1036F000BDE8F08125B9C82001F0B4F83046F7E7FD
:1037000000BF94F8B400012805D038467F1C4FF65E
:10371000FF718842F5D34FF6FF70874204D3032030
:10372000E6E700000080BB453046E1E72DE9F047C1
:1037300081460C4617464FF0000800254846FDF725
:10374000E5FC054615B90420BDE8F087AC732246B8
:103750007021284600F042FA06460EB13046F3E7E3
:1037600027B9C82001F07EF83046EDE700BF95F894
:10377000D600A04206D0404608F101084FF6FF717E
:103780008842F4D34FF6FF70804501D30320DBE776
:103790003046D9E72DE9F0412DED028B8046B0EEA1
:1037A000408A0E46002700244046FDF7AFFC044641
:1037B00024B90420BDEC028BBDE8F08184ED078ABA
:1037C000B0EE480A7221204600F016FA05460DB107
:1037D0002846EFE726B9C82001F044F82846E9E773
:1037E00000BF94ED390AB4EE480AF1EE10FA05D0A4
:1037F00038467F1C4FF6FF718842F2D34FF6FF70B8
:10380000874201D30320D5E72846D3E72DE9F041CD
:103810002DED028B8046B0EE408A0E460027002434
:103820004046FDF773FC044624B90420BDEC028B2E
:10383000BDE8F08184ED268AB0EE480A5821204682
:1038400000F0FCF905460DB12846EFE726B9C8207F
:1038500001F008F82846E9E700BF94ED5B0AB4EEF2
:10386000480AF1EE10FA05D038467F1C4FF6FF717A
:103870008842F2D34FF6FF70874201D30320D5E789
:103880002846D3E72DE9F0412DED028B8046B0EEBE
:10389000408A0E46002700244046FDF737FC0446C8
:1038A00024B90420BDEC028BBDE8F08184ED2C8AA4
:1038B000B0EE480A7E21204600F0C0F905460DB161
:1038C0002846EFE726B9C82000F0CCFF2846E9E7F4
:1038D00000BF94ED610AB4EE480AF1EE10FA05D08B
:1038E00038467F1C4FF6FF718842F2D34FF6FF70C7
:1038F000874201D30320D5E72846D3E72DE9F041DD
:103900002DED028B8046B0EE408A0E460027002443
:103910004046FDF7FBFB044624B90420BDEC028BB6
:10392000BDE8F08184ED0C8AB0EE480A6B21204698
:1039300000F062F905460DB12846EFE726B9C82028
:1039400000F090FF2846E9E700BF94ED400AB4EE8E
:10395000480AF1EE10FA05D038467F1C4FF6FF7189
:103960008842F2D34FF6FF70874201D30320D5E798
:103970002846D3E72DE9F0412DED028B8046B0EECD
:10398000408A0E46002700244046FDF7BFFB044650
:1039900024B90420BDEC028BBDE8F08184ED0D8AD2
:1039A000B0EE480A6D21204600F026F905460DB11B
:1039B0002846EFE726B9C82000F054FF2846E9E77B
:1039C00000BF94ED410AB4EE480AF1EE10FA05D0BA
:1039D00038467F1C4FF6FF718842F2D34FF6FF70D6
:1039E000874201D30320D5E72846D3E72DE9F041EC
:1039F0002DED028B8046B0EE408A0E460027002453
:103A00004046FDF783FB044624B90420BDEC028B3D
:103A1000BDE8F08184ED0A8AB0EE480A61212046B3
:103A200000F0EAF805460DB12846EFE726B9C820B0
:103A300000F018FF2846E9E700BF94ED3E0AB4EE17
:103A4000480AF1EE10FA05D038467F1C4FF6FF7198
:103A50008842F2D34FF6FF70874201D30320D5E7A7
:103A60002846D3E72DE9F0412DED028B8046B0EEDC
:103A7000408A0E46002700244046FDF747FB0446D7
:103A800024B90420BDEC028BBDE8F08184ED0B8AE3
:103A9000B0EE480A6321204600F0AEF805460DB1AD
:103AA0002846EFE726B9C82000F0DCFE2846E9E703
:103AB00000BF94ED3F0AB4EE480AF1EE10FA05D0CB
:103AC00038467F1C4FF6FF718842F2D34FF6FF70E5
:103AD000874201D30320D5E72846D3E72DE9F047F5
:103AE00081460C4617464FF0000800252046FDF79A
:103AF0000DFB054615B10320BDE8F0874846FDF7EC
:103B000005FB05460DB90420F6E72C7322463D213E
:103B1000284600F0F1F806460EB13046ECE727B92A
:103B2000C82000F09FFE3046E6E700BF2878A0429C
:103B300006D0404608F101084FF6FF718842F5D3E0
:103B40004FF6FF70804501D30320D5E73046D3E719
:103B50002DE9F04104460D460027002184F8D010DD
:103B60009421204600F0E2F8064616B13046BDE842
:103B7000F08125B9C82000F075FE3046F7E700BF98
:103B800094F8D000012805D038467F1C4FF6FF710D
:103B90008842F5D34FF6FF70874201D30320E6E752
:103BA0003046E4E72DE9F04104460E46174600256D
:103BB00000E06D1C2078A1683A464B683146984772
:103BC00018B1A0684078A842F3D8A0684078A8420D
:103BD00002D80220BDE8F0810020FBE7F8B50646D8
:103BE0000C4615468DF800408DF8015002226946BA
:103BF0003046FFF7D7FFF8BD70B52DED028B82B0D0
:103C000006460C46B0EE408A9FEDF90A28EE000AFF
:103C1000BDEEC00A10EE100A05B28DF80440280A65
:103C20008DF80500E8B28DF80600032201A93046A0
:103C3000FFF7B8FF02B0BDEC028B70BD70B52DED83
:103C4000028B82B006460D46B0EE408A092D01D0A7
:103C50005A2D0CD19FEDE70AC8EE000A9FEDE60A47
:103C600020EE800ABDEEC00A10EE104A23E0082DB7
:103C700001D0582D0CD196ED380AC8EE000A9FED00
:103C8000DE0A20EE800ABDEEC00A10EE104A12E0F5
:103C90007E2D08D19FEDD90A28EE000ABDEEC00A9C
:103CA00010EE104A07E09FEDD40A28EE000ABDEEA0
:103CB000C00A10EE104A8DF80050200E8DF8010059
:103CC000200C8DF80200200A8DF80300E0B28DF878
:103CD0000400052269463046FFF764FF02B0BDECE0
:103CE000028B70BD38B505460C460094012269462A
:103CF0002846FFF757FF38BD7CB504460D461646EB
:103D00008DF8005060788DF80100A0788DF80200E1
:103D1000E0788DF8030020798DF804008DF80560B7
:103D2000062269462046FFF73DFF7CBD38B50546B3
:103D30000C460094012269462846FFF733FF38BD40
:103D4000CA7A752A24D007DC6AB12B2A32D0552AC8
:103D50000CD0712A34D115E0792A1FD08B2A23D0B8
:103D6000B02A2DD108E00A7B82712AE00A7B80F814
:103D7000D4200123C37424E00A7B80F8D5200123DA
:103D800003751EE00A7B80F8D6200123437518E0F6
:103D90000A7B80F8D7200123837512E00A7B80F824
:103DA000D8200123C3750CE00A7B80F8D9200123B9
:103DB000037606E00A7B80F8DA200123437600E0F0
:103DC00000BF00BF704790F8081101F0010121B158
:103DD00001224FF485710A5403E000224FF48571EB
:103DE0000A5490F8081101F0020121B1012240F2B9
:103DF0000B110A5403E0002240F20B110A5490F810
:103E0000081101F0040121B101224FF486710A5416
:103E100003E000224FF486710A5490F8081101F073
:103E2000080121B1012240F20D110A5403E00022E1
:103E300040F20D110A5490F8081101F0100121B15F
:103E400001224FF487710A5403E000224FF4877176
:103E50000A5490F8081101F0200121B1012240F22A
:103E60000F110A5403E0002240F20F110A5490F897
:103E7000081101F0400121B101224FF488710A5468
:103E800003E000224FF488710A5490F8081101F001
:103E9000800121B1012240F211110A5403E00022F5
:103EA00040F211110A54B0F8081101F4807121B1E7
:103EB00001224FF489710A5403E000224FF4897102
:103EC0000A54B0F8081101F4007121B1012240F246
:103ED00013110A5403E0002240F213110A54B0F8FF
:103EE000081101F4806121B101224FF48A710A5452
:103EF00003E000224FF48A710A54B0F8081101F46B
:103F0000784121B1012240F215110A5403E0002248
:103F100040F215110A54704730B503460D46287B10
:103F2000000204B2687B0443E87A452808D100EE19
:103F3000904AF8EEE00A9FED321A80EE810A07E01F
:103F400000EE904AF8EEE00A9FED291A80EE810A11
:103F5000E87A6C285CD00EDC60283DD006DC452871
:103F600016D053281AD05F286BD12FE0622839D0A1
:103F7000642866D146E077281CD004DC6E284DD03A
:103F800073285ED110E07B281AD0FF2859D14BE06E
:103F900083ED370A012183F83F1053E083ED380A9F
:103FA000012183F840104DE083ED390A012183F8A7
:103FB000381047E083ED3A0A012183F8391041E0D7
:103FC00083ED3B0A012183F83A103BE083ED3C0A84
:103FD000012183F8411035E083ED3D0A012183F88A
:103FE00042102FE083ED3E0A012183F83B1029E0C7
:103FF000000080430080BB450000804B3373964235
:104000000000804483ED3F0A012183F83C1019E051
:1040100083ED400A012183F83D1013E083ED410A4E
:10402000012183F83E100DE0FCEEC00A10EE900A6C
:10403000A3F808011846FFF7C6FE012183F84310D4
:1040400000E000BF00BF30BD10B50B7B1A064B7BF4
:1040500042EA03428B7B42EA0322CB7B1A43CB7AB0
:10406000052B02D0CB7A5B2B0CD100EE902AB8EE58
:10407000E01A5FED1F1AC1EE210A1FED221A20EE91
:10408000810A26E0CB7A042B02D0CB7A592B0CD1B3
:1040900000EE902AB8EEE01A5FED291AC1EE210A6F
:1040A00090ED381A20EE810A13E0CB7A7F2B08D1ED
:1040B00000EE902AF8EEE00A1FED301A80EE810A39
:1040C00007E000EE902AF8EEE00A1FED351A80EEC8
:1040D000810ACB7A242B73D01DDC192B6AD010DC1B
:1040E000152B4FD006DC042B3AD0052B3ED0062BE7
:1040F00067D141E0162B4BD0172B4FD0182BF7D19F
:1041000052E01A3B0A2B5CD2DFE803F05C62636D7D
:104110007BF5F5F58A945B2B6FD010DC372B6DD0D7
:1041200006DC342B6BD0352B6AD0362BE0D199E0EE
:10413000382B70D0392B6FD0592BD9D1AAE0862BD0
:104140006BD006DC7D2B69D07F2B68D0852BCFD13F
:10415000ADE08A2B78D0922B77D0932BC8D1BEE0DC
:1041600080ED460A012480F8B440C5E080ED470A9E
:10417000012480F8B540BFE080ED480A012480F8B2
:10418000B640B9E080ED490A012480F8B740B3E0B9
:1041900080ED4A0A012480F8B840ADE080ED4B0A7A
:1041A000012480F8B940A7E080ED4C0A012480F892
:1041B000BA40A1E080ED4D0A012480F8BB409BE0AD
:1041C00044E098E080ED4E0A012480F8BC4093E082
:1041D00092E0DFEDF70A60EE200AC0ED4F0A0124FD
:1041E00080F8BD4088E0DFEDF20A60EE200AC0ED05
:1041F000500A012480F8BE407EE051E038E02FE014
:104200002FE0DFEDEB0A60EE200AC0ED510A012439
:1042100080F8BF4070E031E036E04EE046E064E018
:10422000DFEDE30A60EE200AC0ED520A012480F8B7
:10423000C04061E0DFEDDE0A60EE200AC0ED530A07
:10424000012480F8C14057E03DE042E0DFEDD80AAC
:1042500060EE200AC0ED540A012480F8C2404BE011
:104260004AE049E080ED550A012480F8C34043E06C
:1042700080ED560A012480F8C4403DE080ED570AE5
:10428000012480F8C54037E080ED580A012480F809
:10429000C64031E080ED5B0A012480F8C9402BE084
:1042A00080ED5C0A012480F8CA4025E024E080ED1E
:1042B000590A012480F8C7401EE080ED5A0A012403
:1042C00080F8C84018E080ED5E0A012480F8CC40F8
:1042D00012E080ED5F0A012480F8CD400CE080ED13
:1042E000600A012480F8CE4006E080ED610A0124D6
:1042F00080F8CF4000E000BF00BF10BD10B50246FF
:104300000B7B18064B7B40EA03408B7B40EA032083
:1043100000EE100AB8EEC00A5FEDC90A80EE201A5E
:1043200082ED481ACB7B18060B7C40EA034000EE76
:10433000100AF8EEC00A9FED9F1A80EE810A5FED29
:10434000D30A20EE200A82ED470A4B7C18068B7CAC
:1043500040EA034000EE100AF8EEC00A9FED951AFD
:1043600080EE810AD2ED380A20EE200A82ED460A5C
:10437000012482F8D04010BD0A7B42704B7B8370D1
:104380008B7BC370CB7B0371012380F8D1307047E6
:1043900010B503460C46207B01286ED100205871D1
:1043A000E07A33286AD01BDCA0F107002C286ED2FB
:1043B000DFE800F05393989D6D6DF2A2A9AEB6BBF5
:1043C000C1C66D6D6D6D6D6D6D6D6D6DC7CCD16D53
:1043D0006D6DD6DBE06D6D696D6D6DE5E6E7ECF357
:1043E000782846D01CDC6B286BD00CDC5A2872D0A5
:1043F00004DC3D2870D0582849D1DDE0612856D032
:104400006328F9D158E0722842D004DC6D285DD0D1
:104410007028F1D125E0742827D07628ECD13CE033
:1044200088286ED00CDC83286CD004DC7A2839D044
:104430007E28E1D1E8E084286FD08728DCD1CFE066
:1044400090286BD004DC892869D08C28D4D116E060
:1044500091286FD0FE28CFD1DBE0587B83F8D400C1
:10446000F5E0987B83F8D600F1E0D87B83F8D7009D
:10447000EDE0187C83F8D800E9E0E9E092E0587CB0
:1044800083F8D900E3E0987C83F8DA00DFE0DDE030
:1044900093ED070A83ED390AD9E093ED080A83ED1D
:1044A0003A0AD4E093ED090A83ED3B0ACFE093ED9D
:1044B0000A0A83ED3E0ACAE093ED0B0A83ED3F0A38
:1044C000C5E093ED0C0A83ED400AC0E093ED0D0AC0
:1044D00083ED410ABBE074E0B5E093ED110A83ED92
:1044E000460AB4E093ED120A83ED470AAFE093ED7C
:1044F000130A83ED480AAAE093ED140A83ED490AF2
:10450000A5E08DE062E093ED150A83ED4A0A9EE096
:1045100093ED160A83ED4B0A99E05CE06AE064E0F3
:1045200093ED170A83ED4C0A91E093ED180A83EDA1
:104530004D0A8CE063E093ED190A83ED4E0A86E0A4
:1045400085E093ED1A0A83ED4F0A80E093ED1B0A94
:1045500083ED500A7BE093ED1C0A83ED510A76E06F
:1045600093ED1D0A83ED520A71E093ED1E0A83ED6F
:10457000530A6CE093ED1F0A83ED540A67E066E08E
:1045800065E093ED200A83ED550A60E093ED210A82
:1045900083ED560A5BE000E052E093ED220A83EDE2
:1045A000570A54E093ED230A83ED580A4FE00000C8
:1045B000000070440000804E93ED260A83ED5B0AF4
:1045C00045E093ED270A83ED5C0A40E093ED240A71
:1045D00083ED590A3BE093ED250A83ED5A0A36E054
:1045E00093ED280A83ED5D0A31E093ED290A83ED0E
:1045F0005E0A2CE093ED2A0A83ED5F0A27E093ED33
:104600002B0A83ED600A22E093ED2C0A83ED610A08
:104610001DE00020A3F808011846FFF7D4FB16E0C0
:104620009FED800A83ED480A9FED7F0A83ED590ACA
:104630009FED7E0A83ED5A0A012183F8D21006E02D
:104640000120587103E0187B187000BF00BF00BF45
:1046500010BD70B504462078FCF758FD054605B935
:1046600070BD0120E871E07A53286ED03BDC1D2834
:104670006CD018DC16286AD00DDC052868D005DC63
:1046800080B3022872D0042871D195E006286FD03B
:104690001528F9D193E01738062868D2DFE800F032
:1046A00091929394959635286FD00EDC24286DD086
:1046B00006DC1E286BD022286AD02328E4D189E0AA
:1046C0002B285DD03428DFD186E0382871D004DC77
:1046D00036286FD03728D7D181E039286BD04528CC
:1046E000D2D156E045E0792848D01CDC642858D067
:1046F0000EDC5F2852D006DC55283BD0592871D0FB
:104700005B2834D16FE0602849D062282FD147E080
:104710006C380C287DD2DFE800F0457C467C7C2F8D
:104720007C3E7C307C3F8B2829D012DC85285CD0F5
:1047300006DC7B2831D07D2856D07F2869D159E00E
:10474000862853D08A2864D151E023E03FE037E047
:1047500033E0942853D004DC922849D0932858D1D0
:1047600047E0B02807D0FF2853D11DE04CE050E0CF
:1047700024E000BF00BF00BF00BF00BF00BF00BFFC
:1047800021462846FFF7DCFA48E026E023E01FE058
:104790001FE000BF00BF00BF00BF00BF00BF00BFE1
:1047A00000BF00BF00BF00BF21462846FFF7B4FB93
:1047B00034E015E012E014E000BF00BF00BF00BF0E
:1047C00000BF00BF00BF00BF00BF00BF00BF00BFF1
:1047D00000BF00BF00BF00BF00BF00BF00BF00BFE1
:1047E00000BF00BF00BF00BF00BF00BF00BF00BFD1
:1047F00000BF00BF21462846FFF726FC0EE02146F9
:104800002846FFF77BFD09E021462846FFF7B4FD67
:1048100004E021462846FFF7BBFD00BF00BF00BFF4
:104820001EE70000000000000000FE420000FEC283
:1048300010B504466FF0040000F004FAE11704EB31
:104840005171C1F3C701394A11701046007800EB6D
:104850004001C1EBC0104FF6FF7101EAC0003449BE
:10486000088010BD0146314A12784A434FF0E023D8
:104870005A6100229A611A46126942F001021A61D5
:1048800000BF4FF0E022106900F001021AB100F4FD
:104890008032002AF5D04FF0E022126922F00102A6
:1048A0004FF0E0231A6100229A6170470146204AC6
:1048B00012884A434FF0E0235A6100229A611A4657
:1048C000126942F001021A6100BF4FF0E022106944
:1048D00000F001021AB100F48032002AF5D04FF046
:1048E000E022126922F001024FF0E0231A61002257
:1048F0009A61704770B504464FF4077094FBF0F06E
:10490000C6B24FF4077094FBF0F100FB114085B282
:1049100005E04FF40770FFF7C9FF701EC6B2002E06
:10492000F7D115B12846FFF7C1FF70BD3400002054
:104930003600002000BF704700BF4B4A128802F0CB
:104940004002002AF9D0C2B2474B9A80704710B596
:1049500088B004460121084600F0B9FC012110206E
:1049600000F00DFD07220921404800F09AFA0722C5
:104970000A213E4800F095FA4FF4C06006900220EC
:104980008DF81C008DF81D0000208DF81E00012000
:104990008DF81F0006A9354800F0F8F902940020B0
:1049A000ADF80C00ADF80E00ADF81000ADF8140035
:1049B0000C20ADF8120002A92B4800F042FE252081
:1049C0008DF8040003208DF805008DF80600012005
:1049D0008DF8070001A800F0E8F8012240F2255107
:1049E000214800F06CFF40211F4800F09AFF012190
:1049F0001D4800F0AEFE08B010BD10B540F22551C4
:104A0000194800F097FF30B11948007818B91648D6
:104A100080881749087010BD00BF1349098801F04C
:104A200040010029F9D010498880704700B502463E
:104A30000B4603E01078FFF7EFFF521C181EA3F19E
:104A400001018BB2F6D100BD10B52021064800F05F
:104A50005BFF38B12021044800F063FF02488088E2
:104A6000C0B210BD0020FCE7001001400000024071
:104A7000000000207FB505460C460121084600F0E5
:104A80006DFC0295ADF804400020ADF80600ADF8CD
:104A90000C0001A94FF0804001F03BFD01221146BE
:104AA000900702F0D7F90121880701F0BBFD1C2017
:104AB0008DF8000001208DF8010003208DF8020020
:104AC00001208DF80300684600F06FF87FBD70B5D7
:104AD00005460E461446012C06D0022C05D0032CA8
:104AE00008D0042C08D106E007E031462846FFF73D
:104AF000C1FF02E001E000E000BF00BF70BD10B5E3
:104B00000121880702F0BDF901280AD10748007881
:104B1000042803D006A002F0A1FA02E001200F4908
:104B200008700121880702F0BDF910BD01000020C6
:104B30006C6F7374206D6F746F72202C20636865C6
:104B4000636B206D6F746F72206E756D626572207D
:104B50006F72206C696E6B0A000000003C00002040
:104B60000948804709480047FEE7FEE7FEE7FEE701
:104B7000FEE7FEE7FEE7FEE7FEE7FEE7044805493D
:104B8000054A064B7047000075090008AD01000892
:104B9000D0060020D00C0020D0080020D008002033
:104BA00032490143324A1160704770B50021002339
:104BB0000F22C4781CB32E4C246804F4E064C4F5BE
:104BC000E064C4F30721C1F10404E3B20A4144786C
:104BD0009C40E1B28478144021430C07210E254CFF
:104BE00005786155047804F01F050124AC40057870
:104BF0006D11AD0005F1E025C5F8004109E004782C
:104C000004F01F050124AC401B4D0678761145F8D1
:104C1000264070BD194A0A400243154B1B1F1A60FB
:104C2000704739B1124A121D12680243104B1B1D06
:104C30001A6006E00E4A121D126882430C4B1B1DBF
:104C40001A607047042808D14FF0E021096941F04B
:104C500004014FF0E022116107E04FF0E021096903
:104C600021F004014FF0E022116170470000FA05C5
:104C70000CED00E000E400E080E100E080FFFF1FB9
:104C800010B504469848844208D10121084600F036
:104C900087FB0021012000F083FB76E093488442EB
:104CA00008D10121022000F07BFB0021022000F04E
:104CB00077FB6AE08E48844208D10121042000F08D
:104CC0006FFB0021042000F06BFB5EE0894884420A
:104CD00008D10121082000F063FB0021082000F02A
:104CE0005FFB52E08448844208D10121102000F08B
:104CF00057FB0021102000F053FB46E07F48844220
:104D000008D10121202000F04BFB0021202000F0E1
:104D100047FB3AE07A48844208D10121402000F064
:104D20003FFB0021402000F03BFB2EE07548844211
:104D300008D10121802000F033FB0021802000F009
:104D40002FFB22E07048844208D10121801500F039
:104D500027FB0021A01500F023FB16E06B488442DE
:104D600008D10121401500F01BFB0021601500F067
:104D700017FB0AE06648844207D10121001500F0C4
:104D80000FFB0021201500F00BFB10BDF0B50A460B
:104D900000210023002400BF3DE0012505FA01F3B6
:104DA000156805EA03049C4234D105684F000326C8
:104DB000BE40B543056015794E00B54006683543E1
:104DC00005601579012D02D01579022D16D185685F
:104DD0004F000326BE40B543856055794E00B5406F
:104DE000866835438560456801268E40B543456039
:104DF000456896798E40B6B235434560C5684F0028
:104E00000326BE40B543C560D5794E00B540C6689F
:104E10003543C560491C1029BFD3F0BD4FF6FF7163
:104E200001600021017141718171C171704708B544
:104E30004FF480320092009A0A430092009AC261B5
:104E4000C161009AC261C2690092C269009208BD44
:104E50000246002013690B400BB1012000E0002046
:104E600070470146086980B27047024600205369C6
:104E70000B400BB1012000E000207047014648695B
:104E800080B2704701837047418370470AB1018344
:104E900000E0418370474161704742694A40426186
:104EA0007047F0B5002300244D07ED0E02FA05F31C
:104EB000CE1000F1200555F826504E07F70E0F26AC
:104EC000BE40B543CF1000F1200646F82750CE1063
:104ED00000F1200555F8265045EA0304CE1000F1F4
:104EE000200545F82640F0BD0000024000040240C5
:104EF00000080240000C0240001002400014024072
:104F000000180240001C0240002002400024024021
:104F100000280240F648006840F00100F4490860AB
:104F20000020F34908310860F1480068F149084061
:104F3000EF490860F048091D0860F048EC498431E9
:104F40000860ED481038091D0860E948006820F441
:104F50008020E74908600020E5490C310860E449F9
:104F60008C31086070470021E14A921C1170114693
:104F70000870704710B501460022002300204A1136
:104F8000012A02D1DA4C236808E0022A03D1D84C66
:104F90007034236802E0D64C7434236801F01F0299
:104FA000012494401C400CB1012000E0002010BD01
:104FB00038B5002000900024002500BF3120FFF705
:104FC000D9FF05460098401C00900098B0F5A04F0E
:104FD00001D0002DF2D03120FFF7CCFF08B1012421
:104FE00000E00024204638BD01460020C04A106879
:104FF00020F0F80040EAC10010607047C049086026
:1050000070470021BA4A703211701170012802D025
:1050100004280AD104E00121B54A7032117005E07C
:105020000521B34A7032117000E000BF00BF704725
:10503000B4490860704770B5049C41EA82150126A6
:10504000C6EB530645EA0645054345EA0465A84E06
:10505000361D356070BDAA490866704710B58301DA
:1050600043EA016343EA0273A14C8434236010BD18
:10507000A3498866704710B5830143EA016343EA98
:1050800002739B4C8834236010BD9D4908677047AC
:105090009B49C864704702460020954B0833186846
:1050A00020F0EC6042EA01031843914B083318608A
:1050B0007047024600208E4B0833186820F0784075
:1050C00042EA010318438A4B0833186070470146CF
:1050D0000020874A0832106820F00300084310605F
:1050E000704783480830006800F00C0070470146A4
:1050F00000207F4A0832106820F0F000084310605A
:105100007047014600207A4A0832106820F4E050C7
:1051100008431060704701460020754A0832106845
:1051200020F4604040EAC10010607047F0B50021F3
:10513000002200240225002602236D4F08373F6815
:1051400007F00C0121B1042905D0082937D105E069
:105150006D4F076036E06D4F076033E0644F3F1DD1
:105160003F68C7F38056624F3F1D3F6807F03F031B
:105170006EB1664FB7FBF3F7DFF874C10CF1040CA6
:10518000DCF800C0CCF3881C07FB0CF40CE05E4F8D
:10519000B7FBF3F7DFF858C10CF1040CDCF800C0E2
:1051A000CCF3881C07FB0CF4514F3F1D3F68C7F33D
:1051B00001477F1C7D00B4FBF5F7076002E0524F0A
:1051C000076000BF00BF4A4F08373F6807F0F00193
:1051D00009094F4F7A5C0768D7404760444F08374A
:1051E0003F6807F4E051890A494F7A5C4768D74025
:1051F00087603F4F08373F6807F46041490B444FD1
:105200007A5C4768D740C760F0BD002100F4407267
:10521000B2F5407F0AD1364A0832116821F4F811FC
:105220003C4A02401143324A08321160304A70321F
:105230001268C0F30B031A432D4B70331A6070478A
:1052400030494439086070472E494039086070473A
:1052500031490860704701460020254A8C321068A9
:1052600020F01F004A1E1043214A8C321060704704
:10527000014600201E4A8C32106820F4F8504A1E65
:1052800040EA02201A4A8C32106070470146002022
:10529000174A8C32106820F44010084310607047A1
:1052A00001460020124A8C32106820F44000084366
:1052B00010607047014600200D4A8C32106820F4BF
:1052C000403008431060704714490860704739B196
:1052D000074A303212680243054B30331A6006E049
:1052E000034A303212688243014B30331A607047F0
:1052F00000380240FFFFF6EA1030002400300020A2
:1053000000004742800E47420024F40040787D01AF
:105310003D000020FFFCFF0F5C014742E0114742C7
:1053200029B1934A12680243914B1A6004E0904AF3
:10533000126882438E4B1A60704739B18C4A121D35
:10534000126802438A4B1B1D1A6006E0884A121D30
:1053500012688243864B1B1D1A60704739B1844A1C
:105360000C3212680243824B0C331A6006E0804A0A
:105370000C32126882437E4B0C331A60704739B18D
:105380007B4A103212680243794B10331A6006E0F0
:10539000774A103212688243754B10331A60704797
:1053A00039B1734A243A12680243714B243B1A60A4
:1053B00006E06F4A243A126882436D4B243B1A6020
:1053C000704739B16A4A203A12680243684B203B61
:1053D0001A6006E0664A203A12688243644B203B1A
:1053E0001A60704739B1624A1C3A12680243604B36
:1053F0001C3B1A6006E05E4A1C3A126882435C4B12
:105400001C3B1A60704739B1594A143A126802437A
:10541000574B143B1A6006E0554A143A126882430F
:10542000534B143B1A60704739B1514A103A126815
:1054300002434F4B103B1A6006E04D4A103A126887
:1054400082434B4B103B1A60704739B1484A1C32BB
:1054500012680243464B1C331A6006E0444A1C3271
:1054600012688243424B1C331A60704739B1404A7C
:105470002032126802433E4B20331A6006E03C4A59
:105480002032126882433A4B20331A60704739B198
:10549000374A243212680243354B24331A6006E03F
:1054A000334A243212688243314B24331A607047E6
:1054B00039B12F4A2C32126802432D4B2C331A601B
:1054C00006E02B4A2C3212688243294B2C331A6097
:1054D000704739B1264A303212680243244B3033C8
:1054E0001A6006E0224A303212688243204B303381
:1054F0001A607047012808D11D493C31096841F004
:1055000008011B4A3C32116007E019493C31096827
:1055100021F00801164A3C321160704739B1144A33
:10552000273A12780243124B273B1A7006E0104AC2
:10553000273A127882430E4B273B1A7070470C486B
:105540004030006840F08070094940310860704781
:1055500001460020064A283A12680A400AB1012092
:1055600000E00020704702492639087070470000AB
:105570003438024010B50446FA48844208D101216B
:105580001020FFF751FF00211020FFF74DFF57E0DB
:10559000F548844209D101214804FFF734FF002176
:1055A0004FF40030FFF72FFF4AE0F048844209D162
:1055B00001218804FFF727FF00214FF48020FFF727
:1055C00022FF3DE0EA48844209D10121C804FFF7E7
:1055D0001AFF00214FF40020FFF715FF30E0E548E7
:1055E000844209D101210805FFF70DFF00214FF486
:1055F0008010FFF708FF23E0DF48844208D1012133
:105600002020FFF711FF00212020FFF70DFF17E0FA
:10561000DA48844209D101218807FFF7F4FE00210E
:105620004FF08040FFF7EFFE0AE0D548844207D1F3
:1056300001214005FFF7E7FE00216005FFF7E3FECB
:1056400010BD2DE9FF4705460E460024A14600BFC8
:10565000A046B08900B100BF2C8A24F44054F088E1
:1056600004432C82AC8941F20C608443B0883189B8
:105670000843718908430443AC81AC8A24F4407424
:10568000B0890443AC826846FFF750FDB5488542B7
:1056900002D0B948854202D1DDF80C9001E0DDF876
:1056A0000890A88900F4004040B109EBC90000EB64
:1056B000091031684900B0FBF1F707E009EBC900B8
:1056C00000EB091031688900B0FBF1F76420B7FBEB
:1056D000F0F004012009642101FB1078A88900F48E
:1056E000004040B1322000EBC800B0FBF1F000F008
:1056F0000700044308E0322000EB08106421B0FBEF
:10570000F1F000F00F0004432C81BDE8FF874FF457
:105710001651016000218180C18001810C214181ED
:1057200000218181704710B502460020108A20F4C4
:1057300070600B884C8823438C882343CC88234398
:105740001843108210BD0021018041808180C180FA
:10575000704721B1828942F40052828104E082893B
:105760004DF6FF731A4082817047028B02F47F422C
:105770000283028B0A430283704721B1828942F47B
:105780000042828103E08289C2F30E028281704767
:1057900021B1828A42F40062828204E0828A4FF25E
:1057A000FF731A4082827047C1F3080282807047FB
:1057B00001468888C0F308007047028A4FF6F073EC
:1057C0001A400282028A0A430282704721B182890A
:1057D00042F00202828104E082894FF6FD731A4092
:1057E0008281704782894FF2FF731A4082818289D9
:1057F0000A4382817047028A4FF6DF731A400282A1
:10580000028A0A430282704721B1028A42F480422E
:10581000028204E0028A4BF6FF731A40028270474C
:10582000818941F001018181704721B1828A42F072
:105830000802828204E0828A4FF6F7731A4082825D
:105840007047028BD2B20283028B42EA01220283AA
:10585000704721B1828A42F02002828204E0828A6B
:105860004FF6DF731A408282704721B1828A42F07C
:105870001002828204E0828A4FF6EF731A4082821D
:105880007047828A4FF6FB731A408282828A0A43EB
:105890008282704721B1828A42F00202828204E051
:1058A000828A4FF6FD731A40828270471AB1838A4A
:1058B0000B43838202E0838A8B4383827047F0B577
:1058C0000346002400260025002040F66A17B9424E
:1058D00000D100BF1846C1F3421401F01F06012792
:1058E00007FA06F5012C01D10C3004E0022C01D19D
:1058F000103000E014301AB107682F43076002E04F
:105900000768AF430760F0BD02460020B1F5007F95
:1059100000D100BF13880B400BB1012000E0002034
:10592000704701F40072B2F5007F00D100BFCA4396
:105930000280704770B50246002400230025002035
:1059400040F66A16B14200D100BFC1F3421501F022
:105950001F03012606FA03F3012D13D19689334064
:1059600017E00000001001400044004000480040E3
:10597000004C0040005000400014014000780040FE
:10598000007C0040022D02D1168A334001E0968A45
:1059900033400C12012606FA04F41688344013B181
:1059A0000CB1012000E0002070BD10B500220023E2
:1059B00040F66A14A14200D100BF0A1201249440AB
:1059C000A3B2DC43048010BD10B50446FE488442F7
:1059D00009D101214806FFF716FD00214FF00070A4
:1059E000FFF711FD08E001218806FFF70CFD0021FB
:1059F0004FF08060FFF707FD10BD30B50246002074
:105A00000023146824F002041460146844F00104B4
:105A1000146000E05B1C546804F001041CB94FF6EC
:105A2000FF74A342F6D1546804F001040CB90020BD
:105A30006CE08C79012C04D1146844F0800414606B
:105A400003E0146824F080041460CC79012C04D1A4
:105A5000146844F04004146003E0146824F0400427
:105A600014600C7A012C04D1146844F020041460F2
:105A700003E0146824F0200414604C7A012C04D153
:105A8000146844F01004146003E0146824F0100457
:105A900014608C7A012C04D1146844F0080414605A
:105AA00003E0146824F008041460CC7A012C04D1BB
:105AB000146844F00404146003E0146824F004043F
:105AC00014608C78A407CD7844EA05640D7944EA23
:105AD00005444D7944EA05540D886D1E2C43D4616C
