:020000040800F2
:10000000480E0020B9960008714E0008734E000893
:10001000774E00087B4E00087F4E0008000000006D
:10002000000000000000000000000000834E0008F7
:10003000854E000800000000874E0008894E000829
:10004000D3960008D3960008D3960008D3960008EC
:10005000D3960008D3960008D3960008D3960008DC
:10006000D3960008D3960008D3960008D3960008CC
:10007000D3960008D3960008D3960008D3960008BC
:10008000D3960008D3960008D3960008D3960008AC
:100090001D520008D3960008D3960008D396000896
:1000A000D3960008D3960008D3960008D39600088C
:1000B000F992000833930008F1930008D3960008E2
:1000C000D3960008D3960008D3960008D39600086C
:1000D000D396000823900008D3960008D396000812
:1000E000D3960008D3960008D3960008D39600084C
:1000F000C5940008E3950008D3960008D39600083D
:10010000D3960008D3960008D3960008D39600082B
:10011000D3960008D3960008B1940008D39600083F
:10012000D3960008D3960008D3960008D39600080B
:10013000D3960008D3960008D3960008D3960008FB
:10014000D3960008CD530008D3960008D396000834
:10015000D3960008D3960008D3960008D3960008DB
:10016000D3960008D3960008D3960008D3960008CB
:10017000D3960008D3960008D3960008D3960008BB
:10018000D3960008D3960008D3960008D3960008AB
:10019000D3960008D3960008D3960008D39600089B
:1001A000D3960008D3960008D396000800F002F812
:1001B00000F04CF80AA090E8000C82448344AAF1B5
:1001C0000107DA4501D100F041F8AFF2090EBAE8B3
:1001D0000F0013F0010F18BFFB1A43F0010318477B
:1001E00004E9000024E90000103A24BF78C878C16F
:1001F000FAD8520724BF30C830C144BF04680C602D
:10020000704700000023002400250026103A28BF74
:1002100078C1FBD8520728BF30C148BF0B60704778
:1002200066290EF0428364290BF004850020704794
:100230001FB50EF030FB0CF019F80400002000216F
:100240000DF098FDE0601FBD10B510BD0CF02AF94F
:100250001146FFF7EDFF04F090FD0CF048F903B4F0
:10026000FFF7F2FF03BC08F079FE000010B52DED9A
:10027000028BB0EE408A9FEDFE0A28EE000ADFED09
:10028000FD0A80EE201AF0EE418AB0EE680A0CF00A
:100290007FFEF94880ED000A9FEDF50A28EE000A7E
:1002A000DFEDF40A80EE201AF0EE418AB0EE680A23
:1002B0000CF07AFFB1EE400AEF4880ED010A9FEDA5
:1002C000EF0A80ED020A9FEDEA0A28EE000ADFED50
:1002D000E90A80EE201AF0EE418AB0EE680A0CF0CE
:1002E00063FFE54880ED030A90ED000A80ED040A03
:1002F0009FEDE20A80ED050A9FEDE00A80ED060A17
:100300009FEDDE0A80ED070AB7EE000A80ED080ACD
:10031000BDEC028B10BD10B52DED048BB0EE408A04
:10032000F0EE608A9FEDD20A28EE000ADFEDD10AD6
:1003300080EE201AB0EE419AB0EE490A0CF028FE89
:10034000F0EE409A9FEDCA0A28EE800ADFEDC90A56
:1003500080EE201AB0EE419AB0EE490A0CF018FE79
:1003600029EE800AC64880ED000A9FEDC10A28EEFA
:10037000000ADFEDC00A80EE201AB0EE419AB0EE1E
:10038000490A0CF005FEF1EE409A9FEDB90A28EEFD
:10039000800ADFEDB80A80EE201AB0EE419AB0EE86
:1003A000490A0CF001FF29EE800AB54880ED010AE8
:1003B0009FEDAF0A28EE000ADFEDAE0A80EE201AAC
:1003C000B0EE419AB0EE490A0CF0EEFEB1EE400AF2
:1003D000AB4880ED020A9FEDA60A28EE000ADFED89
:1003E000A50A80EE201AB0EE419AB0EE490A0CF050
:1003F000DBFEF0EE409A9FED9E0A28EE800ADFEDCC
:100400009D0A80EE201AB0EE419AB0EE490A0CF037
:10041000BFFD29EE800A9A4880ED030A9FED940AF9
:1004200028EE000ADFED930A80EE201AB0EE419A22
:10043000B0EE490A0CF0B8FEF1EE409A9FED8C0A3E
:1004400028EE800ADFED8B0A80EE201AB0EE419A8A
:10045000B0EE490A0CF0A8FE29EE800A884880ED2B
:10046000040A9FED830A28EE000ADFED820A80EE7F
:10047000201AB0EE419AB0EE490A0CF089FD80488E
:1004800080ED050A9FED7A0A28EE800ADFED790AF1
:1004900080EE201AB0EE419AB0EE490A0CF084FECC
:1004A000B1EE400A764880ED060A9FED710A28EE0B
:1004B000800ADFED700A80EE201AB0EE419AB0EEAD
:1004C000490A0CF065FDB1EE400A6D4880ED070A5F
:1004D0009FED6A0A80ED080ABDEC048B10BD10B5D3
:1004E0002DED068BB0EE408AF0EE608AB0EE419AB8
:1004F0009FED5F0A28EE000ADFED5E0A80EE201A0B
:10050000F0EE419AB0EE690A0CF042FDB0EE40AA5E
:100510009FED570A69EE000A9FED561A80EE810A98
:1005200030EE280AF0EE409A0CF032FD2AEE000A76
:10053000544880ED000A9FED4E0A28EE000ADFEDD8
:100540004D0A80EE201AF0EE419AB0EE690A0CF0E6
:100550001FFDB1EE40AA9FED460A69EE000A9FED2D
:10056000451A80EE810A30EE280AF0EE409A0CF02F
:100570001BFE2AEE000A434880ED010A9FED3C0A6B
:1005800028EE000ADFED3B0A80EE201AF0EE419AD9
:10059000B0EE690A0CF008FEB1EE400A394880ED71
:1005A000020A9FED330A28EE000ADFED320A80EEE0
:1005B000201AF0EE419AB0EE690A0CF0F5FDB0EEAB
:1005C00040AA9FED2B0A69EE000A9FED2A1A80EEE1
:1005D000810A30EE280AF0EE409A0CF0D9FC2AEE9F
:1005E000000A284880ED030A9FED210A28EE000A40
:1005F000DFED200A80EE201AF0EE419AB0EE690A93
:100600000CF0D2FDB1EE40AA9FED190A69EE000A86
:100610009FED181A80EE810A30EE280AF0EE409A1B
:100620000CF0C2FD2AEE000A164880ED040A9FED88
:10063000100A28EE000ADFED0F0A80EE201AF0EE15
:10064000419AB0EE690A0CF0A3FC0E4880ED050A51
:100650009FED070A69EE000A9FED061A80EE810AF7
:1006600030EE280AF0EE409A0CF09EFD0CE00000FF
:10067000DC0F4940000034437800002000000000F7
:100680009C000020C0000020B1EE400AFD4880ED33
:10069000060A1FED090A69EE000A1FED0A1A80EE2C
:1006A000810A30EE280AF0EE409A0CF071FCB1EEAF
:1006B000400AF44880ED070A1FED100A80ED080A91
:1006C000BDEC068B10BD10B52DED068BB0EE408A4B
:1006D000F0EE608AB0EE419AF0EE619A1FED1C0ACE
:1006E00028EE000A5FED1D0A80EE201AB0EE41AA46
:1006F000B0EE4A0A0CF04CFCF0EE40AA1FED240AC2
:1007000069EE800A1FED251A80EE810A78EE890ACB
:1007100030EE200AB0EE40AA0CF03AFC2AEE800A35
:10072000D94880ED000A1FED2E0A28EE000A5FED81
:100730002F0A80EE201AB0EE41AAB0EE4A0A0CF061
:1007400027FCF1EE40AA1FED360A69EE800A1FED84
:10075000371A80EE810A78EE890A30EE200AB0EE70
:1007600040AA0CF021FD2AEE800AC74880ED010A5C
:100770001FED410A28EE000A5FED420A80EE201AC2
:10078000B0EE41AAB0EE4A0A0CF00EFDB1EE400AFE
:10079000BD4880ED020A1FED4A0A28EE000A5FED0F
:1007A0004B0A80EE201AB0EE41AAB0EE4A0A0CF0D5
:1007B000FBFCF0EE40AA1FED520A69EE800A1FED25
:1007C000531A80EE810A78EE890A30EE200AB0EEE4
:1007D00040AA0CF0DDFB2AEE800AAB4880ED030A4C
:1007E0001FED5D0A28EE000A5FED5E0A80EE201A1A
:1007F000B0EE41AAB0EE4A0A0CF0D6FCF1EE40AAE7
:100800001FED650A69EE800A1FED661A80EE810A07
:1008100078EE890A30EE200AB0EE40AA0CF0C4FC53
:100820002AEE800A984880ED040A1FED6F0A28EE30
:10083000000A5FED700A80EE201AB0EE41AAB0EE19
:100840004A0A0CF0A5FB904880ED050A1FED780AD6
:1008500069EE800A1FED791A80EE810A78EE890A26
:1008600030EE200AB0EE40AA0CF09EFCB1EE400A39
:10087000854880ED060A1FED820A69EE800A1FEDA9
:10088000831A80EE810A78EE890A30EE200AB0EEF3
:1008900040AA0CF07DFBB1EE400A7B4880ED070AD0
:1008A0001FED8A0A80ED080ABDEC068B10BD1FED16
:1008B0008D0A764880ED000A1FED900A80ED010A4E
:1008C0001FED920A80ED020A1FED940A704880ED38
:1008D000000A9FED700A80ED010A1FED980A80ED75
:1008E000020A9FED6D0A6D4880ED000A1FED9D0A1A
:1008F00080ED010A1FED9F0A80ED020A9FED680A54
:10090000684880ED000A1FEDA30A80ED010ABAEEE7
:10091000030A80ED020A9FED640A644880ED070A2D
:100920009FED630A80ED0D0A9FED620A80ED130AC8
:100930009FED610A80ED190ABFEE000A80ED060AFC
:10094000BFEE000A80ED0C0AB7EE000A80ED120A35
:10095000BFEE000A80ED180A7047F0B52DED108B40
:1009600085B0B0EE408AF0EE608AB0EE419A04465F
:100970000D4616461FEDC20A28EE000A5FEDC30AB7
:1009800080EE201AB0EE41AAB0EE4A0A0CF000FB4D
:100990008DED040A38EE890A8DED030A9DED030AF8
:1009A0005FEDCD0A20EE200A5FEDCE0A80EE201A20
:1009B000B0EE41AAB0EE4A0A0CF0EAFAF0EE409A24
:1009C0001FEDD50A28EE000A5FEDD60A80EE201A48
:1009D000B0EE41AAB0EE4A0A0CF0E6FB8DED020A39
:1009E0001FEDDD0A28EE800A5FEDDE0A80EE201A98
:1009F000B0EE41AAB0EE4A0A0CF0CAFA8DED010A37
:100A000038EE890A8DED000A1FEDE70A28EE000A8C
:100A10005FEDE80A80EE201AB0EE41AAB0EE4A0A75
:100A20000CF0B6FADFED1E0A20EE200A60EE29AACD
:100A30001FEDF10A28EE000A5FEDF20A80EE201A9F
:100A4000B0EE41AAB0EE4A0A0CF0AEFBFAEE030A91
:100A500040EEC0AA1FEDFA0A28EE000A5FEDFB0A7D
:100A600080EE201AB0EE41AAB0EE4A0A0CF090FADD
:100A7000DFED090A20EE20BA9FED100A28EE800A69
:100A80001EE00000C0000020E4000020080100205B
:100A900014010020CDCCEE4200006B432001002069
:100AA00033F384432C010020D95F963E38010020A7
:100AB00013728041A8D70542A47071C1DC0F494070
:100AC000DFEDFE0A80EE201AB0EE41AAB0EE4A0A2F
:100AD0000CF05EFA4BEE00AA1FED080A28EE000AA1
:100AE000DFEDF60A80EE201AB0EE41AAB0EE4A0A17
:100AF0000CF05AFB5FED190A40EEC0AAC4ED00AA43
:100B00001FED120A28EE000ADFEDEC0A80EE201A33
:100B1000B0EE41AAB0EE4A0A0CF046FB5FED200AA7
:100B200020EE200A60EE29AA1FED1C0A28EE000A1A
:100B3000DFEDE20A80EE201AB0EE41AAB0EE4A0ADA
:100B40000CF026FAFAEE030A40EE80AA1FED250A01
:100B500028EE000ADFEDD90A80EE201AB0EE41AA95
:100B6000B0EE4A0A0CF020FB5FED350A20EE20BA09
:100B70001FED2E0A28EE800ADFEDD00A80EE201A43
:100B8000B0EE41AAB0EE4A0A0CF002FA4BEE00AA0F
:100B90001FED360A28EE000ADFEDC80A80EE201AA3
:100BA000B0EE41AAB0EE4A0A0CF0F2F95FED470A46
:100BB00040EE80AAC5ED00AA1FED400A28EE800A8B
:100BC00010EE101A08460DF0F5FD41EC1E0B9FEDDE
:100BD000BC0B53EC102B0DF0D5F941EC1D0BB0EE16
:100BE0004D0AF0EE6D0A0CF07BFAB0EE40CAF0EE62
:100BF00060CA9FEDB50B53EC102B51EC1C0B0DF0A4
:100C0000AFFB41EC1A0B9DED000A5FED540A20EE9C
:100C1000200ADFEDAA0A80EE201A11EE107A38467B
:100C20000DF0C8FD41EC1D0BB0EE4D0AF0EE6D0A63
:100C30000CF056FAB0EE40CAF0EE60CA9FEDA40B7D
:100C400053EC102B51EC1C0B0DF08AFB41EC1B0BF1
:100C500053EC1A2B0DF0C4FC41EC1F0B0DF0ACF85B
:100C60003060002005B0BDEC108BF0BD70B52DEDEF
:100C7000028B0446B0EE408A0D46002600EE104A74
:100C8000B8EE400A04EB4400934901EBC00080ED4C
:100C9000050A04EB440001EBC00080ED028A8F4896
:100CA000007818B10120BDEC028B70BD0CB1042C92
:100CB00001D90220F7E7B7EE000AB4EEC08AF1EEE0
:100CC00010FA01DD0320EEE71DB1012D01D0042053
:100CD000E9E7E0B204F02EFD0646A6B14DB9D6ED27
:100CE000480A70EE880AB0EE600AE0B206F083F8B7
:100CF0000BE0D6ED480A70EEC80AB0EE600AE0B22A
:100D000006F079F801E00520CDE70020CBE710B52B
:100D100000247348007810B3002071490870012442
:100D20000BE00021204604F01EFD00B903E004F1B1
:100D30000A00C0B210BD601CC4B2052CF1DB012456
:100D40000BE00021204605F06AFD00B903E004F144
:100D50001400C0B2EEE7601CC4B2052CF1DB002029
:100D6000E8E770B52DED028B0446B0EE408AF0EE58
:100D7000608A0025E0B204F0DDFC0546002D48D075
:100D800000EE104AB8EE400A04EB4400524901EB71
:100D9000C00080ED050A04EB440001EBC00080EDCB
:100DA000038A04EB440001EBC00090ED030ADFED81
:100DB0004D0A80EE201A04EB440001EBC00080EDE8
:100DC000021A04EB440001EBC000C0ED048A012CC0
:100DD00006D0022C09D0032C0CD0042C14D10EE028
:100DE000012141480AF0CAF90EE001213F480AF00A
:100DF000C5F909E001213E480AF0C0F904E00121EB
:100E00003C480AF0BBF900BF00BF0020BDEC028BDC
:100E100070BD6420FAE710B52DED0C8BB0EE408A62
:100E2000F0EE608AB0EE419AF0EE619AB0EE42AA1E
:100E3000F0EE62AAB0EE43BAF0EE63BAB2EE040A84
:100E4000C8EE000A244890ED061A90ED070A00EE5D
:100E5000810AB0EE40CAB2EE040AC8EE800A90EDF4
:100E60000C1A90ED0D0A00EE810AF0EE40CAB2EEC7
:100E7000040AC9EE000A90ED121A90ED130A00EE72
:100E8000810AB0EE40DAB2EE040AC9EE800A90EDB3
:100E9000181A90ED190A00EE810AF0EE40DAF0EE31
:100EA0004C0AB0EE4A0A0120FFF75BFFF0EE6C0A35
:100EB000B0EE6A0A0220FFF754FF1DE00000344341
:100EC00000000000008066400000000000606D40EF
:100ED00000000060669E70C0380100200200002003
:100EE0006400002000007A44000400400008004034
:100EF000001C004000200040F0EE4D0AB0EE4B0A0E
:100F00000320FFF72EFFF0EE6D0AB0EE6B0A04200F
:100F1000FFF727FF0020BDEC0C8B10BD2DE9F0473B
:100F200006460F46904699460024002501245BE0C2
:100F3000204604F0FFFB0546F5B3012C06D0022C39
:100F400016D0032C26D0042C49D136E095ED480A62
:100F5000FE48D0ED070A30EE600AF2EE040A20EEF9
:100F6000200AD0ED060A80EE201A86ED001A37E03E
:100F700095ED480AF548D0ED0D0A30EE600AF2EE24
:100F8000040A20EE200AD0ED0C0A80EE201A87ED2C
:100F9000001A25E095ED480AEC48D0ED130A30EE32
:100FA000600AF2EE040A20EE200AD0ED120A80EE6A
:100FB000201A88ED001A13E013E095ED480AE34883
:100FC000D0ED190A30EE600AF2EE040A20EE200A93
:100FD000D0ED180A80EE201A89ED001A00E000BF5B
:100FE00000E003E0601CC4B2052CA1DB00BF052CAF
:100FF00002D00120BDE8F0870020FBE72DE9F04F8B
:101000002DED108BA5B0F0EE40AAB0EE608AF0EEA8
:1010100041BA81460E4617469A469FEDCD0A8DEDA0
:10102000230A9FEDCB0A8DED220A9FEDC90A8DEDB3
:10103000210A9FEDC70A8DED200A20AB21AA22A923
:1010400023A8FFF76BFF1F901F9840B1C1A00AF0C3
:10105000B1FD012025B0BDEC108BBDE8F08F9FEDF8
:10106000C60AF0EE408A00201E906AEEAA0A48EEF8
:10107000080A48EEE80AB0EE600A0CF05DF9B0EE3E
:1010800040DA2DEE080A08EEEA0A6AEEAA0A48EEED
:10109000080A80EE201AF0EE41FA1FEE900A0DF0D9
:1010A00089FB21F000419FEDB50B53EC102B0DF0A7
:1010B00055FA01D20220CDE7B0EE6F0A0BF0D2FE56
:1010C000B0EE409AB0EE490A5FED840A60EE200A65
:1010D0009FEDAC1A80EE810A5FED880AB4EEE00A5B
:1010E000F1EE10FA04DD9FEDA80A39EE400A07E0A0
:1010F0001FED8E0A69EE000A9FEDA21A80EE810AAA
:101100008DED1A0A1FED930A29EE000ADFED9D0A04
:1011100080EE201A1FED970A30EE410A5FED990A22
:10112000B4EEE00AF1EE10FA10DD1FED9C0A29EE94
:10113000000ADFED940A80EE201A1FEDA00A30EEBF
:10114000410ADFED910A30EE600A0BE01FEDA50ABF
:1011500069EE000A9FED8B1A80EE810A5FEDA90A05
:1011600030EEC00A8DED1B0AB1EE4D0AB0EE40DA4A
:101170002DEE080A08EEEA0A6AEEAA0A48EE080A04
:1011800080EE201AF0EE41FAB0EE6F0A0BF06AFE24
:10119000B0EE409A1FEDB70A29EE000A9FED791ACA
:1011A000C0EE010A1FEDBB0AF4EEC00AF1EE10FA20
:1011B00004DD9FED750A39EE400A07E01FEDC10A14
:1011C00069EE000A9FED6F1A80EE810A8DED1C0A10
:1011D0001FEDC60A69EE000A9FED6A1A80EE810AC9
:1011E0005FEDCA0A30EEC00A5FEDCC0AB4EEE00A49
:1011F000F1EE10FA10DD1FEDCF0A29EE000ADFED47
:10120000610A80EE201A1FEDD30A30EE410ADFEDAD
:101210005E0A30EE600A0BE01FEDD80A69EE000AA4
:101220009FED581A80EE810A5FEDDC0A30EEC00AAD
:101230008DED1D0A012401259FED54EA00BF33E026
:101240001EEE100A0DF0B6FACDE90A0119A800EB5E
:10125000840090ED000ADDED230A30EEC00A10EEA6
:10126000101A08460DF0A6FA21F000419DED0A0B78
:1012700053EC102B0DF038F814D2254619A800EBCA
:10128000840090ED000ADDED230A30EEC00A10EE76
:10129000101A08460DF08EFA21F000410CF08CFD7A
:1012A0000EEE100A601CC4B2052CC9DB19A850F858
:1012B00025802AEEAA0A08EE080A08EEE80AB5EE2A
:1012C000C00AF1EE10FA01D20320C3E6012D01D0CD
:1012D000022D0ED101201E906AEEAA0A48EE080ADD
:1012E00048EEE80AB0EE600A0CF026F8B0EE40DAFC
:1012F00010E04FF0FF301E906AEEAA0A48EE080A8E
:1013000048EEE80AB0EE600A0CF016F8B1EE400ABA
:10131000B0EE40DA40460DF04DFA41EC1C0B53ECB8
:101320001C2B1BA00AF046FCC9F800802AEEAA0A72
:1013300008EE080A0BEEAB0A08EEE80ADFED190A20
:1013400030EE600ADFED180A30E0000038010020BE
:1013500000000000706F736974696F6E20746F20F5
:10136000616E676C652063616C63756C6174652088
:101370006572726F720A0000CDCCDB420000000083
:101380000000F03FDC0F49400000B4430000B943C7
:10139000746865746120312020202020202025667B
:1013A0000A00000000B9574767178A4730EE600A05
:1013B000B0EE001AC0EE010A9FEDFC1A80EE810A21
:1013C000DFEDFB0A80EE201A11EE10BA58460DF040
:1013D000F1F921F000411FED170B53EC102B0DF02C
:1013E000BDF801D2042035E62AEEAA0A08EE080A62
:1013F0000BEEAB0A08EEE80A5FED160A30EE600A63
:101400005FED170A70EE600AB0EE001A80EE810AF6
:101410009FEDE61AC0EE010A9FEDE50A80EE801A04
:10142000B0EE41CAB0EE4C0A0BF090FCB0EE40BA00
:10143000B0EE4B0ADFEDDF0A20EE200A5FED2F0A47
:1014400080EE201A8DED171AB0EE4B0ADFEDD90AA7
:1014500020EE200A1FED351AC0EE010A9FEDD50AD5
:1014600030EE800ADFEDD30AB4EEE00AF1EE10FAB6
:101470000ADD9FEDD00A2BEE000A5FED3E0A80EEFA
:10148000201AB1EE410A0BE09FEDCA0A2BEE000ACA
:101490001FED441AC0EE010A9FEDC60A30EE800A25
:1014A0008DED180A9DED180A10EE101A08460DF081
:1014B00081F941EC1C0B9DED170A10EE101A08463D
:1014C0000DF078F9CDE90A018DED00CB9DED0A0B09
:1014D00053EC102BB8A00AF06DFB9DED180ADDED62
:1014E000210A30EEC00A10EE101A08460DF062F91B
:1014F00021F0004141EC1C0B9DED170ADDED210AA6
:1015000030EEC00A10EE101A08460DF053F921F023
:10151000004153EC1C2BCDE90A019DED0A0B51EC67
:10152000100B0CF0E1FE02D29DED170A01E09DEDDB
:10153000180AB0EE40BA1BEE100A0DF03BF941EC70
:101540001C0B53EC1C2BA1A00AF034FB87ED00BA56
:101550001FED740A2BEE000ADFED960A80EE201ACA
:10156000F0EE41CAB0EE6C0A0BF012FDDFED9C0A02
:101570009FED9C1A41EE000AB0EE60CAB0EE4C0A34
:101580000BF0DAFEF0EE40DA8DEE2D0A10EE10BA16
:1015900058460DF00FF921F000411FED880B53EC78
:1015A000102B0CF0DBFF23D31FED8A0A2BEE000A71
:1015B000DFED800A80EE201A8DED0B1A9DED0B0AEF
:1015C0000BF0E6FCDFED790A9FED791A41EE000A97
:1015D00080EEAD0A10EE10BA58460DF0EBF821F08F
:1015E00000411FED9A0B53EC102B0CF0B7FF01D20A
:1015F00005202FE58DEE2D0AB0EE40CA0BF0A6FBBC
:10160000B0EE40AA1FEDA10A2BEE000ADFED690A39
:1016100080EE201AF0EE41CAB0EE6C0A0BF0B8FC76
:10162000DFED620A9FED621A41EE000A80EEAD0A1C
:10163000B0EE40CA0BF08AFBF0EE409AB0EE690AB9
:101640003AEE400A5FEDB10AB4EEE00AF1EE10FAAC
:1016500006DD3AEE690ADFED640A30EE600A01E069
:101660003AEE690A8DED120A3AEE290A5FEDBB0ADD
:10167000B4EEE00AF1EE10FA06DD3AEE290ADFEDEB
:101680005A0A30EE600A01E03AEE290A8DED130A9B
:10169000B1EE4A0A30EE690A5FEDC60AB4EEE00A1E
:1016A000F1EE10FA08DDB1EE4A0A30EE690ADFED1C
:1016B0004E0A30EE600A03E0B1EE4A0A30EE690AE3
:1016C0008DED140AB1EE4A0A30EE290A5FEDD30A15
:1016D000B4EEE00AF1EE10FA08DDB1EE4A0A30EE9F
:1016E000290ADFED410A30EE600A03E0B1EE4A0A52
:1016F00030EE290A8DED150A9DED150ADFED2D0A54
:1017000020EE200A5FEDE10A80EE201A11EE10BAF9
:1017100058460DF04FF841EC1C0B9DED140ADFED1F
:10172000250A20EE200A5FEDE90A80EE201A11EE6C
:1017300010BA58460DF03EF8CDE90A019DED130AA6
:10174000DFED1C0A20EE200A5FEDF20A80EE201A7F
:1017500011EE10BA58460DF02DF8CDE90801DDED77
:10176000120A9FED140A20EE800A5FEDFA0A80EE5D
:10177000201A11EE10BA58460DF01CF8CDE90601FA
:101780008DED04CB9DED0A0B8DED020B9DED080B4D
:101790008DED000B9DED060B53EC102B13A00AF002
:1017A00009FADFED18EA012472E0000000006B4343
:1017B00033F384430000344374686574612033203C
:1017C000202025662C2025660A00000074686574B8
:1017D0006120332020202020202025660A000000E0
:1017E000E7F3F5478016F447DC0FC9407432202533
:1017F000662C2020202566202020256620202025FC
:10180000660A00000000B9431EEE900A0CF0D2FFF9
:10181000CDE90A0111A800EB840090ED000A5FED0C
:101820001B0A60EE200A9FEDFA1A80EE810ADDEDB8
:10183000220A30EEC00A10EE10BA58460CF0BAFF79
:1018400021F000419DED0A0B53EC102B0CF04CFDE8
:101850001CD2254611A800EB840090ED000A5FED34
:101860002B0A60EE200A9FEDEA1A80EE810ADDED78
:10187000220A30EEC00A10EE10BA58460CF09AFF59
:1018800021F000410CF098FA0EEE900A601CC4B2F0
:10189000052CB9DB11A800EB850090ED000A5FED87
:1018A0003B0A20EE200ADFEDDA0A80EE201A11EE64
:1018B00010BA58460CF07EFF41EC1C0B53EC1C2B6D
:1018C000D4A00AF077F911A800EB850090ED000A8A
:1018D0005FED480A20EE200ADFEDCD0A80EE201AE7
:1018E00086ED001A96ED000ADFEDCD0A30EEC00A53
:1018F000D7ED000A30EE600A8DED0D0A96ED000A74
:101900005FED540A30EEC00AD7ED000A30EE600AEF
:101910008DED0E0A96ED000ADFEDC20A30EEC00A28
:10192000D7ED000A30EE600A8DED0F0A1FED4BFA7D
:10193000012437E01FEE100A0CF03CFF41EC1C0BB9
:101940000CA800EB840090ED000ADDED200A30EEDB
:10195000C00A10EE101A08460CF02CFF21F00041CE
:1019600053EC1C2BCDE90A019DED0A0B51EC100B39
:101970000CF0BAFC14D225460CA800EB840090EDC4
:10198000000ADDED200A30EEC00A10EE101A0846FB
:101990000CF010FF21F000410CF00EFA0FEE100ACF
:1019A000601CC4B2042CC5DB0CA800EB850090EDD4
:1019B000000A10EE101A08460CF0FCFE41EC1C0B5D
:1019C00053EC1C2B98A00AF0F5F80CA800EB85004E
:1019D00090ED000A8AED000A00BF002075E410B502
:1019E00094A00AF0E7F89CA00AF0E4F8A3A00AF09B
:1019F000E1F8ABA00AF0DEF8B3A00AF0DBF8BBA078
:101A00000AF0D8F8C1A00AF0D5F8C8A00AF0D2F8B8
:101A1000CDA00AF0CFF810BD11B59DB01D983328A8
:101A200083F0A581DFE810F0A31933003D004A00E0
:101A3000510058005F00A319A319A319680074008E
:101A40007A009200AA00AB00B200B900C000C70043
:101A5000CE00D500DC00E300EB00560269027C02F8
:101A60008F02A202B502C802DB02EE0201031403D8
:101A700027033A030B04620502068008900A590CFA
:101A8000300E0C10E311AA138D15A015B217B5A0D6
:101A90000AF090F803F004FDB7A00AF08BF803F009
:101AA00069B9B9A00AF086F803F006FD4FF4FA70A0
:101AB00007F034FAB8A00AF07DF8F0E7BBA00AF00E
:101AC00079F8C0A00AF076F8E9E7C4A00AF072F845
:101AD000C9A00AF06FF8E2E7CDA00AF06BF8D3A036
:101AE0000AF068F8DBE7D7A00AF064F805F0D8F848
:101AF000D9A00AF05FF8D2E7DCA00AF05BF803F0A7
:101B0000CFFC03F0D9FC4FF47A7007F007FAC6E770
:101B1000D9A00AF04FF805F0C3F8C0E7D9A00AF041
:101B200049F801220621104605F0CBF801220621D2
:101B3000022005F0C6F801220621032005F0C1F8B5
:101B400001220621042005F0BCF8A8E7D6A00AF07F
:101B500031F801220321104605F0B3F801220321D8
:101B6000022005F0AEF801220321084605F0A9F88D
:101B700001220321042005F0A4F890E78FE700215B
:101B80009FEDD10A0420FFF771F888E701219FED4E
:101B9000CE0A0420FFF76AF881E700219FEDCA0A08
:101BA0000320FFF763F87AE701219FEDC70A0320BE
:101BB000FFF75CF873E700219FEDC30A0220FFF7EF
:101BC00055F86CE701219FEDC00A0220FFF74EF89F
:101BD00065E700219FEDBC0A0120FFF747F85EE7AB
:101BE00001219FEDB90A0846FFF740F857E7DFEDFE
:101BF000B70A9FEDB70A0420FFF7B3F84FE7DFED10
:101C0000080A9FEDB30A0420FFF7ABF847E700008E
:101C1000DC0F4940743220697320202025660A00B9
:101C2000000000000000B4437434206973202020B9
:101C300025660A000D0ABBB6D3ADCAB9D3C3204985
:101C40004E4E464F532053434120C7FDB6AFB2E23C
:101C5000CAD4A3A10D0A0000CFEACFB8CDA8D0C541
:101C6000D0ADD2E9B2CEBCFB20494E4E464F5320F8
:101C700057494B4920A3A10D0A000000B7A2CBCDC4
:101C8000203120C2D6D1AFD7DCCFDFC9CFB5C4D683
:101C9000B4D0D0C6F7494420A3A10D0A000000002B
:101CA000B7A2CBCD203220CAB9D3C3C4ACC8CF4968
:101CB00044B3F5CABCBBAF534341BFD8D6C6C6F781
:101CC00020A3A10D0A000000B7A2CBCD203320BD78
:101CD000F8C8EBCEBBD6C3B9E9C1E3B2E2CAD4B30C
:101CE000CCD0F220A3A10D0A00000000B7A2CBCDFA
:101CF000203420BDF8C8EBD5FDB7B4D7AAB2E2CAEC
:101D0000D4B3CCD0F220A3A10D0A0000B7A2CBCD52
:101D1000203520BDF8C8EBB8DFB5CDCBD9B2E2CACB
:101D2000D4B3CCD0F220A3A10D0A0000B7A2CBCD32
:101D3000203620BDABD6B4D0D0C6F7B9D8BBFA2078
:101D4000A3A10D0A00000000B7A2CBCD203720CF01
:101D5000D4CABEB0EFD6FAD0C5CFA220A3A10D0A37
:101D6000000000000D0AD6B4D0D0C2D6D1AFB3CC9B
:101D7000D0F2A3A10D0A0000C2D6D1AFBDE1CAF8CE
:101D8000A3A10D0A000000000D0A534341B3F5CA98
:101D9000BCBBAFA3A10D0A00534341B3F5CABCBB02
:101DA000AFBDE1CAF8A3A10D0A0000000D0ABDF8FD
:101DB000C8EBCEBBD6C3B9E9C1E3B2E2CAD4A3A192
:101DC0000D0A0000CEBBD6C3B9E9C1E3B2E2CAD462
:101DD000BDE1CAF8A3A10D0A000000000D0ABDF87C
:101DE000C8EBD5FDB7B4D7AAC7D0BBBBB2E2CAD443
:101DF000A3A10D0A00000000D5FDB7B4D7AAC7D033
:101E0000BBBBB2E2CAD4BDE1CAF8A3A10D0A00006F
:101E10000D0ABDF8C8EBB8DFB5CDCBD9C7D0BBBB79
:101E2000B2E2CAD4A3A10D0A00000000B8DFB5CD0C
:101E3000CBD9C7D0BBBBB2E2CAD4BDE1CAF8A3A11B
:101E40000D0A00000D0AD6B4D0D0C6F7B9D8BBFA37
:101E5000A3A10D0A00000000D6B4D0D0C6F7B9D8AF
:101E6000BBFABDE1CAF8A3A10D0A00007374617248
:101E70007420616C6C200A00636C6F736520616C68
:101E80006C200A007772697465206D6F746F722020
:101E9000746F20706F736974696F6E2053206D6F5B
:101EA0006465200A000000007772697465206D6F18
:101EB000746F7220746F20706F736974696F6E2015
:101EC0006D6F6465200A0000CDCCCC3D000010424F
:101ED0000000C8425FEDAE3A1FEDAF3A5FEDB02AA9
:101EE000B2EE042A5FEDB21A1FEDB31A5FEDB40A29
:101EF000B2EE040AFEF78FFFD1E55FEDB73A1FEDB2
:101F0000B83A5FEDB92AB2EE042A5FEDBB1A1FEDB5
:101F1000BC1A5FEDBD0A1FEDBE0AFEF77CFFBEE5F1
:101F20005FEDC13A1FEDC23A5FEDC32AB2EE042A5B
:101F30005FEDC51A1FEDC61A5FEDC70ABAEE040AB7
:101F4000FEF769FFABE55FEDCA3A1FEDCB3AF2EE63
:101F5000042A1FEDCD2A5FEDCE1A1FEDCF1AF2EE47
:101F6000040A1FEDD10AFEF756FF98E55FEDD43A5B
:101F70001FEDD53AF2EE042A1FEDD72A5FEDD81AED
:101F80001FEDD91A5FEDDA0A1FEDDB0AFEF743FFFA
:101F900085E55FEDDD3A1FEDDE3AF2EE042A1FED36
:101FA000E02A5FEDE11A1FEDE21AFAEE040A1FEDD6
:101FB000E40AFEF730FF72E55FEDE73AB2EE043A6D
:101FC0005FEDE92A1FEDEA2A5FEDEB1AB2EE041A83
:101FD0005FEDED0A1FEDEE0AFEF71DFF5FE55FED19
:101FE000F03AB2EE043A5FEDF22A1FEDF32A5FED0C
:101FF000F41A1FEDF51A5FEDF60A1FEDF70AFEF76A
:102000000AFF4CE55FEDFA3AB2EE043A5FEDFC2AC6
:102010001FEDFD2ADFEDFE1ABAEE041ADFEDFC0A11
:102020009FEDFB0AFEF7F7FE39E5F2EE043A9FED6D
:10203000F83ADFEDF72A9FEDF62AF2EE041A9FED4B
:10204000F41ADFEDF30A9FEDF20AFEF7E4FE26E54F
:10205000F2EE043A9FEDEE3ADFEDED2A9FEDEC2A29
:10206000DFEDEB1A9FEDEA1ADFEDE90A9FEDE80AD2
:10207000FEF7D1FE13E5F2EE043A9FEDE53ADFED0F
:10208000E42A9FEDE32AFAEE041A9FEDE11ADFED50
:10209000E00A9FEDDF0AFEF7BEFE00E518AB19AAC5
:1020A0001AA91BA8FEF73AFF1790179818B1D9A0E4
:1020B00009F080FDC2E01B980CF07CFB21F0004190
:1020C0009FEDE00B53EC102BCDE912019DED120BAF
:1020D00051EC100B0CF008F902D29FEDCD0A01E093
:1020E0009DED1B0A8DED1B0A1A980CF063FB21F085
:1020F00000419FEDD40B53EC102BCDE912019DED67
:10210000120B51EC100B0CF0EFF802D29FEDC00A4D
:1021100001E09DED1A0A8DED1A0A19980CF04AFBA0
:1021200021F000419FEDC70B53EC102BCDE91201BC
:102130009DED120B51EC100B0CF0D6F802D29FED76
:10214000B40A01E09DED190A8DED190A18980CF0FA
:1021500031FB21F000419FEDBB0B53EC102BCDE97F
:1021600012019DED120B51EC100B0CF0BDF802D2D8
:102170009FEDA70A01E09DED180A8DED180A9FED6D
:10218000A40A8DED160A9FEDA20A8DED150A9FEDAA
:10219000A00A8DED140A18980CF00CFBCDE9120181
:1021A00019980CF007FBCDE910011A980CF002FB0E
:1021B000CDE90E011B980CF0FDFACDE90C01DDE92B
:1021C0001201CDE90401DDE91001CDE90201DDE9EB
:1021D0000E01CDE900019DED0C0B53EC102B9BA0E3
:1021E00009F0E8FC14AA15A916A8DDED181A9DED52
:1021F000191ADDED1A0A9DED1B0AFEF7AEFB1498C5
:102200000CF0D8FACDE9120115980CF0D3FACDE90B
:10221000100116980CF0CEFACDE90E01DDE912019D
:10222000CDE90201DDE91001CDE900019DED0E0BC4
:1022300053EC102B89A009F0BDFC00BF2FE418ABB4
:1022400019AA1AA91BA8FEF769FE1790179818B1CA
:1022500070A009F0AFFC48E11B980CF0ABFA21F03C
:1022600000419FED780B53EC102BCDE912019DED51
:10227000120B51EC100B0CF037F802D29FED640AF0
:1022800001E09DED1B0A8DED1B0A1A980CF092FAE5
:1022900021F000419FED6B0B53EC102BCDE91201A7
:1022A0009DED120B51EC100B0CF01EF802D29FEDBD
:1022B000580A01E09DED1A0A8DED1A0A19980CF0E2
:1022C00079FA21F000419FED5F0B53EC102BCDE923
:1022D00012019DED120B51EC100B0CF005F802D21F
:1022E0009FED4B0A01E09DED190A8DED190A189832
:1022F0000CF060FA21F000419FED520B53EC102BD3
:10230000CDE912019DED120B51EC100B0BF0ECFF1F
:1023100002D29FED3F0A01E09DED180A8DED180AEB
:102320009FED3B0A8DED160A9FED390A8DED150ADA
:102330009FED370A8DED140A14AA15A916A8DDED34
:10234000181A9DED191ADDED1A0A9DED1B0AFEF70C
:1023500004FB14980CF02EFACDE9120115980CF03C
:1023600029FACDE9100116980CF024FACDE90E01F6
:10237000DDE91201CDE90201DDE91001CDE900013D
:102380009DED0E0B53EC102B37A009F013FC1898A1
:102390000CF010FACDE9120119980CF00BFACDE906
:1023A00010011A980CF006FACDE90E011B980CF0FA
:1023B00001FACDE90C01DDE91201CDE90401DDE905
:1023C0001001CDE90201DDE90E01CDE900019DED2D
:1023D0000C0B53EC102B2CA009F0ECFB18AB19AA3A
:1023E0001AA91BA89DED141ADDED150A9DED160A1C
:1023F000FEF704FE18980CF0DDF9CDE912011998EA
:102400000CF0D8F9CDE910011A980CF0D3F951E08D
:1024100000000000206572726F72207768696C6539
:1024200020696E2070726F63657373696E672070C8
:102430006F736974696F6E20746F20616E676C656D
:102440000A0000007B14AE47E17A843F25662C2504
:10245000662C25662C25660A0000000025662C20C7
:1024600025662C2025660A00706F736974696F6E8B
:102470002020203A202025662C20202025662C2094
:1024800020202025660A000063757272656E742034
:10249000616E676C652020202020203A2020256670
:1024A0002C20202025662C2020202025662020207E
:1024B00025660A00CDE90E011B980CF07BF9CDE9E9
:1024C0000C01DDE91201CDE90401DDE91001CDE9DE
:1024D0000201DDE90E01CDE900019DED0C0B53EC8D
:1024E000102BF7A009F066FB00BF05E518AB19AA91
:1024F0001AA91BA8FEF712FD1790179818B1FBA098
:1025000009F058FB91E01B980CF054F921F00041C0
:102510001FED340B53EC102BCDE914019DED140B82
:1025200051EC100B0BF0E0FE02D21FED470A01E068
:102530009DED1B0A8DED1B0A1A980CF03BF921F05A
:1025400000411FED400B53EC102BCDE914019DED24
:10255000140B51EC100B0BF0C7FE02D21FED540A06
:1025600001E09DED1A0A8DED1A0A19980CF022F976
:1025700021F000411FED4D0B53EC102BCDE9140160
:102580009DED140B51EC100B0BF0AEFE02D21FEDC3
:10259000600A01E09DED190A8DED190A18980CF0FA
:1025A00009F921F000411FED590B53EC102BCDE937
:1025B00014019DED140B51EC100B0BF095FE02D2A3
:1025C0001FED6D0A01E09DED180A8DED180AD64A3F
:1025D000D649D748DDED181A9DED191ADDED1A0A16
:1025E0009DED1B0AFEF7B9F9CF4800680CF0E2F840
:1025F000CDE91401CD4800680CF0DCF8CDE91201FA
:10260000CB4800680CF0D6F8CDE91001DDE91401E3
:10261000CDE90201DDE91201CDE900019DED100BCC
:1026200053EC102BC3A009F0C5FA65E418AB19AA46
:102630001AA91BA8FEF772FC1790179820B1AFF2E9
:102640002C2009F0B7FA6EE21B980CF0B3F821F0D9
:1026500000411FED840B53EC102BCDE910019DEDD3
:10266000100B51EC100B0BF03FFE02D21FED980A3D
:1026700001E09DED1B0A8DED1B0A1A980CF09AF8EB
:1026800021F000411FED910B53EC102BCDE910010F
:102690009DED100B51EC100B0BF026FE02D21FED3E
:1026A000A40A01E09DED1A0A8DED1A0A19980CF0A2
:1026B00081F821F000411FED9D0B53EC102BCDE96B
:1026C00010019DED100B51EC100B0BF00DFE02D222
:1026D0001FEDB10A01E09DED190A8DED190A189858
:1026E0000CF068F821F000411FEDAA0B53EC102B01
:1026F000CDE910019DED100B51EC100B0BF0F4FD2A
:1027000002D21FEDBD0A01E09DED180A8DED180AF9
:10271000874890ED000AF7EE000A30EE200A8DEDB2
:10272000110A13AB14AA15A916A87F4C94ED001A30
:102730007E4CD4ED000A9DED110AFEF75FFC12906D
:10274000129800287ED113980CF034F8CDE90C01D2
:1027500014980CF02FF8CDE90A0115980CF02AF81E
:10276000CDE9080116980CF025F8CDE90601DDE960
:102770000C01CDE90401DDE90A01CDE90201DDE941
:102780000801CDE900019DED060B53EC102B4EA086
:1027900009F010FA9DED160ADDED1B0A30EE600A15
:1027A0008DED090A09980CF005F821F000419FED24
:1027B0006C0B53EC102BCDE90A019DED0A0B51EC8B
:1027C000100B0BF0DFFBCDE90C019DED0C0B51EC78
:1027D000100B0BF0F1FA11909DED150ADDED1A0AC0
:1027E00030EE600A8DED090A09980BF0E3FF21F045
:1027F00000419FED5B0B53EC102BCDE90A019DEDE1
:102800000A0B51EC100B0BF0BDFBCDE90C019DED5B
:102810000C0B51EC100B0BF0CFFA10909DED140A3D
:10282000DDED190A30EE600A8DED090A09980BF00A
:10283000C1FF21F000419FED4A0B53EC102BCDE975
:102840000A0100E06BE19DED0A0B51EC100B0BF05F
:1028500099FBCDE90C019DED0C0B51EC100B0BF02D
:10286000ABFA0F909DED130ADDED180A30EE600A09
:102870008DED090A09980BF09DFF21F000419FEDB5
:10288000380B53EC102BCDE90A019DED0A0B51ECEE
:10289000100B0BF077FBCDE90C019DED0C0B51EC0F
:1028A000100B0BF089FA0E909DED110AF3EE0E0A53
:1028B000B4EEE00AF1EE10FA56DDB3EE0E0A55E082
:1028C0007461726765742020616E676C65202020DA
:1028D0002020203A202025662C20202025662C2030
:1028E000202020256620202025660A00206572729F
:1028F0006F72207768696C6520696E2070726F63F3
:10290000657373696E6720706F736974696F6E2089
:10291000746F20616E676C6520696E20636F6D6DEA
:10292000616E642033390A00280000202400002052
:1029300020000020737461727420706F696E7420BF
:10294000706F736974696F6E2020203A20202566AD
:102950002C20202025662C2020202025660A00001F
:102960009A9999999999A93F9DED110A8DED110AAE
:102970009DED100AF3EE0E0AB4EEE00AF1EE10FA45
:1029800002DDB3EE0E0A01E09DED100A8DED100A96
:102990009DED0F0AF3EE0E0AB4EEE00AF1EE10FA26
:1029A00002DDB3EE0E0A01E09DED0F0A8DED0F0A78
:1029B0009DED0E0ADFEDFE0AB4EEE00AF1EE10FA2C
:1029C00002DD9FEDFB0A01E09DED0E0A8DED0E0A82
:1029D00016980BF0EFFE21F000419FEDF60B53EC43
:1029E000102BCDE90C019DED0C0B51EC100B0BF0F5
:1029F0007BFC02D29FEDF10A01E09DED160A8DED00
:102A0000160A15980BF0D6FE21F000419FEDE90B58
:102A100053EC102BCDE90C019DED0C0B51EC100B80
:102A20000BF062FC02D29FEDE50A01E09DED150A74
:102A30008DED150A14980BF0BDFE21F000419FEDBD
:102A4000DD0B53EC102BCDE90C019DED0C0B51EC83
:102A5000100B0BF049FC02D29FEDD80A01E09DED6E
:102A6000140A8DED140A13980BF0A4FE21F0004116
:102A70009FEDD00B53EC102BCDE90C019DED0C0B11
:102A800051EC100B0BF030FC02D29FEDCC0A01E0B0
:102A90009DED130A8DED130A0E980BF08BFECDE918
:102AA0000C010F980BF086FECDE90A0110980BF08F
:102AB00081FECDE9080111980BF07CFECDE90601FD
:102AC000DDE90C01CDE90401DDE90A01CDE90201EE
:102AD000DDE90801CDE900019DED060B53EC102B5B
:102AE000B7A009F067F8DDED0E3A9DED0F3ADDED88
:102AF000102A9DED112ADDED131A9DED141ADDED5E
:102B0000150A9DED160AFEF786F9B44890ED000A05
:102B1000F7EE000A30EE200A80ED000A02E0B0A0D5
:102B200009F048F800BFE0E418AB19AA1AA91BA8DD
:102B3000FEF7F4F91790179820B1AFF2287009F05A
:102B400039F800E21B980BF035FE21F000419FEDB3
:102B5000AB0B53EC102BCDE910019DED100B51EC9C
:102B6000100B0BF0C1FB02D29FED940A01E09DED2A
:102B70001B0A8DED1B0A1A980BF01CFE21F0004178
:102B80009FED9E0B53EC102BCDE910019DED100B2A
:102B900051EC100B0BF0A8FB02D29FED880A01E06C
:102BA0009DED1A0A8DED1A0A19980BF003FE21F01B
:102BB00000419FED920B53EC102BCDE910019DEDE0
:102BC000100B51EC100B0BF08FFB02D29FED7B0A28
:102BD00001E09DED190A8DED190A18980BF0EAFD38
:102BE00021F000419FED850B53EC102BCDE9100136
:102BF0009DED100B51EC100B0BF076FB02D29FED0C
:102C00006F0A01E09DED180A8DED180A734890EDEA
:102C1000000AF7EE000A30EE600A8DED110A13ABE0
:102C200014AA15A916A8774C94ED001A764CD4ED89
:102C3000000A9DED110AFEF7E1F9129012980028A2
:102C40007ED113980BF0B6FDCDE90C0114980BF072
:102C5000B1FDCDE90A0115980BF0ACFDCDE90801F5
:102C600016980BF0A7FDCDE90601DDE90C01CDE9D1
:102C70000401DDE90A01CDE90201DDE90801CDE940
:102C800000019DED060B53EC102B60A008F092FFA5
:102C90009DED160ADDED1B0A30EE600A8DED090A86
:102CA00009980BF087FD21F000411FEDD30B53EC89
:102CB000102BCDE90A019DED0A0B51EC100B0BF026
:102CC00061F9CDE90C019DED0C0B51EC100B0BF0F3
:102CD00073F811909DED150ADDED1A0A30EE600AC9
:102CE0008DED090A09980BF065FD21F000411FEDFB
:102CF000E40B53EC102BCDE90A019DED0A0B51ECCE
:102D0000100B0BF03FF9CDE90C019DED0C0B51ECD4
:102D1000100B0BF051F810909DED140ADDED190A1F
:102D200030EE600A8DED090A09980BF043FD21F0A1
:102D300000411FEDF50B53EC102BCDE90A0100E02B
:102D4000FCE09DED0A0B51EC100B0BF01BF9CDE9EB
:102D50000C019DED0C0B51EC100B0BF02DF80F90AE
:102D60009DED130ADDED180A30EE600A8DED090ABB
:102D700009980BF01FFD21F000419FED2E0B53EC45
:102D8000102BCDE90A019DED0A0B51EC100B0BF055
:102D9000F9F8CDE90C019DED0C0B51EC100B0BF08B
:102DA0000BF80E909DED110AF3EE0E0A46E00000BE
:102DB0000000C8429A9999999999B93F000000007A
:102DC00073706565642020202025662020202566FC
:102DD000202020256620202025660A0020000020D3
:102DE0006E6F20696E7665727365206F7574206FE3
:102DF000662072616E67650A000000007B14AE47B2
:102E0000E17A843F2800002024000020616E676C76
:102E1000652020202020203A202025662C202020FC
:102E200025662C2020202025662020202025660ACB
:102E3000000000009A9999999999A93FB4EEE00A87
:102E4000F1EE10FA02DDB3EE0E0A01E09DED110A7B
:102E50008DED110A9DED100AF3EE0E0AB4EEE00AB4
:102E6000F1EE10FA02DDB3EE0E0A01E09DED100A5C
:102E70008DED100A9DED0F0AF3EE0E0AB4EEE00A96
:102E8000F1EE10FA02DDB3EE0E0A01E09DED0F0A3D
:102E90008DED0F0A9DED0E0A5FED3B0AB4EEE00AE0
:102EA000F1EE10FA02DD1FED3E0A01E09DED0E0A83
:102EB0008DED0E0A0E980BF07DFCCDE90C010F98FC
:102EC0000BF078FCCDE90A0110980BF073FCCDE90A
:102ED000080111980BF06EFCCDE90601DDE90C014B
:102EE000CDE90401DDE90A01CDE90201DDE90801CE
:102EF000CDE900019DED060B53EC102BAFF2401015
:102F000008F058FEDDED0E3A9DED0F3ADDED102A8A
:102F10009DED112ADDED131A9DED141ADDED150A54
:102F20009DED160AFDF777FFFD4890ED000AF7EEDC
:102F3000000A30EE600A80ED000A03E0AFF2601094
:102F400008F038FE00BFEEE518AB19AA1AA91BA8B5
:102F5000FDF7E4FF1790179820B1AFF6483008F05E
:102F600029FEB9E11B980BF025FC21F000411FED73
:102F70005D0B53EC102BCDE910019DED100B51ECC6
:102F8000100B0BF0B1F902D21FED740A01E09DEDB8
:102F90001B0A8DED1B0A1A980BF00CFC21F0004166
:102FA0001FED6A0B53EC102BCDE910019DED100BBA
:102FB00051EC100B0BF098F902D21FED800A01E0E2
:102FC0009DED1A0A8DED1A0A19980BF0F3FB21F00A
:102FD00000411FED760B53EC102BCDE910019DED58
:102FE000100B51EC100B0BF07FF902D21FED8D0A84
:102FF00001E09DED190A8DED190A18980BF0DAFB26
:1030000021F000411FED830B53EC102BCDE9100193
:103010009DED100B51EC100B0BF066F902D21FED79
:10302000990A01E09DED180A8DED180ABC4890ED53
:10303000000AF3EE0E0A30EE200A8DED110A13ABF2
:1030400014AA15A916A8B74C94ED001AB64CD4EDE5
:10305000000A9DED110AFDF7D1FF12901298002889
:103060007DD113980BF0A6FBCDE90C0114980BF061
:10307000A1FBCDE90A0115980BF09CFBCDE90801F5
:1030800016980BF097FBCDE90601DDE90C01CDE9BF
:103090000401DDE90A01CDE90201DDE90801CDE91C
:1030A00000019DED060B53EC102BAFF2A02008F0B1
:1030B00081FD9DED160ADDED1B0A30EE600A8DEDF7
:1030C000090A09980BF076FB21F000411FEDC70BB0
:1030D00053EC102BCDE90A019DED0A0B51EC100BBE
:1030E0000AF050FFCDE90C019DED0C0B51EC100BDB
:1030F0000AF062FE11909DED150ADDED1A0A30EE20
:10310000600A8DED090A09980BF054FB21F000418B
:103110001FEDD80B53EC102BCDE90A019DED0A0BE6
:1031200051EC100B0AF02EFFCDE90C019DED0C0BBC
:1031300051EC100B0AF040FE10909DED140ADDEDED
:10314000190A30EE600A8DED090A09980BF032FB7E
:1031500021F000411FEDE90B53EC102B00E0B6E02D
:10316000CDE90A019DED0A0B51EC100B0AF00AFFA4
:10317000CDE90C019DED0C0B51EC100B0AF01CFE7F
:103180000F909DED130ADDED180A30EE600A8DED0B
:10319000090A09980BF00EFB21F000411FEDFB0B13
:1031A00053EC102BCDE90A019DED0A0B51EC100BED
:1031B0000AF0E8FECDE90C019DED0C0B51EC100B73
:1031C0000AF0FAFD0E909DED110AF3EE0E0AB4EE30
:1031D000E00AF1EE10FA02DDB3EE0E0A01E09DED19
:1031E000110A8DED110A9DED100AF3EE0E0AB4EEF0
:1031F000E00AF1EE10FA02DDB3EE0E0A01E09DEDF9
:10320000100A8DED100A9DED0F0AF3EE0E0AB4EED2
:10321000E00AF1EE10FA02DDB3EE0E0A01E09DEDD8
:103220000F0A8DED0F0A9DED0E0ADFED400AB4EE98
:10323000E00AF1EE10FA02DD9FED3C0A01E09DED9F
:103240000E0A8DED0E0A0E980BF0B4FACDE90C01C2
:103250000F980BF0AFFACDE90A0110980BF0AAFA1B
:10326000CDE9080111980BF0A5FACDE90601DDE9D9
:103270000C01CDE90401DDE90A01CDE90201DDE936
:103280000801CDE900019DED060B53EC102BAFF2C8
:10329000D04008F08FFCDDED0E3A9DED0F3ADDEDEC
:1032A000102A9DED112ADDED131A9DED141ADDEDA6
:1032B000150A9DED160AFDF7AEFD194890ED000ABE
:1032C000F3EE0E0A30EE200A80ED000A03E0AFF2C2
:1032D000F04008F06FFC00BF25E418AB19AA1AA94A
:1032E0001BA8FDF71BFE1790179820B1AFF6DC6006
:1032F00008F060FCC7E11B980BF05CFA21F000417C
:103300009FED0B0B53EC102BCDE910019DED100B35
:1033100051EC100B0AF0E8FF10D29FED070A0FE006
:103320002000002028000020240000200000C842C7
:103330007B14AE47E17A843F000000009DED1B0A3C
:103340008DED1B0A1A980BF035FA21F000411FEDA4
:10335000080B53EC102BCDE910019DED100B51EC37
:10336000100B0AF0C1FF02D21FED0D0A01E09DED26
:103370001A0A8DED1A0A19980BF01CFA21F0004177
:103380001FED150B53EC102BCDE910019DED100B2B
:1033900051EC100B0AF0A8FF02D21FED190A01E050
:1033A0009DED190A8DED190A18980BF003FA21F01A
:1033B00000411FED210B53EC102BCDE910019DEDC9
:1033C000100B51EC100B0AF08FFF02D21FED260AF2
:1033D00001E09DED180A8DED180AFE4890ED000AF7
:1033E000F3EE0E0A30EE600A8DED110A13AB14AA4B
:1033F00015A916A8F84C94ED001AF84CD4ED000A63
:103400009DED110AFDF7FAFD1290129800287DD16A
:1034100013980BF0CFF9CDE90C0114980BF0CAF911
:10342000CDE90A0115980BF0C5F9CDE90801169808
:103430000BF0C0F9CDE90601DDE90C01CDE904018D
:10344000DDE90A01CDE90201DDE90801CDE900016C
:103450009DED060B53EC102BAFF2506008F0AAFB69
:103460009DED160ADDED1B0A30EE600A8DED090AAE
:1034700009980BF09FF921F000419FEDD90B53EC17
:10348000102BCDE90A019DED0A0B51EC100B0AF04F
:1034900079FDCDE90C019DED0C0B51EC100B0AF000
:1034A0008BFC11909DED150ADDED1A0A30EE600AD5
:1034B0008DED090A09980BF07DF921F000419FED8F
:1034C000C80B53EC102BCDE90A019DED0A0B51EC12
:1034D000100B0AF057FDCDE90C019DED0C0B51ECE2
:1034E000100B0AF069FC10909DED140ADDED190A2D
:1034F00030EE600A8DED090A09980BF05BF921F0B6
:1035000000419FEDB70B53EC102B00E0B6E0CDE986
:103510000A019DED0A0B51EC100B0AF033FDCDE9C9
:103520000C019DED0C0B51EC100B0AF045FC0F90BB
:103530009DED130ADDED180A30EE600A8DED090AE3
:1035400009980BF037F921F000419FEDA50B53ECE2
:10355000102BCDE90A019DED0A0B51EC100B0AF07E
:1035600011FDCDE90C019DED0C0B51EC100B0AF097
:1035700023FC0E909DED110AF3EE0E0AB4EEE00A64
:10358000F1EE10FA02DDB3EE0E0A01E09DED110A34
:103590008DED110A9DED100AF3EE0E0AB4EEE00A6D
:1035A000F1EE10FA02DDB3EE0E0A01E09DED100A15
:1035B0008DED100A9DED0F0AF3EE0E0AB4EEE00A4F
:1035C000F1EE10FA02DDB3EE0E0A01E09DED0F0AF6
:1035D0008DED0F0A9DED0E0A5FEDAC0AB4EEE00A28
:1035E000F1EE10FA02DD1FEDAF0A01E09DED0E0ACB
:1035F0008DED0E0A0E980BF0DDF8CDE90C010F9859
:103600000BF0D8F8CDE90A0110980BF0D3F8CDE90A
:10361000080111980BF0CEF8CDE90601DDE90C01A7
:10362000CDE90401DDE90A01CDE90201DDE9080186
:10363000CDE900019DED060B53EC102BAFF6800099
:1036400008F0B8FADDED0E3A9DED0F3ADDED102AE7
:103650009DED112ADDED131A9DED141ADDED150A0D
:103660009DED160AFDF7D7FB5A4890ED000AF3EEE0
:103670000E0A30EE600A80ED000A03E0AFF6A0000B
:1036800008F098FA00BF5EE418AB19AA1AA91BA8A3
:10369000FDF744FC1790179818B1534808F08AFAC0
:1036A000CDE11B980BF086F821F000411FEDE00BF7
:1036B00053EC102BCDE910019DED100B51EC100BCC
:1036C0000AF012FE02D21FEDE40A01E09DED1B0A92
:1036D0008DED1B0A1A980BF06DF821F000411FEDDB
:1036E000EC0B53EC102BCDE910019DED100B51ECC0
:1036F000100B0AF0F9FD02D21FEDF10A01E09DED79
:103700001A0A8DED1A0A19980BF054F821F00041AD
:103710001FEDF90B53EC102BCDE910019DED100BB3
:1037200051EC100B0AF0E0FD02D29FED300A01E0EF
:103730009DED190A8DED190A18980BF03BF821F050
:1037400000419FED2B0B53EC102BCDE910019DEDAB
:10375000100B51EC100B0AF0C7FD02D29FED230AAB
:1037600001E09DED180A8DED180A1C4890ED000A45
:10377000F3EE0E0A30EE200A8DED110A13AB14AAF7
:1037800015A916A8144C94ED001ADDED110A114C80
:1037900094ED000AFDF732FC1290129800287DD1BA
:1037A00013980BF007F8CDE90C0114980BF002F810
:1037B000CDE90A0115980AF0FDFFCDE90801169838
:1037C0000AF0F8FFCDE90601DDE90C01CDE90401BD
:1037D00012E000002000002028000020240000202B
:1037E0009A9999999999B93F14240008000000000A
:1037F0007B14AE47E17A843FDDE90A01CDE902019D
:10380000DDE90801CDE900019DED060B53EC102B1D
:10381000AFF6082008F0CEF99DED160ADDED1B0A83
:1038200030EE600A8DED090A09980AF0C3FF21F015
:1038300000411FED150B53EC102BCDE90A019DED56
:103840000A0B51EC100B0AF09DFBCDE90C019DED2C
:103850000C0B51EC100B0AF0AFFA11909DED150A0C
:10386000DDED1A0A30EE600A8DED090A09980AF0BA
:10387000A1FF21F000411FED260B53EC102BCDE9E9
:103880000A019DED0A0B51EC100B0AF07BFBCDE910
:103890000C019DED0C0B51EC100B00E0CAE00AF09E
:1038A0008BFA10909DED140ADDED190A30EE600AD6
:1038B0008DED090A09980AF07DFF21F000411FED06
:1038C000380B53EC102BCDE90A019DED0A0B51EC9E
:1038D000100B0AF057FBCDE90C019DED0C0B51ECE0
:1038E000100B0AF069FA0F909DED130ADDED180A2E
:1038F00030EE600A8DED090A09980AF05BFF21F0AD
:1039000000411FED490B53EC102BCDE90A019DED51
:103910000A0B51EC100B0AF035FBCDE90C019DEDC3
:103920000C0B51EC100B0AF047FA0E909DED110AAA
:10393000F3EE0E0AB4EEE00AF1EE10FA02DDB3EE99
:103940000E0A01E09DED110A8DED110A9DED100AA0
:10395000F3EE0E0AB4EEE00AF1EE10FA02DDB3EE79
:103960000E0A01E09DED100A8DED100A9DED0F0A83
:10397000F3EE0E0AB4EEE00AF1EE10FA02DDB3EE59
:103980000E0A01E09DED0F0A8DED0F0A9DED0E0A66
:10399000DFEDFE0AB4EEE00AF1EE10FA02DD9FED73
:1039A000FB0A01E09DED0E0A8DED0E0A0E980AF05D
:1039B00001FFCDE90C010F980AF0FCFECDE90A01E8
:1039C00010980AF0F7FECDE9080111980AF0F2FE0E
:1039D000CDE90601DDE90C01CDE90401DDE90A01CB
:1039E000CDE90201DDE90801CDE900019DED060BFD
:1039F00053EC102BAFF6384008F0DCF8DDED0E3A52
:103A00009DED0F3ADDED102A9DED112ADDED131A23
:103A10009DED141ADDED150A9DED160AFDF7FBF973
:103A2000DB4890ED000AF3EE0E0A30EE200A80ED3E
:103A3000000A03E0AFF6584008F0BCF800BF4BE4C2
:103A400018AB19AA1AA91BA8FDF768FA17901798BE
:103A500018B1D04808F0AEF8C8E11B980AF0AAFEE9
:103A600021F000411FED9E0B53EC102BCDE910010E
:103A70009DED100B51EC100B0AF036FC02D21FED3D
:103A8000A50A01E09DED1B0A8DED1B0A1A980AF0AC
:103A900091FE21F000411FEDAA0B53EC102BCDE954
:103AA00010019DED100B51EC100B0AF01DFC02D221
:103AB0001FEDB20A01E09DED1A0A8DED1A0A199860
:103AC0000AF078FE21F000411FEDB70B53EC102BEC
:103AD000CDE910019DED100B51EC100B0AF004FC28
:103AE00002D21FEDBE0A01E09DED190A8DED190A03
:103AF00018980AF05FFE21F000411FEDC30B53EC54
:103B0000102BCDE910019DED100B51EC100B0AF0BC
:103B1000EBFB02D21FEDCB0A01E09DED180A8DED03
:103B2000180A9B4890ED000AF3EE0E0A30EE600A88
:103B30008DED110A13AB14AA15A916A8964C94ED95
:103B4000001ADDED110A954C94ED000AFDF756FAC6
:103B50001290129800287DD113980AF02BFECDE91F
:103B60000C0114980AF026FECDE90A0115980AF016
:103B700021FECDE9080116980AF01CFECDE90601E8
:103B8000DDE90C01CDE90401DDE90A01CDE902011D
:103B9000DDE90801CDE900019DED060B53EC102B8A
:103BA000AFF6985008F006F89DED160ADDED1B0AF9
:103BB00030EE600A8DED090A09980AF0FBFD21F04C
:103BC00000411FEDF90B53EC102BCDE90A019DEDDF
:103BD0000A0B51EC100B0AF0D5F9CDE90C019DED63
:103BE0000C0B51EC100B0AF0E7F811909DED150A43
:103BF000DDED1A0A30EE600A8DED090A09980AF027
:103C0000D9FD21F000419FED660B53EC102BCDE95F
:103C10000A019DED0A0B51EC100B0AF0B3F9CDE946
:103C20000C019DED0C0B51EC100B0AF0C5F8109037
:103C30009DED140ADDED190A30EE600A8DED090ADA
:103C400009980AF0B7FD21F000419FED550B53ECA8
:103C5000102B00E0C6E0CDE90A019DED0A0B51EC06
:103C6000100B0AF08FF9CDE90C019DED0C0B51EC16
:103C7000100B0AF0A1F80F909DED130ADDED180A64
:103C800030EE600A8DED090A09980AF093FD21F0E3
:103C900000419FED430B53EC102BCDE90A019DED44
:103CA0000A0B51EC100B0AF06DF9CDE90C019DEDFA
:103CB0000C0B51EC100B0AF07FF80E909DED110AE1
:103CC000F3EE0E0AB4EEE00AF1EE10FA02DDB3EE06
:103CD0000E0A01E09DED110A8DED110A9DED100A0D
:103CE000F3EE0E0AB4EEE00AF1EE10FA02DDB3EEE6
:103CF0000E0A01E09DED100A8DED100A9DED0F0AF0
:103D0000F3EE0E0AB4EEE00AF1EE10FA02DDB3EEC5
:103D10000E0A01E09DED0F0A8DED0F0A9DED0E0AD2
:103D2000DFED1A0AB4EEE00AF1EE10FA02DD9FEDC3
:103D3000170A01E09DED0E0A8DED0E0A0E980AF0AD
:103D400039FDCDE90C010F980AF034FDCDE90A01E7
:103D500010980AF02FFDCDE9080111980AF02AFD0C
:103D6000CDE90601DDE90C01CDE90401DDE90A0137
:103D7000CDE90201DDE90801CDE900019DED060B69
:103D800053EC102BAFF6C8700EE000000000C842E4
:103D90002400002014240008280000202000002017
:103DA0009A9999999999B93F07F004FFDDED0E3A78
:103DB0009DED0F3ADDED102A9DED112ADDED131A70
:103DC0009DED141ADDED150A9DED160AFDF723F899
:103DD000FB4890ED000AF3EE0E0A30EE600A80ED2B
:103DE000000A02E0F7A007F0E5FE00BF4BE418ABC5
:103DF00019AA1AA91BA8FDF791F81790179818B1DE
:103E0000F74807F0D7FEB8E11B980AF0D3FC21F081
:103E100000419FEDF40B53EC102BCDE910019DED0B
:103E2000100B51EC100B0AF05FFA02D29FEDEF0A73
:103E300001E09DED1B0A8DED1B0A1A980AF0BAFCF1
:103E400021F000419FEDE70B53EC102BCDE9100161
:103E50009DED100B51EC100B0AF046FA02D29FEDCB
:103E6000E30A01E09DED1A0A8DED1A0A19980AF08D
:103E7000A1FC21F000419FEDDB0B53EC102BCDE9B1
:103E800010019DED100B51EC100B0AF02DFA02D22F
:103E90009FEDD60A01E09DED190A8DED190A1898DB
:103EA0000AF088FC21F000419FEDCE0B53EC102B63
:103EB000CDE910019DED100B51EC100B0AF014FA36
:103EC00002D29FEDCA0A01E09DED180A8DED180A95
:103ED000C74890ED000AF3EE0E0A30EE200A8DED91
:103EE000110A13AB14AA15A916A89DED111AB44C0A
:103EF000D4ED000ABF4C94ED000AFDF77FF8129054
:103F0000129800287ED113980AF054FCCDE90C01D8
:103F100014980AF04FFCCDE90A0115980AF04AFC02
:103F2000CDE9080116980AF045FCCDE90601DDE966
:103F30000C01CDE90401DDE90A01CDE90201DDE969
:103F40000801CDE900019DED060B53EC102BAA48AA
:103F500007F030FE9DED160ADDED1B0A30EE600A1B
:103F60008DED090A09980AF025FC21F000411FEDAA
:103F7000740B53EC102BCDE90A019DED0A0B51ECAB
:103F8000100B09F0FFFFCDE90C019DED0C0B51EC7E
:103F9000100B09F011FF11909DED150ADDED1A0AC5
:103FA00030EE600A8DED090A09980AF003FC21F051
:103FB00000411FED850B53EC102BCDE90A019DED5F
:103FC0000A0B51EC100B09F0DDFFCDE90C019DED62
:103FD0000C0B51EC100B09F0EFFE10909DED140A44
:103FE000DDED190A30EE600A8DED090A09980AF034
:103FF000E1FB21F000411FED960B53EC102BCDE9B6
:104000000A0100E0B4E09DED0A0B51EC100B09F041
:10401000B9FFCDE90C019DED0C0B51EC100B09F033
:10402000CBFE0F909DED130ADDED180A30EE600A0D
:104030008DED090A09980AF0BDFB21F000411FED42
:10404000A80B53EC102BCDE90A019DED0A0B51ECA6
:10405000100B09F097FFCDE90C019DED0C0B51EC15
:10406000100B09F0A9FE0E909DED110AF3EE0E0A59
:10407000B4EEE00AF1EE10FA02DDB3EE0E0A01E052
:104080009DED110A8DED110A9DED100AF3EE0E0A59
:10409000B4EEE00AF1EE10FA02DDB3EE0E0A01E032
:1040A0009DED100A8DED100A9DED0F0AF3EE0E0A3C
:1040B000B4EEE00AF1EE10FA02DDB3EE0E0A01E012
:1040C0009DED0F0A8DED0F0A9DED0E0A5FEDD10AF1
:1040D000B4EEE00AF1EE10FA02DD1FEDD40A01E0C1
:1040E0009DED0E0A8DED0E0A0E980AF063FBCDE9E8
:1040F0000C010F980AF05EFBCDE90A0110980AF056
:1041000059FBCDE9080111980AF054FBCDE90601ED
:10411000DDE90C01CDE90401DDE90A01CDE9020187
:10412000DDE90801CDE900019DED060B53EC102BF4
:1041300031484C3807F03EFDDDED0E3A9DED0F3A6B
:10414000DDED102A9DED112ADDED131A9DED141AF7
:10415000DDED150A9DED160AFCF75DFE244890ED95
:10416000000AF3EE0E0A30EE200A80ED000A03E0AA
:1041700021482C3807F01EFD00BF60E418AB19AAD7
:104180001AA91BA8FCF7CAFE1790179818B1144873
:1041900007F010FDD4E11B980AF00CFB21F0004160
:1041A0009FED100B53EC102BCDE910019DED100B82
:1041B00051EC100B0AF098F820D29FED0C0A1FE08A
:1041C000240000206E6F20696E7665727365206F23
:1041D0007574206F662072616E6765200A000000AA
:1041E000142400087B14AE47E17A843F00000000ED
:1041F00028000020200000200C2E00089DED1B0A46
:104200008DED1B0A1A980AF0D5FA21F000411FED36
:104210000B0B53EC102BCDE910019DED100B51EC65
:10422000100B0AF061F802D21FED100A01E09DEDBB
:104230001A0A8DED1A0A19980AF0BCFA21F0004109
:104240001FED180B53EC102BCDE910019DED100B59
:1042500051EC100B0AF048F802D21FED1C0A01E0E5
:104260009DED190A8DED190A18980AF0A3FA21F0AC
:1042700000411FED240B53EC102BCDE910019DEDF7
:10428000100B51EC100B0AF02FF802D21FED290A87
:1042900001E09DED180A8DED180AFE4890ED000A28
:1042A000F3EE0E0A30EE600A8DED110A13AB14AA7C
:1042B00015A916A89DED111AF74CD4ED000AF74C7C
:1042C00094ED000AFCF79AFE12901298F0BB139836
:1042D0000AF070FACDE90C0114980AF06BFACDE9F6
:1042E0000A0115980AF066FACDE9080116980AF055
:1042F00061FACDE90601DDE90C01CDE90401DDE952
:104300000A01CDE90201DDE90801CDE900019DEDD9
:10431000060B53EC102BE24807F04CFC9DED160AFF
:10432000DDED1B0A30EE600A8DED090A09980AF0EE
:1043300041FA21F000419FEDDB0B53EC102BCDE94E
:104340000A019DED0A0B51EC100B00E0F4E009F0BE
:1043500019FECDE90C019DED0C0B51EC100B09F091
:104360002BFD11909DED150ADDED1A0A30EE600A65
:104370008DED090A09980AF01DFA21F000419FED20
:10438000C90B53EC102BCDE90A019DED0A0B51EC42
:10439000100B09F0F7FDCDE90C019DED0C0B51EC74
:1043A000100B09F009FD10909DED140ADDED190ABE
:1043B00030EE600A8DED090A09980AF0FBF921F048
:1043C00000419FEDB80B53EC102BCDE90A019DED98
:1043D0000A0B51EC100B09F0D5FDCDE90C019DED58
:1043E0000C0B51EC100B09F0E7FC0F909DED130A3C
:1043F000DDED180A30EE600A8DED090A09980AF021
:10440000D9F921F000419FEDA70B53EC102BCDE91A
:104410000A019DED0A0B51EC100B09F0B3FDCDE93B
:104420000C019DED0C0B51EC100B09F0C5FC0E902E
:104430009DED110AF3EE0E0AB4EEE00AF1EE10FA69
:1044400002DDB3EE0E0A01E09DED110A8DED110AB9
:104450009DED100AF3EE0E0AB4EEE00AF1EE10FA4A
:1044600002DDB3EE0E0A01E09DED100A8DED100A9B
:104470009DED0F0AF3EE0E0AB4EEE00AF1EE10FA2B
:1044800002DDB3EE0E0A01E09DED0F0A8DED0F0A7D
:104490009DED0E0ADFED850AB4EEE00AF1EE10FAAA
:1044A00002DD9FED820A01E09DED0E0A8DED0E0A00
:1044B0000E980AF07FF9CDE90C010F980AF07AF90D
:1044C000CDE90A0110980AF075F9CDE908011198B3
:1044D0000AF070F9CDE90601DDE90C01CDE904012E
:1044E000DDE90A01CDE90201DDE90801CDE90001BC
:1044F0009DED060B53EC102B69484C3807F05AFB26
:10450000DDED0E3A9DED0F3ADDED102A9DED112AFD
:10451000DDED131A9DED141ADDED150A9DED160A59
:10452000FCF779FC5B4890ED000AF3EE0E0A30EEE2
:10453000600A80ED000A02E05DA007F03BFB00BFCF
:1045400023E2DFED623A9FED613ADFED602A9FEDF5
:104550005F2A5FEDDA1A1FEDDB1A5FEDDC0A1FED53
:10456000DD0AFCF758FC10E218AB19AA1AA91BA81F
:10457000FCF7D4FC1790179818B1554807F01AFBB0
:1045800003E21B980AF016F921F000411FEDEB0B36
:1045900053EC102BCDE910019DED100B51EC100BDD
:1045A00009F0A2FE02D21FEDEF0A01E09DED1B0A09
:1045B0008DED1B0A1A980AF0FDF821F000411FED5D
:1045C000F70B53EC102BCDE910019DED100B51ECC6
:1045D000100B09F089FE02D21FEDFC0A01E09DEDEF
:1045E0001A0A8DED1A0A19980AF0E4F821F0004130
:1045F0009FED380B53EC102BCDE910019DED100B06
:1046000051EC100B09F070FE02D29FED340A01E06C
:104610009DED190A8DED190A18980AF0CBF821F0D2
:1046200000419FED2C0B53EC102BCDE910019DEDBB
:10463000100B51EC100B09F057FE02D29FED270A28
:1046400001E09DED180A8DED180A124890ED000A60
:10465000F3EE0E0A30EE600A8DED110A0E4890ED71
:10466000000AF3EE040A30EE600A8DED100A0B48E2
:1046700090ED000ADFED1A0A30EE600A8DED0F0AA8
:1046800013AB14AA15A916A89DED111ADDED100A99
:1046900028E0000028000020240000202000002046
:1046A0000C2E00089A9999999999B93F0000C8422F
:1046B0006E6F20696E7665727365202C206F75743D
:1046C000206F662072616E67650A00000000484234
:1046D000142400087B14AE47E17A843F00000000F8
:1046E000000020429DED0F0AFCF788FC1290129802
:1046F000F0BB13980AF05EF8CDE90C0114980AF0AB
:1047000059F8CDE90A0115980AF054F8CDE90801E5
:1047100016980AF04FF8CDE90601DDE90C01CDE964
:104720000401DDE90A01CDE90201DDE90801CDE975
:1047300000019DED060B53EC102BFC4807F03AFAF4
:104740009DED160ADDED1B0A30EE600A8DED090ABB
:1047500009980AF02FF821F000411FED2E0B53ECC1
:10476000102BCDE90A019DED0A0B51EC100B00E076
:1047700006E109F007FCCDE90C019DED0C0B51ECB5
:10478000100B09F019FB11909DED150ADDED1A0AC9
:1047900030EE600A8DED090A09980AF00BF821F055
:1047A00000411FED400B53EC102BCDE90A019DEDAC
:1047B0000A0B51EC100B09F0E5FBCDE90C019DED66
:1047C0000C0B51EC100B09F0F7FA10909DED140A48
:1047D000DDED190A30EE600A8DED090A099809F03D
:1047E000E9FF21F000411FED510B53EC102BCDE9F7
:1047F0000A019DED0A0B51EC100B09F0C3FBCDE94A
:104800000C019DED0C0B51EC100B09F0D5FA0F903B
:104810009DED130ADDED180A30EE600A8DED090AF0
:10482000099809F0C7FF21F000411FED620B53EC1E
:10483000102BCDE90A019DED0A0B51EC100B09F08C
:10484000A1FBCDE90C019DED0C0B51EC100B09F017
:10485000B3FA0E909DED110AF3EE0E0AB4EEE00AE3
:10486000F1EE10FA02DDB3EE0E0A01E09DED110A41
:104870008DED110A9DED100AF3EE0E0AB4EEE00A7A
:10488000F1EE10FA02DDB3EE0E0A01E09DED100A22
:104890008DED100A9DED0F0AF3EE0E0AB4EEE00A5C
:1048A000F1EE10FA02DDB3EE0E0A01E09DED0F0A03
:1048B0008DED0F0A9DED0E0A5FED840AB4EEE00A5D
:1048C000F1EE10FA02DD1FED870A01E09DED0E0A00
:1048D0008DED0E0A0E9809F06DFFCDE90C010F98D1
:1048E00009F068FFCDE90A01109809F063FFCDE9EE
:1048F0000801119809F05EFFCDE90601DDE90C0120
:10490000CDE90401DDE90A01CDE90201DDE9080193
:10491000CDE900019DED060B53EC102B83484C387C
:1049200007F048F9DDED0E3A9DED0F3ADDED102A66
:104930009DED112ADDED131A9DED141ADDED150A1A
:104940009DED160AFCF767FA794890ED000AF3EE40
:104950000E0A30EE600A80ED000A764890ED000AFB
:104960005FEDA10A30EE600A80ED000A724890ED1A
:10497000000AF3EE040A30EE600A80ED000A03E05C
:10498000AFF2D42007F016F900BFF3E118AB19AA73
:104990001AA91BA8FCF7C2FA1790179818B1674814
:1049A00007F008F9E2E11B9809F004FF21F000414B
:1049B0001FEDB80B53EC102BCDE910019DED100B42
:1049C00051EC100B09F090FC02D21FEDBC0A01E083
:1049D0009DED1B0A8DED1B0A1A9809F0EBFE21F0E4
:1049E00000411FEDC40B53EC102BCDE910019DEDE0
:1049F000100B51EC100B09F077FC02D21FEDC90A25
:104A000001E09DED1A0A8DED1A0A199809F0D2FEFF
:104A100021F000411FEDD10B53EC102BCDE910011B
:104A20009DED100B51EC100B09F05EFC02D21FED56
:104A3000D50A01E09DED190A8DED190A189809F0C3
:104A4000B9FE21F000411FEDDD0B53EC102BCDE939
:104A500010019DED100B51EC100B09F045FC02D23A
:104A60001FEDE20A01E09DED180A8DED180A3048AD
:104A700090ED000AF3EE0E0A30EE200A8DED110AD9
:104A80002D4890ED000AF3EE040A30EE200A8DED79
:104A9000100A284890ED000A5FEDEF0A30EE200A78
:104AA0008DED0F0A13AB14AA15A916A89DED111AC6
:104AB000DDED100A9DED0F0AFCF7A0FA1290129896
:104AC000F0BB139809F076FECDE90C01149809F0BB
:104AD00071FECDE90A01159809F06CFECDE90801D7
:104AE000169809F067FECDE90601DDE90C01CDE974
:104AF0000401DDE90A01CDE90201DDE90801CDE9A2
:104B000000019DED060B53EC102B084807F052F8FE
:104B10009DED160ADDED1B0A30EE600A8DED090AE7
:104B2000099809F047FE21F000410AE00C2E000828
:104B30002800002020000020240000201424000869
:104B40000FE19FEDBD0B53EC102BCDE90A019DED5C
:104B50000A0B51EC100B09F015FACDE90C019DED93
:104B60000C0B51EC100B09F027F911909DED150A73
:104B7000DDED1A0A30EE600A8DED090A099809F098
:104B800019FE21F000419FEDAC0B53EC102BCDE949
:104B90000A019DED0A0B51EC100B09F0F3F9CDE978
:104BA0000C019DED0C0B51EC100B09F005F9109068
:104BB0009DED140ADDED190A30EE600A8DED090A4B
:104BC000099809F0F7FD21F000419FED9B0B53EC94
:104BD000102BCDE90A019DED0A0B51EC100B09F0E9
:104BE000D1F9CDE90C019DED0C0B51EC100B09F046
:104BF000E3F80F909DED130ADDED180A30EE600A20
:104C00008DED090A099809F0D5FD21F000419FEDCD
:104C10008A0B53EC102BCDE90A019DED0A0B51ECE8
:104C2000100B09F0AFF9CDE90C019DED0C0B51EC27
:104C3000100B09F0C1F80E909DED110AF3EE0E0A6B
:104C4000B4EEE00AF1EE10FA02DDB3EE0E0A01E076
:104C50009DED110A8DED110A9DED100AF3EE0E0A7D
:104C6000B4EEE00AF1EE10FA02DDB3EE0E0A01E056
:104C70009DED100A8DED100A9DED0F0AF3EE0E0A60
:104C8000B4EEE00AF1EE10FA02DDB3EE0E0A01E036
:104C90009DED0F0A8DED0F0A9DED0E0ADFED680AFE
:104CA000B4EEE00AF1EE10FA02DD9FED650A01E0D4
:104CB0009DED0E0A8DED0E0A0E9809F07BFDCDE9F3
:104CC0000C010F9809F076FDCDE90A01109809F062
:104CD00071FDCDE90801119809F06CFDCDE90601DF
:104CE000DDE90C01CDE90401DDE90A01CDE90201AC
:104CF000DDE90801CDE900019DED060B53EC102B19
:104D0000504806F057FFDDED0E3A9DED0F3ADDED10
:104D1000102A9DED112ADDED131A9DED141ADDED1B
:104D2000150A9DED160AFCF776F8474890ED000A43
:104D3000F3EE0E0A30EE200A80ED000A434890EDB3
:104D4000000ADFED430A30EE200A80ED000A4148F8
:104D500090ED000AF3EE040A30EE200A80ED000A1E
:104D600003E0AFF2B46006F025FF00BF02E0FCF7FD
:104D700036FE00BF00BF1EB010BD00F0C5F94FF4F5
:104D8000FA7004F0CBF8FCF72AFE9FED330A08F026
:104D90000BFA324880ED000A42F22731632004F01A
:104DA0007DF9032242F22731312004F06CFA04220B
:104DB00042F22731312004F066FA0D2242F2273107
:104DC000312004F060FA0E2242F22731312004F043
:104DD0005AFA062242F22731092004F054FAFBF76E
:104DE00066FD28E01E48007830B11D480078FCF7C9
:104DF00013FE00201A490870FBF789FF1949087053
:104E000019480078A0B1194800780A2802DD64200A
:104E1000087010E015480078401C1449087000F034
:104E20003FFB00F049FB4FF47A7004F077F802E0A2
:104E300000200E490870D5E79A9999999999B93F38
:104E40000000C842C02D00082800002020000020DB
:104E50000000204224000020920A063F1C0000208F
:104E600000000020020000200300002004000020B9
:104E7000704700BFFEE700BFFEE700BFFEE700BFD0
:104E8000FEE7704770477047704700000CB5002080
:104E9000019000908348006840F4803081490860A8
:104EA00000BF8048006800F4003000900198401C6A
:104EB0000190009818B90198B0F5A04FF1D1794848
:104EC000006800F4003010B10120009001E00020E3
:104ED00000900098012860D172484030006840F08E
:104EE00080507049403108606F48006840F440408D
:104EF0006D4908606B48083000686A4908310860ED
:104F00000846006840F4004008600846006840F425
:104F1000A05008606548091F0860081F006840F03D
:104F20008070091F086000BF5E48006800F00070D4
:104F30000028F9D05C48006840F480305A49086085
:104F400000BF5948406800F480300028F9D0564826
:104F5000006840F400305449086000BF524840687F
:104F600000F400300028F9D040F205705049086084
:104F70004C480830006820F003004A4908310860B6
:104F80000846006840F00200086000BF454808304D
:104F9000006800F00C000828F8D10CBD10B5454899
:104FA000006840F47000434908603E48006840F0E3
:104FB00001003C49086000203A490831086039483E
:104FC00000683D490840374908603C48091D0860B1
:104FD000081F006820F48020091F08600020314964
:104FE0000C310860FFF752FF4FF000603149803903
:104FF000086010BD70B500200022022300240221A9
:10500000284D08352D6805F00C0020B1042806D085
:10501000082834D107E02A4D2A4E356033E02A4D66
:10502000284E35602FE01F4D2D1D2D68C5F380548F
:105030001C4D2D1D2D6805F03F0154B1224DB5FBCF
:10504000F1F5184E361D3668C6F3881605FB06F2D4
:1050500009E01B4DB5FBF1F5124E361D3668C6F35F
:10506000881605FB06F20F4D2D1D2D68C5F3014571
:105070006D1C6B00B2FBF3F5124E356003E0104D72
:10508000104E356000BF00BF064D08352D68C5F3D2
:1050900003150E4E705D0B4D2D68C540094E3560F1
:1050A00070BD00000038024000700040195A4007EF
:1050B000003C024088ED00E0FFFFF6FE10300024C7
:1050C0000024F4002C00002040787D0130000020F6
:1050D0001CB50121082004F0A6FE0C200090012040
:1050E0008DF8040000208DF8060003208DF80500DF
:1050F00001208DF8070069460D4804F0F3FB0C21F0
:105100000B4804F06DFC1CBD10B54FF4A06004F01A
:10511000F3FAFFF7DDFFB42003F09EFE4FF4E13019
:1051200003F029FF00F006F800F0D9F810BD0000E8
:10513000000C024000B58BB00121480604F0BAFE15
:105140000121084604F06FFE4FF4C0500990022080
:105150008DF8280000208DF82A0001208DF82B0002
:1051600003208DF8290009A9C94804F0BBFB0922D6
:105170000B21C74804F041FC09220C21C44804F06B
:105180003CFC00208DF81E008DF81F008DF82000DB
:1051900001208DF8210000208DF822008DF82300D9
:1051A0008DF81A008DF81B0001208DF81C008DF879
:1051B0001D000920ADF8180006A9B64805F0C9F988
:1051C00000208DF812008DF8130001208DF81400D6
:1051D0000020ADF80800ADF80A00ADF80C00ADF8FD
:1051E0000E00ADF8100001208DF8150002A805F0A2
:1051F0003AFA14208DF8040000208DF805008DF88F
:10520000060001208DF8070001A804F07AFA0122B7
:105210000221A04805F026FD0BB000BD00B585B009
:105220006A4600219B4805F002FC684603F025FD14
:1052300005B000BD2DE9F04186B006468846174608
:1052400000240196029600208DF80C008DF80D00C8
:105250008DF80E7000BF06E018F804100DF10F0075
:105260000155601C84B2BC42F6DB40F6FF7400BFFF
:1052700001A9884805F0E6FA0546042D04D1201E50
:10528000A4F101018CB2F3D1042D03D1022006B0A8
:10529000BDE8F081002401E0601C84B229467D480D
:1052A00005F068FB18B940F6FF708442F4DB40F665
:1052B000FF70844201DB0120E9E70020E7E710B539
:1052C00004460021734805F035FC08B9002010BDE4
:1052D000224600216F4805F0AAFBA07AF7E700B547
:1052E0008BB00121880604F0E5FD0121022004F0C5
:1052F0009AFD6020099002208DF8280000208DF88A
:105300002A0001208DF82B0003208DF8290009A91F
:10531000614804F0E7FA092205215F4804F06DFBBB
:10532000092206215C4804F068FB00208DF81E006D
:105330008DF81F008DF8200001208DF8210000203D
:105340008DF822008DF823008DF81A008DF81B00CF
:1053500001208DF81C008DF81D000920ADF8180003
:1053600006A94E4805F0F5F80E2005F00DFA0E20BE
:105370008DF8120000208DF8130001208DF8140024
:105380000020ADF80800ADF80A00ADF80C00ADF84B
:105390000E000120ADF810008DF8150002A805F0F0
:1053A00062F941208DF8040000208DF805008DF889
:1053B000060001208DF8070001A804F0A2F90122DF
:1053C0001021364805F04EFC0BB000BD00B585B08D
:1053D0006A460121314805F02AFB684603F04DFC7E
:1053E00005B000BD2DE9F04186B006468846174657
:1053F00000240196029600208DF80C008DF80D0017
:105400008DF80E7000BF06E018F804100DF10F00C3
:105410000155601C84B2BC42F6DB40F6FF7400BF4D
:1054200001A91E4805F00EFA0546042D04D1201EE0
:10543000A4F101018CB2F3D1042D03D1022006B0F6
:10544000BDE8F081002401E0601C84B229461348C5
:1054500005F090FA18B940F6FF708442F4DB40F68C
:10546000FF70844201DB0120E9E70020E7E710B587
:1054700004460121094805F05DFB08B9002010BD74
:1054800022460121054805F0D2FAA07AF7E700008C
:105490000000024000640040000402400068004038
:1054A00010B501209A490870022048709948486058
:1054B000084600F087F910BD10B501209449087026
:1054C0000220487093484860012000F0ACF99049F0
:1054D000022000F0A8F98E49032000F0A4F98C49BD
:1054E000042000F0A0F9012000F024F98A490860A6
:1054F00001F08EFB10BD10B58748006890F8DA0007
:1055000000B910BD8548006890F8DA0000B9F8E7E6
:1055100001220621104601F0D4FB012206210220BF
:1055200001F0CFFB9FED7E0A012001F064FC00BF7B
:105530000021012001F085FC642003F0EFFC764897
:10554000006890ED480ADFED770AB4EEE00AF1EE6C
:1055500010FAEDDC7048006890ED480ADFED720A41
:10556000B4EEE00AF1EE10FAE2D39FED6D0A0220EC
:1055700001F041FC00BF0021022001F062FC642028
:1055800003F0CCFC6548006890ED480ADFED650A41
:10559000B4EEE00AF1EE10FAEDDC6048006890ED40
:1055A000480ADFED610AB4EEE00AF1EE10FAE2D348
:1055B00000BFA6E710B55848006890F8DA0000B9B7
:1055C00010BD5648006890F8DA0000B9F8E7FFF718
:1055D00092FFB0EE000A012001F00DFCB0EE000ACF
:1055E0004E48006801F01EFC4FF47A7003F096FC00
:1055F0009FED4B0A012001F0FEFB9FED490A474851
:10560000006801F00FFC4FF47A7003F087FCB0EEF5
:10561000000A012001F0EFFBB0EE000A3F480068ED
:1056200001F000FC4FF47A7003F078FC9FED3C0A27
:10563000012001F0E0FB9FED3A0A3848006801F0D4
:10564000F1FB4FF47A7003F069FC00BFB8E710B5C6
:105650003148006890F8DA0000B910BD2F480068A2
:1056600090F8DA0000B9F8E701220721104601F0AE
:1056700028FB01220721022001F023FB9FED2B0ACA
:10568000012001F0F8FF9FED290A2448006802F08C
:1056900009F84FF47A7003F041FC9FED250A0120D0
:1056A00001F0E9FF9FED220A1C48006801F0FAFFB3
:1056B0004FF47A7003F032FC9FED1C0A012001F0D8
:1056C000DAFF9FED1A0A1548006801F0EBFF4FF46E
:1056D0007A7003F023FC9FED160A012001F0CBFF46
:1056E0009FED130A0D48006801F0DCFF4FF47A705B
:1056F00003F014FC9FED0A0A012001F0BCFF9FEDAE
:10570000080A0648006801F0CDFF00BFA5E70000C9
:1057100048000020355200084000002044000020CE
:1057200000000000CDCCCC3DCDCCCCBD00009643DC
:10573000000016440246002111E001EB011000EBCD
:105740004110FB4B13F83000904206D101EB0110E1
:1057500000EB411003EBC0007047481CC1B20429A4
:10576000EBDB0020F8E72DE9F04180460E460027EC
:105770004046FFF7DFFF044614B90420BDE8F0817E
:105780000020A0710021204602F0E4FD05460DB185
:105790002846F3E726B9C82003F078FB2846EDE752
:1057A00000BFA079012805D038467F1C4FF6FF7155
:1057B0008842F6D34FF6FF70874201D30320DDE71E
:1057C0002846DBE770B5E2B0054600264FF4C47208
:1057D000D749684606F06AFAD5488560012410E08A
:1057E000D3490C70E0B20121FFF7BDFF38B9701C3E
:1057F000C6B22B7822464021CEA006F0DBF9601C11
:1058000084B2FF2CECDDDB4806704FF4C4726946AD
:10581000C74806F04BFA2A7833464821D64806F0A6
:10582000C9F962B070BDD54A1268042A00D3704726
:10583000D24A126802EB021303EB4212BC4B03F88C
:105840003200CE4A126802EB021303EB4212B84B4D
:1058500003EBC2029160C94A1268521CC74B1A601E
:1058600000BFE4E72DE9F041064600276EBB0024A7
:1058700028E004EB041000EB4410AD4911F830802F
:1058800004EB041000EB441001EBC000876804EB4C
:10589000041101EB4411A64A02EBC1004FF4C4719C
:1058A00006F036FA04EB041000EB4410A04901F8AE
:1058B000308004EB041000EB441001EBC000876063
:1058C000601CC4B2042CD4DB0FE03046FFF732FF7B
:1058D00005460DB9BDE8F081AF684FF4C4712846A4
:1058E00006F016FA2E70AF6000BF00BFF2E72DE998
:1058F000F04180460E46002700244046FFF71AFF7D
:10590000044614B90420BDE8F081002161762B2102
:10591000204602F01FFD05460DB12846F3E726B9E3
:10592000C82003F0B3FA2846EDE700BF607E0128E7
:1059300005D038467F1C4FF6FF718842F6D34FF6EC
:10594000FF70874201D30320DDE72846DBE770B50F
:10595000064600243046FFF7EDFE04460CB904204D
:1059600070BDE5790020E0712846F9E72DE9F041A6
:1059700080460E46002700244046FFF7DBFE044623
:1059800014B90420BDE8F081002184F83C106421A2
:10599000204602F0DFFC05460DB12846F2E726B9A5
:1059A000C82003F073FA2846ECE700BF94F83C00E7
:1059B000012805D038467F1C4FF6FF718842F5D389
:1059C0004FF6FF70874201D30320DBE72846D9E773
:1059D0002DE9F04180460E46002700244046FFF79F
:1059E000A9FE044614B90420BDE8F081002184F822
:1059F0003B106221204602F0ADFC05460DB1284661
:105A0000F2E726B9C82003F041FA2846ECE700BFC8
:105A100094F83B00012805D038467F1C4FF6FF71F3
:105A20008842F5D34FF6FF70874201D30320DBE7AE
:105A30002846D9E72DE9F04180460E46002700248C
:105A40004046FFF777FE044614B90420BDE8F08114
:105A5000002184F83E106E21204602F07BFC0546B2
:105A60000DB12846F2E726B9C82003F00FFA284600
:105A7000ECE700BF94F83E00012805D038467F1CB3
:105A80004FF6FF718842F5D34FF6FF70874201D37E
:105A90000320DBE72846D9E72DE9F04180460E4692
:105AA000002700244046FFF745FE044614B90420B1
:105AB000BDE8F081002184F83B106C21204602F003
:105AC00049FC05460DB12846F2E726B9C82003F087
:105AD000DDF92846ECE700BF94F83B00012805D02B
