:020000040800F2
:10000000A8350020C9C50008F57B0008F77B00086B
:10001000FB7B0008FF7B0008037C00080000000059
:10002000000000000000000000000000077C000845
:10003000097C0008000000000B7C00080D7C000813
:10004000E3C50008E3C50008E3C50008E3C50008F0
:10005000E3C50008E3C50008E3C50008E3C50008E0
:10006000E3C50008E3C50008E3C50008E3C50008D0
:10007000E3C50008E3C50008E3C50008E3C50008C0
:10008000E3C50008E3C50008E3C50008E3C50008B0
:10009000A17F0008E3C50008E3C50008E3C5000828
:1000A000E3C50008E3C50008E3C50008E3C5000890
:1000B0009DC00008D7C00008A9C10008E3C500081A
:1000C000E3C50008E3C50008E3C50008E3C5000870
:1000D000E3C50008A1BD0008E3C50008E3C50008AA
:1000E000E3C50008E3C50008E3C50008E3C5000850
:1000F000E5C30008B9C40008E3C50008E3C500086B
:10010000E3C50008E3C50008E3C50008E3C500082F
:10011000E3C50008E3C500087DC20008E3C5000888
:10012000E3C50008E3C50008E3C50008E3C500080F
:10013000E3C50008E3C50008E3C50008E3C50008FF
:10014000E3C5000851810008E3C50008E3C50008C5
:10015000E3C50008E3C50008E3C50008E3C50008DF
:10016000E3C50008E3C50008E3C50008E3C50008CF
:10017000E3C50008E3C50008E3C50008E3C50008BF
:10018000E3C50008E3C50008E3C50008E3C50008AF
:10019000E3C50008E3C50008E3C50008E3C500089F
:1001A000E3C50008E3C50008E3C5000800F002F855
:1001B00000F052F80AA090E8000C82448344AAF1AF
:1001C0000107DA4501D100F047F8AFF2090EBAE8AD
:1001D0000F0013F0010F18BFFB1A43F0010318477B
:1001E000E418010004190100103A24BF78C878C14E
:1001F000FAD8520724BF30C830C144BF04680C602D
:10020000704700000023002400250026103A28BF74
:1002100078C1FBD8520728BF30C148BF0B60704778
:10022000662911F01E8364290EF0B28475290EF040
:10023000AF8478290EF0E884002070471FB511F0D4
:1002400006FB0EF0EDFF04000020002110F06EFD13
:10025000E0601FBD10B510BD0FF0FEF81146FFF7AE
:10026000EDFF07F0ACF80FF01CF903B4FFF7F2FF55
:1002700003BC0BF035FD00000020704700207047E4
:100280000020704700207047002070470020704712
:100290000020704700207047002070470020704702
:1002A00000207047002000BF1FE040F2E731884285
:1002B0000ED00021FE4A02F8301002EBC00251704D
:1002C000FB4A411C02EBC10102EBC00251600BE092
:1002D0000021F74A02F8301002EBC0025170F449D5
:1002E0000A4602EBC0025160401CB0F57A7FDCDBAD
:1002F000EF49F04A116011460968EF4A11607047F2
:100300002DE9F04F99B080460E460EB1642E03DD04
:10031000002019B0BDE8F08F45460024002700BF3B
:100320004CE0701E211D884234DA285D04F1010C76
:10033000B44502DB4FF0000C03E004F1010C15F8AA
:100340000CC0614604F1020CB44502DB4FF0000C16
:1003500003E004F1020C15F80CC0624604F1030C32
:10036000B44502DB4FF0000C03E004F1030C15F878
:100370000CC063464FEA006C4CEA014C4CEA022C7C
:100380004CEA030CBA4607F1010B1FFA8BF74DF844
:100390002AC015E0285D0106601C285C41EA004186
:1003A000A01C285C41EA0020E11C695C0843394636
:1003B0007A1C97B24DF82100201D84B2B442B0DB04
:1003C00000BF4FF000090EF07DFB002406E05DF851
:1003D00024000EF07BFB8146601C84B2BC42F6DB3D
:1003E000484696E710B52DED028BB0EE408A9FEDA2
:1003F000B30A28EE000ADFEDB20A80EE201AF0EE12
:10040000418AB0EE680A0FF09DFDAE4880ED000A0B
:100410009FEDAA0A28EE000ADFEDA90A80EE201A55
:10042000F0EE418AB0EE680A0FF09AFEB1EE400A93
:10043000A44880ED010A9FEDA40A80ED020A9FED19
:100440009F0A28EE000ADFED9E0A80EE201AF0EEE9
:10045000418AB0EE680A0FF083FE9A4880ED030AE5
:1004600090ED000A80ED040A9FED970A80ED050AE1
:100470009FED950A80ED060A9FED930A80ED070A2D
:10048000B7EE000A80ED080ABDEC028B10BD10B576
:100490002DED048BB0EE408AF0EE608A9FED870A66
:1004A00028EE000ADFED860A80EE201AB0EE419AAF
:1004B000B0EE490A0FF046FDF0EE409A9FED7F0A3C
:1004C00028EE800ADFED7E0A80EE201AB0EE419A17
:1004D000B0EE490A0FF036FD29EE800A7B4880ED28
:1004E000000A9FED760A28EE000ADFED750A80EE1D
:1004F000201AB0EE419AB0EE490A0FF023FDF1EE5A
:10050000409A9FED6E0A28EE800ADFED6D0A80EEBC
:10051000201AB0EE419AB0EE490A0FF021FE29EE02
:10052000800A6A4880ED010A9FED640A28EE000AFD
:10053000DFED630A80EE201AB0EE419AB0EE490A70
:100540000FF00EFEB1EE400A604880ED020A9FED0A
:100550005B0A28EE000ADFED5A0A80EE201AB0EEA0
:10056000419AB0EE490A0FF0FBFDF0EE409A9FED84
:10057000530A28EE800ADFED520A80EE201AB0EE10
:10058000419AB0EE490A0FF0DDFC29EE800A4F488F
:1005900080ED030A9FED490A28EE000ADFED480AC4
:1005A00080EE201AB0EE419AB0EE490A0FF0D8FD65
:1005B000F1EE409A9FED410A28EE800ADFED400AF5
:1005C00080EE201AB0EE419AB0EE490A0FF0C8FD55
:1005D00029EE800A3D4880ED040A9FED380A28EE96
:1005E000000ADFED370A80EE201AB0EE419AB0EE35
:1005F000490A0FF0A7FC354880ED050A9FED2F0A48
:1006000028EE800ADFED2E0A80EE201AB0EE419A25
:10061000B0EE490A0FF0A4FDB1EE400A2B4880ED80
:10062000060A9FED260A28EE800ADFED250A80EEF5
:10063000201AB0EE419AB0EE490A0FF083FCB1EEF9
:10064000400A224880ED070A9FED1F0A80ED080A44
:10065000BDEC048B10BD10B52DED068BB0EE408ABD
:10066000F0EE608AB0EE419A9FED140A28EE000A7F
:10067000DFED130A80EE201AF0EE419AB0EE690A1F
:100680000FF060FCB0EE40AA9FED0C0A69EE000A84
:100690009FED0B1A80EE810A30EE280AF0EE409AA8
:1006A0000FF050FC2AEE000A094880ED000A11E024
:1006B000200300203400002038000020DC0F4940D7
:1006C00000003443A400002000000000C800002007
:1006D000EC0000201FED070A28EE000A5FED080A73
:1006E00080EE201AF0EE419AB0EE690A0FF02AFC73
:1006F000B1EE40AA1FED0F0A69EE000A1FED101AB5
:1007000080EE810A30EE280AF0EE409A0FF028FDC4
:100710002AEE000AFE4880ED010A1FED180A28EEB5
:10072000000A5FED190A80EE201AF0EE419AB0EE51
:10073000690A0FF015FDB1EE400AF54880ED020A96
:100740001FED220A28EE000A5FED230A80EE201A30
:10075000F0EE419AB0EE690A0FF002FDB0EE40AA49
:100760001FED2A0A69EE000A1FED2B1A80EE810A9E
:1007700030EE280AF0EE409A0FF0E4FB2AEE000A71
:10078000E34880ED030A1FED330A28EE000A5FED0F
:10079000340A80EE201AF0EE419AB0EE690A0FF0AA
:1007A000DFFCB1EE40AA1FED3B0A69EE000A1FED27
:1007B0003C1A80EE810A30EE280AF0EE409A0FF0E3
:1007C000CFFC2AEE000AD24880ED040A1FED450A4C
:1007D00028EE000A5FED460A80EE201AF0EE419AFC
:1007E000B0EE690A0FF0AEFBC94880ED050A1FEDB7
:1007F0004D0A69EE000A1FED4E1A80EE810A30EEB6
:10080000280AF0EE409A0FF0ABFCB1EE400AC04867
:1008100080ED060A1FED570A69EE000A1FED581A0F
:1008200080EE810A30EE280AF0EE409A0FF08AFB43
:10083000B1EE400AB64880ED070A1FED5D0A80ED73
:10084000080ABDEC068B10BD10B52DED068BB0EE81
:10085000408AF0EE608AB0EE419AF0EE619A1FEDA8
:10086000690A28EE000A5FED6A0A80EE201AB0EEEF
:1008700041AAB0EE4A0A0FF065FBF0EE40AA1FED68
:10088000710A69EE800A1FED721A80EE810A78EE15
:10089000890A30EE200AB0EE40AA0FF053FB2AEE90
:1008A000800A9C4880ED000A1FED7C0A28EE000AB1
:1008B0005FED7D0A80EE201AB0EE41AAB0EE4A0A42
:1008C0000FF040FBF1EE40AA1FED840A69EE800AAA
:1008D0001FED851A80EE810A78EE890A30EE200A33
:1008E000B0EE40AA0FF03CFC2AEE800A894880ED69
:1008F000010A1FED8E0A28EE000A5FED8F0A80EED6
:10090000201AB0EE41AAB0EE4A0A0FF029FCB1EE6F
:10091000400A804880ED020A1FED980A28EE000A7E
:100920005FED990A80EE201AB0EE41AAB0EE4A0AB5
:100930000FF016FCF0EE40AA1FEDA00A69EE800A47
:100940001FEDA11A80EE810A78EE890A30EE200AA6
:10095000B0EE40AA0FF0F6FA2AEE800A6D4880ED5C
:10096000030A1FEDAA0A28EE000A5FEDAB0A80EE2B
:10097000201AB0EE41AAB0EE4A0A0FF0F1FBF1EEF8
:1009800040AA1FEDB20A69EE800A1FEDB31A80EE8D
:10099000810A78EE890A30EE200AB0EE40AA0FF004
:1009A000DFFB2AEE800A5B4880ED040A1FEDBD0ADA
:1009B00028EE000A5FEDBE0A80EE201AB0EE41AAD2
:1009C000B0EE4A0A0FF0BEFA524880ED050A1FED5C
:1009D000C50A69EE800A1FEDC61A80EE810A78EE1C
:1009E000890A30EE200AB0EE40AA0FF0B9FBB1EE52
:1009F000400A484880ED060A1FEDD00A69EE800AD9
:100A00001FEDD11A80EE810A78EE890A30EE200AB5
:100A1000B0EE40AA0FF096FAB1EE400A3D4880EDE4
:100A2000070A1FEDD70A80ED080ABDEC068B10BD42
:100A300010B51FEDDB0A384880ED000A1FEDDE0A15
:100A400080ED010A1FEDE00A80ED020A1FEDE20AC7
:100A5000324880ED000A9FED320A80ED010A1FED59
:100A6000E60A80ED020A9FED2F0A2F4880ED000A6A
:100A70001FEDEB0A80ED010A1FEDED0A80ED020A81
:100A80009FED2A0A2A4880ED000A1FEDF10A80ED49
:100A9000010ABAEE030A80ED020A9FED260A2648F3
:100AA00080ED070A9FED250A80ED0D0A9FED240ACF
:100AB00080ED130A9FED230A80ED190ABFEE000AAC
:100AC00080ED060ABFEE000A80ED0C0AB7EE000AC0
:100AD00080ED120ABFEE000A80ED180A00201A49C4
:100AE0004884AFF66B0019494860AFF66F00886024
:100AF000AFF67300C860AFF673000861AFF6770019
:100B00004861AFF677008861AFF67B00C8611FE0EF
:100B1000EC000020100100203401002040010020E2
:100B2000CDCCEE4200006B434C01002033F38443F4
:100B3000580100208126A2BE64010020DB8A7D418D
:100B4000423E074286380EC0C402002080220020A8
:100B5000AFF6BF000862AFF6BF004862AFF6C30051
:100B60008862AFF6C300C8629FEDFE0AFE4880EDC2
:100B7000000A9FEDFC0A80ED010A9FEDFA0A80ED64
:100B8000020AB0EE080AF94880ED000AB0EE080A41
:100B900080ED010AB0EE080A80ED020A0121B3EEF1
:100BA0000E0A08460AF008F80121B3EE0E0A0220E8
:100BB0000AF002F80121B3EE000A032009F0FCFF5D
:100BC0000121B3EE000A042009F0F6FF10BDF0B5D4
:100BD0002DED108B85B0B0EE408AF0EE608AB0EE5D
:100BE000419A04460D4616469FEDE10A28EE000A9A
:100BF000DFEDE00A80EE201AB0EE41AAB0EE4A0A1C
:100C00000FF0A0F98DED040A38EE890A8DED030A84
:100C10009DED030ADFEDD60A20EE200ADFEDD50AAE
:100C200080EE201AB0EE41AAB0EE4A0A0FF08AF91F
:100C3000F0EE409A9FEDCE0A28EE000ADFEDCD0AD5
:100C400080EE201AB0EE41AAB0EE4A0A0FF088FA00
:100C50008DED020A9FEDC60A28EE800ADFEDC50A77
:100C600080EE201AB0EE41AAB0EE4A0A0FF06AF9FF
:100C70008DED010A38EE890A8DED000A9FEDBC0A60
:100C800028EE000ADFEDBB0A80EE201AB0EE41AA82
:100C9000B0EE4A0A0FF056F95FED5C0A20EE200A2A
:100CA00060EE29AA9FEDB20A28EE000ADFEDB10A34
:100CB00080EE201AB0EE41AAB0EE4A0A0FF050FAC8
:100CC000FAEE030A40EEC0AA9FEDA90A28EE000A38
:100CD000DFEDA80A80EE201AB0EE41AAB0EE4A0A73
:100CE0000FF030F95FED710A20EE20BA9FEDA00AF7
:100CF00028EE800ADFED9F0A80EE201AB0EE41AAAE
:100D0000B0EE4A0A0FF01EF94BEE00AA9FED980ACA
:100D100028EE000ADFED970A80EE201AB0EE41AA15
:100D2000B0EE4A0A0FF01CFA5FED830A40EEC0AA4B
:100D3000C4ED00AA9FED8E0A28EE000ADFED8D0AB1
:100D400080EE201AB0EE41AAB0EE4A0A0FF008FA7F
:100D50005FED8A0A20EE200A60EE29AA9FED840A40
:100D600028EE000ADFED830A80EE201AB0EE41AAD9
:100D7000B0EE4A0A0FF0E6F8FAEE030A40EE80AA57
:100D80009FED7B0A28EE000ADFED7A0A80EE201A3A
:100D9000B0EE41AAB0EE4A0A0FF0E2F95FED9F0A09
:100DA00020EE20BA9FED720A28EE800ADFED710A6C
:100DB00080EE201AB0EE41AAB0EE4A0A0FF0C2F857
:100DC0004BEE00AA9FED6A0A28EE000ADFED690AE1
:100DD00080EE201AB0EE41AAB0EE4A0A0FF0B2F847
:100DE0005FEDB10A40EE80AAC5ED00AA9FED600A52
:100DF00028EE800A10EE101A084610F0B7FC41ECFD
:100E00001E0B9FED5D0B53EC102B10F097F841EC8F
:100E10001D0BB0EE4D0AF0EE6D0A0FF03DF9B0EE8D
:100E200040CAF0EE60CA9FED560B53EC102B51EC0C
:100E30001C0B10F071FA41EC1A0B9DED000ADFED6E
:100E40004C0A20EE200ADFED4B0A80EE201A11EE4C
:100E5000107A384610F08AFC41EC1D0BB0EE4D0ABA
:100E6000F0EE6D0A0FF018F9B0EE40CAF0EE60CA6D
:100E70009FED450B53EC102B51EC1C0B10F04CFA72
:100E800041EC1B0B53EC1A2B10F086FB41EC1F0BB3
:100E90000FF06EFF3060002005B0BDEC108BF0BD90
:100EA00070B52DED028B0446B0EE408A0D4600264B
:100EB00000EE104AB8EE400A04EB4400344901EB5E
:100EC000C00080ED050A04EB440001EBC00080ED9A
:100ED000028A3048007818B10120BDEC028B70BD49
:100EE0000CB1042C01D90220F7E7B7EE000AB4EEEA
:100EF000C08AF1EE10FA01DD0320EEE71DB1012DED
:100F000001D00420E9E7E0B207F0D6FA0646A6B120
:100F10004DB9D6ED480A70EE880AB0EE600AE0B22C
:100F200008F02BFE0BE0D6ED480A70EEC80AB0EED2
:100F3000600AE0B208F021FE01E00520CDE70020C4
:100F4000CBE710B586B0142101A80DF0BBFEFF2041
:100F50008DF804008DF8050000208DF806000B20A8
:100F60001AE00000CDCCCC3DD0220020DC220020B5
:100F7000DC0F494000003443000000000080664060
:100F80000000000000606D4000000060669E70C0C0
:100F900064010020020000208DF80700FA48408C10
:100FA00000128DF80800F84890F822008DF809002A
:100FB000F548808B032803D100208DF80A0004E057
:100FC000F14890F824008DF80A0001208DF80B00FC
:100FD00000208DF80C0007210DF10600FFF790F9B5
:100FE0000446200E8DF80D00200C8DF80E00200A0E
:100FF0008DF80F00E0B28DF810000D2101A80AF065
:10100000F8FE0020E049487006B010BD2DE9F04719
:1010100006460F46904699460024002501245BE0D1
:10102000204607F049FA0546F5B3012C06D0022CFC
:1010300016D0032C26D0042C49D136E095ED480A71
:10104000D248D0ED070A30EE600AF2EE040A20EE34
:10105000200AD0ED060A80EE201A86ED001A37E04D
:1010600095ED480AC948D0ED0D0A30EE600AF2EE5F
:10107000040A20EE200AD0ED0C0A80EE201A87ED3B
:10108000001A25E095ED480AC048D0ED130A30EE6D
:10109000600AF2EE040A20EE200AD0ED120A80EE79
:1010A000201A88ED001A13E013E095ED480AB748BE
:1010B000D0ED190A30EE600AF2EE040A20EE200AA2
:1010C000D0ED180A80EE201A89ED001A00E000BF6A
:1010D00000E003E0601CC4B2052CA1DB00BF052CBE
:1010E00002D00120BDE8F0870020FBE7F0B52DED30
:1010F000028B85B00024A6480078002871D000201B
:10110000A349087001240EE00021204607F0EDF904
:1011100000B906E004F10A00C0B205B0BDEC028BD4
:10112000F0BD601CC4B2052CEEDB01240BE00021F5
:10113000204608F036FA00B903E004F11400C0B20A
:10114000EBE7601CC4B2052CF1DB012500BF2BE0EE
:101150008D48801C405D012824D10027284607F0D7
:10116000ABF90746EFB197ED480A8748083000EB26
:101170008500D0ED000A30EE600A10EE101A084625
:1011800010F0F4FA21F000419FED820B53EC102B8C
:1011900010F086F805D200217B48801C4155FFF7EE
:1011A000D0FE00BF681CC5B2052DD1DB01AB02AA81
:1011B00003A904A8FFF72AFF06461EB177A00DF089
:1011C000A7FC59E0049810F0D1FA21F000419FEDFE
:1011D0007F0B53EC102B10F063F803D29FED7D0AC8
:1011E00002E075E09DED040A8DED040A039810F00D
:1011F000BDFA21F000419FED750B53EC102B10F060
:101200004FF802D29FED730A01E09DED030A8DEDC8
:10121000030A029810F0AAFA21F000419FED6B0B2F
:1012200053EC102B10F03CF802D29FED6A0A01E05B
:101230009DED020A8DED020A019810F097FA21F057
:1012400000419FED620B53EC102B10F029F802D2F5
:101250009FED600A01E09DED010A8DED010A5E4AF5
:10126000111F081FDDED011A9DED021ADDED030AC5
:101270009DED040AFFF7ABFC58480078012826D101
:101280005748006818BB5748006800BB56480068BC
:10129000E8B956480068D0B95548006801280BD015
:1012A00054480068012807D053480068012803D03B
:1012B0005248006801280AD10020504908604E4970
:1012C00008604C4908604A490860FFF73AFE00BFD1
:1012D000002022E770B52DED028B0446B0EE408A67
:1012E000F0EE608A0025E0B207F0E6F80546002D32
:1012F00048D000EE104AB8EE400A04EB44002349FF
:1013000001EBC00080ED050A04EB440001EBC000D6
:1013100080ED038A04EB440001EBC00090ED030A6A
:10132000DFED370A80EE201A04EB440001EBC00029
:1013300080ED021A04EB440001EBC000C0ED048A0A
:10134000012C06D0022C09D0032C0CD0042C14D173
:101350000EE001212B480CF099FE0EE001212A48F5
:101360000CF094FE09E0012128480CF08FFE04E007
:10137000012127480CF08AFE00BF00BF0020BDEC11
:10138000028B70BD46E00000C40200206401002012
:10139000920000209A9999999999A93F20657272B3
:1013A0006F72207768696C6520696E2070726F6358
:1013B000657373696E6720706F736974696F6E20EF
:1013C000746F20616E676C650A0000007B14AE4785
:1013D000E17A843F000000006822002055000020D0
:1013E000080000200C00002014000020180000203D
:1013F000200000201C0000202400002028000020E5
:1014000000007A440004004000080040001C004036
:10141000002000406420BDEC028B70BD10B52DEDA6
:101420000C8BB0EE408AF0EE608AB0EE419AF0EE9E
:10143000619AB0EE42AAF0EE62AAB0EE43BAF0EEC4
:1014400063BAB2EE040AC8EE000AFE4890ED061A2E
:1014500090ED070A00EE810AB0EE40CAB2EE040A2F
:10146000C8EE800A90ED0C1A90ED0D0A00EE810A8C
:10147000F0EE40CAB2EE040AC9EE000A90ED121A6C
:1014800090ED130A00EE810AB0EE40DAB2EE040AE3
:10149000C9EE800A90ED181A90ED190A00EE810A43
:1014A000F0EE40DAF0EE4C0AB0EE4A0A0120FFF707
:1014B00011FFF0EE6C0AB0EE6A0A0220FFF70AFF95
:1014C000F0EE4D0AB0EE4B0A0320FFF703FFF0EEFB
:1014D0006D0AB0EE6B0A0420FFF7FCFE0020BDECA5
:1014E0000C8B10BD0FB52DED040BC3B01FED470ADB
:1014F0008DED420A1FED490A8DED410A1FED4B0AA1
:101500008DED400A1FED4D0A8DED3F0A3FAB40AA1D
:1015100041A942A8FFF77AFD3E903E9828B1CAA0A3
:101520000DF0F6FA01204BB000BD00203C903D903C
:101530009FEDCE0A8DED3B0A9DED430A20EE000A99
:10154000DDED440A00EEA00ADDED3B0A00EEE00A04
:101550008DED1B0A9DED1B0A0EF0CAFE8DED3A0AB9
:101560009DED3A0ADDED440A60EE200A9DED3B0A4E
:101570009DED431A40EE410A9DED430A20EE001A0C
:101580009DED440A00EE001A80EE810A8DED340ACA
:10159000349810F0EBF821F000419FEDB50B53ECBF
:1015A000102BCDE91A019DED1A0B51EC100B0FF029
:1015B000B1FF01D20220B6E79DED340A0EF02CFCFB
:1015C0008DED330A9DED330ADFEDAB0A20EE200AE4
:1015D000DFEDAA0A80EE201A9FEDA70AB4EEC01A2A
:1015E000F1EE10FA06DD9DED330ADFEDA50A30EECF
:1015F000600A09E09DED330ADFED9F0A60EE200AE4
:101600009FED9E1A80EE810A8DED360A9DED330A1C
:10161000DFED990A20EE200ADFED980A80EE201A0D
:101620009FED950A30EE410ADFED930AB4EEE00A31
:10163000F1EE10FA12DD9DED330ADFED8F0A20EE98
:10164000200ADFED8E0A80EE201A9FED8B0A30EE25
:10165000410ADFED8B0A30EE600A0DE09DED330AA2
:10166000DFED850A20EE200ADFED840A80EE201AE5
:101670009FED810A30EE410A8DED370A9DED3A0A61
:10168000B1EE400A8DED3A0A9DED3A0ADDED440ACD
:1016900060EE200A9DED3B0A9DED431A40EE410AA3
:1016A0009DED430A20EE001A9DED440A00EE001A5B
:1016B00080EE810A8DED340A9DED340A0EF0ACFB0C
:1016C0008DED330A9DED330ADFED6B0A20EE200A23
:1016D000DFED6A0A80EE201A9FED670AB4EEC01AA9
:1016E000F1EE10FA06DD9DED330ADFED650A30EE0E
:1016F000600A09E09DED330ADFED5F0A60EE200A23
:101700009FED5E1A80EE810A8DED380A9DED330A59
:10171000DFED590A60EE200A9FED581A80EE810A2B
:10172000DFED550A30EEC00ADFED530AB4EEE00AF1
:10173000F1EE10FA12DD9DED330ADFED4F0A20EED7
:10174000200ADFED4E0A80EE201A9FED4B0A30EEA4
:10175000410ADFED4B0A30EE600A0DE09DED330AE1
:10176000DFED450A20EE200ADFED440A80EE201A64
:101770009FED410A30EE410A8DED390A0120329089
:1017800031909FED400A8DED300A329042E0309862
:101790000FF0ECFFCDE91A0135A9329801EB80007A
:1017A00090ED000ADDED420A30EEC00A8DED170A19
:1017B00017980FF0DBFF21F00041CDE918019DEDF6
:1017C0001A0B53EC102B9DED180B51EC100B0FF076
:1017D00067FD1BD23298319035A9329801EB800019
:1017E00090ED000ADDED420A30EEC00A8DED190AD7
:1017F00019980FF0BBFF21F00041CDE91A019DEDD2
:101800001A0B51EC100B0FF0B3FA30903298401CC9
:10181000C0B2329032980528B9DB35A9319801EB76
:10182000800090ED000A8DED2F0A9DF8F100012255
:1018300031998A401043C0B28DF8F1009DED430A02
:1018400022E0000064010020706F736974696F6E9C
:1018500020746F20616E676C652063616C63756CCA
:10186000617465206572726F720A0000CDCCDB4234
:10187000000000000000F03F00003443DC0F49404E
:101880000000B4430000B94320EE000ADDED440A35
:1018900000EEA00ADDED3B0A00EEE00AB5EEC00A5C
:1018A000F1EE10FA01D203203DE63198012802D072
:1018B0003198022814D19DED430A20EE000ADDED97
:1018C000440A00EEA00ADDED3B0A00EEE00A8DEDD1
:1018D0001B0A9DED1B0A0EF00BFD8DED3A0A15E07B
:1018E0009DED430A20EE000ADDED440A00EEA00A59
:1018F000DDED3B0A00EEE00A8DED1B0A9DED1B0AB3
:101900000EF0F6FCB1EE400A8DED3A0A9DED2F0A7D
:10191000479880ED000A9DED430A20EE000ADDEDB8
:10192000440A00EEA00ADDED450A00EEA00ADDED56
:101930003B0A00EEE00ADFEDFC0A30EE600ADFED64
:10194000FB0A70EE600AB0EE001A80EE810A9FED8D
:10195000F81AC0EE010A9FEDF71A80EE810A8DEDAC
:10196000190A19980FF002FF21F000411FED400BFA
:1019700053EC102BCDE91A019DED1A0B51EC100B15
:101980000FF0C8FD01D20420CDE59DED430A20EE05
:10199000000ADDED440A00EEA00ADDED450A00EE86
:1019A000A00ADDED3B0A00EEE00ADFEDDF0A70EE93
:1019B000600A9FEDDE0A70EEC00AB0EE001A80EEFB
:1019C000810A9FEDDB1AC0EE010A9FEDDA1A80EE64
:1019D000810A8DED1B0A9DED1B0A0EF091F98DED2C
:1019E0002B0A9DED2B0A5FED5C0A60EE200A1FEDCD
:1019F0005D0A80EE801A8DED2D1A9DED2B0A5FEDAC
:101A0000620A20EE200A1FED631AC0EE010A1FEDE4
:101A1000660A70EE800A1FED680AF4EEC00AF1EE65
:101A200010FA0CDD9DED2B0A5FED6D0A20EE200A09
:101A30005FED6E0A80EE201AB1EE410A0DE09DEDD9
:101A40002B0A5FED730A60EE200A1FED741A80EE18
:101A5000810A5FED770A30EE200A8DED2E0A9DEDAA
:101A60002E0ADDED400A30EEC00A8DED170A1798F8
:101A70000FF07CFE21F00041CDE91A019DED2D0A09
:101A8000DDED400A30EEC00A8DED170A17980FF011
:101A90006DFE21F00041CDE918019DED1A0B53ECCC
:101AA000102B9DED180B51EC100B0FF0F9FB02D22F
:101AB0009DED2D0A01E09DED2E0A8DED2B0A9DED89
:101AC0002E0ADDED400A30EEC00A8DED170A179898
:101AD0000FF04CFE21F00041CDE91A01DDED2D0A99
:101AE0009DED400A30EE600A8DED170A17980FF051
:101AF0003DFE21F00041CDE918019DED1A0B53EC9C
:101B0000102B9DED180B51EC100B0FF0C9FB06D2FA
:101B10009DF8F30040F002008DF8F30005E09DF819
:101B2000F30040F004008DF8F3009DED2B0A499876
:101B300080ED000A9DED2B0A5FEDB00A60EE200AF1
:101B40001FEDB31A80EE810A8DED1A0A9DED1A0A77
:101B50000EF0F8F9F0EE400A9FED770A9FED771A44
:101B600001EE200A8DED1B0A9DED1B0A0EF0C0FB55
:101B70008DED2A0ADDED3A0A9DED2A0A80EE801AE3
:101B80008DED191A19980FF0F1FD21F000411FEDAC
:101B9000C80B53EC102BCDE91A019DED1A0B51EC3B
:101BA000100B0FF0B7FC2FD39DED2B0A5FEDCD0A84
:101BB00060EE200A1FEDD01A80EE810A8DED180A22
:101BC0009DED180A0EF0BEF9F0EE400A9FED580A9E
:101BD0009FED581A01EE200ADDED2A0A80EE201A48
:101BE0008DED191A19980FF0C1FD21F000411FED7C
:101BF000E00B53EC102BCDE91A019DED1A0B51ECC3
:101C0000100B0FF087FC01D205208CE4DDED3A0AC1
:101C10009DED2A1A80EE810A8DED1B0A9DED1B0AAF
:101C20000EF06EF88DED240A9DED2B0A5FEDED0AA6
:101C300060EE200A1FEDF01A80EE810A8DED1A0A7F
:101C40009DED1A0A0EF07EF9F0EE400A9FED380A7B
:101C50009FED381A01EE200ADDED2A0A80EE201AE7
:101C60008DED1B1A9DED1B0A0EF04AF88DED230A2F
:101C7000DDED240A9DED230A30EEC00ADFED300AC7
:101C8000B4EEE00AF1EE10FA0ADD9DED240ADDED76
:101C9000230A30EE600ADFED2B0A30EE600A05E021
:101CA0009DED240ADDED230A30EE600A8DED260A53
:101CB0009DED240ADDED230A30EE200ADFED200A37
:101CC000B4EEE00AF1EE10FA0ADD9DED240ADDED36
:101CD000230A30EE200ADFED1B0A30EE600A05E031
:101CE0009DED240ADDED230A30EE200A8DED270A52
:101CF0009DED240AF1EE400A9DED230A30EEC00A64
:101D0000DFED0F0AB4EEE00AF1EE10FA1CDD9DEDF6
:101D1000240AF1EE400A9DED230A30EEC00ADFED01
:101D2000090A30EE600A17E000B9574767178A477B
:101D300000006B4333F38443E7F3F5478016F44721
:101D4000DC0F4940DC0FC9409DED240AF1EE400A4A
:101D50009DED230A30EEC00A8DED280A9DED240A80
:101D6000F1EE400A9DED230A30EE800A5FED0C0A89
:101D7000B4EEE00AF1EE10FA0CDD9DED240AF1EE6E
:101D8000400A9DED230A30EE800A5FED120A30EE24
:101D9000600A07E09DED240AF1EE400A9DED230A5A
:101DA00030EE800A8DED290A9FEDFE0A8DED220AA4
:101DB0000120329052E022980FF0D8FCCDE91A01B0
:101DC00025A9329801EB800090ED000ADFEDF60ABC
:101DD00060EE200A1FED261A80EE810ADDED410A31
:101DE00030EEC00A8DED170A17980FF0BFFC21F0F6
:101DF0000041CDE918019DED1A0B53EC102B9DED20
:101E0000180B51EC100B0FF04BFA23D23298319093
:101E100025A9329801EB800090ED000ADFEDE20A7F
:101E200060EE200A1FED3A1A80EE810ADDED410ACC
:101E300030EEC00A8DED190A19980FF097FC21F0C9
:101E40000041CDE91A019DED1A0B51EC100B0EF07B
:101E50008FFF22903298401CC0B2329032980528F1
:101E6000A9DB9DF8F200012231998A401043C0B2EB
:101E70008DF8F20025A9319801EB800090ED000A61
:101E8000DFEDC90A20EE200A5FED530A80EE201A2A
:101E9000489880ED001A489890ED000ADFEDC30ADB
:101EA00030EEC00A4998D0ED000A30EE600A8DEDA0
:101EB0001E0A4898D0ED000A9FEDBB0A30EE600A7A
:101EC0004998D0ED000A30EE600A8DED1F0A48985F
:101ED00090ED000ADFEDB60A70EEC00A499890ED69
:101EE000000A30EEC00A8DED200A4898D0ED000AB5
:101EF000B04890ED000A30EE600A4998D0ED000A33
:101F000030EE600A8DED200A9FEDA60A8DED1C0AC9
:101F10000120329042E01C980FF028FCCDE91A0114
:101F20001DA9329801EB800090ED000ADDED3F0A1B
:101F300030EEC00A8DED170A17980FF017FC21F04C
:101F40000041CDE918019DED1A0B53EC102B9DEDCE
:101F5000180B51EC100B0FF0A3F91BD232983190F3
:101F60001DA9329801EB800090ED000ADDED3F0ADB
:101F700030EEC00A8DED190A19980FF0F7FB21F029
:101F80000041CDE91A019DED1A0B51EC100B0EF03A
:101F9000EFFE1C903298401CC0B232903298042858
:101FA000B9DB1DA9319801EB800090ED000A4A9839
:101FB00080ED000A9DF8F400012231998A40104317
:101FC000C0B28DF8F4007C48007801287DD14A9891
:101FD00090ED000A8DED160A499890ED000A8DEDFE
:101FE000150A489890ED000A8DED140A479890ED77
:101FF000000A8DED130A19AA1AA91BA8DDED161AFD
:102000009DED151ADDED140A9DED130AFEF7DFFDB7
:102010009DED430A20EE000ADDED440A00EEA00A21
:10202000DDED3B0A00EEE00A8DED160A9DED160A85
:102030000EF05EF98DED180A002017900120329005
:1020400006E235A9329801EB800090ED000A8DED93
:10205000160A3298032802D03298042805D19DED43
:10206000180AB1EE400A8DED180A002015900120E3
:102070001590E5E12CA9159801EB800090ED000A80
:102080008DED140A9DED140A5FEDD30A60EE200A6F
:102090009FED451A80EE810A8DED110A9DED110A22
:1020A0000DF050FFF0EE400A1FEDDD0A1FEDDD1AC6
:1020B00001EE200A8DED120A9DED120A0EF018F9BC
:1020C0008DED2A0A9DED3A0A00E0F8E2DDED2A0ADC
:1020D00080EE201A8DED121A9DED120A0DF010FE01
:1020E0008DED240A9DED140A5FEDEB0A60EE200AE7
:1020F0009FED2D1A80EE810A8DED110A9DED110ADA
:102100000DF020FFF0EE400A1FEDF70A1FEDF71A61
:1021100001EE200ADDED2A0A80EE201A8DED121A5A
:102120009DED120A0DF0ECFD8DED230A9DED240AC4
:10213000DDED230A30EE600ADFED200AB4EEE00A9E
:10214000F1EE10FA0ADD9DED240ADDED230A30EEF2
:10215000600ADFED1B0A30EE600A0DE09DED240AF7
:10216000DDED230A30EE600ADFED0F0A60EE200A93
:102170009FED121A80EE810A8DED260A9DED240A4C
:10218000DDED230A30EE200ADFED0C0AB4EEE00AA2
:10219000F1EE10FA1BDD9DED240ADDED230A30EE91
:1021A000200A0FE00000B9430000344300000000A3
:1021B0000000B4432C00002055000020DC0F4940F3
:1021C000DC0FC9405FED020A30EE600A0DE09DEDC4
:1021D000240ADDED230A30EE200A5FED0D0A60EEE1
:1021E000200A1FED0A1A80EE810A8DED270A9DED67
:1021F000240AF1EE400A9DED230A30EEC00A5FED9D
:10220000110AB4EEE00AF1EE10FA0CDD9DED240A9D
:10221000F1EE400A9DED230A30EEC00A5FED180A88
:1022200030EE600A0FE09DED240AF1EE400A9DEDCC
:10223000230A30EEC00A5FED240A60EE200A1FED8B
:10224000211A80EE810A8DED280A9DED240AF1EE17
:10225000400A9DED230A30EE800A5FED280AB4EEB5
:10226000E00AF1EE10FA0CDD9DED240AF1EE400AD1
:102270009DED230A30EE800A5FED2F0A30EE600AF2
:102280000FE09DED240AF1EE400A9DED230A30EEA9
:10229000800A5FED3B0A60EE200A1FED381A80EEDF
:1022A000810A8DED290A0020139001201390BFE0D0
:1022B00025A9139801EB800090ED000A8DED120A1C
:1022C0009DED120A5FED470A70EEC00A9DED140AFB
:1022D00030EEC00A8DED1E0A9DED120A5FED4E0A2A
:1022E00070EEC00A9DED140A30EEC00A8DED1F0A93
:1022F0009DED120A5FED520A70EEC00A9DED140AC0
:1023000030EEC00A8DED200A01201190119087E077
:102310001DA9119801EB800090ED000A8DED100AC7
:1023200019AA1AA91BA8DDED101A9DED141ADDEDEE
:10233000120A9DED160AFEF74AFCDDED1B0A9DED23
:10234000430A30EEC00A8DED0D0A0D980FF00EFA1B
:1023500021F000419FEDF80B53EC102BCDE90E015D
:102360009DED0E0B51EC100B0EF09AFF54D2DDEDEB
:102370001A0A9DED440A30EEC00A8DED0D0A0D9843
:102380000FF0F4F921F000419FEDEB0B53EC102B13
:10239000CDE90E019DED0E0B51EC100B0EF080FF00
:1023A0003AD2DDED190A9DED450A30EEC00A8DEDF9
:1023B0000D0A0D980FF0DAF921F000419FEDDE0BC8
:1023C00053EC102BCDE90E019DED0E0B51EC100BD3
:1023D0000EF066FF20D29DED160AD949179801EB41
:1023E000001080ED000A9DED120A179801EB001015
:1023F00080ED010A9DED140A179801EB001080EDA5
:10240000020A9DED100A179801EB001080ED030AF7
:102410001798401CC0B217901198401CC0B2119080
:1024200011980428FFF674AF1398401CC0B21390A3
:1024300013980528FFF63CAF1598401CC0B21590C4
:1024400015980328FFF616AE3298401CC0B23290A1
:1024500032980528FFF6F5AD179800287EDD00209C
:1024600016909FEDB80A8DED120A9FEDB60A8DED1C
:10247000130A9FEDB40A8DED140A9FEDB20A8DED9B
:10248000150A1690FDE09DED150ADDED3F0A30EED0
:10249000C00A8DED090A09980FF068F921F0004192
:1024A000CDE90C019DED140ADDED400A30EEC00AC5
:1024B0008DED050A05980FF059F921F00041CDE99D
:1024C00008019DED130ADDED410A30EEC00A8DEDE5
:1024D000010A01980FF04AF921F00041CDE9040109
:1024E000DDED120A9DED420A30EE600A8DED010A23
:1024F00001980FF03BF921F00041CDE902019DED7B
:10250000040B53EC102B9DED020B51EC100B0EF055
:1025100061FCCDE906019DED080B53EC102B9DED00
:10252000060B51EC100B0EF055FCCDE90A019DEDA8
:102530000C0B53EC102B9DED0A0B51EC100B0EF015
:1025400049FCCDE910017E49169801EB001090ED91
:10255000030ADDED3F0A30EEC00A00E0ABE08DED8E
:10256000090A09980FF002F921F00041CDE90C01A8
:102570007349169801EB001090ED020ADDED400A58
:1025800030EEC00A8DED050A05980FF0EFF821F046
:102590000041CDE908016A49169801EB0010D0ED21
:1025A000010A9DED410A30EE600A8DED010A0198A5
:1025B0000FF0DCF821F00041CDE9040160491698E4
:1025C00001EB001090ED000ADDED420A30EEC00A8A
:1025D0008DED010A01980FF0C9F821F00041CDE915
:1025E00002019DED040B53EC102B9DED020B51EC01
:1025F000100B0EF0EFFBCDE906019DED080B53EC3F
:10260000102B9DED060B51EC100B0EF0E3FBCDE90A
:102610000A019DED0C0B53EC102B9DED0A0B51ECB8
:10262000100B0EF0D7FBCDE90E019DED100B53EC16
:10263000102B9DED0E0B51EC100B0EF031FE1CD249
:102640003F49169801EB001090ED000A8DED120A3B
:10265000169801EB001090ED010A8DED130A169803
:1026600001EB001090ED020A8DED140A169801EBB3
:10267000001090ED030A8DED150A1698401CC0B2AB
:102680001690DDE916018842FFF6FDAE9DED120AB7
:10269000479880ED000A9DED130A489880ED000AE6
:1026A0009DED140A499880ED000A9DED150A4A989F
:1026B00080ED000A02E00820FEF735BF00BF00BF32
:1026C0000020F9E72DE9F04792B01F48808C0528DB
:1026D00006D006287ED007287DD008287CD1D8E2F5
:1026E000342105A80CF0EEFAFF208DF814008DF8C7
:1026F000150000208DF816001348807F401F00EB66
:1027000080000930C0B28DF817000F48408C0012CD
:102710008DF818000C4890F822008DF8190005205B
:102720008DF81A000DF11B044FF00008064890F8D0
:102730002660002510E000009A9999999999C93F5F
:10274000E822002000007A44C402002006F00100C4
:1027500008B1681CC5B27610002EF7DCFE48C08BAD
:10276000401FA84206D0AFF604700CF0D1F912B0A9
:10277000BDE8F0870025F84890F8266004AB03AA6E
:1027800002A901A8FEF742FCA84656E009E006F0BF
:10279000010018B1681CC5B2761004E0681CC5B20F
:1027A0007610002EF3DC00BF04F8015B684600EBF6
:1027B000850090ED000ADFEDE90A20EE200ABDEE6B
:1027C000C00A10EE100A000E04F8010B684600EB78
:1027D000850002E058E032E15AE290ED000ADFEDB8
:1027E000DF0A20EE200ABDEEC00A10EE100A000C2F
:1027F00004F8010B684600EB850090ED000ADFED60
:10280000D70A20EE200ABDEEC00A10EE100A000A18
:1028100004F8010B684600EB850090ED000ADFED3F
:10282000CF0A20EE200ABDEEC00A10EE100A04F80E
:10283000010B08F1010000F0FF08C748C08B401FE2
:102840004045A3DCC448C08B401F00EB8000401D06
:1028500081B20DF11600FDF753FD0746380E04F85E
:10286000010B380C04F8010B380A04F8010B04F8CA
:10287000017BB948C08B401F00EB80000B3081B258
:1028800005A809F0B6FA9FE2342105A80CF01AFA5F
:10289000FF208DF814008DF8150000208DF816002B
:1028A000AD48807F401F00EB80000930C0B28DF83A
:1028B0001700A948408C00128DF81800A64890F81F
:1028C00022008DF8190006208DF81A000DF11B0466
:1028D0004FF0000AA04890F82660002505E006F0B9
:1028E000010008B1681CC5B27610002EF7DC9A48CA
:1028F000C08B401FA84203D099480CF009F936E775
:102900000025954890F82660A846A9464FF0010892
:1029100015E0404605F0D0FD8146B9F1000F0AD020
:1029200099ED470AF1EE080A80EE201A684600EB9E
:10293000880080ED001A08F1010000F0FF08B8F1EE
:10294000050FE6DB4FF0000A52E009E006F0010057
:1029500018B1681CC5B2761004E0681CC5B27610C8
:10296000002EF3DC00BF04F8015B684600EB850035
:1029700090ED000ADFED790A20EE200ABDEEC00AD4
:1029800010EE100A000E04F8010B684600EB8500FB
:1029900090ED000ADFED710A20EE200ABDEEC00ABC
:1029A00010EE100A000C04F8010B684600EB8500DD
:1029B00090ED000ADFED690A20EE200ABDEEC00AA4
:1029C00010EE100A000A04F8010B684600EB8500BF
:1029D00090ED000ADFED610A20EE200ABDEEC00A8C
:1029E00010EE100A04F8010B0AF1010000F0FF0AD2
:1029F0005948C08B401F5045A7DC5748C08B401F2B
:102A000000EB8000401D81B20DF11600FDF778FC4F
:102A10000746380E04F8010B380C04F8010B380A8D
:102A200004F8010B04F8017B4B48C08B401F00EBFE
:102A300080000B3081B205A809F0DBF9C4E1342134
:102A400005A80CF03FF9FF208DF814008DF8150053
:102A500000208DF8160021208DF817003E48408C8C
:102A600000128DF818003C4890F822008DF81900EB
:102A700007208DF81A000DF11B04142168460CF094
:102A800021F904AB03AA02A901A8FEF7BFFA0020AE
:102A900004F8010B04F8010B04F8010B04F8010B16
:102AA0009DED020ADDED030A30EE200ADDED040A99
:102AB00030EE200ADFED290A20EE200ABDEEC00A22
:102AC00010EE105A280E04F8010B280C04F8010B24
:102AD000280A04F8010B04F8015B9DED010ADFED03
:102AE0001F0A20EE200ABDEEC00A10EE106A300E5A
:102AF00004F8010B300C04F8010B300A04F8010B48
:102B000004F8016B174890ED000ADFED170A20EE7C
:102B1000200ABDEEC00A10EE100A000E04F8010BE8
:102B2000104890ED000ADFED100A20EE200ABDEEFD
:102B3000C00A10EE100A000C04F8010B094890EDD1
:102B4000000ADFED090A20EE200ABDEEC00A10EEF1
:102B5000100A000A0AE00000C402002000401C46DF
:102B600064180008602200200000C84204F8010B2D
:102B7000FA4890ED000A5FED040A20EE200ABDEE4F
:102B8000C00A10EE100A04F8010BF44890ED010A97
:102B90005FED0B0A20EE200ABDEEC00A10EE100A0F
:102BA000000E04F8010BED4890ED010A5FED120AEA
:102BB00020EE200ABDEEC00A10EE100A000C04F848
:102BC000010BE64890ED010A5FED190A20EE200A9C
:102BD000BDEEC00A10EE100A000A04F8010BDF482F
:102BE00090ED010A5FED200A20EE200ABDEEC00A3A
:102BF00010EE100A04F8010BD84890ED020A5FEDC0
:102C0000260A20EE200ABDEEC00A10EE100A000EC1
:102C100004F8010BD14890ED020A5FED2D0A20EE79
:102C2000200ABDEEC00A10EE100A000C04F8010BD9
:102C3000CA4890ED020A5FED340A20EE200ABDEE8C
:102C4000C00A10EE100A000A04F8010BC34890ED08
:102C5000020A5FED3B0A20EE200ABDEEC00A10EE2C
:102C6000100A04F8010B1D210DF11600FDF748FBB9
:102C70000746380E04F8010B380C04F8010B380A2B
:102C800004F8010B04F8017B232105A809F0B1F831
:102C90009AE0342105A80CF015F8FF208DF81400F7
:102CA0008DF8150000208DF81600AD48807F001DBE
:102CB000C0B28DF81700AA48408C00128DF8180099
:102CC000A74890F822008DF8190008208DF81A0006
:102CD0000DF11B044FF0000AA14890F82650002780
:102CE00005E005F0010008B1781CC7B26D10002D99
:102CF000F7DC9B48C08B401FB84203D099480BF0CB
:102D000007FF34E50027964890F82650B846B946A4
:102D10004FF0010815E0404605F0CEFB8146B9F1C1
:102D2000000F0AD0B9F8080100EE100AB8EE400A08
:102D3000684600EB880080ED000A08F1010000F011
:102D4000FF08B8F1050FE6DB4FF0000A1CE009E0D0
:102D500005F0010018B1781CC7B26D1004E0781CB2
:102D6000C7B26D10002DF3DC00BF684600EB870092
:102D700090ED000ABDEEC00A10EE100A04F8010B37
:102D80000AF1010000F0FF0A7548C08B401F504552
:102D9000DDDC7348C08B81B20DF11600FDF7B0FA8F
:102DA0000646300E04F8010B300C04F8010B300A13
:102DB00004F8010B04F8016B6948C08B801D81B2D7
:102DC00005A809F016F800BF00BF00BFCFE47FB52B
:102DD0000546022D3CD0032D76D1002000900190B5
:102DE00002900390FF208DF800008DF80100002074
:102DF0008DF802000B208DF803005948408C00121A
:102E00008DF80400564890F822008DF80500002047
:102E10008DF806008DF807008DF8080007210DF1E8
:102E20000200FDF76DFA0446200E8DF80900200C13
:102E30008DF80A00200A8DF80B00E0B28DF80C0026
:102E40000D21684608F0D5FF0120454948703BE058
:102E500000200090019002900390FF208DF8000068
:102E60008DF8010000208DF802000B208DF8030082
:102E70003B48408C00128DF80400394890F822003D
:102E80008DF8050009208DF8060000208DF8070058
:102E90008DF8080007210DF10200FDF731FA044614
:102EA000200E8DF80900200C8DF80A00200A8DF8FC
:102EB0000B00E0B28DF80C000D21684608F099FF78
:102EC00001202749487000BF00BF7FBD10B586B004
:102ED000142101A80BF0F6FEFF208DF804008DF8F8
:102EE000050000208DF806000B208DF807001C4817
:102EF000408C00128DF80800194890F822008DF8D7
:102F000009001748808B032803D100208DF80A00A0
:102F100004E0134890F824008DF80A0001208DF891
:102F20000B008DF80C0007210DF10600FDF7E8F904
:102F30000446200E8DF80D00200C8DF80E00200A9E
:102F40008DF80F00E0B28DF810000D2101A808F0F7
:102F500050FF00200249487006B010BD60220020DA
:102F6000C40200206418000800B5DDB020E0F94874
:102F700000680078FF2806D1F648006840680078AD
:102F8000FF2800D115E0F3480068F349096888423A
:102F900002D101205DB000BD0020EE490968087033
:102FA000EC4909684870EB4800684068E9490860E6
:102FB000DDE700BFE74800680078FF2840F0EA87B7
:102FC000E448006840680078FF28F7D10120E34911
:102FD000087000202990DF4909680870DD490968F8
:102FE0004870DC4800684068DA49086000200968D9
:102FF0000870D84909684870D64800684068D549C3
:10300000086015E000202590022008F001FE2599B7
:10301000481C259028290ADD0021CE48006841700F
:10302000CC4800684068CB4908600220B2E700BF86
:10303000C848006840780028E4D0C6480068027894
:103040002998411CC9B229912AA90A540020C149D2
:1030500009684870BF4800684168BE48016015E0D3
:1030600000202590022008F0D3FD2599481C2590CA
:1030700028290ADD0020B74909684870B54800686A
:103080004168B4480160022084E700BFB14800688D
:1030900040780028E4D0AF48006802782998411CA5
:1030A000C9B229912AA90A540020AA49096848707E
:1030B000A84800684068A74908609DF8A9009DF8E5
:1030C000A81040EA01202890289806280DDA00214F
:1030D000A048006841709F48006840689D490860AA
:1030E0009FA00BF015FD032054E72EE00020259053
:1030F00013E0022008F08CFD2598411C89B225912F
:103100003C280ADD0021934800684170914800681E
:1031100040689049086002203CE78E48006840788B
:103120000028E6D08B48006801782AAA2998115413
:1031300000218848006841708648006841688548D9
:1031400001602998401CC0B22990DDE9281088420E
:10315000CCDB2898001F80B2014625902AA8FDF7F5
:10316000CFF8279083A027990BF0D2FC2898001F56
:103170002AA9085C01062898C01E2AAA105C41EA08
:1031800000412898801E105C41EA00212898401ECA
:10319000105C08432690DDE92610884204D079A00F
:1031A0000BF0B6FC0420F5E600216C48017028986D
:1031B000001F6A49C8839DF8AA0040EA00216748B9
:1031C00041849DF8AC108184808C012803DB634826
:1031D000808C04280FDD6148808C0A280BD05F4862
:1031E000808C0B2807D05D48808C0C2803D05B486E
:1031F000808C0D2877D15948808C0146259064A099
:103200000BF086FC03205549888300215348C18474
:10321000808C0E2856D2DFE810F055009401EA01A8
:103220003F020705550055005500550055000E009A
:1032300056008C002E014948007F2390FFF7C7FD00
:103240000DF1AD0025900020249024902BE02598CE
:103250000078012820D14148C08C012224998A405D
:10326000104381B23D48C1842498401C042813DCDB
:103270002498401CC0B2239006F02BFB02E00A20E9
:1032800008F00EFD2498401CC0B2012206212390B4
:1032900006F0D9FB0028F2D12598401C25902498EF
:1032A000401CC0B224902D48C08B401F24998842F6
:1032B000CDDC2A48C08C0F2802DD3EA00BF028FC94
:1032C000FDF73FFEFDE32548007F2390FFF77FFDDC
:1032D0000DF1AD00259000202490FF201F49C884E7
:1032E000002024901CE0EDE32598007888B91B4865
:1032F000C08C002224998A4010401849C884249820
:10330000401C042805DC2498401CC0B2239006F021
:1033100052FB2598401C25902498401CC0B2249054
:103320000E48C08B401F24998842DDDCFDF709FE62
:10333000C8E70A48007F2390FFF749FD0DF1AD0073
:10334000259000202490FF210448C184002024906F
:1033500088E000003400002038000020C402002073
:1033600064617461206C656E677468206572726F49
:10337000720A000043524320726573756C742020FA
:1033800025780A00637263206572726F720A00000A
:10339000636F6E74726F6C206672616D652C20664F
:1033A000756E6374696F6E20636F64652020256499
:1033B0000A0000007761726E696E6720746F6F207B
:1033C0006D756368206D6F746F722C20656E61621D
:1033D0006C65203120746F2034206D6F746F722003
:1033E000616C72656164790A0000000025980078BC
:1033F00088BBFE48C08C002224998A401040FB49BB
:10340000C8842498401C042825DC2498401CC0B2A1
:103410009FEDF70A239006F0F0FF2498401CC0B2FD
:1034200001220621239006F00EFB0021F1480AF04C
:103430002DFEF14890ED000AEC4880ED0F0AEE48B1
:1034400090ED010AE94880ED100AEB4890ED020A80
:10345000E64880ED110A2598401C25902498401CD0
:10346000C0B22490E148C08B401F24998842BDDC43
:10347000FDF767FD26E7DD48007F2490FFF7A7FCF6
:103480009DF8AD0025902598042803DDDBA00BF006
:103490003FFB55E0DDA00BF03BFB002024909DF8A6
:1034A000AE0000069DF8AF1040EA01419DF8B00063
:1034B00041EA00209DF8B110084324900020239099
:1034C000259804F0F9FF2390239890B30122C74870
:1034D000801C259942549DED240AB8EEC00A9FED48
:1034E000D11AC0EE010A239890ED480A30EE800A06
:1034F000BE480830259900EB810080ED000A9DED63
:10350000240AB8EEC00ADFEDC70A80EE201A23981D
:1035100090ED480A31EE000A8DED220A9DED220A57
:10352000259806F02AFB28B10022B048801C259976
:10353000425404E0AD48007F2290FFF748FC00BFF2
:10354000C0E69DF8AD0025902598042803DDABA0CA
:103550000BF0DEFA4AE0B4A00BF0DAFA0020249077
:103560009DF8AE0000069DF8AF1040EA01419DF8BD
:10357000B00041EA00209DF8B110084324900020DB
:103580002390259804F098FF2390239838B30122C4
:103590009648801C259942549DED240AB8EEC00A35
:1035A000DFEDA00A80EE201A801D259900EB810036
:1035B00080ED001A9DED240AF8EEC00A9FED991ADD
:1035C00080EE810A8DED220A9DED220A259806F0F3
:1035D000D4FA28B100228548801C2599425404E081
:1035E0008248007F2290FFF7F2FB00BF69E293A0C0
:1035F0000BF08EFA002025909DF8AE0000069DF895
:10360000AF1040EA01409DF8B01040EA01209DF85B
:10361000B110084325909DF8AD002490249801280E
:1036200039DB2498042836DC01220221249806F094
:103630000AFA9DED250AF8EEC00A9FED7A1A80EE8F
:10364000810A8DED230A23980EF090F821F00041B5
:103650009FED7F0B53EC102BCDE920019DED200B4E
:1036600051EC100B0DF01CFE14D29DED230AF1EE6F
:10367000080A20EE200A8DED220A9DED220A2498E8
:1036800006F0BBFE30B95948007F2290FFF79FFB40
:10369000FDF757FC00BFF3E36FA00BF039FA22AB44
:1036A00023AA24A925A8FDF7B1FC9DED240ADDED90
:1036B000230A30EE200ADDED220A30EE200A6E48A1
:1036C00080ED000A9DF8AE0000069DF8AF1040EABC
:1036D00001419DF8B00041EA00209DF8B110084377
:1036E00021909DED210AF8EEC00A9FED641A80EE4C
:1036F000810A8DED200A9DF8AD001F901F980628C5
:103700005DD2DFE800F0035DFEFDFCFB00213948DF
:103710000AF0BCFC384890ED000A344880ED0F0AEE
:1037200020980EF023F821F00041CDE91A0132482B
:10373000406817900EF01AF8CDE918019DED1A0BAC
:1037400053EC102B9DED180B51EC100B0DF042FBC0
:10375000CDE91C019DED1C0B51EC100B0DF008FB8D
:1037600022490864244890ED020A084680ED110AB7
:10377000406C17900DF0FAFFCDE91C011B48006C5E
:1037800017900DF0F3FFCDE91A011848C06B1790A0
:103790000DF0ECFFCDE91801DDE91C01CDE90201D6
:1037A000DDE91A01CDE900019DED180B53EC102B5A
:1037B00033A00BF0ADF901210E480AF067FC2CE2B2
:1037C00000210C480AF062FC0B4890ED000A074803
:1037D00080ED0F0A20980DF0C9FF21F00041CDE9DE
:1037E0001A010548406817905AE00000C402002002
:1037F0000000000000100040602200206D6F746F18
:1038000072206964206572726F720A0072656C20A2
:10381000706F736974696F6E2C20636D6431330A45
:103820000000000000401C4661627320706F7369E5
:1038300074696F6E2C20636D64310A00636D6420BF
:10384000322C20737065656420636D640A0000008B
:103850000000000000002440636D6420332C2072BF
:10386000656C617469766520706F736974696F6ED9
:1038700020636D640A0000002C0000200000C84294
:1038800074617267657420706F736974696F6E20FC
:1038900069732025662C2025662C2025660A0000E9
:1038A0000DF064FFCDE918019DED1A0B53EC102BC0
:1038B0009DED180B51EC100B0DF06EFECDE91C01C7
:1038C0009DED1C0B51EC100B0DF052FAFE490864F3
:1038D000FE4890ED020A084680ED110A406C1790F0
:1038E0000DF044FFCDE91C01F748006C17900DF076
:1038F0003DFFCDE91A01F448C06B03E031E1D1E0AE
:1039000075E019E017900DF031FFCDE91801DDE900
:103910001C01CDE90201DDE91A01CDE900019DEDAF
:10392000180B53EC102BAFF2A8000BF0F1F80121AB
:10393000E7480AF0ABFB70E10021E5480AF0A6FB7E
:1039400020980DF013FF21F00041CDE91A01DF4866
:10395000006817900DF00AFFCDE918019DED1A0BD4
:1039600053EC102B9DED180B51EC100B0DF014FEC9
:10397000CDE91C019DED1C0B51EC100B0DF0F8F97D
:10398000D149C863D14890ED010A084680ED100A7C
:10399000CE4890ED020A084680ED110A406C17905F
:1039A0000DF0E4FECDE91C01C748006C17900DF046
:1039B000DDFECDE91A01C448C06B17900DF0D6FEAC
:1039C000CDE91801DDE91C01CDE90201DDE91A01AB
:1039D000CDE900019DED180B53EC102BAFF26010F8
:1039E0000BF096F80121BA480AF050FB15E10021CE
:1039F000B7480AF04BFB20980DF0B8FE21F00041CB
:103A0000CDE91A01B148006817900DF0AFFECDE97D
:103A100018019DED1A0B53EC102B9DED180B51EC7A
:103A2000100B0DF0D7F9CDE91C019DED1C0B51ECED
:103A3000100B0DF09DF9A449C863A44890ED010A4C
:103A4000084680ED100AA14890ED020A084680ED74
:103A5000110A406C17900DF089FECDE91C019A48BF
:103A6000006C17900DF082FECDE91A019648C06BEC
:103A700017900DF07BFECDE91801DDE91C01CDE9C1
:103A80000201DDE91A01CDE900019DED180B53ECAF
:103A9000102BAFF214200BF03BF801218C480AF0F8
:103AA000F5FABAE000218A480AF0F0FA874890ED6A
:103AB000000A854880ED0F0A844890ED010A82488B
:103AC00001E0DDE1DDE180ED100A20980DF04EFE11
:103AD00021F00041CDE91A017C48806817900DF073
:103AE00045FECDE918019DED1A0B53EC102B9DED11
:103AF000180B51EC100B0DF06DF9CDE91C019DED8B
:103B00001C0B51EC100B0DF033F96F49486408465B
:103B1000406C17900DF02AFECDE91C016A48006C3C
:103B200017900DF023FECDE91A016748C06B17907E
:103B30000DF01CFECDE91801DDE91C01CDE9020103
:103B4000DDE91A01CDE900019DED180B53EC102BB6
:103B5000AFF2D4200AF0DCFF01215D480AF096FAAA
:103B60005BE000215A480AF091FA584890ED000AAB
:103B7000554880ED0F0A554890ED010A524880EDF6
:103B8000100A20980DF0F2FD21F00041CDE91A0154
:103B90004E48806817900DF0E9FDCDE918019DEDC4
:103BA0001A0B53EC102B9DED180B51EC100B0DF074
:103BB000F3FCCDE91C019DED1C0B51EC100B0DF03D
:103BC000D7F8414948640846406C17900DF0CEFD87
:103BD000CDE91C013C48006C17900DF0C7FDCDE904
:103BE0001A013948C06B17900DF0C0FDCDE91801DE
:103BF000DDE91C01CDE90201DDE91A01CDE9000191
:103C00009DED180B53EC102BAFF28C300AF080FFB7
:103C100001212F480AF03AFA00BF00BF2A48007F6E
:103C20001E90FFF7D4F82BE12AA00AF071FF22AB17
:103C300023AA24A925A8FDF7E9F99DED240ADDEDC5
:103C4000230A30EE200ADDED220A30EE200A274852
:103C500080ED000A00211E480AF018FA9DF8AD0018
:103C600001069DF8AE0041EA00409DF8AF1040EA21
:103C700001209DF8B010084321909DF8B100010685
:103C80009DF8B20041EA00409DF8B31040EA0120DF
:103C90009DF8B410084320909DF8B50000069DF8EB
:103CA000B61040EA01409DF8B71040EA01209DF8A7
:103CB000B81008431F909DF8B90001069DF8BA009E
:103CC00041EA004014E00000C4020020602200200D
:103CD00000100040636D64342C2061627320706FAB
:103CE000736974696F6E20636D640A002C00002094
:103CF0009DF8BB1040EA01209DF8BC1008431E90BF
:103D00009DF8BD0001069DF8BE0041EA00409DF807
:103D1000BF1040EA01209DF8C01008431D909DF897
:103D2000C10001069DF8C20041EA00409DF8C310A1
:103D300040EA01209DF8C41008431C909DED210A23
:103D4000F8EEC00A9FEDFE1A80EE810A8DED1B0A87
:103D50009DED200AF8EEC00A9FEDF91A80EE810A67
:103D60008DED1A0A9DED1F0AF8EEC00A9FEDF41AB8
:103D700080EE810A8DED190A9DED1E0AF8EEC00A4B
:103D80009FEDF01A80EE810A8DED180A9DED1D0A57
:103D9000F8EEC00A9FEDEB1A80EE810A8DED170A4E
:103DA0009DED1C0AB8EEC01ADFEDE60A81EE200A8E
:103DB0008DED160A9DED180AE34880ED0F0A9DED82
:103DC000170A80ED100A9DED160A80ED110A9DED8F
:103DD0001B0A80ED0C0A9DED1A0A80ED0D0A9DED7F
:103DE000190A80ED0E0A16980DF0C0FCCDE91401F9
:103DF00017980DF0BBFCCDE9120118980DF0B6FC38
:103E0000CDE9100119980DF0B1FCCDE90E011A9819
:103E10000DF0ACFCCDE90C011B980DF0A7FCCDE931
:103E20000A01DDE91401CDE90801DDE91201CDE95E
:103E30000601DDE91001CDE90401DDE90E01CDE95E
:103E40000201DDE90C01CDE900019DED0A0B53EC07
:103E5000102BBEA00AF05CFEC248007818B9012100
:103E6000C1480AF013F9BF480078012802D10121A6
:103E7000BE480170B448007F1590FEF7A8FF00BF50
:103E800000BFB148808C052831DBAF48808C082802
:103E90002DDCAD48808C01462390B5A00AF038FE99
:103EA0000DF1AD00259000202490A749C8842490EE
:103EB00011E0A548C08C25990978491E01228A4045
:103EC000104381B2A048C1842598401C25902498B5
:103ED000401CC0B224909C48C08B401F249988424B
:103EE000E7DC012098498883FEF7ECFB00BF964889
:103EF000808C092814D19448808C01462590A4A078
:103F00000AF006FE0220904988830846007F25902B
:103F1000FEF75DFF9DF8AD0092490870FDF711F8BE
:103F20002898062833D18848808C01462190A0A08B
:103F30000AF0EEFD00218448818300202390249024
:103F40002590FF208DF88C008DF88D0000208DF8D5
:103F50008E0006208DF88F0002210DF18E00FCF7F7
:103F6000CFF922902298000E8DF890002298000C34
:103F70008DF891002298000A8DF892002298C0B224
:103F80008DF893000D2123A807F033FF00BF002018
:103F9000FFF700B800208F49096808708D4909684B
:103FA00048708C48006840688A4908600020EFE744
:103FB00010B589A00AF0ACFD90A00AF0A9FD98A068
:103FC0000AF0A6FD9FA00AF0A3FDA8A00AF0A0FD9C
:103FD000AFA00AF09DFDB6A00AF09AFDBCA00AF0C1
:103FE00097FDC2A00AF094FD10BD11B59DB01D98BB
:103FF000332883F0DE81DFE810F0DC1933003D0068
:104000004A00510058005F00DC19DC19DC19680017
:1040100074007A00920041024202490250025702A3
:104020005E0265026C0273027A0282028A029D02BB
:10403000B002C302D602E902FC020F0322033503D9
:1040400048035B036E0355045905F905A4089E0A4D
:10405000890C5F0E27100112E813C015D315E51760
:10406000A9A00AF055FD04F0DDF8ACA00AF050FD5F
:1040700003F0A2B9ADA00AF04BFD04F0DFF84FF455
:10408000FA7007F00DFEADA00AF042FDF0E7B0A017
:104090000AF03EFDB4A00AF03BFDE9E7B8A00AF043
:1040A00037FDBEA00AF034FDE2E7C2A00AF030FD01
:1040B000C7A00AF02DFDDBE7CBA00AF029FD05F033
:1040C000B1FCCEA00AF024FDD2E7D1A00AF020FD79
:1040D00004F0A8F804F0B2F84FF47A7007F0E0FDAD
:1040E000C6E7CEA00AF014FD05F09CFCC0E7CEA008
:1040F0000AF00EFD01220621104605F0A4FC012263
:104100000621022005F09FFC01220621032005F074
:104110009AFC01220621042005F095FCA8E7CBA01B
:104120000AF0F6FC01220321104605F08CFC012266
:104130000321022005F087FC01220321084695E1B6
:1041400000401C460000C842C402002025662C2006
:1041500025662C2025662C2025662C2025662C2003
:1041600025660A0055000020001000405400002081
:1041700072656164206672616D652C2066756E6380
:1041800074696F6E20636F6465202025640A0000E7
:10419000736574206672616D652C2066756E63743C
:1041A000696F6E20636F6465202025640A0000003B
:1041B000686561727462656174206672616D652CF8
:1041C0002066756E6374696F6E20636F646520206E
:1041D00025640A00340000200D0ABBB6D3ADCAB96D
:1041E000D3C320494E4E464F532053434120C7FD71
:1041F000B6AFB2E2CAD4A3A10D0A0000CFEACFB88D
:10420000CDA8D0C5D0ADD2E9B2CEBCFB20494E4E30
:10421000464F532057494B4920A3A10D0A000000E7
:10422000B7A2CBCD203120C2D6D1AFD7DCCFDFC9EA
:10423000CFB5C4D6B4D0D0C6F7494420A3A10D0A47
:1042400000000000B7A2CBCD203220CAB9D3C3C42E
:10425000ACC8CF4944B3F5CABCBBAF534341BFD888
:10426000D6C6C6F720A3A10D0A000000B7A2CBCD89
:10427000203320BDF8C8EBCEBBD6C3B9E9C1E3B249
:10428000E2CAD4B3CCD0F220A3A10D0A00000000F2
:10429000B7A2CBCD203420BDF8C8EBD5FDB7B4D73D
:1042A000AAB2E2CAD4B3CCD0F220A3A10D0A000076
:1042B000B7A2CBCD203520BDF8C8EBB8DFB5CDCB4C
:1042C000D9B2E2CAD4B3CCD0F220A3A10D0A000027
:1042D000B7A2CBCD203620BDABD6B4D0D0C6F7B96F
:1042E000D8BBFA20A3A10D0A00000000B7A2CBCDD5
:1042F000203720CFD4CABEB0EFD6FAD0C5CFA22087
:10430000A3A10D0A000000000D0AD6B4D0D0C2D679
:10431000D1AFB3CCD0F2A3A10D0A0000C2D6D1AF69
:10432000BDE1CAF8A3A10D0A000000000D0A534325
:1043300041B3F5CABCBBAFA3A10D0A00534341B3BF
:10434000F5CABCBBAFBDE1CAF8A3A10D0A000000CD
:104350000D0ABDF8C8EBCEBBD6C3B9E9C1E3B2E2E2
:10436000CAD4A3A10D0A0000CEBBD6C3B9E9C1E3EC
:10437000B2E2CAD4BDE1CAF8A3A10D0A0000000050
:104380000D0ABDF8C8EBD5FDB7B4D7AAC7D0BBBBE3
:10439000B2E2CAD4A3A10D0A00000000D5FDB7B453
:1043A000D7AAC7D0BBBBB2E2CAD4BDE1CAF8A3A1A9
:1043B0000D0A00000D0ABDF8C8EBB8DFB5CDCBD9AA
:1043C000C7D0BBBBB2E2CAD4A3A10D0A0000000053
:1043D000B8DFB5CDCBD9C7D0BBBBB2E2CAD4BDE143
:1043E000CAF8A3A10D0A00000D0AD6B4D0D0C6F7B2
:1043F000B9D8BBFAA3A10D0A00000000D6B4D0D0F2
:10440000C6F7B9D8BBFABDE1CAF8A3A10D0A0000EE
:10441000737461727420616C6C200A00636C6F733A
:104420006520616C6C200A007772697465206D6F7D
:10443000746F7220746F20706F736974696F6E206F
:1044400053206D6F6465200A000000007772697464
:1044500065206D6F746F7220746F20706F73697454
:10446000696F6E206D6F6465200A000005F0EBFA3D
:1044700001220321042005F0E6FAF9E5F8E5002120
:104480009FEDFE0A0420FCF70BFDF1E501219FEDF5
:10449000FB0A0420FCF704FDEAE500219FEDF70A82
:1044A0000320FCF7FDFCE3E501219FEDF40A032066
:1044B000FCF7F6FCDCE500219FEDF00A0220FCF79A
:1044C000EFFCD5E501219FEDED0A0220FCF7E8FCA9
:1044D000CEE500219FEDE90A0120FCF7E1FCC7E5EC
:1044E00001219FEDE60A0846FCF7DAFCC0E5DFEDA6
:1044F000E40A1FEDEC0A0420FCF7ECFEB8E5DFED62
:10450000E10A1FEDF00A0420FCF7E4FEB0E5DFED60
:10451000DD3A9FEDDC3ADFEDDB2AB2EE042ADFED77
:10452000D91A9FEDD81ADFEDD70AB2EE040AFCF7CC
:1045300075FF9DE5DFEDD33A9FEDD23ADFEDD12A4D
:10454000B2EE042ADFEDCF1A9FEDCE1ADFEDCD0AD1
:104550009FEDCC0AFCF762FF8AE5DFEDCA3A9FEDDA
:10456000C93ADFEDC82AB2EE042ADFEDC61A9FED84
:10457000C51ADFEDC40ABAEE040AFCF74FFF77E56F
:10458000DFEDC03A9FEDBF3AF2EE042A9FEDBD2A5F
:10459000DFEDBC1A9FEDBB1AF2EE040A9FEDB90ADB
:1045A000FCF73CFF64E5DFEDB73A9FEDB63AF2EE7B
:1045B000042A9FEDB42ADFEDB31A9FEDB21ADFEDA6
:1045C000B10A9FEDB00AFCF729FF51E5DFEDAD3AE6
:1045D0009FEDAC3AF2EE042A9FEDAA2ADFEDA91A6C
:1045E0009FEDA81AFAEE040A9FEDA60AFCF716FF43
:1045F0003EE5DFEDA43AB2EE043ADFEDA22A9FEDEC
:10460000A12ADFEDA01AB2EE041ADFED9E0A9FED9B
:104610009D0AFCF703FF2BE5DFED9A3AB2EE043A70
:10462000DFED982A9FED972ADFED961A9FED951AF8
:10463000DFED940A9FED930AFCF7F0FE18E5DFED3D
:10464000913AB2EE043ADFED8F2A9FED8E2ADFED2C
:104650008D1ABAEE041ADFED8B0A9FED8A0AFCF779
:10466000DDFE05E5F2EE043A9FED863ADFED852AA0
:104670009FED842AF2EE041A9FED821ADFED810A83
:104680009FED800AFCF7CAFEF2E4F2EE043A9FEDD9
:104690007D3ADFED7C2A9FED7B2ADFED7A1A9FEDD4
:1046A000791ADFED780A9FED770AFCF7B7FEDFE4B1
:1046B000F2EE043A9FED733ADFED722A9FED712A14
:1046C000FAEE041A9FED6F1ADFED6E0A9FED6D0A88
:1046D000FCF7A4FECCE418AB19AA1AA91BA8FCF796
:1046E00095FC1790179818B167480AF011FAC3E0C3
:1046F0001B980DF03BF821F000419FED640B53EC4B
:10470000102BCDE912019DED120B51EC100B0CF0AA
:10471000C7FD02D29FED5B0A01E09DED1B0A8DED06
:104720001B0A1A980DF022F821F000419FED570B5B
:1047300053EC102BCDE912019DED120B51EC100B37
:104740000CF0AEFD02D29FED4F0A01E09DED1A0A7A
:104750008DED1A0A19980DF009F821F000419FED2E
:104760004B0B53EC102BCDE912019DED120B51ECCC
:10477000100B0CF095FD02D29FED420A01E09DED79
:10478000190A8DED190A18980CF0F0FF21F000417C
:104790009FED3E0B53EC102BCDE912019DED120B5A
:1047A00051EC100B0CF07CFD02D29FED360A01E0BB
:1047B0009DED180A8DED180A9FED320A8DED160A4F
:1047C0009FED300A8DED150A9FED2E0A8DED140A2E
:1047D00018980CF0CBFFCDE9120119980CF0C6FF28
:1047E000CDE910011A980CF0C1FFCDE90E011B981C
:1047F0000CF0BCFFCDE90C01DDE91201CDE90401AB
:10480000DDE91001CDE90201DDE90E01CDE900018C
:104810009DED0C0B53EC102B1EA00AF079F914AA95
:1048200015A916A8DDED181A9DED191ADDED1A0A65
:104830009DED1B0AFCF7CBF914980CF097FFCDE91E
:10484000120115980CF092FFCDE9100116980CF0AA
:104850008DFFCDE90E01DDE91201CDE90201DDE9AF
:104860001001CDE900019DED0E0B53EC102BAFF2C2
:1048700018700AF04DF900BF08E40000CDCCCC3D23
:1048800000001042000000009C1300087B14AE479B
:10489000E17A843F25662C25662C25662C25660A40
:1048A0000000000018AB19AA1AA91BA8FCF7AEFB60
:1048B0001790179818B1F7480AF02AF9F5E01B98F5
:1048C0000CF054FF21F000411FED100B53EC102BA6
:1048D000CDE912019DED120B51EC100B0CF0E0FC38
:1048E00002D21FED180A01E09DED1B0A8DED1B0A97
:1048F0001A980CF03BFF21F000411FED1C0B53EC0C
:10490000102BCDE912019DED120B51EC100B0CF0A8
:10491000C7FC02D21FED250A01E09DED1A0A8DEDBC
:104920001A0A19980CF022FF21F000411FED290B03
:1049300053EC102BCDE912019DED120B51EC100B35
:104940000CF0AEFC02D21FED310A01E09DED190A18
:104950008DED190A18980CF009FF21F000411FEDA8
:10496000350B53EC102BCDE912019DED120B51ECE0
:10497000100B0CF095FC02D21FED3E0A01E09DEDFC
:10498000180A8DED180A1FED410A8DED160A1FED6C
:10499000430A8DED150A1FED450A8DED140A14AA80
:1049A00015A916A8DDED181A9DED191ADDED1A0AE4
:1049B0009DED1B0AFCF70BF914980CF0D7FECDE91E
:1049C000120115980CF0D2FECDE9100116980CF0EA
:1049D000CDFECDE90E01DDE91201CDE90201DDE9EF
:1049E0001001CDE900019DED0E0B53EC102BAAA098
:1049F0000AF08EF818980CF0B9FECDE9120119985A
:104A00000CF0B4FECDE910011A980CF0AFFECDE920
:104A10000E011B980CF0AAFECDE90C01DDE9120194
:104A2000CDE90401DDE91001CDE90201DDE90E0166
:104A3000CDE900019DED0C0B53EC102B9EA00AF06C
:104A400067F818AB19AA1AA91BA89DED141ADDED79
:104A5000150A9DED160AFCF745FD18980CF086FE28
:104A6000CDE9120119980CF081FECDE910011A98D8
:104A70000CF07CFECDE90E011B980CF077FECDE921
:104A80000C01DDE91201CDE90401DDE91001CDE9F8
:104A90000201DDE90E01CDE900019DED0C0B53ECA7
:104AA000102B90A00AF034F800BFE6E418AB19AA66
:104AB0001AA91BA8FCF7AAFA1790179818B194A086
:104AC0000AF026F891E01B980CF050FE21F000410E
:104AD0001FED920B53EC102BCDE914019DED140B3F
:104AE00051EC100B0CF0DCFB02D21FED9A0A01E036
:104AF0009DED1B0A8DED1B0A1A980CF037FE21F074
:104B000000411FED9E0B53EC102BCDE914019DEDE0
:104B1000140B51EC100B0CF0C3FB02D21FEDA70AD3
:104B200001E09DED1A0A8DED1A0A19980CF01EFE8F
:104B300021F000411FEDAB0B53EC102BCDE914011C
:104B40009DED140B51EC100B0CF0AAFB02D21FEDE3
:104B5000B30A01E09DED190A8DED190A18980CF0C1
:104B600005FE21F000411FEDB70B53EC102BCDE9F2
:104B700014019DED140B51EC100B0CF091FB02D2C3
:104B80001FEDC00A01E09DED180A8DED180A6F4A6D
:104B90006F497048DDED181A9DED191ADDED1A0AFE
:104BA0009DED1B0AFCF713F8684800680CF0DEFD69
:104BB000CDE91401664800680CF0D8FDCDE912017A
:104BC000644800680CF0D2FDCDE91001DDE9140164
:104BD000CDE90201DDE91201CDE900019DED100BE7
:104BE00053EC102B5CA009F093FF46E418AB19AA14
:104BF0001AA91BA8FCF70AFA1790179818B12548AC
:104C000009F086FF9CE21B980CF0B0FD21F00041FA
:104C10001FEDE20B53EC102BCDE910019DED100BB5
:104C200051EC100B0CF03CFB02D21FEDEA0A01E044
:104C30009DED1B0A8DED1B0A1A980CF097FD21F0D3
:104C400000411FEDEE0B53EC102BCDE910019DED53
:104C5000100B51EC100B0CF023FB02D21FEDF70AE6
:104C600001E09DED1A0A8DED1A0A19980CF07EFDEF
:104C700021F000411FEDFB0B53EC102BCDE910018F
:104C80009DED100B51EC100B0CF00AFB7DD29FED4B
:104C90003D0A7CE09C130008706F736974696F6E45
:104CA0002020203A202025662C20202025662C203C
:104CB00020202025660A000063757272656E7420DC
:104CC000616E676C652020202020203A2020256618
:104CD0002C20202025662C20202020256620202026
:104CE00025660A007461726765742020616E676CC6
:104CF000652020202020203A202025662C202020FE
:104D000025662C20202020256620202025660A00EC
:104D1000206572726F72207768696C6520696E20F9
:104D200070726F63657373696E6720706F736974F7
:104D3000696F6E20746F20616E676C6520696E20EC
:104D4000636F6D6D616E642033390A004800002086
:104D50004400002040000020737461727420706F62
:104D6000696E7420706F736974696F6E2020203AC9
:104D7000202025662C20202025662C202020202580
:104D8000660A000000000000FFE79DED190A8DEDA6
:104D9000190A18980CF0EAFC21F000419FEDFA0B7B
:104DA00053EC102BCDE910019DED100B51EC100BC5
:104DB0000CF076FA02D21FED0D0A01E09DED180A03
:104DC0008DED180AF24890ED000AF1EE040A30EE7B
:104DD000200A8DED110A13AB14AA15A916A8ED4CE3
:104DE00094ED001AEC4CD4ED000A9DED110AFCF78D
:104DF00079FB1290129800287DD113980CF0B6FC24
:104E0000CDE90C0114980CF0B1FCCDE90A0115981C
:104E10000CF0ACFCCDE9080116980CF0A7FCCDE92C
:104E20000601DDE90C01CDE90401DDE90A01CDE966
:104E30000201DDE90801CDE900019DED060B53EC0F
:104E4000102BAFF2841009F063FE9DED160ADDED24
:104E50001B0A30EE600A8DED090A09980CF086FCF9
:104E600021F000419FEDCD0B53EC102BCDE90A0151
:104E70009DED0A0B51EC100B0CF060F8CDE90C0124
:104E80009DED0C0B51EC100B0BF072FF11909DED92
:104E9000150ADDED1A0A30EE600A8DED090A09984F
:104EA0000CF064FC21F000419FEDBC0B53EC102B87
:104EB000CDE90A019DED0A0B51EC100B0CF03EF808
:104EC000CDE90C019DED0C0B51EC100B0BF050FFDC
:104ED00010909DED140ADDED190A30EE600A8DED9B
:104EE000090A09980CF042FC21F000419FEDAB0B40
:104EF00053EC102B00E019E1CDE90A019DED0A0BFE
:104F000051EC100B0CF01AF8CDE90C019DED0C0BD7
:104F100051EC100B0BF02CFF0F909DED130ADDED03
:104F2000180A30EE600A8DED090A09980CF01EFC93
:104F300021F000419FED990B53EC102BCDE90A01B4
:104F40009DED0A0B51EC100B0BF0F8FFCDE90C01B5
:104F50009DED0C0B51EC100B0BF00AFF0E909DED2C
:104F6000110ADFED900AB4EEE00AF1EE10FA02DD6C
:104F70009FED8C0A01E09DED110A8DED110A9DED6A
:104F8000100ADFED880AB4EEE00AF1EE10FA02DD55
:104F90009FED840A01E09DED100A8DED100A9DED54
:104FA0000F0ADFED800AB4EEE00AF1EE10FA02DD3E
:104FB0009FED7C0A01E09DED0F0A8DED0F0A9DED3E
:104FC0000E0ADFED780AB4EEE00AF1EE10FA02DD27
:104FD0009FED740A01E09DED0E0A8DED0E0A169804
:104FE0000CF0C4FB21F000419FED6C0B53EC102B37
:104FF000CDE90C019DED0C0B51EC100B0CF050F9B0
:1050000002D21FEDA00A01E09DED160A8DED160AF1
:1050100015980CF0ABFB21F000419FED600B53ECB9
:10502000102BCDE90C019DED0C0B51EC100B0CF08D
:1050300037F902D21FEDAD0A01E09DED150A8DEDA5
:10504000150A14980CF092FB21F000419FED530BD0
:1050500053EC102BCDE90C019DED0C0B51EC100B1A
:105060000CF01EF902D21FEDB90A01E09DED140A01
:105070008DED140A13980CF079FB21F000419FED9F
:10508000470B53EC102BCDE90C019DED0C0B51ECB3
:10509000100B0CF005F902D21FEDC60A01E09DEDE0
:1050A000130A8DED130A0E980CF060FBCDE90C018C
:1050B0000F980CF05BFBCDE90A0110980CF056FB41
:1050C000CDE9080111980CF051FBCDE90601DDE9AD
:1050D0000C01CDE90401DDE90A01CDE90201DDE9B8
:1050E0000801CDE900019DED060B53EC102B2EA01D
:1050F00009F00EFDDDED0E3A9DED0F3ADDED102AC3
:105100009DED112ADDED131A9DED141ADDED150A42
:105110009DED160AFCF782F91D4890ED000AF7EEA6
:10512000000A30EE200A80ED000A08E025484078A9
:10513000012801D1FDF7CAFE23A009F0E9FC00BF58
:10514000B3E418AB19AA1AA91BA8FBF75FFF1790C5
:10515000179818B1234809F0DBFCEBE11B980CF021
:1051600005FB21F000419FED080B53EC102BCDE91E
:1051700010019DED100B51EC100B0CF091F835D295
:105180009FED190A34E000007B14AE47E17A843FBA
:105190004000002048000020440000209A9999997E
:1051A0009999B93F0000C84273706565642020205A
:1051B000202566202020256620202025662020200E
:1051C00025660A00C40200206E6F20696E76657243
:1051D0007365206F7574206F662072616E67650A53
:1051E000000000009C130008000000009DED1B0A59
:1051F0008DED1B0A1A980CF0B9FA21F000411FED51
:105200001E0B53EC102BCDE910019DED100B51EC52
:10521000100B0CF045F802D21FED0D0A01E09DEDD8
:105220001A0A8DED1A0A19980CF0A0FA21F0004123
:105230001FED2B0B53EC102BCDE910019DED100B46
:1052400051EC100B0CF02CF802D21FED190A01E002
:105250009DED190A8DED190A18980CF087FA21F0C6
:1052600000411FED370B53EC102BCDE910019DEDE4
:10527000100B51EC100B0CF013F802D21FED260AA4
:1052800001E09DED180A8DED180AFE4890ED000A28
:10529000F1EE040A30EE600A8DED110A13AB14AA88
:1052A00015A916A8F84C94ED001AF84CD4ED000A94
:1052B0009DED110AFCF716F91290129800287CD186
:1052C00013980CF053FACDE90C0114980CF04EFA37
:1052D000CDE90A0115980CF049FACDE908011698B4
:1052E0000CF044FACDE90601DDE90C01CDE9040139
:1052F000DDE90A01CDE90201DDE90801CDE900019E
:105300009DED060B53EC102BE1A009F001FC9DED87
:10531000160ADDED1B0A30EE600A8DED090A0998C8
:105320000CF024FA21F000411FED640B53EC102B1C
:10533000CDE90A019DED0A0B51EC100B0BF0FEFDBF
:10534000CDE90C019DED0C0B51EC100B0BF010FD99
:1053500011909DED150ADDED1A0A30EE600A8DED13
:10536000090A09980CF002FA21F000411FED750BB3
:1053700053EC102BCDE90A019DED0A0B51EC100BFB
:105380000BF0DCFDCDE90C019DED0C0B51EC100B8D
:105390000BF0EEFC10909DED140ADDED190A30EED5
:1053A000600A8DED090A09980CF0E0F921F000413E
:1053B0001FED860B53EC102B00E0B6E0CDE90A019F
:1053C0009DED0A0B51EC100B0BF0B8FDCDE90C0173
:1053D0009DED0C0B51EC100B0BF0CAFC0F909DEDEA
:1053E000130ADDED180A30EE600A8DED090A0998FE
:1053F0000CF0BCF921F000411FED980B53EC102B81
:10540000CDE90A019DED0A0B51EC100B0BF096FD56
:10541000CDE90C019DED0C0B51EC100B0BF0A8FC31
:105420000E909DED110A5FEDA10AB4EEE00AF1EED7
:1054300010FA02DD1FEDA50A01E09DED110A8DEDC8
:10544000110A9DED100A5FEDA90AB4EEE00AF1EE33
:1054500010FA02DD1FEDAD0A01E09DED100A8DEDA1
:10546000100A9DED0F0A5FEDB10AB4EEE00AF1EE0D
:1054700010FA02DD1FEDB50A01E09DED0F0A8DED7A
:105480000F0A9DED0E0A5FEDB90AB4EEE00AF1EEE7
:1054900010FA02DD1FEDBD0A01E09DED0E0A8DED53
:1054A0000E0A0E980CF062F9CDE90C010F980CF081
:1054B0005DF9CDE90A0110980CF058F9CDE9080121
:1054C00011980CF053F9CDE90601DDE90C01CDE9A5
:1054D0000401DDE90A01CDE90201DDE90801CDE9B8
:1054E00000019DED060B53EC102BAFF2443009F098
:1054F0000FFBDDED0E3A9DED0F3ADDED102A9DED2F
:10550000112ADDED131A9DED141ADDED150A9DED3E
:10551000160AFBF783FF5B4890ED000AF7EE000ADE
:1055200030EE600A80ED000A03E0AFF2643009F06B
:10553000EFFA00BF04E618AB19AA1AA91BA8FBF7DB
:1055400065FD1790179818B15B4809F0E1FADCE1A6
:105550001B980CF00BF921F000411FEDF50B53ECFB
:10556000102BCDE910019DED100B51EC100B0BF041
:1055700097FE02D21FEDE40A01E09DED1B0A8DEDBE
:105580001B0A1A980CF0F2F821F000419FED4B0B2A
:1055900053EC102BCDE910019DED100B51EC100BCD
:1055A0000BF07EFE02D21FEDF00A01E09DED1A0A1B
:1055B0008DED1A0A19980CF0D9F821F000419FEDF1
:1055C0003F0B53EC102BCDE910019DED100B51EC6E
:1055D000100B0BF065FE02D21FEDFD0A01E09DED00
:1055E000190A8DED190A18980CF0C0F821F0004145
:1055F0009FED320B53EC102BCDE910019DED100BFC
:1056000051EC100B0BF04CFE02D29FED2E0A01E084
:105610009DED180A8DED180A1A4890ED000AF3EE78
:105620000E0A30EE200A8DED110A13AB14AA15A94B
:1056300016A8154C94ED001A144CD4ED000A9DEDFB
:10564000110AFBF74FFF1290129800287ED1139891
:105650000CF08CF8CDE90C0114980CF087F8CDE92A
:105660000A0115980CF082F8CDE9080116980CF0A3
:105670007DF8CDE90601DDE90C01CDE90401DDE9A4
:105680000A0121E0400000204800002044000020E2
:10569000616E676C652020202020203A202025663E
:1056A0002C20202025662C2020202025662020204C
:1056B0002025660A000000009C1300087B14AE47FA
:1056C000E17A843F00000000CDE90201DDE9080134
:1056D000CDE900019DED060B53EC102BAFF250000D
:1056E00009F016FA9DED160ADDED1B0A30EE600A90
:1056F0008DED090A09980CF039F821F000419FED71
:10570000FE0B53EC102BCDE90A019DED0A0B51EC79
:10571000100B0BF013FCCDE90C019DED0C0B51ECC3
:10572000100B0BF025FB11909DED150ADDED1A0A0B
:1057300030EE600A8DED090A09980CF017F821F097
:1057400000419FEDED0B53EC102B00E0D8E0CDE9CC
:105750000A019DED0A0B51EC100B0BF0EFFBCDE9AC
:105760000C019DED0C0B51EC100B0BF001FB10909C
:105770009DED140ADDED190A30EE600A8DED090A7F
:1057800009980BF0F3FF21F000419FEDDB0B53EC88
:10579000102BCDE90A019DED0A0B51EC100B0BF01B
:1057A000CDFBCDE90C019DED0C0B51EC100B0BF07A
:1057B000DFFA0F909DED130ADDED180A30EE600A56
:1057C0008DED090A09980BF0D1FF21F000419FED02
:1057D000CA0B53EC102BCDE90A019DED0A0B51ECDD
:1057E000100B0BF0ABFBCDE90C019DED0C0B51EC5C
:1057F000100B0BF0BDFA0E909DED110AF3EE0E0AA0
:10580000B4EEE00AF1EE10FA02DDB3EE0E0A01E0AA
:105810009DED110A8DED110A9DED100AF3EE0E0AB1
:10582000B4EEE00AF1EE10FA02DDB3EE0E0A01E08A
:105830009DED100A8DED100A9DED0F0AF3EE0E0A94
:10584000B4EEE00AF1EE10FA02DDB3EE0E0A01E06A
:105850009DED0F0A8DED0F0A9DED0E0ADFEDA80AF2
:10586000B4EEE00AF1EE10FA02DD9FEDA50A01E0C8
:105870009DED0E0A8DED0E0A0E980BF077FFCDE927
:105880000C010F980BF072FFCDE90A0110980BF094
:105890006DFFCDE9080111980BF068FFCDE9060115
:1058A000DDE90C01CDE90401DDE90A01CDE90201E0
:1058B000DDE90801CDE900019DED060B53EC102B4D
:1058C000AFF21C7009F024F9DDED0E3A9DED0F3AB0
:1058D000DDED102A9DED112ADDED131A9DED141A50
:1058E000DDED150A9DED160AFBF798FD854890ED54
:1058F000000AF3EE0E0A30EE200A80ED000A03E003
:10590000AFF23C7009F004F900BF19E418AB19AA12
:105910001AA91BA8FBF77AFB1790179818B17A48B9
:1059200009F0F6F8C7E11B980BF020FF21F00041C9
:105930001FED9E0B53EC102BCDE910019DED100BCC
:1059400051EC100B0BF0ACFC02D21FEDA20A01E0EF
:105950009DED1B0A8DED1B0A1A980BF007FF21F035
:1059600000411FEDAA0B53EC102BCDE910019DED6A
:10597000100B51EC100B0BF093FC02D21FEDAF0A91
:1059800001E09DED1A0A8DED1A0A19980BF0EEFE52
:1059900021F000411FEDB70B53EC102BCDE91001A6
:1059A0009DED100B51EC100B0BF07AFC02D21FEDA9
:1059B000BB0A01E09DED190A8DED190A18980BF04C
:1059C000D5FE21F000411FEDC30B53EC102BCDE9A8
:1059D00010019DED100B51EC100B0BF061FC02D28D
:1059E0001FEDC80A01E09DED180A8DED180A454823
:1059F00090ED000AF3EE0E0A30EE600A8DED110A0A
:105A000013AB14AA15A916A8404C94ED001A404CEB
:105A1000D4ED000A9DED110AFBF764FD1290129877
:105A2000002877D113980BF0A1FECDE90C01149852
:105A30000BF09CFECDE90A0115980BF097FECDE91D
:105A4000080116980BF092FECDE90601DDE90C0184
:105A5000CDE90401DDE90A01CDE90201DDE9080132
:105A6000CDE900019DED060B53EC102BAFF2E030B9
:105A700009F04EF89DED160ADDED1B0A30EE600AC6
:105A80008DED090A09980BF071FE21F000419FEDA0
:105A90001A0B53EC102BCDE90A019DED0A0B51ECCA
:105AA000100B0BF04BFACDE90C019DED0C0B51ECFA
:105AB000100B0BF05DF911909DED150ADDED1A0A42
:105AC00030EE600A8DED090A09980BF04FFE21F0C7
:105AD00000419FED090B53EC102BCDE90A019DED20
