:020000040800F2
:10000000582F00204DBA0008DD700008DF7000088E
:10001000E3700008E7700008EB70000800000000C3
:10002000000000000000000000000000EF70000869
:10003000F170000800000000F3700008F57000087F
:1000400067BA000867BA000867BA000867BA00080C
:1000500067BA000867BA000867BA000867BA0008FC
:1000600067BA000867BA000867BA000867BA0008EC
:1000700067BA000867BA000867BA000867BA0008DC
:1000800067BA000867BA000867BA000867BA0008CC
:100090008974000867BA000867BA000867BA0008E0
:1000A00067BA000867BA000867BA000867BA0008AC
:1000B00085B50008BFB500087DB6000867BA00081E
:1000C00067BA000867BA000867BA000867BA00088C
:1000D00067BA000889B2000867BA000867BA000862
:1000E00067BA000867BA000867BA000867BA00086C
:1000F00097B8000859B9000867BA000867BA00083D
:1001000067BA000867BA000867BA000867BA00084B
:1001100067BA000867BA00083DB7000867BA000868
:1001200067BA000867BA000867BA000867BA00082B
:1001300067BA000867BA000867BA000867BA00081B
:1001400067BA00083976000867BA000867BA00087D
:1001500067BA000867BA000867BA000867BA0008FB
:1001600067BA000867BA000867BA000867BA0008EB
:1001700067BA000867BA000867BA000867BA0008DB
:1001800067BA000867BA000867BA000867BA0008CB
:1001900067BA000867BA000867BA000867BA0008BB
:1001A00067BA000867BA000867BA000800F002F8EA
:1001B00000F052F80AA090E8000C82448344AAF1AF
:1001C0000107DA4501D100F047F8AFF2090EBAE8AD
:1001D0000F0013F0010F18BFFB1A43F0010318477B
:1001E000640D0100840D0100103A24BF78C878C165
:1001F000FAD8520724BF30C830C144BF04680C602D
:10020000704700000023002400250026103A28BF74
:1002100078C1FBD8520728BF30C148BF0B60704778
:10022000662910F05E8564290DF0F48675290DF0BD
:10023000F18678290DF02A87002070471FB510F04D
:1002400046FD0EF02FFA0400002000210FF0AEFF53
:10025000E0601FBD10B510BD0EF040FB1146FFF76A
:10026000EDFF06F034FB0EF05EFB03B4FFF7F2FF88
:1002700003BC0AF0A9FF000000207047002070476F
:100280000020704700207047002070470020704712
:100290000020704700207047002070470020704702
:1002A00000207047002000BF1FE040F2E731884285
:1002B0000ED00021FE4A02F8301002EBC00251704D
:1002C000FB4A411C02EBC10102EBC00251600BE092
:1002D0000021F74A02F8301002EBC0025170F449D5
:1002E0000A4602EBC0025160401CB0F57A7FDCDBAD
:1002F000EF49F04A116011460968EF4A11607047F2
:100300002DE9F04F99B080460E460EB1642E03DD04
:10031000002019B0BDE8F08F45460024002700BF3B
:100320004CE0701E211D884234DA285D04F1010C76
:10033000B44502DB4FF0000C03E004F1010C15F8AA
:100340000CC0614604F1020CB44502DB4FF0000C16
:1003500003E004F1020C15F80CC0624604F1030C32
:10036000B44502DB4FF0000C03E004F1030C15F878
:100370000CC063464FEA006C4CEA014C4CEA022C7C
:100380004CEA030CBA4607F1010B1FFA8BF74DF844
:100390002AC015E0285D0106601C285C41EA004186
:1003A000A01C285C41EA0020E11C695C0843394636
:1003B0007A1C97B24DF82100201D84B2B442B0DB04
:1003C00000BF4FF000090DF0BFFD002406E05DF80E
:1003D00024000DF0BDFD8146601C84B2BC42F6DBFA
:1003E000484696E710B52DED028BB0EE408A9FEDA2
:1003F000B30A28EE000ADFEDB20A80EE201AF0EE12
:10040000418AB0EE680A0EF0DFFFAE4880ED000AC8
:100410009FEDAA0A28EE000ADFEDA90A80EE201A55
:10042000F0EE418AB0EE680A0FF0DAF8B1EE400A59
:10043000A44880ED010A9FEDA40A80ED020A9FED19
:100440009F0A28EE000ADFED9E0A80EE201AF0EEE9
:10045000418AB0EE680A0FF0C3F89A4880ED030AAB
:1004600090ED000A80ED040A9FED970A80ED050AE1
:100470009FED950A80ED060A9FED930A80ED070A2D
:10048000B7EE000A80ED080ABDEC028B10BD10B576
:100490002DED048BB0EE408AF0EE608A9FED870A66
:1004A00028EE000ADFED860A80EE201AB0EE419AAF
:1004B000B0EE490A0EF088FFF0EE409A9FED7F0AF9
:1004C00028EE800ADFED7E0A80EE201AB0EE419A17
:1004D000B0EE490A0EF078FF29EE800A7B4880EDE5
:1004E000000A9FED760A28EE000ADFED750A80EE1D
:1004F000201AB0EE419AB0EE490A0EF065FFF1EE17
:10050000409A9FED6E0A28EE800ADFED6D0A80EEBC
:10051000201AB0EE419AB0EE490A0FF061F829EEC8
:10052000800A6A4880ED010A9FED640A28EE000AFD
:10053000DFED630A80EE201AB0EE419AB0EE490A70
:100540000FF04EF8B1EE400A604880ED020A9FEDD0
:100550005B0A28EE000ADFED5A0A80EE201AB0EEA0
:10056000419AB0EE490A0FF03BF8F0EE409A9FED49
:10057000530A28EE800ADFED520A80EE201AB0EE10
:10058000419AB0EE490A0EF01FFF29EE800A4F484B
:1005900080ED030A9FED490A28EE000ADFED480AC4
:1005A00080EE201AB0EE419AB0EE490A0FF018F82A
:1005B000F1EE409A9FED410A28EE800ADFED400AF5
:1005C00080EE201AB0EE419AB0EE490A0FF008F81A
:1005D00029EE800A3D4880ED040A9FED380A28EE96
:1005E000000ADFED370A80EE201AB0EE419AB0EE35
:1005F000490A0EF0E9FE354880ED050A9FED2F0A05
:1006000028EE800ADFED2E0A80EE201AB0EE419A25
:10061000B0EE490A0EF0E4FFB1EE400A2B4880ED3F
:10062000060A9FED260A28EE800ADFED250A80EEF5
:10063000201AB0EE419AB0EE490A0EF0C5FEB1EEB6
:10064000400A224880ED070A9FED1F0A80ED080A44
:10065000BDEC048B10BD10B52DED068BB0EE408ABD
:10066000F0EE608AB0EE419A9FED140A28EE000A7F
:10067000DFED130A80EE201AF0EE419AB0EE690A1F
:100680000EF0A2FEB0EE40AA9FED0C0A69EE000A41
:100690009FED0B1A80EE810A30EE280AF0EE409AA8
:1006A0000EF092FE2AEE000A094880ED000A11E0E1
:1006B000100300202400002028000020DC0F494007
:1006C000000034439400002000000000B800002027
:1006D000DC0000201FED070A28EE000A5FED080A83
:1006E00080EE201AF0EE419AB0EE690A0EF06CFE30
:1006F000B1EE40AA1FED0F0A69EE000A1FED101AB5
:1007000080EE810A30EE280AF0EE409A0EF068FF83
:100710002AEE000AFE4880ED010A1FED180A28EEB5
:10072000000A5FED190A80EE201AF0EE419AB0EE51
:10073000690A0EF055FFB1EE400AF54880ED020A55
:100740001FED220A28EE000A5FED230A80EE201A30
:10075000F0EE419AB0EE690A0EF042FFB0EE40AA08
:100760001FED2A0A69EE000A1FED2B1A80EE810A9E
:1007700030EE280AF0EE409A0EF026FE2AEE000A2D
:10078000E34880ED030A1FED330A28EE000A5FED0F
:10079000340A80EE201AF0EE419AB0EE690A0EF0AB
:1007A0001FFFB1EE40AA1FED3B0A69EE000A1FEDE4
:1007B0003C1A80EE810A30EE280AF0EE409A0EF0E4
:1007C0000FFF2AEE000AD24880ED040A1FED450A09
:1007D00028EE000A5FED460A80EE201AF0EE419AFC
:1007E000B0EE690A0EF0F0FDC94880ED050A1FED74
:1007F0004D0A69EE000A1FED4E1A80EE810A30EEB6
:10080000280AF0EE409A0EF0EBFEB1EE400AC04826
:1008100080ED060A1FED570A69EE000A1FED581A0F
:1008200080EE810A30EE280AF0EE409A0EF0CCFD00
:10083000B1EE400AB64880ED070A1FED5D0A80ED73
:10084000080ABDEC068B10BD10B52DED068BB0EE81
:10085000408AF0EE608AB0EE419AF0EE619A1FEDA8
:10086000690A28EE000A5FED6A0A80EE201AB0EEEF
:1008700041AAB0EE4A0A0EF0A7FDF0EE40AA1FED25
:10088000710A69EE800A1FED721A80EE810A78EE15
:10089000890A30EE200AB0EE40AA0EF095FD2AEE4D
:1008A000800A9C4880ED000A1FED7C0A28EE000AB1
:1008B0005FED7D0A80EE201AB0EE41AAB0EE4A0A42
:1008C0000EF082FDF1EE40AA1FED840A69EE800A67
:1008D0001FED851A80EE810A78EE890A30EE200A33
:1008E000B0EE40AA0EF07CFE2AEE800A894880ED28
:1008F000010A1FED8E0A28EE000A5FED8F0A80EED6
:10090000201AB0EE41AAB0EE4A0A0EF069FEB1EE2E
:10091000400A804880ED020A1FED980A28EE000A7E
:100920005FED990A80EE201AB0EE41AAB0EE4A0AB5
:100930000EF056FEF0EE40AA1FEDA00A69EE800A06
:100940001FEDA11A80EE810A78EE890A30EE200AA6
:10095000B0EE40AA0EF038FD2AEE800A6D4880ED18
:10096000030A1FEDAA0A28EE000A5FEDAB0A80EE2B
:10097000201AB0EE41AAB0EE4A0A0EF031FEF1EEB6
:1009800040AA1FEDB20A69EE800A1FEDB31A80EE8D
:10099000810A78EE890A30EE200AB0EE40AA0EF005
:1009A0001FFE2AEE800A5B4880ED040A1FEDBD0A97
:1009B00028EE000A5FEDBE0A80EE201AB0EE41AAD2
:1009C000B0EE4A0A0EF000FD524880ED050A1FED18
:1009D000C50A69EE800A1FEDC61A80EE810A78EE1C
:1009E000890A30EE200AB0EE40AA0EF0F9FDB1EE11
:1009F000400A484880ED060A1FEDD00A69EE800AD9
:100A00001FEDD11A80EE810A78EE890A30EE200AB5
:100A1000B0EE40AA0EF0D8FCB1EE400A3D4880EDA1
:100A2000070A1FEDD70A80ED080ABDEC068B10BD42
:100A30001FEDDB0A384880ED000A1FEDDD0A80ED6E
:100A4000010A1FEDDF0A80ED020A1FEDE10A3348BB
:100A500080ED000A9FED320A80ED010A1FEDE60AE3
:100A600080ED020A9FED2F0A2F4880ED000A1FED4E
:100A7000EA0A80ED010A1FEDEC0A80ED020A9FED03
:100A80002B0A2B4880ED000A1FEDF10A80ED010AC8
:100A9000BAEE030A80ED020A9FED260A264880ED91
:100AA000070A9FED260A80ED0D0A9FED250A80EDCD
:100AB000130A9FED240A80ED190ABFEE000A80EDAB
:100AC000060ABFEE000A80ED0C0AB7EE000A80EDC0
:100AD000120ABFEE000A80ED180A00201A49488465
:100AE000AFF66B0019494860AFF66F008860AFF64B
:100AF0006F00C860AFF673000861AFF6730048611D
:100B0000AFF677008861AFF67700C86120E000009B
:100B1000DC00002000010020240100203001002022
:100B2000CDCCEE4200006B433C01002033F3844304
:100B3000480100208126A2BE54010020DB8A7D41AD
:100B4000423E074286380EC0B402002070220020C8
:100B5000AFF6BF000862AFF6BF004862AFF6C30051
:100B60008862AFF6C300C8629FEDFE0AFE4880EDC2
:100B7000000A9FEDFC0A80ED010A9FEDFA0A80ED64
:100B8000020AB0EE080AF94880ED000AB0EE080A41
:100B900080ED010AB0EE080A80ED020A7047F0B558
:100BA0002DED108B85B0B0EE408AF0EE608AB0EE8D
:100BB000419A04460D4616469FEDED0A28EE000ABE
:100BC000DFEDEC0A80EE201AB0EE41AAB0EE4A0A40
:100BD0000EF0FAFB8DED040A38EE890A8DED030A5A
:100BE0009DED030ADFEDE20A20EE200ADFEDE10AC7
:100BF00080EE201AB0EE41AAB0EE4A0A0EF0E4FBF5
:100C0000F0EE409A9FEDDA0A28EE000ADFEDD90AED
:100C100080EE201AB0EE41AAB0EE4A0A0EF0E0FCD7
:100C20008DED020A9FEDD20A28EE800ADFEDD10A8F
:100C300080EE201AB0EE41AAB0EE4A0A0EF0C4FBD4
:100C40008DED010A38EE890A8DED000A9FEDC80A84
:100C500028EE000ADFEDC70A80EE201AB0EE41AAA6
:100C6000B0EE4A0A0EF0B0FB5FED500A20EE200A0B
:100C700060EE29AA9FEDBE0A28EE000ADFEDBD0A4C
:100C800080EE201AB0EE41AAB0EE4A0A0EF0A8FC9F
:100C9000FAEE030A40EEC0AA9FEDB50A28EE000A5C
:100CA000DFEDB40A80EE201AB0EE41AAB0EE4A0A97
:100CB0000EF08AFB5FED650A20EE20BA9FEDAC0ACC
:100CC00028EE800ADFEDAB0A80EE201AB0EE41AAD2
:100CD000B0EE4A0A0EF078FB4BEE00AA9FEDA40A94
:100CE00028EE000ADFEDA30A80EE201AB0EE41AA3A
:100CF000B0EE4A0A0EF074FC5FED770A40EEC0AA2F
:100D0000C4ED00AA9FED9A0A28EE000ADFED990AC9
:100D100080EE201AB0EE41AAB0EE4A0A0EF060FC56
:100D20005FED7E0A20EE200A60EE29AA9FED900A70
:100D300028EE000ADFED8F0A80EE201AB0EE41AAFD
:100D4000B0EE4A0A0EF040FBFAEE030A40EE80AA2B
:100D50009FED870A28EE000ADFED860A80EE201A52
:100D6000B0EE41AAB0EE4A0A0EF03AFC5FED930AEB
:100D700020EE20BA9FED7E0A28EE800ADFED7D0A84
:100D800080EE201AB0EE41AAB0EE4A0A0EF01CFB2B
:100D90004BEE00AA9FED760A28EE000ADFED750AF9
:100DA00080EE201AB0EE41AAB0EE4A0A0EF00CFB1B
:100DB0005FEDA50A40EE80AAC5ED00AA9FED6C0A82
:100DC00028EE800A10EE101A08460FF00FFF41ECD3
:100DD0001E0B9FED690B53EC102B0FF0EFFA41EC5B
:100DE0001D0BB0EE4D0AF0EE6D0A0EF095FBB0EE65
:100DF00040CAF0EE60CA9FED620B53EC102B51EC31
:100E00001C0B0FF0C9FC41EC1A0B9DED000ADFED45
:100E1000580A20EE200ADFED570A80EE201A11EE64
:100E2000107A38460FF0E2FE41EC1D0BB0EE4D0A91
:100E3000F0EE6D0A0EF070FBB0EE40CAF0EE60CA44
:100E40009FED510B53EC102B51EC1C0B0FF0A4FC3D
:100E500041EC1B0B53EC1A2B0FF0DEFD41EC1F0B8A
:100E60000FF0C6F93060002005B0BDEC108BF0BD6E
:100E700070B52DED028B0446B0EE408A0D4600267B
:100E800000EE104AB8EE400A04EB4400404901EB82
:100E9000C00080ED050A04EB440001EBC00080EDCA
:100EA000028A3C48007818B10120BDEC028B70BD6D
:100EB0000CB1042C01D90220F7E7B7EE000AB4EE1A
:100EC000C08AF1EE10FA01DD0320EEE71DB1012D1D
:100ED00001D00420E9E7E0B206F062FD0646A6B1C3
:100EE0004DB9D6ED480A70EE880AB0EE600AE0B25D
:100EF00008F0B7F80BE0D6ED480A70EEC80AB0EE7D
:100F0000600AE0B208F0ADF801E00520CDE700206E
:100F1000CBE72DE9F04706460F4690469946002458
:100F20000025012476E0204606F03AFD0546C5B1CD
:100F3000012C06D0022C32D0032C42D0042C64D1D8
:100F400051E095ED480A1248D0ED070A30EE600AEC
:100F5000F2EE040A20EE200AD0ED060A80EE201AF6
:100F60001AE054E0CDCCCC3DC0220020CC220020A1
:100F7000DC0F494000003443000000000080664060
:100F80000000000000606D4000000060669E70C0C0
:100F9000540100200200002086ED001A36E095ED95
:100FA000480AFE48D0ED0D0A30EE600AF2EE040A5F
:100FB00020EE200AD0ED0C0A80EE201A87ED001AF0
:100FC00024E095ED480AF548D0ED130A30EE600AAA
:100FD000F2EE040A20EE200AD0ED120A80EE201A6A
:100FE00088ED001A12E095ED480AEC48D0ED190A98
:100FF00030EE600AF2EE040A20EE200AD0ED180A64
:1010000080EE201A89ED001A00E000BF00E003E046
:10101000601CC4B2052C86DB00BF052C02D0012069
:10102000BDE8F0870020FBE710B586B0142101A8C9
:101030000DF08AF8FF208DF804008DF805000020DF
:101040008DF806000B208DF80700D548408C001263
:101050008DF80800D24890F822008DF80900D04899
:10106000808B032803D100208DF80A0004E0CC48CF
:1010700090F824008DF80A0001208DF80B00002064
:101080008DF80C0007210DF10600FFF739F9044631
:10109000200E8DF80D00200C8DF80E00200A8DF822
:1010A0000F00E0B28DF810000D2101A80AF015F92B
:1010B0000020BB49487006B010BDF0B52DED028B85
:1010C00085B00024B7480078002871D00020B549C9
:1010D000087001240EE00021204606F07AFC00B9D9
:1010E00006E004F10A00C0B205B0BDEC028BF0BD11
:1010F000601CC4B2052CEEDB01240BE0002120466D
:1011000007F0C3FC00B903E004F11400C0B2EBE740
:10111000601CC4B2052CF1DB012500BF2BE0A04808
:10112000801C405D012824D10027284606F038FCA9
:101130000746EFB197ED480A9948083000EB850063
:10114000D0ED000A30EE600A10EE101A08460FF0DB
:101150004DFD21F000419FED940B53EC102B0FF04F
:10116000DFFA05D200218E48801C4155FFF75CFF55
:1011700000BF681CC5B2052DD1DB01AB02AA03A9D3
:1011800004A8FFF7C6FE06461EB189A00CF002FFB8
:1011900059E004980FF02AFD21F000419FED900BDB
:1011A00053EC102B0FF0BCFA03D29FED8F0A02E034
:1011B0004AE09DED040A8DED040A03980FF016FD38
:1011C00021F000419FED860B53EC102B0FF0A8FA95
:1011D00002D29FED850A01E09DED030A8DED030A21
:1011E00002980FF003FD21F000419FED7D0B53ECC1
:1011F000102B0FF095FA02D29FED7B0A01E09DEDD6
:10120000020A8DED020A01980FF0F0FC21F0004176
:101210009FED730B53EC102B0FF082FA02D29FED6F
:10122000720A01E09DED010A8DED010A6F4A111F5E
:10123000081FDDED011A9DED021ADDED030A9DED9B
:10124000040AFFF7ACFC00BF00204DE770B52DEDA0
:10125000028B0446B0EE408AF0EE608A0025E0B2D0
:1012600006F09EFB0546002D48D000EE104AB8EE71
:10127000400A04EB4400494901EBC00080ED050A37
:1012800004EB440001EBC00080ED038A04EB440052
:1012900001EBC00090ED030ADFED550A80EE201A45
:1012A00004EB440001EBC00080ED021A04EB4400A3
:1012B00001EBC000C0ED048A012C06D0022C09D03D
:1012C000032C0CD0042C14D10EE0012149480CF061
:1012D0001FF90EE0012148480CF01AF909E001213C
:1012E00046480CF015F904E0012145480CF010F9CE
:1012F00000BF00BF0020BDEC028B70BD6420FAE788
:1013000010B52DED0C8BB0EE408AF0EE608AB0EE99
:10131000419AF0EE619AB0EE42AAF0EE62AAB0EE07
:1013200043BAF0EE63BAB2EE040AC8EE000A1B48F4
:1013300090ED061A90ED070A00EE810AB0EE40CA61
:10134000B2EE040AC8EE800A90ED0C1A90ED0D0A78
:1013500000EE810AF0EE40CAB2EE040AC9EE000ABD
:1013600090ED121A90ED130A00EE810AB0EE40DA09
:10137000B2EE040AC9EE800A90ED181A90ED190A2F
:1013800000EE810AF0EE40DAF0EE4C0AB0EE4A0AC6
:101390000120FFF75BFFF0EE6C0A33E05401002000
:1013A000B4020020820000209A9999999999A93F46
:1013B000206572726F72207768696C6520696E2093
:1013C00070726F63657373696E6720706F73697491
:1013D000696F6E20746F20616E676C650A00000093
:1013E0007B14AE47E17A843F0000000058220020C1
:1013F00000007A440004004000080040001C004047
:1014000000200040B0EE6A0A0220FFF71FFFF0EE56
:101410004D0AB0EE4B0A0320FFF718FFF0EE6D0AFD
:10142000B0EE6B0A0420FFF711FF0020BDEC0C8B1F
:1014300010BD2DE9F04F2DED108B9BB0F0EE40AAC2
:10144000B0EE608AF0EE41BA80460E4617469946E5
:101450001FED1B0A8DED190A1FED1D0A8DED180AEF
:101460001FED1F0A8DED170A1FED210A8DED160ADB
:1014700016AB17AA18A919A8FFF74BFD8346BBF1B5
:10148000000F08D0F9A00CF085FD01201BB0BDECC9
:10149000108BBDE8F08F9FEDFE0AF0EE408A6AEEF9
:1014A000AA0A48EE080A48EEE80AB0EE600A0EF012
:1014B0005FF9B0EE40CA2CEE080A08EEEA0A6AEEBE
:1014C000AA0A48EE080A80EE201AF0EE41EA1EEE63
:1014D000900A0FF08BFB21F000419FEDEE0B53ECD7
:1014E000102BCDE902019DED020B51EC100B0FF01A
:1014F00051FA01D20220C9E7B0EE6E0A0DF0CEFE1D
:10150000B0EE409AB0EE490ADFEDE40A60EE200A40
:101510009FEDE31A80EE810ADFEDE00AB4EEE00A07
:10152000F1EE10FA04DD9FEDDF0A39EE400A07E024
:101530009FEDDA0A69EE000A9FEDD91A80EE810A62
:101540008DED120A9FEDD50A29EE000ADFEDD40ACF
:1015500080EE201A9FEDD10A30EE410ADFEDCF0A6E
:10156000B4EEE00AF1EE10FA10DD9FEDCC0A29EEA0
:10157000000ADFEDCB0A80EE201A9FEDC80A30EE9C
:10158000410ADFEDC80A30EE600A0BE09FEDC30AA6
:1015900069EE000A9FEDC21A80EE810ADFEDBF0AF4
:1015A00030EEC00A8DED130AB1EE4C0AB0EE40CA1F
:1015B0002CEE080A08EEEA0A6AEEAA0A48EE080AC1
:1015C00080EE201AF0EE41EAB0EE6E0A0DF066FEF3
:1015D000B0EE409A9FEDB10A69EE000A9FEDB01A95
:1015E00080EE810ADFEDAD0AB4EEE00AF1EE10FA0A
:1015F00004DD9FEDAC0A39EE400A07E09FEDA70A33
:1016000069EE000A9FEDA61A80EE810A8DED140A9C
:101610009FEDA20A29EE000ADFEDA10A80EE201A52
:101620009FED9E0A30EE410ADFED9C0AB4EEE00A1F
:10163000F1EE10FA10DD9FED990A69EE000A9FEDB8
:10164000981A80EE810ADFED950A30EEC00ADFEDD0
:10165000950A30EE600A0BE09FED900A29EE000A31
:101660009FED8F1AC0EE010A9FED8C0A30EE600AE2
:101670008DED150A012401259FED8BDA00BF3FE0B7
:101680001DEE100A0FF0B2FACDE9020111A800EB2D
:10169000840090ED000ADDED190A30EEC00A10EE6C
:1016A000101A08460FF0A2FA21F00041CDE900011E
:1016B0009DED020B53EC102B9DED000B51EC100B2C
:1016C0000FF02EF81AD2254611A800EB840090EDF9
:1016D000000ADDED190A30EEC00A10EE101A0846B5
:1016E0000FF084FA21F00041CDE902019DED020BDB
:1016F00051EC100B0EF07CFD0DEE100A601CC4B214
:10170000052CBDDB11A800EB850090ED00FA2AEE58
:10171000AA0A08EE080A08EEE80AB5EEC00AF1EED9
:1017200010FA01D20320B1E6012D01D0022D0CD117
:101730006AEEAA0A48EE080A48EEE80AB0EE600A25
:101740000EF016F8B0EE40CA0DE06AEEAA0A48EEB6
:10175000080A48EEE80AB0EE600A0EF009F8B1EEA9
:10176000400AB0EE40CA88ED00FA2AEEAA0A08EE56
:10177000080A0BEEAB0A08EEE80ADFED4C0A30EE81
:10178000600ADFED4B0A30EE600AB0EE001AC0EEE0
:10179000010A9FED481A80EE810A9FED471AC0EEBC
:1017A000010A10EE90AA50460FF020FA21F00041F5
:1017B0009FED380B53EC102BCDE902019DED020B90
:1017C00051EC100B0FF0E6F801D204205EE62AEE91
:1017D000AA0A08EE080A0BEEAB0A08EEE80ADFEDEB
:1017E000330A30EE600ADFED320A70EE600AB0EEC6
:1017F000001A80EE810A9FED2F1AC0EE010A9FEDBC
:101800002E0A80EE801AF0EE41FAB0EE6F0A0DF06B
:10181000B9FCB0EE40BAB0EE4B0ADFED200A20EE84
:10182000200ADFED1F0A80EE201A8DED0F1AB0EEB0
:101830004B0ADFED1A0A60EE200A9FED191A80EEBE
:10184000810ADFED160A30EE200ADFED140AB4EE4D
:10185000E00AF1EE10FA34DD9FED100A2BEE000ADB
:10186000DFED0F0A80EE201A28E00000706F736928
:1018700074696F6E20746F20616E676C65206361A0
:101880006C63756C617465206572726F720A00001A
:10189000CDCCDB42000000000000F03F00003443EC
:1018A000DC0F49400000B4430000B94300B957477A
:1018B00067178A4700006B4333F38443B1EE410A54
:1018C0000BE01FED0A0A6BEE000A1FED0B1A80EE0B
:1018D000810A5FED0E0A30EE200A8DED100A9DEDB3
:1018E000100ADDED170A30EEC00A10EE101A084695
:1018F0000FF07CF921F00041CDE902019DED0F0AC6
:10190000DDED170A30EEC00A10EE101A08460FF08F
:101910006DF921F00041CDE900019DED020B53EC82
:10192000102B9DED000B51EC100B0EF0F9FE02D2C6
:101930009DED0F0A01E09DED100AB0EE40BA87ED73
:1019400000BA1FED290A2BEE000A5FED2C0A80EE8B
:10195000201A8DED031A9DED030A0DF035FDDFED24
:10196000F90A9FEDF91A41EE000AF0EE60FAB0EEC6
:101970006F0A0DF0FDFEF0EE40CA8CEE2C0A10EE60
:1019800010AA50460FF032F921F000411FED3F0B35
:1019900053EC102BCDE902019DED020B51EC100B25
:1019A0000EF0F8FF29D31FED420A2BEE000A5FED7F
:1019B000450A80EE201AF0EE41FAB0EE6F0A0DF003
:1019C00003FD5FED440A1FED441A41EE000A80EE6C
:1019D000AC0A10EE10AA50460FF008F921F00041B1
:1019E0001FED540B53EC102BCDE902019DED020BC2
:1019F00051EC100B0EF0CEFF01D2052046E58CEE27
:101A00002C0AF0EE40FA0DF0BDFBB0EE40AA1FED3F
:101A10005C0A2BEE000A5FED5F0A80EE201AF0EE02
:101A200041FAB0EE6F0A0DF0CFFC5FED5E0A1FEDDC
:101A30005E1A41EE000A80EEAC0A8DED030A9DEDC0
:101A4000030A0DF09FFBF0EE409AB0EE690A3AEE01
:101A5000400A5FED6D0AB4EEE00AF1EE10FA06DD21
:101A60003AEE690ADFEDB90A30EE600A01E03AEEBB
:101A7000690A8DED0A0A3AEE290A5FED770AB4EE9B
:101A8000E00AF1EE10FA06DD3AEE290ADFEDAF0AC0
:101A900030EE600A01E03AEE290A8DED0B0AB1EE54
:101AA0004A0A30EE690A5FED820AB4EEE00AF1EE0E
:101AB00010FA08DDB1EE4A0A30EE690ADFEDA30A3A
:101AC00030EE600A03E0B1EE4A0A30EE690A8DEDAD
:101AD0000C0AB1EE4A0A30EE290A5FED8F0AB4EE25
:101AE000E00AF1EE10FA08DDB1EE4A0A30EE290AFA
:101AF000DFED960A30EE600A03E0B1EE4A0A30EEFE
:101B0000290A8DED0D0A5FED98DA01244FE01DEEF4
:101B1000900A0FF06BF8CDE9020109A800EB8400F0
:101B200090ED000A5FEDA30A60EE200A1FEDA41AF3
:101B300080EE810ADDED180A30EEC00A10EE10AA20
:101B400050460FF053F821F00041CDE900019DED22
:101B5000020B53EC102B9DED000B51EC100B0EF013
:101B6000DFFD22D2254609A800EB840090ED000A93
:101B70005FEDB60A20EE201A5FEDB70A81EE200A6B
:101B8000DDED180A30EEC00A10EE10AA50460FF034
:101B90002DF821F00041CDE902019DED020B51EC41
:101BA000100B0EF025FB0DEE900A601CC4B2052C44
:101BB000ADDB09A800EB850090ED000A5FEDC90AD6
:101BC00020EE200A5FEDCA0A80EE201A86ED001A88
:101BD00096ED000ADFED5E0A30EEC00AD7ED000A8E
:101BE00030EE600A8DED050A96ED000A5FEDD50A2C
:101BF00030EEC00AD7ED000A30EE600A8DED060A1D
:101C000096ED000A5FEDD90A30EEC00AD7ED000A62
:101C100030EE600A8DED070A96ED000A4D48D0EDD2
:101C2000000A30EEC00AD7ED000A30EE600A8DEDF2
:101C3000070A1FEDE3EA01243FE01EEE100A0EF052
:101C4000D5FFCDE9020104A800EB840090ED000A65
:101C5000DDED160A30EEC00A10EE101A08460EF03E
:101C6000C5FF21F00041CDE900019DED020B53ECD1
:101C7000102B9DED000B51EC100B0EF051FD1AD204
:101C8000254604A800EB840090ED000ADDED160A5D
:101C900030EEC00A10EE101A08460EF0A7FF21F031
:101CA0000041CDE902019DED020B51EC100B0EF04D
:101CB0009FFA0EEE100A601CC4B2042CBDDB04A80F
:101CC00000EB850090ED000A89ED000A00BF0020BE
:101CD00011E42DE9F04792B01F48808C052806D00A
:101CE00006287DD007287CD008287BD1D7E2342174
:101CF00005A80CF029FAFF208DF814008DF81500C6
:101D000000208DF816001448807F401F00EB8000F3
:101D10000930C0B28DF817000F48408C00128DF8C2
:101D200018000D4890F822008DF8190005208DF854
:101D30001A000DF11B044FF00008074890F82660C8
:101D4000002511E0E7F3F5478016F447DC0FC940A2
:101D5000000000001C000020B402002006F001007A
:101D600008B1681CC5B27610002EF7DCFE48C08BA7
:101D7000401FA84206D0AFF2F0400CF00BF912B0B1
:101D8000BDE8F0870025F84890F8266004AB03AA68
:101D900002A901A8FFF7BDF8A84656E009E006F041
:101DA000010018B1681CC5B2761004E0681CC5B209
:101DB0007610002EF3DC00BF04F8015B684600EBF0
:101DC000850090ED000ADFEDE90A20EE200ABDEE65
:101DD000C00A10EE100A000E04F8010B684602E07B
:101DE0005AE035E15AE200EB850090ED000ADFEDA4
:101DF000DF0A20EE200ABDEEC00A10EE100A000C29
:101E000004F8010B684600EB850090ED000ADFED59
:101E1000D70A20EE200ABDEEC00A10EE100A000A12
:101E200004F8010B684600EB850090ED000ADFED39
:101E3000CF0A20EE200ABDEEC00A10EE100A04F808
:101E4000010B08F1010000F0FF08C748C08B401FDC
:101E50004045A3DCC448C08B401F00EB8000401D00
:101E600081B20DF11600FEF74BFA0746380E04F862
:101E7000010B380C04F8010B380A04F8010B04F8C4
:101E8000017BB948C08B401F00EB80000B3081B252
:101E900005A809F022FA9EE2342105A80CF054F9B5
:101EA000FF208DF814008DF8150000208DF8160025
:101EB000AD48807F401F00EB80000930C0B28DF834
:101EC0001700A948408C00128DF81800A64890F819
:101ED00022008DF8190006208DF81A000DF11B0460
:101EE0004FF0000AA04890F82660002505E006F0B3
:101EF000010008B1681CC5B27610002EF7DC9A48C4
:101F0000C08B401FA84204D0AFF284600CF042F8AE
:101F100035E70025944890F82660A846A9464FF07A
:101F2000010815E0404605F03BFD8146B9F1000F80
:101F30000AD099ED470AF1EE080A80EE201A6846A9
:101F400000EB880080ED001A08F1010000F0FF08A6
:101F5000B8F1050FE6DB4FF0000A52E009E006F0A9
:101F6000010018B1681CC5B2761004E0681CC5B247
:101F70007610002EF3DC00BF04F8015B684600EB2E
:101F8000850090ED000ADFED790A20EE200ABDEE13
:101F9000C00A10EE100A000E04F8010B684600EBB0
:101FA000850090ED000ADFED710A20EE200ABDEEFB
:101FB000C00A10EE100A000C04F8010B684600EB92
:101FC000850090ED000ADFED690A20EE200ABDEEE3
:101FD000C00A10EE100A000A04F8010B684600EB74
:101FE000850090ED000ADFED610A20EE200ABDEECB
:101FF000C00A10EE100A04F8010B0AF1010000F00B
:10200000FF0A5948C08B401F5045A7DC5648C08B7B
:10201000401F00EB8000401D81B20DF11600FEF75D
:102020006FF90746380E04F8010B380C04F8010B61
:10203000380A04F8010B04F8017B4B48C08B401FA1
:1020400000EB80000B3081B205A809F046F9C2E12F
:10205000342105A80CF078F8FF208DF814008DF8D5
:10206000150000208DF8160021208DF817003E483D
:10207000408C00128DF818003B4890F822008DF833
:10208000190007208DF81A000DF11B041421684671
:102090000CF05AF804AB03AA02A901A8FEF739FF15
:1020A000002004F8010B04F8010B04F8010B04F8FC
:1020B000010B9DED020ADDED030A30EE200ADDED95
:1020C000040A30EE200ADFED290A20EE200ABDEED8
:1020D000C00A10EE105A280E04F8010B280C04F860
:1020E000010B280A04F8010B04F8015B9DED010ABD
:1020F000DFED1E0A20EE200ABDEEC00A10EE106AC7
:10210000300E04F8010B300C04F8010B300A04F80F
:10211000010B04F8016B164890ED000ADFED150A7B
:1021200020EE200ABDEEC00A10EE100A000E04F8E0
:10213000010B0F4890ED000ADFED0E0A20EE200A99
:10214000BDEEC00A10EE100A000C04F8010B08489E
:1021500090ED000ADFED070A20EE200ABDEEC00A6E
:1021600010EE100A000A07E0B402002000401C46EE
:10217000502200200000C84204F8010BFE4890EDF8
:10218000000A5FED040A20EE200ABDEEC00A10EE40
:10219000100A04F8010BF84890ED010A5FED0B0AF4
:1021A00020EE200ABDEEC00A10EE100A000E04F860
:1021B000010BF14890ED010A5FED120A20EE200AB2
:1021C000BDEEC00A10EE100A000C04F8010BEA483C
:1021D00090ED010A5FED190A20EE200ABDEEC00A5B
:1021E00010EE100A000A04F8010BE34890ED010A12
:1021F0005FED200A20EE200ABDEEC00A10EE100AA4
:1022000004F8010BDC4890ED020A5FED260A20EE8F
:10221000200ABDEEC00A10EE100A000E04F8010BF1
:10222000D54890ED020A5FED2D0A20EE200ABDEEA2
:10223000C00A10EE100A000C04F8010BCE4890ED15
:10224000020A5FED340A20EE200ABDEEC00A10EE4D
:10225000100A000A04F8010BC74890ED020A5FED6E
:102260003B0A20EE200ABDEEC00A10EE100A04F868
:10227000010B1D210DF11600FEF742F80746380E3E
:1022800004F8010B380C04F8010B380A04F8010BB0
:1022900004F8017B232105A809F01FF89BE03421F5
:1022A00005A80BF051FFFF208DF814008DF81500E4
:1022B00000208DF81600B148807F001DC0B28DF857
:1022C0001700AE48408C00128DF81800AB4890F80B
:1022D00022008DF8190008208DF81A000DF11B045A
:1022E0004FF0000AA54890F82650002705E005F0B9
:1022F000010008B1781CC7B26D10002DF7DC9F48B3
:10230000C08B401FB84204D0AFF684200BF042FED1
:1023100035E50027994890F82650B846B9464FF061
:10232000010815E0404605F03BFB8146B9F1000F7E
:102330000AD0B9F8080100EE100AB8EE400A684663
:1023400000EB880080ED000A08F1010000F0FF08B2
:10235000B8F1050FE6DB4FF0000A1CE009E005F0DC
:10236000010018B1781CC7B26D1004E0781CC7B228
:102370006D10002DF3DC00BF684600EB870090ED88
:10238000000ABDEEC00A10EE100A04F8010B0AF1B3
:10239000010000F0FF0A7948C08B401F5045DDDC8A
:1023A0007648C08B81B20DF11600FDF7A9FF0646F5
:1023B000300E04F8010B300C04F8010B300A04F85D
:1023C000010B04F8016B6D48C08B801D81B205A81C
:1023D00008F083FF00BF00BF00BFD0E47FB5054613
:1023E000032D3AD100200090019002900390FF202D
:1023F0008DF800008DF8010000208DF802000B2000
:102400008DF803005D48408C00128DF804005B4895
:1024100090F822008DF8050000208DF806008DF858
:1024200007008DF8080007210DF10200FDF768FF95
:102430000446200E8DF80900200C8DF80A00200AB1
:102440008DF80B00E0B28DF80C000D21684608F005
:1024500044FF01204949487000BF00BF7FBD10B54F
:1024600086B0142101A80BF06FFEFF208DF8040048
:102470008DF8050000208DF806000B208DF8070070
:102480003E48408C00128DF808003C4890F822002D
:102490008DF809003948808B032803D100208DF87E
:1024A0000A0004E0354890F824008DF80A00012065
:1024B0008DF80B008DF80C0007210DF10600FDF7DB
:1024C0001FFF0446200E8DF80D00200C8DF80E0025
:1024D000200A8DF80F00E0B28DF810000D2101A840
:1024E00008F0FBFE00202549487006B010BD00B57D
:1024F000C3B020E0224800680078FF2806D12048B9
:10250000006840680078FF2800D115E01C4800688A
:102510001C490968884202D1012043B000BD002057
:102520001749096808701649096848701448006816
:10253000416813480160DDE700BF1148006800787A
:10254000FF2840F0CD870E48006840680078FF28DB
:10255000F7D101200949087000202990084909682D
:1025600008700749096848700548006841680448D0
:1025700001600020024907E050220020B402002040
:10258000240000202800002009680870FE4909681E
:102590004870FD4800684068FB49086015E000206D
:1025A0002590022008F0A8FD2599481C259028298F
:1025B0000ADD0020F44909684870F3480068416862
:1025C000F14801600220A8E700BFEF4800684078AA
:1025D0000028E4D0EC48006802782998411CC9B270
:1025E00029912AA90A540020E74909684870E64859
:1025F00000684068E449086015E00020259002204A
:1026000008F07AFD2599481C259028290ADD00202C
:10261000DD4909684870DC4800684068DA490860AC
:1026200002207AE700BFD848006840780028E4D04C
:10263000D548006802782998411CC9B229912AA975
:102640000A540020D04909684870CF4800684068A3
:10265000CD4908609DF8A9109DF8A80041EA002026
:102660002890289806280DDA0020C7490968487084
:10267000C54800684068C4490860C4A00BF08AFCE3
:1026800003204AE72EE00020259013E0022008F006
:1026900033FD2598411C89B225913C280ADD002193
:1026A000B94800684170B84800684068B649086099
:1026B000022032E7B448006840780028E6D0B248EB
:1026C000006801782AAA299811540021AE480068B0
:1026D0004170AD4800684068AB4908602998401CCB
:1026E000C0B22990DDE928108842CCDB2898001F71
:1026F00080B2014625902AA8FDF702FE2790A8A0E7
:1027000027990BF047FC2898001F2AA9085C0106AE
:102710002898C01E2AAA105C41EA00412898801E11
:10272000105C41EA00212898401E105C0843269066
:10273000DDE92610884204D09DA00BF02BFC04207C
:10274000EBE600209D4908702898001FC8839DF87B
:10275000AA0040EA002048849DF8AC109748818484
:10276000808C012803DB9548808C04280FDD93487A
:10277000808C0A280BD09148808C0B2807D08F487A
:10278000808C0C2803D08D48808C0D287ED18B48FE
:10279000808C014625908AA00BF0FCFB0320874922
:1027A00088830020C8840846808C0E284AD2DFE83F
:1027B00010F049009101E7013D02F404490049008D
:1027C0004900490049000E004A007C00CC000DF190
:1027D000AD00259000202490249024E025980078D6
:1027E000012819D17548C08C012224998A401043D0
:1027F0007249C8842498401C04280DDC2498401C8D
:10280000C0B2239006F0D9FA2498401CC0B201222D
:102810000621239006F08BFB2598401C25902498D8
:10282000401CC0B224906548C08B401F2499884248
:10283000D4DC6248C08C0F2802DD6AA00BF0AAFB32
:10284000FEF7F2FBFEE30DF1AD0025900020249091
:10285000FF205A49C884002024901DE02598007864
:1028600088B95648C08C002224998A4010405349A8
:10287000C8842498401C042805DC2498401CC0B25D
:10288000239006F00CFB2598401C00E0FEE3259009
:102890002498401CC0B224904848C08B401F249903
:1028A0008842DBDCFEF7C0FBCCE70DF1AD002590E4
:1028B00000202490FF204149C884002024903BE060
:1028C0002598007888BB3D48C08C002224998A4016
:1028D00010403A49C8842498401C042825DC2498D8
:1028E000401CC0B29FED4D0A239006F0FAFF2498D9
:1028F000401CC0B201220621239006F018FB0021E3
:1029000047480AF005FE474890ED000A2B4880ED45
:102910000F0A444890ED010A284880ED100A41480A
:1029200090ED020A254880ED110A2598401C25905B
:102930002498401CC0B224902048C08B401F24998A
:102940008842BDDCFEF770FB7CE79DF8AD0025906A
:102950002598042803DD34A00BF01CFBB9E036A059
:102960000BF018FB002024909DF8AE0000069DF8A7
:10297000AF1040EA01409DF8B01040EA01209DF8F8
:10298000B1100843249063E0240000206461746166
:10299000206C656E677468206572726F720A000041
:1029A00043524320726573756C74202025780A00A9
:1029B000637263206572726F720A0000B4020020B5
:1029C000636F6E74726F6C206672616D652C206629
:1029D000756E6374696F6E20636F64652020256473
:1029E0000A0000007761726E696E6720746F6F2055
:1029F0006D756368206D6F746F722C20656E6162F7
:102A00006C65203120746F2034206D6F746F7220DC
:102A1000616C72656164790A0000000000000000CA
:102A200000100040502200206D6F746F72206964A6
:102A3000206572726F720A0072656C20706F736924
:102A400074696F6E2C20636D6431330A00000000DE
:102A500000202390259804F0A3FF2390239880B3AF
:102A60000122FD48259942549DED240AB8EEC00A82
:102A70009FEDFA1AC0EE010A239890ED480A30EE55
:102A8000800AF548801D259900EB810080ED000A41
:102A90009DED240AF8EEC00A9FEDF01A80EE810A3F
:102AA0002398D0ED480A30EE200A8DED220A9DEDE4
:102AB000220A259806F0D5FA20B10022E648259989
:102AC000425405E0E448801E007F2290FFF786FC18
:102AD00000BFB7E69DF8AD0025902598042804DDD9
:102AE000AFF2BC000BF056FA49E0DDA00BF052FA51
:102AF000002024909DF8AE0000069DF8AF1040EA3B
:102B000001409DF8B01040EA01209DF8B110084343
:102B1000249000202390259804F042FF23902398CE
:102B200028B30122CC48259942549DED240AB8EEE1
:102B3000C00ADFEDCA0A80EE201A801D259900EB3D
:102B4000810080ED001A9DED240AF8EEC00A9FED89
:102B5000C31A80EE810A8DED220A9DED220A259886
:102B600006F07FFA20B10022BB482599425405E0C7
:102B7000B948801E007F2290FFF730FC00BF61E261
:102B8000BCA00BF007FA002025909DF8AE000106CE
:102B90009DF8AF0041EA00409DF8B01040EA0120E6
:102BA0009DF8B110084325909DF8AD00249024981D
:102BB00001283ADB2498042837DC012202212498DA
:102BC00006F0B5F99DED250AF8EEC00A9FEDA31AAF
:102BD00080EE810A8DED230A23980EF007F821F08C
:102BE00000419FEDA90B53EC102BCDE920019DED89
:102BF000200B51EC100B0DF093FD15D29DED230A27
:102C0000F1EE080A20EE200A8DED220A9DED220A3F
:102C1000249806F066FE38B98F48801E007F229007
:102C2000FFF7DCFBFEF700FA00BFDBE398A00BF038
:102C3000B1F922AB23AA24A925A8FEF76AF99DEDD4
:102C4000240ADDED230A30EE200ADDED220A30EE03
:102C5000200A974880ED000A9DF8AE0000069DF816
:102C6000AF1040EA01409DF8B01040EA01209DF805
:102C7000B110084321909DED210AF8EEC00A9FEDA6
:102C80008D1A80EE810A8DED200A9DF8AD001F900F
:102C90001F98062861D2DFE800F00361BFDEDDDCAB
:102CA000002185480AF034FC844890ED000A6A4807
:102CB000801E80ED0F0A20980DF098FF21F0004152
:102CC000CDE91A017D48406817900DF08FFFCDE9DE
:102CD00018019DED1A0B53EC102B9DED180B51ECC8
:102CE000100B0DF0B7FACDE91C019DED1C0B51EC5A
:102CF000100B0DF07DFA5849891E08646F4890ED5D
:102D0000020A084680ED110A406C17900DF06EFF24
:102D1000CDE91C015048801E006C17900DF066FF35
:102D2000CDE91A014C48801EC06B17900DF05EFF74
:102D3000CDE91801DDE91C01CDE90201DDE91A0147
:102D4000CDE900019DED180B53EC102B5CA00BF0AE
:102D500021F9012158480AF0DBFB17E2002156480F
:102D60000AF0D6FB554890ED000A3B48801E80EDE6
:102D70000F0A20980DF03AFF21F00041CDE91A0129
:102D80004E48406817900DF031FFCDE918019DEDD8
:102D90001A0B53EC102B9DED180B51EC100B0DF092
:102DA0003BFECDE91C019DED1C0B51EC100B0DF011
:102DB0001FFA2949891E0864404890ED020A084616
:102DC00080ED110A406C17900DF010FFCDE91C0149
:102DD0002148801E006C17900DF008FFCDE91A0104
:102DE0001D48801EC06B17900DF000FFCDE9180143
:102DF000DDE91C01CDE90201DDE91A01CDE900019F
:102E00009DED180B53EC102B2DA00BF0C3F80121F6
:102E100029480AF07DFBB9E1002127480AF078FB38
:102E200020980DF0E3FE21F00041CDE91A0123487E
:102E3000006817900DF0DAFECDE918019DED1A0B30
:102E400053EC102B9DED180B51EC100B0DF0E4FD25
:102E500046E03FE1DEE082E0B602002000401C4692
:102E600061627320706F736974696F6E2C20636D7B
:102E700064310A00636D6420322C207370656564D0
:102E800020636D640A000000000000000000244080
:102E9000636D6420332C2072656C617469766520E3
:102EA000706F736974696F6E20636D640A0000004F
:102EB0001C0000200000C8420010004050220020EA
:102EC00074617267657420706F736974696F6E20C6
:102ED00069732025662C2025662C2025660A0000B3
:102EE000CDE91C019DED1C0B51EC100B0DF080F990
:102EF000FE49C863FE4890ED010A084680ED100ABD
:102F0000FB4890ED020A084680ED110A406C1790CC
:102F10000DF06CFECDE91C01F448006C17900DF02B
:102F200065FECDE91A01F148C06B17900DF05EFE09
:102F3000CDE91801DDE91C01CDE90201DDE91A0145
:102F4000CDE900019DED180B53EC102BAFF2900072
:102F50000BF020F80121E7480AF0DAFA16E1002127
:102F6000E4480AF0D5FA20980DF040FE21F0004127
:102F7000CDE91A01DE48006817900DF037FECDE963
:102F800018019DED1A0B53EC102B9DED180B51EC15
:102F9000100B0DF05FF9CDE91C019DED1C0B51EC00
:102FA000100B0DF025F9D149C863D14890ED010A05
:102FB000084680ED100ACE4890ED020A084680EDE2
:102FC000110A406C17900DF011FECDE91C01C748A5
:102FD000006C17900DF00AFECDE91A01C348C06BD2
:102FE00017900DF003FECDE91801DDE91C01CDE9D4
:102FF0000201DDE91A01CDE900019DED180B53EC4A
:10300000102BAFF244100AF0C5FF0121B9480AF0B5
:103010007FFABBE00021B7480AF07AFAB44890ED95
:10302000000AB24880ED0F0AB14890ED010AAF489E
:1030300080ED100A20980DF0D9FD21F00041CDE976
:103040001A0100E0CEE1AA48806817900DF0CEFD8D
:10305000CDE918019DED1A0B53EC102B9DED180BCB
:1030600051EC100B0DF0F6F8CDE91C019DED1C0B99
:1030700051EC100B0DF0BCF89C4948640846406CBC
:1030800017900DF0B3FDCDE91C0100E0ABE19748CE
:10309000006C17900DF0AAFDCDE91A019348C06BA2
:1030A00017900DF0A3FDCDE91801DDE91C01CDE974
:1030B0000201DDE91A01CDE900019DED180B53EC89
:1030C000102BAFF204200AF065FF012189480AF0B5
:1030D0001FFA5BE0002187480AF01AFA844890ED55
:1030E000000A824880ED0F0A814890ED010A7F486E
:1030F00080ED100A20980DF079FD21F00041CDE916
:103100001A017B48806817900DF070FDCDE9180119
:103110009DED1A0B53EC102B9DED180B51EC100B81
:103120000DF07AFCCDE91C019DED1C0B51EC100B50
:103130000DF05EF86D4948640846406C17900DF03C
:1031400055FDCDE91C016948006C17900DF04EFD4E
:10315000CDE91A016548C06B17900DF047FDCDE928
:103160001801DDE91C01CDE90201DDE91A01CDE913
:1031700000019DED180B53EC102BAFF2BC200AF0B0
:1031800009FF01215B480AF0C3F900BF00BF57489F
:10319000007F1E90FFF722F924E157A00AF0FAFE03
:1031A00022AB23AA24A925A8FDF7B3FE9DED240A8E
:1031B000DDED230A30EE200ADDED220A30EE200A92
:1031C000534880ED000A00214A480AF0A1F99DF811
:1031D000AD0000069DF8AE1040EA01409DF8AF102A
:1031E00040EA01209DF8B010084321909DF8B100FD
:1031F00000069DF8B21040EA01419DF8B30041EA93
:1032000000209DF8B410084320909DF8B5000106F9
:103210009DF8B60041EA00419DF8B70041EA002060
:103220009DF8B81008431F909DF8B90001069DF85D
:10323000BA0041EA00419DF8BB0041EA00209DF838
:10324000BC1008431E909DF8BD0000069DF8BE10FE
:1032500040EA01419DF8BF0041EA00209DF8C010FE
:1032600008431D909DF8C10000069DF8C21040EA79
:1032700001419DF8C30041EA00209DF8C4100843B5
:103280001C909DED210AF8EEC00A9FED221A80EEF7
:10329000810A8DED1B0A9DED200AF8EEC00A9FED14
:1032A0001D1A80EE810A8DED1A0A9DED1F0AF8EEB7
:1032B000C00A9FED181A80EE810A8DED190A9DED66
:1032C0001E0AF8EEC00A9FED141A80EE810A8DEDF9
:1032D000180A9DED1D0AF8EEC00A9FED0F1A80EE48
:1032E000810A8DED170A9DED1C0A17E0B40200203B
:1032F0005022002000100040636D64342C20616275
:103300007320706F736974696F6E20636D640A0057
:103310001C00002000401C460000C842F8EEC00A15
:103320001FED031A80EE810A8DED160A9DED180A35
:10333000FA4880ED0F0A9DED170A80ED100A9DED09
:10334000160A80ED110A9DED1B0A80ED0C0A9DED19
:103350001A0A80ED0D0A9DED190A80ED0E0A1698E5
:103360000DF044FCCDE9140117980DF03FFCCDE9B8
:10337000120118980DF03AFCCDE9100119980DF0E2
:1033800035FCCDE90E011A980DF030FCCDE90C01A9
:103390001B980DF02BFCCDE90A01DDE91401CDE904
:1033A0000801DDE91201CDE90601DDE91001CDE9F1
:1033B0000401DDE90E01CDE90201DDE90C01CDE9F1
:1033C00000019DED0A0B53EC102BD5A00AF0E2FD95
:1033D0000121D9480AF09CF8D048007F1590FEF7EB
:1033E000FDFF00BF00BFCD48808C052831DBCB48F6
:1033F000808C08282DDCC948808C01462390CFA002
:103400000AF0C8FD0DF1AD00259000202490C349BD
:10341000C884249011E0C148C08C25990978491EC0
:1034200001228A40104381B2BC48C1842598401CC7
:1034300025902498401CC0B22490B848C08B401FEF
:1034400024998842E7DC0121B4488183FEF741FCDE
:1034500000BFB248808C092809D1B048808C014651
:103460002590BEA00AF096FD0221AC4881832898E1
:10347000062832D1A948808C01462190BFA00AF0CD
:1034800089FD0020A5498883239024902590FF2062
:103490008DF88C008DF88D0000208DF88E000620B0
:1034A0008DF88F0002210DF18E00FCF729FF22908C
:1034B0002298000E8DF890002298000C8DF8910053
:1034C0002298000A8DF892002298C0B28DF89300DD
:1034D0000D2123A807F001FF00BF0020FFF71DB852
:1034E0000020AF4909680870AD4909684870AC48C8
:1034F00000684068AA4908600020EFE710B5A9A05D
:103500000AF048FDB0A00AF045FDB8A00AF042FD5F
:10351000BFA00AF03FFDC8A00AF03CFDCFA00AF012
:1035200039FDD6A00AF036FDDCA00AF033FDE2A09A
:103530000AF030FD10BD11B59DB01D98332883F001
:10354000C081DFE810F0BE1933003D004A00510091
:1035500058005F00BE19BE19BE19680074007A00D9
:103560009200AA00AB00B200B900C000C700CE00B4
:10357000D500DC00E3007F0287029A02AD02C002A0
:10358000D302E602F9020C031F033203450358037A
:103590006B033D045205F2059D08AA0A720C4B0EFE
:1035A0002710FE11C513A815BB15CD17C9A00AF029
:1035B000F1FC04F0ABF8CCA00AF0ECFC03F084B909
:1035C000CDA00AF0E7FC04F0ADF84FF4FA7007F074
:1035D000DBFDCDA00AF0DEFCF0E7D0A00AF0DAFCBB
:1035E000D4A00AF0D7FCE9E7D8A00AF0D3FCDEA00B
:1035F0000AF0D0FCE2E7E2A00AF0CCFCE7A00AF077
:10360000C9FCDBE7EBA00AF0C5FC05F07FFCEEA0EF
:103610000AF0C0FCD2E7F1A00AF0BCFC04F076F896
:1036200004F080F84FF47A7007F0AEFDC6E7EEA024
:103630000AF0B0FC05F06AFCC0E7EEA00AF0AAFCB4
:1036400001220621104605F072FC0122062102200B
:1036500005F06DFC01220621032005F068FC012223
:103660000621042005F063FCA8E7EBA00AF092FC19
:1036700001220321104605F05AFC012203210220F9
:1036800005F055FC01220321084605F050FC0122FB
:103690000321042005F04BFC90E78FE700219FED0C
:1036A000E60A0420FDF7E4FB88E701219FEDE20A2A
:1036B0000420FDF7DDFB81E700219FEDDF0A0320F9
:1036C000FDF7D6FB7AE701219FEDDB0A0320FDF72A
:1036D000CFFB73E700219FEDD80A0220FDF7C8FB5E
:1036E0006CE701219FEDD40A0220FDF7C1FB65E7DD
:1036F00000219FEDD10A0120FDF7BAFB5EE7012111
:103700009FEDCD0A0846FDF7B3FB57E7DFEDCB0A87
:103710009FEDCB0A0420FDF799FD4FE7B40200208E
:1037200025662C2025662C2025662C2025662C203D
:1037300025662C2025660A00001000407265616431
:10374000206672616D652C2066756E6374696F6E9C
:1037500020636F6465202025640A0000736574206F
:103760006672616D652C2066756E6374696F6E207C
:10377000636F6465202025640A000000686561723B
:103780007462656174206672616D652C2066756E69
:103790006374696F6E20636F6465202025640A007E
:1037A000240000200D0ABBB6D3ADCAB9D3C320494B
:1037B0004E4E464F532053434120C7FDB6AFB2E2B1
:1037C000CAD4A3A10D0A0000CFEACFB8CDA8D0C5B6
:1037D000D0ADD2E9B2CEBCFB20494E4E464F53206D
:1037E00057494B4920A3A10D0A000000B7A2CBCD39
:1037F000203120C2D6D1AFD7DCCFDFC9CFB5C4D6F8
:10380000B4D0D0C6F7494420A3A10D0A000000009F
:10381000B7A2CBCD203220CAB9D3C3C4ACC8CF49DC
:1038200044B3F5CABCBBAF534341BFD8D6C6C6F7F5
:1038300020A3A10D0A000000B7A2CBCD203320BDEC
:10384000F8C8EBCEBBD6C3B9E9C1E3B2E2CAD4B380
:10385000CCD0F220A3A10D0A00000000B7A2CBCD6E
:10386000203420BDF8C8EBD5FDB7B4D7AAB2E2CA60
:10387000D4B3CCD0F220A3A10D0A0000B7A2CBCDC7
:10388000203520BDF8C8EBB8DFB5CDCBD9B2E2CA40
:10389000D4B3CCD0F220A3A10D0A0000B7A2CBCDA7
:1038A000203620BDABD6B4D0D0C6F7B9D8BBFA20ED
:1038B000A3A10D0A00000000B7A2CBCD203720CF76
:1038C000D4CABEB0EFD6FAD0C5CFA220A3A10D0AAC
:1038D000000000000D0AD6B4D0D0C2D6D1AFB3CC10
:1038E000D0F2A3A10D0A0000C2D6D1AFBDE1CAF843
:1038F000A3A10D0A000000000D0A534341B3F5CA0D
:10390000BCBBAFA3A10D0A00534341B3F5CABCBB76
:10391000AFBDE1CAF8A3A10D0A0000000D0ABDF871
:10392000C8EBCEBBD6C3B9E9C1E3B2E2CAD4A3A106
:103930000D0A0000CEBBD6C3B9E9C1E3B2E2CAD4D6
:10394000BDE1CAF8A3A10D0A000000000D0ABDF8F0
:10395000C8EBD5FDB7B4D7AAC7D0BBBBB2E2CAD4B7
:10396000A3A10D0A00000000D5FDB7B4D7AAC7D0A7
:10397000BBBBB2E2CAD4BDE1CAF8A3A10D0A0000E4
:103980000D0ABDF8C8EBB8DFB5CDCBD9C7D0BBBBEE
:10399000B2E2CAD4A3A10D0A00000000B8DFB5CD81
:1039A000CBD9C7D0BBBBB2E2CAD4BDE1CAF8A3A190
:1039B0000D0A00000D0AD6B4D0D0C6F7B9D8BBFAAC
:1039C000A3A10D0A00000000D6B4D0D0C6F7B9D824
:1039D000BBFABDE1CAF8A3A10D0A000073746172BD
:1039E0007420616C6C200A00636C6F736520616CDD
:1039F0006C200A007772697465206D6F746F722095
:103A0000746F20706F736974696F6E2053206D6FCF
:103A10006465200A000000007772697465206D6F8C
:103A2000746F7220746F20706F736974696F6E2089
:103A30006D6F6465200A0000CDCCCC3D00001042C3
:103A40000000C842DFEDFC0A1FED030A0420FDF769
:103A5000FDFBB3E5DFEDF83A9FEDF73ADFEDF62A2F
:103A6000B2EE042ADFEDF41A9FEDF31ADFEDF20A4D
:103A7000B2EE040AFDF744FCA0E5DFEDEF3A9FED5E
:103A8000EE3ADFEDED2AB2EE042ADFEDEB1A9FED00
:103A9000EA1ADFEDE90A9FEDE80AFDF731FC8DE552
:103AA000DFEDE53A9FEDE43ADFEDE32AB2EE042ADA
:103AB000DFEDE11A9FEDE01ADFEDDF0ABAEE040A4E
:103AC000FDF71EFC7AE5DFEDDC3A9FEDDB3AF2EE26
:103AD000042A9FEDD92ADFEDD81A9FEDD71AF2EE0E
:103AE000040A9FEDD50AFDF70BFC67E5DFEDD23A3E
:103AF0009FEDD13AF2EE042A9FEDCF2ADFEDCE1AE8
:103B00009FEDCD1ADFEDCC0A9FEDCB0AFDF7F8FB58
:103B100054E5DFEDC93A9FEDC83AF2EE042A9FED75
:103B2000C62ADFEDC51A9FEDC41AFAEE040A9FED0E
:103B3000C20AFDF7E5FB41E5DFEDBF3AB2EE043A1C
:103B4000DFEDBD2A9FEDBC2ADFEDBB1AB2EE041AF1
:103B5000DFEDB90A9FEDB80AFDF7D2FB2EE5DFEDE8
:103B6000B63AB2EE043ADFEDB42A9FEDB32ADFEDA8
:103B7000B21A9FEDB11ADFEDB00A9FEDAF0AFDF763
:103B8000BFFB1BE5DFEDAC3AB2EE043ADFEDAA2A4B
:103B90009FEDA92ADFEDA81ABAEE041ADFEDA60AF6
:103BA0009FEDA50AFDF7ACFB08E5F2EE043A9FEDA8
:103BB000A23ADFEDA12A9FEDA02AF2EE041A9FEDB2
:103BC0009E1ADFED9D0A9FED9C0AFDF799FBF5E437
:103BD000F2EE043A9FED983ADFED972A9FED962A90
:103BE000DFED951A9FED941ADFED930A9FED920A8F
:103BF000FDF786FBE2E4F2EE043A9FED8F3ADFED4B
:103C00008E2A9FED8D2AFAEE041A9FED8B1ADFEDB6
:103C10008A0A9FED890AFDF773FBCFE418AB19AA56
:103C20001AA91BA8FDF775F91790179818B18348C2
:103C30000AF0B0F9C3E01B980CF0D8FF21F0004166
:103C40009FED7F0B53EC102BCDE912019DED120B74
:103C500051EC100B0CF064FD02D29FED770A01E0ED
:103C60009DED1B0A8DED1B0A1A980CF0BFFF21F089
:103C700000419FED730B53EC102BCDE912019DED2C
:103C8000120B51EC100B0CF04BFD02D29FED6A0AA7
:103C900001E09DED1A0A8DED1A0A19980CF0A6FFA5
:103CA00021F000419FED660B53EC102BCDE9120182
:103CB0009DED120B51EC100B0CF032FD02D29FED7A
:103CC0005E0A01E09DED190A8DED190A18980CF0B5
:103CD0008DFF21F000419FED5A0B53EC102BCDE9E5
:103CE00012019DED120B51EC100B0CF019FD02D2DC
:103CF0009FED510A01E09DED180A8DED180A9FED28
:103D00004E0A8DED160A9FED4C0A8DED150A9FEDBA
:103D10004A0A8DED140A18980CF068FFCDE91201DB
:103D200019980CF063FFCDE910011A980CF05EFFB2
:103D3000CDE90E011B980CF059FFCDE90C01DDE92E
:103D40001201CDE90401DDE91001CDE90201DDE94F
:103D50000E01CDE900019DED0C0B53EC102B3AA0A8
:103D60000AF018F914AA15A916A8DDED181A9DED88
:103D7000191ADDED1A0A9DED1B0AFCF710FF1498C5
:103D80000CF034FFCDE9120115980CF02FFFCDE9AE
:103D9000100116980CF02AFFCDE90E01DDE91201A1
:103DA000CDE90201DDE91001CDE900019DED0E0B29
:103DB00053EC102BAFF28C600AF0ECF800BF0BE470
:103DC00018AB19AA1AA91BA8FDF7A3F81790179802
:103DD00018B11A480AF0DEF806E11B980CF006FF4D
:103DE00021F000419FED160B53EC102BCDE9120191
:103DF0009DED120B51EC100B0CF092FC02D29FEDDA
:103E00000E0A01E09DED1B0A8DED1B0A1A980CF0BD
:103E1000EDFE21F000419FED0A0B53EC102BCDE994
:103E200012019DED120B51EC100B0CF079FC13D22A
:103E30009FED010A12E0000000000000B01300082E
:103E40007B14AE47E17A843F25662C25662C2566D7
:103E50002C25660A000000009DED1A0A8DED1A0A55
:103E600019980CF0C3FE21F000411FED0B0B53EC31
:103E7000102BCDE912019DED120B51EC100B0CF043
:103E80004FFC02D21FED140A01E09DED190A8DEDE1
:103E9000190A18980CF0AAFE21F000411FED180B2A
:103EA00053EC102BCDE912019DED120B51EC100BD0
:103EB0000CF036FC02D21FED200A01E09DED180A3D
:103EC0008DED180A1FED240A8DED160A1FED260A46
:103ED0008DED150A1FED280A8DED140A14AA15A9F7
:103EE00016A8DDED181A9DED191ADDED1A0A9DEDE3
:103EF0001B0AFCF754FE14980CF078FECDE9120171
:103F000015980CF073FECDE9100116980CF06EFEBA
:103F1000CDE90E01DDE91201CDE90201DDE9100173
:103F2000CDE900019DED0E0B53EC102BFDA00AF026
:103F300031F818980CF05AFECDE9120119980CF0DE
:103F400055FECDE910011A980CF050FECDE90E0196
:103F50001B980CF04BFECDE90C01DDE91201CDE917
:103F60000401DDE91001CDE90201DDE90E01CDE931
:103F700000019DED0C0B53EC102BF2A00AF00AF897
:103F800018AB19AA1AA91BA89DED141ADDED150A84
:103F90009DED160AFDF74DFA18980CF027FECDE9B5
:103FA000120119980CF022FECDE910011A980CF0BC
:103FB0001DFECDE90E011B980CF018FECDE90C0199
:103FC000DDE91201CDE90401DDE91001CDE90201CD
:103FD000DDE90E01CDE900019DED0C0B53EC102B3A
:103FE000E3A009F0D7FF00BF33E518AB19AA1AA95F
:103FF0001BA8FCF78EFF1790179818B1E7A009F0DF
:10400000C9FF91E01B980CF0F1FD21F000411FED7C
:10401000740B53EC102BCDE914019DED140B51ECF6
:10402000100B0CF07DFB02D21FED7D0A01E09DED2F
:104030001B0A8DED1B0A1A980CF0D8FD21F00041E7
:104040001FED810B53EC102BCDE914019DED140BEA
:1040500051EC100B0CF064FB02D21FED890A01E059
:104060009DED1A0A8DED1A0A19980CF0BFFD21F08A
:1040700000411FED8D0B53EC102BCDE914019DED8C
:10408000140B51EC100B0CF04BFB02D21FED960AF7
:1040900001E09DED190A8DED190A18980CF0A6FDA6
:1040A00021F000411FED9A0B53EC102BCDE91401C8
:1040B0009DED140B51EC100B0CF032FB02D21FEDF6
:1040C000A20A01E09DED180A8DED180AC24AC34903
:1040D000C348DDED181A9DED191ADDED1A0A9DEDA4
:1040E0001B0AFCF75CFDBC4800680CF07FFDCDE9C5
:1040F0001401BA4800680CF079FDCDE91201B84806
:1041000000680CF073FDCDE91001DDE91401CDE983
:104110000201DDE91201CDE900019DED100B53EC28
:10412000102BB0A009F036FF93E418AB19AA1AA916
:104130001BA8FCF7EEFE1790179818B1B44809F0C9
:1041400029FF9CE21B980CF051FD21F000411FED6E
:10415000C40B53EC102BCDE910019DED100B51EC6D
:10416000100B0CF0DDFA02D21FEDCD0A01E09DED3F
:104170001B0A8DED1B0A1A980CF038FD21F0004146
:104180001FEDD10B53EC102BCDE910019DED100B61
:1041900051EC100B0CF0C4FA02D21FEDD90A01E069
:1041A0009DED1A0A8DED1A0A19980CF01FFD21F0E9
:1041B00000411FEDDD0B53EC102BCDE910019DEDFF
:1041C000100B51EC100B0CF0ABFA02D21FEDE60A0B
:1041D00001E09DED190A8DED190A18980CF006FD05
:1041E00021F000411FEDEA0B53EC102BCDE910013B
:1041F0009DED100B51EC100B0CF092FA02D21FED5A
:10420000F20A01E09DED180A8DED180A744890ED50
:10421000000AF1EE040A30EE200A8DED110A13AB0C
:1042200014AA15A916A86C4C94ED001A6B4CD4ED89
:10423000000A9DED110AFDF7FCF812901298002873
:104240006FD113980CF0D2FCCDE90C0114980CF04E
:10425000CDFCCDE90A0115980CF0C8FCCDE90801A8
:1042600016980CF0C3FCCDE90601DDE90C01CDE99F
:104270000401DDE90A01CDE90201DDE90801CDE92A
:1042800000019DED060B53EC102B30A009F082FECF
:104290009DED160ADDED1B0A30EE600A8DED090A70
:1042A00009980CF0A3FC21F000419FED5A0B53EC50
:1042B000102BCDE90A019DED0A0B51EC100B0CF00F
:1042C0007DF8CDE90C019DED0C0B51EC100B0BF0C2
:1042D0008FFF11909DED150ADDED1A0A30EE600A90
:1042E0008DED090A09980CF081FC21F000419FED49
:1042F000490B53EC102BCDE90A019DED0A0B51EC53
:10430000100B0CF05BF8CDE90C019DED0C0B51ECA2
:10431000100B0BF06DFF10909DED140ADDED190AE6
:104320007CE0A2E1706F736974696F6E2020203A9F
:10433000202025662C20202025662C2020202025CA
:10434000660A000063757272656E7420616E676C38
:10435000652020202020203A202025662C202020A7
:1043600025662C20202020256620202025660A0096
:104370007461726765742020616E676C652020200F
:104380002020203A202025662C20202025662C2065
:10439000202020256620202025660A0020657272D4
:1043A0006F72207768696C6520696E2070726F6328
:1043B000657373696E6720706F736974696F6E20BF
:1043C000746F20616E676C6520696E20636F6D6D20
:1043D000616E642033390A00380000203400002068
:1043E00030000020737461727420706F696E7420E5
:1043F000706F736974696F6E2020203A20202566E3
:104400002C20202025662C2020202025660A000054
:10441000B01300089A9999999999B93F30EE600ABA
:104420008DED090A09980CF0E1FB21F000411FED28
:10443000070B53EC102BCDE90A019DED0A0B51EC53
:10444000100B0BF0BBFFCDE90C019DED0C0B51ECFB
:10445000100B0BF0CDFE0F909DED130ADDED180A49
:1044600030EE600A8DED090A09980CF0BFFB21F0CF
:1044700000411FED180B53EC102BCDE90A019DED07
:104480000A0B51EC100B0BF099FFCDE90C019DEDDF
:104490000C0B51EC100B0BF0ABFE0E909DED110AC6
:1044A000DFEDFC0AB4EEE00AF1EE10FA02DD9FED5A
:1044B000F90A01E09DED110A8DED110A9DED100A3A
:1044C000DFEDF40AB4EEE00AF1EE10FA02DD9FED42
:1044D000F10A01E09DED100A8DED100A9DED0F0A25
:1044E000DFEDEC0AB4EEE00AF1EE10FA02DD9FED2A
:1044F000E90A01E09DED0F0A8DED0F0A9DED0E0A10
:10450000DFEDE40AB4EEE00AF1EE10FA02DD9FED11
:10451000E10A01E09DED0E0A8DED0E0A16980CF0F1
:1045200065FB21F000411FED450B53EC102BCDE94D
:104530000C019DED0C0B51EC100B0CF0F1F802D2BC
:104540009FEDD50A01E09DED160A8DED160A15982E
:104550000CF04CFB21F000411FED520B53EC102BE3
:10456000CDE90C019DED0C0B51EC100B0CF0D8F8C3
:1045700002D29FEDC90A01E09DED150A8DED150AE5
:1045800014980CF033FB21F000411FED5E0B53EC4F
:10459000102BCDE90C019DED0C0B51EC100B0CF028
:1045A000BFF802D29FEDBC0A01E09DED140A8DED2B
:1045B000140A13980CF01AFB21F000411FED6B0B4D
:1045C00053EC102BCDE90C019DED0C0B51EC100BB5
:1045D0000CF0A6F802D29FEDB00A01E09DED130A9F
:1045E0008DED130A0E980CF001FBCDE90C010F982C
:1045F0000CF0FCFACDE90A0110980CF0F7FACDE9BD
:10460000080111980CF0F2FACDE90601DDE90C0180
:10461000CDE90401DDE90A01CDE90201DDE9080186
:10462000CDE900019DED060B53EC102B9BA009F08A
:10463000B1FCDDED0E3A9DED0F3ADDED102A9DED5A
:10464000112ADDED131A9DED141ADDED150A9DED0D
:10465000160AFCF755FE984890ED000AF7EE000A9E
:1046600030EE200A80ED000A08E0944840780128E6
:1046700001D1FDF7F4FE92A009F08CFC00BFB3E479
:1046800018AB19AA1AA91BA8FCF743FC1790179896
:1046900018B1924809F07EFCFEE11B980CF0A6FAD6
:1046A00021F000419FED8E0B53EC102BCDE9100152
:1046B0009DED100B51EC100B0CF032F802D29FED77
:1046C000760A01E09DED1B0A8DED1B0A1A980CF08D
:1046D0008DFA21F000419FED820B53EC102BCDE9B8
:1046E00010019DED100B51EC100B0CF019F802D2DB
:1046F0009FED690A01E09DED1A0A8DED1A0A1998DD
:104700000CF074FA21F000419FED750B53EC102B67
:10471000CDE910019DED100B51EC100B0CF000F8E1
:1047200002D29FED5D0A01E09DED190A8DED190A97
:1047300018980CF05BFA21F000419FED690B53ECE7
:10474000102BCDE910019DED100B51EC100B0BF06F
:10475000E7FF02D29FED500A01E09DED180A8DEDB2
:10476000180A554890ED000AF1EE040A30EE600A8E
:104770008DED110A13AB14AA15A916A85A4C94ED85
:10478000001A5A4CD4ED000A9DED110AFCF751FEB7
:104790001290129800287CD113980CF027FACDE9DA
:1047A0000C0114980CF022FACDE90A0115980CF0CE
:1047B0001DFACDE9080116980CF018FACDE90601AA
:1047C000DDE90C01CDE90401DDE90A01CDE90201D1
:1047D000DDE90801CDE900019DED060B53EC102B3E
:1047E00043A009F0D7FB9DED160ADDED1B0A30EE64
:1047F000600A8DED090A09980CF0F8F921F00041E2
:104800001FEDFC0B53EC102BCDE90A019DED0A0BBB
:1048100051EC100B0BF0D2FDCDE90C019DED0C0B12
:1048200051EC100B0BF0E4FC11909DED150ADDED41
:104830001A0A30EE600A8DED090A09980CF0D6F9D3
:1048400021F000419FED340B53EC102BCDE90A0110
:104850009DED0A0B51EC100B0BF0B0FDCDE90C01F6
:104860009DED0C0B51EC100B0BF0C2FC10909DED6C
:10487000140ADDED190A30EE600A8DED090A099877
:104880000CF0B4F921F000419FED230B53EC102BF9
:1048900046E0FCE00000C84200000000737065655F
:1048A0006420202020256620202025662020202529
:1048B0006620202025660A0030000020B402002077
:1048C0006E6F20696E7665727365206F7574206FE8
:1048D000662072616E67650A00000000B013000870
:1048E0007B14AE47E17A843F38000020340000207A
:1048F000616E676C652020202020203A20202566EC
:104900002C20202025662C202020202566202020F9
:104910002025660A000000009A9999999999B93F53
:10492000CDE90A019DED0A0B51EC100B0BF046FD91
:10493000CDE90C019DED0C0B51EC100B0BF058FC6C
:104940000F909DED130ADDED180A30EE600A8DED33
:10495000090A09980CF04AF921F000411FED120BE9
:1049600053EC102BCDE90A019DED0A0B51EC100B15
:104970000BF024FDCDE90C019DED0C0B51EC100B5F
:104980000BF036FC0E909DED110A5FED3E0AB4EE81
:10499000E00AF1EE10FA02DD1FED420A01E09DEDA2
:1049A000110A8DED110A9DED100A5FED460AB4EE75
:1049B000E00AF1EE10FA02DD1FED4A0A01E09DED7A
:1049C000100A8DED100A9DED0F0A5FED4E0AB4EE50
:1049D000E00AF1EE10FA02DD1FED520A01E09DED52
:1049E0000F0A8DED0F0A9DED0E0A5FED560AB4EE2B
:1049F000E00AF1EE10FA02DD1FED5A0A01E09DED2A
:104A00000E0A8DED0E0A0E980CF0F0F8CDE90C01AF
:104A10000F980CF0EBF8CDE90A0110980CF0E6F8CD
:104A2000CDE9080111980CF0E1F8CDE90601DDE9C6
:104A30000C01CDE90401DDE90A01CDE90201DDE95E
:104A40000801CDE900019DED060B53EC102BAFF2F0
:104A5000B41009F09FFADDED0E3A9DED0F3ADDED51
:104A6000102A9DED112ADDED131A9DED141ADDEDCE
:104A7000150A9DED160AFCF743FCFD4890ED000A6F
:104A8000F7EE000A30EE600A80ED000A03E0AFF2B4
:104A9000D01009F07FFA00BFF1E518AB19AA1AA9E6
:104AA0001BA8FCF736FA1790179818B1F14809F0CF
:104AB00071FAB9E11B980CF099F821F000411FED53
:104AC000780B53EC102BCDE910019DED100B51EC40
:104AD000100B0BF025FE02D21FED910A01E09DEDB7
:104AE0001B0A8DED1B0A1A980CF080F821F000418A
:104AF0001FED850B53EC102BCDE910019DED100B34
:104B000051EC100B0BF00CFE02D21FED9D0A01E0E0
:104B10009DED1A0A8DED1A0A19980CF067F821F02C
:104B200000411FED910B53EC102BCDE910019DEDD1
:104B3000100B51EC100B0BF0F3FD02D21FEDAA0A83
:104B400001E09DED190A8DED190A18980CF04EF848
:104B500021F000411FED9E0B53EC102BCDE910010D
:104B60009DED100B51EC100B0BF0DAFD02D21FED96
:104B7000B60A01E09DED180A8DED180ABC4890EDCB
:104B8000000AF3EE0E0A30EE200A8DED110A13AB87
:104B900014AA15A916A8B84C94ED001AB74CD4ED78
:104BA000000A9DED110AFCF744FC129012980028AF
:104BB0007DD113980CF01AF8CDE90C0114980CF083
:104BC00015F8CDE90A0115980CF010F8CDE90801A7
:104BD00016980CF00BF8CDE90601DDE90C01CDE9E2
:104BE0000401DDE90A01CDE90201DDE90801CDE9B1
:104BF00000019DED060B53EC102BAFF20C3009F0C9
:104C0000C9F99DED160ADDED1B0A30EE600A8DED47
:104C1000090A09980BF0EAFF21F000411FEDC20BD1
:104C200053EC102BCDE90A019DED0A0B51EC100B52
:104C30000BF0C4FBCDE90C019DED0C0B51EC100BFE
:104C40000BF0D6FA11909DED150ADDED1A0A30EE43
:104C5000600A8DED090A09980BF0C8FF21F00041A8
:104C60001FEDD30B53EC102BCDE90A019DED0A0B80
:104C700051EC100B0BF0A2FBCDE90C019DED0C0BE0
:104C800051EC100B0BF0B4FA10909DED140ADDED11
:104C9000190A30EE600A8DED090A09980BF0A6FF9B
:104CA00021F000411FEDE40B53EC102B00E0B6E0C7
:104CB000CDE90A019DED0A0B51EC100B0BF07EFBC8
:104CC000CDE90C019DED0C0B51EC100B0BF090FAA3
:104CD0000F909DED130ADDED180A30EE600A8DEDA0
:104CE000090A09980BF082FF21F000411FEDF60B35
:104CF00053EC102BCDE90A019DED0A0B51EC100B82
:104D00000BF05CFBCDE90C019DED0C0B51EC100B95
:104D10000BF06EFA0E909DED110AF3EE0E0AB4EE52
:104D2000E00AF1EE10FA02DDB3EE0E0A01E09DEDAD
:104D3000110A8DED110A9DED100AF3EE0E0AB4EE84
:104D4000E00AF1EE10FA02DDB3EE0E0A01E09DED8D
:104D5000100A8DED100A9DED0F0AF3EE0E0AB4EE67
:104D6000E00AF1EE10FA02DDB3EE0E0A01E09DED6D
:104D70000F0A8DED0F0A9DED0E0ADFED410AB4EE2C
:104D8000E00AF1EE10FA02DD9FED3D0A01E09DED33
:104D90000E0A8DED0E0A0E980BF028FFCDE90C01DE
:104DA0000F980BF023FFCDE90A0110980BF01EFFBE
:104DB000CDE9080111980BF019FFCDE90601DDE9F5
:104DC0000C01CDE90401DDE90A01CDE90201DDE9CB
:104DD0000801CDE900019DED060B53EC102BAFF25D
:104DE000445009F0D7F8DDED0E3A9DED0F3ADDEDB8
:104DF000102A9DED112ADDED131A9DED141ADDED3B
:104E0000150A9DED160AFCF77BFA194890ED000A89
:104E1000F3EE0E0A30EE200A80ED000A03E0AFF256
:104E2000605009F0B7F800BF29E418AB19AA1AA915
:104E30001BA8FCF76EF81790179818B10D4809F0E9
:104E4000A9F8CAE11B980BF0D1FE21F000419FEDBB
:104E50000D0B53EC102BCDE910019DED100B51EC17
:104E6000100B0BF05DFC13D29FED080A12E000005E
:104E700030000020B013000838000020340000206B
:104E80000000C8427B14AE47E17A843F0000000076
:104E90009DED1B0A8DED1B0A1A980BF0A7FE21F061
:104EA00000411FED080B53EC102BCDE910019DEDD7
:104EB000100B51EC100B0BF033FC02D21FED0D0A5E
:104EC00001E09DED1A0A8DED1A0A19980BF08EFE7D
:104ED00021F000411FED150B53EC102BCDE9100113
:104EE0009DED100B51EC100B0BF01AFC02D21FEDD4
:104EF000190A01E09DED190A8DED190A18980BF0B9
:104F000075FE21F000411FED210B53EC102BCDE974
:104F100010019DED100B51EC100B0BF001FC02D2B7
:104F20001FED260A01E09DED180A8DED180AFE48D6
:104F300090ED000AF3EE0E0A30EE600A8DED110AD4
:104F400013AB14AA15A916A8F84C94ED001AF84C46
:104F5000D4ED000A9DED110AFCF76BFA129012983D
:104F600000287DD113980BF041FECDE90C01149877
:104F70000BF03CFECDE90A0115980BF037FECDE9A8
:104F8000080116980BF032FECDE90601DDE90C01AF
:104F9000CDE90401DDE90A01CDE90201DDE90801FD
:104FA000CDE900019DED060B53EC102BAFF2C06074
:104FB00008F0F0FF9DED160ADDED1B0A30EE600AE9
:104FC0008DED090A09980BF011FE21F000419FEDCB
:104FD000D90B53EC102BCDE90A019DED0A0B51ECD6
:104FE000100B0BF0EBF9CDE90C019DED0C0B51EC26
:104FF000100B0BF0FDF811909DED150ADDED1A0A6E
:1050000030EE600A8DED090A09980BF0EFFD21F0F2
:1050100000419FEDC80B53EC102BCDE90A019DED2B
:105020000A0B51EC100B0BF0C9F9CDE90C019DED09
:105030000C0B51EC100B0BF0DBF810909DED140AEB
:10504000DDED190A30EE600A8DED090A09980BF0C2
:10505000CDFD21F000419FEDB70B53EC102B00E08C
:10506000B6E0CDE90A019DED0A0B51EC100B0BF0F7
:10507000A5F9CDE90C019DED0C0B51EC100B0BF0DB
:10508000B7F80F909DED130ADDED180A30EE600AB7
:105090008DED090A09980BF0A9FD21F000419FED63
:1050A000A50B53EC102BCDE90A019DED0A0B51EC39
:1050B000100B0BF083F9CDE90C019DED0C0B51ECBD
:1050C000100B0BF095F80E909DED110AF3EE0E0A01
:1050D000B4EEE00AF1EE10FA02DDB3EE0E0A01E0E2
:1050E0009DED110A8DED110A9DED100AF3EE0E0AE9
:1050F000B4EEE00AF1EE10FA02DDB3EE0E0A01E0C2
:105100009DED100A8DED100A9DED0F0AF3EE0E0ACB
:10511000B4EEE00AF1EE10FA02DDB3EE0E0A01E0A1
:105120009DED0F0A8DED0F0A9DED0E0A5FEDAC0AA5
:10513000B4EEE00AF1EE10FA02DD1FEDAF0A01E075
:105140009DED0E0A8DED0E0A0E980BF04FFDCDE988
:105150000C010F980BF04AFDCDE90A0110980BF0F5
:1051600045FDCDE9080111980BF040FDCDE90601A0
:10517000DDE90C01CDE90401DDE90A01CDE9020117
:10518000DDE90801CDE900019DED060B53EC102B84
:10519000AFF6F80008F0FEFEDDED0E3A9DED0F3A99
:1051A000DDED102A9DED112ADDED131A9DED141A87
:1051B000DDED150A9DED160AFCF7A2F85A4890EDB0
:1051C000000AF3EE0E0A30EE600A80ED000A03E0FA
:1051D000AFF6141008F0DEFE00BF5DE418AB19AAAC
:1051E0001AA91BA8FBF795FE1790179818B15348FA
:1051F00008F0D0FECDE11B980BF0F8FC21F0004147
:105200001FEDE00B53EC102BCDE910019DED100BC1
:1052100051EC100B0BF084FA02D21FEDE40A01E00E
:105220009DED1B0A8DED1B0A1A980BF0DFFC21F097
:1052300000411FEDEC0B53EC102BCDE910019DED5F
:10524000100B51EC100B0BF06BFA02D21FEDF10AB0
:1052500001E09DED1A0A8DED1A0A19980BF0C6FCB3
:1052600021F000411FEDF90B53EC102BCDE910019B
:105270009DED100B51EC100B0BF052FA02D29FED8A
:10528000300A01E09DED190A8DED190A18980BF00E
:10529000ADFC21F000419FED2B0B53EC102BCDE921
:1052A00010019DED100B51EC100B0BF039FA02D2EE
:1052B0009FED230A01E09DED180A8DED180A1C48A8
:1052C00090ED000AF3EE0E0A30EE200A8DED110A81
:1052D00013AB14AA15A916A8144C94ED001ADDED11
:1052E000110A114C94ED000AFCF7A3F812901298E1
:1052F00000287DD113980BF079FCCDE90C011498AE
:105300000BF074FCCDE90A0115980BF06FFCCDE9A8
:10531000080116980BF06AFCCDE90601DDE90C01E5
:10532000CDE9040112E00000300000203800002028
:10533000340000209A9999999999B93FB0130008BF
:10534000000000007B14AE47E17A843FDDE90A01EA
:10535000CDE90201DDE90801CDE900019DED060B73
:1053600053EC102BAFF6782008F014FE9DED160AD2
:10537000DDED1B0A30EE600A8DED090A09980BF08D
:1053800035FC21F000411FED150B53EC102BCDE93E
:105390000A019DED0A0B51EC100B0BF00FF8CDE953
:1053A0000C019DED0C0B51EC100B0AF021FF11903C
:1053B0009DED150ADDED1A0A30EE600A8DED090A41
:1053C00009980BF013FC21F000411FED260B53EC64
:1053D000102BCDE90A019DED0A0B51EC100B0AF0E0
:1053E000EDFFCDE90C019DED0C0B51EC100B00E035
:1053F000CAE00AF0FDFE10909DED140ADDED190AD9
:1054000030EE600A8DED090A09980BF0EFFB21F0F0
:1054100000411FED380B53EC102BCDE90A019DED37
:105420000A0B51EC100B0AF0C9FFCDE90C019DED00
:105430000C0B51EC100B0AF0DBFE0F909DED130AE4
:10544000DDED180A30EE600A8DED090A09980BF0BF
:10545000CDFB21F000411FED490B53EC102BCDE9A2
:105460000A019DED0A0B51EC100B0AF0A7FFCDE9E4
:105470000C019DED0C0B51EC100B0AF0B9FE0E90D7
:105480009DED110AF3EE0E0AB4EEE00AF1EE10FA09
:1054900002DDB3EE0E0A01E09DED110A8DED110A59
:1054A0009DED100AF3EE0E0AB4EEE00AF1EE10FAEA
:1054B00002DDB3EE0E0A01E09DED100A8DED100A3B
:1054C0009DED0F0AF3EE0E0AB4EEE00AF1EE10FACB
:1054D00002DDB3EE0E0A01E09DED0F0A8DED0F0A1D
:1054E0009DED0E0ADFEDFE0AB4EEE00AF1EE10FAD1
:1054F00002DD9FEDFB0A01E09DED0E0A8DED0E0A27
:105500000E980BF073FBCDE90C010F980BF06EFBBE
:10551000CDE90A0110980BF069FBCDE9080111985B
:105520000BF064FBCDE90601DDE90C01CDE90401D6
:10553000DDE90A01CDE90201DDE90801CDE900015B
:105540009DED060B53EC102BAFF6B04008F022FD9A
:10555000DDED0E3A9DED0F3ADDED102A9DED112A9D
:10556000DDED131A9DED141ADDED150A9DED160AF9
:10557000FBF7C6FEDB48D0ED000AB3EE0E0A30EEB4
:10558000800A80ED000A03E0AFF6CC4008F002FD8F
:1055900000BF49E418AB19AA1AA91BA8FBF7B9FC6C
:1055A0001790179818B1D04808F0F4FCC8E11B9880
:1055B0000BF01CFB21F000411FED9E0B53EC102B58
:1055C000CDE910019DED100B51EC100B0BF0A8F87C
:1055D00002D21FEDA50A01E09DED1B0A8DED1B0A0D
:1055E0001A980BF003FB21F000411FEDAA0B53ECBE
:1055F000102BCDE910019DED100B51EC100B0BF0B1
:105600008FF802D21FEDB20A01E09DED1A0A8DED6E
:105610001A0A19980BF0EAFA21F000411FEDB70BB6
:1056200053EC102BCDE910019DED100B51EC100B3C
:105630000BF076F802D21FEDBE0A01E09DED190ACB
:105640008DED190A18980BF0D1FA21F000411FEDE9
:10565000C30B53EC102BCDE910019DED100B51EC59
:10566000100B0BF05DF802D21FEDCB0A01E09DEDAF
:10567000180A8DED180A9B4890ED000AF3EE0E0A09
:1056800030EE600A8DED110A13AB14AA15A916A805
:10569000964C94ED001ADDED110A954C94ED000A3C
:1056A000FBF7C7FE1290129800287DD113980BF0DB
:1056B0009DFACDE90C0114980BF098FACDE90A0196
:1056C00015980BF093FACDE9080116980BF08EFAB5
:1056D000CDE90601DDE90C01CDE90401DDE90A01AE
:1056E000CDE90201DDE90801CDE900019DED060BE0
:1056F00053EC102BAFF6086008F04CFC9DED160A39
:10570000DDED1B0A30EE600A8DED090A09980BF0F9
:105710006DFA21F000411FEDF90B53EC102BCDE990
:105720000A019DED0A0B51EC100B0AF047FECDE982
:105730000C019DED0C0B51EC100B0AF059FD119072
:105740009DED150ADDED1A0A30EE600A8DED090AAD
:1057500009980BF04BFA21F000419FED660B53ECDA
:10576000102BCDE90A019DED0A0B51EC100B0AF04C
:1057700025FECDE90C019DED0C0B51EC100B0AF050
:1057800037FD10909DED140ADDED190A30EE600A28
:105790008DED090A09980BF029FA21F000419FEDDF
:1057A000550B53EC102B00E0C6E0CDE90A019DED4E
:1057B0000A0B51EC100B0AF001FECDE90C019DED36
:1057C0000C0B51EC100B0AF013FD0F909DED130A1A
:1057D000DDED180A30EE600A8DED090A09980BF02C
:1057E00005FA21F000419FED430B53EC102BCDE95E
:1057F0000A019DED0A0B51EC100B0AF0DFFDCDE91B
:105800000C019DED0C0B51EC100B0AF0F1FC0E900D
:105810009DED110AF3EE0E0AB4EEE00AF1EE10FA75
:1058200002DDB3EE0E0A01E09DED110A8DED110AC5
:105830009DED100AF3EE0E0AB4EEE00AF1EE10FA56
:1058400002DDB3EE0E0A01E09DED100A8DED100AA7
:105850009DED0F0AF3EE0E0AB4EEE00AF1EE10FA37
:1058600002DDB3EE0E0A01E09DED0F0A8DED0F0A89
:105870009DED0E0ADFED1A0AB4EEE00AF1EE10FA21
:1058800002DD9FED170A01E09DED0E0A8DED0E0A77
:105890000E980BF0ABF9CDE90C010F980BF0A6F9BF
:1058A000CDE90A0110980BF0A1F9CDE90801119892
:1058B0000BF09CF9CDE90601DDE90C01CDE904010D
:1058C000DDE90A01CDE90201DDE90801CDE90001C8
:1058D0009DED060B53EC102B084808F05BFB0FE026
:1058E0000000C84234000020B01300083800002037
:1058F000300000209A9999999999B93F9C480008DD
:10590000DDED0E3A9DED0F3ADDED102A9DED112AE9
:10591000DDED131A9DED141ADDED150A9DED160A45
:10592000FBF7EEFCFB4890ED000AF3EE0E0A30EEBA
:10593000600A80ED000A02E0F7A008F02BFB00BF30
:105940004BE418AB19AA1AA91BA8FBF7E2FA1790A7
:10595000179818B1F74808F01DFBB8E11B980BF039
:1059600045F921F000419FEDF40B53EC102BCDE9EC
:1059700010019DED100B51EC100B0AF0D1FE02D27C
:105980009FEDEF0A01E09DED1B0A8DED1B0A1A98B1
:105990000BF02CF921F000419FEDE70B53EC102B9D
:1059A000CDE910019DED100B51EC100B0AF0B8FE83
:1059B00002D29FEDE30A01E09DED1A0A8DED1A0A6D
:1059C00019980BF013F921F000419FEDDB0B53EC1C
:1059D000102BCDE910019DED100B51EC100B0AF0CE
:1059E0009FFE02D29FEDD60A01E09DED190A8DEDD2
:1059F000190A18980BF0FAF821F000419FEDCE0B30
:105A000053EC102BCDE910019DED100B51EC100B58
:105A10000AF086FE02D29FEDCA0A01E09DED180A47
:105A20008DED180AC74890ED000AF3EE0E0A30EE2D
:105A3000200A8DED110A13AB14AA15A916A89DED25
:105A4000111AB44CD4ED000ABF4C94ED000AFBF7D8
:105A5000F0FC1290129800287ED113980BF0C6F833
:105A6000CDE90C0114980BF0C1F8CDE90A011598A5
:105A70000BF0BCF8CDE9080116980BF0B7F8CDE9AA
:105A80000601DDE90C01CDE90401DDE90A01CDE9FA
:105A90000201DDE90801CDE900019DED060B53ECA3
:105AA000102BAA4808F076FA9DED160ADDED1B0AC8
:105AB00030EE600A8DED090A09980BF097F821F095
:105AC00000411FED740B53EC102BCDE90A019DED45
:105AD0000A0B51EC100B0AF071FCCDE90C019DEDA5
